{"abi":[{"type":"function","name":"ETH","inputs":[],"outputs":[{"name":"","type":"address","internalType":"address"}],"stateMutability":"view"}],"bytecode":{"object":"0x608080604052346018576071908161001d823930815050f35b5f80fdfe60808060405260043610156011575f80fd5b5f3560e01c638322fff2146023575f80fd5b5f3660031901126037578061eeee60209252f35b5f80fdfea2646970667358221220956da462d9b941f72a607d4d88a386eee91632e6fd8d3e71e9de3c184a57e18064736f6c63430008140033","linkReferences":{}},"methodIdentifiers":{"ETH()":"8322fff2"},"id":30}