{
	"format": "sphinx-sol-ct-artifact-1",
	"merkleRoot": "0x753529d634f83343a1543b94d1a36cbb8354fb5bddfdc1b23175e7efd0d0f9f0",
	"address": "0xd50e5cb3af7322fdc20f2f7abcd77204b50b760d",
	"sourceName": "contracts/DefifaDelegate.sol",
	"contractName": "DefifaDelegate",
	"chainId": "0xaa36a7",
	"abi": [
		{
			"inputs": [
				{
					"internalType": "contract IJBDirectory",
					"name": "_directory",
					"type": "address"
				},
				{
					"internalType": "contract IERC20",
					"name": "_defifaToken",
					"type": "address"
				},
				{
					"internalType": "contract IERC20",
					"name": "_baseProtocolToken",
					"type": "address"
				}
			],
			"stateMutability": "nonpayable",
			"type": "constructor"
		},
		{
			"inputs": [],
			"name": "DIRECTORY",
			"outputs": [
				{
					"internalType": "contract IJBDirectory",
					"name": "",
					"type": "address"
				}
			],
			"stateMutability": "view",
			"type": "function"
		},
		{
			"inputs": [],
			"name": "METADATA_ID_TARGET",
			"outputs": [
				{
					"internalType": "address",
					"name": "",
					"type": "address"
				}
			],
			"stateMutability": "view",
			"type": "function"
		},
		{
			"inputs": [],
			"name": "PROJECT_ID",
			"outputs": [
				{
					"internalType": "uint256",
					"name": "",
					"type": "uint256"
				}
			],
			"stateMutability": "view",
			"type": "function"
		},
		{
			"inputs": [],
			"name": "TOTAL_CASHOUT_WEIGHT",
			"outputs": [
				{
					"internalType": "uint256",
					"name": "",
					"type": "uint256"
				}
			],
			"stateMutability": "view",
			"type": "function"
		},
		{
			"inputs": [
				{
					"components": [
						{
							"internalType": "address",
							"name": "holder",
							"type": "address"
						},
						{
							"internalType": "uint256",
							"name": "projectId",
							"type": "uint256"
						},
						{
							"internalType": "uint256",
							"name": "rulesetId",
							"type": "uint256"
						},
						{
							"internalType": "uint256",
							"name": "cashOutCount",
							"type": "uint256"
						},
						{
							"components": [
								{
									"internalType": "address",
									"name": "token",
									"type": "address"
								},
								{
									"internalType": "uint8",
									"name": "decimals",
									"type": "uint8"
								},
								{
									"internalType": "uint32",
									"name": "currency",
									"type": "uint32"
								},
								{
									"internalType": "uint256",
									"name": "value",
									"type": "uint256"
								}
							],
							"internalType": "struct JBTokenAmount",
							"name": "reclaimedAmount",
							"type": "tuple"
						},
						{
							"components": [
								{
									"internalType": "address",
									"name": "token",
									"type": "address"
								},
								{
									"internalType": "uint8",
									"name": "decimals",
									"type": "uint8"
								},
								{
									"internalType": "uint32",
									"name": "currency",
									"type": "uint32"
								},
								{
									"internalType": "uint256",
									"name": "value",
									"type": "uint256"
								}
							],
							"internalType": "struct JBTokenAmount",
							"name": "forwardedAmount",
							"type": "tuple"
						},
						{
							"internalType": "uint256",
							"name": "cashOutTaxRate",
							"type": "uint256"
						},
						{
							"internalType": "address payable",
							"name": "beneficiary",
							"type": "address"
						},
						{
							"internalType": "bytes",
							"name": "hookMetadata",
							"type": "bytes"
						},
						{
							"internalType": "bytes",
							"name": "cashOutMetadata",
							"type": "bytes"
						}
					],
					"internalType": "struct JBAfterCashOutRecordedContext",
					"name": "context",
					"type": "tuple"
				}
			],
			"name": "afterCashOutRecordedWith",
			"outputs": [],
			"stateMutability": "payable",
			"type": "function"
		},
		{
			"inputs": [
				{
					"components": [
						{
							"internalType": "address",
							"name": "payer",
							"type": "address"
						},
						{
							"internalType": "uint256",
							"name": "projectId",
							"type": "uint256"
						},
						{
							"internalType": "uint256",
							"name": "rulesetId",
							"type": "uint256"
						},
						{
							"components": [
								{
									"internalType": "address",
									"name": "token",
									"type": "address"
								},
								{
									"internalType": "uint8",
									"name": "decimals",
									"type": "uint8"
								},
								{
									"internalType": "uint32",
									"name": "currency",
									"type": "uint32"
								},
								{
									"internalType": "uint256",
									"name": "value",
									"type": "uint256"
								}
							],
							"internalType": "struct JBTokenAmount",
							"name": "amount",
							"type": "tuple"
						},
						{
							"components": [
								{
									"internalType": "address",
									"name": "token",
									"type": "address"
								},
								{
									"internalType": "uint8",
									"name": "decimals",
									"type": "uint8"
								},
								{
									"internalType": "uint32",
									"name": "currency",
									"type": "uint32"
								},
								{
									"internalType": "uint256",
									"name": "value",
									"type": "uint256"
								}
							],
							"internalType": "struct JBTokenAmount",
							"name": "forwardedAmount",
							"type": "tuple"
						},
						{
							"internalType": "uint256",
							"name": "weight",
							"type": "uint256"
						},
						{
							"internalType": "uint256",
							"name": "newlyIssuedTokenCount",
							"type": "uint256"
						},
						{
							"internalType": "address",
							"name": "beneficiary",
							"type": "address"
						},
						{
							"internalType": "bytes",
							"name": "hookMetadata",
							"type": "bytes"
						},
						{
							"internalType": "bytes",
							"name": "payerMetadata",
							"type": "bytes"
						}
					],
					"internalType": "struct JBAfterPayRecordedContext",
					"name": "context",
					"type": "tuple"
				}
			],
			"name": "afterPayRecordedWith",
			"outputs": [],
			"stateMutability": "payable",
			"type": "function"
		},
		{
			"inputs": [],
			"name": "amountRedeemed",
			"outputs": [
				{
					"internalType": "uint256",
					"name": "",
					"type": "uint256"
				}
			],
			"stateMutability": "view",
			"type": "function"
		},
		{
			"inputs": [
				{
					"internalType": "address",
					"name": "to",
					"type": "address"
				},
				{
					"internalType": "uint256",
					"name": "tokenId",
					"type": "uint256"
				}
			],
			"name": "approve",
			"outputs": [],
			"stateMutability": "nonpayable",
			"type": "function"
		},
		{
			"inputs": [
				{
					"internalType": "address",
					"name": "owner",
					"type": "address"
				}
			],
			"name": "balanceOf",
			"outputs": [
				{
					"internalType": "uint256",
					"name": "",
					"type": "uint256"
				}
			],
			"stateMutability": "view",
			"type": "function"
		},
		{
			"inputs": [],
			"name": "baseProtocolToken",
			"outputs": [
				{
					"internalType": "contract IERC20",
					"name": "",
					"type": "address"
				}
			],
			"stateMutability": "view",
			"type": "function"
		},
		{
			"inputs": [],
			"name": "baseURI",
			"outputs": [
				{
					"internalType": "string",
					"name": "",
					"type": "string"
				}
			],
			"stateMutability": "view",
			"type": "function"
		},
		{
			"inputs": [
				{
					"components": [
						{
							"internalType": "address",
							"name": "terminal",
							"type": "address"
						},
						{
							"internalType": "address",
							"name": "holder",
							"type": "address"
						},
						{
							"internalType": "uint256",
							"name": "projectId",
							"type": "uint256"
						},
						{
							"internalType": "uint256",
							"name": "rulesetId",
							"type": "uint256"
						},
						{
							"internalType": "uint256",
							"name": "cashOutCount",
							"type": "uint256"
						},
						{
							"internalType": "uint256",
							"name": "totalSupply",
							"type": "uint256"
						},
						{
							"components": [
								{
									"internalType": "address",
									"name": "token",
									"type": "address"
								},
								{
									"internalType": "uint8",
									"name": "decimals",
									"type": "uint8"
								},
								{
									"internalType": "uint32",
									"name": "currency",
									"type": "uint32"
								},
								{
									"internalType": "uint256",
									"name": "value",
									"type": "uint256"
								}
							],
							"internalType": "struct JBTokenAmount",
							"name": "surplus",
							"type": "tuple"
						},
						{
							"internalType": "bool",
							"name": "useTotalSurplus",
							"type": "bool"
						},
						{
							"internalType": "uint256",
							"name": "cashOutTaxRate",
							"type": "uint256"
						},
						{
							"internalType": "bytes",
							"name": "metadata",
							"type": "bytes"
						}
					],
					"internalType": "struct JBBeforeCashOutRecordedContext",
					"name": "context",
					"type": "tuple"
				}
			],
			"name": "beforeCashOutRecordedWith",
			"outputs": [
				{
					"internalType": "uint256",
					"name": "cashOutTaxRate",
					"type": "uint256"
				},
				{
					"internalType": "uint256",
					"name": "cashOutCount",
					"type": "uint256"
				},
				{
					"internalType": "uint256",
					"name": "totalSupply",
					"type": "uint256"
				},
				{
					"components": [
						{
							"internalType": "contract IJBCashOutHook",
							"name": "hook",
							"type": "address"
						},
						{
							"internalType": "uint256",
							"name": "amount",
							"type": "uint256"
						},
						{
							"internalType": "bytes",
							"name": "metadata",
							"type": "bytes"
						}
					],
					"internalType": "struct JBCashOutHookSpecification[]",
					"name": "hookSpecifications",
					"type": "tuple[]"
				}
			],
			"stateMutability": "view",
			"type": "function"
		},
		{
			"inputs": [
				{
					"components": [
						{
							"internalType": "address",
							"name": "terminal",
							"type": "address"
						},
						{
							"internalType": "address",
							"name": "payer",
							"type": "address"
						},
						{
							"components": [
								{
									"internalType": "address",
									"name": "token",
									"type": "address"
								},
								{
									"internalType": "uint8",
									"name": "decimals",
									"type": "uint8"
								},
								{
									"internalType": "uint32",
									"name": "currency",
									"type": "uint32"
								},
								{
									"internalType": "uint256",
									"name": "value",
									"type": "uint256"
								}
							],
							"internalType": "struct JBTokenAmount",
							"name": "amount",
							"type": "tuple"
						},
						{
							"internalType": "uint256",
							"name": "projectId",
							"type": "uint256"
						},
						{
							"internalType": "uint256",
							"name": "rulesetId",
							"type": "uint256"
						},
						{
							"internalType": "address",
							"name": "beneficiary",
							"type": "address"
						},
						{
							"internalType": "uint256",
							"name": "weight",
							"type": "uint256"
						},
						{
							"internalType": "uint256",
							"name": "reservedPercent",
							"type": "uint256"
						},
						{
							"internalType": "bytes",
							"name": "metadata",
							"type": "bytes"
						}
					],
					"internalType": "struct JBBeforePayRecordedContext",
					"name": "context",
					"type": "tuple"
				}
			],
			"name": "beforePayRecordedWith",
			"outputs": [
				{
					"internalType": "uint256",
					"name": "weight",
					"type": "uint256"
				},
				{
					"components": [
						{
							"internalType": "contract IJBPayHook",
							"name": "hook",
							"type": "address"
						},
						{
							"internalType": "uint256",
							"name": "amount",
							"type": "uint256"
						},
						{
							"internalType": "bytes",
							"name": "metadata",
							"type": "bytes"
						}
					],
					"internalType": "struct JBPayHookSpecification[]",
					"name": "hookSpecifications",
					"type": "tuple[]"
				}
			],
			"stateMutability": "view",
			"type": "function"
		},
		{
			"inputs": [],
			"name": "cashOutWeightIsSet",
			"outputs": [
				{
					"internalType": "bool",
					"name": "",
					"type": "bool"
				}
			],
			"stateMutability": "view",
			"type": "function"
		},
		{
			"inputs": [
				{
					"internalType": "uint256",
					"name": "_tokenId",
					"type": "uint256"
				}
			],
			"name": "cashOutWeightOf",
			"outputs": [
				{
					"internalType": "uint256",
					"name": "",
					"type": "uint256"
				}
			],
			"stateMutability": "view",
			"type": "function"
		},
		{
			"inputs": [
				{
					"internalType": "uint256[]",
					"name": "tokenIds",
					"type": "uint256[]"
				},
				{
					"components": [
						{
							"internalType": "address",
							"name": "terminal",
							"type": "address"
						},
						{
							"internalType": "address",
							"name": "holder",
							"type": "address"
						},
						{
							"internalType": "uint256",
							"name": "projectId",
							"type": "uint256"
						},
						{
							"internalType": "uint256",
							"name": "rulesetId",
							"type": "uint256"
						},
						{
							"internalType": "uint256",
							"name": "cashOutCount",
							"type": "uint256"
						},
						{
							"internalType": "uint256",
							"name": "totalSupply",
							"type": "uint256"
						},
						{
							"components": [
								{
									"internalType": "address",
									"name": "token",
									"type": "address"
								},
								{
									"internalType": "uint8",
									"name": "decimals",
									"type": "uint8"
								},
								{
									"internalType": "uint32",
									"name": "currency",
									"type": "uint32"
								},
								{
									"internalType": "uint256",
									"name": "value",
									"type": "uint256"
								}
							],
							"internalType": "struct JBTokenAmount",
							"name": "surplus",
							"type": "tuple"
						},
						{
							"internalType": "bool",
							"name": "useTotalSurplus",
							"type": "bool"
						},
						{
							"internalType": "uint256",
							"name": "cashOutTaxRate",
							"type": "uint256"
						},
						{
							"internalType": "bytes",
							"name": "metadata",
							"type": "bytes"
						}
					],
					"internalType": "struct JBBeforeCashOutRecordedContext",
					"name": "",
					"type": "tuple"
				}
			],
			"name": "cashOutWeightOf",
			"outputs": [
				{
					"internalType": "uint256",
					"name": "cumulativeWeight",
					"type": "uint256"
				}
			],
			"stateMutability": "view",
			"type": "function"
		},
		{
			"inputs": [],
			"name": "codeOrigin",
			"outputs": [
				{
					"internalType": "address",
					"name": "",
					"type": "address"
				}
			],
			"stateMutability": "view",
			"type": "function"
		},
		{
			"inputs": [],
			"name": "contractURI",
			"outputs": [
				{
					"internalType": "string",
					"name": "",
					"type": "string"
				}
			],
			"stateMutability": "view",
			"type": "function"
		},
		{
			"inputs": [
				{
					"internalType": "uint256",
					"name": "_tierId",
					"type": "uint256"
				}
			],
			"name": "currentSupplyOfTier",
			"outputs": [
				{
					"internalType": "uint256",
					"name": "",
					"type": "uint256"
				}
			],
			"stateMutability": "view",
			"type": "function"
		},
		{
			"inputs": [],
			"name": "defaultAttestationDelegate",
			"outputs": [
				{
					"internalType": "address",
					"name": "",
					"type": "address"
				}
			],
			"stateMutability": "view",
			"type": "function"
		},
		{
			"inputs": [],
			"name": "defifaToken",
			"outputs": [
				{
					"internalType": "contract IERC20",
					"name": "",
					"type": "address"
				}
			],
			"stateMutability": "view",
			"type": "function"
		},
		{
			"inputs": [
				{
					"internalType": "uint256",
					"name": "_tokenId",
					"type": "uint256"
				}
			],
			"name": "firstOwnerOf",
			"outputs": [
				{
					"internalType": "address",
					"name": "",
					"type": "address"
				}
			],
			"stateMutability": "view",
			"type": "function"
		},
		{
			"inputs": [],
			"name": "gamePhaseReporter",
			"outputs": [
				{
					"internalType": "contract IDefifaGamePhaseReporter",
					"name": "",
					"type": "address"
				}
			],
			"stateMutability": "view",
			"type": "function"
		},
		{
			"inputs": [],
			"name": "gamePotReporter",
			"outputs": [
				{
					"internalType": "contract IDefifaGamePotReporter",
					"name": "",
					"type": "address"
				}
			],
			"stateMutability": "view",
			"type": "function"
		},
		{
			"inputs": [
				{
					"internalType": "uint256",
					"name": "tokenId",
					"type": "uint256"
				}
			],
			"name": "getApproved",
			"outputs": [
				{
					"internalType": "address",
					"name": "",
					"type": "address"
				}
			],
			"stateMutability": "view",
			"type": "function"
		},
		{
			"inputs": [
				{
					"internalType": "address",
					"name": "_account",
					"type": "address"
				},
				{
					"internalType": "uint256",
					"name": "_tier",
					"type": "uint256"
				},
				{
					"internalType": "uint256",
					"name": "_blockNumber",
					"type": "uint256"
				}
			],
			"name": "getPastTierAttestationUnitsOf",
			"outputs": [
				{
					"internalType": "uint256",
					"name": "",
					"type": "uint256"
				}
			],
			"stateMutability": "view",
			"type": "function"
		},
		{
			"inputs": [
				{
					"internalType": "uint256",
					"name": "_tier",
					"type": "uint256"
				},
				{
					"internalType": "uint256",
					"name": "_blockNumber",
					"type": "uint256"
				}
			],
			"name": "getPastTierTotalAttestationUnitsOf",
			"outputs": [
				{
					"internalType": "uint256",
					"name": "",
					"type": "uint256"
				}
			],
			"stateMutability": "view",
			"type": "function"
		},
		{
			"inputs": [
				{
					"internalType": "address",
					"name": "_account",
					"type": "address"
				},
				{
					"internalType": "uint256",
					"name": "_tier",
					"type": "uint256"
				}
			],
			"name": "getTierAttestationUnitsOf",
			"outputs": [
				{
					"internalType": "uint256",
					"name": "",
					"type": "uint256"
				}
			],
			"stateMutability": "view",
			"type": "function"
		},
		{
			"inputs": [
				{
					"internalType": "address",
					"name": "_account",
					"type": "address"
				},
				{
					"internalType": "uint256",
					"name": "_tier",
					"type": "uint256"
				}
			],
			"name": "getTierDelegateOf",
			"outputs": [
				{
					"internalType": "address",
					"name": "",
					"type": "address"
				}
			],
			"stateMutability": "view",
			"type": "function"
		},
		{
			"inputs": [
				{
					"internalType": "uint256",
					"name": "_tier",
					"type": "uint256"
				}
			],
			"name": "getTierTotalAttestationUnitsOf",
			"outputs": [
				{
					"internalType": "uint256",
					"name": "",
					"type": "uint256"
				}
			],
			"stateMutability": "view",
			"type": "function"
		},
		{
			"inputs": [
				{
					"internalType": "uint256",
					"name": "",
					"type": "uint256"
				},
				{
					"components": [
						{
							"internalType": "uint48",
							"name": "cycleNumber",
							"type": "uint48"
						},
						{
							"internalType": "uint48",
							"name": "id",
							"type": "uint48"
						},
						{
							"internalType": "uint48",
							"name": "basedOnId",
							"type": "uint48"
						},
						{
							"internalType": "uint48",
							"name": "start",
							"type": "uint48"
						},
						{
							"internalType": "uint32",
							"name": "duration",
							"type": "uint32"
						},
						{
							"internalType": "uint112",
							"name": "weight",
							"type": "uint112"
						},
						{
							"internalType": "uint32",
							"name": "weightCutPercent",
							"type": "uint32"
						},
						{
							"internalType": "contract IJBRulesetApprovalHook",
							"name": "approvalHook",
							"type": "address"
						},
						{
							"internalType": "uint256",
							"name": "metadata",
							"type": "uint256"
						}
					],
					"internalType": "struct JBRuleset",
					"name": "",
					"type": "tuple"
				},
				{
					"internalType": "address",
					"name": "",
					"type": "address"
				}
			],
			"name": "hasMintPermissionFor",
			"outputs": [
				{
					"internalType": "bool",
					"name": "",
					"type": "bool"
				}
			],
			"stateMutability": "pure",
			"type": "function"
		},
		{
			"inputs": [
				{
					"internalType": "uint256",
					"name": "_gameId",
					"type": "uint256"
				},
				{
					"internalType": "string",
					"name": "_name",
					"type": "string"
				},
				{
					"internalType": "string",
					"name": "_symbol",
					"type": "string"
				},
				{
					"internalType": "contract IJBRulesets",
					"name": "_rulesets",
					"type": "address"
				},
				{
					"internalType": "string",
					"name": "_baseUri",
					"type": "string"
				},
				{
					"internalType": "contract IJB721TokenUriResolver",
					"name": "_tokenUriResolver",
					"type": "address"
				},
				{
					"internalType": "string",
					"name": "_contractUri",
					"type": "string"
				},
				{
					"components": [
						{
							"internalType": "uint104",
							"name": "price",
							"type": "uint104"
						},
						{
							"internalType": "uint32",
							"name": "initialSupply",
							"type": "uint32"
						},
						{
							"internalType": "uint32",
							"name": "votingUnits",
							"type": "uint32"
						},
						{
							"internalType": "uint16",
							"name": "reserveFrequency",
							"type": "uint16"
						},
						{
							"internalType": "address",
							"name": "reserveBeneficiary",
							"type": "address"
						},
						{
							"internalType": "bytes32",
							"name": "encodedIPFSUri",
							"type": "bytes32"
						},
						{
							"internalType": "uint24",
							"name": "category",
							"type": "uint24"
						},
						{
							"internalType": "uint8",
							"name": "discountPercent",
							"type": "uint8"
						},
						{
							"internalType": "bool",
							"name": "allowOwnerMint",
							"type": "bool"
						},
						{
							"internalType": "bool",
							"name": "useReserveBeneficiaryAsDefault",
							"type": "bool"
						},
						{
							"internalType": "bool",
							"name": "transfersPausable",
							"type": "bool"
						},
						{
							"internalType": "bool",
							"name": "useVotingUnits",
							"type": "bool"
						},
						{
							"internalType": "bool",
							"name": "cannotBeRemoved",
							"type": "bool"
						},
						{
							"internalType": "bool",
							"name": "cannotIncreaseDiscountPercent",
							"type": "bool"
						}
					],
					"internalType": "struct JB721TierConfig[]",
					"name": "_tiers",
					"type": "tuple[]"
				},
				{
					"internalType": "uint48",
					"name": "_currency",
					"type": "uint48"
				},
				{
					"internalType": "contract IJB721TiersHookStore",
					"name": "_store",
					"type": "address"
				},
				{
					"internalType": "contract IDefifaGamePhaseReporter",
					"name": "_gamePhaseReporter",
					"type": "address"
				},
				{
					"internalType": "contract IDefifaGamePotReporter",
					"name": "_gamePotReporter",
					"type": "address"
				},
				{
					"internalType": "address",
					"name": "_defaultAttestationDelegate",
					"type": "address"
				},
				{
					"internalType": "string[]",
					"name": "_tierNames",
					"type": "string[]"
				}
			],
			"name": "initialize",
			"outputs": [],
			"stateMutability": "nonpayable",
			"type": "function"
		},
		{
			"inputs": [
				{
					"internalType": "address",
					"name": "owner",
					"type": "address"
				},
				{
					"internalType": "address",
					"name": "operator",
					"type": "address"
				}
			],
			"name": "isApprovedForAll",
			"outputs": [
				{
					"internalType": "bool",
					"name": "",
					"type": "bool"
				}
			],
			"stateMutability": "view",
			"type": "function"
		},
		{
			"inputs": [
				{
					"components": [
						{
							"internalType": "uint32",
							"name": "tierId",
							"type": "uint32"
						},
						{
							"internalType": "uint16",
							"name": "count",
							"type": "uint16"
						}
					],
					"internalType": "struct JB721TiersMintReservesConfig[]",
					"name": "_mintReservesForTiersData",
					"type": "tuple[]"
				}
			],
			"name": "mintReservesFor",
			"outputs": [],
			"stateMutability": "nonpayable",
			"type": "function"
		},
		{
			"inputs": [
				{
					"internalType": "uint256",
					"name": "_tierId",
					"type": "uint256"
				},
				{
					"internalType": "uint256",
					"name": "_count",
					"type": "uint256"
				}
			],
			"name": "mintReservesFor",
			"outputs": [],
			"stateMutability": "nonpayable",
			"type": "function"
		},
		{
			"inputs": [],
			"name": "name",
			"outputs": [
				{
					"internalType": "string",
					"name": "",
					"type": "string"
				}
			],
			"stateMutability": "view",
			"type": "function"
		},
		{
			"inputs": [],
			"name": "owner",
			"outputs": [
				{
					"internalType": "address",
					"name": "",
					"type": "address"
				}
			],
			"stateMutability": "view",
			"type": "function"
		},
		{
			"inputs": [
				{
					"internalType": "uint256",
					"name": "tokenId",
					"type": "uint256"
				}
			],
			"name": "ownerOf",
			"outputs": [
				{
					"internalType": "address",
					"name": "",
					"type": "address"
				}
			],
			"stateMutability": "view",
			"type": "function"
		},
		{
			"inputs": [],
			"name": "pricingCurrency",
			"outputs": [
				{
					"internalType": "uint256",
					"name": "",
					"type": "uint256"
				}
			],
			"stateMutability": "view",
			"type": "function"
		},
		{
			"inputs": [],
			"name": "renounceOwnership",
			"outputs": [],
			"stateMutability": "nonpayable",
			"type": "function"
		},
		{
			"inputs": [],
			"name": "rulesets",
			"outputs": [
				{
					"internalType": "contract IJBRulesets",
					"name": "",
					"type": "address"
				}
			],
			"stateMutability": "view",
			"type": "function"
		},
		{
			"inputs": [
				{
					"internalType": "address",
					"name": "from",
					"type": "address"
				},
				{
					"internalType": "address",
					"name": "to",
					"type": "address"
				},
				{
					"internalType": "uint256",
					"name": "tokenId",
					"type": "uint256"
				}
			],
			"name": "safeTransferFrom",
			"outputs": [],
			"stateMutability": "nonpayable",
			"type": "function"
		},
		{
			"inputs": [
				{
					"internalType": "address",
					"name": "from",
					"type": "address"
				},
				{
					"internalType": "address",
					"name": "to",
					"type": "address"
				},
				{
					"internalType": "uint256",
					"name": "tokenId",
					"type": "uint256"
				},
				{
					"internalType": "bytes",
					"name": "data",
					"type": "bytes"
				}
			],
			"name": "safeTransferFrom",
			"outputs": [],
			"stateMutability": "nonpayable",
			"type": "function"
		},
		{
			"inputs": [
				{
					"internalType": "address",
					"name": "operator",
					"type": "address"
				},
				{
					"internalType": "bool",
					"name": "approved",
					"type": "bool"
				}
			],
			"name": "setApprovalForAll",
			"outputs": [],
			"stateMutability": "nonpayable",
			"type": "function"
		},
		{
			"inputs": [
				{
					"components": [
						{
							"internalType": "uint256",
							"name": "id",
							"type": "uint256"
						},
						{
							"internalType": "uint256",
							"name": "cashOutWeight",
							"type": "uint256"
						}
					],
					"internalType": "struct DefifaTierCashOutWeight[]",
					"name": "_tierWeights",
					"type": "tuple[]"
				}
			],
			"name": "setTierCashOutWeightsTo",
			"outputs": [],
			"stateMutability": "nonpayable",
			"type": "function"
		},
		{
			"inputs": [
				{
					"internalType": "address",
					"name": "_delegatee",
					"type": "address"
				},
				{
					"internalType": "uint256",
					"name": "_tierId",
					"type": "uint256"
				}
			],
			"name": "setTierDelegateTo",
			"outputs": [],
			"stateMutability": "nonpayable",
			"type": "function"
		},
		{
			"inputs": [
				{
					"components": [
						{
							"internalType": "address",
							"name": "delegatee",
							"type": "address"
						},
						{
							"internalType": "uint256",
							"name": "tierId",
							"type": "uint256"
						}
					],
					"internalType": "struct DefifaDelegation[]",
					"name": "_setTierDelegatesData",
					"type": "tuple[]"
				}
			],
			"name": "setTierDelegatesTo",
			"outputs": [],
			"stateMutability": "nonpayable",
			"type": "function"
		},
		{
			"inputs": [],
			"name": "store",
			"outputs": [
				{
					"internalType": "contract IJB721TiersHookStore",
					"name": "",
					"type": "address"
				}
			],
			"stateMutability": "view",
			"type": "function"
		},
		{
			"inputs": [
				{
					"internalType": "bytes4",
					"name": "_interfaceId",
					"type": "bytes4"
				}
			],
			"name": "supportsInterface",
			"outputs": [
				{
					"internalType": "bool",
					"name": "",
					"type": "bool"
				}
			],
			"stateMutability": "view",
			"type": "function"
		},
		{
			"inputs": [],
			"name": "symbol",
			"outputs": [
				{
					"internalType": "string",
					"name": "",
					"type": "string"
				}
			],
			"stateMutability": "view",
			"type": "function"
		},
		{
			"inputs": [],
			"name": "tierCashOutWeights",
			"outputs": [
				{
					"internalType": "uint256[128]",
					"name": "",
					"type": "uint256[128]"
				}
			],
			"stateMutability": "view",
			"type": "function"
		},
		{
			"inputs": [
				{
					"internalType": "uint256",
					"name": "_tierId",
					"type": "uint256"
				}
			],
			"name": "tierNameOf",
			"outputs": [
				{
					"internalType": "string",
					"name": "",
					"type": "string"
				}
			],
			"stateMutability": "view",
			"type": "function"
		},
		{
			"inputs": [],
			"name": "tokenAllocations",
			"outputs": [
				{
					"internalType": "uint256",
					"name": "defifaTokenAllocation",
					"type": "uint256"
				},
				{
					"internalType": "uint256",
					"name": "baseProtocolTokenAllocation",
					"type": "uint256"
				}
			],
			"stateMutability": "view",
			"type": "function"
		},
		{
			"inputs": [
				{
					"internalType": "uint256",
					"name": "_tokenId",
					"type": "uint256"
				}
			],
			"name": "tokenURI",
			"outputs": [
				{
					"internalType": "string",
					"name": "",
					"type": "string"
				}
			],
			"stateMutability": "view",
			"type": "function"
		},
		{
			"inputs": [
				{
					"internalType": "uint256[]",
					"name": "_tokenIds",
					"type": "uint256[]"
				}
			],
			"name": "tokensClaimableFor",
			"outputs": [
				{
					"internalType": "uint256",
					"name": "defifaTokenAmount",
					"type": "uint256"
				},
				{
					"internalType": "uint256",
					"name": "baseProtocolTokenAmount",
					"type": "uint256"
				}
			],
			"stateMutability": "view",
			"type": "function"
		},
		{
			"inputs": [
				{
					"internalType": "uint256",
					"name": "",
					"type": "uint256"
				}
			],
			"name": "tokensRedeemedFrom",
			"outputs": [
				{
					"internalType": "uint256",
					"name": "",
					"type": "uint256"
				}
			],
			"stateMutability": "view",
			"type": "function"
		},
		{
			"inputs": [
				{
					"components": [
						{
							"internalType": "address",
							"name": "terminal",
							"type": "address"
						},
						{
							"internalType": "address",
							"name": "holder",
							"type": "address"
						},
						{
							"internalType": "uint256",
							"name": "projectId",
							"type": "uint256"
						},
						{
							"internalType": "uint256",
							"name": "rulesetId",
							"type": "uint256"
						},
						{
							"internalType": "uint256",
							"name": "cashOutCount",
							"type": "uint256"
						},
						{
							"internalType": "uint256",
							"name": "totalSupply",
							"type": "uint256"
						},
						{
							"components": [
								{
									"internalType": "address",
									"name": "token",
									"type": "address"
								},
								{
									"internalType": "uint8",
									"name": "decimals",
									"type": "uint8"
								},
								{
									"internalType": "uint32",
									"name": "currency",
									"type": "uint32"
								},
								{
									"internalType": "uint256",
									"name": "value",
									"type": "uint256"
								}
							],
							"internalType": "struct JBTokenAmount",
							"name": "surplus",
							"type": "tuple"
						},
						{
							"internalType": "bool",
							"name": "useTotalSurplus",
							"type": "bool"
						},
						{
							"internalType": "uint256",
							"name": "cashOutTaxRate",
							"type": "uint256"
						},
						{
							"internalType": "bytes",
							"name": "metadata",
							"type": "bytes"
						}
					],
					"internalType": "struct JBBeforeCashOutRecordedContext",
					"name": "",
					"type": "tuple"
				}
			],
			"name": "totalCashOutWeight",
			"outputs": [
				{
					"internalType": "uint256",
					"name": "",
					"type": "uint256"
				}
			],
			"stateMutability": "view",
			"type": "function"
		},
		{
			"inputs": [
				{
					"internalType": "address",
					"name": "from",
					"type": "address"
				},
				{
					"internalType": "address",
					"name": "to",
					"type": "address"
				},
				{
					"internalType": "uint256",
					"name": "tokenId",
					"type": "uint256"
				}
			],
			"name": "transferFrom",
			"outputs": [],
			"stateMutability": "nonpayable",
			"type": "function"
		},
		{
			"inputs": [
				{
					"internalType": "address",
					"name": "newOwner",
					"type": "address"
				}
			],
			"name": "transferOwnership",
			"outputs": [],
			"stateMutability": "nonpayable",
			"type": "function"
		},
		{
			"anonymous": false,
			"inputs": [
				{
					"indexed": true,
					"internalType": "address",
					"name": "owner",
					"type": "address"
				},
				{
					"indexed": true,
					"internalType": "address",
					"name": "approved",
					"type": "address"
				},
				{
					"indexed": true,
					"internalType": "uint256",
					"name": "tokenId",
					"type": "uint256"
				}
			],
			"name": "Approval",
			"type": "event"
		},
		{
			"anonymous": false,
			"inputs": [
				{
					"indexed": true,
					"internalType": "address",
					"name": "owner",
					"type": "address"
				},
				{
					"indexed": true,
					"internalType": "address",
					"name": "operator",
					"type": "address"
				},
				{
					"indexed": false,
					"internalType": "bool",
					"name": "approved",
					"type": "bool"
				}
			],
			"name": "ApprovalForAll",
			"type": "event"
		},
		{
			"anonymous": false,
			"inputs": [
				{
					"indexed": true,
					"internalType": "address",
					"name": "beneficiary",
					"type": "address"
				},
				{
					"indexed": false,
					"internalType": "uint256",
					"name": "defifaTokenAmount",
					"type": "uint256"
				},
				{
					"indexed": false,
					"internalType": "uint256",
					"name": "baseProtocolTokenAmount",
					"type": "uint256"
				},
				{
					"indexed": false,
					"internalType": "address",
					"name": "caller",
					"type": "address"
				}
			],
			"name": "ClaimedTokens",
			"type": "event"
		},
		{
			"anonymous": false,
			"inputs": [
				{
					"indexed": true,
					"internalType": "address",
					"name": "delegator",
					"type": "address"
				},
				{
					"indexed": true,
					"internalType": "address",
					"name": "fromDelegate",
					"type": "address"
				},
				{
					"indexed": true,
					"internalType": "address",
					"name": "toDelegate",
					"type": "address"
				}
			],
			"name": "DelegateChanged",
			"type": "event"
		},
		{
			"anonymous": false,
			"inputs": [
				{
					"indexed": true,
					"internalType": "uint256",
					"name": "tokenId",
					"type": "uint256"
				},
				{
					"indexed": true,
					"internalType": "uint256",
					"name": "tierId",
					"type": "uint256"
				},
				{
					"indexed": true,
					"internalType": "address",
					"name": "beneficiary",
					"type": "address"
				},
				{
					"indexed": false,
					"internalType": "uint256",
					"name": "totalAmountContributed",
					"type": "uint256"
				},
				{
					"indexed": false,
					"internalType": "address",
					"name": "caller",
					"type": "address"
				}
			],
			"name": "Mint",
			"type": "event"
		},
		{
			"anonymous": false,
			"inputs": [
				{
					"indexed": true,
					"internalType": "uint256",
					"name": "tokenId",
					"type": "uint256"
				},
				{
					"indexed": true,
					"internalType": "uint256",
					"name": "tierId",
					"type": "uint256"
				},
				{
					"indexed": true,
					"internalType": "address",
					"name": "beneficiary",
					"type": "address"
				},
				{
					"indexed": false,
					"internalType": "address",
					"name": "caller",
					"type": "address"
				}
			],
			"name": "MintReservedToken",
			"type": "event"
		},
		{
			"anonymous": false,
			"inputs": [
				{
					"indexed": true,
					"internalType": "address",
					"name": "previousOwner",
					"type": "address"
				},
				{
					"indexed": true,
					"internalType": "address",
					"name": "newOwner",
					"type": "address"
				}
			],
			"name": "OwnershipTransferred",
			"type": "event"
		},
		{
			"anonymous": false,
			"inputs": [
				{
					"components": [
						{
							"internalType": "uint256",
							"name": "id",
							"type": "uint256"
						},
						{
							"internalType": "uint256",
							"name": "cashOutWeight",
							"type": "uint256"
						}
					],
					"indexed": false,
					"internalType": "struct DefifaTierCashOutWeight[]",
					"name": "_tierWeights",
					"type": "tuple[]"
				},
				{
					"indexed": false,
					"internalType": "address",
					"name": "caller",
					"type": "address"
				}
			],
			"name": "TierCashOutWeightsSet",
			"type": "event"
		},
		{
			"anonymous": false,
			"inputs": [
				{
					"indexed": true,
					"internalType": "address",
					"name": "delegate",
					"type": "address"
				},
				{
					"indexed": true,
					"internalType": "uint256",
					"name": "tierId",
					"type": "uint256"
				},
				{
					"indexed": false,
					"internalType": "uint256",
					"name": "previousBalance",
					"type": "uint256"
				},
				{
					"indexed": false,
					"internalType": "uint256",
					"name": "newBalance",
					"type": "uint256"
				},
				{
					"indexed": false,
					"internalType": "address",
					"name": "caller",
					"type": "address"
				}
			],
			"name": "TierDelegateAttestationsChanged",
			"type": "event"
		},
		{
			"anonymous": false,
			"inputs": [
				{
					"indexed": true,
					"internalType": "address",
					"name": "from",
					"type": "address"
				},
				{
					"indexed": true,
					"internalType": "address",
					"name": "to",
					"type": "address"
				},
				{
					"indexed": true,
					"internalType": "uint256",
					"name": "tokenId",
					"type": "uint256"
				}
			],
			"name": "Transfer",
			"type": "event"
		},
		{
			"inputs": [],
			"name": "BAD_TIER_ORDER",
			"type": "error"
		},
		{
			"inputs": [],
			"name": "CASHOUT_WEIGHTS_ALREADY_SET",
			"type": "error"
		},
		{
			"inputs": [],
			"name": "CheckpointUnorderedInsertion",
			"type": "error"
		},
		{
			"inputs": [],
			"name": "DELEGATE_ADDRESS_ZERO",
			"type": "error"
		},
		{
			"inputs": [],
			"name": "DELEGATE_CHANGES_UNAVAILABLE_IN_THIS_PHASE",
			"type": "error"
		},
		{
			"inputs": [
				{
					"internalType": "address",
					"name": "sender",
					"type": "address"
				},
				{
					"internalType": "uint256",
					"name": "tokenId",
					"type": "uint256"
				},
				{
					"internalType": "address",
					"name": "owner",
					"type": "address"
				}
			],
			"name": "ERC721IncorrectOwner",
			"type": "error"
		},
		{
			"inputs": [
				{
					"internalType": "address",
					"name": "operator",
					"type": "address"
				},
				{
					"internalType": "uint256",
					"name": "tokenId",
					"type": "uint256"
				}
			],
			"name": "ERC721InsufficientApproval",
			"type": "error"
		},
		{
			"inputs": [
				{
					"internalType": "address",
					"name": "approver",
					"type": "address"
				}
			],
			"name": "ERC721InvalidApprover",
			"type": "error"
		},
		{
			"inputs": [
				{
					"internalType": "address",
					"name": "operator",
					"type": "address"
				}
			],
			"name": "ERC721InvalidOperator",
			"type": "error"
		},
		{
			"inputs": [
				{
					"internalType": "address",
					"name": "owner",
					"type": "address"
				}
			],
			"name": "ERC721InvalidOwner",
			"type": "error"
		},
		{
			"inputs": [
				{
					"internalType": "address",
					"name": "receiver",
					"type": "address"
				}
			],
			"name": "ERC721InvalidReceiver",
			"type": "error"
		},
		{
			"inputs": [
				{
					"internalType": "address",
					"name": "sender",
					"type": "address"
				}
			],
			"name": "ERC721InvalidSender",
			"type": "error"
		},
		{
			"inputs": [
				{
					"internalType": "uint256",
					"name": "tokenId",
					"type": "uint256"
				}
			],
			"name": "ERC721NonexistentToken",
			"type": "error"
		},
		{
			"inputs": [],
			"name": "GAME_ISNT_SCORING_YET",
			"type": "error"
		},
		{
			"inputs": [],
			"name": "INVALID_CASHOUT_WEIGHTS",
			"type": "error"
		},
		{
			"inputs": [],
			"name": "INVALID_TIER_ID",
			"type": "error"
		},
		{
			"inputs": [],
			"name": "JB721Hook_InvalidCashOut",
			"type": "error"
		},
		{
			"inputs": [],
			"name": "JB721Hook_InvalidPay",
			"type": "error"
		},
		{
			"inputs": [
				{
					"internalType": "uint256",
					"name": "tokenId",
					"type": "uint256"
				},
				{
					"internalType": "address",
					"name": "holder",
					"type": "address"
				}
			],
			"name": "JB721Hook_UnauthorizedToken",
			"type": "error"
		},
		{
			"inputs": [],
			"name": "JB721Hook_UnexpectedTokenCashedOut",
			"type": "error"
		},
		{
			"inputs": [],
			"name": "NOTHING_TO_CLAIM",
			"type": "error"
		},
		{
			"inputs": [],
			"name": "NOTHING_TO_MINT",
			"type": "error"
		},
		{
			"inputs": [],
			"name": "NO_CONTEST",
			"type": "error"
		},
		{
			"inputs": [],
			"name": "OVERSPENDING",
			"type": "error"
		},
		{
			"inputs": [
				{
					"internalType": "address",
					"name": "owner",
					"type": "address"
				}
			],
			"name": "OwnableInvalidOwner",
			"type": "error"
		},
		{
			"inputs": [
				{
					"internalType": "address",
					"name": "account",
					"type": "address"
				}
			],
			"name": "OwnableUnauthorizedAccount",
			"type": "error"
		},
		{
			"inputs": [
				{
					"internalType": "uint256",
					"name": "x",
					"type": "uint256"
				},
				{
					"internalType": "uint256",
					"name": "y",
					"type": "uint256"
				},
				{
					"internalType": "uint256",
					"name": "denominator",
					"type": "uint256"
				}
			],
			"name": "PRBMath_MulDiv_Overflow",
			"type": "error"
		},
		{
			"inputs": [],
			"name": "RESERVED_TOKEN_MINTING_PAUSED",
			"type": "error"
		},
		{
			"inputs": [],
			"name": "TRANSFERS_PAUSED",
			"type": "error"
		},
		{
			"inputs": [
				{
					"internalType": "uint256",
					"name": "tokenId",
					"type": "uint256"
				},
				{
					"internalType": "address",
					"name": "owner",
					"type": "address"
				},
				{
					"internalType": "address",
					"name": "caller",
					"type": "address"
				}
			],
			"name": "UNAUTHORIZED",
			"type": "error"
		},
		{
			"inputs": [],
			"name": "WRONG_CURRENCY",
			"type": "error"
		}
	],
	"args": [],
	"solcInputHash": "bcbb9914437dab3f0290de7202dec20b",
	"bytecode": "0x610120346200016457601f620060cf38819003918201601f19168301916001600160401b038311848410176200016857808492606094604052833981010312620001645780516001600160a01b0390818116810362000164576200007460406200006c602086016200017c565b94016200017c565b906080523060a05233156200014c5760078054336001600160a01b03198216811790925560405193167f8be0079c531659141344cd1fd0a4f28419497f9722a3daafe3b4186f6b6457e05f80a36101009230845260c05260e052615f3d9182620001928339608051828181610aea015281816117c20152611fff015260a051828181611ccf01526124eb015260c051828181610d8f01528181613c9f01526155b6015260e051828181610b6e01528181613ced0152615553015251818181610c6b0152818161265f0152818161391b01526147480152f35b604051631e4fbdf760e01b81525f6004820152602490fd5b5f80fd5b634e487b7160e01b5f52604160045260245ffd5b51906001600160a01b0382168203620001645756fe60806040526004361015610011575f80fd5b5f3560e01c806301ffc9a7146103c457806306fdde03146103bf57806307405b24146103ba578063081812fc146103b5578063095ea7b3146103b05780630fa617c0146103ab5780631337f986146103a65780631417f9f6146103a15780631baabc3e1461039c5780631d153ca4146103975780631da1da721461039257806323b872dd1461038d57806327f6e9791461038857806329eabfe7146103835780633b2b8a781461037e57806342842e0e14610379578063453135a41461037457806354c6d1f51461036f57806356539f391461036a57806359196c7d146103655780636352211e1461036057806364640c1e1461035b57806369f72970146103565780636c0360eb1461035157806370a082311461034c578063715018a6146103475780637245d80c14610342578063743682b51461033d5780637f98988714610338578063859252e214610333578063873e7e4b1461032e57806388bc2ef3146103295780638cc35846146103245780638da5cb5b1461031f57806392eb16411461031a57806395d89b4114610315578063975057e71461031057806399f6d77f1461030b5780639c8c6cd514610306578063a0b6490c14610301578063a22cb465146102fc578063aa4fb15b146102f7578063b88d4fde146102f2578063c22903b2146102ed578063c3c69a96146102e8578063c87b56dd146102e3578063c90f5126146102de578063c9149c5f146102d9578063cb7043f7146102d4578063d3fef143146102cf578063d9119f5f146102ca578063e4f650b8146102c5578063e8a3d485146102c0578063e985e9c5146102bb578063ea1c1b25146102b6578063edab09b9146102b1578063f2fde38b146102ac578063f7623b81146102a75763fb82b1b0146102a2575f80fd5b612640565b61256f565b61251a565b6124d6565b61247a565b612423565b61239a565b612318565b6122dd565b6122bb565b612283565b61225b565b6121a8565b6120b8565b61205d565b611ca9565b611c42565b611c23565b611b7c565b611b54565b611b0c565b611a62565b611a0e565b611983565b611959565b611931565b611885565b6117ad565b61178b565b611658565b611630565b611606565b6115a6565b61155e565b611504565b61147b565b6113ed565b611370565b611352565b611296565b611279565b611249565b61115a565b610dbe565b610d7a565b610d54565b610d37565b610d20565b610cd3565b610c56565b610b9d565b610b59565b610a77565b61099b565b61077b565b61073f565b61064b565b610552565b6103df565b6001600160e01b03198116036103db57565b5f80fd5b346103db5760203660031901126103db5761042d6004356103ff816103c9565b63ffffffff60e01b16639410e89960e01b8114908115610431575b5060405190151581529081906020820190565b0390f35b633344b87360e01b8114915081156104dd575b81156104cc575b81156104bb575b81156104aa575b8115610467575b505f61041a565b6380ac58cd60e01b811491508115610499575b8115610488575b505f610460565b6301ffc9a760e01b1490505f610481565b635b5e139f60e01b8114915061047a565b63152a902d60e11b81149150610459565b63611481d960e11b81149150610452565b63099bfcc360e11b8114915061044b565b63eeb73e8960e01b81149150610444565b5f9103126103db57565b5f5b8381106105095750505f910152565b81810151838201526020016104fa565b90602091610532815180928185528580860191016104f8565b601f01601f1916010190565b90602061054f928181520190610519565b90565b346103db575f3660031901126103db576040515f905f5461057281611443565b8083526020916001908181169081156105e557506001146105aa575b61042d8461059e818803826108d5565b6040519182918261053e565b5f808052838120939550925b8284106105d2575050508161042d9361059e928201019361058e565b80548585018701529285019281016105b6565b60ff1916858501525050151560051b820101915061059e8161042d61058e565b6001600160a01b031690565b6001600160a01b038116036103db57565b610184359061063082610611565b565b610144359061063082610611565b359061063082610611565b346103db5760403660031901126103db5760043561066881610611565b6106a4602061068061067b609054610605565b610605565b60065490604051808095819463038ab08560e11b8352600483019190602083019252565b03915afa8015610718576001915f916106e9575b506106c281612918565b036106d7576106d5906024359033614537565b005b60405163f331f3c160e01b8152600490fd5b61070b915060203d602011610711575b61070381836108d5565b8101906128f5565b5f6106b8565b503d6106f9565b61290d565b908160209103126103db573590565b6001600160a01b03909116815260200190565b346103db5760203660031901126103db5760043561075c816145ff565b505f526004602052602060018060a01b0360405f205416604051908152f35b346103db5760403660031901126103db5760043561079881610611565b602435906107a5826145ff565b33151580610844575b8061081c575b6107fd576106d5926107f89181906001600160a01b0385811691167f8c5be1e5ebec7d5bd14f71427d1e84f3dd0314c0f7b2291e5b200ac8c7c3b9255f80a46115f8565b61329a565b60405163a9fbf51f60e01b815280610818336004830161072c565b0390fd5b5060018060a01b0381165f52600560205260ff61083c3360405f20613c2a565b5416156107b4565b506001600160a01b0381163314156107ae565b634e487b7160e01b5f52604160045260245ffd5b604081019081106001600160401b0382111761088657604052565b610857565b6001600160401b03811161088657604052565b602081019081106001600160401b0382111761088657604052565b61100081019081106001600160401b0382111761088657604052565b601f909101601f19168101906001600160401b0382119082101761088657604052565b604051906101c082016001600160401b0381118382101761088657604052565b60405190606082016001600160401b0381118382101761088657604052565b6040519061012082016001600160401b0381118382101761088657604052565b604051906101e082016001600160401b0381118382101761088657604052565b604051906106308261086b565b6001600160401b0381116108865760051b60200190565b346103db576020806003193601126103db57600435906001600160401b0382116103db57366023830112156103db578160040135916109d983610984565b916040936109ea60405194856108d5565b8084526024602085019160061b840101923684116103db57602401905b838210610a17576106d585612936565b85823603126103db578286918251610a2e8161086b565b843581528285013583820152815201910190610a07565b600319906020818301126103db57600435916001600160401b0383116103db5782610200920301126103db5760040190565b610a8036610a45565b600654341590811591610ac4575b8115610ab5575b50610aa3576106d590614724565b604051633fb648ad60e11b8152600490fd5b9050602082013514155f610a95565b604051636e49181f60e01b815290915060208180610ae6338660048401612fd4565b03817f00000000000000000000000000000000000000000000000000000000000000006001600160a01b03165afa908115610718575f91610b2a575b501590610a8e565b610b4c915060203d602011610b52575b610b4481836108d5565b810190612fbf565b5f610b22565b503d610b3a565b346103db575f3660031901126103db576040517f00000000000000000000000000000000000000000000000000000000000000006001600160a01b03168152602090f35b346103db576020806003193601126103db576004355f52608c815260405f2090604051905f928054610bce81611443565b80855291600191808316908115610c345750600114610bf8575b61042d8561059e818903826108d5565b5f908152838120939550925b828410610c21575050508161042d9361059e92820101935f610be8565b8054858501870152928501928101610c04565b60ff191686860152505050151560051b820101915061059e8161042d5f610be8565b346103db575f3660031901126103db576040517f00000000000000000000000000000000000000000000000000000000000000006001600160a01b03168152602090f35b90816101a09103126103db5790565b60206003198201126103db57600435906001600160401b0382116103db5761054f91600401610c9a565b346103db57610ce136610ca9565b506020604051670de0b6b3a76400008152f35b60609060031901126103db57600435610d0c81610611565b90602435610d1981610611565b9060443590565b346103db576106d5610d3136610cf4565b91612fed565b346103db575f3660031901126103db576020609754604051908152f35b346103db5760203660031901126103db576020610d726004356130ad565b604051908152f35b346103db575f3660031901126103db576040517f00000000000000000000000000000000000000000000000000000000000000006001600160a01b03168152602090f35b346103db576106d5610dcf36610cf4565b9060405192610ddd8461089e565b5f845261412e565b6001600160401b03811161088657601f01601f191660200190565b929192610e0c82610de5565b91610e1a60405193846108d5565b8294818452818301116103db578281602093845f960137010152565b9080601f830112156103db5781602061054f93359101610e00565b6064359061063082610611565b60a4359061063082610611565b6001600160681b038116036103db57565b359061063082610e6b565b63ffffffff8116036103db57565b60a4359061063082610e87565b60e4359061063082610e87565b359061063082610e87565b61ffff8116036103db57565b359061063082610eba565b62ffffff8116036103db57565b359061063082610ed1565b60ff8116036103db57565b359061063082610ee9565b801515036103db57565b359061063082610eff565b81601f820112156103db578035906020610f2d83610984565b936040610f3d60405196876108d5565b84865282860191836101c0809702860101948186116103db578401925b858410610f6b575050505050505090565b86848303126103db57848791610f7f6108f8565b610f8887610e7c565b8152610f95838801610eaf565b83820152610fa4868801610eaf565b868201526060610fb5818901610ec6565b908201526080610fc6818901610640565b9082015260a0808801359082015260c0610fe1818901610ede565b9082015260e0610ff2818901610ef4565b90820152610100611004818901610f09565b90820152610120611016818901610f09565b90820152610140611028818901610f09565b9082015261016061103a818901610f09565b9082015261018061104c818901610f09565b908201526101a061105e818901610f09565b90820152815201930192610f5a565b65ffffffffffff8116036103db57565b61010435906106308261106d565b602435906106308261106d565b604435906106308261106d565b606435906106308261106d565b608435906106308261106d565b610124359061063082610611565b610164359061063082610611565b81601f820112156103db578035916020916110f584610984565b9361110360405195866108d5565b808552838086019160051b830101928084116103db57848301915b84831061112e5750505050505090565b82356001600160401b0381116103db57869161114f84848094890101610e36565b81520192019161111e565b346103db576101c03660031901126103db576001600160401b0360046024358281116103db5761118d9036908301610e36565b6044358381116103db576111a49036908401610e36565b6111ac610e51565b6084358581116103db576111c39036908601610e36565b6111cb610e5e565b60c4358781116103db576111e29036908801610e36565b60e4358881116103db576111f99036908901610f14565b9061120261107d565b9261120b6110bf565b94611214610632565b9661121d6110cd565b98611226610622565b9a6101a4359d8e116103db576112428d6106d59f3691016110db565b9c35613903565b346103db5760203660031901126103db576020611267600435613b6f565b6040516001600160a01b039091168152f35b346103db575f3660031901126103db576020600654604051908152f35b346103db576020806003193601126103db57600435906001600160401b03908183116103db57366023840112156103db5782600401359182116103db5760249260063660248560061b840101116103db575f5b8481106112f257005b80821b83019060408060231984360301126103db5760019263ffffffff61ffff8861134c94516113218161086b565b60448d8601359561133187610e87565b868352013591829161134283610eba565b0152169116613e4d565b016112e9565b346103db5760203660031901126103db5760206112676004356145ff565b346103db575f3660031901126103db576020609254604051908152f35b9080601f830112156103db5760209082356113a781610984565b936113b560405195866108d5565b81855260208086019260051b8201019283116103db57602001905b8282106113de575050505090565b813581529083019083016113d0565b346103db5760403660031901126103db576001600160401b036004358181116103db5761141e90369060040161138d565b906024359081116103db5760209161143d610d72923690600401610c9a565b50613ba1565b90600182811c92168015611471575b602083101461145d57565b634e487b7160e01b5f52602260045260245ffd5b91607f1691611452565b346103db575f3660031901126103db576040515f9060945461149c81611443565b8083526020916001908181169081156105e557506001146114c75761042d8461059e818803826108d5565b91935060945f52835f20915f925b8284106114f1575050508161042d9361059e928201019361058e565b80548585018701529285019281016114d5565b346103db5760203660031901126103db5760043561152181610611565b6001600160a01b03168015611546575f526003602052602060405f2054604051908152f35b6040516322718ad960e21b81525f6004820152602490fd5b346103db575f3660031901126103db57611576614639565b600780546001600160a01b031981169091555f906001600160a01b03165f80516020615ea88339815191528280a3005b346103db575f3660031901126103db576091546040516001600160a01b039091168152602090f35b5f52600260205260405f2090565b5f52608b60205260405f2090565b5f52608a60205260405f2090565b5f52600460205260405f2090565b346103db5760203660031901126103db576004355f526098602052602060405f2054604051908152f35b346103db575f3660031901126103db576096546040516001600160a01b039091168152602090f35b346103db5760203660031901126103db5760043561167a61067b608e54610605565b6040516364faa15960e01b8152915f8380611699843060048401612eb3565b0381855afa908115610718576116f3935f92611764575b506020906116d660406116ca606086015163ffffffff1690565b94015163ffffffff1690565b9360405180809781946302b7e6ef60e41b83523060048401613074565b03915afa9182156107185761171e6117259361042d955f91611735575b5063ffffffff809316612f53565b9116613067565b6040519081529081906020820190565b611757915060203d60201161175d575b61174f81836108d5565b810190612c25565b5f611710565b503d611745565b6020919250611784903d805f833e61177c81836108d5565b810190612d7b565b91906116b0565b346103db575f3660031901126103db576020604051670de0b6b3a76400008152f35b346103db575f3660031901126103db576040517f00000000000000000000000000000000000000000000000000000000000000006001600160a01b03168152602090f35b90604090604083019083526020604081850152845180925260608085018260608560051b8801019701945f925b85841061183057505050505050505090565b90919293949596989785806118716001938d605f1990820301885285878d51878060a01b038151168452858101518685015201519181898201520190610519565b9a9b9901979695919091019301919061181e565b346103db5760206003196020813601126103db57600435906001600160401b0382116103db576101809082360301126103db57604051916118c58361086b565b600183525f5b81811061191b576101248361042d866118e2613288565b6118ea610918565b308152905f6020830152604082015261190282612cc6565b5261190c81612cc6565b506040519384930135836117f1565b8190611925613c3f565b828287010152016118cb565b346103db575f3660031901126103db576007546040516001600160a01b039091168152602090f35b346103db575f3660031901126103db57611971613c6e565b60408051928352602083019190915290f35b346103db575f3660031901126103db576040515f9060018054906119a682611443565b908184526020926001811690815f146105e557506001146119d15761042d8461059e818803826108d5565b91935060015f52835f20915f925b8284106119fb575050508161042d9361059e928201019361058e565b80548585018701529285019281016119df565b346103db575f3660031901126103db57608e546040516001600160a01b039091168152602090f35b6001600160701b038116036103db57565b60c4359061063082611a36565b610104359061063082610611565b346103db576101603660031901126103db576101203660231901126103db57611a89610937565b611a9161108b565b8152611a9b611098565b6020820152611aa86110a5565b6040820152611ab56110b2565b6060820152611ac2610e95565b6080820152611acf611a47565b60a0820152611adc610ea2565b60c0820152611ae9611a54565b60e082015261010061012435910152611b00610632565b506040515f8152602090f35b346103db5760403660031901126103db576020600435611b2b81610611565b60018060a01b038091165f526088825260405f206024355f52825260405f205416604051908152f35b346103db575f3660031901126103db576090546040516001600160a01b039091168152602090f35b346103db5760403660031901126103db57600435611b9981610611565b602435611ba581610eff565b6001600160a01b038216918215611c0a57611bcb90335f52600560205260405f20613c2a565b9015159060ff1981541660ff83161790556040519081527f17307eab39ab6107e8899845ad3d59bd9653f200f220920489ca2b5937696c3160203392a3005b604051630b61174360e31b815260048101849052602490fd5b346103db5760403660031901126103db576106d5602435600435613e4d565b346103db5760803660031901126103db57600435611c5f81610611565b602435611c6b81610611565b606435916001600160401b0383116103db57366023840112156103db57611c9f6106d5933690602481600401359101610e00565b916044359161412e565b611cb236610a45565b3415801590611fd6575b8015611fc6575b611fb457611d3e611d207f0000000000000000000000000000000000000000000000000000000000000000611cf6614226565b805160209091012060609190911b6001600160601b03199081169116186001600160e01b03191690565b611d38611d316101e0850185614249565b3691610e00565b90615313565b90156103db57611d59815191602080809483010191016137d2565b90815191611d6b61067b609054610605565b916006549260409082604051809263038ab08560e11b82528180611d9960049a600483019190602083019252565b03915afa8015610718576004915f91611f97575b50611db781612918565b14935f5b868110611e68578786611dcd87615494565b611de6611dde6101c0840184614249565b81019061071d565b915f91611e2e575b60e00135159081611e25575b50611e1357611e0e6106d591608d54613067565b608d55565b604051637691472960e01b8152600490fd5b90501582611dfa565b9050611e48611e4360e0830135609754612f53565b609755565b60e0611e60611e568361427b565b84608d549161553b565b919050611dee565b611e728186612cd8565b5190611e8d611e80836115ce565b546001600160a01b031690565b611e9961067b8b61427b565b6001600160a01b0390911603611f47578487611eb48461547a565b611ec4575b506001915001611dbb565b611ef592611ed661067b608e54610605565b86516342f9914b60e01b81528681019283529485928391829160200190565b03915afa91821561071857600192611f1d915f91611f2a575b505f52609860205260405f2090565b8054600101905584611eb9565b611f419150873d891161175d5761174f81836108d5565b5f611f0e565b50916108189088611f63611f5d611e80876115ce565b9161427b565b9151631048fd9360e11b81529384019485526001600160a01b03908116602086015216604084015290918291606090910190565b611fae9150843d86116107115761070381836108d5565b5f611dad565b6040516394310b3d60e01b8152600490fd5b5060065460208201351415611cc3565b50611ffb602060065460405180938192636e49181f60e01b8352339060048401612fd4565b03817f00000000000000000000000000000000000000000000000000000000000000006001600160a01b03165afa908115610718575f9161203e575b5015611cbc565b612057915060203d602011610b5257610b4481836108d5565b5f612037565b346103db5760403660031901126103db5760043561207a81610611565b6001600160a01b03165f908152608960209081526040808320602435845282529091206001600160e01b03906120af90615742565b16604051908152f35b346103db5760203660031901126103db576120d761067b608e54610605565b60206040518092630fab094760e01b825281806120f7306004830161072c565b03915afa908115610718575f91612179575b505f6040518092635e703e7160e01b8252818061212c6004353060048401613074565b03916001600160a01b03165afa80156107185761042d915f91612157575b506040519182918261053e565b61217391503d805f833e61216b81836108d5565b810190614285565b5f61214a565b61219b915060203d6020116121a1575b61219381836108d5565b810190613e0f565b5f612109565b503d612189565b346103db576020806003193601126103db57600435906001600160401b0382116103db57366023830112156103db578160040135916121e683610984565b916040936121f760405194856108d5565b8084526024602085019160061b840101923684116103db57602401905b838210612224576106d5856142c2565b85823603126103db57828691825161223b8161086b565b843561224681610611565b81528285013583820152815201910190612214565b346103db575f3660031901126103db57608f546040516001600160a01b039091168152602090f35b346103db5760203660031901126103db576004356001600160401b0381116103db576122b661197191369060040161138d565b6143aa565b346103db575f3660031901126103db57602060ff609354166040519015158152f35b346103db5760403660031901126103db576004355f52608a602052602060405f206120af60018060e01b039163ffffffff602435169061576a565b346103db575f3660031901126103db57604051612334816108b9565b611000809136903760405160085f825b6080821061238457505050612358816108b9565b604051905f90825b6080831061236d57505050f35b600190825181526020809101920192019190612360565b6001602081928554815201930191019091612344565b346103db575f3660031901126103db576040515f906095546123bb81611443565b8083526020916001908181169081156105e557506001146123e65761042d8461059e818803826108d5565b91935060955f52835f20915f925b828410612410575050508161042d9361059e928201019361058e565b80548585018701529285019281016123f4565b346103db5760403660031901126103db57602060ff61246e60043561244781610611565b6024359061245482610611565b6001600160a01b03165f9081526005855260409020613c2a565b54166040519015158152f35b346103db5760603660031901126103db5760043561249781610611565b6001600160a01b03165f908152608960209081526040808320602435845282529091206001600160e01b03906120af9060443563ffffffff169061576a565b346103db575f3660031901126103db576040517f00000000000000000000000000000000000000000000000000000000000000006001600160a01b03168152602090f35b346103db5760203660031901126103db5760043561253781610611565b61253f614639565b6001600160a01b03811615612557576106d590614f7f565b604051631e4fbdf760e01b81525f6004820152602490fd5b346103db5760203660031901126103db576004355f52608a602052602060018060e01b036120af60405f20615742565b929160808401918452602090818501526040926040850152606060806060860152855180935260a085018260a08560051b8801019701945f925b8584106125eb57505050505050505090565b909192939495969897858061262c6001938d609f1990820301885285878d51878060a01b038151168452858101518685015201519181898201520190610519565b9a9b990197969591909101930191906125d9565b346103db5761264e36610ca9565b60808101356128e3576126976126867f0000000000000000000000000000000000000000000000000000000000000000611cf6614226565b611d38611d31610180850185614249565b6060916128c9575b506126ae61067b609054610605565b9060409182519163038ab08560e11b8352602092838160049481806126de8a8c0135600483019190602083019252565b03915afa908115610718575f916128ac575b508151925f935f9161270661067b608e54610605565b905b82841061281957898961042d8a8a8a8a6127206144fc565b93865161274681612738878583019190602083019252565b03601f1981018352826108d5565b5f61274f610918565b308152928301528782015261276385612cc6565b5261276d84612cc6565b5061277781612918565b60018114908115612804575b81156127ef575b81156127db575b50156127b05750925b519384936101606101208301359201358561259f565b6127d591506127cf6127c9609754610120890135612f53565b91613ba1565b906157e9565b9261279a565b600591506127e881612918565b1487612791565b90506127fa81612918565b600681149061278a565b905061280f81612918565b6002811490612783565b90919295612846905f61282c8989612cd8565b518b518094819263c44a8e6d60e01b835230888401612eb3565b0381875afa908115610718576128826128768b612888946001965f91612892575b5001516001600160681b031690565b6001600160681b031690565b90612f53565b9601929190612708565b6128a691503d805f833e61177c81836108d5565b5f612867565b6128c39150843d86116107115761070381836108d5565b5f6126f0565b6128dd9150602080825183010191016137d2565b5f61269f565b60405163096afe5960e41b8152600490fd5b908160209103126103db575160078110156103db5790565b6040513d5f823e3d90fd5b6007111561292257565b634e487b7160e01b5f52602160045260245ffd5b61293e614639565b61294c61067b609054610605565b6006546040805163038ab08560e11b81526004808201939093529092602091908290829060249082905afa908115610718575f91612c08575b5061298f81612918565b60038103612bf85760935460ff16612be8576129aa81612918565b60068114908115612bd4575b50612bc557608e6129cb61067b608e54610605565b91808551809463f1bea54f60e01b825281806129e9308a830161072c565b03915afa928315610718575f93612ba6575b5090915f91865191612a0b612c34565b505f945b838610612a825750505050670de0b6b3a7640000915011612a7457507f9a6cf4ff8f1a3ee73be4815b44949c83dbc2e76a386eaf652b2a454bac9d241291612a6f91612a63600160ff196093541617609355565b51918291339083612f60565b0390a1565b90516351ae01e360e11b8152fd5b90919293612ac05f612a9761067b8554610605565b612aa1898d612cd8565b5151908a8c518095819482936364faa15960e01b845230908401612eb3565b03915afa908115610718575f91612b8c575b50612aef612ae761010083015162ffffff1690565b62ffffff1690565b612b7c578363ffffffff612b07835163ffffffff1690565b1611612b7c57600191612b5c612b7092612b44612b3f612b3a8f612b2c8e8d92612cd8565b510151935163ffffffff1690565b612ee8565b612f18565b90919082549060031b91821b915f19901b1916179055565b85612b67898d612cd8565b51015190612f53565b95019493929190612a0f565b885163148e14dd60e21b81528890fd5b612ba091503d805f833e61177c81836108d5565b5f612ad2565b81612bbe9294503d851161175d5761174f81836108d5565b915f6129fb565b509051636fb8407560e01b8152fd5b60059150612be181612918565b145f6129b6565b8351633bfa282760e21b81528390fd5b83516301e7228160e11b81528390fd5b612c1f9150823d84116107115761070381836108d5565b5f612985565b908160209103126103db575190565b604051906101e082016001600160401b038111838210176108865760405260606101c0835f81525f60208201525f60408201525f838201525f60808201525f60a08201525f60c08201525f60e08201525f6101008201525f6101208201525f6101408201525f6101608201525f6101808201525f6101a08201520152565b634e487b7160e01b5f52603260045260245ffd5b805115612cd35760200190565b612cb2565b8051821015612cd35760209160051b010190565b519061063082610e87565b519061063082610e6b565b519061063082610eba565b519061063082610611565b519061063082610ed1565b519061063082610ee9565b519061063082610eff565b81601f820112156103db578051612d4f81610de5565b92612d5d60405194856108d5565b818452602082840101116103db5761054f91602080850191016104f8565b6020818303126103db5780516001600160401b03918282116103db57016101e0818403126103db57612dab610957565b92612db582612cec565b8452612dc360208301612cf7565b6020850152612dd460408301612cec565b6040850152612de560608301612cec565b6060850152612df660808301612cf7565b6080850152612e0760a08301612d02565b60a0850152612e1860c08301612d0d565b60c085015260e082015160e0850152610100612e35818401612d18565b90850152610120612e47818401612d23565b90850152610140612e59818401612d2e565b90850152610160612e6b818401612d2e565b90850152610180612e7d818401612d2e565b908501526101a0612e8f818401612d2e565b908501526101c092838301519081116103db57612eac9201612d39565b9082015290565b6001600160a01b03909116815260208101919091525f604082015260600190565b634e487b7160e01b5f52601160045260245ffd5b63ffffffff9081165f190191908211612efd57565b612ed4565b63ffffffff9182169082160391908211612efd57565b6080811015612cd357600801905f90565b9060018201809211612efd57565b9060048201809211612efd57565b9060098201809211612efd57565b91908201809211612efd57565b909291926040906040830160408452815180915260608401916020809101935f905b838210612f9f5750505050602091509360018060a01b0316910152565b855180518652830151858401529482019493840193600190910190612f82565b908160209103126103db575161054f81610eff565b9081526001600160a01b03909116602082015260400190565b91906001600160a01b0390818116156130415761300d8291843391614e22565b931692169082820361301e57505050565b60649350604051926364283d7b60e01b8452600484015260248301526044820152fd5b604051633250574960e11b81525f6004820152602490fd5b5f19810191908211612efd57565b91908203918211612efd57565b6001600160a01b039091168152602081019190915260400190565b8115613099570490565b634e487b7160e01b5f52601260045260245ffd5b6130e3906130bf61067b608e54610605565b90604051906342f9914b60e01b825281806020958693600483019190602083019252565b0381855afa908115610718575f9161326b575b506040516364faa15960e01b8152905f8280613116843060048401612eb3565b0381865afa918215610718575f9261324f575b50613143613139612b3f83613059565b90549060031b1c90565b928315613246578460405180926302b7e6ef60e41b8252818061316a873060048401613074565b03915afa948515610718575f95613227575b505060608201916040613193845163ffffffff1690565b9101926131c96131bc876131b76131ae885163ffffffff1690565b63ffffffff1690565b612f53565b63ffffffff809416613067565b1561321d5761054f95613210613201613217966131fb6131f061171e965163ffffffff1690565b915163ffffffff1690565b90612f02565b945f52609860205260405f2090565b5490613067565b9061308f565b5050505050505f90565b61323e929550803d1061175d5761174f81836108d5565b925f8061317c565b50505050505f90565b6132649192503d805f833e61177c81836108d5565b905f613129565b6132829150833d851161175d5761174f81836108d5565b5f6130f6565b604051906132958261089e565b5f8252565b80546001600160a01b0319166001600160a01b03909216919091179055565b601f81116132c5575050565b5f805260205f20906020601f840160051c830193106132fe575b601f0160051c01905b8181106132f3575050565b5f81556001016132e8565b90915081906132df565b601f8111613314575050565b60945f5260205f20906020601f840160051c8301931061334e575b601f0160051c01905b818110613343575050565b5f8155600101613338565b909150819061332f565b601f8111613364575050565b60955f5260205f20906020601f840160051c8301931061339e575b601f0160051c01905b818110613393575050565b5f8155600101613388565b909150819061337f565b90601f82116133b5575050565b60019160015f5260205f20906020601f840160051c830193106133f2575b601f0160051c01905b8181106133e857505050565b5f815582016133dc565b90915081906133d3565b601f821161340957505050565b5f5260205f20906020601f840160051c83019310613441575b601f0160051c01905b818110613436575050565b5f815560010161342b565b9091508190613422565b8160011b915f199060031b1c19161790565b80519091906001600160401b038111610886576134848161347f609454611443565b613308565b602080601f83116001146134b8575081906134a893945f926134ad575b505061344b565b609455565b015190505f806134a1565b60945f52601f198316949091907f7047a3cc0a76edcee45792ca71527c753f6167484f14b94c4a3bd2997516725c925f905b878210613521575050836001959610613509575b505050811b01609455565b01515f1960f88460031b161c191690555f80806134fe565b806001859682949686015181550195019301906134ea565b80519091906001600160401b038111610886576135608161355b609554611443565b613358565b602080601f83116001146135885750819061358393945f926134ad57505061344b565b609555565b60955f52601f198316949091907f947035e97d0f7e1937f791bc189f60c984ceaaa7a8494fc67f9f8f4de8ccf2c6925f905b8782106135f15750508360019596106135d9575b505050811b01609555565b01515f1960f88460031b161c191690555f80806135ce565b806001859682949686015181550195019301906135ba565b80519091906001600160401b038111610886576001906136328161362d8454611443565b6133a8565b602080601f831160011461365a575081906136569394955f926134ad57505061344b565b9055565b60015f52601f198316959091907fb10e2d527612073b26eecdfd717e6a320cf44b4afac2b0732d9fcbe2b7fa0cf6925f905b8882106136c157505083859697106136a9575b505050811b019055565b01515f1960f88460031b161c191690555f808061369f565b80878596829496860151815501950193019061368c565b81519192916001600160401b038111610886576136ff816136f98454611443565b846133fc565b602080601f8311600114613723575081906136569394955f926134ad57505061344b565b90601f19831695613737855f5260205f2090565b925f905b888210613759575050836001959697106136a957505050811b019055565b8060018596829496860151815501950193019061373b565b9080601f830112156103db5781519060209161378c81610984565b9361379a60405195866108d5565b81855260208086019260051b8201019283116103db57602001905b8282106137c3575050505090565b815181529083019083016137b5565b906020828203126103db5781516001600160401b0381116103db5761054f9201613771565b60208082019080835283518092528060408094019401925f905b83821061382057505050505090565b9091929394836101c06001926138f6895161384383825160018060681b03169052565b8085015163ffffffff16838601528087015163ffffffff168388015260608181015161ffff16908401526080818101516001600160a01b03169084015260a0818101519084015260c08082015162ffffff169084015260e08181015160ff169084015261010081810151151590840152610120818101511515908401526101408181015115159084015261016081810151151590840152610180818101511515908401526101a090810151151590830152565b0196019493920190613811565b9b94989a92919396999097959760018060a01b039c8d7f00000000000000000000000000000000000000000000000000000000000000001630146103db578d61395061067b608e54610605565b166103db57613a2c976139c08e61399e6139e89761397c613a0a9b6139c69865ffffffffffff98614e93565b608f80546001600160a01b0319166001600160a01b0392909216919091179055565b608e80546001600160a01b0319166001600160a01b0392909216919091179055565b16609255565b609080546001600160a01b0319166001600160a01b0392909216919091179055565b609180546001600160a01b0319166001600160a01b0392909216919091179055565b609680546001600160a01b0319166001600160a01b0392909216919091179055565b8051613b60575b508051613b51575b50838116613ae9575b505f91613a689183604051958680958194631f1d05ad60e01b8352600483016137f7565b0393165af1801561071857613ac7575b508051905f5b828110613a915750505061063033614f7f565b80613ac1613aa160019385612cd8565b51613abc613aae84612f29565b5f52608c60205260405f2090565b6136d8565b01613a7e565b613ae2903d805f833e613ada81836108d5565b8101906137d2565b505f613a78565b91838116803b156103db5760405163036129cb60e61b8152935f918591829084908290613b19906004830161072c565b03925af1918215610718575f93613a6893613b38575b50915091613a44565b80613b45613b4b9261088b565b806104ee565b5f613b2f565b613b5a90613539565b5f613a3b565b613b699061345d565b5f613a33565b5f908152608b60205260409020546001600160a01b0390811680613b9c5750600260205260405f20541690565b905090565b905f9180515f915b818310613bb557505050565b909193613bcb613bc58684612cd8565b516130ad565b8101809111612efd57936001019190613ba9565b6001600160a01b03165f90815260886020526040902090565b6001600160a01b03165f90815260896020526040902090565b6001600160a01b03165f90815260036020526040902090565b9060018060a01b03165f5260205260405f2090565b60405190606082016001600160401b038111838210176108865760405260606040835f81525f60208201520152565b6040516370a0823160e01b80825291906020906001600160a01b0390828180613c9a306004830161072c565b0381857f0000000000000000000000000000000000000000000000000000000000000000165afa80156107185783915f91613d37575b509460405192839182528180613ce9306004830161072c565b03917f0000000000000000000000000000000000000000000000000000000000000000165afa918215610718575f92613d2157505090565b61054f9250803d1061175d5761174f81836108d5565b613d4e9150823d841161175d5761174f81836108d5565b5f613cd0565b51906106308261106d565b519061063082611a36565b90816101209103126103db57613d7e610937565b90613d8881613d54565b8252613d9660208201613d54565b6020830152613da760408201613d54565b6040830152613db860608201613d54565b6060830152613dc960808201612cec565b6080830152613dda60a08201613d5f565b60a0830152613deb60c08201612cec565b60c0830152613dfc60e08201612d0d565b60e0830152610100809101519082015290565b908160209103126103db575161054f81610611565b908160051b9180830460201490151715612efd57565b81810292918115918404141715612efd57565b919091613e5e61067b608f54610605565b600654604080516321d1336160e11b81526004810192909252929161012091908290829060249082905afa91821561071857613eb892613ead92610100925f92614101575b5050015160f21c90565b60018091811c161490565b6140f057613eca61067b608e54610605565b9160208151809462d5cc0160e21b82528180613eea873060048401613074565b03915afa928315610718575f936140cf575b506001600160a01b039081613f24611e8085613f1788613bdf565b905f5260205260405f2090565b16156140a0575b613f3961067b608e54610605565b8151635d53f40760e11b8152600481018590526024810188905296905f908890604490829084905af1968715610718575f97614084575b50613f7f61067b608e54610605565b915f815180946364faa15960e01b82528180613f9f8a3060048401612eb3565b03915afa928315610718575f93614068575b50602083015188516001600160681b039591613fdf91611e0e91613fd791908916613e3a565b608d54612f53565b5f5b83811061401357505050506080015193946106309461400d92906001600160681b031691519116613e3a565b9161501f565b806140206001928c612cd8565b5161402b818b614fb4565b888551917f031e1988c95a91ec4d655ff63a8f87a80bc9daf28d95ae10ee08c0022cfb5c8b868d16938061405f338261072c565b0390a401613fe1565b61407d9193503d805f833e61177c81836108d5565b915f613fb1565b6140999197503d805f833e613ada81836108d5565b955f613f70565b6140ab609654610605565b83818416156140c4576140bf915b86614537565b613f2b565b6140bf9150856140b9565b6140e991935060203d6020116121a15761219381836108d5565b915f613efc565b8151631d2c125760e31b8152600490fd5b6141209250803d10614127575b61411881836108d5565b810190613d6a565b5f80613ea3565b503d61410e565b9192909261413d818585612fed565b833b61414a575b50505050565b61416f916020916040519384928392630a85bd0160e11b978885523360048601615292565b03815f6001600160a01b0388165af15f91816141f5575b506141bf57826141946152c3565b80519190826141b857604051633250574960e11b815280610818846004830161072c565b9050602001fd5b6001600160e01b031916036141d857505f808080614144565b604051633250574960e11b8152908190610818906004830161072c565b61421891925060203d60201161421f575b61421081836108d5565b81019061527d565b905f614186565b503d614206565b604051906142338261086b565b600782526618d85cda13dd5d60ca1b6020830152565b903590601e19813603018212156103db57018035906001600160401b0382116103db576020019181360383136103db57565b3561054f81610611565b906020828203126103db5781516001600160401b0381116103db5761054f9201612d39565b604051906142b78261086b565b5f6020838281520152565b6142d061067b609054610605565b6006546040805163038ab08560e11b8152600480820193909352939290916020918290869060249082905afa948515610718575f95614389575b5061431485612918565b60018095036106d7578351936143286142aa565b505f5b85811061433b5750505050505050565b6143458183612cd8565b5161435361067b8251610605565b15614379579061437382866143698b9551610605565b9101519033614537565b0161432b565b85516314f4c13d60e21b81528490fd5b6143a391955060203d6020116107115761070381836108d5565b935f61430a565b906143b961067b609054610605565b91600654926040805163038ab08560e11b8152602081819481806143e760049b600483019190602083019252565b03915afa8015610718576004915f916144dd575b5061440581612918565b03614466579082949251915f955f9461442261067b608e54610605565b915b858710614471575050505050505061443a613c6e565b92608d5491821561446657816144608461445b61054f969561445b95613e3a565b61308f565b95613e3a565b50505090505f905f90565b909192939495976144a1905f6144878b85612cd8565b5187518094819263c44a8e6d60e01b835230898401612eb3565b0381885afa90811561071857612882612876896144d0946001965f91612892575001516001600160681b031690565b9801959493929190614424565b6144f6915060203d6020116107115761070381836108d5565b5f6143fb565b604051906145098261086b565b60018252815f5b6020908181101561453257602091614526613c3f565b90828501015201614510565b505050565b6001600160a01b039081165f8181526088602090815260408083208784528252909120805491959294929391821691869161457390859061329a565b80841683877f3134e8a2e6d97e929a7e54011ea5485d7d196dd5f0ba4d4ef95803e8e3fc257f5f80a4608e5416946064604051809781936305c9a1d560e31b835230600484015260248301528760448301525afa93841561071857610630955f956145e0575b5050615883565b6145f7929550803d1061175d5761174f81836108d5565b925f806145d9565b5f818152600260205260409020546001600160a01b0316908115614621575090565b60249060405190637e27328960e01b82526004820152fd5b6007546001600160a01b0316330361464d57565b60405163118cdaa760e01b8152336004820152602490fd5b3561054f81610e87565b6040519061467c8261086b565b600382526270617960e81b6020830152565b91906040838203126103db5782516146a581610611565b60208085015191949091906001600160401b0382116103db57019180601f840112156103db5782516146d681610984565b936146e460405195866108d5565b818552838086019260051b8201019283116103db578301905b82821061470b575050505090565b838091835161471981610eba565b8152019101906146fd565b9061473160a08301614665565b63ffffffff609254911603614a225761478061476f7f0000000000000000000000000000000000000000000000000000000000000000611cf661466f565b611d38611d316101e0860186614249565b9015614a1d57806020806147999351830101910161468e565b6001600160a01b03918216939184156149f2575b8151156149e0575f805f918451975f5b8981106147ff575050505050506147e792935060c06147df6101a0840161427b565b920135615a20565b6147ed57565b604051631b57826960e21b8152600490fd5b8988614820614819614811858c612cd8565b5161ffff1690565b61ffff1690565b850361492e575b90614841611e8086613f1761483c8b9661427b565b613bdf565b88808616918b83159485158096614923575b614867575b505050505050506001016147bd565b879a9697916148768b92613059565b831092836148fd575b5050505f146148a8575050505060019161489891612f53565b935b9050845f8088818b8f614858565b6148cf9550836148f0575b5050506148d8575b8361400d876148c98c61427b565b93612f53565b60015f9361489a565b6148eb84846148e68c61427b565b614537565b6148bb565b16141590505f88816148b3565b61ffff9293506149199161491361481192612f29565b90612cd8565b1614888d8b61487f565b508383161515614853565b50509350906149436148196148118689612cd8565b106149ce576149586148196148118588612cd8565b9061496761067b608e54610605565b935f60405180966364faa15960e01b82528180614988883060048401612eb3565b03915afa948515610718578a614841611e8086613f176149c26128768f9761483c9d6080915f91612892575001516001600160681b031690565b9a505050505090614827565b604051639fda363d60e01b8152600490fd5b604051633d04bd1f60e01b8152600490fd5b93506149ff609654610605565b80851615614a0e575b936147ad565b50614a188261427b565b614a08565b509050565b6040516301e73e1760e61b8152600490fd5b919091614a4561067b608e54610605565b905f604051809363c44a8e6d60e01b82528180614a66893060048401612eb3565b03915afa918215610718575f92614c34575b50614a838482615b23565b936001600160a01b038086161591908215614b50575b5050614aa961067b608e54610605565b835163ffffffff1690803b156103db576040516330b157e560e21b815263ffffffff9290921660048301526001600160a01b038781166024840152841660448301525f908290606490829084905af1801561071857614b3d575b50614b3957906106309163ffffffff614b20835163ffffffff1690565b608093909301516001600160681b0316921690856151bb565b5050565b80613b45614b4a9261088b565b5f614b03565b610160850151614b83575b5085614b6c61067b611e80846115dc565b614a99576107f8614b7c926115dc565b5f85614a99565b614bbd90614b9561067b608f54610605565b60065460405180926321d1336160e11b82528180610120978895600483019190602083019252565b03915afa928315610718575f93614c15575b5050841615159081614bf9575b50614be7575f614b5b565b6040516318cdaf9760e01b8152600490fd5b6101000151614c0f915060f21c60018091161490565b5f614bdc565b614c2c929350803d106141275761411881836108d5565b905f80614bcf565b614c499192503d805f833e61177c81836108d5565b905f614a78565b90614c5f61067b608e54610605565b5f604051809263c44a8e6d60e01b82528180614c7f883060048401612eb3565b03915afa908115610718575f91614e08575b50614c9b83615bb1565b926001600160a01b03841615908115614d61575b50614cbe61067b608e54610605565b825163ffffffff1690803b156103db576040516330b157e560e21b815263ffffffff9290921660048301526001600160a01b03861660248301525f60448301819052908290606490829084905af1801561071857614d4e575b50614d4b578063ffffffff614d33610630935163ffffffff1690565b608092909201516001600160681b03169116846150e9565b50565b80613b45614d5b9261088b565b5f614d17565b610160830151614d9b575b84614d7c61067b611e80846115dc565b15614d88575b50614caf565b6107f8614d94926115dc565b5f84614d82565b614dd4614dac61067b608f54610605565b60065460405180926321d1336160e11b82528180610120968795600483019190602083019252565b03915afa801561071857614dea575b5050614d6c565b81614e0092903d106141275761411881836108d5565b505f80614de3565b614e1c91503d805f833e61177c81836108d5565b5f614c91565b92919092614e3461067b608e54610605565b915f604051809463c44a8e6d60e01b82528180614e558a3060048401612eb3565b03915afa928315610718575f93614e73575b50614a83908583615c28565b614a83919350614e8c903d805f833e61177c81836108d5565b9290614e67565b815191939290916001600160401b03811161088657614ebb81614eb65f54611443565b6132b9565b602080601f8311600114614ef2575081614eed9392614ee69261063097985f926134ad57505061344b565b5f55613609565b600655565b5f8052601f198316969091907f290decd9548b62a8d60345a988386fc84ba6bc95484008f6362f93160ef3e563925f905b898210614f67575050918391600193614eed9695610630999a10614f4f575b505050811b015f55613609565b01515f1960f88460031b161c191690555f8080614f42565b80600185968294968601518155019501930190614f23565b600780546001600160a01b039283166001600160a01b0319821681179092559091165f80516020615ea88339815191525f80a3565b6001600160a01b03918183161561304157614fce91614a34565b16614fd557565b6040516339e3563760e11b81525f6004820152602490fd5b6001600160e01b039182169082160191908211612efd57565b6001600160e01b039182169082160391908211612efd57565b906106309291815f52608a60205261503960405f20615742565b615042836115ea565b4363ffffffff16916001600160e01b0386169161506a90846150648585614fed565b91615dc2565b506001600160a01b03939050848416156150cd575b5050505f8381527f046491916a0278bc7eb038aba60c896854c99d791b5a890a9ff3ed75cc95e12a60205260409020548116916150bb90613bdf565b835f5260205260405f20541690615883565b6150646150e3936150dd886115ea565b93615006565b5f61507f565b6106309291906001600160a01b039061511390828116158080156151b3575b61513e575b50613bdf565b825f5260205260405f205416615138611e8083613f175f8052608860205260405f2090565b90615883565b61518790855f52608a60205261515660405f20615742565b9061518d575b615179615168876115ea565b916001600160e01b03891690615006565b9063ffffffff431690615dc2565b5061510d565b6151ac615199876115ea565b6151796001600160e01b038a1684614fed565b505061515c565b506001615108565b90615138611e8084613f176151f8611e8083613f176106309b9a9960018060a01b038c8183161591828015615273575b6151fe575b505050613bdf565b94613bdf565b855f52608a60205261521260405f20615742565b9261524d575b8c1615615226575b816151f0565b61517961524692615236876115ea565b926001600160e01b031690615006565b508c615220565b61526c615259876115ea565b6151796001600160e01b03851686614fed565b5050615218565b50808d16156151eb565b908160209103126103db575161054f816103c9565b6001600160a01b03918216815291166020820152604081019190915260806060820181905261054f92910190610519565b3d156152ed573d906152d482610de5565b916152e260405193846108d5565b82523d5f602084013e565b606090565b805160241015612cd35760440190565b908151811015612cd3570160200190565b905f9060609260258251111561546c5761534f615349615343615335856152f2565b516001600160f81b03191690565b60f81c90565b60ff1690565b9060209360205b61537b61536e61533561536884612f37565b88615302565b6001600160f81b03191690565b15158061545b575b15615452576153a361534961534361533561539d85612f37565b89615302565b8186018701516001600160e01b03198581169116146153c55750600501615356565b95509291505061540294506153e26153dc83612f45565b91613e24565b11801590615433575b1561540757506153fc815192613e24565b90615d20565b600191565b61542d6154286153496153436153356154226153fc96612f45565b87615302565b613e24565b92613e24565b5061544c61536e61533561544684612f45565b85615302565b156153eb565b50959350505050565b5061546584613e24565b8110615383565b505050505f9061054f613288565b6001600160a01b0361548b82614c50565b16156146215750565b608e546001600160a01b0316803b156103db5760405180926386bc2be360e01b8252602482016020906020600485015282518091526020604485019301915f5b828110615503575050505091815f81819503925af18015610718576154f65750565b80613b456106309261088b565b8351855287955093810193928101926001016154d4565b90815260208101919091526001600160a01b03909116604082015260600190565b6040516370a0823160e01b8082526001600160a01b037f00000000000000000000000000000000000000000000000000000000000000008116956020959294909390929086818061558f306004830161072c565b03818b5afa9081156107185761445b836155b29388935f9161572b575b50613e3a565b93827f000000000000000000000000000000000000000000000000000000000000000016956040519081528781806155ed306004830161072c565b03818a5afa9283156107185761560d9361445b925f9161570e5750613e3a565b91821596871595866156c1575b508415159687615655575b50506156495f80516020615e8883398151915293604051938493169533918461551a565b0390a291613b9c575090565b909381604051809663a9059cbb60e01b8252815f816156788c8a60048401613074565b03925af1918215610718575f80516020615e8883398151915295615649936156a3575b505093615625565b816156b992903d10610b5257610b4481836108d5565b505f8061569b565b87604051809263a9059cbb60e01b8252815f816156e28b8a60048401613074565b03925af18015610718571561561a5761570790883d8a11610b5257610b4481836108d5565b505f61561a565b61572591508a3d8c1161175d5761174f81836108d5565b5f6155ac565b61572591508b3d8d1161175d5761174f81836108d5565b80548061574f5750505f90565b5f19918183810111612efd575f5260205f2001015460201c90565b8054915f5b83811061579e575050816157835750505f90565b61578f61054f92613059565b905f5260205f20015460201c90565b90928082169080831860011c8201809211612efd57835f5263ffffffff808360205f20015416908616105f146157d75750925b9061576f565b9391506157e390612f29565b906157d1565b9091905f198382098382029182808310920391808303921461587257670de0b6b3a7640000908183101561584f57947faccb18165bd6fe31ae1cf318dc5b51eee0e1ba569b88cd74c1773b91fac1066994950990828211900360ee1b910360121c170290565b6064918660405192630c740aef60e31b8452600484015260248301526044820152fd5b5050670de0b6b3a764000090049150565b91926001600160a01b0380831693919291908116808514801561597f575b6159775785918161592a575b505050826158bb5750505050565b5f80516020615ee88339815191529161590a826151796158f688613f176158f06158eb83613f1761591e9b613bf8565b615742565b94613bf8565b6001600160e01b0394909290851690614fed565b60405193849390923392821691168461551a565b0390a35f808080614144565b61596c8161590a61595686613f176158f06158eb83613f175f80516020615ee88339815191529a613bf8565b6001600160e01b0392615179908a851690615006565b0390a3835f806158ad565b505050505050565b5083156158a1565b615990906115f8565b80546001600160a01b0319169055565b91906040838203126103db5782516001600160401b0381116103db576020916159ca918501613771565b92015190565b929190606084019084526020906060602086015282518091526020608086019301915f5b828110615a08575050505060405f91930152565b835161ffff16855293810193928101926001016159f4565b929192615a3161067b608e54610605565b916040905f604051809563eaa19ab360e01b8252818381615a56878a600484016159d0565b03925af18015610718575f945f91615afb575b5095845194615a7d611e0e86608d54612f53565b5f5b868110615a8f5750505050505050565b80615a9c60019284612cd8565b51615aa78186614fb4565b61ffff615ab76148118489612cd8565b168751917f598baf7bf150ca2f42be9e9f8f55e81d45f5715c3ff22bf46d697fabec7f31d6858060a01b0388169380615af28d339083612fd4565b0390a401615a7f565b9050615b1a9194503d805f833e615b1281836108d5565b8101906159a0565b9390935f615a69565b5f828152600260205260409020546001600160a01b03908116929190615b5b9084615b85575b82169182615b70575b6107f8846115ce565b825f80516020615ec88339815191525f80a490565b615b7981613c11565b60018154019055615b52565b615b8e846115f8565b80546001600160a01b0319169055615ba585613c11565b80545f19019055615b49565b5f818152600260205260409020546001600160a01b03169081615bfc575b615bd8816115ce565b80546001600160a01b03191690555f825f80516020615ec88339815191528280a490565b615c05816115f8565b80546001600160a01b0319169055615c1c82613c11565b80545f19019055615bcf565b5f828152600260205260409020546001600160a01b03908116938082168015159081615c7e575b505050615b5b9084615c6c5782169182615b70576107f8846115ce565b615c7584615987565b615ba585613c11565b81615ccd575b5015615c91578080615c4f565b839085615cb157604051637e27328960e01b815260048101839052602490fd5b61081860405192839263177e802f60e01b845260048401613074565b86811491508115615cff575b8115615ce7575b505f615c84565b9050845f5260046020528260405f205416145f615ce0565b9050855f52600560205260ff615d188360405f20613c2a565b541690615cd9565b929181810391604051946020936020818801016040528652015f5b828110615d485750505050565b8181018401518682018501528301615d3b565b9063ffffffff82549181199060201b169116179055565b908154600160401b8110156108865760018101808455811015612cd357610630925f5260205f20019063ffffffff81511663ffffffff19835416178255602060018060e01b039101511690615d5b565b80549293928015615e5d57615dd9615de491613059565b825f5260205f200190565b9182549263ffffffff91828516928116808411615e4b57879303615e145750615e0d9250615d5b565b60201c9190565b915050615e4691615e32615e26610977565b63ffffffff9093168352565b6001600160e01b0386166020830152615d72565b615e0d565b604051632520601d60e01b8152600490fd5b5090615e8291615e6e615e26610977565b6001600160e01b0385166020830152615d72565b5f919056fea183a623ac9e87a7002f8ccdd81b014fd2212a1a62a3059e097db62cb2df52c98be0079c531659141344cd1fd0a4f28419497f9722a3daafe3b4186f6b6457e0ddf252ad1be2c89b69c2b068fc378daa952ba7f163c4a11628f55a4df523b3ef26abcd0483bf852c577c9beff4daa5920a203234050413150a0aa946fb598bfaa264697066735822122073cd1dd09cbfeaed3ecbfebee4c7698af389f9be4b85f5989c428c0f134f525164736f6c63430008170033",
	"deployedBytecode": "0x60806040526004361015610011575f80fd5b5f3560e01c806301ffc9a7146103c457806306fdde03146103bf57806307405b24146103ba578063081812fc146103b5578063095ea7b3146103b05780630fa617c0146103ab5780631337f986146103a65780631417f9f6146103a15780631baabc3e1461039c5780631d153ca4146103975780631da1da721461039257806323b872dd1461038d57806327f6e9791461038857806329eabfe7146103835780633b2b8a781461037e57806342842e0e14610379578063453135a41461037457806354c6d1f51461036f57806356539f391461036a57806359196c7d146103655780636352211e1461036057806364640c1e1461035b57806369f72970146103565780636c0360eb1461035157806370a082311461034c578063715018a6146103475780637245d80c14610342578063743682b51461033d5780637f98988714610338578063859252e214610333578063873e7e4b1461032e57806388bc2ef3146103295780638cc35846146103245780638da5cb5b1461031f57806392eb16411461031a57806395d89b4114610315578063975057e71461031057806399f6d77f1461030b5780639c8c6cd514610306578063a0b6490c14610301578063a22cb465146102fc578063aa4fb15b146102f7578063b88d4fde146102f2578063c22903b2146102ed578063c3c69a96146102e8578063c87b56dd146102e3578063c90f5126146102de578063c9149c5f146102d9578063cb7043f7146102d4578063d3fef143146102cf578063d9119f5f146102ca578063e4f650b8146102c5578063e8a3d485146102c0578063e985e9c5146102bb578063ea1c1b25146102b6578063edab09b9146102b1578063f2fde38b146102ac578063f7623b81146102a75763fb82b1b0146102a2575f80fd5b612640565b61256f565b61251a565b6124d6565b61247a565b612423565b61239a565b612318565b6122dd565b6122bb565b612283565b61225b565b6121a8565b6120b8565b61205d565b611ca9565b611c42565b611c23565b611b7c565b611b54565b611b0c565b611a62565b611a0e565b611983565b611959565b611931565b611885565b6117ad565b61178b565b611658565b611630565b611606565b6115a6565b61155e565b611504565b61147b565b6113ed565b611370565b611352565b611296565b611279565b611249565b61115a565b610dbe565b610d7a565b610d54565b610d37565b610d20565b610cd3565b610c56565b610b9d565b610b59565b610a77565b61099b565b61077b565b61073f565b61064b565b610552565b6103df565b6001600160e01b03198116036103db57565b5f80fd5b346103db5760203660031901126103db5761042d6004356103ff816103c9565b63ffffffff60e01b16639410e89960e01b8114908115610431575b5060405190151581529081906020820190565b0390f35b633344b87360e01b8114915081156104dd575b81156104cc575b81156104bb575b81156104aa575b8115610467575b505f61041a565b6380ac58cd60e01b811491508115610499575b8115610488575b505f610460565b6301ffc9a760e01b1490505f610481565b635b5e139f60e01b8114915061047a565b63152a902d60e11b81149150610459565b63611481d960e11b81149150610452565b63099bfcc360e11b8114915061044b565b63eeb73e8960e01b81149150610444565b5f9103126103db57565b5f5b8381106105095750505f910152565b81810151838201526020016104fa565b90602091610532815180928185528580860191016104f8565b601f01601f1916010190565b90602061054f928181520190610519565b90565b346103db575f3660031901126103db576040515f905f5461057281611443565b8083526020916001908181169081156105e557506001146105aa575b61042d8461059e818803826108d5565b6040519182918261053e565b5f808052838120939550925b8284106105d2575050508161042d9361059e928201019361058e565b80548585018701529285019281016105b6565b60ff1916858501525050151560051b820101915061059e8161042d61058e565b6001600160a01b031690565b6001600160a01b038116036103db57565b610184359061063082610611565b565b610144359061063082610611565b359061063082610611565b346103db5760403660031901126103db5760043561066881610611565b6106a4602061068061067b609054610605565b610605565b60065490604051808095819463038ab08560e11b8352600483019190602083019252565b03915afa8015610718576001915f916106e9575b506106c281612918565b036106d7576106d5906024359033614537565b005b60405163f331f3c160e01b8152600490fd5b61070b915060203d602011610711575b61070381836108d5565b8101906128f5565b5f6106b8565b503d6106f9565b61290d565b908160209103126103db573590565b6001600160a01b03909116815260200190565b346103db5760203660031901126103db5760043561075c816145ff565b505f526004602052602060018060a01b0360405f205416604051908152f35b346103db5760403660031901126103db5760043561079881610611565b602435906107a5826145ff565b33151580610844575b8061081c575b6107fd576106d5926107f89181906001600160a01b0385811691167f8c5be1e5ebec7d5bd14f71427d1e84f3dd0314c0f7b2291e5b200ac8c7c3b9255f80a46115f8565b61329a565b60405163a9fbf51f60e01b815280610818336004830161072c565b0390fd5b5060018060a01b0381165f52600560205260ff61083c3360405f20613c2a565b5416156107b4565b506001600160a01b0381163314156107ae565b634e487b7160e01b5f52604160045260245ffd5b604081019081106001600160401b0382111761088657604052565b610857565b6001600160401b03811161088657604052565b602081019081106001600160401b0382111761088657604052565b61100081019081106001600160401b0382111761088657604052565b601f909101601f19168101906001600160401b0382119082101761088657604052565b604051906101c082016001600160401b0381118382101761088657604052565b60405190606082016001600160401b0381118382101761088657604052565b6040519061012082016001600160401b0381118382101761088657604052565b604051906101e082016001600160401b0381118382101761088657604052565b604051906106308261086b565b6001600160401b0381116108865760051b60200190565b346103db576020806003193601126103db57600435906001600160401b0382116103db57366023830112156103db578160040135916109d983610984565b916040936109ea60405194856108d5565b8084526024602085019160061b840101923684116103db57602401905b838210610a17576106d585612936565b85823603126103db578286918251610a2e8161086b565b843581528285013583820152815201910190610a07565b600319906020818301126103db57600435916001600160401b0383116103db5782610200920301126103db5760040190565b610a8036610a45565b600654341590811591610ac4575b8115610ab5575b50610aa3576106d590614724565b604051633fb648ad60e11b8152600490fd5b9050602082013514155f610a95565b604051636e49181f60e01b815290915060208180610ae6338660048401612fd4565b03817f0000000000000000000000000061e516886a0540f63157f112c0588ee0651dcf6001600160a01b03165afa908115610718575f91610b2a575b501590610a8e565b610b4c915060203d602011610b52575b610b4481836108d5565b810190612fbf565b5f610b22565b503d610b3a565b346103db575f3660031901126103db576040517f00000000000000000000000058204a8849bf6a625d56021adfd12ce4a4a3af136001600160a01b03168152602090f35b346103db576020806003193601126103db576004355f52608c815260405f2090604051905f928054610bce81611443565b80855291600191808316908115610c345750600114610bf8575b61042d8561059e818903826108d5565b5f908152838120939550925b828410610c21575050508161042d9361059e92820101935f610be8565b8054858501870152928501928101610c04565b60ff191686860152505050151560051b820101915061059e8161042d5f610be8565b346103db575f3660031901126103db576040517f000000000000000000000000d50e5cb3af7322fdc20f2f7abcd77204b50b760d6001600160a01b03168152602090f35b90816101a09103126103db5790565b60206003198201126103db57600435906001600160401b0382116103db5761054f91600401610c9a565b346103db57610ce136610ca9565b506020604051670de0b6b3a76400008152f35b60609060031901126103db57600435610d0c81610611565b90602435610d1981610611565b9060443590565b346103db576106d5610d3136610cf4565b91612fed565b346103db575f3660031901126103db576020609754604051908152f35b346103db5760203660031901126103db576020610d726004356130ad565b604051908152f35b346103db575f3660031901126103db576040517f00000000000000000000000000000000000000000000000000000000000000006001600160a01b03168152602090f35b346103db576106d5610dcf36610cf4565b9060405192610ddd8461089e565b5f845261412e565b6001600160401b03811161088657601f01601f191660200190565b929192610e0c82610de5565b91610e1a60405193846108d5565b8294818452818301116103db578281602093845f960137010152565b9080601f830112156103db5781602061054f93359101610e00565b6064359061063082610611565b60a4359061063082610611565b6001600160681b038116036103db57565b359061063082610e6b565b63ffffffff8116036103db57565b60a4359061063082610e87565b60e4359061063082610e87565b359061063082610e87565b61ffff8116036103db57565b359061063082610eba565b62ffffff8116036103db57565b359061063082610ed1565b60ff8116036103db57565b359061063082610ee9565b801515036103db57565b359061063082610eff565b81601f820112156103db578035906020610f2d83610984565b936040610f3d60405196876108d5565b84865282860191836101c0809702860101948186116103db578401925b858410610f6b575050505050505090565b86848303126103db57848791610f7f6108f8565b610f8887610e7c565b8152610f95838801610eaf565b83820152610fa4868801610eaf565b868201526060610fb5818901610ec6565b908201526080610fc6818901610640565b9082015260a0808801359082015260c0610fe1818901610ede565b9082015260e0610ff2818901610ef4565b90820152610100611004818901610f09565b90820152610120611016818901610f09565b90820152610140611028818901610f09565b9082015261016061103a818901610f09565b9082015261018061104c818901610f09565b908201526101a061105e818901610f09565b90820152815201930192610f5a565b65ffffffffffff8116036103db57565b61010435906106308261106d565b602435906106308261106d565b604435906106308261106d565b606435906106308261106d565b608435906106308261106d565b610124359061063082610611565b610164359061063082610611565b81601f820112156103db578035916020916110f584610984565b9361110360405195866108d5565b808552838086019160051b830101928084116103db57848301915b84831061112e5750505050505090565b82356001600160401b0381116103db57869161114f84848094890101610e36565b81520192019161111e565b346103db576101c03660031901126103db576001600160401b0360046024358281116103db5761118d9036908301610e36565b6044358381116103db576111a49036908401610e36565b6111ac610e51565b6084358581116103db576111c39036908601610e36565b6111cb610e5e565b60c4358781116103db576111e29036908801610e36565b60e4358881116103db576111f99036908901610f14565b9061120261107d565b9261120b6110bf565b94611214610632565b9661121d6110cd565b98611226610622565b9a6101a4359d8e116103db576112428d6106d59f3691016110db565b9c35613903565b346103db5760203660031901126103db576020611267600435613b6f565b6040516001600160a01b039091168152f35b346103db575f3660031901126103db576020600654604051908152f35b346103db576020806003193601126103db57600435906001600160401b03908183116103db57366023840112156103db5782600401359182116103db5760249260063660248560061b840101116103db575f5b8481106112f257005b80821b83019060408060231984360301126103db5760019263ffffffff61ffff8861134c94516113218161086b565b60448d8601359561133187610e87565b868352013591829161134283610eba565b0152169116613e4d565b016112e9565b346103db5760203660031901126103db5760206112676004356145ff565b346103db575f3660031901126103db576020609254604051908152f35b9080601f830112156103db5760209082356113a781610984565b936113b560405195866108d5565b81855260208086019260051b8201019283116103db57602001905b8282106113de575050505090565b813581529083019083016113d0565b346103db5760403660031901126103db576001600160401b036004358181116103db5761141e90369060040161138d565b906024359081116103db5760209161143d610d72923690600401610c9a565b50613ba1565b90600182811c92168015611471575b602083101461145d57565b634e487b7160e01b5f52602260045260245ffd5b91607f1691611452565b346103db575f3660031901126103db576040515f9060945461149c81611443565b8083526020916001908181169081156105e557506001146114c75761042d8461059e818803826108d5565b91935060945f52835f20915f925b8284106114f1575050508161042d9361059e928201019361058e565b80548585018701529285019281016114d5565b346103db5760203660031901126103db5760043561152181610611565b6001600160a01b03168015611546575f526003602052602060405f2054604051908152f35b6040516322718ad960e21b81525f6004820152602490fd5b346103db575f3660031901126103db57611576614639565b600780546001600160a01b031981169091555f906001600160a01b03165f80516020615ea88339815191528280a3005b346103db575f3660031901126103db576091546040516001600160a01b039091168152602090f35b5f52600260205260405f2090565b5f52608b60205260405f2090565b5f52608a60205260405f2090565b5f52600460205260405f2090565b346103db5760203660031901126103db576004355f526098602052602060405f2054604051908152f35b346103db575f3660031901126103db576096546040516001600160a01b039091168152602090f35b346103db5760203660031901126103db5760043561167a61067b608e54610605565b6040516364faa15960e01b8152915f8380611699843060048401612eb3565b0381855afa908115610718576116f3935f92611764575b506020906116d660406116ca606086015163ffffffff1690565b94015163ffffffff1690565b9360405180809781946302b7e6ef60e41b83523060048401613074565b03915afa9182156107185761171e6117259361042d955f91611735575b5063ffffffff809316612f53565b9116613067565b6040519081529081906020820190565b611757915060203d60201161175d575b61174f81836108d5565b810190612c25565b5f611710565b503d611745565b6020919250611784903d805f833e61177c81836108d5565b810190612d7b565b91906116b0565b346103db575f3660031901126103db576020604051670de0b6b3a76400008152f35b346103db575f3660031901126103db576040517f0000000000000000000000000061e516886a0540f63157f112c0588ee0651dcf6001600160a01b03168152602090f35b90604090604083019083526020604081850152845180925260608085018260608560051b8801019701945f925b85841061183057505050505050505090565b90919293949596989785806118716001938d605f1990820301885285878d51878060a01b038151168452858101518685015201519181898201520190610519565b9a9b9901979695919091019301919061181e565b346103db5760206003196020813601126103db57600435906001600160401b0382116103db576101809082360301126103db57604051916118c58361086b565b600183525f5b81811061191b576101248361042d866118e2613288565b6118ea610918565b308152905f6020830152604082015261190282612cc6565b5261190c81612cc6565b506040519384930135836117f1565b8190611925613c3f565b828287010152016118cb565b346103db575f3660031901126103db576007546040516001600160a01b039091168152602090f35b346103db575f3660031901126103db57611971613c6e565b60408051928352602083019190915290f35b346103db575f3660031901126103db576040515f9060018054906119a682611443565b908184526020926001811690815f146105e557506001146119d15761042d8461059e818803826108d5565b91935060015f52835f20915f925b8284106119fb575050508161042d9361059e928201019361058e565b80548585018701529285019281016119df565b346103db575f3660031901126103db57608e546040516001600160a01b039091168152602090f35b6001600160701b038116036103db57565b60c4359061063082611a36565b610104359061063082610611565b346103db576101603660031901126103db576101203660231901126103db57611a89610937565b611a9161108b565b8152611a9b611098565b6020820152611aa86110a5565b6040820152611ab56110b2565b6060820152611ac2610e95565b6080820152611acf611a47565b60a0820152611adc610ea2565b60c0820152611ae9611a54565b60e082015261010061012435910152611b00610632565b506040515f8152602090f35b346103db5760403660031901126103db576020600435611b2b81610611565b60018060a01b038091165f526088825260405f206024355f52825260405f205416604051908152f35b346103db575f3660031901126103db576090546040516001600160a01b039091168152602090f35b346103db5760403660031901126103db57600435611b9981610611565b602435611ba581610eff565b6001600160a01b038216918215611c0a57611bcb90335f52600560205260405f20613c2a565b9015159060ff1981541660ff83161790556040519081527f17307eab39ab6107e8899845ad3d59bd9653f200f220920489ca2b5937696c3160203392a3005b604051630b61174360e31b815260048101849052602490fd5b346103db5760403660031901126103db576106d5602435600435613e4d565b346103db5760803660031901126103db57600435611c5f81610611565b602435611c6b81610611565b606435916001600160401b0383116103db57366023840112156103db57611c9f6106d5933690602481600401359101610e00565b916044359161412e565b611cb236610a45565b3415801590611fd6575b8015611fc6575b611fb457611d3e611d207f000000000000000000000000d50e5cb3af7322fdc20f2f7abcd77204b50b760d611cf6614226565b805160209091012060609190911b6001600160601b03199081169116186001600160e01b03191690565b611d38611d316101e0850185614249565b3691610e00565b90615313565b90156103db57611d59815191602080809483010191016137d2565b90815191611d6b61067b609054610605565b916006549260409082604051809263038ab08560e11b82528180611d9960049a600483019190602083019252565b03915afa8015610718576004915f91611f97575b50611db781612918565b14935f5b868110611e68578786611dcd87615494565b611de6611dde6101c0840184614249565b81019061071d565b915f91611e2e575b60e00135159081611e25575b50611e1357611e0e6106d591608d54613067565b608d55565b604051637691472960e01b8152600490fd5b90501582611dfa565b9050611e48611e4360e0830135609754612f53565b609755565b60e0611e60611e568361427b565b84608d549161553b565b919050611dee565b611e728186612cd8565b5190611e8d611e80836115ce565b546001600160a01b031690565b611e9961067b8b61427b565b6001600160a01b0390911603611f47578487611eb48461547a565b611ec4575b506001915001611dbb565b611ef592611ed661067b608e54610605565b86516342f9914b60e01b81528681019283529485928391829160200190565b03915afa91821561071857600192611f1d915f91611f2a575b505f52609860205260405f2090565b8054600101905584611eb9565b611f419150873d891161175d5761174f81836108d5565b5f611f0e565b50916108189088611f63611f5d611e80876115ce565b9161427b565b9151631048fd9360e11b81529384019485526001600160a01b03908116602086015216604084015290918291606090910190565b611fae9150843d86116107115761070381836108d5565b5f611dad565b6040516394310b3d60e01b8152600490fd5b5060065460208201351415611cc3565b50611ffb602060065460405180938192636e49181f60e01b8352339060048401612fd4565b03817f0000000000000000000000000061e516886a0540f63157f112c0588ee0651dcf6001600160a01b03165afa908115610718575f9161203e575b5015611cbc565b612057915060203d602011610b5257610b4481836108d5565b5f612037565b346103db5760403660031901126103db5760043561207a81610611565b6001600160a01b03165f908152608960209081526040808320602435845282529091206001600160e01b03906120af90615742565b16604051908152f35b346103db5760203660031901126103db576120d761067b608e54610605565b60206040518092630fab094760e01b825281806120f7306004830161072c565b03915afa908115610718575f91612179575b505f6040518092635e703e7160e01b8252818061212c6004353060048401613074565b03916001600160a01b03165afa80156107185761042d915f91612157575b506040519182918261053e565b61217391503d805f833e61216b81836108d5565b810190614285565b5f61214a565b61219b915060203d6020116121a1575b61219381836108d5565b810190613e0f565b5f612109565b503d612189565b346103db576020806003193601126103db57600435906001600160401b0382116103db57366023830112156103db578160040135916121e683610984565b916040936121f760405194856108d5565b8084526024602085019160061b840101923684116103db57602401905b838210612224576106d5856142c2565b85823603126103db57828691825161223b8161086b565b843561224681610611565b81528285013583820152815201910190612214565b346103db575f3660031901126103db57608f546040516001600160a01b039091168152602090f35b346103db5760203660031901126103db576004356001600160401b0381116103db576122b661197191369060040161138d565b6143aa565b346103db575f3660031901126103db57602060ff609354166040519015158152f35b346103db5760403660031901126103db576004355f52608a602052602060405f206120af60018060e01b039163ffffffff602435169061576a565b346103db575f3660031901126103db57604051612334816108b9565b611000809136903760405160085f825b6080821061238457505050612358816108b9565b604051905f90825b6080831061236d57505050f35b600190825181526020809101920192019190612360565b6001602081928554815201930191019091612344565b346103db575f3660031901126103db576040515f906095546123bb81611443565b8083526020916001908181169081156105e557506001146123e65761042d8461059e818803826108d5565b91935060955f52835f20915f925b828410612410575050508161042d9361059e928201019361058e565b80548585018701529285019281016123f4565b346103db5760403660031901126103db57602060ff61246e60043561244781610611565b6024359061245482610611565b6001600160a01b03165f9081526005855260409020613c2a565b54166040519015158152f35b346103db5760603660031901126103db5760043561249781610611565b6001600160a01b03165f908152608960209081526040808320602435845282529091206001600160e01b03906120af9060443563ffffffff169061576a565b346103db575f3660031901126103db576040517f000000000000000000000000d50e5cb3af7322fdc20f2f7abcd77204b50b760d6001600160a01b03168152602090f35b346103db5760203660031901126103db5760043561253781610611565b61253f614639565b6001600160a01b03811615612557576106d590614f7f565b604051631e4fbdf760e01b81525f6004820152602490fd5b346103db5760203660031901126103db576004355f52608a602052602060018060e01b036120af60405f20615742565b929160808401918452602090818501526040926040850152606060806060860152855180935260a085018260a08560051b8801019701945f925b8584106125eb57505050505050505090565b909192939495969897858061262c6001938d609f1990820301885285878d51878060a01b038151168452858101518685015201519181898201520190610519565b9a9b990197969591909101930191906125d9565b346103db5761264e36610ca9565b60808101356128e3576126976126867f000000000000000000000000d50e5cb3af7322fdc20f2f7abcd77204b50b760d611cf6614226565b611d38611d31610180850185614249565b6060916128c9575b506126ae61067b609054610605565b9060409182519163038ab08560e11b8352602092838160049481806126de8a8c0135600483019190602083019252565b03915afa908115610718575f916128ac575b508151925f935f9161270661067b608e54610605565b905b82841061281957898961042d8a8a8a8a6127206144fc565b93865161274681612738878583019190602083019252565b03601f1981018352826108d5565b5f61274f610918565b308152928301528782015261276385612cc6565b5261276d84612cc6565b5061277781612918565b60018114908115612804575b81156127ef575b81156127db575b50156127b05750925b519384936101606101208301359201358561259f565b6127d591506127cf6127c9609754610120890135612f53565b91613ba1565b906157e9565b9261279a565b600591506127e881612918565b1487612791565b90506127fa81612918565b600681149061278a565b905061280f81612918565b6002811490612783565b90919295612846905f61282c8989612cd8565b518b518094819263c44a8e6d60e01b835230888401612eb3565b0381875afa908115610718576128826128768b612888946001965f91612892575b5001516001600160681b031690565b6001600160681b031690565b90612f53565b9601929190612708565b6128a691503d805f833e61177c81836108d5565b5f612867565b6128c39150843d86116107115761070381836108d5565b5f6126f0565b6128dd9150602080825183010191016137d2565b5f61269f565b60405163096afe5960e41b8152600490fd5b908160209103126103db575160078110156103db5790565b6040513d5f823e3d90fd5b6007111561292257565b634e487b7160e01b5f52602160045260245ffd5b61293e614639565b61294c61067b609054610605565b6006546040805163038ab08560e11b81526004808201939093529092602091908290829060249082905afa908115610718575f91612c08575b5061298f81612918565b60038103612bf85760935460ff16612be8576129aa81612918565b60068114908115612bd4575b50612bc557608e6129cb61067b608e54610605565b91808551809463f1bea54f60e01b825281806129e9308a830161072c565b03915afa928315610718575f93612ba6575b5090915f91865191612a0b612c34565b505f945b838610612a825750505050670de0b6b3a7640000915011612a7457507f9a6cf4ff8f1a3ee73be4815b44949c83dbc2e76a386eaf652b2a454bac9d241291612a6f91612a63600160ff196093541617609355565b51918291339083612f60565b0390a1565b90516351ae01e360e11b8152fd5b90919293612ac05f612a9761067b8554610605565b612aa1898d612cd8565b5151908a8c518095819482936364faa15960e01b845230908401612eb3565b03915afa908115610718575f91612b8c575b50612aef612ae761010083015162ffffff1690565b62ffffff1690565b612b7c578363ffffffff612b07835163ffffffff1690565b1611612b7c57600191612b5c612b7092612b44612b3f612b3a8f612b2c8e8d92612cd8565b510151935163ffffffff1690565b612ee8565b612f18565b90919082549060031b91821b915f19901b1916179055565b85612b67898d612cd8565b51015190612f53565b95019493929190612a0f565b885163148e14dd60e21b81528890fd5b612ba091503d805f833e61177c81836108d5565b5f612ad2565b81612bbe9294503d851161175d5761174f81836108d5565b915f6129fb565b509051636fb8407560e01b8152fd5b60059150612be181612918565b145f6129b6565b8351633bfa282760e21b81528390fd5b83516301e7228160e11b81528390fd5b612c1f9150823d84116107115761070381836108d5565b5f612985565b908160209103126103db575190565b604051906101e082016001600160401b038111838210176108865760405260606101c0835f81525f60208201525f60408201525f838201525f60808201525f60a08201525f60c08201525f60e08201525f6101008201525f6101208201525f6101408201525f6101608201525f6101808201525f6101a08201520152565b634e487b7160e01b5f52603260045260245ffd5b805115612cd35760200190565b612cb2565b8051821015612cd35760209160051b010190565b519061063082610e87565b519061063082610e6b565b519061063082610eba565b519061063082610611565b519061063082610ed1565b519061063082610ee9565b519061063082610eff565b81601f820112156103db578051612d4f81610de5565b92612d5d60405194856108d5565b818452602082840101116103db5761054f91602080850191016104f8565b6020818303126103db5780516001600160401b03918282116103db57016101e0818403126103db57612dab610957565b92612db582612cec565b8452612dc360208301612cf7565b6020850152612dd460408301612cec565b6040850152612de560608301612cec565b6060850152612df660808301612cf7565b6080850152612e0760a08301612d02565b60a0850152612e1860c08301612d0d565b60c085015260e082015160e0850152610100612e35818401612d18565b90850152610120612e47818401612d23565b90850152610140612e59818401612d2e565b90850152610160612e6b818401612d2e565b90850152610180612e7d818401612d2e565b908501526101a0612e8f818401612d2e565b908501526101c092838301519081116103db57612eac9201612d39565b9082015290565b6001600160a01b03909116815260208101919091525f604082015260600190565b634e487b7160e01b5f52601160045260245ffd5b63ffffffff9081165f190191908211612efd57565b612ed4565b63ffffffff9182169082160391908211612efd57565b6080811015612cd357600801905f90565b9060018201809211612efd57565b9060048201809211612efd57565b9060098201809211612efd57565b91908201809211612efd57565b909291926040906040830160408452815180915260608401916020809101935f905b838210612f9f5750505050602091509360018060a01b0316910152565b855180518652830151858401529482019493840193600190910190612f82565b908160209103126103db575161054f81610eff565b9081526001600160a01b03909116602082015260400190565b91906001600160a01b0390818116156130415761300d8291843391614e22565b931692169082820361301e57505050565b60649350604051926364283d7b60e01b8452600484015260248301526044820152fd5b604051633250574960e11b81525f6004820152602490fd5b5f19810191908211612efd57565b91908203918211612efd57565b6001600160a01b039091168152602081019190915260400190565b8115613099570490565b634e487b7160e01b5f52601260045260245ffd5b6130e3906130bf61067b608e54610605565b90604051906342f9914b60e01b825281806020958693600483019190602083019252565b0381855afa908115610718575f9161326b575b506040516364faa15960e01b8152905f8280613116843060048401612eb3565b0381865afa918215610718575f9261324f575b50613143613139612b3f83613059565b90549060031b1c90565b928315613246578460405180926302b7e6ef60e41b8252818061316a873060048401613074565b03915afa948515610718575f95613227575b505060608201916040613193845163ffffffff1690565b9101926131c96131bc876131b76131ae885163ffffffff1690565b63ffffffff1690565b612f53565b63ffffffff809416613067565b1561321d5761054f95613210613201613217966131fb6131f061171e965163ffffffff1690565b915163ffffffff1690565b90612f02565b945f52609860205260405f2090565b5490613067565b9061308f565b5050505050505f90565b61323e929550803d1061175d5761174f81836108d5565b925f8061317c565b50505050505f90565b6132649192503d805f833e61177c81836108d5565b905f613129565b6132829150833d851161175d5761174f81836108d5565b5f6130f6565b604051906132958261089e565b5f8252565b80546001600160a01b0319166001600160a01b03909216919091179055565b601f81116132c5575050565b5f805260205f20906020601f840160051c830193106132fe575b601f0160051c01905b8181106132f3575050565b5f81556001016132e8565b90915081906132df565b601f8111613314575050565b60945f5260205f20906020601f840160051c8301931061334e575b601f0160051c01905b818110613343575050565b5f8155600101613338565b909150819061332f565b601f8111613364575050565b60955f5260205f20906020601f840160051c8301931061339e575b601f0160051c01905b818110613393575050565b5f8155600101613388565b909150819061337f565b90601f82116133b5575050565b60019160015f5260205f20906020601f840160051c830193106133f2575b601f0160051c01905b8181106133e857505050565b5f815582016133dc565b90915081906133d3565b601f821161340957505050565b5f5260205f20906020601f840160051c83019310613441575b601f0160051c01905b818110613436575050565b5f815560010161342b565b9091508190613422565b8160011b915f199060031b1c19161790565b80519091906001600160401b038111610886576134848161347f609454611443565b613308565b602080601f83116001146134b8575081906134a893945f926134ad575b505061344b565b609455565b015190505f806134a1565b60945f52601f198316949091907f7047a3cc0a76edcee45792ca71527c753f6167484f14b94c4a3bd2997516725c925f905b878210613521575050836001959610613509575b505050811b01609455565b01515f1960f88460031b161c191690555f80806134fe565b806001859682949686015181550195019301906134ea565b80519091906001600160401b038111610886576135608161355b609554611443565b613358565b602080601f83116001146135885750819061358393945f926134ad57505061344b565b609555565b60955f52601f198316949091907f947035e97d0f7e1937f791bc189f60c984ceaaa7a8494fc67f9f8f4de8ccf2c6925f905b8782106135f15750508360019596106135d9575b505050811b01609555565b01515f1960f88460031b161c191690555f80806135ce565b806001859682949686015181550195019301906135ba565b80519091906001600160401b038111610886576001906136328161362d8454611443565b6133a8565b602080601f831160011461365a575081906136569394955f926134ad57505061344b565b9055565b60015f52601f198316959091907fb10e2d527612073b26eecdfd717e6a320cf44b4afac2b0732d9fcbe2b7fa0cf6925f905b8882106136c157505083859697106136a9575b505050811b019055565b01515f1960f88460031b161c191690555f808061369f565b80878596829496860151815501950193019061368c565b81519192916001600160401b038111610886576136ff816136f98454611443565b846133fc565b602080601f8311600114613723575081906136569394955f926134ad57505061344b565b90601f19831695613737855f5260205f2090565b925f905b888210613759575050836001959697106136a957505050811b019055565b8060018596829496860151815501950193019061373b565b9080601f830112156103db5781519060209161378c81610984565b9361379a60405195866108d5565b81855260208086019260051b8201019283116103db57602001905b8282106137c3575050505090565b815181529083019083016137b5565b906020828203126103db5781516001600160401b0381116103db5761054f9201613771565b60208082019080835283518092528060408094019401925f905b83821061382057505050505090565b9091929394836101c06001926138f6895161384383825160018060681b03169052565b8085015163ffffffff16838601528087015163ffffffff168388015260608181015161ffff16908401526080818101516001600160a01b03169084015260a0818101519084015260c08082015162ffffff169084015260e08181015160ff169084015261010081810151151590840152610120818101511515908401526101408181015115159084015261016081810151151590840152610180818101511515908401526101a090810151151590830152565b0196019493920190613811565b9b94989a92919396999097959760018060a01b039c8d7f000000000000000000000000d50e5cb3af7322fdc20f2f7abcd77204b50b760d1630146103db578d61395061067b608e54610605565b166103db57613a2c976139c08e61399e6139e89761397c613a0a9b6139c69865ffffffffffff98614e93565b608f80546001600160a01b0319166001600160a01b0392909216919091179055565b608e80546001600160a01b0319166001600160a01b0392909216919091179055565b16609255565b609080546001600160a01b0319166001600160a01b0392909216919091179055565b609180546001600160a01b0319166001600160a01b0392909216919091179055565b609680546001600160a01b0319166001600160a01b0392909216919091179055565b8051613b60575b508051613b51575b50838116613ae9575b505f91613a689183604051958680958194631f1d05ad60e01b8352600483016137f7565b0393165af1801561071857613ac7575b508051905f5b828110613a915750505061063033614f7f565b80613ac1613aa160019385612cd8565b51613abc613aae84612f29565b5f52608c60205260405f2090565b6136d8565b01613a7e565b613ae2903d805f833e613ada81836108d5565b8101906137d2565b505f613a78565b91838116803b156103db5760405163036129cb60e61b8152935f918591829084908290613b19906004830161072c565b03925af1918215610718575f93613a6893613b38575b50915091613a44565b80613b45613b4b9261088b565b806104ee565b5f613b2f565b613b5a90613539565b5f613a3b565b613b699061345d565b5f613a33565b5f908152608b60205260409020546001600160a01b0390811680613b9c5750600260205260405f20541690565b905090565b905f9180515f915b818310613bb557505050565b909193613bcb613bc58684612cd8565b516130ad565b8101809111612efd57936001019190613ba9565b6001600160a01b03165f90815260886020526040902090565b6001600160a01b03165f90815260896020526040902090565b6001600160a01b03165f90815260036020526040902090565b9060018060a01b03165f5260205260405f2090565b60405190606082016001600160401b038111838210176108865760405260606040835f81525f60208201520152565b6040516370a0823160e01b80825291906020906001600160a01b0390828180613c9a306004830161072c565b0381857f0000000000000000000000000000000000000000000000000000000000000000165afa80156107185783915f91613d37575b509460405192839182528180613ce9306004830161072c565b03917f00000000000000000000000058204a8849bf6a625d56021adfd12ce4a4a3af13165afa918215610718575f92613d2157505090565b61054f9250803d1061175d5761174f81836108d5565b613d4e9150823d841161175d5761174f81836108d5565b5f613cd0565b51906106308261106d565b519061063082611a36565b90816101209103126103db57613d7e610937565b90613d8881613d54565b8252613d9660208201613d54565b6020830152613da760408201613d54565b6040830152613db860608201613d54565b6060830152613dc960808201612cec565b6080830152613dda60a08201613d5f565b60a0830152613deb60c08201612cec565b60c0830152613dfc60e08201612d0d565b60e0830152610100809101519082015290565b908160209103126103db575161054f81610611565b908160051b9180830460201490151715612efd57565b81810292918115918404141715612efd57565b919091613e5e61067b608f54610605565b600654604080516321d1336160e11b81526004810192909252929161012091908290829060249082905afa91821561071857613eb892613ead92610100925f92614101575b5050015160f21c90565b60018091811c161490565b6140f057613eca61067b608e54610605565b9160208151809462d5cc0160e21b82528180613eea873060048401613074565b03915afa928315610718575f936140cf575b506001600160a01b039081613f24611e8085613f1788613bdf565b905f5260205260405f2090565b16156140a0575b613f3961067b608e54610605565b8151635d53f40760e11b8152600481018590526024810188905296905f908890604490829084905af1968715610718575f97614084575b50613f7f61067b608e54610605565b915f815180946364faa15960e01b82528180613f9f8a3060048401612eb3565b03915afa928315610718575f93614068575b50602083015188516001600160681b039591613fdf91611e0e91613fd791908916613e3a565b608d54612f53565b5f5b83811061401357505050506080015193946106309461400d92906001600160681b031691519116613e3a565b9161501f565b806140206001928c612cd8565b5161402b818b614fb4565b888551917f031e1988c95a91ec4d655ff63a8f87a80bc9daf28d95ae10ee08c0022cfb5c8b868d16938061405f338261072c565b0390a401613fe1565b61407d9193503d805f833e61177c81836108d5565b915f613fb1565b6140999197503d805f833e613ada81836108d5565b955f613f70565b6140ab609654610605565b83818416156140c4576140bf915b86614537565b613f2b565b6140bf9150856140b9565b6140e991935060203d6020116121a15761219381836108d5565b915f613efc565b8151631d2c125760e31b8152600490fd5b6141209250803d10614127575b61411881836108d5565b810190613d6a565b5f80613ea3565b503d61410e565b9192909261413d818585612fed565b833b61414a575b50505050565b61416f916020916040519384928392630a85bd0160e11b978885523360048601615292565b03815f6001600160a01b0388165af15f91816141f5575b506141bf57826141946152c3565b80519190826141b857604051633250574960e11b815280610818846004830161072c565b9050602001fd5b6001600160e01b031916036141d857505f808080614144565b604051633250574960e11b8152908190610818906004830161072c565b61421891925060203d60201161421f575b61421081836108d5565b81019061527d565b905f614186565b503d614206565b604051906142338261086b565b600782526618d85cda13dd5d60ca1b6020830152565b903590601e19813603018212156103db57018035906001600160401b0382116103db576020019181360383136103db57565b3561054f81610611565b906020828203126103db5781516001600160401b0381116103db5761054f9201612d39565b604051906142b78261086b565b5f6020838281520152565b6142d061067b609054610605565b6006546040805163038ab08560e11b8152600480820193909352939290916020918290869060249082905afa948515610718575f95614389575b5061431485612918565b60018095036106d7578351936143286142aa565b505f5b85811061433b5750505050505050565b6143458183612cd8565b5161435361067b8251610605565b15614379579061437382866143698b9551610605565b9101519033614537565b0161432b565b85516314f4c13d60e21b81528490fd5b6143a391955060203d6020116107115761070381836108d5565b935f61430a565b906143b961067b609054610605565b91600654926040805163038ab08560e11b8152602081819481806143e760049b600483019190602083019252565b03915afa8015610718576004915f916144dd575b5061440581612918565b03614466579082949251915f955f9461442261067b608e54610605565b915b858710614471575050505050505061443a613c6e565b92608d5491821561446657816144608461445b61054f969561445b95613e3a565b61308f565b95613e3a565b50505090505f905f90565b909192939495976144a1905f6144878b85612cd8565b5187518094819263c44a8e6d60e01b835230898401612eb3565b0381885afa90811561071857612882612876896144d0946001965f91612892575001516001600160681b031690565b9801959493929190614424565b6144f6915060203d6020116107115761070381836108d5565b5f6143fb565b604051906145098261086b565b60018252815f5b6020908181101561453257602091614526613c3f565b90828501015201614510565b505050565b6001600160a01b039081165f8181526088602090815260408083208784528252909120805491959294929391821691869161457390859061329a565b80841683877f3134e8a2e6d97e929a7e54011ea5485d7d196dd5f0ba4d4ef95803e8e3fc257f5f80a4608e5416946064604051809781936305c9a1d560e31b835230600484015260248301528760448301525afa93841561071857610630955f956145e0575b5050615883565b6145f7929550803d1061175d5761174f81836108d5565b925f806145d9565b5f818152600260205260409020546001600160a01b0316908115614621575090565b60249060405190637e27328960e01b82526004820152fd5b6007546001600160a01b0316330361464d57565b60405163118cdaa760e01b8152336004820152602490fd5b3561054f81610e87565b6040519061467c8261086b565b600382526270617960e81b6020830152565b91906040838203126103db5782516146a581610611565b60208085015191949091906001600160401b0382116103db57019180601f840112156103db5782516146d681610984565b936146e460405195866108d5565b818552838086019260051b8201019283116103db578301905b82821061470b575050505090565b838091835161471981610eba565b8152019101906146fd565b9061473160a08301614665565b63ffffffff609254911603614a225761478061476f7f000000000000000000000000d50e5cb3af7322fdc20f2f7abcd77204b50b760d611cf661466f565b611d38611d316101e0860186614249565b9015614a1d57806020806147999351830101910161468e565b6001600160a01b03918216939184156149f2575b8151156149e0575f805f918451975f5b8981106147ff575050505050506147e792935060c06147df6101a0840161427b565b920135615a20565b6147ed57565b604051631b57826960e21b8152600490fd5b8988614820614819614811858c612cd8565b5161ffff1690565b61ffff1690565b850361492e575b90614841611e8086613f1761483c8b9661427b565b613bdf565b88808616918b83159485158096614923575b614867575b505050505050506001016147bd565b879a9697916148768b92613059565b831092836148fd575b5050505f146148a8575050505060019161489891612f53565b935b9050845f8088818b8f614858565b6148cf9550836148f0575b5050506148d8575b8361400d876148c98c61427b565b93612f53565b60015f9361489a565b6148eb84846148e68c61427b565b614537565b6148bb565b16141590505f88816148b3565b61ffff9293506149199161491361481192612f29565b90612cd8565b1614888d8b61487f565b508383161515614853565b50509350906149436148196148118689612cd8565b106149ce576149586148196148118588612cd8565b9061496761067b608e54610605565b935f60405180966364faa15960e01b82528180614988883060048401612eb3565b03915afa948515610718578a614841611e8086613f176149c26128768f9761483c9d6080915f91612892575001516001600160681b031690565b9a505050505090614827565b604051639fda363d60e01b8152600490fd5b604051633d04bd1f60e01b8152600490fd5b93506149ff609654610605565b80851615614a0e575b936147ad565b50614a188261427b565b614a08565b509050565b6040516301e73e1760e61b8152600490fd5b919091614a4561067b608e54610605565b905f604051809363c44a8e6d60e01b82528180614a66893060048401612eb3565b03915afa918215610718575f92614c34575b50614a838482615b23565b936001600160a01b038086161591908215614b50575b5050614aa961067b608e54610605565b835163ffffffff1690803b156103db576040516330b157e560e21b815263ffffffff9290921660048301526001600160a01b038781166024840152841660448301525f908290606490829084905af1801561071857614b3d575b50614b3957906106309163ffffffff614b20835163ffffffff1690565b608093909301516001600160681b0316921690856151bb565b5050565b80613b45614b4a9261088b565b5f614b03565b610160850151614b83575b5085614b6c61067b611e80846115dc565b614a99576107f8614b7c926115dc565b5f85614a99565b614bbd90614b9561067b608f54610605565b60065460405180926321d1336160e11b82528180610120978895600483019190602083019252565b03915afa928315610718575f93614c15575b5050841615159081614bf9575b50614be7575f614b5b565b6040516318cdaf9760e01b8152600490fd5b6101000151614c0f915060f21c60018091161490565b5f614bdc565b614c2c929350803d106141275761411881836108d5565b905f80614bcf565b614c499192503d805f833e61177c81836108d5565b905f614a78565b90614c5f61067b608e54610605565b5f604051809263c44a8e6d60e01b82528180614c7f883060048401612eb3565b03915afa908115610718575f91614e08575b50614c9b83615bb1565b926001600160a01b03841615908115614d61575b50614cbe61067b608e54610605565b825163ffffffff1690803b156103db576040516330b157e560e21b815263ffffffff9290921660048301526001600160a01b03861660248301525f60448301819052908290606490829084905af1801561071857614d4e575b50614d4b578063ffffffff614d33610630935163ffffffff1690565b608092909201516001600160681b03169116846150e9565b50565b80613b45614d5b9261088b565b5f614d17565b610160830151614d9b575b84614d7c61067b611e80846115dc565b15614d88575b50614caf565b6107f8614d94926115dc565b5f84614d82565b614dd4614dac61067b608f54610605565b60065460405180926321d1336160e11b82528180610120968795600483019190602083019252565b03915afa801561071857614dea575b5050614d6c565b81614e0092903d106141275761411881836108d5565b505f80614de3565b614e1c91503d805f833e61177c81836108d5565b5f614c91565b92919092614e3461067b608e54610605565b915f604051809463c44a8e6d60e01b82528180614e558a3060048401612eb3565b03915afa928315610718575f93614e73575b50614a83908583615c28565b614a83919350614e8c903d805f833e61177c81836108d5565b9290614e67565b815191939290916001600160401b03811161088657614ebb81614eb65f54611443565b6132b9565b602080601f8311600114614ef2575081614eed9392614ee69261063097985f926134ad57505061344b565b5f55613609565b600655565b5f8052601f198316969091907f290decd9548b62a8d60345a988386fc84ba6bc95484008f6362f93160ef3e563925f905b898210614f67575050918391600193614eed9695610630999a10614f4f575b505050811b015f55613609565b01515f1960f88460031b161c191690555f8080614f42565b80600185968294968601518155019501930190614f23565b600780546001600160a01b039283166001600160a01b0319821681179092559091165f80516020615ea88339815191525f80a3565b6001600160a01b03918183161561304157614fce91614a34565b16614fd557565b6040516339e3563760e11b81525f6004820152602490fd5b6001600160e01b039182169082160191908211612efd57565b6001600160e01b039182169082160391908211612efd57565b906106309291815f52608a60205261503960405f20615742565b615042836115ea565b4363ffffffff16916001600160e01b0386169161506a90846150648585614fed565b91615dc2565b506001600160a01b03939050848416156150cd575b5050505f8381527f046491916a0278bc7eb038aba60c896854c99d791b5a890a9ff3ed75cc95e12a60205260409020548116916150bb90613bdf565b835f5260205260405f20541690615883565b6150646150e3936150dd886115ea565b93615006565b5f61507f565b6106309291906001600160a01b039061511390828116158080156151b3575b61513e575b50613bdf565b825f5260205260405f205416615138611e8083613f175f8052608860205260405f2090565b90615883565b61518790855f52608a60205261515660405f20615742565b9061518d575b615179615168876115ea565b916001600160e01b03891690615006565b9063ffffffff431690615dc2565b5061510d565b6151ac615199876115ea565b6151796001600160e01b038a1684614fed565b505061515c565b506001615108565b90615138611e8084613f176151f8611e8083613f176106309b9a9960018060a01b038c8183161591828015615273575b6151fe575b505050613bdf565b94613bdf565b855f52608a60205261521260405f20615742565b9261524d575b8c1615615226575b816151f0565b61517961524692615236876115ea565b926001600160e01b031690615006565b508c615220565b61526c615259876115ea565b6151796001600160e01b03851686614fed565b5050615218565b50808d16156151eb565b908160209103126103db575161054f816103c9565b6001600160a01b03918216815291166020820152604081019190915260806060820181905261054f92910190610519565b3d156152ed573d906152d482610de5565b916152e260405193846108d5565b82523d5f602084013e565b606090565b805160241015612cd35760440190565b908151811015612cd3570160200190565b905f9060609260258251111561546c5761534f615349615343615335856152f2565b516001600160f81b03191690565b60f81c90565b60ff1690565b9060209360205b61537b61536e61533561536884612f37565b88615302565b6001600160f81b03191690565b15158061545b575b15615452576153a361534961534361533561539d85612f37565b89615302565b8186018701516001600160e01b03198581169116146153c55750600501615356565b95509291505061540294506153e26153dc83612f45565b91613e24565b11801590615433575b1561540757506153fc815192613e24565b90615d20565b600191565b61542d6154286153496153436153356154226153fc96612f45565b87615302565b613e24565b92613e24565b5061544c61536e61533561544684612f45565b85615302565b156153eb565b50959350505050565b5061546584613e24565b8110615383565b505050505f9061054f613288565b6001600160a01b0361548b82614c50565b16156146215750565b608e546001600160a01b0316803b156103db5760405180926386bc2be360e01b8252602482016020906020600485015282518091526020604485019301915f5b828110615503575050505091815f81819503925af18015610718576154f65750565b80613b456106309261088b565b8351855287955093810193928101926001016154d4565b90815260208101919091526001600160a01b03909116604082015260600190565b6040516370a0823160e01b8082526001600160a01b037f00000000000000000000000058204a8849bf6a625d56021adfd12ce4a4a3af138116956020959294909390929086818061558f306004830161072c565b03818b5afa9081156107185761445b836155b29388935f9161572b575b50613e3a565b93827f000000000000000000000000000000000000000000000000000000000000000016956040519081528781806155ed306004830161072c565b03818a5afa9283156107185761560d9361445b925f9161570e5750613e3a565b91821596871595866156c1575b508415159687615655575b50506156495f80516020615e8883398151915293604051938493169533918461551a565b0390a291613b9c575090565b909381604051809663a9059cbb60e01b8252815f816156788c8a60048401613074565b03925af1918215610718575f80516020615e8883398151915295615649936156a3575b505093615625565b816156b992903d10610b5257610b4481836108d5565b505f8061569b565b87604051809263a9059cbb60e01b8252815f816156e28b8a60048401613074565b03925af18015610718571561561a5761570790883d8a11610b5257610b4481836108d5565b505f61561a565b61572591508a3d8c1161175d5761174f81836108d5565b5f6155ac565b61572591508b3d8d1161175d5761174f81836108d5565b80548061574f5750505f90565b5f19918183810111612efd575f5260205f2001015460201c90565b8054915f5b83811061579e575050816157835750505f90565b61578f61054f92613059565b905f5260205f20015460201c90565b90928082169080831860011c8201809211612efd57835f5263ffffffff808360205f20015416908616105f146157d75750925b9061576f565b9391506157e390612f29565b906157d1565b9091905f198382098382029182808310920391808303921461587257670de0b6b3a7640000908183101561584f57947faccb18165bd6fe31ae1cf318dc5b51eee0e1ba569b88cd74c1773b91fac1066994950990828211900360ee1b910360121c170290565b6064918660405192630c740aef60e31b8452600484015260248301526044820152fd5b5050670de0b6b3a764000090049150565b91926001600160a01b0380831693919291908116808514801561597f575b6159775785918161592a575b505050826158bb5750505050565b5f80516020615ee88339815191529161590a826151796158f688613f176158f06158eb83613f1761591e9b613bf8565b615742565b94613bf8565b6001600160e01b0394909290851690614fed565b60405193849390923392821691168461551a565b0390a35f808080614144565b61596c8161590a61595686613f176158f06158eb83613f175f80516020615ee88339815191529a613bf8565b6001600160e01b0392615179908a851690615006565b0390a3835f806158ad565b505050505050565b5083156158a1565b615990906115f8565b80546001600160a01b0319169055565b91906040838203126103db5782516001600160401b0381116103db576020916159ca918501613771565b92015190565b929190606084019084526020906060602086015282518091526020608086019301915f5b828110615a08575050505060405f91930152565b835161ffff16855293810193928101926001016159f4565b929192615a3161067b608e54610605565b916040905f604051809563eaa19ab360e01b8252818381615a56878a600484016159d0565b03925af18015610718575f945f91615afb575b5095845194615a7d611e0e86608d54612f53565b5f5b868110615a8f5750505050505050565b80615a9c60019284612cd8565b51615aa78186614fb4565b61ffff615ab76148118489612cd8565b168751917f598baf7bf150ca2f42be9e9f8f55e81d45f5715c3ff22bf46d697fabec7f31d6858060a01b0388169380615af28d339083612fd4565b0390a401615a7f565b9050615b1a9194503d805f833e615b1281836108d5565b8101906159a0565b9390935f615a69565b5f828152600260205260409020546001600160a01b03908116929190615b5b9084615b85575b82169182615b70575b6107f8846115ce565b825f80516020615ec88339815191525f80a490565b615b7981613c11565b60018154019055615b52565b615b8e846115f8565b80546001600160a01b0319169055615ba585613c11565b80545f19019055615b49565b5f818152600260205260409020546001600160a01b03169081615bfc575b615bd8816115ce565b80546001600160a01b03191690555f825f80516020615ec88339815191528280a490565b615c05816115f8565b80546001600160a01b0319169055615c1c82613c11565b80545f19019055615bcf565b5f828152600260205260409020546001600160a01b03908116938082168015159081615c7e575b505050615b5b9084615c6c5782169182615b70576107f8846115ce565b615c7584615987565b615ba585613c11565b81615ccd575b5015615c91578080615c4f565b839085615cb157604051637e27328960e01b815260048101839052602490fd5b61081860405192839263177e802f60e01b845260048401613074565b86811491508115615cff575b8115615ce7575b505f615c84565b9050845f5260046020528260405f205416145f615ce0565b9050855f52600560205260ff615d188360405f20613c2a565b541690615cd9565b929181810391604051946020936020818801016040528652015f5b828110615d485750505050565b8181018401518682018501528301615d3b565b9063ffffffff82549181199060201b169116179055565b908154600160401b8110156108865760018101808455811015612cd357610630925f5260205f20019063ffffffff81511663ffffffff19835416178255602060018060e01b039101511690615d5b565b80549293928015615e5d57615dd9615de491613059565b825f5260205f200190565b9182549263ffffffff91828516928116808411615e4b57879303615e145750615e0d9250615d5b565b60201c9190565b915050615e4691615e32615e26610977565b63ffffffff9093168352565b6001600160e01b0386166020830152615d72565b615e0d565b604051632520601d60e01b8152600490fd5b5090615e8291615e6e615e26610977565b6001600160e01b0385166020830152615d72565b5f919056fea183a623ac9e87a7002f8ccdd81b014fd2212a1a62a3059e097db62cb2df52c98be0079c531659141344cd1fd0a4f28419497f9722a3daafe3b4186f6b6457e0ddf252ad1be2c89b69c2b068fc378daa952ba7f163c4a11628f55a4df523b3ef26abcd0483bf852c577c9beff4daa5920a203234050413150a0aa946fb598bfaa264697066735822122073cd1dd09cbfeaed3ecbfebee4c7698af389f9be4b85f5989c428c0f134f525164736f6c63430008170033",
	"gitCommit": "a01d6255215bfcb619cf77afbe1b70c1c17664ae",
	"history": []
}