{
	"format": "sphinx-sol-ct-artifact-1",
	"merkleRoot": "0xb7149150da4a21f5e44df929622f7bf5f8a6bfee8d83c108f14adc174a50c70d",
	"address": "0xed2a172e16480508d2ebf926b8dea73349afed88",
	"sourceName": "contracts/DefifaDeployer.sol",
	"contractName": "DefifaDeployer",
	"chainId": "0xaa36a7",
	"abi": [
		{
			"inputs": [
				{
					"internalType": "address",
					"name": "_delegateCodeOrigin",
					"type": "address"
				},
				{
					"internalType": "contract IJB721TokenUriResolver",
					"name": "_tokenUriResolver",
					"type": "address"
				},
				{
					"internalType": "contract IDefifaGovernor",
					"name": "_governor",
					"type": "address"
				},
				{
					"internalType": "contract IJBController",
					"name": "_controller",
					"type": "address"
				},
				{
					"internalType": "contract IJBAddressRegistry",
					"name": "_registry",
					"type": "address"
				},
				{
					"internalType": "uint256",
					"name": "_defifaProjectId",
					"type": "uint256"
				},
				{
					"internalType": "uint256",
					"name": "_baseProtocolProjectId",
					"type": "uint256"
				}
			],
			"stateMutability": "nonpayable",
			"type": "constructor"
		},
		{
			"inputs": [],
			"name": "baseProtocolFeeDivisor",
			"outputs": [
				{
					"internalType": "uint256",
					"name": "",
					"type": "uint256"
				}
			],
			"stateMutability": "view",
			"type": "function"
		},
		{
			"inputs": [],
			"name": "baseProtocolProjectId",
			"outputs": [
				{
					"internalType": "uint256",
					"name": "",
					"type": "uint256"
				}
			],
			"stateMutability": "view",
			"type": "function"
		},
		{
			"inputs": [],
			"name": "controller",
			"outputs": [
				{
					"internalType": "contract IJBController",
					"name": "",
					"type": "address"
				}
			],
			"stateMutability": "view",
			"type": "function"
		},
		{
			"inputs": [
				{
					"internalType": "uint256",
					"name": "_gameId",
					"type": "uint256"
				}
			],
			"name": "currentGamePhaseOf",
			"outputs": [
				{
					"internalType": "enum DefifaGamePhase",
					"name": "",
					"type": "uint8"
				}
			],
			"stateMutability": "view",
			"type": "function"
		},
		{
			"inputs": [
				{
					"internalType": "uint256",
					"name": "_gameId",
					"type": "uint256"
				},
				{
					"internalType": "bool",
					"name": "_includeCommitments",
					"type": "bool"
				}
			],
			"name": "currentGamePotOf",
			"outputs": [
				{
					"internalType": "uint256",
					"name": "",
					"type": "uint256"
				},
				{
					"internalType": "address",
					"name": "",
					"type": "address"
				},
				{
					"internalType": "uint256",
					"name": "",
					"type": "uint256"
				}
			],
			"stateMutability": "view",
			"type": "function"
		},
		{
			"inputs": [],
			"name": "defifaFeeDivisor",
			"outputs": [
				{
					"internalType": "uint256",
					"name": "",
					"type": "uint256"
				}
			],
			"stateMutability": "view",
			"type": "function"
		},
		{
			"inputs": [],
			"name": "defifaProjectId",
			"outputs": [
				{
					"internalType": "uint256",
					"name": "",
					"type": "uint256"
				}
			],
			"stateMutability": "view",
			"type": "function"
		},
		{
			"inputs": [],
			"name": "delegateCodeOrigin",
			"outputs": [
				{
					"internalType": "address",
					"name": "",
					"type": "address"
				}
			],
			"stateMutability": "view",
			"type": "function"
		},
		{
			"inputs": [
				{
					"internalType": "uint256",
					"name": "_gameId",
					"type": "uint256"
				}
			],
			"name": "fulfillCommitmentsOf",
			"outputs": [],
			"stateMutability": "nonpayable",
			"type": "function"
		},
		{
			"inputs": [
				{
					"internalType": "uint256",
					"name": "",
					"type": "uint256"
				}
			],
			"name": "fulfilledCommitmentsOf",
			"outputs": [
				{
					"internalType": "uint256",
					"name": "",
					"type": "uint256"
				}
			],
			"stateMutability": "view",
			"type": "function"
		},
		{
			"inputs": [],
			"name": "governor",
			"outputs": [
				{
					"internalType": "contract IDefifaGovernor",
					"name": "",
					"type": "address"
				}
			],
			"stateMutability": "view",
			"type": "function"
		},
		{
			"inputs": [
				{
					"components": [
						{
							"internalType": "string",
							"name": "name",
							"type": "string"
						},
						{
							"internalType": "string",
							"name": "projectUri",
							"type": "string"
						},
						{
							"internalType": "string",
							"name": "contractUri",
							"type": "string"
						},
						{
							"internalType": "string",
							"name": "baseUri",
							"type": "string"
						},
						{
							"components": [
								{
									"internalType": "string",
									"name": "name",
									"type": "string"
								},
								{
									"internalType": "uint80",
									"name": "price",
									"type": "uint80"
								},
								{
									"internalType": "uint16",
									"name": "reservedRate",
									"type": "uint16"
								},
								{
									"internalType": "address",
									"name": "reservedTokenBeneficiary",
									"type": "address"
								},
								{
									"internalType": "bytes32",
									"name": "encodedIPFSUri",
									"type": "bytes32"
								},
								{
									"internalType": "bool",
									"name": "shouldUseReservedTokenBeneficiaryAsDefault",
									"type": "bool"
								}
							],
							"internalType": "struct DefifaTierParams[]",
							"name": "tiers",
							"type": "tuple[]"
						},
						{
							"components": [
								{
									"internalType": "address",
									"name": "token",
									"type": "address"
								},
								{
									"internalType": "uint8",
									"name": "decimals",
									"type": "uint8"
								},
								{
									"internalType": "uint32",
									"name": "currency",
									"type": "uint32"
								}
							],
							"internalType": "struct JBAccountingContext",
							"name": "token",
							"type": "tuple"
						},
						{
							"internalType": "uint24",
							"name": "mintPeriodDuration",
							"type": "uint24"
						},
						{
							"internalType": "uint24",
							"name": "refundPeriodDuration",
							"type": "uint24"
						},
						{
							"internalType": "uint48",
							"name": "start",
							"type": "uint48"
						},
						{
							"components": [
								{
									"internalType": "uint32",
									"name": "percent",
									"type": "uint32"
								},
								{
									"internalType": "uint64",
									"name": "projectId",
									"type": "uint64"
								},
								{
									"internalType": "address payable",
									"name": "beneficiary",
									"type": "address"
								},
								{
									"internalType": "bool",
									"name": "preferAddToBalance",
									"type": "bool"
								},
								{
									"internalType": "uint48",
									"name": "lockedUntil",
									"type": "uint48"
								},
								{
									"internalType": "contract IJBSplitHook",
									"name": "hook",
									"type": "address"
								}
							],
							"internalType": "struct JBSplit[]",
							"name": "splits",
							"type": "tuple[]"
						},
						{
							"internalType": "uint256",
							"name": "attestationStartTime",
							"type": "uint256"
						},
						{
							"internalType": "uint256",
							"name": "attestationGracePeriod",
							"type": "uint256"
						},
						{
							"internalType": "address",
							"name": "defaultAttestationDelegate",
							"type": "address"
						},
						{
							"internalType": "contract IJB721TokenUriResolver",
							"name": "defaultTokenUriResolver",
							"type": "address"
						},
						{
							"internalType": "contract IJBTerminal",
							"name": "terminal",
							"type": "address"
						},
						{
							"internalType": "contract IJB721TiersHookStore",
							"name": "store",
							"type": "address"
						}
					],
					"internalType": "struct DefifaLaunchProjectData",
					"name": "_launchProjectData",
					"type": "tuple"
				}
			],
			"name": "launchGameWith",
			"outputs": [
				{
					"internalType": "uint256",
					"name": "gameId",
					"type": "uint256"
				}
			],
			"stateMutability": "nonpayable",
			"type": "function"
		},
		{
			"inputs": [
				{
					"internalType": "uint256",
					"name": "_gameId",
					"type": "uint256"
				}
			],
			"name": "nextPhaseNeedsQueueing",
			"outputs": [
				{
					"internalType": "bool",
					"name": "",
					"type": "bool"
				}
			],
			"stateMutability": "view",
			"type": "function"
		},
		{
			"inputs": [
				{
					"internalType": "address",
					"name": "",
					"type": "address"
				},
				{
					"internalType": "address",
					"name": "",
					"type": "address"
				},
				{
					"internalType": "uint256",
					"name": "",
					"type": "uint256"
				},
				{
					"internalType": "bytes",
					"name": "",
					"type": "bytes"
				}
			],
			"name": "onERC721Received",
			"outputs": [
				{
					"internalType": "bytes4",
					"name": "",
					"type": "bytes4"
				}
			],
			"stateMutability": "pure",
			"type": "function"
		},
		{
			"inputs": [],
			"name": "registry",
			"outputs": [
				{
					"internalType": "contract IJBAddressRegistry",
					"name": "",
					"type": "address"
				}
			],
			"stateMutability": "view",
			"type": "function"
		},
		{
			"inputs": [],
			"name": "splitGroup",
			"outputs": [
				{
					"internalType": "uint256",
					"name": "",
					"type": "uint256"
				}
			],
			"stateMutability": "view",
			"type": "function"
		},
		{
			"inputs": [
				{
					"internalType": "uint256",
					"name": "_gameId",
					"type": "uint256"
				}
			],
			"name": "timesFor",
			"outputs": [
				{
					"internalType": "uint48",
					"name": "",
					"type": "uint48"
				},
				{
					"internalType": "uint24",
					"name": "",
					"type": "uint24"
				},
				{
					"internalType": "uint24",
					"name": "",
					"type": "uint24"
				}
			],
			"stateMutability": "view",
			"type": "function"
		},
		{
			"inputs": [
				{
					"internalType": "uint256",
					"name": "_gameId",
					"type": "uint256"
				}
			],
			"name": "tokenOf",
			"outputs": [
				{
					"internalType": "address",
					"name": "",
					"type": "address"
				}
			],
			"stateMutability": "view",
			"type": "function"
		},
		{
			"inputs": [],
			"name": "tokenUriResolver",
			"outputs": [
				{
					"internalType": "contract IJB721TokenUriResolver",
					"name": "",
					"type": "address"
				}
			],
			"stateMutability": "view",
			"type": "function"
		},
		{
			"anonymous": false,
			"inputs": [
				{
					"components": [
						{
							"internalType": "uint32",
							"name": "percent",
							"type": "uint32"
						},
						{
							"internalType": "uint64",
							"name": "projectId",
							"type": "uint64"
						},
						{
							"internalType": "address payable",
							"name": "beneficiary",
							"type": "address"
						},
						{
							"internalType": "bool",
							"name": "preferAddToBalance",
							"type": "bool"
						},
						{
							"internalType": "uint48",
							"name": "lockedUntil",
							"type": "uint48"
						},
						{
							"internalType": "contract IJBSplitHook",
							"name": "hook",
							"type": "address"
						}
					],
					"indexed": false,
					"internalType": "struct JBSplit",
					"name": "split",
					"type": "tuple"
				},
				{
					"indexed": false,
					"internalType": "uint256",
					"name": "amount",
					"type": "uint256"
				},
				{
					"indexed": false,
					"internalType": "address",
					"name": "caller",
					"type": "address"
				}
			],
			"name": "DistributeToSplit",
			"type": "event"
		},
		{
			"anonymous": false,
			"inputs": [
				{
					"indexed": true,
					"internalType": "uint256",
					"name": "gameId",
					"type": "uint256"
				},
				{
					"indexed": false,
					"internalType": "uint256",
					"name": "pot",
					"type": "uint256"
				},
				{
					"indexed": false,
					"internalType": "address",
					"name": "caller",
					"type": "address"
				}
			],
			"name": "FulfilledCommitments",
			"type": "event"
		},
		{
			"anonymous": false,
			"inputs": [
				{
					"indexed": true,
					"internalType": "uint256",
					"name": "gameId",
					"type": "uint256"
				},
				{
					"indexed": true,
					"internalType": "contract IDefifaDelegate",
					"name": "delegate",
					"type": "address"
				},
				{
					"indexed": true,
					"internalType": "contract IDefifaGovernor",
					"name": "governor",
					"type": "address"
				},
				{
					"indexed": false,
					"internalType": "contract IJB721TokenUriResolver",
					"name": "tokenUriResolver",
					"type": "address"
				},
				{
					"indexed": false,
					"internalType": "address",
					"name": "caller",
					"type": "address"
				}
			],
			"name": "LaunchGame",
			"type": "event"
		},
		{
			"anonymous": false,
			"inputs": [
				{
					"indexed": true,
					"internalType": "uint256",
					"name": "gameId",
					"type": "uint256"
				},
				{
					"indexed": false,
					"internalType": "address",
					"name": "caller",
					"type": "address"
				}
			],
			"name": "QueuedNoContest",
			"type": "event"
		},
		{
			"anonymous": false,
			"inputs": [
				{
					"indexed": true,
					"internalType": "uint256",
					"name": "gameId",
					"type": "uint256"
				},
				{
					"indexed": false,
					"internalType": "address",
					"name": "caller",
					"type": "address"
				}
			],
			"name": "QueuedRefundPhase",
			"type": "event"
		},
		{
			"anonymous": false,
			"inputs": [
				{
					"indexed": true,
					"internalType": "uint256",
					"name": "gameId",
					"type": "uint256"
				},
				{
					"indexed": false,
					"internalType": "address",
					"name": "caller",
					"type": "address"
				}
			],
			"name": "QueuedScoringPhase",
			"type": "event"
		},
		{
			"inputs": [],
			"name": "CANT_FULFILL_YET",
			"type": "error"
		},
		{
			"inputs": [],
			"name": "FailedDeployment",
			"type": "error"
		},
		{
			"inputs": [],
			"name": "GAME_OVER",
			"type": "error"
		},
		{
			"inputs": [],
			"name": "INCORRECT_DECIMAL_AMOUNT",
			"type": "error"
		},
		{
			"inputs": [],
			"name": "INVALID_FEE_PERCENT",
			"type": "error"
		},
		{
			"inputs": [],
			"name": "INVALID_GAME_CONFIGURATION",
			"type": "error"
		},
		{
			"inputs": [
				{
					"internalType": "uint256",
					"name": "balance",
					"type": "uint256"
				},
				{
					"internalType": "uint256",
					"name": "needed",
					"type": "uint256"
				}
			],
			"name": "InsufficientBalance",
			"type": "error"
		},
		{
			"inputs": [],
			"name": "PHASE_ALREADY_QUEUED",
			"type": "error"
		},
		{
			"inputs": [],
			"name": "SPLITS_DONT_ADD_UP",
			"type": "error"
		},
		{
			"inputs": [],
			"name": "TERMINAL_NOT_FOUND",
			"type": "error"
		},
		{
			"inputs": [],
			"name": "UNEXPECTED_TERMINAL_CURRENCY",
			"type": "error"
		}
	],
	"args": [],
	"solcInputHash": "e66434ef07bfb2e8f4105cb7c779518c",
	"bytecode": "0x61018034620001a657601f62003d8338819003918201601f19168301916001600160401b03831184841017620001aa5780849260e094604052833981010312620001a65780516001600160a01b038082168203620001a6576020830151928184168403620001a6576040810151928284168403620001a6576060820151918383168303620001a65760808101519384168403620001a65760c060a0820151910151916014600355601460045560e05261010095865261012094855261014092835261016093845260a05260c0523060805260405192613bc49485620001bf8639608051858181610561015261225e015260a0518581816115f3015281816121ed0152818161230b0152612959015260c0518581816115660152612921015260e051858181610d6d01526128db0152518481816101b90152611ff201525183818161187e01526128540152518281816101080152818161025d015281816105b601528181610b7b01528181610f2d01528181611833015281816122ad01528181612e32015281816134f90152818161359e01526138bc01525181818161078701526119200152f35b5f80fd5b634e487b7160e01b5f52604160045260245ffdfe60a0806040526004361015610012575f80fd5b5f6080525f3560e01c9081630134a03d14612944575080630549cb321461290a57806306b552b5146128c65780630715610a146128835780630c340a241461283f578063150b7a02146127ca5780632b8ddaf1146127ad578063721d8329146107d55780637990b35f146107b65780637b1039991461077057806381312a1414610584578063859bb4b214610548578063b07925d3146104cb578063b4dfb0861461020a578063b6674cde146101e8578063e131fc0c146101a2578063ea78803f1461016b578063f2ae5f6e1461013d5763f77c4791146100f1575f80fd5b3461013757608051366003190112610137576040517f00000000000000000000000000000000000000000000000000000000000000006001600160a01b03168152602090f35b60805180fd5b3461013757602036600319011261013757600435608051526005602052602060406080512054604051908152f35b346101375760203660031901126101375760043560805152608051602052602060018060a01b036040608051205416604051908152f35b3461013757608051366003190112610137576040517f00000000000000000000000000000000000000000000000000000000000000006001600160a01b03168152602090f35b34610137576020366003190112610137576102046004356134c4565b60805180f35b346101375760403660031901126101375760043560243580151581036103d95781608051526020608051815260018060a01b0392836040608051205416906040516388bc2ef360e01b81528381600481897f0000000000000000000000000000000000000000000000000000000000000000165afa9081156103e457608051916104ae575b50836040518092630862026560e41b82528189816102b189896004840161311b565b0392165afa80156103e457869160805191610491575b50604051633a01714f60e01b8152929116606083806102ea87866004840161311b565b0381845afa9283156103e45760805193610423575b5060405163507f146560e01b8152908582600481845afa9081156103e4578692608051926103f1575b50606490604051998a93849263467f4cb960e01b8452600484015286602484015261eeee6044840152165afa9081156103e457608051916103b0575b606096508195610389575b50508260ff91015116916040519384528301526040820152f35b60ff92955084916103a99160805152600583526040608051205490612f6a565b949161036f565b90508386813d83116103dd575b6103c78183612a7e565b810103126103d9576060955190610364565b5f80fd5b503d6103bd565b6040513d608051823e3d90fd5b606491925061041590843d861161041c575b61040d8183612a7e565b8101906130c9565b9190610328565b503d610403565b9092506060813d606011610489575b8161043f60609383612a7e565b810103126101375760405190610454826129ab565b61045d81612c66565b82528581015160ff81168103610137578287015261047d90604001612b6d565b604082015291876102ff565b3d9150610432565b6104a89150853d871161041c5761040d8183612a7e565b876102c7565b6104c59150843d861161041c5761040d8183612a7e565b8661028f565b346101375760203660031901126101375760043560805152608051602052606060406080512081604051916104ff836129c6565b5460018060a01b038116835265ffffffffffff8160a01c169283602082015262ffffff8260d01c169182604083015260e81c928391015260405192835260208301526040820152f35b34610137576080513660031901126101375760206040517f00000000000000000000000000000000000000000000000000000000000000008152f35b34610137576020806003193601126101375760405163d4a1b4b160e01b808252906001600160a01b03906004803591907f00000000000000000000000000000000000000000000000000000000000000008416908690839081845afa80156103e457849260805191610753575b50604051906321d1336160e11b825284600483015281602481610120988994165afa9586156103e457879160805197610717575b5060046040518094819382525afa9081156103e457608051916106fa575b506040519263855a54ed60e01b8452600484015282602481610140948594165afa9283156103e457608051936106b4575b5050508263ffffffff60808401511615159283610697575b506040518315158152f35b81015191015165ffffffffffff908116911614905082828161068c565b90809293503d83116106f3575b6106cb8185612a7e565b83019183830312610137576106e260069284612b7e565b920151101561013757838080610674565b503d6106c1565b6107119150863d881161041c5761040d8183612a7e565b86610643565b91509550843d861161074c575b61072e8183612a7e565b810190858183031261013757879161074591612b7e565b9588610625565b503d610724565b61076a9150873d891161041c5761040d8183612a7e565b876105f1565b3461013757608051366003190112610137576040517f00000000000000000000000000000000000000000000000000000000000000006001600160a01b03168152602090f35b3461013757608051366003190112610137576020600454604051908152f35b346103d95760203660031901126103d9576001600160401b03600435116103d957610240600435360360031901126103d95760405161020081016001600160401b03811182821017612799576040526004803501356001600160401b0381116103d957610849906004369181350101612abc565b8152600435602401356001600160401b0381116103d957610871906004369181350101612abc565b6020820152600435604401356001600160401b0381116103d95761089c906004369181350101612abc565b60408201526001600160401b0360043560640135116103d9576108c9366004803560648101350101612abc565b6060820152600435608401356001600160401b0381116103d95736602382600435010112156103d9576109026004828135010135612b02565b906109106040519283612a7e565b600480358201908101358084526020840192913660059290921b01602401116103d9576024816004350101915b6004803583019081013560051b0160240183106126aa5750505060808201526060600435360360a31901126103d957604051610978816129ab565b61098660a46004350161297c565b815260c4600435013560ff811681036103d95760208201526109ac60e460043501612b26565b604082015260a08201526109c561010460043501612b37565b60c08201526109d961012460043501612b37565b60e08201526109ed61014460043501612b47565b61010082015260043561016401356001600160401b0381116103d95760043501366023820112156103d957600481013590610a2782612b02565b91610a356040519384612a7e565b808352602083019136602460c08402830101116103d9579160248301925b602460c08402820101841061260357858561012082015261018460043501356101408201526101a46004350135610160820152610a956101c46004350161297c565b6101808201526004356101e401356001600160a01b03811690036103d9576004356101e48101356101a083015261020401356001600160a01b03811690036103d9576004356102048101356101c083015261022401356001600160a01b03811690036103d95760043561022401356101e082015261010081015165ffffffffffff1680612596575065ffffffffffff610b4862ffffff610b3b8160c08601511642612f6a565b9060e08501511690612f6a565b166101008201525b62ffffff60c08201511615801561255b575b6125495760405163293c499960e01b81526020816004817f00000000000000000000000000000000000000000000000000000000000000006001600160a01b03165afa908115612395575f91612506575b506040516306661abd60e01b815290602090829060049082906001600160a01b03165afa908115612395575f916124d4575b50600181018111611b1b5760018060a01b0360a0830151511662ffffff60c08401511662ffffff60e08501511665ffffffffffff6101008601511660405193610c2d856129c6565b8452602084019081526040840192835260608401918252600185015f525f60205260405f209360018060a01b039051169065ffffffffffff60a01b905160a01b169262ffffff60d01b905160d01b169162ffffff60e81b905160e81b1692171717905561012082015151806121a6575b5060808201515191610cae83612b02565b610cbb6040519182612a7e565b838152610cc784612b02565b6080515b601f198201811061211957505060808201515193610d01610ceb86612b02565b95610cf96040519788612a7e565b808752612b02565b6080515b601f1982018110612108575050604051610d1e81612990565b60608152608051602082015260805160408201526080516060820152608051608082015260a0608051910152608051506080515b8181106120295750506e5af43d82803e903d91602b57fd5bf37f0000000000000000000000000000000000000000000000000000000000000000763d602d80600a3d3981f3363d3d373d3d3d363d7300000062ffffff8260881c16176080515260781b1760205260018060a01b0360376009608051f016908115612017576101a08301516001600160a01b03168015611fef57945b8351608051909290600187018072184f03e93ff9f4daa797ed6e38ed64bf6a1f0160401b80821015611fde575b506904ee2d6d415b85acef8160201b80821015611fd1575b50662386f26fc1000080821015611fc4575b506305f5e10080821015611fb7575b5061271080821015611faa575b506064811015611f9c575b600a80911015611f92575b6001830191816021610e9a610e8486612aa1565b95610e926040519788612a7e565b808752612aa1565b602086019690601f19013688378501015b5f1901916f181899199a1a9b1b9c1cb0b131b232b360811b8282061a835304908115610ed8578290610eab565b5050506028610f1891610f089360405194859267444546494641202360c01b6020850152518092858501906130a8565b8101036008810184520182612a7e565b60405163d4a1b4b160e01b81526020816004817f00000000000000000000000000000000000000000000000000000000000000006001600160a01b03165afa9081156103e45760805191611f73575b506060870151604088015163ffffffff604060a08b01510151169160018060a01b036101e08b0151169360018060a01b036101808c015116958a3b156101375760405163114c4d6960e21b815260018e0160048201526101c0602482015299610fd5906101c48c01906130e8565b8a81036003190160448c0152610fea916130e8565b6001600160a01b0390911660648a01528881036003190160848a015261100f916130e8565b6001600160a01b038c1660a48901528781036003190160c4890152611033916130e8565b6003198782030160e488015284519081815260200194602001906080515b818110611e98575050506101048601526101248501523061014485015230610164850152610184840152600319838203016101a4840152815180825260208201916020808360051b830101940192608051915b838310611e6b5750505050508180608051920381608051865af180156103e457611e55575b506040516110d6816129e1565b600181526080515b60208110611e26575060a08301516110f582612fec565b526110ff81612fec565b506040519061110d826129e1565b600182526080515b60208110611e0f57506101c084015160405191906001600160a01b031661113b836129e1565b8252602082015261114b82612fec565b5261115581612fec565b5060e083015162ffffff161580159190611e07576003915b61117960ff8416612b02565b926111876040519485612a7e565b60ff16808452601f199061119a90612b02565b015f5b818110611d3a5750506111da6111ca65ffffffffffff6101008801511662ffffff60c08901511690613b52565b62ffffff60e08801511690613b52565b62ffffff60c08701511663ffffffff604060a089015101511661ffff611216604051611205816129e1565b608051815260016020820152613b6a565b166040519161122483612a2b565b6080518352608051602084015260408301526080516060830152608051608083015260805160a083015260805160c083015260805160e08301526080516101008301526080516101208301526080516101408301526080516101608301526080516101808301526080516101a08301526080516101c083015260016101e0830152600161020083015287610220830152610240820152604051906112c782612a63565b5f8252604051926112d784612a63565b5f845265ffffffffffff604051956112ee87612a47565b168552602085015260805160408501526080516060850152608051608085015260a084015260c083015260e082015261132684612fec565b5261133083612fec565b50600190611bcb575b60405190611346826129e1565b600182525f5b60208110611ba8575063ffffffff604060a088015101511660405190611371826129e1565b6001600160e01b038252602082015261138983612fec565b5261139382612fec565b50604051916113a1836129e1565b600183525f5b60208110611b7857506101c087015160a0880151516040516001600160a01b039283169390929091166113d983612a63565b5f8352604051936113e9856129c6565b845260208401526040830152606082015261140383612fec565b5261140d82612fec565b5065ffffffffffff6101008701511663ffffffff604060a08901510151169261ffff61145060405161143e816129e1565b60805181526080516020820152613b6a565b166040519461145e86612a2b565b60805186526080516020870152604086015260016060860152608051608086015260805160a086015260805160c086015260805160e086015260805161010086015260805161012086015260805161014086015260805161016086015260016101808601526080516101a08601526080516101c086015260016101e086015260016102008601528761022086015261024085015260018060a01b0360a08901515116936101208901519081519560805150608051600388018811611b03579261152960038901612f77565b608051909490915b898310611b2f57506115ce91506115c86003548d63ffffffff61155383613031565b16906040519161156283612990565b82527f00000000000000000000000000000000000000000000000000000000000000006001600160401b0316602083015260408201526080805160608301528051818301525160a08201526115b78c8961301d565b526115c28b8861301d565b50613031565b90612f6a565b6004549063ffffffff6115e083613031565b1691604051926115ef84612990565b83527f00000000000000000000000000000000000000000000000000000000000000006001600160401b03166020840152604083018d90526080805160608501528051818501525160a084015260018a0190818b11611b03576115c2826116649561165d6115c8958b61301d565b528861301d565b96633b9aca00978881810311611b1b5763ffffffff90604051996116878b612990565b031688526001808e016001600160401b031660208a01526080805160408b015260608a01919091528051818a01525160a0890152600281018111611b0357906116ee6002836117aa9c9b9a6116e6836117799c9b9a999897018861301d565b52018461301d565b506116f761306d565b9260405191611705836129e1565b8252602082015261171583612fec565b5261171f82612fec565b506040519361172d85612a47565b8452608051602085015260805160408501526080516060850152608051608085015260a084015260c083015260e08201526117678261310d565b50611772828661301d565b528361301d565b506117bc602086015192604051948594635c7465e560e01b865230600487015260a0602487015260a48601906130e8565b84810360031901604486015290613181565b600319838203016064840152815180825260208201916020808360051b830101940192608051915b838310611a6757505050505090604082752630bab731b434b733902232b334b3309033b0b6b29760511b6020848196039260031984016084870152601681520152018160805160018060a01b037f0000000000000000000000000000000000000000000000000000000000000000165af19081156103e45760805191611a35575b506001840103611a1d57610140820151610160909201517f00000000000000000000000000000000000000000000000000000000000000006001600160a01b03169290833b156101375760405163c543882f60e01b8152600186016004820152602481019290925260448201526080518160648183875af180156103e457611a07575b50803b156101375760405163f2fde38b60e01b8152600481018390526080518160248183865af180156103e4576119f1575b506001547f00000000000000000000000000000000000000000000000000000000000000006001600160a01b0316906119529061310d565b9081600155803b15610137576040519163b94417ab60e01b835230600484015260248301528160448160805193608051905af180156103e4576119db575b506020936040519060018060a01b0316815233858201527f3082991f3dda023098e5849ea3903c6fbfd657dc6f9232f5eb81ad8a7ba161d660406001860192a4600160405191018152f35b6119e4906129fc565b6080516101375784611990565b6119fa906129fc565b608051610137578461191a565b611a10906129fc565b60805161013757846118e8565b634e487b7160e01b6080515260016004526024608051fd5b90506020813d602011611a5f575b81611a5060209383612a7e565b810103126103d9575185611865565b3d9150611a43565b919395509193601f1982820301835285516020606081604085019360018060a01b038151168652015193604083820152845180945201920190608051905b808210611ac757505050602080600192970193019301909286959492936117e4565b9091926020606060019263ffffffff60408851868060a01b03815116845260ff8682015116868501520151166040820152019401920190611aa5565b634e487b7160e01b6080515260116004526024608051fd5b634e487b7160e01b5f52601160045260245ffd5b90611b6f600191611b40858561301d565b51611b4b868a61301d565b52611b56858961301d565b5063ffffffff611b66868661301d565b51511690612f6a565b92019190611531565b602090604051611b87816129c6565b5f81525f8382015260606040820152606080820152828287010152016113a7565b602090604051611bb7816129e1565b5f81525f838201528282860101520161134c565b50611bed65ffffffffffff6101008601511662ffffff60e08701511690613b52565b62ffffff60e08601511663ffffffff604060a088015101511661ffff611c18604051611205816129e1565b1660405191611c2683612a2b565b60805183526080516020840152604083015260016060830152608051608083015260805160a083015260805160c083015260805160e08301526080516101008301526080516101208301526080516101408301526080516101608301526080516101808301526080516101a08301526080516101c083015260016101e083015260016102008301528661022083015261024082015260405190611cc882612a63565b5f825260405192611cd884612a63565b5f845265ffffffffffff60405195611cef87612a47565b168552602085015260805160408501526080516060850152608051608085015260a084015260c083015260e0820152600290611d2a8461300d565b52611d348361300d565b50611339565b602090604051611d4981612a47565b5f81525f838201525f60408201525f60608201525f6080820152604051611d6f81612a2b565b5f81525f848201525f60408201525f60608201525f60808201525f60a08201525f60c08201525f60e08201525f6101008201525f6101208201525f6101408201525f6101608201525f6101808201525f6101a08201525f6101c08201525f6101e08201525f6102008201525f6102208201525f61024082015260a0820152606060c0820152606060e08201528282880101520161119d565b60029161116d565b602090611e1a613054565b82828601015201611115565b602090604051611e35816129ab565b6080518152608051838201526080516040820152828285010152016110de565b611e5e906129fc565b60805161013757846110c9565b9091929394602080611e89600193601f1986820301875289516130e8565b970193019301919392906110a4565b90919560206101c06001926101a08a51858060681b03815116835263ffffffff85820151168584015263ffffffff604082015116604084015261ffff6060820151166060840152858060a01b03608082015116608084015260a081015160a084015262ffffff60c08201511660c084015260ff60e08201511660e084015261010081015115156101008401526101208101511515610120840152610140810151151561014084015261016081015115156101608401526101808101511515610180840152015115156101a08201520197019101919091611051565b611f8c915060203d60201161041c5761040d8183612a7e565b89610f67565b9160010191610e70565b606460029104920191610e65565b600491049201918a610e5a565b600891049201918a610e4d565b601091049201918a610e3e565b602091049201918a610e2c565b6040935060018a010490508a610e14565b507f000000000000000000000000000000000000000000000000000000000000000094610de7565b60405163b06ebf3d60e01b8152600490fd5b8061203a600192608087015161301d565b51828060501b0360208201511661ffff604083015116848060a01b0360608401511660808401519060a08501511515926040519461207786612a0f565b8552633b9ac9ff60208601528760408601526060850152608084015260a083015260805160c083015260805160e08301526080516101008301526101208201526080516101408201528361016082015283610180820152836101a08201526120df838761301d565b526120ea828661301d565b50516120f6828961301d565b52612101818861301d565b5001610d52565b806060602080938a01015201610d05565b60209060405161212881612a0f565b60805181526080518382015260805160408201526080516060820152608051608082015260805160a082015260805160c082015260805160e08201526080516101008201526080516101208201526080516101408201526080516101608201526080516101808201526080516101a082015282828601015201610ccb565b600181018111611b1b576121bc60018201612f77565b905f5b8181106124a557506122459063ffffffff6121db600454613031565b16604051906121e982612990565b81527f00000000000000000000000000000000000000000000000000000000000000006001600160401b031660208201523060408201525f606082018190526080820181905260a082015261223e828561301d565b528261301d565b5061224e61306d565b906040519061225c826129e1565b7f00000000000000000000000000000000000000000000000000000000000000008252602082015261228d82612fec565b5261229781612fec565b50604051631f47ce6960e01b81526020816004817f00000000000000000000000000000000000000000000000000000000000000006001600160a01b03165afa908115612395575f91612463575b506001600160a01b0381163b156103d9576040518092638a36dffd60e01b8252606482017f000000000000000000000000000000000000000000000000000000000000000060048401526001860160248401526060604484015281518091526084830190602060848260051b8601019301915f905b8282106123a0575050505091815f818195039260018060a01b03165af180156123955715610c9d5761238b906129fc565b5f60805282610c9d565b6040513d5f823e3d90fd5b919390929450608319878203018252845160206060816040850193805186520151936040838201528451809452019201905f905b8082106123f457505050602080600192960192019201869493919261235a565b909192602060c0600192865163ffffffff8151168252848060401b03848201511684830152848060a01b03604082015116604083015260608101511515606083015265ffffffffffff608082015116608083015260a08580821b039101511660a08201520194019201906123d4565b90506020813d60201161249d575b8161247e60209383612a7e565b810103126103d957516001600160a01b03811681036103d957846122e5565b3d9150612471565b806124b760019261012088015161301d565b516124c2828661301d565b526124cd818561301d565b50016121bf565b90506020813d6020116124fe575b816124ef60209383612a7e565b810103126103d9575182610be5565b3d91506124e2565b90506020813d602011612541575b8161252160209383612a7e565b810103126103d957516001600160a01b03811681036103d9576020610bb3565b3d9150612514565b604051633a7c40a160e11b8152600490fd5b5065ffffffffffff6101008201511661259061258062ffffff60e08501511642612f6a565b62ffffff60c08501511690612f6a565b11610b62565b62ffffff60c0830151161590816125e7575b5015610b505765ffffffffffff610100820151166125cf62ffffff60e08401511642612f6a565b8103908111611b1b5762ffffff1660c0820152610b50565b90506125fc62ffffff60e08401511642612f6a565b10826125a8565b60c0843603126103d95760405161261981612990565b61262285612b26565b815260208501356001600160401b03811681036103d95760208201526001600160a01b03604086013581811681036103d957604083015261266560608701612b19565b606083015261267660808701612b47565b608083015260a086013590811690036103d95760c06020602494829360a089013560a0820152815201950194925050610a53565b82356001600160401b0381116103d95760c060043584018201360360231901126103d957604051916126db83612990565b60043584018201602401356001600160401b0381116103d95761270a9060243691858860043501010101612abc565b835260043584018201604401356001600160501b03811681036103d9576020840152600435840182016064013561ffff811690036103d95760209261278960c484606487968960043501010135604085015261276e6084828a60043501010161297c565b606085015260043588010160a4810135608085015201612b19565b60a082015281520192019161093d565b634e487b7160e01b5f52604160045260245ffd5b346103d9575f3660031901126103d9576020600354604051908152f35b346103d95760803660031901126103d9576001600160a01b03600435818116036103d957602435908116036103d9576064356001600160401b038082116103d957366023830112156103d95781600401359081116103d957369101602401116103d957604051630a85bd0160e11b8152602090f35b346103d9575f3660031901126103d9576040517f00000000000000000000000000000000000000000000000000000000000000006001600160a01b03168152602090f35b346103d95760203660031901126103d95761289f600435612e0b565b60405160078210156128b2576020918152f35b634e487b7160e01b5f52602160045260245ffd5b346103d9575f3660031901126103d9576040517f00000000000000000000000000000000000000000000000000000000000000006001600160a01b03168152602090f35b346103d9575f3660031901126103d95760206040517f00000000000000000000000000000000000000000000000000000000000000008152f35b346103d9575f3660031901126103d9576020907f00000000000000000000000000000000000000000000000000000000000000008152f35b35906001600160a01b03821682036103d957565b60c081019081106001600160401b0382111761279957604052565b606081019081106001600160401b0382111761279957604052565b608081019081106001600160401b0382111761279957604052565b604081019081106001600160401b0382111761279957604052565b6001600160401b03811161279957604052565b6101c081019081106001600160401b0382111761279957604052565b61026081019081106001600160401b0382111761279957604052565b61010081019081106001600160401b0382111761279957604052565b602081019081106001600160401b0382111761279957604052565b601f909101601f19168101906001600160401b0382119082101761279957604052565b6001600160401b03811161279957601f01601f191660200190565b81601f820112156103d957803590612ad382612aa1565b92612ae16040519485612a7e565b828452602083830101116103d957815f926020809301838601378301015290565b6001600160401b0381116127995760051b60200190565b359081151582036103d957565b359063ffffffff821682036103d957565b359062ffffff821682036103d957565b359065ffffffffffff821682036103d957565b519065ffffffffffff821682036103d957565b519063ffffffff821682036103d957565b80929161012091829103126103d9576040519081016001600160401b03811182821017612799576040528092612bb381612b5a565b8252612bc160208201612b5a565b6020830152612bd260408201612b5a565b6040830152612be360608201612b5a565b6060830152612bf460808201612b6d565b608083015260a08101516001600160701b03811681036103d95760a0830152612c1f60c08201612b6d565b60c083015260e08101516001600160a01b03811681036103d95760e083015261010080910151910152565b519061ffff821682036103d957565b519081151582036103d957565b51906001600160a01b03821682036103d957565b91908281039061038082126103d957612c939084612b7e565b9261012090610260809361011f1901126103d95760405192612cb484612a2b565b612cbf828401612c4a565b8452610140612ccf838201612c4a565b6020860152610160612ce2848201612b6d565b6040870152610180612cf5858201612c59565b60608801526101a0612d08868201612c59565b60808901526101c091612d1c878401612c59565b60a08a01526101e093612d30888601612c59565b60c08b015261020095612d44898801612c59565b60e08c015261022097612d588a8a01612c59565b6101008d01526102409a612d6d8b8d01612c59565b908d01528901612d7c90612c59565b908b0152612d8d6102808901612c59565b908a0152612d9e6102a08801612c59565b90890152612daf6102c08701612c59565b90880152612dc06102e08601612c59565b90870152612dd16103008501612c59565b90860152612de26103208401612c59565b90850152612df36103408301612c66565b9084015261036001612e0490612c4a565b9082015290565b6040516320c94b1360e11b8152600481018290526001600160a01b039161038080836024817f000000000000000000000000000000000000000000000000000000000000000088165afa928315612395575f915f94612f34575b50505165ffffffffffff168015612f2c5760018114612f23576002149081612f0b575b50612f0457610220015160405163d3fef14360e01b81529160209183916004918391165afa908115612395575f91612eca575b50612ec557600390565b600490565b90506020813d602011612efc575b81612ee560209383612a7e565b810103126103d957612ef690612c59565b5f612ebb565b3d9150612ed8565b5050600290565b90505f525f60205260405f205460e81c15155f612e88565b50505050600190565b505050505f90565b65ffffffffffff9450612f5c9250803d10612f63575b612f548183612a7e565b810190612c7a565b925f612e65565b503d612f4a565b91908201809211611b1b57565b90612f8182612b02565b604090612f916040519182612a7e565b8381528093612fa2601f1991612b02565b01915f5b838110612fb35750505050565b6020908251612fc181612990565b5f8152825f818301525f858301525f60608301525f60808301525f60a0830152828601015201612fa6565b805115612ff95760200190565b634e487b7160e01b5f52603260045260245ffd5b805160011015612ff95760400190565b8051821015612ff95760209160051b010190565b801561304057633b9aca000490565b634e487b7160e01b5f52601260045260245ffd5b60405190613061826129e1565b60606020835f81520152565b6040519061307a826129e1565b60018252815f5b602090818110156130a357602091613097613054565b90828501015201613081565b505050565b5f5b8381106130b95750505f910152565b81810151838201526020016130aa565b908160209103126103d957516001600160a01b03811681036103d95790565b90602091613101815180928185528580860191016130a8565b601f01601f1916010190565b5f198114611b1b5760010190565b9081526001600160a01b03909116602082015260400190565b9081518082526020808093019301915f5b828110613153575050505090565b835180516001600160e01b0316865282015163ffffffff168583015260409094019392810192600101613145565b9080602083519182815201916020808360051b8301019401925f915b8383106131ac57505050505090565b9091929394601f19828203018352855165ffffffffffff815116825263ffffffff602082015116602083015260018060701b03604082015116604083015263ffffffff6060820151166060830152608081015160018060a01b0316608083015261ffff60a08201518181511660a08501528160208201511660c085015263ffffffff60408201511660e08501526060810151906101009115158286015260808101516101209015158187015260a0820151926101409315158488015260c08301516101609015158189015260e084015191610180921515838a0152840151926101a0931515848a0152840151946101c0951515868a0152840151906101e0911515828a015284015191610200921515838a015284015192610220931515848a015284015194610240951515868a01528401511515610260890152830151151561028088015282015115156102a087015260018060a01b0390820151166102c08601520151166102e083015260c0810151906103406103008401528151806103408501526103606020818601918360051b8701019401915f5b818110613404575050505060e0015191610320818303910152815180825260208201906020808260051b8501019401925f5b8281106133975750505050506020806001929701930193019193929061319d565b90919293946020806133f7600193601f19878203018952895190858060a01b038251168152858060a01b0384830151168482015260606133e66040840151608060408501526080840190613134565b920151906060818403910152613134565b9701950193929101613376565b9091929461035f19878203018452855160206060816040850193805186520151936040838201528451809452019201905f905b80821061345557505050602080600192970194019101919091613344565b909192602060c0600192865163ffffffff8151168252848060401b03848201511684830152848060a01b03604082015116604083015260608101511515606083015265ffffffffffff608082015116608083015260a08580821b039101511660a0820152019401920190613437565b805f52600560205260405f208054613b4e57600190556040516320c94b1360e11b8152600481018290526103809081816024817f00000000000000000000000000000000000000000000000000000000000000006001600160a01b03165afa918215612395575f92613b2f575b50506102208181015160405163d3fef14360e01b815291929190602090829060049082906001600160a01b03165afa908115612395575f91613af5575b5015613ae357825f525f60205260405f205490604051926388bc2ef360e01b845260208460048160018060a01b037f0000000000000000000000000000000000000000000000000000000000000000165afa938415612395575f94613ac2575b50604051630862026560e41b815293602090859081806135fb6001600160a01b0389168b6004840161311b565b03916001600160a01b03165afa938415612395575f94613aa1575b5060405163507f146560e01b8152936020856004816001600160a01b0385165afa948515612395576064956020915f91613a84575b5060405163467f4cb960e01b81526001600160a01b038481166004830152602482018a905287811660448301529097889290918391165afa948515612395575f95613a4f575b505f906020906001600160a01b03861661eeee03613a405760a463ffffffff604087015116965b60405163cfaf583960e01b8152600481018b90526001600160a01b039182166024820152604481018a905263ffffffff9889166064820152608481018a90529485938492165af1801561239557613a15575b5060405192613718846129e1565b600184525f5b6020811061394d57509161387a9391602093604083015116918160018060a01b039101511661ffff613762604051613755816129e1565b5f81525f88820152613b6a565b16916040519361377185612a2b565b5f85525f878601526040850152600160608501525f60808501525f60a08501525f60c08501525f60e08501525f6101008501525f6101208501525f6101408501525f61016085015260016101808501525f6101a08501525f6101c085015260016101e085015260016102008501528301526102408201526040516137f481612a63565b5f81526040519061380482612a63565b5f82526040519261381484612a47565b5f84525f868501525f60408501525f60608501525f608085015260a084015260c083015260e082015261384682612fec565b5261385081612fec565b50604080516303141db760e41b815260048101879052606060248201529384926064840190613181565b8281036003198101604485015260198252782232b334b3309033b0b6b2903430b9903334b734b9b432b21760391b9185019190915201815f6001600160a01b037f0000000000000000000000000000000000000000000000000000000000000000165af1801561239557613922575b5061391d7fe5d1da1fa18899cfe28f941d7fc5ecd5b8429a787f4f8db4313280d644fcc40f9160405191829133908361311b565b0390a2565b602090813d8311613946575b6139388183612a7e565b810103126103d9575f6138e9565b503d61392e565b60209060405161395c81612a47565b5f81525f838201525f604082015260605f8183015260805f818401528160a0915f6040519161398a83612a2b565b818352818984015281604084015281848401528201525f8382015260c0905f8282015260e0935f858301525f6101008301525f6101208301525f6101408301525f6101608301525f6101808301525f6101a08301525f6101c08301525f6101e08301525f6102008301525f8b8301525f6102408301528601528401528201528282880101520161371e565b602090813d8311613a39575b613a2b8183612a7e565b810103126103d9575f61370a565b503d613a21565b60a463ffffffff8716966136b8565b9094506020813d602011613a7c575b81613a6b60209383612a7e565b810103126103d95751936020613691565b3d9150613a5e565b613a9b9150823d841161041c5761040d8183612a7e565b5f61364b565b613abb91945060203d60201161041c5761040d8183612a7e565b925f613616565b613adc91945060203d60201161041c5761040d8183612a7e565b925f6135ce565b6040516366954d0b60e01b8152600490fd5b90506020813d602011613b27575b81613b1060209383612a7e565b810103126103d957613b2190612c59565b5f61356e565b3d9150613b03565b613b459250803d10612f6357612f548183612a7e565b90505f80613531565b5050565b65ffffffffffff9182169082160391908211611b1b57565b905f918051613b85575b60200151613b7e57565b9060021790565b60019250613b7456fea264697066735822122069b8a381db44138a235c47670a2afc4df0a16cb977d8a07f5e4b7f634192596564736f6c63430008170033",
	"deployedBytecode": "0x60a0806040526004361015610012575f80fd5b5f6080525f3560e01c9081630134a03d14612944575080630549cb321461290a57806306b552b5146128c65780630715610a146128835780630c340a241461283f578063150b7a02146127ca5780632b8ddaf1146127ad578063721d8329146107d55780637990b35f146107b65780637b1039991461077057806381312a1414610584578063859bb4b214610548578063b07925d3146104cb578063b4dfb0861461020a578063b6674cde146101e8578063e131fc0c146101a2578063ea78803f1461016b578063f2ae5f6e1461013d5763f77c4791146100f1575f80fd5b3461013757608051366003190112610137576040517f00000000000000000000000027da30646502e2f642be5281322ae8c394f7668a6001600160a01b03168152602090f35b60805180fd5b3461013757602036600319011261013757600435608051526005602052602060406080512054604051908152f35b346101375760203660031901126101375760043560805152608051602052602060018060a01b036040608051205416604051908152f35b3461013757608051366003190112610137576040517f00000000000000000000000037eb1fc6e5f3cd7c52a8a4855f3791284c8cadbe6001600160a01b03168152602090f35b34610137576020366003190112610137576102046004356134c4565b60805180f35b346101375760403660031901126101375760043560243580151581036103d95781608051526020608051815260018060a01b0392836040608051205416906040516388bc2ef360e01b81528381600481897f00000000000000000000000027da30646502e2f642be5281322ae8c394f7668a165afa9081156103e457608051916104ae575b50836040518092630862026560e41b82528189816102b189896004840161311b565b0392165afa80156103e457869160805191610491575b50604051633a01714f60e01b8152929116606083806102ea87866004840161311b565b0381845afa9283156103e45760805193610423575b5060405163507f146560e01b8152908582600481845afa9081156103e4578692608051926103f1575b50606490604051998a93849263467f4cb960e01b8452600484015286602484015261eeee6044840152165afa9081156103e457608051916103b0575b606096508195610389575b50508260ff91015116916040519384528301526040820152f35b60ff92955084916103a99160805152600583526040608051205490612f6a565b949161036f565b90508386813d83116103dd575b6103c78183612a7e565b810103126103d9576060955190610364565b5f80fd5b503d6103bd565b6040513d608051823e3d90fd5b606491925061041590843d861161041c575b61040d8183612a7e565b8101906130c9565b9190610328565b503d610403565b9092506060813d606011610489575b8161043f60609383612a7e565b810103126101375760405190610454826129ab565b61045d81612c66565b82528581015160ff81168103610137578287015261047d90604001612b6d565b604082015291876102ff565b3d9150610432565b6104a89150853d871161041c5761040d8183612a7e565b876102c7565b6104c59150843d861161041c5761040d8183612a7e565b8661028f565b346101375760203660031901126101375760043560805152608051602052606060406080512081604051916104ff836129c6565b5460018060a01b038116835265ffffffffffff8160a01c169283602082015262ffffff8260d01c169182604083015260e81c928391015260405192835260208301526040820152f35b34610137576080513660031901126101375760206040517f000000000000000000000000ed2a172e16480508d2ebf926b8dea73349afed888152f35b34610137576020806003193601126101375760405163d4a1b4b160e01b808252906001600160a01b03906004803591907f00000000000000000000000027da30646502e2f642be5281322ae8c394f7668a8416908690839081845afa80156103e457849260805191610753575b50604051906321d1336160e11b825284600483015281602481610120988994165afa9586156103e457879160805197610717575b5060046040518094819382525afa9081156103e457608051916106fa575b506040519263855a54ed60e01b8452600484015282602481610140948594165afa9283156103e457608051936106b4575b5050508263ffffffff60808401511615159283610697575b506040518315158152f35b81015191015165ffffffffffff908116911614905082828161068c565b90809293503d83116106f3575b6106cb8185612a7e565b83019183830312610137576106e260069284612b7e565b920151101561013757838080610674565b503d6106c1565b6107119150863d881161041c5761040d8183612a7e565b86610643565b91509550843d861161074c575b61072e8183612a7e565b810190858183031261013757879161074591612b7e565b9588610625565b503d610724565b61076a9150873d891161041c5761040d8183612a7e565b876105f1565b3461013757608051366003190112610137576040517f0000000000000000000000002d9b78cb37ca724cfb9b32cd8e9a5dc1c88bc7bb6001600160a01b03168152602090f35b3461013757608051366003190112610137576020600454604051908152f35b346103d95760203660031901126103d9576001600160401b03600435116103d957610240600435360360031901126103d95760405161020081016001600160401b03811182821017612799576040526004803501356001600160401b0381116103d957610849906004369181350101612abc565b8152600435602401356001600160401b0381116103d957610871906004369181350101612abc565b6020820152600435604401356001600160401b0381116103d95761089c906004369181350101612abc565b60408201526001600160401b0360043560640135116103d9576108c9366004803560648101350101612abc565b6060820152600435608401356001600160401b0381116103d95736602382600435010112156103d9576109026004828135010135612b02565b906109106040519283612a7e565b600480358201908101358084526020840192913660059290921b01602401116103d9576024816004350101915b6004803583019081013560051b0160240183106126aa5750505060808201526060600435360360a31901126103d957604051610978816129ab565b61098660a46004350161297c565b815260c4600435013560ff811681036103d95760208201526109ac60e460043501612b26565b604082015260a08201526109c561010460043501612b37565b60c08201526109d961012460043501612b37565b60e08201526109ed61014460043501612b47565b61010082015260043561016401356001600160401b0381116103d95760043501366023820112156103d957600481013590610a2782612b02565b91610a356040519384612a7e565b808352602083019136602460c08402830101116103d9579160248301925b602460c08402820101841061260357858561012082015261018460043501356101408201526101a46004350135610160820152610a956101c46004350161297c565b6101808201526004356101e401356001600160a01b03811690036103d9576004356101e48101356101a083015261020401356001600160a01b03811690036103d9576004356102048101356101c083015261022401356001600160a01b03811690036103d95760043561022401356101e082015261010081015165ffffffffffff1680612596575065ffffffffffff610b4862ffffff610b3b8160c08601511642612f6a565b9060e08501511690612f6a565b166101008201525b62ffffff60c08201511615801561255b575b6125495760405163293c499960e01b81526020816004817f00000000000000000000000027da30646502e2f642be5281322ae8c394f7668a6001600160a01b03165afa908115612395575f91612506575b506040516306661abd60e01b815290602090829060049082906001600160a01b03165afa908115612395575f916124d4575b50600181018111611b1b5760018060a01b0360a0830151511662ffffff60c08401511662ffffff60e08501511665ffffffffffff6101008601511660405193610c2d856129c6565b8452602084019081526040840192835260608401918252600185015f525f60205260405f209360018060a01b039051169065ffffffffffff60a01b905160a01b169262ffffff60d01b905160d01b169162ffffff60e81b905160e81b1692171717905561012082015151806121a6575b5060808201515191610cae83612b02565b610cbb6040519182612a7e565b838152610cc784612b02565b6080515b601f198201811061211957505060808201515193610d01610ceb86612b02565b95610cf96040519788612a7e565b808752612b02565b6080515b601f1982018110612108575050604051610d1e81612990565b60608152608051602082015260805160408201526080516060820152608051608082015260a0608051910152608051506080515b8181106120295750506e5af43d82803e903d91602b57fd5bf37f000000000000000000000000b57d30ed3cba3ce0934336db86f22797a9fa8359763d602d80600a3d3981f3363d3d373d3d3d363d7300000062ffffff8260881c16176080515260781b1760205260018060a01b0360376009608051f016908115612017576101a08301516001600160a01b03168015611fef57945b8351608051909290600187018072184f03e93ff9f4daa797ed6e38ed64bf6a1f0160401b80821015611fde575b506904ee2d6d415b85acef8160201b80821015611fd1575b50662386f26fc1000080821015611fc4575b506305f5e10080821015611fb7575b5061271080821015611faa575b506064811015611f9c575b600a80911015611f92575b6001830191816021610e9a610e8486612aa1565b95610e926040519788612a7e565b808752612aa1565b602086019690601f19013688378501015b5f1901916f181899199a1a9b1b9c1cb0b131b232b360811b8282061a835304908115610ed8578290610eab565b5050506028610f1891610f089360405194859267444546494641202360c01b6020850152518092858501906130a8565b8101036008810184520182612a7e565b60405163d4a1b4b160e01b81526020816004817f00000000000000000000000027da30646502e2f642be5281322ae8c394f7668a6001600160a01b03165afa9081156103e45760805191611f73575b506060870151604088015163ffffffff604060a08b01510151169160018060a01b036101e08b0151169360018060a01b036101808c015116958a3b156101375760405163114c4d6960e21b815260018e0160048201526101c0602482015299610fd5906101c48c01906130e8565b8a81036003190160448c0152610fea916130e8565b6001600160a01b0390911660648a01528881036003190160848a015261100f916130e8565b6001600160a01b038c1660a48901528781036003190160c4890152611033916130e8565b6003198782030160e488015284519081815260200194602001906080515b818110611e98575050506101048601526101248501523061014485015230610164850152610184840152600319838203016101a4840152815180825260208201916020808360051b830101940192608051915b838310611e6b5750505050508180608051920381608051865af180156103e457611e55575b506040516110d6816129e1565b600181526080515b60208110611e26575060a08301516110f582612fec565b526110ff81612fec565b506040519061110d826129e1565b600182526080515b60208110611e0f57506101c084015160405191906001600160a01b031661113b836129e1565b8252602082015261114b82612fec565b5261115581612fec565b5060e083015162ffffff161580159190611e07576003915b61117960ff8416612b02565b926111876040519485612a7e565b60ff16808452601f199061119a90612b02565b015f5b818110611d3a5750506111da6111ca65ffffffffffff6101008801511662ffffff60c08901511690613b52565b62ffffff60e08801511690613b52565b62ffffff60c08701511663ffffffff604060a089015101511661ffff611216604051611205816129e1565b608051815260016020820152613b6a565b166040519161122483612a2b565b6080518352608051602084015260408301526080516060830152608051608083015260805160a083015260805160c083015260805160e08301526080516101008301526080516101208301526080516101408301526080516101608301526080516101808301526080516101a08301526080516101c083015260016101e0830152600161020083015287610220830152610240820152604051906112c782612a63565b5f8252604051926112d784612a63565b5f845265ffffffffffff604051956112ee87612a47565b168552602085015260805160408501526080516060850152608051608085015260a084015260c083015260e082015261132684612fec565b5261133083612fec565b50600190611bcb575b60405190611346826129e1565b600182525f5b60208110611ba8575063ffffffff604060a088015101511660405190611371826129e1565b6001600160e01b038252602082015261138983612fec565b5261139382612fec565b50604051916113a1836129e1565b600183525f5b60208110611b7857506101c087015160a0880151516040516001600160a01b039283169390929091166113d983612a63565b5f8352604051936113e9856129c6565b845260208401526040830152606082015261140383612fec565b5261140d82612fec565b5065ffffffffffff6101008701511663ffffffff604060a08901510151169261ffff61145060405161143e816129e1565b60805181526080516020820152613b6a565b166040519461145e86612a2b565b60805186526080516020870152604086015260016060860152608051608086015260805160a086015260805160c086015260805160e086015260805161010086015260805161012086015260805161014086015260805161016086015260016101808601526080516101a08601526080516101c086015260016101e086015260016102008601528761022086015261024085015260018060a01b0360a08901515116936101208901519081519560805150608051600388018811611b03579261152960038901612f77565b608051909490915b898310611b2f57506115ce91506115c86003548d63ffffffff61155383613031565b16906040519161156283612990565b82527f00000000000000000000000000000000000000000000000000000000000000016001600160401b0316602083015260408201526080805160608301528051818301525160a08201526115b78c8961301d565b526115c28b8861301d565b50613031565b90612f6a565b6004549063ffffffff6115e083613031565b1691604051926115ef84612990565b83527f00000000000000000000000000000000000000000000000000000000000000036001600160401b03166020840152604083018d90526080805160608501528051818501525160a084015260018a0190818b11611b03576115c2826116649561165d6115c8958b61301d565b528861301d565b96633b9aca00978881810311611b1b5763ffffffff90604051996116878b612990565b031688526001808e016001600160401b031660208a01526080805160408b015260608a01919091528051818a01525160a0890152600281018111611b0357906116ee6002836117aa9c9b9a6116e6836117799c9b9a999897018861301d565b52018461301d565b506116f761306d565b9260405191611705836129e1565b8252602082015261171583612fec565b5261171f82612fec565b506040519361172d85612a47565b8452608051602085015260805160408501526080516060850152608051608085015260a084015260c083015260e08201526117678261310d565b50611772828661301d565b528361301d565b506117bc602086015192604051948594635c7465e560e01b865230600487015260a0602487015260a48601906130e8565b84810360031901604486015290613181565b600319838203016064840152815180825260208201916020808360051b830101940192608051915b838310611a6757505050505090604082752630bab731b434b733902232b334b3309033b0b6b29760511b6020848196039260031984016084870152601681520152018160805160018060a01b037f00000000000000000000000027da30646502e2f642be5281322ae8c394f7668a165af19081156103e45760805191611a35575b506001840103611a1d57610140820151610160909201517f000000000000000000000000e2f954b35c29b7e3bad27aaa31a3ac443626877d6001600160a01b03169290833b156101375760405163c543882f60e01b8152600186016004820152602481019290925260448201526080518160648183875af180156103e457611a07575b50803b156101375760405163f2fde38b60e01b8152600481018390526080518160248183865af180156103e4576119f1575b506001547f0000000000000000000000002d9b78cb37ca724cfb9b32cd8e9a5dc1c88bc7bb6001600160a01b0316906119529061310d565b9081600155803b15610137576040519163b94417ab60e01b835230600484015260248301528160448160805193608051905af180156103e4576119db575b506020936040519060018060a01b0316815233858201527f3082991f3dda023098e5849ea3903c6fbfd657dc6f9232f5eb81ad8a7ba161d660406001860192a4600160405191018152f35b6119e4906129fc565b6080516101375784611990565b6119fa906129fc565b608051610137578461191a565b611a10906129fc565b60805161013757846118e8565b634e487b7160e01b6080515260016004526024608051fd5b90506020813d602011611a5f575b81611a5060209383612a7e565b810103126103d9575185611865565b3d9150611a43565b919395509193601f1982820301835285516020606081604085019360018060a01b038151168652015193604083820152845180945201920190608051905b808210611ac757505050602080600192970193019301909286959492936117e4565b9091926020606060019263ffffffff60408851868060a01b03815116845260ff8682015116868501520151166040820152019401920190611aa5565b634e487b7160e01b6080515260116004526024608051fd5b634e487b7160e01b5f52601160045260245ffd5b90611b6f600191611b40858561301d565b51611b4b868a61301d565b52611b56858961301d565b5063ffffffff611b66868661301d565b51511690612f6a565b92019190611531565b602090604051611b87816129c6565b5f81525f8382015260606040820152606080820152828287010152016113a7565b602090604051611bb7816129e1565b5f81525f838201528282860101520161134c565b50611bed65ffffffffffff6101008601511662ffffff60e08701511690613b52565b62ffffff60e08601511663ffffffff604060a088015101511661ffff611c18604051611205816129e1565b1660405191611c2683612a2b565b60805183526080516020840152604083015260016060830152608051608083015260805160a083015260805160c083015260805160e08301526080516101008301526080516101208301526080516101408301526080516101608301526080516101808301526080516101a08301526080516101c083015260016101e083015260016102008301528661022083015261024082015260405190611cc882612a63565b5f825260405192611cd884612a63565b5f845265ffffffffffff60405195611cef87612a47565b168552602085015260805160408501526080516060850152608051608085015260a084015260c083015260e0820152600290611d2a8461300d565b52611d348361300d565b50611339565b602090604051611d4981612a47565b5f81525f838201525f60408201525f60608201525f6080820152604051611d6f81612a2b565b5f81525f848201525f60408201525f60608201525f60808201525f60a08201525f60c08201525f60e08201525f6101008201525f6101208201525f6101408201525f6101608201525f6101808201525f6101a08201525f6101c08201525f6101e08201525f6102008201525f6102208201525f61024082015260a0820152606060c0820152606060e08201528282880101520161119d565b60029161116d565b602090611e1a613054565b82828601015201611115565b602090604051611e35816129ab565b6080518152608051838201526080516040820152828285010152016110de565b611e5e906129fc565b60805161013757846110c9565b9091929394602080611e89600193601f1986820301875289516130e8565b970193019301919392906110a4565b90919560206101c06001926101a08a51858060681b03815116835263ffffffff85820151168584015263ffffffff604082015116604084015261ffff6060820151166060840152858060a01b03608082015116608084015260a081015160a084015262ffffff60c08201511660c084015260ff60e08201511660e084015261010081015115156101008401526101208101511515610120840152610140810151151561014084015261016081015115156101608401526101808101511515610180840152015115156101a08201520197019101919091611051565b611f8c915060203d60201161041c5761040d8183612a7e565b89610f67565b9160010191610e70565b606460029104920191610e65565b600491049201918a610e5a565b600891049201918a610e4d565b601091049201918a610e3e565b602091049201918a610e2c565b6040935060018a010490508a610e14565b507f00000000000000000000000037eb1fc6e5f3cd7c52a8a4855f3791284c8cadbe94610de7565b60405163b06ebf3d60e01b8152600490fd5b8061203a600192608087015161301d565b51828060501b0360208201511661ffff604083015116848060a01b0360608401511660808401519060a08501511515926040519461207786612a0f565b8552633b9ac9ff60208601528760408601526060850152608084015260a083015260805160c083015260805160e08301526080516101008301526101208201526080516101408201528361016082015283610180820152836101a08201526120df838761301d565b526120ea828661301d565b50516120f6828961301d565b52612101818861301d565b5001610d52565b806060602080938a01015201610d05565b60209060405161212881612a0f565b60805181526080518382015260805160408201526080516060820152608051608082015260805160a082015260805160c082015260805160e08201526080516101008201526080516101208201526080516101408201526080516101608201526080516101808201526080516101a082015282828601015201610ccb565b600181018111611b1b576121bc60018201612f77565b905f5b8181106124a557506122459063ffffffff6121db600454613031565b16604051906121e982612990565b81527f00000000000000000000000000000000000000000000000000000000000000036001600160401b031660208201523060408201525f606082018190526080820181905260a082015261223e828561301d565b528261301d565b5061224e61306d565b906040519061225c826129e1565b7f000000000000000000000000ed2a172e16480508d2ebf926b8dea73349afed888252602082015261228d82612fec565b5261229781612fec565b50604051631f47ce6960e01b81526020816004817f00000000000000000000000027da30646502e2f642be5281322ae8c394f7668a6001600160a01b03165afa908115612395575f91612463575b506001600160a01b0381163b156103d9576040518092638a36dffd60e01b8252606482017f000000000000000000000000000000000000000000000000000000000000000360048401526001860160248401526060604484015281518091526084830190602060848260051b8601019301915f905b8282106123a0575050505091815f818195039260018060a01b03165af180156123955715610c9d5761238b906129fc565b5f60805282610c9d565b6040513d5f823e3d90fd5b919390929450608319878203018252845160206060816040850193805186520151936040838201528451809452019201905f905b8082106123f457505050602080600192960192019201869493919261235a565b909192602060c0600192865163ffffffff8151168252848060401b03848201511684830152848060a01b03604082015116604083015260608101511515606083015265ffffffffffff608082015116608083015260a08580821b039101511660a08201520194019201906123d4565b90506020813d60201161249d575b8161247e60209383612a7e565b810103126103d957516001600160a01b03811681036103d957846122e5565b3d9150612471565b806124b760019261012088015161301d565b516124c2828661301d565b526124cd818561301d565b50016121bf565b90506020813d6020116124fe575b816124ef60209383612a7e565b810103126103d9575182610be5565b3d91506124e2565b90506020813d602011612541575b8161252160209383612a7e565b810103126103d957516001600160a01b03811681036103d9576020610bb3565b3d9150612514565b604051633a7c40a160e11b8152600490fd5b5065ffffffffffff6101008201511661259061258062ffffff60e08501511642612f6a565b62ffffff60c08501511690612f6a565b11610b62565b62ffffff60c0830151161590816125e7575b5015610b505765ffffffffffff610100820151166125cf62ffffff60e08401511642612f6a565b8103908111611b1b5762ffffff1660c0820152610b50565b90506125fc62ffffff60e08401511642612f6a565b10826125a8565b60c0843603126103d95760405161261981612990565b61262285612b26565b815260208501356001600160401b03811681036103d95760208201526001600160a01b03604086013581811681036103d957604083015261266560608701612b19565b606083015261267660808701612b47565b608083015260a086013590811690036103d95760c06020602494829360a089013560a0820152815201950194925050610a53565b82356001600160401b0381116103d95760c060043584018201360360231901126103d957604051916126db83612990565b60043584018201602401356001600160401b0381116103d95761270a9060243691858860043501010101612abc565b835260043584018201604401356001600160501b03811681036103d9576020840152600435840182016064013561ffff811690036103d95760209261278960c484606487968960043501010135604085015261276e6084828a60043501010161297c565b606085015260043588010160a4810135608085015201612b19565b60a082015281520192019161093d565b634e487b7160e01b5f52604160045260245ffd5b346103d9575f3660031901126103d9576020600354604051908152f35b346103d95760803660031901126103d9576001600160a01b03600435818116036103d957602435908116036103d9576064356001600160401b038082116103d957366023830112156103d95781600401359081116103d957369101602401116103d957604051630a85bd0160e11b8152602090f35b346103d9575f3660031901126103d9576040517f000000000000000000000000e2f954b35c29b7e3bad27aaa31a3ac443626877d6001600160a01b03168152602090f35b346103d95760203660031901126103d95761289f600435612e0b565b60405160078210156128b2576020918152f35b634e487b7160e01b5f52602160045260245ffd5b346103d9575f3660031901126103d9576040517f000000000000000000000000b57d30ed3cba3ce0934336db86f22797a9fa83596001600160a01b03168152602090f35b346103d9575f3660031901126103d95760206040517f00000000000000000000000000000000000000000000000000000000000000018152f35b346103d9575f3660031901126103d9576020907f00000000000000000000000000000000000000000000000000000000000000038152f35b35906001600160a01b03821682036103d957565b60c081019081106001600160401b0382111761279957604052565b606081019081106001600160401b0382111761279957604052565b608081019081106001600160401b0382111761279957604052565b604081019081106001600160401b0382111761279957604052565b6001600160401b03811161279957604052565b6101c081019081106001600160401b0382111761279957604052565b61026081019081106001600160401b0382111761279957604052565b61010081019081106001600160401b0382111761279957604052565b602081019081106001600160401b0382111761279957604052565b601f909101601f19168101906001600160401b0382119082101761279957604052565b6001600160401b03811161279957601f01601f191660200190565b81601f820112156103d957803590612ad382612aa1565b92612ae16040519485612a7e565b828452602083830101116103d957815f926020809301838601378301015290565b6001600160401b0381116127995760051b60200190565b359081151582036103d957565b359063ffffffff821682036103d957565b359062ffffff821682036103d957565b359065ffffffffffff821682036103d957565b519065ffffffffffff821682036103d957565b519063ffffffff821682036103d957565b80929161012091829103126103d9576040519081016001600160401b03811182821017612799576040528092612bb381612b5a565b8252612bc160208201612b5a565b6020830152612bd260408201612b5a565b6040830152612be360608201612b5a565b6060830152612bf460808201612b6d565b608083015260a08101516001600160701b03811681036103d95760a0830152612c1f60c08201612b6d565b60c083015260e08101516001600160a01b03811681036103d95760e083015261010080910151910152565b519061ffff821682036103d957565b519081151582036103d957565b51906001600160a01b03821682036103d957565b91908281039061038082126103d957612c939084612b7e565b9261012090610260809361011f1901126103d95760405192612cb484612a2b565b612cbf828401612c4a565b8452610140612ccf838201612c4a565b6020860152610160612ce2848201612b6d565b6040870152610180612cf5858201612c59565b60608801526101a0612d08868201612c59565b60808901526101c091612d1c878401612c59565b60a08a01526101e093612d30888601612c59565b60c08b015261020095612d44898801612c59565b60e08c015261022097612d588a8a01612c59565b6101008d01526102409a612d6d8b8d01612c59565b908d01528901612d7c90612c59565b908b0152612d8d6102808901612c59565b908a0152612d9e6102a08801612c59565b90890152612daf6102c08701612c59565b90880152612dc06102e08601612c59565b90870152612dd16103008501612c59565b90860152612de26103208401612c59565b90850152612df36103408301612c66565b9084015261036001612e0490612c4a565b9082015290565b6040516320c94b1360e11b8152600481018290526001600160a01b039161038080836024817f00000000000000000000000027da30646502e2f642be5281322ae8c394f7668a88165afa928315612395575f915f94612f34575b50505165ffffffffffff168015612f2c5760018114612f23576002149081612f0b575b50612f0457610220015160405163d3fef14360e01b81529160209183916004918391165afa908115612395575f91612eca575b50612ec557600390565b600490565b90506020813d602011612efc575b81612ee560209383612a7e565b810103126103d957612ef690612c59565b5f612ebb565b3d9150612ed8565b5050600290565b90505f525f60205260405f205460e81c15155f612e88565b50505050600190565b505050505f90565b65ffffffffffff9450612f5c9250803d10612f63575b612f548183612a7e565b810190612c7a565b925f612e65565b503d612f4a565b91908201809211611b1b57565b90612f8182612b02565b604090612f916040519182612a7e565b8381528093612fa2601f1991612b02565b01915f5b838110612fb35750505050565b6020908251612fc181612990565b5f8152825f818301525f858301525f60608301525f60808301525f60a0830152828601015201612fa6565b805115612ff95760200190565b634e487b7160e01b5f52603260045260245ffd5b805160011015612ff95760400190565b8051821015612ff95760209160051b010190565b801561304057633b9aca000490565b634e487b7160e01b5f52601260045260245ffd5b60405190613061826129e1565b60606020835f81520152565b6040519061307a826129e1565b60018252815f5b602090818110156130a357602091613097613054565b90828501015201613081565b505050565b5f5b8381106130b95750505f910152565b81810151838201526020016130aa565b908160209103126103d957516001600160a01b03811681036103d95790565b90602091613101815180928185528580860191016130a8565b601f01601f1916010190565b5f198114611b1b5760010190565b9081526001600160a01b03909116602082015260400190565b9081518082526020808093019301915f5b828110613153575050505090565b835180516001600160e01b0316865282015163ffffffff168583015260409094019392810192600101613145565b9080602083519182815201916020808360051b8301019401925f915b8383106131ac57505050505090565b9091929394601f19828203018352855165ffffffffffff815116825263ffffffff602082015116602083015260018060701b03604082015116604083015263ffffffff6060820151166060830152608081015160018060a01b0316608083015261ffff60a08201518181511660a08501528160208201511660c085015263ffffffff60408201511660e08501526060810151906101009115158286015260808101516101209015158187015260a0820151926101409315158488015260c08301516101609015158189015260e084015191610180921515838a0152840151926101a0931515848a0152840151946101c0951515868a0152840151906101e0911515828a015284015191610200921515838a015284015192610220931515848a015284015194610240951515868a01528401511515610260890152830151151561028088015282015115156102a087015260018060a01b0390820151166102c08601520151166102e083015260c0810151906103406103008401528151806103408501526103606020818601918360051b8701019401915f5b818110613404575050505060e0015191610320818303910152815180825260208201906020808260051b8501019401925f5b8281106133975750505050506020806001929701930193019193929061319d565b90919293946020806133f7600193601f19878203018952895190858060a01b038251168152858060a01b0384830151168482015260606133e66040840151608060408501526080840190613134565b920151906060818403910152613134565b9701950193929101613376565b9091929461035f19878203018452855160206060816040850193805186520151936040838201528451809452019201905f905b80821061345557505050602080600192970194019101919091613344565b909192602060c0600192865163ffffffff8151168252848060401b03848201511684830152848060a01b03604082015116604083015260608101511515606083015265ffffffffffff608082015116608083015260a08580821b039101511660a0820152019401920190613437565b805f52600560205260405f208054613b4e57600190556040516320c94b1360e11b8152600481018290526103809081816024817f00000000000000000000000027da30646502e2f642be5281322ae8c394f7668a6001600160a01b03165afa918215612395575f92613b2f575b50506102208181015160405163d3fef14360e01b815291929190602090829060049082906001600160a01b03165afa908115612395575f91613af5575b5015613ae357825f525f60205260405f205490604051926388bc2ef360e01b845260208460048160018060a01b037f00000000000000000000000027da30646502e2f642be5281322ae8c394f7668a165afa938415612395575f94613ac2575b50604051630862026560e41b815293602090859081806135fb6001600160a01b0389168b6004840161311b565b03916001600160a01b03165afa938415612395575f94613aa1575b5060405163507f146560e01b8152936020856004816001600160a01b0385165afa948515612395576064956020915f91613a84575b5060405163467f4cb960e01b81526001600160a01b038481166004830152602482018a905287811660448301529097889290918391165afa948515612395575f95613a4f575b505f906020906001600160a01b03861661eeee03613a405760a463ffffffff604087015116965b60405163cfaf583960e01b8152600481018b90526001600160a01b039182166024820152604481018a905263ffffffff9889166064820152608481018a90529485938492165af1801561239557613a15575b5060405192613718846129e1565b600184525f5b6020811061394d57509161387a9391602093604083015116918160018060a01b039101511661ffff613762604051613755816129e1565b5f81525f88820152613b6a565b16916040519361377185612a2b565b5f85525f878601526040850152600160608501525f60808501525f60a08501525f60c08501525f60e08501525f6101008501525f6101208501525f6101408501525f61016085015260016101808501525f6101a08501525f6101c085015260016101e085015260016102008501528301526102408201526040516137f481612a63565b5f81526040519061380482612a63565b5f82526040519261381484612a47565b5f84525f868501525f60408501525f60608501525f608085015260a084015260c083015260e082015261384682612fec565b5261385081612fec565b50604080516303141db760e41b815260048101879052606060248201529384926064840190613181565b8281036003198101604485015260198252782232b334b3309033b0b6b2903430b9903334b734b9b432b21760391b9185019190915201815f6001600160a01b037f00000000000000000000000027da30646502e2f642be5281322ae8c394f7668a165af1801561239557613922575b5061391d7fe5d1da1fa18899cfe28f941d7fc5ecd5b8429a787f4f8db4313280d644fcc40f9160405191829133908361311b565b0390a2565b602090813d8311613946575b6139388183612a7e565b810103126103d9575f6138e9565b503d61392e565b60209060405161395c81612a47565b5f81525f838201525f604082015260605f8183015260805f818401528160a0915f6040519161398a83612a2b565b818352818984015281604084015281848401528201525f8382015260c0905f8282015260e0935f858301525f6101008301525f6101208301525f6101408301525f6101608301525f6101808301525f6101a08301525f6101c08301525f6101e08301525f6102008301525f8b8301525f6102408301528601528401528201528282880101520161371e565b602090813d8311613a39575b613a2b8183612a7e565b810103126103d9575f61370a565b503d613a21565b60a463ffffffff8716966136b8565b9094506020813d602011613a7c575b81613a6b60209383612a7e565b810103126103d95751936020613691565b3d9150613a5e565b613a9b9150823d841161041c5761040d8183612a7e565b5f61364b565b613abb91945060203d60201161041c5761040d8183612a7e565b925f613616565b613adc91945060203d60201161041c5761040d8183612a7e565b925f6135ce565b6040516366954d0b60e01b8152600490fd5b90506020813d602011613b27575b81613b1060209383612a7e565b810103126103d957613b2190612c59565b5f61356e565b3d9150613b03565b613b459250803d10612f6357612f548183612a7e565b90505f80613531565b5050565b65ffffffffffff9182169082160391908211611b1b57565b905f918051613b85575b60200151613b7e57565b9060021790565b60019250613b7456fea264697066735822122069b8a381db44138a235c47670a2afc4df0a16cb977d8a07f5e4b7f634192596564736f6c63430008170033",
	"gitCommit": "65e9171fc69ba65af9e9ac84f021a9fd6cb1787d",
	"history": [
		{
			"format": "sphinx-sol-ct-artifact-1",
			"merkleRoot": "0xf08f9ca7dcb710bbe0f088e7fa547a30ed0560e0de626166d34dde93c2b21941",
			"address": "0xaa1c5d7bee4cc88523286774dffeab26687ec0ff",
			"sourceName": "contracts/DefifaDeployer.sol",
			"contractName": "DefifaDeployer",
			"chainId": "0xaa36a7",
			"abi": [
				{
					"inputs": [
						{
							"internalType": "address",
							"name": "_delegateCodeOrigin",
							"type": "address"
						},
						{
							"internalType": "contract IJB721TokenUriResolver",
							"name": "_tokenUriResolver",
							"type": "address"
						},
						{
							"internalType": "contract IDefifaGovernor",
							"name": "_governor",
							"type": "address"
						},
						{
							"internalType": "contract IJBController",
							"name": "_controller",
							"type": "address"
						},
						{
							"internalType": "contract IJBAddressRegistry",
							"name": "_registry",
							"type": "address"
						},
						{
							"internalType": "uint256",
							"name": "_defifaProjectId",
							"type": "uint256"
						},
						{
							"internalType": "uint256",
							"name": "_baseProtocolProjectId",
							"type": "uint256"
						}
					],
					"stateMutability": "nonpayable",
					"type": "constructor"
				},
				{
					"inputs": [],
					"name": "baseProtocolFeeDivisor",
					"outputs": [
						{
							"internalType": "uint256",
							"name": "",
							"type": "uint256"
						}
					],
					"stateMutability": "view",
					"type": "function"
				},
				{
					"inputs": [],
					"name": "baseProtocolProjectId",
					"outputs": [
						{
							"internalType": "uint256",
							"name": "",
							"type": "uint256"
						}
					],
					"stateMutability": "view",
					"type": "function"
				},
				{
					"inputs": [],
					"name": "controller",
					"outputs": [
						{
							"internalType": "contract IJBController",
							"name": "",
							"type": "address"
						}
					],
					"stateMutability": "view",
					"type": "function"
				},
				{
					"inputs": [
						{
							"internalType": "uint256",
							"name": "_gameId",
							"type": "uint256"
						}
					],
					"name": "currentGamePhaseOf",
					"outputs": [
						{
							"internalType": "enum DefifaGamePhase",
							"name": "",
							"type": "uint8"
						}
					],
					"stateMutability": "view",
					"type": "function"
				},
				{
					"inputs": [
						{
							"internalType": "uint256",
							"name": "_gameId",
							"type": "uint256"
						},
						{
							"internalType": "bool",
							"name": "_includeCommitments",
							"type": "bool"
						}
					],
					"name": "currentGamePotOf",
					"outputs": [
						{
							"internalType": "uint256",
							"name": "",
							"type": "uint256"
						},
						{
							"internalType": "address",
							"name": "",
							"type": "address"
						},
						{
							"internalType": "uint256",
							"name": "",
							"type": "uint256"
						}
					],
					"stateMutability": "view",
					"type": "function"
				},
				{
					"inputs": [],
					"name": "defifaFeeDivisor",
					"outputs": [
						{
							"internalType": "uint256",
							"name": "",
							"type": "uint256"
						}
					],
					"stateMutability": "view",
					"type": "function"
				},
				{
					"inputs": [],
					"name": "defifaProjectId",
					"outputs": [
						{
							"internalType": "uint256",
							"name": "",
							"type": "uint256"
						}
					],
					"stateMutability": "view",
					"type": "function"
				},
				{
					"inputs": [],
					"name": "delegateCodeOrigin",
					"outputs": [
						{
							"internalType": "address",
							"name": "",
							"type": "address"
						}
					],
					"stateMutability": "view",
					"type": "function"
				},
				{
					"inputs": [
						{
							"internalType": "uint256",
							"name": "_gameId",
							"type": "uint256"
						}
					],
					"name": "fulfillCommitmentsOf",
					"outputs": [],
					"stateMutability": "nonpayable",
					"type": "function"
				},
				{
					"inputs": [
						{
							"internalType": "uint256",
							"name": "",
							"type": "uint256"
						}
					],
					"name": "fulfilledCommitmentsOf",
					"outputs": [
						{
							"internalType": "uint256",
							"name": "",
							"type": "uint256"
						}
					],
					"stateMutability": "view",
					"type": "function"
				},
				{
					"inputs": [],
					"name": "governor",
					"outputs": [
						{
							"internalType": "contract IDefifaGovernor",
							"name": "",
							"type": "address"
						}
					],
					"stateMutability": "view",
					"type": "function"
				},
				{
					"inputs": [
						{
							"components": [
								{
									"internalType": "string",
									"name": "name",
									"type": "string"
								},
								{
									"internalType": "string",
									"name": "projectUri",
									"type": "string"
								},
								{
									"internalType": "string",
									"name": "contractUri",
									"type": "string"
								},
								{
									"internalType": "string",
									"name": "baseUri",
									"type": "string"
								},
								{
									"components": [
										{
											"internalType": "string",
											"name": "name",
											"type": "string"
										},
										{
											"internalType": "uint80",
											"name": "price",
											"type": "uint80"
										},
										{
											"internalType": "uint16",
											"name": "reservedRate",
											"type": "uint16"
										},
										{
											"internalType": "address",
											"name": "reservedTokenBeneficiary",
											"type": "address"
										},
										{
											"internalType": "bytes32",
											"name": "encodedIPFSUri",
											"type": "bytes32"
										},
										{
											"internalType": "bool",
											"name": "shouldUseReservedTokenBeneficiaryAsDefault",
											"type": "bool"
										}
									],
									"internalType": "struct DefifaTierParams[]",
									"name": "tiers",
									"type": "tuple[]"
								},
								{
									"components": [
										{
											"internalType": "address",
											"name": "token",
											"type": "address"
										},
										{
											"internalType": "uint8",
											"name": "decimals",
											"type": "uint8"
										},
										{
											"internalType": "uint32",
											"name": "currency",
											"type": "uint32"
										}
									],
									"internalType": "struct JBAccountingContext",
									"name": "token",
									"type": "tuple"
								},
								{
									"internalType": "uint24",
									"name": "mintPeriodDuration",
									"type": "uint24"
								},
								{
									"internalType": "uint24",
									"name": "refundPeriodDuration",
									"type": "uint24"
								},
								{
									"internalType": "uint48",
									"name": "start",
									"type": "uint48"
								},
								{
									"components": [
										{
											"internalType": "uint32",
											"name": "percent",
											"type": "uint32"
										},
										{
											"internalType": "uint64",
											"name": "projectId",
											"type": "uint64"
										},
										{
											"internalType": "address payable",
											"name": "beneficiary",
											"type": "address"
										},
										{
											"internalType": "bool",
											"name": "preferAddToBalance",
											"type": "bool"
										},
										{
											"internalType": "uint48",
											"name": "lockedUntil",
											"type": "uint48"
										},
										{
											"internalType": "contract IJBSplitHook",
											"name": "hook",
											"type": "address"
										}
									],
									"internalType": "struct JBSplit[]",
									"name": "splits",
									"type": "tuple[]"
								},
								{
									"internalType": "uint256",
									"name": "attestationStartTime",
									"type": "uint256"
								},
								{
									"internalType": "uint256",
									"name": "attestationGracePeriod",
									"type": "uint256"
								},
								{
									"internalType": "address",
									"name": "defaultAttestationDelegate",
									"type": "address"
								},
								{
									"internalType": "contract IJB721TokenUriResolver",
									"name": "defaultTokenUriResolver",
									"type": "address"
								},
								{
									"internalType": "contract IJBTerminal",
									"name": "terminal",
									"type": "address"
								},
								{
									"internalType": "contract IJB721TiersHookStore",
									"name": "store",
									"type": "address"
								}
							],
							"internalType": "struct DefifaLaunchProjectData",
							"name": "_launchProjectData",
							"type": "tuple"
						}
					],
					"name": "launchGameWith",
					"outputs": [
						{
							"internalType": "uint256",
							"name": "gameId",
							"type": "uint256"
						}
					],
					"stateMutability": "nonpayable",
					"type": "function"
				},
				{
					"inputs": [
						{
							"internalType": "uint256",
							"name": "_gameId",
							"type": "uint256"
						}
					],
					"name": "nextPhaseNeedsQueueing",
					"outputs": [
						{
							"internalType": "bool",
							"name": "",
							"type": "bool"
						}
					],
					"stateMutability": "view",
					"type": "function"
				},
				{
					"inputs": [
						{
							"internalType": "address",
							"name": "",
							"type": "address"
						},
						{
							"internalType": "address",
							"name": "",
							"type": "address"
						},
						{
							"internalType": "uint256",
							"name": "",
							"type": "uint256"
						},
						{
							"internalType": "bytes",
							"name": "",
							"type": "bytes"
						}
					],
					"name": "onERC721Received",
					"outputs": [
						{
							"internalType": "bytes4",
							"name": "",
							"type": "bytes4"
						}
					],
					"stateMutability": "pure",
					"type": "function"
				},
				{
					"inputs": [],
					"name": "registry",
					"outputs": [
						{
							"internalType": "contract IJBAddressRegistry",
							"name": "",
							"type": "address"
						}
					],
					"stateMutability": "view",
					"type": "function"
				},
				{
					"inputs": [],
					"name": "splitGroup",
					"outputs": [
						{
							"internalType": "uint256",
							"name": "",
							"type": "uint256"
						}
					],
					"stateMutability": "view",
					"type": "function"
				},
				{
					"inputs": [
						{
							"internalType": "uint256",
							"name": "_gameId",
							"type": "uint256"
						}
					],
					"name": "timesFor",
					"outputs": [
						{
							"internalType": "uint48",
							"name": "",
							"type": "uint48"
						},
						{
							"internalType": "uint24",
							"name": "",
							"type": "uint24"
						},
						{
							"internalType": "uint24",
							"name": "",
							"type": "uint24"
						}
					],
					"stateMutability": "view",
					"type": "function"
				},
				{
					"inputs": [
						{
							"internalType": "uint256",
							"name": "_gameId",
							"type": "uint256"
						}
					],
					"name": "tokenOf",
					"outputs": [
						{
							"internalType": "address",
							"name": "",
							"type": "address"
						}
					],
					"stateMutability": "view",
					"type": "function"
				},
				{
					"inputs": [],
					"name": "tokenUriResolver",
					"outputs": [
						{
							"internalType": "contract IJB721TokenUriResolver",
							"name": "",
							"type": "address"
						}
					],
					"stateMutability": "view",
					"type": "function"
				},
				{
					"anonymous": false,
					"inputs": [
						{
							"components": [
								{
									"internalType": "uint32",
									"name": "percent",
									"type": "uint32"
								},
								{
									"internalType": "uint64",
									"name": "projectId",
									"type": "uint64"
								},
								{
									"internalType": "address payable",
									"name": "beneficiary",
									"type": "address"
								},
								{
									"internalType": "bool",
									"name": "preferAddToBalance",
									"type": "bool"
								},
								{
									"internalType": "uint48",
									"name": "lockedUntil",
									"type": "uint48"
								},
								{
									"internalType": "contract IJBSplitHook",
									"name": "hook",
									"type": "address"
								}
							],
							"indexed": false,
							"internalType": "struct JBSplit",
							"name": "split",
							"type": "tuple"
						},
						{
							"indexed": false,
							"internalType": "uint256",
							"name": "amount",
							"type": "uint256"
						},
						{
							"indexed": false,
							"internalType": "address",
							"name": "caller",
							"type": "address"
						}
					],
					"name": "DistributeToSplit",
					"type": "event"
				},
				{
					"anonymous": false,
					"inputs": [
						{
							"indexed": true,
							"internalType": "uint256",
							"name": "gameId",
							"type": "uint256"
						},
						{
							"indexed": false,
							"internalType": "uint256",
							"name": "pot",
							"type": "uint256"
						},
						{
							"indexed": false,
							"internalType": "address",
							"name": "caller",
							"type": "address"
						}
					],
					"name": "FulfilledCommitments",
					"type": "event"
				},
				{
					"anonymous": false,
					"inputs": [
						{
							"indexed": true,
							"internalType": "uint256",
							"name": "gameId",
							"type": "uint256"
						},
						{
							"indexed": true,
							"internalType": "contract IDefifaDelegate",
							"name": "delegate",
							"type": "address"
						},
						{
							"indexed": true,
							"internalType": "contract IDefifaGovernor",
							"name": "governor",
							"type": "address"
						},
						{
							"indexed": false,
							"internalType": "contract IJB721TokenUriResolver",
							"name": "tokenUriResolver",
							"type": "address"
						},
						{
							"indexed": false,
							"internalType": "address",
							"name": "caller",
							"type": "address"
						}
					],
					"name": "LaunchGame",
					"type": "event"
				},
				{
					"anonymous": false,
					"inputs": [
						{
							"indexed": true,
							"internalType": "uint256",
							"name": "gameId",
							"type": "uint256"
						},
						{
							"indexed": false,
							"internalType": "address",
							"name": "caller",
							"type": "address"
						}
					],
					"name": "QueuedNoContest",
					"type": "event"
				},
				{
					"anonymous": false,
					"inputs": [
						{
							"indexed": true,
							"internalType": "uint256",
							"name": "gameId",
							"type": "uint256"
						},
						{
							"indexed": false,
							"internalType": "address",
							"name": "caller",
							"type": "address"
						}
					],
					"name": "QueuedRefundPhase",
					"type": "event"
				},
				{
					"anonymous": false,
					"inputs": [
						{
							"indexed": true,
							"internalType": "uint256",
							"name": "gameId",
							"type": "uint256"
						},
						{
							"indexed": false,
							"internalType": "address",
							"name": "caller",
							"type": "address"
						}
					],
					"name": "QueuedScoringPhase",
					"type": "event"
				},
				{
					"inputs": [],
					"name": "CANT_FULFILL_YET",
					"type": "error"
				},
				{
					"inputs": [],
					"name": "FailedDeployment",
					"type": "error"
				},
				{
					"inputs": [],
					"name": "GAME_OVER",
					"type": "error"
				},
				{
					"inputs": [],
					"name": "INCORRECT_DECIMAL_AMOUNT",
					"type": "error"
				},
				{
					"inputs": [],
					"name": "INVALID_FEE_PERCENT",
					"type": "error"
				},
				{
					"inputs": [],
					"name": "INVALID_GAME_CONFIGURATION",
					"type": "error"
				},
				{
					"inputs": [
						{
							"internalType": "uint256",
							"name": "balance",
							"type": "uint256"
						},
						{
							"internalType": "uint256",
							"name": "needed",
							"type": "uint256"
						}
					],
					"name": "InsufficientBalance",
					"type": "error"
				},
				{
					"inputs": [],
					"name": "PHASE_ALREADY_QUEUED",
					"type": "error"
				},
				{
					"inputs": [],
					"name": "SPLITS_DONT_ADD_UP",
					"type": "error"
				},
				{
					"inputs": [],
					"name": "TERMINAL_NOT_FOUND",
					"type": "error"
				},
				{
					"inputs": [],
					"name": "UNEXPECTED_TERMINAL_CURRENCY",
					"type": "error"
				}
			],
			"args": [],
			"solcInputHash": "bbd52d6f4feb6ee413754f9f8639fe9c",
			"receipt": {
				"type": "0x2",
				"status": "0x1",
				"cumulativeGasUsed": "0x375d00",
				"logs": [
					{
						"address": "0xa2ea7657440875bf916cbfc0cfa88f13e38ad463",
						"topics": [
							"0x572f161235911da04685a68c06adf558fc7e4a36909dca394650e0adc19cc93d",
							"0x000000000000000000000000755ff2f75a0a586ecfa2b9a3c959cb662458a105",
							"0x000000000000000000000000f99fe00bf35369acadc62f2cf302c66fefbc7a11",
							"0x756bb2d339b5ec6e5760dfcfe17cbc4f07f9d225eb8bd58d2bfe82d0621e7723"
						],
						"data": "0x0000000000000000000000000000000000000000000000000000000000000000",
						"blockHash": "0x320d71d747ad9f23874d93aa3997fcdd6f1d25fce41406f6606c13364137a918",
						"blockNumber": "0x90de28",
						"blockTimestamp": "0x68fe0788",
						"transactionHash": "0x0ab372daa8d1620be2831be9c32180d4a8f83642b2289c5bed61551efd0909e0",
						"transactionIndex": "0x0",
						"logIndex": "0x0",
						"removed": false
					},
					{
						"address": "0xe22e214f8646eafd1c89ece0eb1d553de96af4a9",
						"topics": [
							"0x6895c13664aa4f67288b25d7a21d7aaa34916e355fb9b6fae0a139a9085becb8",
							"0x000000000000000000000000f99fe00bf35369acadc62f2cf302c66fefbc7a11"
						],
						"data": "0x",
						"blockHash": "0x320d71d747ad9f23874d93aa3997fcdd6f1d25fce41406f6606c13364137a918",
						"blockNumber": "0x90de28",
						"blockTimestamp": "0x68fe0788",
						"transactionHash": "0x0ab372daa8d1620be2831be9c32180d4a8f83642b2289c5bed61551efd0909e0",
						"transactionIndex": "0x0",
						"logIndex": "0x1",
						"removed": false
					},
					{
						"address": "0xf99fe00bf35369acadc62f2cf302c66fefbc7a11",
						"topics": [
							"0xa65fb05c5808f5f389d72edeaf719ce38f4cc55c1f69ca3cbfb31c21501caa07",
							"0xf08f9ca7dcb710bbe0f088e7fa547a30ed0560e0de626166d34dde93c2b21941"
						],
						"data": "0x0000000000000000000000000000000000000000000000000000000000000004",
						"blockHash": "0x320d71d747ad9f23874d93aa3997fcdd6f1d25fce41406f6606c13364137a918",
						"blockNumber": "0x90de28",
						"blockTimestamp": "0x68fe0788",
						"transactionHash": "0x0ab372daa8d1620be2831be9c32180d4a8f83642b2289c5bed61551efd0909e0",
						"transactionIndex": "0x0",
						"logIndex": "0x2",
						"removed": false
					}
				],
				"logsBloom": "0x00000000000010000400000000080000000000800000000400000000000000000800000000000000000000000040000000000000000000000000000000000010000004000000200000000000000000000000000000000800000000000000000000000000000000000000000000000000000000000000000020000000000000000800000000000000000104000000000000000020000000080000000000000000004000040000000000000000000000002200400000000000000008000004000000000002000000000000000000000000000000000000000000000000000000000000000020000000000000000000000200022000000080000000000000000000",
				"transactionHash": "0x0ab372daa8d1620be2831be9c32180d4a8f83642b2289c5bed61551efd0909e0",
				"transactionIndex": "0x0",
				"blockHash": "0x320d71d747ad9f23874d93aa3997fcdd6f1d25fce41406f6606c13364137a918",
				"blockNumber": "0x90de28",
				"gasUsed": "0x375d00",
				"effectiveGasPrice": "0x2cb53c780",
				"from": "0x755ff2f75a0a586ecfa2b9a3c959cb662458a105",
				"to": "0xa2ea7657440875bf916cbfc0cfa88f13e38ad463",
				"contractAddress": null
			},
			"bytecode": "0x61018034620001a657601f62003d8338819003918201601f19168301916001600160401b03831184841017620001aa5780849260e094604052833981010312620001a65780516001600160a01b038082168203620001a6576020830151928184168403620001a6576040810151928284168403620001a6576060820151918383168303620001a65760808101519384168403620001a65760c060a0820151910151916014600355601460045560e05261010095865261012094855261014092835261016093845260a05260c0523060805260405192613bc49485620001bf8639608051858181610561015261225e015260a0518581816115f3015281816121ed0152818161230b0152612959015260c0518581816115660152612921015260e051858181610d6d01526128db0152518481816101b90152611ff201525183818161187e01526128540152518281816101080152818161025d015281816105b601528181610b7b01528181610f2d01528181611833015281816122ad01528181612e32015281816134f90152818161359e01526138bc01525181818161078701526119200152f35b5f80fd5b634e487b7160e01b5f52604160045260245ffdfe60a0806040526004361015610012575f80fd5b5f6080525f3560e01c9081630134a03d14612944575080630549cb321461290a57806306b552b5146128c65780630715610a146128835780630c340a241461283f578063150b7a02146127ca5780632b8ddaf1146127ad578063721d8329146107d55780637990b35f146107b65780637b1039991461077057806381312a1414610584578063859bb4b214610548578063b07925d3146104cb578063b4dfb0861461020a578063b6674cde146101e8578063e131fc0c146101a2578063ea78803f1461016b578063f2ae5f6e1461013d5763f77c4791146100f1575f80fd5b3461013757608051366003190112610137576040517f00000000000000000000000000000000000000000000000000000000000000006001600160a01b03168152602090f35b60805180fd5b3461013757602036600319011261013757600435608051526005602052602060406080512054604051908152f35b346101375760203660031901126101375760043560805152608051602052602060018060a01b036040608051205416604051908152f35b3461013757608051366003190112610137576040517f00000000000000000000000000000000000000000000000000000000000000006001600160a01b03168152602090f35b34610137576020366003190112610137576102046004356134c4565b60805180f35b346101375760403660031901126101375760043560243580151581036103d95781608051526020608051815260018060a01b0392836040608051205416906040516388bc2ef360e01b81528381600481897f0000000000000000000000000000000000000000000000000000000000000000165afa9081156103e457608051916104ae575b50836040518092630862026560e41b82528189816102b189896004840161311b565b0392165afa80156103e457869160805191610491575b50604051633a01714f60e01b8152929116606083806102ea87866004840161311b565b0381845afa9283156103e45760805193610423575b5060405163507f146560e01b8152908582600481845afa9081156103e4578692608051926103f1575b50606490604051998a93849263467f4cb960e01b8452600484015286602484015261eeee6044840152165afa9081156103e457608051916103b0575b606096508195610389575b50508260ff91015116916040519384528301526040820152f35b60ff92955084916103a99160805152600583526040608051205490612f6a565b949161036f565b90508386813d83116103dd575b6103c78183612a7e565b810103126103d9576060955190610364565b5f80fd5b503d6103bd565b6040513d608051823e3d90fd5b606491925061041590843d861161041c575b61040d8183612a7e565b8101906130c9565b9190610328565b503d610403565b9092506060813d606011610489575b8161043f60609383612a7e565b810103126101375760405190610454826129ab565b61045d81612c66565b82528581015160ff81168103610137578287015261047d90604001612b6d565b604082015291876102ff565b3d9150610432565b6104a89150853d871161041c5761040d8183612a7e565b876102c7565b6104c59150843d861161041c5761040d8183612a7e565b8661028f565b346101375760203660031901126101375760043560805152608051602052606060406080512081604051916104ff836129c6565b5460018060a01b038116835265ffffffffffff8160a01c169283602082015262ffffff8260d01c169182604083015260e81c928391015260405192835260208301526040820152f35b34610137576080513660031901126101375760206040517f00000000000000000000000000000000000000000000000000000000000000008152f35b34610137576020806003193601126101375760405163d4a1b4b160e01b808252906001600160a01b03906004803591907f00000000000000000000000000000000000000000000000000000000000000008416908690839081845afa80156103e457849260805191610753575b50604051906321d1336160e11b825284600483015281602481610120988994165afa9586156103e457879160805197610717575b5060046040518094819382525afa9081156103e457608051916106fa575b506040519263855a54ed60e01b8452600484015282602481610140948594165afa9283156103e457608051936106b4575b5050508263ffffffff60808401511615159283610697575b506040518315158152f35b81015191015165ffffffffffff908116911614905082828161068c565b90809293503d83116106f3575b6106cb8185612a7e565b83019183830312610137576106e260069284612b7e565b920151101561013757838080610674565b503d6106c1565b6107119150863d881161041c5761040d8183612a7e565b86610643565b91509550843d861161074c575b61072e8183612a7e565b810190858183031261013757879161074591612b7e565b9588610625565b503d610724565b61076a9150873d891161041c5761040d8183612a7e565b876105f1565b3461013757608051366003190112610137576040517f00000000000000000000000000000000000000000000000000000000000000006001600160a01b03168152602090f35b3461013757608051366003190112610137576020600454604051908152f35b346103d95760203660031901126103d9576001600160401b03600435116103d957610240600435360360031901126103d95760405161020081016001600160401b03811182821017612799576040526004803501356001600160401b0381116103d957610849906004369181350101612abc565b8152600435602401356001600160401b0381116103d957610871906004369181350101612abc565b6020820152600435604401356001600160401b0381116103d95761089c906004369181350101612abc565b60408201526001600160401b0360043560640135116103d9576108c9366004803560648101350101612abc565b6060820152600435608401356001600160401b0381116103d95736602382600435010112156103d9576109026004828135010135612b02565b906109106040519283612a7e565b600480358201908101358084526020840192913660059290921b01602401116103d9576024816004350101915b6004803583019081013560051b0160240183106126aa5750505060808201526060600435360360a31901126103d957604051610978816129ab565b61098660a46004350161297c565b815260c4600435013560ff811681036103d95760208201526109ac60e460043501612b26565b604082015260a08201526109c561010460043501612b37565b60c08201526109d961012460043501612b37565b60e08201526109ed61014460043501612b47565b61010082015260043561016401356001600160401b0381116103d95760043501366023820112156103d957600481013590610a2782612b02565b91610a356040519384612a7e565b808352602083019136602460c08402830101116103d9579160248301925b602460c08402820101841061260357858561012082015261018460043501356101408201526101a46004350135610160820152610a956101c46004350161297c565b6101808201526004356101e401356001600160a01b03811690036103d9576004356101e48101356101a083015261020401356001600160a01b03811690036103d9576004356102048101356101c083015261022401356001600160a01b03811690036103d95760043561022401356101e082015261010081015165ffffffffffff1680612596575065ffffffffffff610b4862ffffff610b3b8160c08601511642612f6a565b9060e08501511690612f6a565b166101008201525b62ffffff60c08201511615801561255b575b6125495760405163293c499960e01b81526020816004817f00000000000000000000000000000000000000000000000000000000000000006001600160a01b03165afa908115612395575f91612506575b506040516306661abd60e01b815290602090829060049082906001600160a01b03165afa908115612395575f916124d4575b50600181018111611b1b5760018060a01b0360a0830151511662ffffff60c08401511662ffffff60e08501511665ffffffffffff6101008601511660405193610c2d856129c6565b8452602084019081526040840192835260608401918252600185015f525f60205260405f209360018060a01b039051169065ffffffffffff60a01b905160a01b169262ffffff60d01b905160d01b169162ffffff60e81b905160e81b1692171717905561012082015151806121a6575b5060808201515191610cae83612b02565b610cbb6040519182612a7e565b838152610cc784612b02565b6080515b601f198201811061211957505060808201515193610d01610ceb86612b02565b95610cf96040519788612a7e565b808752612b02565b6080515b601f1982018110612108575050604051610d1e81612990565b60608152608051602082015260805160408201526080516060820152608051608082015260a0608051910152608051506080515b8181106120295750506e5af43d82803e903d91602b57fd5bf37f0000000000000000000000000000000000000000000000000000000000000000763d602d80600a3d3981f3363d3d373d3d3d363d7300000062ffffff8260881c16176080515260781b1760205260018060a01b0360376009608051f016908115612017576101a08301516001600160a01b03168015611fef57945b8351608051909290600187018072184f03e93ff9f4daa797ed6e38ed64bf6a1f0160401b80821015611fde575b506904ee2d6d415b85acef8160201b80821015611fd1575b50662386f26fc1000080821015611fc4575b506305f5e10080821015611fb7575b5061271080821015611faa575b506064811015611f9c575b600a80911015611f92575b6001830191816021610e9a610e8486612aa1565b95610e926040519788612a7e565b808752612aa1565b602086019690601f19013688378501015b5f1901916f181899199a1a9b1b9c1cb0b131b232b360811b8282061a835304908115610ed8578290610eab565b5050506028610f1891610f089360405194859267444546494641202360c01b6020850152518092858501906130a8565b8101036008810184520182612a7e565b60405163d4a1b4b160e01b81526020816004817f00000000000000000000000000000000000000000000000000000000000000006001600160a01b03165afa9081156103e45760805191611f73575b506060870151604088015163ffffffff604060a08b01510151169160018060a01b036101e08b0151169360018060a01b036101808c015116958a3b156101375760405163114c4d6960e21b815260018e0160048201526101c0602482015299610fd5906101c48c01906130e8565b8a81036003190160448c0152610fea916130e8565b6001600160a01b0390911660648a01528881036003190160848a015261100f916130e8565b6001600160a01b038c1660a48901528781036003190160c4890152611033916130e8565b6003198782030160e488015284519081815260200194602001906080515b818110611e98575050506101048601526101248501523061014485015230610164850152610184840152600319838203016101a4840152815180825260208201916020808360051b830101940192608051915b838310611e6b5750505050508180608051920381608051865af180156103e457611e55575b506040516110d6816129e1565b600181526080515b60208110611e26575060a08301516110f582612fec565b526110ff81612fec565b506040519061110d826129e1565b600182526080515b60208110611e0f57506101c084015160405191906001600160a01b031661113b836129e1565b8252602082015261114b82612fec565b5261115581612fec565b5060e083015162ffffff161580159190611e07576003915b61117960ff8416612b02565b926111876040519485612a7e565b60ff16808452601f199061119a90612b02565b015f5b818110611d3a5750506111da6111ca65ffffffffffff6101008801511662ffffff60c08901511690613b52565b62ffffff60e08801511690613b52565b62ffffff60c08701511663ffffffff604060a089015101511661ffff611216604051611205816129e1565b608051815260016020820152613b6a565b166040519161122483612a2b565b6080518352608051602084015260408301526080516060830152608051608083015260805160a083015260805160c083015260805160e08301526080516101008301526080516101208301526080516101408301526080516101608301526080516101808301526080516101a08301526080516101c083015260016101e0830152600161020083015287610220830152610240820152604051906112c782612a63565b5f8252604051926112d784612a63565b5f845265ffffffffffff604051956112ee87612a47565b168552602085015260805160408501526080516060850152608051608085015260a084015260c083015260e082015261132684612fec565b5261133083612fec565b50600190611bcb575b60405190611346826129e1565b600182525f5b60208110611ba8575063ffffffff604060a088015101511660405190611371826129e1565b6001600160e01b038252602082015261138983612fec565b5261139382612fec565b50604051916113a1836129e1565b600183525f5b60208110611b7857506101c087015160a0880151516040516001600160a01b039283169390929091166113d983612a63565b5f8352604051936113e9856129c6565b845260208401526040830152606082015261140383612fec565b5261140d82612fec565b5065ffffffffffff6101008701511663ffffffff604060a08901510151169261ffff61145060405161143e816129e1565b60805181526080516020820152613b6a565b166040519461145e86612a2b565b60805186526080516020870152604086015260016060860152608051608086015260805160a086015260805160c086015260805160e086015260805161010086015260805161012086015260805161014086015260805161016086015260016101808601526080516101a08601526080516101c086015260016101e086015260016102008601528761022086015261024085015260018060a01b0360a08901515116936101208901519081519560805150608051600388018811611b03579261152960038901612f77565b608051909490915b898310611b2f57506115ce91506115c86003548d63ffffffff61155383613031565b16906040519161156283612990565b82527f00000000000000000000000000000000000000000000000000000000000000006001600160401b0316602083015260408201526080805160608301528051818301525160a08201526115b78c8961301d565b526115c28b8861301d565b50613031565b90612f6a565b6004549063ffffffff6115e083613031565b1691604051926115ef84612990565b83527f00000000000000000000000000000000000000000000000000000000000000006001600160401b03166020840152604083018d90526080805160608501528051818501525160a084015260018a0190818b11611b03576115c2826116649561165d6115c8958b61301d565b528861301d565b96633b9aca00978881810311611b1b5763ffffffff90604051996116878b612990565b031688526001808e016001600160401b031660208a01526080805160408b015260608a01919091528051818a01525160a0890152600281018111611b0357906116ee6002836117aa9c9b9a6116e6836117799c9b9a999897018861301d565b52018461301d565b506116f761306d565b9260405191611705836129e1565b8252602082015261171583612fec565b5261171f82612fec565b506040519361172d85612a47565b8452608051602085015260805160408501526080516060850152608051608085015260a084015260c083015260e08201526117678261310d565b50611772828661301d565b528361301d565b506117bc602086015192604051948594635c7465e560e01b865230600487015260a0602487015260a48601906130e8565b84810360031901604486015290613181565b600319838203016064840152815180825260208201916020808360051b830101940192608051915b838310611a6757505050505090604082752630bab731b434b733902232b334b3309033b0b6b29760511b6020848196039260031984016084870152601681520152018160805160018060a01b037f0000000000000000000000000000000000000000000000000000000000000000165af19081156103e45760805191611a35575b506001840103611a1d57610140820151610160909201517f00000000000000000000000000000000000000000000000000000000000000006001600160a01b03169290833b156101375760405163c543882f60e01b8152600186016004820152602481019290925260448201526080518160648183875af180156103e457611a07575b50803b156101375760405163f2fde38b60e01b8152600481018390526080518160248183865af180156103e4576119f1575b506001547f00000000000000000000000000000000000000000000000000000000000000006001600160a01b0316906119529061310d565b9081600155803b15610137576040519163b94417ab60e01b835230600484015260248301528160448160805193608051905af180156103e4576119db575b506020936040519060018060a01b0316815233858201527f3082991f3dda023098e5849ea3903c6fbfd657dc6f9232f5eb81ad8a7ba161d660406001860192a4600160405191018152f35b6119e4906129fc565b6080516101375784611990565b6119fa906129fc565b608051610137578461191a565b611a10906129fc565b60805161013757846118e8565b634e487b7160e01b6080515260016004526024608051fd5b90506020813d602011611a5f575b81611a5060209383612a7e565b810103126103d9575185611865565b3d9150611a43565b919395509193601f1982820301835285516020606081604085019360018060a01b038151168652015193604083820152845180945201920190608051905b808210611ac757505050602080600192970193019301909286959492936117e4565b9091926020606060019263ffffffff60408851868060a01b03815116845260ff8682015116868501520151166040820152019401920190611aa5565b634e487b7160e01b6080515260116004526024608051fd5b634e487b7160e01b5f52601160045260245ffd5b90611b6f600191611b40858561301d565b51611b4b868a61301d565b52611b56858961301d565b5063ffffffff611b66868661301d565b51511690612f6a565b92019190611531565b602090604051611b87816129c6565b5f81525f8382015260606040820152606080820152828287010152016113a7565b602090604051611bb7816129e1565b5f81525f838201528282860101520161134c565b50611bed65ffffffffffff6101008601511662ffffff60e08701511690613b52565b62ffffff60e08601511663ffffffff604060a088015101511661ffff611c18604051611205816129e1565b1660405191611c2683612a2b565b60805183526080516020840152604083015260016060830152608051608083015260805160a083015260805160c083015260805160e08301526080516101008301526080516101208301526080516101408301526080516101608301526080516101808301526080516101a08301526080516101c083015260016101e083015260016102008301528661022083015261024082015260405190611cc882612a63565b5f825260405192611cd884612a63565b5f845265ffffffffffff60405195611cef87612a47565b168552602085015260805160408501526080516060850152608051608085015260a084015260c083015260e0820152600290611d2a8461300d565b52611d348361300d565b50611339565b602090604051611d4981612a47565b5f81525f838201525f60408201525f60608201525f6080820152604051611d6f81612a2b565b5f81525f848201525f60408201525f60608201525f60808201525f60a08201525f60c08201525f60e08201525f6101008201525f6101208201525f6101408201525f6101608201525f6101808201525f6101a08201525f6101c08201525f6101e08201525f6102008201525f6102208201525f61024082015260a0820152606060c0820152606060e08201528282880101520161119d565b60029161116d565b602090611e1a613054565b82828601015201611115565b602090604051611e35816129ab565b6080518152608051838201526080516040820152828285010152016110de565b611e5e906129fc565b60805161013757846110c9565b9091929394602080611e89600193601f1986820301875289516130e8565b970193019301919392906110a4565b90919560206101c06001926101a08a51858060681b03815116835263ffffffff85820151168584015263ffffffff604082015116604084015261ffff6060820151166060840152858060a01b03608082015116608084015260a081015160a084015262ffffff60c08201511660c084015260ff60e08201511660e084015261010081015115156101008401526101208101511515610120840152610140810151151561014084015261016081015115156101608401526101808101511515610180840152015115156101a08201520197019101919091611051565b611f8c915060203d60201161041c5761040d8183612a7e565b89610f67565b9160010191610e70565b606460029104920191610e65565b600491049201918a610e5a565b600891049201918a610e4d565b601091049201918a610e3e565b602091049201918a610e2c565b6040935060018a010490508a610e14565b507f000000000000000000000000000000000000000000000000000000000000000094610de7565b60405163b06ebf3d60e01b8152600490fd5b8061203a600192608087015161301d565b51828060501b0360208201511661ffff604083015116848060a01b0360608401511660808401519060a08501511515926040519461207786612a0f565b8552633b9ac9ff60208601528760408601526060850152608084015260a083015260805160c083015260805160e08301526080516101008301526101208201526080516101408201528361016082015283610180820152836101a08201526120df838761301d565b526120ea828661301d565b50516120f6828961301d565b52612101818861301d565b5001610d52565b806060602080938a01015201610d05565b60209060405161212881612a0f565b60805181526080518382015260805160408201526080516060820152608051608082015260805160a082015260805160c082015260805160e08201526080516101008201526080516101208201526080516101408201526080516101608201526080516101808201526080516101a082015282828601015201610ccb565b600181018111611b1b576121bc60018201612f77565b905f5b8181106124a557506122459063ffffffff6121db600454613031565b16604051906121e982612990565b81527f00000000000000000000000000000000000000000000000000000000000000006001600160401b031660208201523060408201525f606082018190526080820181905260a082015261223e828561301d565b528261301d565b5061224e61306d565b906040519061225c826129e1565b7f00000000000000000000000000000000000000000000000000000000000000008252602082015261228d82612fec565b5261229781612fec565b50604051631f47ce6960e01b81526020816004817f00000000000000000000000000000000000000000000000000000000000000006001600160a01b03165afa908115612395575f91612463575b506001600160a01b0381163b156103d9576040518092638a36dffd60e01b8252606482017f000000000000000000000000000000000000000000000000000000000000000060048401526001860160248401526060604484015281518091526084830190602060848260051b8601019301915f905b8282106123a0575050505091815f818195039260018060a01b03165af180156123955715610c9d5761238b906129fc565b5f60805282610c9d565b6040513d5f823e3d90fd5b919390929450608319878203018252845160206060816040850193805186520151936040838201528451809452019201905f905b8082106123f457505050602080600192960192019201869493919261235a565b909192602060c0600192865163ffffffff8151168252848060401b03848201511684830152848060a01b03604082015116604083015260608101511515606083015265ffffffffffff608082015116608083015260a08580821b039101511660a08201520194019201906123d4565b90506020813d60201161249d575b8161247e60209383612a7e565b810103126103d957516001600160a01b03811681036103d957846122e5565b3d9150612471565b806124b760019261012088015161301d565b516124c2828661301d565b526124cd818561301d565b50016121bf565b90506020813d6020116124fe575b816124ef60209383612a7e565b810103126103d9575182610be5565b3d91506124e2565b90506020813d602011612541575b8161252160209383612a7e565b810103126103d957516001600160a01b03811681036103d9576020610bb3565b3d9150612514565b604051633a7c40a160e11b8152600490fd5b5065ffffffffffff6101008201511661259061258062ffffff60e08501511642612f6a565b62ffffff60c08501511690612f6a565b11610b62565b62ffffff60c0830151161590816125e7575b5015610b505765ffffffffffff610100820151166125cf62ffffff60e08401511642612f6a565b8103908111611b1b5762ffffff1660c0820152610b50565b90506125fc62ffffff60e08401511642612f6a565b10826125a8565b60c0843603126103d95760405161261981612990565b61262285612b26565b815260208501356001600160401b03811681036103d95760208201526001600160a01b03604086013581811681036103d957604083015261266560608701612b19565b606083015261267660808701612b47565b608083015260a086013590811690036103d95760c06020602494829360a089013560a0820152815201950194925050610a53565b82356001600160401b0381116103d95760c060043584018201360360231901126103d957604051916126db83612990565b60043584018201602401356001600160401b0381116103d95761270a9060243691858860043501010101612abc565b835260043584018201604401356001600160501b03811681036103d9576020840152600435840182016064013561ffff811690036103d95760209261278960c484606487968960043501010135604085015261276e6084828a60043501010161297c565b606085015260043588010160a4810135608085015201612b19565b60a082015281520192019161093d565b634e487b7160e01b5f52604160045260245ffd5b346103d9575f3660031901126103d9576020600354604051908152f35b346103d95760803660031901126103d9576001600160a01b03600435818116036103d957602435908116036103d9576064356001600160401b038082116103d957366023830112156103d95781600401359081116103d957369101602401116103d957604051630a85bd0160e11b8152602090f35b346103d9575f3660031901126103d9576040517f00000000000000000000000000000000000000000000000000000000000000006001600160a01b03168152602090f35b346103d95760203660031901126103d95761289f600435612e0b565b60405160078210156128b2576020918152f35b634e487b7160e01b5f52602160045260245ffd5b346103d9575f3660031901126103d9576040517f00000000000000000000000000000000000000000000000000000000000000006001600160a01b03168152602090f35b346103d9575f3660031901126103d95760206040517f00000000000000000000000000000000000000000000000000000000000000008152f35b346103d9575f3660031901126103d9576020907f00000000000000000000000000000000000000000000000000000000000000008152f35b35906001600160a01b03821682036103d957565b60c081019081106001600160401b0382111761279957604052565b606081019081106001600160401b0382111761279957604052565b608081019081106001600160401b0382111761279957604052565b604081019081106001600160401b0382111761279957604052565b6001600160401b03811161279957604052565b6101c081019081106001600160401b0382111761279957604052565b61026081019081106001600160401b0382111761279957604052565b61010081019081106001600160401b0382111761279957604052565b602081019081106001600160401b0382111761279957604052565b601f909101601f19168101906001600160401b0382119082101761279957604052565b6001600160401b03811161279957601f01601f191660200190565b81601f820112156103d957803590612ad382612aa1565b92612ae16040519485612a7e565b828452602083830101116103d957815f926020809301838601378301015290565b6001600160401b0381116127995760051b60200190565b359081151582036103d957565b359063ffffffff821682036103d957565b359062ffffff821682036103d957565b359065ffffffffffff821682036103d957565b519065ffffffffffff821682036103d957565b519063ffffffff821682036103d957565b80929161012091829103126103d9576040519081016001600160401b03811182821017612799576040528092612bb381612b5a565b8252612bc160208201612b5a565b6020830152612bd260408201612b5a565b6040830152612be360608201612b5a565b6060830152612bf460808201612b6d565b608083015260a08101516001600160701b03811681036103d95760a0830152612c1f60c08201612b6d565b60c083015260e08101516001600160a01b03811681036103d95760e083015261010080910151910152565b519061ffff821682036103d957565b519081151582036103d957565b51906001600160a01b03821682036103d957565b91908281039061038082126103d957612c939084612b7e565b9261012090610260809361011f1901126103d95760405192612cb484612a2b565b612cbf828401612c4a565b8452610140612ccf838201612c4a565b6020860152610160612ce2848201612b6d565b6040870152610180612cf5858201612c59565b60608801526101a0612d08868201612c59565b60808901526101c091612d1c878401612c59565b60a08a01526101e093612d30888601612c59565b60c08b015261020095612d44898801612c59565b60e08c015261022097612d588a8a01612c59565b6101008d01526102409a612d6d8b8d01612c59565b908d01528901612d7c90612c59565b908b0152612d8d6102808901612c59565b908a0152612d9e6102a08801612c59565b90890152612daf6102c08701612c59565b90880152612dc06102e08601612c59565b90870152612dd16103008501612c59565b90860152612de26103208401612c59565b90850152612df36103408301612c66565b9084015261036001612e0490612c4a565b9082015290565b6040516320c94b1360e11b8152600481018290526001600160a01b039161038080836024817f000000000000000000000000000000000000000000000000000000000000000088165afa928315612395575f915f94612f34575b50505165ffffffffffff168015612f2c5760018114612f23576002149081612f0b575b50612f0457610220015160405163d3fef14360e01b81529160209183916004918391165afa908115612395575f91612eca575b50612ec557600390565b600490565b90506020813d602011612efc575b81612ee560209383612a7e565b810103126103d957612ef690612c59565b5f612ebb565b3d9150612ed8565b5050600290565b90505f525f60205260405f205460e81c15155f612e88565b50505050600190565b505050505f90565b65ffffffffffff9450612f5c9250803d10612f63575b612f548183612a7e565b810190612c7a565b925f612e65565b503d612f4a565b91908201809211611b1b57565b90612f8182612b02565b604090612f916040519182612a7e565b8381528093612fa2601f1991612b02565b01915f5b838110612fb35750505050565b6020908251612fc181612990565b5f8152825f818301525f858301525f60608301525f60808301525f60a0830152828601015201612fa6565b805115612ff95760200190565b634e487b7160e01b5f52603260045260245ffd5b805160011015612ff95760400190565b8051821015612ff95760209160051b010190565b801561304057633b9aca000490565b634e487b7160e01b5f52601260045260245ffd5b60405190613061826129e1565b60606020835f81520152565b6040519061307a826129e1565b60018252815f5b602090818110156130a357602091613097613054565b90828501015201613081565b505050565b5f5b8381106130b95750505f910152565b81810151838201526020016130aa565b908160209103126103d957516001600160a01b03811681036103d95790565b90602091613101815180928185528580860191016130a8565b601f01601f1916010190565b5f198114611b1b5760010190565b9081526001600160a01b03909116602082015260400190565b9081518082526020808093019301915f5b828110613153575050505090565b835180516001600160e01b0316865282015163ffffffff168583015260409094019392810192600101613145565b9080602083519182815201916020808360051b8301019401925f915b8383106131ac57505050505090565b9091929394601f19828203018352855165ffffffffffff815116825263ffffffff602082015116602083015260018060701b03604082015116604083015263ffffffff6060820151166060830152608081015160018060a01b0316608083015261ffff60a08201518181511660a08501528160208201511660c085015263ffffffff60408201511660e08501526060810151906101009115158286015260808101516101209015158187015260a0820151926101409315158488015260c08301516101609015158189015260e084015191610180921515838a0152840151926101a0931515848a0152840151946101c0951515868a0152840151906101e0911515828a015284015191610200921515838a015284015192610220931515848a015284015194610240951515868a01528401511515610260890152830151151561028088015282015115156102a087015260018060a01b0390820151166102c08601520151166102e083015260c0810151906103406103008401528151806103408501526103606020818601918360051b8701019401915f5b818110613404575050505060e0015191610320818303910152815180825260208201906020808260051b8501019401925f5b8281106133975750505050506020806001929701930193019193929061319d565b90919293946020806133f7600193601f19878203018952895190858060a01b038251168152858060a01b0384830151168482015260606133e66040840151608060408501526080840190613134565b920151906060818403910152613134565b9701950193929101613376565b9091929461035f19878203018452855160206060816040850193805186520151936040838201528451809452019201905f905b80821061345557505050602080600192970194019101919091613344565b909192602060c0600192865163ffffffff8151168252848060401b03848201511684830152848060a01b03604082015116604083015260608101511515606083015265ffffffffffff608082015116608083015260a08580821b039101511660a0820152019401920190613437565b805f52600560205260405f208054613b4e57600190556040516320c94b1360e11b8152600481018290526103809081816024817f00000000000000000000000000000000000000000000000000000000000000006001600160a01b03165afa918215612395575f92613b2f575b50506102208181015160405163d3fef14360e01b815291929190602090829060049082906001600160a01b03165afa908115612395575f91613af5575b5015613ae357825f525f60205260405f205490604051926388bc2ef360e01b845260208460048160018060a01b037f0000000000000000000000000000000000000000000000000000000000000000165afa938415612395575f94613ac2575b50604051630862026560e41b815293602090859081806135fb6001600160a01b0389168b6004840161311b565b03916001600160a01b03165afa938415612395575f94613aa1575b5060405163507f146560e01b8152936020856004816001600160a01b0385165afa948515612395576064956020915f91613a84575b5060405163467f4cb960e01b81526001600160a01b038481166004830152602482018a905287811660448301529097889290918391165afa948515612395575f95613a4f575b505f906020906001600160a01b03861661eeee03613a405760a463ffffffff604087015116965b60405163cfaf583960e01b8152600481018b90526001600160a01b039182166024820152604481018a905263ffffffff9889166064820152608481018a90529485938492165af1801561239557613a15575b5060405192613718846129e1565b600184525f5b6020811061394d57509161387a9391602093604083015116918160018060a01b039101511661ffff613762604051613755816129e1565b5f81525f88820152613b6a565b16916040519361377185612a2b565b5f85525f878601526040850152600160608501525f60808501525f60a08501525f60c08501525f60e08501525f6101008501525f6101208501525f6101408501525f61016085015260016101808501525f6101a08501525f6101c085015260016101e085015260016102008501528301526102408201526040516137f481612a63565b5f81526040519061380482612a63565b5f82526040519261381484612a47565b5f84525f868501525f60408501525f60608501525f608085015260a084015260c083015260e082015261384682612fec565b5261385081612fec565b50604080516303141db760e41b815260048101879052606060248201529384926064840190613181565b8281036003198101604485015260198252782232b334b3309033b0b6b2903430b9903334b734b9b432b21760391b9185019190915201815f6001600160a01b037f0000000000000000000000000000000000000000000000000000000000000000165af1801561239557613922575b5061391d7fe5d1da1fa18899cfe28f941d7fc5ecd5b8429a787f4f8db4313280d644fcc40f9160405191829133908361311b565b0390a2565b602090813d8311613946575b6139388183612a7e565b810103126103d9575f6138e9565b503d61392e565b60209060405161395c81612a47565b5f81525f838201525f604082015260605f8183015260805f818401528160a0915f6040519161398a83612a2b565b818352818984015281604084015281848401528201525f8382015260c0905f8282015260e0935f858301525f6101008301525f6101208301525f6101408301525f6101608301525f6101808301525f6101a08301525f6101c08301525f6101e08301525f6102008301525f8b8301525f6102408301528601528401528201528282880101520161371e565b602090813d8311613a39575b613a2b8183612a7e565b810103126103d9575f61370a565b503d613a21565b60a463ffffffff8716966136b8565b9094506020813d602011613a7c575b81613a6b60209383612a7e565b810103126103d95751936020613691565b3d9150613a5e565b613a9b9150823d841161041c5761040d8183612a7e565b5f61364b565b613abb91945060203d60201161041c5761040d8183612a7e565b925f613616565b613adc91945060203d60201161041c5761040d8183612a7e565b925f6135ce565b6040516366954d0b60e01b8152600490fd5b90506020813d602011613b27575b81613b1060209383612a7e565b810103126103d957613b2190612c59565b5f61356e565b3d9150613b03565b613b459250803d10612f6357612f548183612a7e565b90505f80613531565b5050565b65ffffffffffff9182169082160391908211611b1b57565b905f918051613b85575b60200151613b7e57565b9060021790565b60019250613b7456fea2646970667358221220503dbee01c268b0877d5eb4ecbfaedea78f257ac1a8caff0d18b5712f75001d364736f6c63430008170033",
			"deployedBytecode": "0x60a0806040526004361015610012575f80fd5b5f6080525f3560e01c9081630134a03d14612944575080630549cb321461290a57806306b552b5146128c65780630715610a146128835780630c340a241461283f578063150b7a02146127ca5780632b8ddaf1146127ad578063721d8329146107d55780637990b35f146107b65780637b1039991461077057806381312a1414610584578063859bb4b214610548578063b07925d3146104cb578063b4dfb0861461020a578063b6674cde146101e8578063e131fc0c146101a2578063ea78803f1461016b578063f2ae5f6e1461013d5763f77c4791146100f1575f80fd5b3461013757608051366003190112610137576040517f00000000000000000000000027da30646502e2f642be5281322ae8c394f7668a6001600160a01b03168152602090f35b60805180fd5b3461013757602036600319011261013757600435608051526005602052602060406080512054604051908152f35b346101375760203660031901126101375760043560805152608051602052602060018060a01b036040608051205416604051908152f35b3461013757608051366003190112610137576040517f00000000000000000000000057c110647675bb935f8e0b417fe7f64475718e946001600160a01b03168152602090f35b34610137576020366003190112610137576102046004356134c4565b60805180f35b346101375760403660031901126101375760043560243580151581036103d95781608051526020608051815260018060a01b0392836040608051205416906040516388bc2ef360e01b81528381600481897f00000000000000000000000027da30646502e2f642be5281322ae8c394f7668a165afa9081156103e457608051916104ae575b50836040518092630862026560e41b82528189816102b189896004840161311b565b0392165afa80156103e457869160805191610491575b50604051633a01714f60e01b8152929116606083806102ea87866004840161311b565b0381845afa9283156103e45760805193610423575b5060405163507f146560e01b8152908582600481845afa9081156103e4578692608051926103f1575b50606490604051998a93849263467f4cb960e01b8452600484015286602484015261eeee6044840152165afa9081156103e457608051916103b0575b606096508195610389575b50508260ff91015116916040519384528301526040820152f35b60ff92955084916103a99160805152600583526040608051205490612f6a565b949161036f565b90508386813d83116103dd575b6103c78183612a7e565b810103126103d9576060955190610364565b5f80fd5b503d6103bd565b6040513d608051823e3d90fd5b606491925061041590843d861161041c575b61040d8183612a7e565b8101906130c9565b9190610328565b503d610403565b9092506060813d606011610489575b8161043f60609383612a7e565b810103126101375760405190610454826129ab565b61045d81612c66565b82528581015160ff81168103610137578287015261047d90604001612b6d565b604082015291876102ff565b3d9150610432565b6104a89150853d871161041c5761040d8183612a7e565b876102c7565b6104c59150843d861161041c5761040d8183612a7e565b8661028f565b346101375760203660031901126101375760043560805152608051602052606060406080512081604051916104ff836129c6565b5460018060a01b038116835265ffffffffffff8160a01c169283602082015262ffffff8260d01c169182604083015260e81c928391015260405192835260208301526040820152f35b34610137576080513660031901126101375760206040517f000000000000000000000000aa1c5d7bee4cc88523286774dffeab26687ec0ff8152f35b34610137576020806003193601126101375760405163d4a1b4b160e01b808252906001600160a01b03906004803591907f00000000000000000000000027da30646502e2f642be5281322ae8c394f7668a8416908690839081845afa80156103e457849260805191610753575b50604051906321d1336160e11b825284600483015281602481610120988994165afa9586156103e457879160805197610717575b5060046040518094819382525afa9081156103e457608051916106fa575b506040519263855a54ed60e01b8452600484015282602481610140948594165afa9283156103e457608051936106b4575b5050508263ffffffff60808401511615159283610697575b506040518315158152f35b81015191015165ffffffffffff908116911614905082828161068c565b90809293503d83116106f3575b6106cb8185612a7e565b83019183830312610137576106e260069284612b7e565b920151101561013757838080610674565b503d6106c1565b6107119150863d881161041c5761040d8183612a7e565b86610643565b91509550843d861161074c575b61072e8183612a7e565b810190858183031261013757879161074591612b7e565b9588610625565b503d610724565b61076a9150873d891161041c5761040d8183612a7e565b876105f1565b3461013757608051366003190112610137576040517f0000000000000000000000002d9b78cb37ca724cfb9b32cd8e9a5dc1c88bc7bb6001600160a01b03168152602090f35b3461013757608051366003190112610137576020600454604051908152f35b346103d95760203660031901126103d9576001600160401b03600435116103d957610240600435360360031901126103d95760405161020081016001600160401b03811182821017612799576040526004803501356001600160401b0381116103d957610849906004369181350101612abc565b8152600435602401356001600160401b0381116103d957610871906004369181350101612abc565b6020820152600435604401356001600160401b0381116103d95761089c906004369181350101612abc565b60408201526001600160401b0360043560640135116103d9576108c9366004803560648101350101612abc565b6060820152600435608401356001600160401b0381116103d95736602382600435010112156103d9576109026004828135010135612b02565b906109106040519283612a7e565b600480358201908101358084526020840192913660059290921b01602401116103d9576024816004350101915b6004803583019081013560051b0160240183106126aa5750505060808201526060600435360360a31901126103d957604051610978816129ab565b61098660a46004350161297c565b815260c4600435013560ff811681036103d95760208201526109ac60e460043501612b26565b604082015260a08201526109c561010460043501612b37565b60c08201526109d961012460043501612b37565b60e08201526109ed61014460043501612b47565b61010082015260043561016401356001600160401b0381116103d95760043501366023820112156103d957600481013590610a2782612b02565b91610a356040519384612a7e565b808352602083019136602460c08402830101116103d9579160248301925b602460c08402820101841061260357858561012082015261018460043501356101408201526101a46004350135610160820152610a956101c46004350161297c565b6101808201526004356101e401356001600160a01b03811690036103d9576004356101e48101356101a083015261020401356001600160a01b03811690036103d9576004356102048101356101c083015261022401356001600160a01b03811690036103d95760043561022401356101e082015261010081015165ffffffffffff1680612596575065ffffffffffff610b4862ffffff610b3b8160c08601511642612f6a565b9060e08501511690612f6a565b166101008201525b62ffffff60c08201511615801561255b575b6125495760405163293c499960e01b81526020816004817f00000000000000000000000027da30646502e2f642be5281322ae8c394f7668a6001600160a01b03165afa908115612395575f91612506575b506040516306661abd60e01b815290602090829060049082906001600160a01b03165afa908115612395575f916124d4575b50600181018111611b1b5760018060a01b0360a0830151511662ffffff60c08401511662ffffff60e08501511665ffffffffffff6101008601511660405193610c2d856129c6565b8452602084019081526040840192835260608401918252600185015f525f60205260405f209360018060a01b039051169065ffffffffffff60a01b905160a01b169262ffffff60d01b905160d01b169162ffffff60e81b905160e81b1692171717905561012082015151806121a6575b5060808201515191610cae83612b02565b610cbb6040519182612a7e565b838152610cc784612b02565b6080515b601f198201811061211957505060808201515193610d01610ceb86612b02565b95610cf96040519788612a7e565b808752612b02565b6080515b601f1982018110612108575050604051610d1e81612990565b60608152608051602082015260805160408201526080516060820152608051608082015260a0608051910152608051506080515b8181106120295750506e5af43d82803e903d91602b57fd5bf37f0000000000000000000000009f8e41fdb2447fcebfffdc97387ac72b523e9fc3763d602d80600a3d3981f3363d3d373d3d3d363d7300000062ffffff8260881c16176080515260781b1760205260018060a01b0360376009608051f016908115612017576101a08301516001600160a01b03168015611fef57945b8351608051909290600187018072184f03e93ff9f4daa797ed6e38ed64bf6a1f0160401b80821015611fde575b506904ee2d6d415b85acef8160201b80821015611fd1575b50662386f26fc1000080821015611fc4575b506305f5e10080821015611fb7575b5061271080821015611faa575b506064811015611f9c575b600a80911015611f92575b6001830191816021610e9a610e8486612aa1565b95610e926040519788612a7e565b808752612aa1565b602086019690601f19013688378501015b5f1901916f181899199a1a9b1b9c1cb0b131b232b360811b8282061a835304908115610ed8578290610eab565b5050506028610f1891610f089360405194859267444546494641202360c01b6020850152518092858501906130a8565b8101036008810184520182612a7e565b60405163d4a1b4b160e01b81526020816004817f00000000000000000000000027da30646502e2f642be5281322ae8c394f7668a6001600160a01b03165afa9081156103e45760805191611f73575b506060870151604088015163ffffffff604060a08b01510151169160018060a01b036101e08b0151169360018060a01b036101808c015116958a3b156101375760405163114c4d6960e21b815260018e0160048201526101c0602482015299610fd5906101c48c01906130e8565b8a81036003190160448c0152610fea916130e8565b6001600160a01b0390911660648a01528881036003190160848a015261100f916130e8565b6001600160a01b038c1660a48901528781036003190160c4890152611033916130e8565b6003198782030160e488015284519081815260200194602001906080515b818110611e98575050506101048601526101248501523061014485015230610164850152610184840152600319838203016101a4840152815180825260208201916020808360051b830101940192608051915b838310611e6b5750505050508180608051920381608051865af180156103e457611e55575b506040516110d6816129e1565b600181526080515b60208110611e26575060a08301516110f582612fec565b526110ff81612fec565b506040519061110d826129e1565b600182526080515b60208110611e0f57506101c084015160405191906001600160a01b031661113b836129e1565b8252602082015261114b82612fec565b5261115581612fec565b5060e083015162ffffff161580159190611e07576003915b61117960ff8416612b02565b926111876040519485612a7e565b60ff16808452601f199061119a90612b02565b015f5b818110611d3a5750506111da6111ca65ffffffffffff6101008801511662ffffff60c08901511690613b52565b62ffffff60e08801511690613b52565b62ffffff60c08701511663ffffffff604060a089015101511661ffff611216604051611205816129e1565b608051815260016020820152613b6a565b166040519161122483612a2b565b6080518352608051602084015260408301526080516060830152608051608083015260805160a083015260805160c083015260805160e08301526080516101008301526080516101208301526080516101408301526080516101608301526080516101808301526080516101a08301526080516101c083015260016101e0830152600161020083015287610220830152610240820152604051906112c782612a63565b5f8252604051926112d784612a63565b5f845265ffffffffffff604051956112ee87612a47565b168552602085015260805160408501526080516060850152608051608085015260a084015260c083015260e082015261132684612fec565b5261133083612fec565b50600190611bcb575b60405190611346826129e1565b600182525f5b60208110611ba8575063ffffffff604060a088015101511660405190611371826129e1565b6001600160e01b038252602082015261138983612fec565b5261139382612fec565b50604051916113a1836129e1565b600183525f5b60208110611b7857506101c087015160a0880151516040516001600160a01b039283169390929091166113d983612a63565b5f8352604051936113e9856129c6565b845260208401526040830152606082015261140383612fec565b5261140d82612fec565b5065ffffffffffff6101008701511663ffffffff604060a08901510151169261ffff61145060405161143e816129e1565b60805181526080516020820152613b6a565b166040519461145e86612a2b565b60805186526080516020870152604086015260016060860152608051608086015260805160a086015260805160c086015260805160e086015260805161010086015260805161012086015260805161014086015260805161016086015260016101808601526080516101a08601526080516101c086015260016101e086015260016102008601528761022086015261024085015260018060a01b0360a08901515116936101208901519081519560805150608051600388018811611b03579261152960038901612f77565b608051909490915b898310611b2f57506115ce91506115c86003548d63ffffffff61155383613031565b16906040519161156283612990565b82527f00000000000000000000000000000000000000000000000000000000000000016001600160401b0316602083015260408201526080805160608301528051818301525160a08201526115b78c8961301d565b526115c28b8861301d565b50613031565b90612f6a565b6004549063ffffffff6115e083613031565b1691604051926115ef84612990565b83527f00000000000000000000000000000000000000000000000000000000000000036001600160401b03166020840152604083018d90526080805160608501528051818501525160a084015260018a0190818b11611b03576115c2826116649561165d6115c8958b61301d565b528861301d565b96633b9aca00978881810311611b1b5763ffffffff90604051996116878b612990565b031688526001808e016001600160401b031660208a01526080805160408b015260608a01919091528051818a01525160a0890152600281018111611b0357906116ee6002836117aa9c9b9a6116e6836117799c9b9a999897018861301d565b52018461301d565b506116f761306d565b9260405191611705836129e1565b8252602082015261171583612fec565b5261171f82612fec565b506040519361172d85612a47565b8452608051602085015260805160408501526080516060850152608051608085015260a084015260c083015260e08201526117678261310d565b50611772828661301d565b528361301d565b506117bc602086015192604051948594635c7465e560e01b865230600487015260a0602487015260a48601906130e8565b84810360031901604486015290613181565b600319838203016064840152815180825260208201916020808360051b830101940192608051915b838310611a6757505050505090604082752630bab731b434b733902232b334b3309033b0b6b29760511b6020848196039260031984016084870152601681520152018160805160018060a01b037f00000000000000000000000027da30646502e2f642be5281322ae8c394f7668a165af19081156103e45760805191611a35575b506001840103611a1d57610140820151610160909201517f000000000000000000000000f6ae3f8bb41b55ae23412c64fdb135c0f6cb86ae6001600160a01b03169290833b156101375760405163c543882f60e01b8152600186016004820152602481019290925260448201526080518160648183875af180156103e457611a07575b50803b156101375760405163f2fde38b60e01b8152600481018390526080518160248183865af180156103e4576119f1575b506001547f0000000000000000000000002d9b78cb37ca724cfb9b32cd8e9a5dc1c88bc7bb6001600160a01b0316906119529061310d565b9081600155803b15610137576040519163b94417ab60e01b835230600484015260248301528160448160805193608051905af180156103e4576119db575b506020936040519060018060a01b0316815233858201527f3082991f3dda023098e5849ea3903c6fbfd657dc6f9232f5eb81ad8a7ba161d660406001860192a4600160405191018152f35b6119e4906129fc565b6080516101375784611990565b6119fa906129fc565b608051610137578461191a565b611a10906129fc565b60805161013757846118e8565b634e487b7160e01b6080515260016004526024608051fd5b90506020813d602011611a5f575b81611a5060209383612a7e565b810103126103d9575185611865565b3d9150611a43565b919395509193601f1982820301835285516020606081604085019360018060a01b038151168652015193604083820152845180945201920190608051905b808210611ac757505050602080600192970193019301909286959492936117e4565b9091926020606060019263ffffffff60408851868060a01b03815116845260ff8682015116868501520151166040820152019401920190611aa5565b634e487b7160e01b6080515260116004526024608051fd5b634e487b7160e01b5f52601160045260245ffd5b90611b6f600191611b40858561301d565b51611b4b868a61301d565b52611b56858961301d565b5063ffffffff611b66868661301d565b51511690612f6a565b92019190611531565b602090604051611b87816129c6565b5f81525f8382015260606040820152606080820152828287010152016113a7565b602090604051611bb7816129e1565b5f81525f838201528282860101520161134c565b50611bed65ffffffffffff6101008601511662ffffff60e08701511690613b52565b62ffffff60e08601511663ffffffff604060a088015101511661ffff611c18604051611205816129e1565b1660405191611c2683612a2b565b60805183526080516020840152604083015260016060830152608051608083015260805160a083015260805160c083015260805160e08301526080516101008301526080516101208301526080516101408301526080516101608301526080516101808301526080516101a08301526080516101c083015260016101e083015260016102008301528661022083015261024082015260405190611cc882612a63565b5f825260405192611cd884612a63565b5f845265ffffffffffff60405195611cef87612a47565b168552602085015260805160408501526080516060850152608051608085015260a084015260c083015260e0820152600290611d2a8461300d565b52611d348361300d565b50611339565b602090604051611d4981612a47565b5f81525f838201525f60408201525f60608201525f6080820152604051611d6f81612a2b565b5f81525f848201525f60408201525f60608201525f60808201525f60a08201525f60c08201525f60e08201525f6101008201525f6101208201525f6101408201525f6101608201525f6101808201525f6101a08201525f6101c08201525f6101e08201525f6102008201525f6102208201525f61024082015260a0820152606060c0820152606060e08201528282880101520161119d565b60029161116d565b602090611e1a613054565b82828601015201611115565b602090604051611e35816129ab565b6080518152608051838201526080516040820152828285010152016110de565b611e5e906129fc565b60805161013757846110c9565b9091929394602080611e89600193601f1986820301875289516130e8565b970193019301919392906110a4565b90919560206101c06001926101a08a51858060681b03815116835263ffffffff85820151168584015263ffffffff604082015116604084015261ffff6060820151166060840152858060a01b03608082015116608084015260a081015160a084015262ffffff60c08201511660c084015260ff60e08201511660e084015261010081015115156101008401526101208101511515610120840152610140810151151561014084015261016081015115156101608401526101808101511515610180840152015115156101a08201520197019101919091611051565b611f8c915060203d60201161041c5761040d8183612a7e565b89610f67565b9160010191610e70565b606460029104920191610e65565b600491049201918a610e5a565b600891049201918a610e4d565b601091049201918a610e3e565b602091049201918a610e2c565b6040935060018a010490508a610e14565b507f00000000000000000000000057c110647675bb935f8e0b417fe7f64475718e9494610de7565b60405163b06ebf3d60e01b8152600490fd5b8061203a600192608087015161301d565b51828060501b0360208201511661ffff604083015116848060a01b0360608401511660808401519060a08501511515926040519461207786612a0f565b8552633b9ac9ff60208601528760408601526060850152608084015260a083015260805160c083015260805160e08301526080516101008301526101208201526080516101408201528361016082015283610180820152836101a08201526120df838761301d565b526120ea828661301d565b50516120f6828961301d565b52612101818861301d565b5001610d52565b806060602080938a01015201610d05565b60209060405161212881612a0f565b60805181526080518382015260805160408201526080516060820152608051608082015260805160a082015260805160c082015260805160e08201526080516101008201526080516101208201526080516101408201526080516101608201526080516101808201526080516101a082015282828601015201610ccb565b600181018111611b1b576121bc60018201612f77565b905f5b8181106124a557506122459063ffffffff6121db600454613031565b16604051906121e982612990565b81527f00000000000000000000000000000000000000000000000000000000000000036001600160401b031660208201523060408201525f606082018190526080820181905260a082015261223e828561301d565b528261301d565b5061224e61306d565b906040519061225c826129e1565b7f000000000000000000000000aa1c5d7bee4cc88523286774dffeab26687ec0ff8252602082015261228d82612fec565b5261229781612fec565b50604051631f47ce6960e01b81526020816004817f00000000000000000000000027da30646502e2f642be5281322ae8c394f7668a6001600160a01b03165afa908115612395575f91612463575b506001600160a01b0381163b156103d9576040518092638a36dffd60e01b8252606482017f000000000000000000000000000000000000000000000000000000000000000360048401526001860160248401526060604484015281518091526084830190602060848260051b8601019301915f905b8282106123a0575050505091815f818195039260018060a01b03165af180156123955715610c9d5761238b906129fc565b5f60805282610c9d565b6040513d5f823e3d90fd5b919390929450608319878203018252845160206060816040850193805186520151936040838201528451809452019201905f905b8082106123f457505050602080600192960192019201869493919261235a565b909192602060c0600192865163ffffffff8151168252848060401b03848201511684830152848060a01b03604082015116604083015260608101511515606083015265ffffffffffff608082015116608083015260a08580821b039101511660a08201520194019201906123d4565b90506020813d60201161249d575b8161247e60209383612a7e565b810103126103d957516001600160a01b03811681036103d957846122e5565b3d9150612471565b806124b760019261012088015161301d565b516124c2828661301d565b526124cd818561301d565b50016121bf565b90506020813d6020116124fe575b816124ef60209383612a7e565b810103126103d9575182610be5565b3d91506124e2565b90506020813d602011612541575b8161252160209383612a7e565b810103126103d957516001600160a01b03811681036103d9576020610bb3565b3d9150612514565b604051633a7c40a160e11b8152600490fd5b5065ffffffffffff6101008201511661259061258062ffffff60e08501511642612f6a565b62ffffff60c08501511690612f6a565b11610b62565b62ffffff60c0830151161590816125e7575b5015610b505765ffffffffffff610100820151166125cf62ffffff60e08401511642612f6a565b8103908111611b1b5762ffffff1660c0820152610b50565b90506125fc62ffffff60e08401511642612f6a565b10826125a8565b60c0843603126103d95760405161261981612990565b61262285612b26565b815260208501356001600160401b03811681036103d95760208201526001600160a01b03604086013581811681036103d957604083015261266560608701612b19565b606083015261267660808701612b47565b608083015260a086013590811690036103d95760c06020602494829360a089013560a0820152815201950194925050610a53565b82356001600160401b0381116103d95760c060043584018201360360231901126103d957604051916126db83612990565b60043584018201602401356001600160401b0381116103d95761270a9060243691858860043501010101612abc565b835260043584018201604401356001600160501b03811681036103d9576020840152600435840182016064013561ffff811690036103d95760209261278960c484606487968960043501010135604085015261276e6084828a60043501010161297c565b606085015260043588010160a4810135608085015201612b19565b60a082015281520192019161093d565b634e487b7160e01b5f52604160045260245ffd5b346103d9575f3660031901126103d9576020600354604051908152f35b346103d95760803660031901126103d9576001600160a01b03600435818116036103d957602435908116036103d9576064356001600160401b038082116103d957366023830112156103d95781600401359081116103d957369101602401116103d957604051630a85bd0160e11b8152602090f35b346103d9575f3660031901126103d9576040517f000000000000000000000000f6ae3f8bb41b55ae23412c64fdb135c0f6cb86ae6001600160a01b03168152602090f35b346103d95760203660031901126103d95761289f600435612e0b565b60405160078210156128b2576020918152f35b634e487b7160e01b5f52602160045260245ffd5b346103d9575f3660031901126103d9576040517f0000000000000000000000009f8e41fdb2447fcebfffdc97387ac72b523e9fc36001600160a01b03168152602090f35b346103d9575f3660031901126103d95760206040517f00000000000000000000000000000000000000000000000000000000000000018152f35b346103d9575f3660031901126103d9576020907f00000000000000000000000000000000000000000000000000000000000000038152f35b35906001600160a01b03821682036103d957565b60c081019081106001600160401b0382111761279957604052565b606081019081106001600160401b0382111761279957604052565b608081019081106001600160401b0382111761279957604052565b604081019081106001600160401b0382111761279957604052565b6001600160401b03811161279957604052565b6101c081019081106001600160401b0382111761279957604052565b61026081019081106001600160401b0382111761279957604052565b61010081019081106001600160401b0382111761279957604052565b602081019081106001600160401b0382111761279957604052565b601f909101601f19168101906001600160401b0382119082101761279957604052565b6001600160401b03811161279957601f01601f191660200190565b81601f820112156103d957803590612ad382612aa1565b92612ae16040519485612a7e565b828452602083830101116103d957815f926020809301838601378301015290565b6001600160401b0381116127995760051b60200190565b359081151582036103d957565b359063ffffffff821682036103d957565b359062ffffff821682036103d957565b359065ffffffffffff821682036103d957565b519065ffffffffffff821682036103d957565b519063ffffffff821682036103d957565b80929161012091829103126103d9576040519081016001600160401b03811182821017612799576040528092612bb381612b5a565b8252612bc160208201612b5a565b6020830152612bd260408201612b5a565b6040830152612be360608201612b5a565b6060830152612bf460808201612b6d565b608083015260a08101516001600160701b03811681036103d95760a0830152612c1f60c08201612b6d565b60c083015260e08101516001600160a01b03811681036103d95760e083015261010080910151910152565b519061ffff821682036103d957565b519081151582036103d957565b51906001600160a01b03821682036103d957565b91908281039061038082126103d957612c939084612b7e565b9261012090610260809361011f1901126103d95760405192612cb484612a2b565b612cbf828401612c4a565b8452610140612ccf838201612c4a565b6020860152610160612ce2848201612b6d565b6040870152610180612cf5858201612c59565b60608801526101a0612d08868201612c59565b60808901526101c091612d1c878401612c59565b60a08a01526101e093612d30888601612c59565b60c08b015261020095612d44898801612c59565b60e08c015261022097612d588a8a01612c59565b6101008d01526102409a612d6d8b8d01612c59565b908d01528901612d7c90612c59565b908b0152612d8d6102808901612c59565b908a0152612d9e6102a08801612c59565b90890152612daf6102c08701612c59565b90880152612dc06102e08601612c59565b90870152612dd16103008501612c59565b90860152612de26103208401612c59565b90850152612df36103408301612c66565b9084015261036001612e0490612c4a565b9082015290565b6040516320c94b1360e11b8152600481018290526001600160a01b039161038080836024817f00000000000000000000000027da30646502e2f642be5281322ae8c394f7668a88165afa928315612395575f915f94612f34575b50505165ffffffffffff168015612f2c5760018114612f23576002149081612f0b575b50612f0457610220015160405163d3fef14360e01b81529160209183916004918391165afa908115612395575f91612eca575b50612ec557600390565b600490565b90506020813d602011612efc575b81612ee560209383612a7e565b810103126103d957612ef690612c59565b5f612ebb565b3d9150612ed8565b5050600290565b90505f525f60205260405f205460e81c15155f612e88565b50505050600190565b505050505f90565b65ffffffffffff9450612f5c9250803d10612f63575b612f548183612a7e565b810190612c7a565b925f612e65565b503d612f4a565b91908201809211611b1b57565b90612f8182612b02565b604090612f916040519182612a7e565b8381528093612fa2601f1991612b02565b01915f5b838110612fb35750505050565b6020908251612fc181612990565b5f8152825f818301525f858301525f60608301525f60808301525f60a0830152828601015201612fa6565b805115612ff95760200190565b634e487b7160e01b5f52603260045260245ffd5b805160011015612ff95760400190565b8051821015612ff95760209160051b010190565b801561304057633b9aca000490565b634e487b7160e01b5f52601260045260245ffd5b60405190613061826129e1565b60606020835f81520152565b6040519061307a826129e1565b60018252815f5b602090818110156130a357602091613097613054565b90828501015201613081565b505050565b5f5b8381106130b95750505f910152565b81810151838201526020016130aa565b908160209103126103d957516001600160a01b03811681036103d95790565b90602091613101815180928185528580860191016130a8565b601f01601f1916010190565b5f198114611b1b5760010190565b9081526001600160a01b03909116602082015260400190565b9081518082526020808093019301915f5b828110613153575050505090565b835180516001600160e01b0316865282015163ffffffff168583015260409094019392810192600101613145565b9080602083519182815201916020808360051b8301019401925f915b8383106131ac57505050505090565b9091929394601f19828203018352855165ffffffffffff815116825263ffffffff602082015116602083015260018060701b03604082015116604083015263ffffffff6060820151166060830152608081015160018060a01b0316608083015261ffff60a08201518181511660a08501528160208201511660c085015263ffffffff60408201511660e08501526060810151906101009115158286015260808101516101209015158187015260a0820151926101409315158488015260c08301516101609015158189015260e084015191610180921515838a0152840151926101a0931515848a0152840151946101c0951515868a0152840151906101e0911515828a015284015191610200921515838a015284015192610220931515848a015284015194610240951515868a01528401511515610260890152830151151561028088015282015115156102a087015260018060a01b0390820151166102c08601520151166102e083015260c0810151906103406103008401528151806103408501526103606020818601918360051b8701019401915f5b818110613404575050505060e0015191610320818303910152815180825260208201906020808260051b8501019401925f5b8281106133975750505050506020806001929701930193019193929061319d565b90919293946020806133f7600193601f19878203018952895190858060a01b038251168152858060a01b0384830151168482015260606133e66040840151608060408501526080840190613134565b920151906060818403910152613134565b9701950193929101613376565b9091929461035f19878203018452855160206060816040850193805186520151936040838201528451809452019201905f905b80821061345557505050602080600192970194019101919091613344565b909192602060c0600192865163ffffffff8151168252848060401b03848201511684830152848060a01b03604082015116604083015260608101511515606083015265ffffffffffff608082015116608083015260a08580821b039101511660a0820152019401920190613437565b805f52600560205260405f208054613b4e57600190556040516320c94b1360e11b8152600481018290526103809081816024817f00000000000000000000000027da30646502e2f642be5281322ae8c394f7668a6001600160a01b03165afa918215612395575f92613b2f575b50506102208181015160405163d3fef14360e01b815291929190602090829060049082906001600160a01b03165afa908115612395575f91613af5575b5015613ae357825f525f60205260405f205490604051926388bc2ef360e01b845260208460048160018060a01b037f00000000000000000000000027da30646502e2f642be5281322ae8c394f7668a165afa938415612395575f94613ac2575b50604051630862026560e41b815293602090859081806135fb6001600160a01b0389168b6004840161311b565b03916001600160a01b03165afa938415612395575f94613aa1575b5060405163507f146560e01b8152936020856004816001600160a01b0385165afa948515612395576064956020915f91613a84575b5060405163467f4cb960e01b81526001600160a01b038481166004830152602482018a905287811660448301529097889290918391165afa948515612395575f95613a4f575b505f906020906001600160a01b03861661eeee03613a405760a463ffffffff604087015116965b60405163cfaf583960e01b8152600481018b90526001600160a01b039182166024820152604481018a905263ffffffff9889166064820152608481018a90529485938492165af1801561239557613a15575b5060405192613718846129e1565b600184525f5b6020811061394d57509161387a9391602093604083015116918160018060a01b039101511661ffff613762604051613755816129e1565b5f81525f88820152613b6a565b16916040519361377185612a2b565b5f85525f878601526040850152600160608501525f60808501525f60a08501525f60c08501525f60e08501525f6101008501525f6101208501525f6101408501525f61016085015260016101808501525f6101a08501525f6101c085015260016101e085015260016102008501528301526102408201526040516137f481612a63565b5f81526040519061380482612a63565b5f82526040519261381484612a47565b5f84525f868501525f60408501525f60608501525f608085015260a084015260c083015260e082015261384682612fec565b5261385081612fec565b50604080516303141db760e41b815260048101879052606060248201529384926064840190613181565b8281036003198101604485015260198252782232b334b3309033b0b6b2903430b9903334b734b9b432b21760391b9185019190915201815f6001600160a01b037f00000000000000000000000027da30646502e2f642be5281322ae8c394f7668a165af1801561239557613922575b5061391d7fe5d1da1fa18899cfe28f941d7fc5ecd5b8429a787f4f8db4313280d644fcc40f9160405191829133908361311b565b0390a2565b602090813d8311613946575b6139388183612a7e565b810103126103d9575f6138e9565b503d61392e565b60209060405161395c81612a47565b5f81525f838201525f604082015260605f8183015260805f818401528160a0915f6040519161398a83612a2b565b818352818984015281604084015281848401528201525f8382015260c0905f8282015260e0935f858301525f6101008301525f6101208301525f6101408301525f6101608301525f6101808301525f6101a08301525f6101c08301525f6101e08301525f6102008301525f8b8301525f6102408301528601528401528201528282880101520161371e565b602090813d8311613a39575b613a2b8183612a7e565b810103126103d9575f61370a565b503d613a21565b60a463ffffffff8716966136b8565b9094506020813d602011613a7c575b81613a6b60209383612a7e565b810103126103d95751936020613691565b3d9150613a5e565b613a9b9150823d841161041c5761040d8183612a7e565b5f61364b565b613abb91945060203d60201161041c5761040d8183612a7e565b925f613616565b613adc91945060203d60201161041c5761040d8183612a7e565b925f6135ce565b6040516366954d0b60e01b8152600490fd5b90506020813d602011613b27575b81613b1060209383612a7e565b810103126103d957613b2190612c59565b5f61356e565b3d9150613b03565b613b459250803d10612f6357612f548183612a7e565b90505f80613531565b5050565b65ffffffffffff9182169082160391908211611b1b57565b905f918051613b85575b60200151613b7e57565b9060021790565b60019250613b7456fea2646970667358221220503dbee01c268b0877d5eb4ecbfaedea78f257ac1a8caff0d18b5712f75001d364736f6c63430008170033",
			"metadata": "{\"compiler\":{\"version\":\"0.8.23+commit.f704f362\"},\"language\":\"Solidity\",\"output\":{\"abi\":[{\"inputs\":[{\"internalType\":\"address\",\"name\":\"_delegateCodeOrigin\",\"type\":\"address\"},{\"internalType\":\"contract IJB721TokenUriResolver\",\"name\":\"_tokenUriResolver\",\"type\":\"address\"},{\"internalType\":\"contract IDefifaGovernor\",\"name\":\"_governor\",\"type\":\"address\"},{\"internalType\":\"contract IJBController\",\"name\":\"_controller\",\"type\":\"address\"},{\"internalType\":\"contract IJBAddressRegistry\",\"name\":\"_registry\",\"type\":\"address\"},{\"internalType\":\"uint256\",\"name\":\"_defifaProjectId\",\"type\":\"uint256\"},{\"internalType\":\"uint256\",\"name\":\"_baseProtocolProjectId\",\"type\":\"uint256\"}],\"stateMutability\":\"nonpayable\",\"type\":\"constructor\"},{\"inputs\":[],\"name\":\"CANT_FULFILL_YET\",\"type\":\"error\"},{\"inputs\":[],\"name\":\"FailedDeployment\",\"type\":\"error\"},{\"inputs\":[],\"name\":\"GAME_OVER\",\"type\":\"error\"},{\"inputs\":[],\"name\":\"INCORRECT_DECIMAL_AMOUNT\",\"type\":\"error\"},{\"inputs\":[],\"name\":\"INVALID_FEE_PERCENT\",\"type\":\"error\"},{\"inputs\":[],\"name\":\"INVALID_GAME_CONFIGURATION\",\"type\":\"error\"},{\"inputs\":[{\"internalType\":\"uint256\",\"name\":\"balance\",\"type\":\"uint256\"},{\"internalType\":\"uint256\",\"name\":\"needed\",\"type\":\"uint256\"}],\"name\":\"InsufficientBalance\",\"type\":\"error\"},{\"inputs\":[],\"name\":\"PHASE_ALREADY_QUEUED\",\"type\":\"error\"},{\"inputs\":[],\"name\":\"SPLITS_DONT_ADD_UP\",\"type\":\"error\"},{\"inputs\":[],\"name\":\"TERMINAL_NOT_FOUND\",\"type\":\"error\"},{\"inputs\":[],\"name\":\"UNEXPECTED_TERMINAL_CURRENCY\",\"type\":\"error\"},{\"anonymous\":false,\"inputs\":[{\"components\":[{\"internalType\":\"uint32\",\"name\":\"percent\",\"type\":\"uint32\"},{\"internalType\":\"uint64\",\"name\":\"projectId\",\"type\":\"uint64\"},{\"internalType\":\"address payable\",\"name\":\"beneficiary\",\"type\":\"address\"},{\"internalType\":\"bool\",\"name\":\"preferAddToBalance\",\"type\":\"bool\"},{\"internalType\":\"uint48\",\"name\":\"lockedUntil\",\"type\":\"uint48\"},{\"internalType\":\"contract IJBSplitHook\",\"name\":\"hook\",\"type\":\"address\"}],\"indexed\":false,\"internalType\":\"struct JBSplit\",\"name\":\"split\",\"type\":\"tuple\"},{\"indexed\":false,\"internalType\":\"uint256\",\"name\":\"amount\",\"type\":\"uint256\"},{\"indexed\":false,\"internalType\":\"address\",\"name\":\"caller\",\"type\":\"address\"}],\"name\":\"DistributeToSplit\",\"type\":\"event\"},{\"anonymous\":false,\"inputs\":[{\"indexed\":true,\"internalType\":\"uint256\",\"name\":\"gameId\",\"type\":\"uint256\"},{\"indexed\":false,\"internalType\":\"uint256\",\"name\":\"pot\",\"type\":\"uint256\"},{\"indexed\":false,\"internalType\":\"address\",\"name\":\"caller\",\"type\":\"address\"}],\"name\":\"FulfilledCommitments\",\"type\":\"event\"},{\"anonymous\":false,\"inputs\":[{\"indexed\":true,\"internalType\":\"uint256\",\"name\":\"gameId\",\"type\":\"uint256\"},{\"indexed\":true,\"internalType\":\"contract IDefifaDelegate\",\"name\":\"delegate\",\"type\":\"address\"},{\"indexed\":true,\"internalType\":\"contract IDefifaGovernor\",\"name\":\"governor\",\"type\":\"address\"},{\"indexed\":false,\"internalType\":\"contract IJB721TokenUriResolver\",\"name\":\"tokenUriResolver\",\"type\":\"address\"},{\"indexed\":false,\"internalType\":\"address\",\"name\":\"caller\",\"type\":\"address\"}],\"name\":\"LaunchGame\",\"type\":\"event\"},{\"anonymous\":false,\"inputs\":[{\"indexed\":true,\"internalType\":\"uint256\",\"name\":\"gameId\",\"type\":\"uint256\"},{\"indexed\":false,\"internalType\":\"address\",\"name\":\"caller\",\"type\":\"address\"}],\"name\":\"QueuedNoContest\",\"type\":\"event\"},{\"anonymous\":false,\"inputs\":[{\"indexed\":true,\"internalType\":\"uint256\",\"name\":\"gameId\",\"type\":\"uint256\"},{\"indexed\":false,\"internalType\":\"address\",\"name\":\"caller\",\"type\":\"address\"}],\"name\":\"QueuedRefundPhase\",\"type\":\"event\"},{\"anonymous\":false,\"inputs\":[{\"indexed\":true,\"internalType\":\"uint256\",\"name\":\"gameId\",\"type\":\"uint256\"},{\"indexed\":false,\"internalType\":\"address\",\"name\":\"caller\",\"type\":\"address\"}],\"name\":\"QueuedScoringPhase\",\"type\":\"event\"},{\"inputs\":[],\"name\":\"baseProtocolFeeDivisor\",\"outputs\":[{\"internalType\":\"uint256\",\"name\":\"\",\"type\":\"uint256\"}],\"stateMutability\":\"view\",\"type\":\"function\"},{\"inputs\":[],\"name\":\"baseProtocolProjectId\",\"outputs\":[{\"internalType\":\"uint256\",\"name\":\"\",\"type\":\"uint256\"}],\"stateMutability\":\"view\",\"type\":\"function\"},{\"inputs\":[],\"name\":\"controller\",\"outputs\":[{\"internalType\":\"contract IJBController\",\"name\":\"\",\"type\":\"address\"}],\"stateMutability\":\"view\",\"type\":\"function\"},{\"inputs\":[{\"internalType\":\"uint256\",\"name\":\"_gameId\",\"type\":\"uint256\"}],\"name\":\"currentGamePhaseOf\",\"outputs\":[{\"internalType\":\"enum DefifaGamePhase\",\"name\":\"\",\"type\":\"uint8\"}],\"stateMutability\":\"view\",\"type\":\"function\"},{\"inputs\":[{\"internalType\":\"uint256\",\"name\":\"_gameId\",\"type\":\"uint256\"},{\"internalType\":\"bool\",\"name\":\"_includeCommitments\",\"type\":\"bool\"}],\"name\":\"currentGamePotOf\",\"outputs\":[{\"internalType\":\"uint256\",\"name\":\"\",\"type\":\"uint256\"},{\"internalType\":\"address\",\"name\":\"\",\"type\":\"address\"},{\"internalType\":\"uint256\",\"name\":\"\",\"type\":\"uint256\"}],\"stateMutability\":\"view\",\"type\":\"function\"},{\"inputs\":[],\"name\":\"defifaFeeDivisor\",\"outputs\":[{\"internalType\":\"uint256\",\"name\":\"\",\"type\":\"uint256\"}],\"stateMutability\":\"view\",\"type\":\"function\"},{\"inputs\":[],\"name\":\"defifaProjectId\",\"outputs\":[{\"internalType\":\"uint256\",\"name\":\"\",\"type\":\"uint256\"}],\"stateMutability\":\"view\",\"type\":\"function\"},{\"inputs\":[],\"name\":\"delegateCodeOrigin\",\"outputs\":[{\"internalType\":\"address\",\"name\":\"\",\"type\":\"address\"}],\"stateMutability\":\"view\",\"type\":\"function\"},{\"inputs\":[{\"internalType\":\"uint256\",\"name\":\"_gameId\",\"type\":\"uint256\"}],\"name\":\"fulfillCommitmentsOf\",\"stateMutability\":\"nonpayable\",\"type\":\"function\"},{\"inputs\":[{\"internalType\":\"uint256\",\"name\":\"\",\"type\":\"uint256\"}],\"name\":\"fulfilledCommitmentsOf\",\"outputs\":[{\"internalType\":\"uint256\",\"name\":\"\",\"type\":\"uint256\"}],\"stateMutability\":\"view\",\"type\":\"function\"},{\"inputs\":[],\"name\":\"governor\",\"outputs\":[{\"internalType\":\"contract IDefifaGovernor\",\"name\":\"\",\"type\":\"address\"}],\"stateMutability\":\"view\",\"type\":\"function\"},{\"inputs\":[{\"components\":[{\"internalType\":\"string\",\"name\":\"name\",\"type\":\"string\"},{\"internalType\":\"string\",\"name\":\"projectUri\",\"type\":\"string\"},{\"internalType\":\"string\",\"name\":\"contractUri\",\"type\":\"string\"},{\"internalType\":\"string\",\"name\":\"baseUri\",\"type\":\"string\"},{\"components\":[{\"internalType\":\"string\",\"name\":\"name\",\"type\":\"string\"},{\"internalType\":\"uint80\",\"name\":\"price\",\"type\":\"uint80\"},{\"internalType\":\"uint16\",\"name\":\"reservedRate\",\"type\":\"uint16\"},{\"internalType\":\"address\",\"name\":\"reservedTokenBeneficiary\",\"type\":\"address\"},{\"internalType\":\"bytes32\",\"name\":\"encodedIPFSUri\",\"type\":\"bytes32\"},{\"internalType\":\"bool\",\"name\":\"shouldUseReservedTokenBeneficiaryAsDefault\",\"type\":\"bool\"}],\"internalType\":\"struct DefifaTierParams[]\",\"name\":\"tiers\",\"type\":\"tuple[]\"},{\"components\":[{\"internalType\":\"address\",\"name\":\"token\",\"type\":\"address\"},{\"internalType\":\"uint8\",\"name\":\"decimals\",\"type\":\"uint8\"},{\"internalType\":\"uint32\",\"name\":\"currency\",\"type\":\"uint32\"}],\"internalType\":\"struct JBAccountingContext\",\"name\":\"token\",\"type\":\"tuple\"},{\"internalType\":\"uint24\",\"name\":\"mintPeriodDuration\",\"type\":\"uint24\"},{\"internalType\":\"uint24\",\"name\":\"refundPeriodDuration\",\"type\":\"uint24\"},{\"internalType\":\"uint48\",\"name\":\"start\",\"type\":\"uint48\"},{\"components\":[{\"internalType\":\"uint32\",\"name\":\"percent\",\"type\":\"uint32\"},{\"internalType\":\"uint64\",\"name\":\"projectId\",\"type\":\"uint64\"},{\"internalType\":\"address payable\",\"name\":\"beneficiary\",\"type\":\"address\"},{\"internalType\":\"bool\",\"name\":\"preferAddToBalance\",\"type\":\"bool\"},{\"internalType\":\"uint48\",\"name\":\"lockedUntil\",\"type\":\"uint48\"},{\"internalType\":\"contract IJBSplitHook\",\"name\":\"hook\",\"type\":\"address\"}],\"internalType\":\"struct JBSplit[]\",\"name\":\"splits\",\"type\":\"tuple[]\"},{\"internalType\":\"uint256\",\"name\":\"attestationStartTime\",\"type\":\"uint256\"},{\"internalType\":\"uint256\",\"name\":\"attestationGracePeriod\",\"type\":\"uint256\"},{\"internalType\":\"address\",\"name\":\"defaultAttestationDelegate\",\"type\":\"address\"},{\"internalType\":\"contract IJB721TokenUriResolver\",\"name\":\"defaultTokenUriResolver\",\"type\":\"address\"},{\"internalType\":\"contract IJBTerminal\",\"name\":\"terminal\",\"type\":\"address\"},{\"internalType\":\"contract IJB721TiersHookStore\",\"name\":\"store\",\"type\":\"address\"}],\"internalType\":\"struct DefifaLaunchProjectData\",\"name\":\"_launchProjectData\",\"type\":\"tuple\"}],\"name\":\"launchGameWith\",\"outputs\":[{\"internalType\":\"uint256\",\"name\":\"gameId\",\"type\":\"uint256\"}],\"stateMutability\":\"nonpayable\",\"type\":\"function\"},{\"inputs\":[{\"internalType\":\"uint256\",\"name\":\"_gameId\",\"type\":\"uint256\"}],\"name\":\"nextPhaseNeedsQueueing\",\"outputs\":[{\"internalType\":\"bool\",\"name\":\"\",\"type\":\"bool\"}],\"stateMutability\":\"view\",\"type\":\"function\"},{\"inputs\":[{\"internalType\":\"address\",\"name\":\"\",\"type\":\"address\"},{\"internalType\":\"address\",\"name\":\"\",\"type\":\"address\"},{\"internalType\":\"uint256\",\"name\":\"\",\"type\":\"uint256\"},{\"internalType\":\"bytes\",\"name\":\"\",\"type\":\"bytes\"}],\"name\":\"onERC721Received\",\"outputs\":[{\"internalType\":\"bytes4\",\"name\":\"\",\"type\":\"bytes4\"}],\"stateMutability\":\"pure\",\"type\":\"function\"},{\"inputs\":[],\"name\":\"registry\",\"outputs\":[{\"internalType\":\"contract IJBAddressRegistry\",\"name\":\"\",\"type\":\"address\"}],\"stateMutability\":\"view\",\"type\":\"function\"},{\"inputs\":[],\"name\":\"splitGroup\",\"outputs\":[{\"internalType\":\"uint256\",\"name\":\"\",\"type\":\"uint256\"}],\"stateMutability\":\"view\",\"type\":\"function\"},{\"inputs\":[{\"internalType\":\"uint256\",\"name\":\"_gameId\",\"type\":\"uint256\"}],\"name\":\"timesFor\",\"outputs\":[{\"internalType\":\"uint48\",\"name\":\"\",\"type\":\"uint48\"},{\"internalType\":\"uint24\",\"name\":\"\",\"type\":\"uint24\"},{\"internalType\":\"uint24\",\"name\":\"\",\"type\":\"uint24\"}],\"stateMutability\":\"view\",\"type\":\"function\"},{\"inputs\":[{\"internalType\":\"uint256\",\"name\":\"_gameId\",\"type\":\"uint256\"}],\"name\":\"tokenOf\",\"outputs\":[{\"internalType\":\"address\",\"name\":\"\",\"type\":\"address\"}],\"stateMutability\":\"view\",\"type\":\"function\"},{\"inputs\":[],\"name\":\"tokenUriResolver\",\"outputs\":[{\"internalType\":\"contract IJB721TokenUriResolver\",\"name\":\"\",\"type\":\"address\"}],\"stateMutability\":\"view\",\"type\":\"function\"}],\"devdoc\":{\"kind\":\"dev\",\"methods\":{\"constructor\":{\"params\":{\"_baseProtocolProjectId\":\"The ID of the protocol project that'll receive fees from fulfilling commitments.\",\"_controller\":\"The controller to use to launch the game from.\",\"_defifaProjectId\":\"The ID of the project that should take the fee from the games.\",\"_delegateCodeOrigin\":\"The code of the Defifa delegate.\",\"_governor\":\"The Defifa governor.\",\"_registry\":\"The contract storing references to the deployer of each delegate.\",\"_tokenUriResolver\":\"The standard default token URI resolver.\"}},\"currentGamePhaseOf(uint256)\":{\"details\":\"The game phase corresponds to the game's current funding cycle number.\",\"params\":{\"_gameId\":\"The ID of the game to get the phase number of.\"},\"returns\":{\"_0\":\"The game phase.\"}},\"currentGamePotOf(uint256,bool)\":{\"params\":{\"_gameId\":\"The ID of the game for which the pot apply.\",\"_includeCommitments\":\"A flag indicating if the portion of the pot committed to fulfill preprogrammed obligations should be included.\"},\"returns\":{\"_0\":\"The game's pot amount, as a fixed point number.\",\"_1\":\"The token address the game's pot is measured in.\",\"_2\":\"The number of decimals included in the amount.\"}},\"fulfillCommitmentsOf(uint256)\":{\"params\":{\"_gameId\":\"The ID of the game to fulfill splits for.\"}},\"launchGameWith((string,string,string,string,(string,uint80,uint16,address,bytes32,bool)[],(address,uint8,uint32),uint24,uint24,uint48,(uint32,uint64,address,bool,uint48,address)[],uint256,uint256,address,address,address,address))\":{\"params\":{\"_launchProjectData\":\"Data necessary to fulfill the transaction to launch a game.\"},\"returns\":{\"gameId\":\"The ID of the newly configured game.\"}},\"nextPhaseNeedsQueueing(uint256)\":{\"params\":{\"_gameId\":\"The ID of the game to get the queue status of.\"},\"returns\":{\"_0\":\"Whether or not the next phase still needs queuing.\"}},\"timesFor(uint256)\":{\"params\":{\"_gameId\":\"The ID of the game for which the game times apply.\"},\"returns\":{\"_0\":\"The game's start time, as a unix timestamp.\",\"_1\":\"The game's minting period duration, in seconds.\",\"_2\":\"The game's refund period duration, in seconds.\"}},\"tokenOf(uint256)\":{\"params\":{\"_gameId\":\"The ID of the game to get the token of.\"},\"returns\":{\"_0\":\"The game's token.\"}}},\"version\":1},\"userdoc\":{\"kind\":\"user\",\"methods\":{\"baseProtocolFeeDivisor()\":{\"notice\":\"The divisor that describes the fee that should be taken.\"},\"baseProtocolProjectId()\":{\"notice\":\"The project ID that'll receive protocol fees as commitments are fulfilled.\"},\"controller()\":{\"notice\":\"The controller with which new projects should be deployed.\"},\"currentGamePhaseOf(uint256)\":{\"notice\":\"Returns the number of the game phase.\"},\"currentGamePotOf(uint256,bool)\":{\"notice\":\"The current pot the game is being played with.\"},\"defifaFeeDivisor()\":{\"notice\":\"The divisor that describes the fee that should be taken.\"},\"defifaProjectId()\":{\"notice\":\"The project ID that'll receive game fees, and relative to which splits are stored.\"},\"delegateCodeOrigin()\":{\"notice\":\"The original code for the Defifa delegate to base subsequent instances on.\"},\"fulfillCommitmentsOf(uint256)\":{\"notice\":\"Fulfill split amounts between all splits for a game.\"},\"fulfilledCommitmentsOf(uint256)\":{\"notice\":\"The amount of commitments a game has fulfilled.\"},\"governor()\":{\"notice\":\"The Defifa governor.\"},\"launchGameWith((string,string,string,string,(string,uint80,uint16,address,bytes32,bool)[],(address,uint8,uint32),uint24,uint24,uint48,(uint32,uint64,address,bool,uint48,address)[],uint256,uint256,address,address,address,address))\":{\"notice\":\"Launches a new game owned by this contract with a DefifaDelegate attached.\"},\"nextPhaseNeedsQueueing(uint256)\":{\"notice\":\"Whether or not the next phase still needs queuing.\"},\"onERC721Received(address,address,uint256,bytes)\":{\"notice\":\"Allows this contract to receive 721s.\"},\"registry()\":{\"notice\":\"The delegates registry.\"},\"splitGroup()\":{\"notice\":\"The group relative to which splits are stored.\"},\"timesFor(uint256)\":{\"notice\":\"The game times.\"},\"tokenOf(uint256)\":{\"notice\":\"The token of a gmae.\"},\"tokenUriResolver()\":{\"notice\":\"The default Defifa token URI resolver.\"}},\"version\":1}},\"settings\":{\"compilationTarget\":{\"contracts/DefifaDeployer.sol\":\"DefifaDeployer\"},\"evmVersion\":\"shanghai\",\"libraries\":{},\"metadata\":{\"bytecodeHash\":\"ipfs\"},\"optimizer\":{\"enabled\":true,\"runs\":10},\"remappings\":[\"@arbitrum/=node_modules/@arbitrum/\",\"@bananapus/=node_modules/@bananapus/\",\"@chainlink/=node_modules/@chainlink/\",\"@eth-optimism/=node_modules/@eth-optimism/\",\"@offchainlabs/=node_modules/@offchainlabs/\",\"@openzeppelin/=node_modules/@openzeppelin/\",\"@prb/math/=node_modules/@prb/math/\",\"@scroll-tech/=node_modules/@scroll-tech/\",\"@sphinx-labs/contracts/=node_modules/@sphinx-labs/contracts/contracts/foundry/\",\"@uniswap/=node_modules/@uniswap/\",\"@zksync/=node_modules/@zksync/\",\"base64/=lib/base64/\",\"capsules/=lib/capsules/contracts/\",\"ds-test/=lib/forge-std/lib/ds-test/src/\",\"forge-std/=lib/forge-std/src/\",\"hardhat/=node_modules/hardhat/\",\"solady/=node_modules/solady/\",\"solmate/=node_modules/solmate/\",\"typeface/=lib/typeface/contracts/\"],\"viaIR\":true},\"sources\":{\"contracts/DefifaDelegate.sol\":{\"keccak256\":\"0x9104af25cdf7cec73a2982b1a7b54412c67b1cc8dd22f708058854b0d45a8d62\",\"license\":\"MIT\",\"urls\":[\"bzz-raw://898fe89b80d8cac7e63ae634abdee350b1bd757e7a2680b66dc3d3954daa1c4e\",\"dweb:/ipfs/QmPyJskfzv5LvYUsBc3KvjdwhnM4C3kwEWsNQfiBy3R8AA\"]},\"contracts/DefifaDeployer.sol\":{\"keccak256\":\"0x85b1c6bb1a79719a0c829332194921b13f936a688fe9645194fd83af58acf587\",\"license\":\"MIT\",\"urls\":[\"bzz-raw://1cd61df982b26e34fe48fe7c94eb7ed7206c5a11410bde0716fb0ebc9142a219\",\"dweb:/ipfs/QmS3M6LvMUGez4u7otUZ1BuQw8e9M4SSukZVuv6ahLy1Zu\"]},\"contracts/DefifaTokenUriResolver.sol\":{\"keccak256\":\"0x95151634690886003c630bf26ae6e41951d3d67b5de809390572029605cbf6a9\",\"license\":\"MIT\",\"urls\":[\"bzz-raw://71a76443bf39e5f10efb9ae7a0d5aec609c96744a404af77d6fb31baa9488b99\",\"dweb:/ipfs/QmQqTiTzbod6wH17xaLACVfZpjuDf7RDupyAKNwBBmUzAe\"]},\"contracts/enums/DefifaGamePhase.sol\":{\"keccak256\":\"0xf2486e4e253632ac3d480d7289e759e13c2b652b1293222175801dd89d78791e\",\"license\":\"MIT\",\"urls\":[\"bzz-raw://a8a6f440d7b58ca7388f122221328d4423136183fb8bdabde4869bbcdcac3d30\",\"dweb:/ipfs/Qmcqs1LXUKLw2FBq5Bs1FSaruwu8dvGRQLVegC44iFjbcj\"]},\"contracts/enums/DefifaScorecardState.sol\":{\"keccak256\":\"0x362e81e2e8fe789b3677d6ac66674932e4e382a18cd227d670f2ca595b03d464\",\"license\":\"MIT\",\"urls\":[\"bzz-raw://6cb08da9bdb6eb72bf10c68bdc53378aaf769d4ce73c2c9808ddd5a96f364bca\",\"dweb:/ipfs/QmWxGLpKim8aZvMqeSVCKmU9hzka8Jj5xnLkLCASQ1uAQL\"]},\"contracts/interfaces/IDefifaDelegate.sol\":{\"keccak256\":\"0x13473336806a368a7d2a0ec29f47c7f8f219a0a87e44968c2d1c89db23182e16\",\"license\":\"MIT\",\"urls\":[\"bzz-raw://55c2d75dfa15e2b9b74c74e50c19f9af70d4d1a2af0d4a4c8b51185ff94c68fd\",\"dweb:/ipfs/QmeNT8kVjjdzMqWDq3ZVC1bBaQLjgPp69Dip1ZQkcDRh7d\"]},\"contracts/interfaces/IDefifaDeployer.sol\":{\"keccak256\":\"0xabb5ef38a91f365552f374be38ed91ffb0ac8bb07ad63e0286c594ab68901e3c\",\"license\":\"MIT\",\"urls\":[\"bzz-raw://1252a15e4ed1f8a301e7fe189b1a282079379bbbc629fae70205c2b8b5929716\",\"dweb:/ipfs/QmXz5QA46S9hpk3PfXZD5GgCqkcwvCw41S5Ek3Y2CUFeGx\"]},\"contracts/interfaces/IDefifaGamePhaseReporter.sol\":{\"keccak256\":\"0xe3af51c58dcf373de5090be2347a3659c44901bf84881e988029f8338581080a\",\"license\":\"MIT\",\"urls\":[\"bzz-raw://81fa1a3abc418b613699e5982a44f4eaeadc2e73f8a259f4893591b68343b906\",\"dweb:/ipfs/QmdXNrAEAn312hziK8UKDz9dWRvH88p2HeWoVpod9PkyZ3\"]},\"contracts/interfaces/IDefifaGamePotReporter.sol\":{\"keccak256\":\"0x3034956baed910156222da9df0932008eef5ac6dca7c0e9a06fbf0c82f2d5ae4\",\"license\":\"MIT\",\"urls\":[\"bzz-raw://5e61e750e0cce0e93a21300a2f7ee0fa01fa1a1191c88ea147be335f1fa427a6\",\"dweb:/ipfs/QmQBXVYJkkPjfFJEMBLJcM3VfrMEGpsr5ZdLWvedryqSDq\"]},\"contracts/interfaces/IDefifaGovernor.sol\":{\"keccak256\":\"0xfa50de33a167cb35ef5b44010effd1f92a9d5b99ddd522e5cf8d29610d5668f1\",\"license\":\"MIT\",\"urls\":[\"bzz-raw://60e46d719f4d48a80790b0fb489ea96d77f41bab16d53fb83432e0db5f3a4d36\",\"dweb:/ipfs/QmeGuWFtNbq3JsBftV6tdTutgMN1EaJghGXWoThSEmP2P8\"]},\"contracts/interfaces/IDefifaTokenUriResolver.sol\":{\"keccak256\":\"0x89a6d057338d01568fa8d72c61750ae5a689e84362be0eb68f942cb602f7d3e0\",\"license\":\"MIT\",\"urls\":[\"bzz-raw://a51d1728ccccfbb4a030e3215d5e22002106335dadc4a1745290ad50fccbd46e\",\"dweb:/ipfs/QmT87FxwwGfHz8MRhVzUjUGbQQieX65UcwSMp468mrpF54\"]},\"contracts/libraries/DefifaFontImporter.sol\":{\"keccak256\":\"0xb097ddb0138493a443e9240907b41bf7518614bacf5f1f361efb9d92c7c787dd\",\"license\":\"MIT\",\"urls\":[\"bzz-raw://b6cdf3994bd1999e5ab8c2c9c2f5d1cedeb877260ae10eb48287f89e55bd1cba\",\"dweb:/ipfs/QmVfeY7o7ezgDij7S3DJfAk6exzURh95exAoRFBbfFJSNC\"]},\"contracts/structs/DefifaDelegation.sol\":{\"keccak256\":\"0xc2dd2d049c462e0137ba84dc2b0fa8d9d0139c9d324f1440e9e943f4161b3422\",\"license\":\"MIT\",\"urls\":[\"bzz-raw://14f446455bf221717bac8498e1ee8fe386b28aa768628cb4522e718740e1ba46\",\"dweb:/ipfs/QmQziN3zjYUiZ4Cm9BLtDVbNNY7ZbL5HhvTJqpQdwy2uvx\"]},\"contracts/structs/DefifaLaunchProjectData.sol\":{\"keccak256\":\"0x03bf07a53ea50ea66bb59f86b528ca3985e0020da3fa25cbcbf41962e11f3f13\",\"license\":\"MIT\",\"urls\":[\"bzz-raw://31f349045f659bbef47223703d90a1bb0e45b284e52d703112c944d2ad40dc32\",\"dweb:/ipfs/QmcKkYDiM3AvpMzaYfyvK2BnMDem95dmev4VsN2kTNGCN3\"]},\"contracts/structs/DefifaOpsData.sol\":{\"keccak256\":\"0x7830dc81c4ae943c81f5e628696cc31f2ff5fa2507e5a01b180c8d5ac2c20d44\",\"license\":\"MIT\",\"urls\":[\"bzz-raw://1680c66ef1b131483d4189e40b890a6122d34faff4b4add676d9cf5144f47067\",\"dweb:/ipfs/QmRWhSHjtRfU8LhkJaCr3fTCJAZpQenThq9vL7EoWbRhqG\"]},\"contracts/structs/DefifaTierCashOutWeight.sol\":{\"keccak256\":\"0x887924246fed02168924efd07cba0beaa261de1962a3065674665ef4fbd7c1f6\",\"license\":\"MIT\",\"urls\":[\"bzz-raw://5477867a360e1c898b34630330645dd5f6f3d07052b7c75c3b8a4677f97bc075\",\"dweb:/ipfs/Qmc43QdoNqUSriku1Lin31HHXXxmdV9WHyYFdCApNfn5fa\"]},\"contracts/structs/DefifaTierParams.sol\":{\"keccak256\":\"0x24ac4b77b88338fb91b39f7bfc25ad55e27843bc12d37ff9db70ecf13f537219\",\"license\":\"MIT\",\"urls\":[\"bzz-raw://261fe2a691cbb1c42fbbe3d5ac2f79e43f70fcc6b739045de01b86bae513bc9a\",\"dweb:/ipfs/QmfJGPbQYYn5Ehg9zccHWir4LCn2FfCBhTdoa5AkRHEYAm\"]},\"lib/base64/base64.sol\":{\"keccak256\":\"0xa73959e6ef0b693e4423a562e612370160b934a75e618361ddd8c9c4b8ddbaaf\",\"license\":\"MIT\",\"urls\":[\"bzz-raw://17c12e16d8d66f3af15d8787920bd41ca6c1e7517a212a6b9cebd4b6d38f36fe\",\"dweb:/ipfs/QmcXMnZUXEz6LRKsm3CSvqdPboAzmezavi8bTg2dRxM2yE\"]},\"lib/typeface/contracts/interfaces/ITypeface.sol\":{\"keccak256\":\"0x6e79f0dffbd38af3941df702b99d537c7c8aa0b604b3833d80da0343e51c2c95\",\"license\":\"MIT\",\"urls\":[\"bzz-raw://07a9e3494fab50454b7caf1295440b32cfe56054292979fb0ad5107b405f2685\",\"dweb:/ipfs/QmUWD8smvCAreeutvYLak5cwsQRZ9gviMrwwiMz5yRzyqN\"]},\"node_modules/@bananapus/721-hook-v5/src/JB721TiersHook.sol\":{\"keccak256\":\"0x286e699f4ca81ea84217bbdcc4e4efa426ba9cc5d0886719232dd4d2e604a1b6\",\"license\":\"MIT\",\"urls\":[\"bzz-raw://adf31e0beae7d3381a1a841786e2f78dee5b73084ba030c345440b11d8aa0b67\",\"dweb:/ipfs/QmNmXeaVoTrQ9hSMXMZ1r7vvemDpB8FAbdfxPfXqWrj4SE\"]},\"node_modules/@bananapus/721-hook-v5/src/abstract/ERC721.sol\":{\"keccak256\":\"0xee3758d50043b58a173dada85fb33a0a2b4a9f8e57e11a213d0f1d021cd2ffc6\",\"license\":\"MIT\",\"urls\":[\"bzz-raw://f9b8cbac216d14a83dcc54fee0e660e8131afee94a21ec0c0af5dd7853692bb1\",\"dweb:/ipfs/QmRU67EeBHtqE7osaBd286poaTDjS7cAVMwt6UXdBBDRGP\"]},\"node_modules/@bananapus/721-hook-v5/src/abstract/JB721Hook.sol\":{\"keccak256\":\"0x3de2a2a70ce211879e6f49e3032a6630b5c56589ff222410c1e375c3ba34e87c\",\"license\":\"MIT\",\"urls\":[\"bzz-raw://d9e944468f255e8cafa01b485e9eb8e8abfa2cd28462a9013547000c5484272a\",\"dweb:/ipfs/QmfKDiSgxW7Miq4jwFqeJEtFLLUTYgTEEGirwtNBKMGaUi\"]},\"node_modules/@bananapus/721-hook-v5/src/interfaces/IJB721Hook.sol\":{\"keccak256\":\"0x1e7b684c86c0f44b0b680c7aba9e511c89892bc0638424722920368911a087f2\",\"license\":\"MIT\",\"urls\":[\"bzz-raw://96995e70a8f15d5600b509ad689c8f2ea6f8116cc7cce9c529b7a41c12c854dc\",\"dweb:/ipfs/QmaAARj3BDSQNsPwkFxauDpWBNgb4kYdzo19tUNdBbc6cX\"]},\"node_modules/@bananapus/721-hook-v5/src/interfaces/IJB721TiersHook.sol\":{\"keccak256\":\"0x107f91c5a0674717684d75e0c71106dd1d2937c0089366c7bb555be7fffdd6b2\",\"license\":\"MIT\",\"urls\":[\"bzz-raw://3ce29d75e454845d0636e671c60c7a691e4a77d1c88fe17dbc435945890465b1\",\"dweb:/ipfs/QmewJn8HeiqKggWA8scLUbwv1TMiit8Va8A5A3K7N9Euss\"]},\"node_modules/@bananapus/721-hook-v5/src/interfaces/IJB721TiersHookStore.sol\":{\"keccak256\":\"0x01d419bf6b9dce2ab162f8aac82f0e4a6d948f53819a42ed023e8f23e358c9c2\",\"license\":\"MIT\",\"urls\":[\"bzz-raw://0e0b14b2ae2032bd256614522078cf0f831c35d1f64d1ea2050227117d08c060\",\"dweb:/ipfs/QmP1xbw5597GDvNVgT5Te6w8LBqeXHq4x6HeXYmqLqw2RC\"]},\"node_modules/@bananapus/721-hook-v5/src/interfaces/IJB721TokenUriResolver.sol\":{\"keccak256\":\"0xfa599167098f4459320ec4141a98a17b2dfffbce422baa27d8b4e4530f61ece1\",\"license\":\"MIT\",\"urls\":[\"bzz-raw://8b758b161f4c7b520b2c34b4d91e585e961b8f4ca278eebb91d791f7f2f45140\",\"dweb:/ipfs/QmcD9DF7NJ9QykQpT4KPzm4bs3fkjzukdAUWwdU6Atfw85\"]},\"node_modules/@bananapus/721-hook-v5/src/libraries/JB721TiersRulesetMetadataResolver.sol\":{\"keccak256\":\"0xe1e224860fce816c0566c4b22044eb2f5a767a09764d00482b954733bf18e51e\",\"license\":\"MIT\",\"urls\":[\"bzz-raw://043663de2a9c7e822e947e0b68833e77985d493bebcb48f86bf1b67f937417fc\",\"dweb:/ipfs/QmXVXPdpLfmT2a97gUQ5d2XSsHXhgpiTfs7w2ZtoD55uAd\"]},\"node_modules/@bananapus/721-hook-v5/src/libraries/JBIpfsDecoder.sol\":{\"keccak256\":\"0xb93ba562ac1fc9d3829be00e61f3a90f51df5661cf0f2c819a7f1d8ba19ec171\",\"license\":\"MIT\",\"urls\":[\"bzz-raw://fc9bc948fac8897d9720ef25b13d63c60b40a18aa1897dd1c657fc278c416b4f\",\"dweb:/ipfs/QmNtiJTALZW5zfyKVy7XG5GkqGgMrfkVvU4Auu4bb9cGQc\"]},\"node_modules/@bananapus/721-hook-v5/src/structs/JB721InitTiersConfig.sol\":{\"keccak256\":\"0xfe7147d09467fd8f9b755d2a1485f22bb4a8797acd0e97623258498ddac2e441\",\"license\":\"MIT\",\"urls\":[\"bzz-raw://9ee21464af9e6c78f580c6920757017cdfbd276728773338a67660fedfea0fd2\",\"dweb:/ipfs/QmVYviC7uQ7rEvdpzD6U4BN19P5f8uMuC7jWffzQWvuFcu\"]},\"node_modules/@bananapus/721-hook-v5/src/structs/JB721Tier.sol\":{\"keccak256\":\"0x99232aa73d5715977332dc7c93b03552a93259e59ae00e86b4ddc200f06adaf1\",\"license\":\"MIT\",\"urls\":[\"bzz-raw://721c0cf10a29fa11677718faafb3a2ecfcb4fbe4e1c09e70a7fac681c80fcc94\",\"dweb:/ipfs/QmSUR77E9PqnpB5kBcKNz2CGBjG9XL9FH57RWVYu3Q7GMR\"]},\"node_modules/@bananapus/721-hook-v5/src/structs/JB721TierConfig.sol\":{\"keccak256\":\"0x86e54a0de4deab9d105bf276586aebe256188b193e83eb7a6f6f93e4a29ae9c5\",\"license\":\"MIT\",\"urls\":[\"bzz-raw://04bfcc07d452c26dfc50d3a5eb62df4b3b81e063defd752e0aa5ed049a78eef4\",\"dweb:/ipfs/QmWd5nJHUvZPHxJXkrYCboXaqdtiWWkQG26sNM6qkJuAgD\"]},\"node_modules/@bananapus/721-hook-v5/src/structs/JB721TiersHookFlags.sol\":{\"keccak256\":\"0x283d8429f31bd58875c056515aa42abd09c95362bd929e85cfc44a0d92585766\",\"license\":\"MIT\",\"urls\":[\"bzz-raw://9a580b89fe99d9f8e930c58a4d0d63a5ff7c01c79d210af01373d066c9e72ed6\",\"dweb:/ipfs/QmdY1eSGSoTjv4KSdsG4Tm5CzJN6iqk3qTRga5ZWNbejRz\"]},\"node_modules/@bananapus/721-hook-v5/src/structs/JB721TiersMintReservesConfig.sol\":{\"keccak256\":\"0x86fe586a05e6d4bc6fab9b68996a7f4b74c5362ca6f24b9d8057ed7e4cd1c5ac\",\"license\":\"MIT\",\"urls\":[\"bzz-raw://0915f17d1f958ab1fe6b214d99ed62f1f858684898c803f1a8a6a557472dd140\",\"dweb:/ipfs/QmUhdnSV8UzkgvbtkYEKHrpyDEmc2aJxW5HQ1gucuxxu5A\"]},\"node_modules/@bananapus/721-hook-v5/src/structs/JB721TiersRulesetMetadata.sol\":{\"keccak256\":\"0x6720a6ada2a882f99afa050e40b6c925439da4339240565a0e706521b3aadc6b\",\"license\":\"MIT\",\"urls\":[\"bzz-raw://ede4a3165276d9d89eeea2dfd56f68d77dbfaedb738b30c8a0faa81c3a153b1b\",\"dweb:/ipfs/QmXa4QCb6K9MXxwNKed17VWeX9crKeMjkQnVk2xMARzh76\"]},\"node_modules/@bananapus/721-hook-v5/src/structs/JB721TiersSetDiscountPercentConfig.sol\":{\"keccak256\":\"0x4672eacb6b0cda5e6f5f72ddb91463c52fb90b4df421053e3b40024f19a59954\",\"license\":\"MIT\",\"urls\":[\"bzz-raw://9d8e3a0b35d6b2a6ec66527594263400189b6c766bfd6943c83704380a989aec\",\"dweb:/ipfs/QmUE7NhFWsxjFRzTuRyHJ7oRx3JXD9CnG83t29PjGAhwPR\"]},\"node_modules/@bananapus/721-hook-v5/src/structs/JBLaunchProjectConfig.sol\":{\"keccak256\":\"0xf671b41a02209c38171be1c390b247ddd0e4424e3c032b1b898ac519bfd87932\",\"license\":\"MIT\",\"urls\":[\"bzz-raw://81f9d439880dc0f498cb6b66d742739dfe10f8bc97532f39eb0f5c7df75c4ab0\",\"dweb:/ipfs/QmYY4jj1SxgrFhQHpKFwmv7qmb2cpnSeDcpPCobAFXgzmX\"]},\"node_modules/@bananapus/721-hook-v5/src/structs/JBPayDataHookRulesetConfig.sol\":{\"keccak256\":\"0xb8c9b727af33c31e5de91f3fe276aa52abcad3ea2aa010a0652a5ba532d805ee\",\"license\":\"MIT\",\"urls\":[\"bzz-raw://500635eaafbf6c37a5f51ca36618b04e87fae5e59030d7d2b20d9eb989e4c17d\",\"dweb:/ipfs/QmcPa3aczMHMpQEt4aQLzXyVLk4buCuRwtfpczSWMeYMnG\"]},\"node_modules/@bananapus/721-hook-v5/src/structs/JBPayDataHookRulesetMetadata.sol\":{\"keccak256\":\"0x8e96cc925255913471645456563fabf7183782a1266b64322e3a96c241af1089\",\"license\":\"MIT\",\"urls\":[\"bzz-raw://925d629f24110f98f97296eecbb4241048296088f7326fc459b330aeb45b3f0e\",\"dweb:/ipfs/QmbtCnFCTACsufCvV4CTDhNzW1bF1miHpA9ZC6nV5XCK4v\"]},\"node_modules/@bananapus/address-registry-v5/src/interfaces/IJBAddressRegistry.sol\":{\"keccak256\":\"0x984b1f4a0301ee5a5fe44d6d228aa0a60161e0ff69509ef3d5f829c4b154e423\",\"license\":\"MIT\",\"urls\":[\"bzz-raw://c1e46de177797b8585c8030377f470ac6737ddf3496f0a3a6b16e01ad7712dab\",\"dweb:/ipfs/QmW771SQMskbmJG9GHJPMhzJGTFpU3JVj2YxFtLSaAb3Xk\"]},\"node_modules/@bananapus/core-v5/src/abstract/JBPermissioned.sol\":{\"keccak256\":\"0xbaaa61c6aa043522617d3c1a86960c23b9978ee2a6c9d593b00beeeb6ce64423\",\"license\":\"MIT\",\"urls\":[\"bzz-raw://09beed8608e02ce9dbf28814309aaf62c9eec67e0701a26113bdbb4cbae56c42\",\"dweb:/ipfs/QmZrHFnpjX9uBzbFrSjqQgQBkvpJ1ZyvjtT9RfneNGv32S\"]},\"node_modules/@bananapus/core-v5/src/enums/JBApprovalStatus.sol\":{\"keccak256\":\"0x61c69b6bac7d24b566d87cda23a77e4ca9cdb87200b106aba8534cb9a0973e33\",\"license\":\"MIT\",\"urls\":[\"bzz-raw://6a9ca7249de76f77a8252eefe6bd1b63d47952f25a2acfa2c8db967cdff4470c\",\"dweb:/ipfs/QmaxSxptRQNj8bNy96EreENmrnRWdKmhyihBcxyWzBX5BN\"]},\"node_modules/@bananapus/core-v5/src/interfaces/IJBCashOutHook.sol\":{\"keccak256\":\"0x6c516b030f55065eb169d666d11dbd82c4a0b8cea7782ebc5e79433cade38670\",\"license\":\"MIT\",\"urls\":[\"bzz-raw://fa0659eb08477176f130ccaf387d4bde71f0ecca2b24f61124d225f2f50397a3\",\"dweb:/ipfs/QmRNBRGhdGpLQLkC4wK4VrgNEw4EdSiJ4ZZJfiJU4aNt2L\"]},\"node_modules/@bananapus/core-v5/src/interfaces/IJBCashOutTerminal.sol\":{\"keccak256\":\"0xac8ed1afe397bb4c4060d947ec5765cf600cefb6d10829157153f0a4324807ea\",\"license\":\"MIT\",\"urls\":[\"bzz-raw://6be3361a27a1944853407d61f33813b21403a63e0d4113c7b7e84ce3b87f5d61\",\"dweb:/ipfs/QmdFTXKU1j4gdFL6nNx1LTTtbgoaRgdnwyVJ7UaQDp9Uo1\"]},\"node_modules/@bananapus/core-v5/src/interfaces/IJBController.sol\":{\"keccak256\":\"0xc903b660dccd57e610e1d834407b2bead1fc456153e106f2582407e505a39a96\",\"license\":\"MIT\",\"urls\":[\"bzz-raw://624bb32a7cd93ce056ea2705332821abd9cd7c83f419bbb279ad96e47c2b6013\",\"dweb:/ipfs/QmXKmQAGecR2zYAXMZ54erg5QnYoWNue4Ek3jCJCUyfW7q\"]},\"node_modules/@bananapus/core-v5/src/interfaces/IJBDirectory.sol\":{\"keccak256\":\"0xcb97db460d2948a7f51c660fe0d1b1749047a419027711c476b86ad3573534c5\",\"license\":\"MIT\",\"urls\":[\"bzz-raw://a909c7a3d471054537894dca827e6e018e92ac25299b43026e5b1e335ec4de68\",\"dweb:/ipfs/QmU1GT3F8PNMjSiPPP5cSLLofefHYFJXnywMCdqqM9xUeh\"]},\"node_modules/@bananapus/core-v5/src/interfaces/IJBDirectoryAccessControl.sol\":{\"keccak256\":\"0x1ea768919979d9f625920c05a5e633739febc822ce14b1e4724d739b19c10fb8\",\"license\":\"MIT\",\"urls\":[\"bzz-raw://7c5391a510bd610a97978245b7306d8d21c79d7c45c15f590ba9b603ea751154\",\"dweb:/ipfs/QmPSJvVWswqzv3bVq422UhA2BybMsiHoYFWGPp5Jh6Xs6a\"]},\"node_modules/@bananapus/core-v5/src/interfaces/IJBFeeTerminal.sol\":{\"keccak256\":\"0x6a71d83541ad900500674f70678c3287f1be3e5432134d16df3c65d97bbaf9e1\",\"license\":\"MIT\",\"urls\":[\"bzz-raw://73fa45b855b288827b211ed50fefaba35da66586544e6188a206f07feed099de\",\"dweb:/ipfs/QmQzUqTXAA3PF2jdyVQ4Pinfegmvc947iL4ATCLU59XwGH\"]},\"node_modules/@bananapus/core-v5/src/interfaces/IJBFeelessAddresses.sol\":{\"keccak256\":\"0xef03dc44a8982565006a248eff7d9d4dbf444876f53eb4ce29bc42817ca6b017\",\"license\":\"MIT\",\"urls\":[\"bzz-raw://abd1da6f0d18c8bef8b64b46ef1155a20b4c4bd96046b71d60228bac7bab23c5\",\"dweb:/ipfs/QmPxoejgu1b8VMC8hCn2k4XgoM8SqyYBCT3bqMaWF1ikpf\"]},\"node_modules/@bananapus/core-v5/src/interfaces/IJBFundAccessLimits.sol\":{\"keccak256\":\"0xfd8ea4cffd289e7fef6e53b5c8983eb6b941de306517f40c047048d3a8a2ca08\",\"license\":\"MIT\",\"urls\":[\"bzz-raw://2765cdee206f8b1b53874448e2481db001cd3706753190cfc9381318c7a7c41c\",\"dweb:/ipfs/QmQ5UYSadtzrb7BcTR93KnAYKXawdyDUG5HjjASV1zbys5\"]},\"node_modules/@bananapus/core-v5/src/interfaces/IJBMultiTerminal.sol\":{\"keccak256\":\"0x5d4bb096842b1e06e65fb4299d1a9162e82d397a67a9b742aeb445f8fbfd8829\",\"license\":\"MIT\",\"urls\":[\"bzz-raw://5d7648a498111cfc879f00cb073c5077b648530d55ca2298f9bcf7514bff5f4a\",\"dweb:/ipfs/QmUt9XWSbWia6m99Xbr3UDoKY79ptujw6YmhqbYTcfqau4\"]},\"node_modules/@bananapus/core-v5/src/interfaces/IJBPayHook.sol\":{\"keccak256\":\"0x9438866782c652c2942f4d114e35f393cd3c8b0334abce8387eed90bca35e8b2\",\"license\":\"MIT\",\"urls\":[\"bzz-raw://cfd99daf57213f92325aad7d7d16e98476d38e870470e95ba01e3ae3cdecc95d\",\"dweb:/ipfs/QmUKKAVGf7ki8BHksr99tFcRW8APveeB5tNH63ctTbbCW8\"]},\"node_modules/@bananapus/core-v5/src/interfaces/IJBPayoutTerminal.sol\":{\"keccak256\":\"0x54e826b28de02e91191fcfcb93f4d26d9bc9a0a4ecad8704bbbfe2fecb862864\",\"license\":\"MIT\",\"urls\":[\"bzz-raw://1269c0a6398db3293f24c6fa1153c312ef3ccfa0ccb22628bbc34e2aa8573f5d\",\"dweb:/ipfs/QmfDe6o6z4gh624fhhgJDcvDHRL3bHi5u7F7hSBkkMMt5a\"]},\"node_modules/@bananapus/core-v5/src/interfaces/IJBPermissioned.sol\":{\"keccak256\":\"0x5b038d4dee116584e88b230920e56d48e135053e3f7e5642eaea14a775c1dad7\",\"license\":\"MIT\",\"urls\":[\"bzz-raw://19e43102f349fd4a1da1c0943ffb8f2950007fe4bb4bb7e8f74fc142575d091b\",\"dweb:/ipfs/QmXHAt4KzDTdDZgDDefEXH2WKi7NcfkJb9R7nxW5uDqsNp\"]},\"node_modules/@bananapus/core-v5/src/interfaces/IJBPermissions.sol\":{\"keccak256\":\"0x49d2b91a866004af098a6770b28040071885b048b4b50744b12a1e5b212c5e5e\",\"license\":\"MIT\",\"urls\":[\"bzz-raw://089b4dda50be91412ffe1fbe333f78cc894f073c1a7afe469f10a2cee12fbf9e\",\"dweb:/ipfs/QmYPPBZ6HwBa1RNkNGqGcR2xgj4fnWBzrPHHoJG3kZA6AN\"]},\"node_modules/@bananapus/core-v5/src/interfaces/IJBPermitTerminal.sol\":{\"keccak256\":\"0xd6bd30842273f5b794f82219fefdd4953f5343328d2cfdb684b7d826cc0c769c\",\"license\":\"MIT\",\"urls\":[\"bzz-raw://ca1195fd5572060b36fc7e45f46d59f974e3a908248edcfadeb8cb06247075f0\",\"dweb:/ipfs/QmYTpDXKTXqi8GQFsNqB8LiGFTZjSPY3PA8vKqZBraVdqD\"]},\"node_modules/@bananapus/core-v5/src/interfaces/IJBPriceFeed.sol\":{\"keccak256\":\"0x4bd84c0f1a5d4729ed709bcddd43f4c50ec4a165ece79780af8dce482ed07d4a\",\"license\":\"MIT\",\"urls\":[\"bzz-raw://62bac4bfb6982fb002f620c77e5c445e62d50241a5aa64a07e51d929f5a42180\",\"dweb:/ipfs/QmWgJUDreVY2BuMX38a1iUUR5kNbMwGnKG3VvurB7oZtuM\"]},\"node_modules/@bananapus/core-v5/src/interfaces/IJBPrices.sol\":{\"keccak256\":\"0xb4d5244daa52aafab0c9b8806b7f973afa6a3b298add5966d586d27b78424cfb\",\"license\":\"MIT\",\"urls\":[\"bzz-raw://a819f74455aaa4f679ded378424702f3992608a640d7f943b19938eb4ff711da\",\"dweb:/ipfs/QmSMGvVTsMW3L5YSUyXTKoEsgNpGEutnq4frEZHuDdeDvz\"]},\"node_modules/@bananapus/core-v5/src/interfaces/IJBProjectUriRegistry.sol\":{\"keccak256\":\"0xc9ab647179d7d0c857fdd881d6ce96f06254739440ed08e85a1c2042218f7c7d\",\"license\":\"MIT\",\"urls\":[\"bzz-raw://8529368f30c98c8d5a69acdbe4ac79e3eeb4afa5a9cd278325c5f2184ef3d50f\",\"dweb:/ipfs/QmfUaozYiAGt1UwBDUEZvon1tEBS5sLPzqpN9dNdjQotPN\"]},\"node_modules/@bananapus/core-v5/src/interfaces/IJBProjects.sol\":{\"keccak256\":\"0x4ae42a9cc29b517b26d2b9b635deb82c16696b777deeca92dfcad33b0f81c0a0\",\"license\":\"MIT\",\"urls\":[\"bzz-raw://1dcbd860e7d7f05232d90c5e9cfd3d01e2ce986ffcdb053473d8a4d387b1a48a\",\"dweb:/ipfs/QmWKWoSJJbVWDumbnzXJBJyXmAacgC97bxMtchh8te41bn\"]},\"node_modules/@bananapus/core-v5/src/interfaces/IJBRulesetApprovalHook.sol\":{\"keccak256\":\"0x5f0dc5968277b572ba5dc74518906dfb33a9684b7a199c7843f4e66af1c11fb9\",\"license\":\"MIT\",\"urls\":[\"bzz-raw://323ce3731aebdf5bf8055b8550055e856feed700d293af8beaf8a750625a0975\",\"dweb:/ipfs/QmU2ErV2uzvXnsJt1qBKm73H2qWcEqYtQGHtZEpx93DaWJ\"]},\"node_modules/@bananapus/core-v5/src/interfaces/IJBRulesetDataHook.sol\":{\"keccak256\":\"0x45a88aa9f26512f7fc3deff6d00be9a292fc07a76c8311f175249400e83d1837\",\"license\":\"MIT\",\"urls\":[\"bzz-raw://1e88b996c3a05f87f7391ebcb9cd6d46c6ce8768083945f26a98c4ac4509e64c\",\"dweb:/ipfs/QmbpuYi6mYV8K8qrh8syWvbPc34pFrXG6QeC23m4MsX3r9\"]},\"node_modules/@bananapus/core-v5/src/interfaces/IJBRulesets.sol\":{\"keccak256\":\"0xf287c7a4a162cd58084ed10ee5f9f31c992addff0ce2f2ac7e810cc393546f30\",\"license\":\"MIT\",\"urls\":[\"bzz-raw://c851b72de52c3ceb73c6b1849ad0cc7c0832fd126ee52cc838a163ab6d3055b8\",\"dweb:/ipfs/Qmbv6k6pSeNMwZoTUKzDNb18DMGR8DboRMrYQBydATuVZw\"]},\"node_modules/@bananapus/core-v5/src/interfaces/IJBSplitHook.sol\":{\"keccak256\":\"0xeb8dfac7a4b81897a1c3b5d0d853a406bcff33720fb187d5ca5bb3dcc0ba3a12\",\"license\":\"MIT\",\"urls\":[\"bzz-raw://36aaeef6107cfe5b0127e063ea215aac7200f8af02e28a48e61111abd3254688\",\"dweb:/ipfs/QmQ8yQANXnhQCAWBGKsKCDsJ3A8hnTKNg5tyo79GfWXTcV\"]},\"node_modules/@bananapus/core-v5/src/interfaces/IJBSplits.sol\":{\"keccak256\":\"0x424e6d1189b9ba7a5d441e7675ae09ff893c13c62b9ddde4dd6bc2690e96c6f3\",\"license\":\"MIT\",\"urls\":[\"bzz-raw://7e30ed7ab1daf20ff324aacfef7150a243b5db496eceaf032c7012ccb3c4227d\",\"dweb:/ipfs/QmRj5EZKmDjJy8tpvKbpz8vPSKHR5C9Q5ENe7oSLij4H8M\"]},\"node_modules/@bananapus/core-v5/src/interfaces/IJBTerminal.sol\":{\"keccak256\":\"0x5a4c0ef6c8fd10069a408cc42a862909f7b47aba46327da5003203508d8f17d9\",\"license\":\"MIT\",\"urls\":[\"bzz-raw://09d8854151c21046b6b939189ad2139c669888e6baf47034a0cb754104d1efe6\",\"dweb:/ipfs/QmaMrxnf6K6znvDBwdAqsw5x6yuR4SY1BdNtyz226siAt5\"]},\"node_modules/@bananapus/core-v5/src/interfaces/IJBTerminalStore.sol\":{\"keccak256\":\"0xd402c60029e8235816b19c28ede20d5cf69ebe1e330642b121d27769e35867d8\",\"license\":\"MIT\",\"urls\":[\"bzz-raw://c1c10c5c451e0203790598f24e35ae6f4c629ff2d4b4124575a7178df8ec3ab2\",\"dweb:/ipfs/Qma3pon2gMNgEhUbaVJ15oxMt11CtqLc7AWCSZGBevUwiJ\"]},\"node_modules/@bananapus/core-v5/src/interfaces/IJBToken.sol\":{\"keccak256\":\"0xc2c0a75d97e3a20fd6964b09381736de03f56e58c27a874a0c96a21e02d0e577\",\"license\":\"MIT\",\"urls\":[\"bzz-raw://6ef8d476174aca6c35f7fb24ff8be619191bfd22038d3729ca4803252d3dae6a\",\"dweb:/ipfs/QmdWtAwf2A4P88of9gUyWY6hodT9fqpxJK4NBVQt9ys2Jd\"]},\"node_modules/@bananapus/core-v5/src/interfaces/IJBTokenUriResolver.sol\":{\"keccak256\":\"0xfa5cb00dcd6085d1ef912d071fe73c63f9478a2cd0f9d8bddaf659b6af2d0967\",\"license\":\"MIT\",\"urls\":[\"bzz-raw://282e4e7c342d65f77cde0e9a08fcaf20ef5cf379c7a48b639842c0ffd0b2afb8\",\"dweb:/ipfs/QmbnN3PEQeZaXdPLT75V1J79kMg7KqSMru37RHrL3z8Yf2\"]},\"node_modules/@bananapus/core-v5/src/interfaces/IJBTokens.sol\":{\"keccak256\":\"0xe3f0cca072afcac9ee3c875b7439a6edb4a9276e9dba01184d11e8270a25f258\",\"license\":\"MIT\",\"urls\":[\"bzz-raw://bc3e437b8588965b911a750dc632ac1aca4f9348a137877047a62df598a17bc7\",\"dweb:/ipfs/QmdXjVMdCFcw8HFbhxZZbj9KzxNx2ThjVfcDhFBt1khfvL\"]},\"node_modules/@bananapus/core-v5/src/libraries/JBConstants.sol\":{\"keccak256\":\"0x4dd0f809f1f10cf961e85632e5f3ea5e49716b104a0e8bc4d8ccc2081e9d007a\",\"license\":\"MIT\",\"urls\":[\"bzz-raw://09432ec01de81f7c295579fa3176610776cb186fba4c50d799108a18f14e5cc6\",\"dweb:/ipfs/QmS52c525xJui5u1xoY76PTq2n1pvnUzThBK38A1fsWdLp\"]},\"node_modules/@bananapus/core-v5/src/libraries/JBMetadataResolver.sol\":{\"keccak256\":\"0x52402cc945b1a23d0560a2a9c93a11271ce0ab18e592a4d78fc449a8b417526d\",\"license\":\"MIT\",\"urls\":[\"bzz-raw://912b5056f5768b14f26e4e2a754b90ce631a1f4898af6883f6d1e4a1f4ce87c8\",\"dweb:/ipfs/QmdnGcjTQtxscD1QDTERN2xqVA6iJnLCkfq1vWSUmDYYtX\"]},\"node_modules/@bananapus/core-v5/src/libraries/JBRulesetMetadataResolver.sol\":{\"keccak256\":\"0x3ed84aa51ce7ee94c65c507bb6f209fef4ae89c7446a2ed841602a235afcf43d\",\"license\":\"MIT\",\"urls\":[\"bzz-raw://cbeb6faae79112f85366ee53ad5c65f41a68f799912a5f09b0d6a49f8d9df647\",\"dweb:/ipfs/QmdEyZ6QF5q9UHMwbxWA9RrFwtL5iYHRydCAnHdKqqukDB\"]},\"node_modules/@bananapus/core-v5/src/structs/JBAccountingContext.sol\":{\"keccak256\":\"0x9c47e048a719f784f601df69a583505432217b9868a0244876d277f84dd1ebdf\",\"license\":\"MIT\",\"urls\":[\"bzz-raw://8565f194b87914da9a02af2e760ae2ed2a9d185c6f11229f7035140776d2fec9\",\"dweb:/ipfs/QmPs2fic8W3F5e5zNRwmGmJFjb3JWGPWJ3YUe5o82nQgEn\"]},\"node_modules/@bananapus/core-v5/src/structs/JBAfterCashOutRecordedContext.sol\":{\"keccak256\":\"0xa1acdb1a5670f66f730e71f8eff120766b6f5c934e6cd699c7f1a7cc93adf658\",\"license\":\"MIT\",\"urls\":[\"bzz-raw://a9c7655c9c42b30132688b395251748c809c334370ee584cb9bac46e1fb8f162\",\"dweb:/ipfs/QmbMV1wg1Fm236HaA6nnMSvRkzeYCKPRhMYDbqkAxieY7x\"]},\"node_modules/@bananapus/core-v5/src/structs/JBAfterPayRecordedContext.sol\":{\"keccak256\":\"0x3bfc01ae9944a0ff5c41125e18ebb8efca58d7aa4e471d2ffa6d8588afb689ab\",\"license\":\"MIT\",\"urls\":[\"bzz-raw://beb21399142d9b89539cfc8aa94119bc106bd1ea847b922d4c78f3f8804a5cba\",\"dweb:/ipfs/QmXDwJXrzCb6zh1KYwVdN2PEY86uK62MTfYF1M2MBtbEP7\"]},\"node_modules/@bananapus/core-v5/src/structs/JBBeforeCashOutRecordedContext.sol\":{\"keccak256\":\"0x7b2119f3e0725becc552ed5dcfa51683960a8772550c95ac5e2f75240ced367c\",\"license\":\"MIT\",\"urls\":[\"bzz-raw://03369dd07a9126ce453d83ac409919326f0aaa48ff9eac5c703092b3824d79c9\",\"dweb:/ipfs/Qmc1QKw6FfmeBD372RnDyeW27QyzEUjMX5up5rk8SHRYGa\"]},\"node_modules/@bananapus/core-v5/src/structs/JBBeforePayRecordedContext.sol\":{\"keccak256\":\"0xbc98b968d84be2f0ddbb24240723c7179ec9c5e02e5fbd5843dd0e76623a3ea5\",\"license\":\"MIT\",\"urls\":[\"bzz-raw://1310e522696a9fc6f7f96b04c293fab3b4cf1e722bdbb7aa1eec7b3ecc25402f\",\"dweb:/ipfs/QmTYiijDJRuQcMhLrmpbHzHAQFPq6jurPP5HjyYtnzbpnK\"]},\"node_modules/@bananapus/core-v5/src/structs/JBCashOutHookSpecification.sol\":{\"keccak256\":\"0x67a6e781019979e626eaa81d84a800b2656603c23ae455e15d0fa1a6f03c1736\",\"license\":\"MIT\",\"urls\":[\"bzz-raw://b43ce54447dda62d449a1e3575a9e4cb9c5a2adb41b45423dcefeb7d9afe8336\",\"dweb:/ipfs/QmW77REnQcvsfv4gwTLj2CyynmaGC3a6om7zCFWmERhrPY\"]},\"node_modules/@bananapus/core-v5/src/structs/JBCurrencyAmount.sol\":{\"keccak256\":\"0x7f321bbcbd13abfbc8f0d08a5adaaf8ef312db5bb899012fcffb6170fbb962a9\",\"license\":\"MIT\",\"urls\":[\"bzz-raw://bf9301ef1dbb3abda7b492585377617508ba048c6170f21a5e7d2b3c034eb384\",\"dweb:/ipfs/QmcetEFxSYLLNSZzPBpNn3Fc8sFcrFE8A8h12ZSj2tLgxD\"]},\"node_modules/@bananapus/core-v5/src/structs/JBFee.sol\":{\"keccak256\":\"0xffacd6dcce11a5cdd54aba7a5d8f9b28b9b36b87771dea746a117b616519bbd0\",\"license\":\"MIT\",\"urls\":[\"bzz-raw://c278d6efa1dd694c8aceba43b2cb3f2b49a52d9b15fc23089def526e4ba23778\",\"dweb:/ipfs/QmVHEGGAfsUVE791aGeYZBiymU6aJ278PoGmH9SRLY1U4N\"]},\"node_modules/@bananapus/core-v5/src/structs/JBFundAccessLimitGroup.sol\":{\"keccak256\":\"0x9fdaa8d017b72da25f583700a444a86849df053f7fb8eac874ec5139bcf651e5\",\"license\":\"MIT\",\"urls\":[\"bzz-raw://c8e44c49ee444a98424a0dbeb6897a76a0bf00d88a613f62ac2012afdac754ee\",\"dweb:/ipfs/QmdYkAiRi5bXM1YYNkc7BiqimHSFodMGn1cjHR5hcpm4xH\"]},\"node_modules/@bananapus/core-v5/src/structs/JBPayHookSpecification.sol\":{\"keccak256\":\"0x955f0bfca97300b9e5927dc181753830ee362f83fa9ca32a90daade32aa0cfd5\",\"license\":\"MIT\",\"urls\":[\"bzz-raw://f517af1597c7c40f8d3da53f7a6684a3e162950a16559d6bf6ea3b727bb11546\",\"dweb:/ipfs/QmRWo2ZTYXmVZTzNJDYhsJNsEaHphjpUfx9eNz2cciyz86\"]},\"node_modules/@bananapus/core-v5/src/structs/JBPermissionsData.sol\":{\"keccak256\":\"0x65e26b78a1f00d81a21abd255c9670b600efca60cf36a993b8f48ecb268464a4\",\"license\":\"MIT\",\"urls\":[\"bzz-raw://d108c721c4281b13de34641befd2a1e9fac73a70195ef5ca957abda6fca9acca\",\"dweb:/ipfs/QmWoJo7wzSKY3z4YCpFvR8DoCUTKviiuFEj2tBkcgKUqW1\"]},\"node_modules/@bananapus/core-v5/src/structs/JBRuleset.sol\":{\"keccak256\":\"0x2d1f0a8457e94addae51a8222b1837e372847624fde96bb3178e7aee52ab2b24\",\"license\":\"MIT\",\"urls\":[\"bzz-raw://bbb1478e8f5d1c20f981e5a0d5e526d002add1e05ddced87ccd45543ed00c9e4\",\"dweb:/ipfs/QmZkgaYdwkbnvW2MGwVe9FeHjac8XyZTP1YZcWUApiGZgE\"]},\"node_modules/@bananapus/core-v5/src/structs/JBRulesetConfig.sol\":{\"keccak256\":\"0xeba54f25ad84b9c6009f62ded187b58f97e0822e9b19ab0986aee6603ca5400a\",\"license\":\"MIT\",\"urls\":[\"bzz-raw://5a51743febf78f2ede92d32a2b18c3c5f06f02c413c2d01f28dc296840b068ef\",\"dweb:/ipfs/QmVSRDtB7xUgaLGW5tSJr7PhW5XPxkWg226Sk2g75qWpxh\"]},\"node_modules/@bananapus/core-v5/src/structs/JBRulesetMetadata.sol\":{\"keccak256\":\"0x318f0b75275c3822df53a02e98782c9e98e7961116f2ad66a528c6adcd14c946\",\"license\":\"MIT\",\"urls\":[\"bzz-raw://d60f62390e43d182bfe875d1ac57e9de10426d81038ba7d8c3727b22392299e2\",\"dweb:/ipfs/QmUtE6fcP25wEhVJNEbrPHyFPkg5hp2PFf5xcwBeHPmNAf\"]},\"node_modules/@bananapus/core-v5/src/structs/JBRulesetWithMetadata.sol\":{\"keccak256\":\"0x1bcfadf20488f6df65227f8d4d0fbf9b7539456a2389567f7fe3900d23289bc3\",\"license\":\"MIT\",\"urls\":[\"bzz-raw://0a15c399a71e5373f8c0484c6d6b83521eda31e063a2c53e4c5cec4e74550343\",\"dweb:/ipfs/QmQwi8zkjoTVXbK89NeETYimWCacTrNsesJdpLSvGdqMPX\"]},\"node_modules/@bananapus/core-v5/src/structs/JBSplit.sol\":{\"keccak256\":\"0xfcedbb8b6937ee00578a4c3ec70e2555a2c0a5c18f1eba3b96701b07c1dd94a4\",\"license\":\"MIT\",\"urls\":[\"bzz-raw://7014a7b6f30f35941898eea1d9d32a2d75c807f59e2f0fcb430efc8c25edc1da\",\"dweb:/ipfs/QmWitPTxQCDUfoWrRRrYvE9YhuTcwCAXxVvkVLNk9Jsem1\"]},\"node_modules/@bananapus/core-v5/src/structs/JBSplitGroup.sol\":{\"keccak256\":\"0x8dc98fa9e730bee8bcc0a8acf1bc4db1c9b0edf307d969c9c9caa4d6b8d856d9\",\"license\":\"MIT\",\"urls\":[\"bzz-raw://66f4306e0e69c82033927952564fd617e7c4b29aa8b165d5b53a0ebe3109ea12\",\"dweb:/ipfs/QmQqN1u7FHAdEtEZNRcKvZwYtXEQVQnLd6FMzHESP7wDtx\"]},\"node_modules/@bananapus/core-v5/src/structs/JBSplitHookContext.sol\":{\"keccak256\":\"0x1cef82bf434f91d518092ea7e57db4a72ce7654f48a7db9bf44882900b6b6623\",\"license\":\"MIT\",\"urls\":[\"bzz-raw://cc5012008ab7e74cf766fe1c202a23e3a73365356bcf1e0b04ec01baf21b204b\",\"dweb:/ipfs/QmSwJvd6Yrg9XZMhjquBcak5sfUswbR5nPEuJBfpjM54VT\"]},\"node_modules/@bananapus/core-v5/src/structs/JBTerminalConfig.sol\":{\"keccak256\":\"0x9e31505080d3754b6d7db96095b0545930ef6dbc035b91fcc32fdc76a0e7c2a5\",\"license\":\"MIT\",\"urls\":[\"bzz-raw://f7702ab33a1b713c37e5397a55d8ef089289f4da8034cfe9622cbc69a98c47de\",\"dweb:/ipfs/QmXyiXps4aJyiM7vtDC373QUoqwB4DMETaZzC5cZPJKaAK\"]},\"node_modules/@bananapus/core-v5/src/structs/JBTokenAmount.sol\":{\"keccak256\":\"0xc61593d33d5ec30e695d382948a1b944d01e29a8f2bfd29f75ecebcdbc7816de\",\"license\":\"MIT\",\"urls\":[\"bzz-raw://8992c1e5fca0c2342ecc0e734dfba6a2a752e4c29184784931d0971e44305051\",\"dweb:/ipfs/QmYNcaW3qeCkgAExUaFTq238fgfJuoYCTwjCn7jm94U4dJ\"]},\"node_modules/@bananapus/ownable-v5/src/JBOwnable.sol\":{\"keccak256\":\"0xad1f9fcc7cfa404a6c20b0eafbc71a2c90a4a3f9aebeaa4b2cab63355892ed30\",\"license\":\"MIT\",\"urls\":[\"bzz-raw://cd0ef227f070c6c68c998c711e70e61850eabe789a026e34f11e8e0d506739a6\",\"dweb:/ipfs/QmPeZXX7Lq8Q3jHSMvQR5W6UprCy5z5BPY8tz6KXEt4a5S\"]},\"node_modules/@bananapus/ownable-v5/src/JBOwnableOverrides.sol\":{\"keccak256\":\"0x3ccb51dfe5ea52398b63013dba97552f5b1a443bc6df8713458ee5ce75230bd0\",\"license\":\"MIT\",\"urls\":[\"bzz-raw://cd2985c7e5783482a64b774d3be8bcf6736c5e754ffd4c0baa3647fb0ff53b69\",\"dweb:/ipfs/QmfEYE8EXGPbvNcWZj4H4DX2HLxscYcFSckpAGwttt4SRS\"]},\"node_modules/@bananapus/ownable-v5/src/interfaces/IJBOwnable.sol\":{\"keccak256\":\"0xa94807eab5362c523d403a10902db431753b9b1e4b73259d4d7e217fc6cdf766\",\"license\":\"MIT\",\"urls\":[\"bzz-raw://d5cd284927df617997d055dfaa5f17b9c22c5ce678b9c87b627d14aaa87fa8d2\",\"dweb:/ipfs/Qma1M9MV1FFsaPF5oAMDL7KdidFzCjZ6EZ8mdLo9MXkgxa\"]},\"node_modules/@bananapus/ownable-v5/src/structs/JBOwner.sol\":{\"keccak256\":\"0x535d669344addf9ce4a62320960699ae8c47b4a615327a1cb32590b4e046c069\",\"license\":\"MIT\",\"urls\":[\"bzz-raw://64e228cc198dafde001eb65092eebf6e99f91420b993deb9c5dc8204cf2469ce\",\"dweb:/ipfs/QmWpKRsMt3SwToaVyNjF6ZJZaL3Kz2QDfee8BBN2FExV3i\"]},\"node_modules/@bananapus/permission-ids-v5/src/JBPermissionIds.sol\":{\"keccak256\":\"0x03d598c570091f294bebe9c7b59bfc2d907d5b70a3193c3bdb9ddec67edae1e0\",\"license\":\"MIT\",\"urls\":[\"bzz-raw://afb1aefda01e53fa79441bab1fa9cb46154e0db9d16bec8f9b7fa80d200916db\",\"dweb:/ipfs/Qmbkt9HgWmz5rgehRttkzFqW9SkwRYvXYqtHmuxHVxz8ZD\"]},\"node_modules/@openzeppelin/contracts/access/Ownable.sol\":{\"keccak256\":\"0xff6d0bb2e285473e5311d9d3caacb525ae3538a80758c10649a4d61029b017bb\",\"license\":\"MIT\",\"urls\":[\"bzz-raw://8ed324d3920bb545059d66ab97d43e43ee85fd3bd52e03e401f020afb0b120f6\",\"dweb:/ipfs/QmfEckWLmZkDDcoWrkEvMWhms66xwTLff9DDhegYpvHo1a\"]},\"node_modules/@openzeppelin/contracts/interfaces/IERC1363.sol\":{\"keccak256\":\"0xd5ea07362ab630a6a3dee4285a74cf2377044ca2e4be472755ad64d7c5d4b69d\",\"license\":\"MIT\",\"urls\":[\"bzz-raw://da5e832b40fc5c3145d3781e2e5fa60ac2052c9d08af7e300dc8ab80c4343100\",\"dweb:/ipfs/QmTzf7N5ZUdh5raqtzbM11yexiUoLC9z3Ws632MCuycq1d\"]},\"node_modules/@openzeppelin/contracts/interfaces/IERC165.sol\":{\"keccak256\":\"0x0afcb7e740d1537b252cb2676f600465ce6938398569f09ba1b9ca240dde2dfc\",\"license\":\"MIT\",\"urls\":[\"bzz-raw://1c299900ac4ec268d4570ecef0d697a3013cd11a6eb74e295ee3fbc945056037\",\"dweb:/ipfs/Qmab9owJoxcA7vJT5XNayCMaUR1qxqj1NDzzisduwaJMcZ\"]},\"node_modules/@openzeppelin/contracts/interfaces/IERC20.sol\":{\"keccak256\":\"0x1a6221315ce0307746c2c4827c125d821ee796c74a676787762f4778671d4f44\",\"license\":\"MIT\",\"urls\":[\"bzz-raw://1bb2332a7ee26dd0b0de9b7fe266749f54820c99ab6a3bcb6f7e6b751d47ee2d\",\"dweb:/ipfs/QmcRWpaBeCYkhy68PR3B4AgD7asuQk7PwkWxrvJbZcikLF\"]},\"node_modules/@openzeppelin/contracts/interfaces/IERC2981.sol\":{\"keccak256\":\"0xafab0e6c71905303c47dd254168cb31efc91f0ae284cde609b0202f97f85469e\",\"license\":\"MIT\",\"urls\":[\"bzz-raw://824d05aec56eb82a2a3c28eece530dc0792d3a008b09d01444e57cf4aceb0445\",\"dweb:/ipfs/QmVvqmJ5UobuRU9Q4JMyXxBfzKs2cpjbWXMNpxX4binTX8\"]},\"node_modules/@openzeppelin/contracts/interfaces/draft-IERC6093.sol\":{\"keccak256\":\"0x19fdfb0f3b89a230e7dbd1cf416f1a6b531a3ee5db4da483f946320fc74afc0e\",\"license\":\"MIT\",\"urls\":[\"bzz-raw://3490d794728f5bfecb46820431adaff71ba374141545ec20b650bb60353fac23\",\"dweb:/ipfs/QmPsfxjVpMcZbpE7BH93DzTpEaktESigEw4SmDzkXuJ4WR\"]},\"node_modules/@openzeppelin/contracts/metatx/ERC2771Context.sol\":{\"keccak256\":\"0x345acfb731203002ef98916d5a222339709db0ad44dc4a389e7f1ce4088ce59b\",\"license\":\"MIT\",\"urls\":[\"bzz-raw://e1dcd7e6c8ca2b402e232d2e44666c282a894c475bca15532464a47513222e5d\",\"dweb:/ipfs/QmbfGjwHHCUxHtkCECoisxr7JDiZXSFtrHNizwwKzNNSHJ\"]},\"node_modules/@openzeppelin/contracts/proxy/Clones.sol\":{\"keccak256\":\"0x7e918671c04972845975935ea13c9ce0be1228031ba0e929d0f1f68fd1f17214\",\"license\":\"MIT\",\"urls\":[\"bzz-raw://3027ebaeef3e678ad9bae26f0556469878e992bf7dec94bede328a92be529419\",\"dweb:/ipfs/Qmdu4RfMYv9Q7iHWuYfyUL6fZKc73nM4YWizNP8w1xay56\"]},\"node_modules/@openzeppelin/contracts/token/ERC20/IERC20.sol\":{\"keccak256\":\"0x74ed01eb66b923d0d0cfe3be84604ac04b76482a55f9dd655e1ef4d367f95bc2\",\"license\":\"MIT\",\"urls\":[\"bzz-raw://5282825a626cfe924e504274b864a652b0023591fa66f06a067b25b51ba9b303\",\"dweb:/ipfs/QmeCfPykghhMc81VJTrHTC7sF6CRvaA1FXVq2pJhwYp1dV\"]},\"node_modules/@openzeppelin/contracts/token/ERC20/extensions/IERC20Metadata.sol\":{\"keccak256\":\"0xd6fa4088198f04eef10c5bce8a2f4d60554b7ec4b987f684393c01bf79b94d9f\",\"license\":\"MIT\",\"urls\":[\"bzz-raw://f95ee0bbd4dd3ac730d066ba3e785ded4565e890dbec2fa7d3b9fe3bad9d0d6e\",\"dweb:/ipfs/QmSLr6bHkPFWT7ntj34jmwfyskpwo97T9jZUrk5sz3sdtR\"]},\"node_modules/@openzeppelin/contracts/token/ERC20/utils/SafeERC20.sol\":{\"keccak256\":\"0x982c5cb790ab941d1e04f807120a71709d4c313ba0bfc16006447ffbd27fbbd5\",\"license\":\"MIT\",\"urls\":[\"bzz-raw://8150ceb4ac947e8a442b2a9c017e01e880b2be2dd958f1fa9bc405f4c5a86508\",\"dweb:/ipfs/QmbcBmFX66AY6Kbhnd5gx7zpkgqnUafo43XnmayAM7zVdB\"]},\"node_modules/@openzeppelin/contracts/token/ERC721/IERC721.sol\":{\"keccak256\":\"0xf78f05f3b8c9f75570e85300d7b4600d7f6f6a198449273f31d44c1641adb46f\",\"license\":\"MIT\",\"urls\":[\"bzz-raw://e28b872613b45e0e801d4995aa4380be2531147bfe2d85c1d6275f1de514fba3\",\"dweb:/ipfs/QmeeFcfShHYaS3BdgVj78nxR28ZaVUwbvr66ud8bT6kzw9\"]},\"node_modules/@openzeppelin/contracts/token/ERC721/IERC721Receiver.sol\":{\"keccak256\":\"0x88cd5e3bee2e8c36b8d9058fbcaa81ad5704281b25634122234b55ea853d8055\",\"license\":\"MIT\",\"urls\":[\"bzz-raw://8dc7e7ab5b8ea36c15027ab04221b05d1c970f47a53e9fd47ead8ca665d49c7e\",\"dweb:/ipfs/Qmeeph7fsDyfRr8vb2L8KcDEmKPb224TAayMvgqgGAnqpL\"]},\"node_modules/@openzeppelin/contracts/token/ERC721/extensions/IERC721Metadata.sol\":{\"keccak256\":\"0xf46268c37522320bb2119a5a394bc5c739a95c0c574c8d08e8c643f4d06e5c76\",\"license\":\"MIT\",\"urls\":[\"bzz-raw://517e4b295f35b9947c72ad7379a6089439ece7bb6f4a2ea0a159da13046c039e\",\"dweb:/ipfs/QmZXzkSfLUbvujig3zVbpDHykpHhqLpvQtdiN3B5j4TA3u\"]},\"node_modules/@openzeppelin/contracts/utils/Address.sol\":{\"keccak256\":\"0x6d0ae6e206645341fd122d278c2cb643dea260c190531f2f3f6a0426e77b00c0\",\"license\":\"MIT\",\"urls\":[\"bzz-raw://032d1201d839435be2c85b72e33206b3ea980c569d6ebf7fa57d811ab580a82f\",\"dweb:/ipfs/QmeqQjAtMvdZT2tG7zm39itcRJkuwu8AEReK6WRnLJ18DD\"]},\"node_modules/@openzeppelin/contracts/utils/Context.sol\":{\"keccak256\":\"0x493033a8d1b176a037b2cc6a04dad01a5c157722049bbecf632ca876224dd4b2\",\"license\":\"MIT\",\"urls\":[\"bzz-raw://6a708e8a5bdb1011c2c381c9a5cfd8a9a956d7d0a9dc1bd8bcdaf52f76ef2f12\",\"dweb:/ipfs/Qmax9WHBnVsZP46ZxEMNRQpLQnrdE4dK8LehML1Py8FowF\"]},\"node_modules/@openzeppelin/contracts/utils/Create2.sol\":{\"keccak256\":\"0xbb7e8401583d26268ea9103013bcdcd90866a7718bd91105ebd21c9bf11f4f06\",\"license\":\"MIT\",\"urls\":[\"bzz-raw://866a11ad89c93ee918078f7a46ae31e17d89216ce64603f0d34be7ed0a5c520e\",\"dweb:/ipfs/QmW3ckLEJg2v2NzuVLNJFmRuerGSipw6Dzg6ntbmqbAGoC\"]},\"node_modules/@openzeppelin/contracts/utils/Errors.sol\":{\"keccak256\":\"0x6afa713bfd42cf0f7656efa91201007ac465e42049d7de1d50753a373648c123\",\"license\":\"MIT\",\"urls\":[\"bzz-raw://ba1d02f4847670a1b83dec9f7d37f0b0418d6043447b69f3a29a5f9efc547fcf\",\"dweb:/ipfs/QmQ7iH2keLNUKgq2xSWcRmuBE5eZ3F5whYAkAGzCNNoEWB\"]},\"node_modules/@openzeppelin/contracts/utils/Panic.sol\":{\"keccak256\":\"0xf7fe324703a64fc51702311dc51562d5cb1497734f074e4f483bfb6717572d7a\",\"license\":\"MIT\",\"urls\":[\"bzz-raw://c6a5ff4f9fd8649b7ee20800b7fa387d3465bd77cf20c2d1068cd5c98e1ed57a\",\"dweb:/ipfs/QmVSaVJf9FXFhdYEYeCEfjMVHrxDh5qL4CGkxdMWpQCrqG\"]},\"node_modules/@openzeppelin/contracts/utils/Strings.sol\":{\"keccak256\":\"0xad148d59f05165f9217d0a9e1ac8f772abb02ea6aaad8a756315c532bf79f9f4\",\"license\":\"MIT\",\"urls\":[\"bzz-raw://15e3599867c2182f5831e9268b274b2ef2047825837df6b4d81c9e89254b093e\",\"dweb:/ipfs/QmZbL7XAYr5RmaNaooPgZRmcDXaudfsYQfYD9y5iAECvpS\"]},\"node_modules/@openzeppelin/contracts/utils/introspection/ERC165.sol\":{\"keccak256\":\"0x2d9dc2fe26180f74c11c13663647d38e259e45f95eb88f57b61d2160b0109d3e\",\"license\":\"MIT\",\"urls\":[\"bzz-raw://81233d1f98060113d9922180bb0f14f8335856fe9f339134b09335e9f678c377\",\"dweb:/ipfs/QmWh6R35SarhAn4z2wH8SU456jJSYL2FgucfTFgbHJJN4E\"]},\"node_modules/@openzeppelin/contracts/utils/introspection/IERC165.sol\":{\"keccak256\":\"0x8891738ffe910f0cf2da09566928589bf5d63f4524dd734fd9cedbac3274dd5c\",\"license\":\"MIT\",\"urls\":[\"bzz-raw://971f954442df5c2ef5b5ebf1eb245d7105d9fbacc7386ee5c796df1d45b21617\",\"dweb:/ipfs/QmadRjHbkicwqwwh61raUEapaVEtaLMcYbQZWs9gUkgj3u\"]},\"node_modules/@openzeppelin/contracts/utils/math/Math.sol\":{\"keccak256\":\"0x1225214420c83ebcca88f2ae2b50f053aaa7df7bd684c3e878d334627f2edfc6\",\"license\":\"MIT\",\"urls\":[\"bzz-raw://6c5fab4970634f9ab9a620983dc1c8a30153981a0b1a521666e269d0a11399d3\",\"dweb:/ipfs/QmVRnBC575MESGkEHndjujtR7qub2FzU9RWy9eKLp4hPZB\"]},\"node_modules/@openzeppelin/contracts/utils/math/SafeCast.sol\":{\"keccak256\":\"0x195533c86d0ef72bcc06456a4f66a9b941f38eb403739b00f21fd7c1abd1ae54\",\"license\":\"MIT\",\"urls\":[\"bzz-raw://b1d578337048cad08c1c03041cca5978eff5428aa130c781b271ad9e5566e1f8\",\"dweb:/ipfs/QmPFKL2r9CBsMwmUqqdcFPfHZB2qcs9g1HDrPxzWSxomvy\"]},\"node_modules/@openzeppelin/contracts/utils/math/SignedMath.sol\":{\"keccak256\":\"0xb1970fac7b64e6c09611e6691791e848d5e3fe410fa5899e7df2e0afd77a99e3\",\"license\":\"MIT\",\"urls\":[\"bzz-raw://db5fbb3dddd8b7047465b62575d96231ba8a2774d37fb4737fbf23340fabbb03\",\"dweb:/ipfs/QmVUSvooZKEdEdap619tcJjTLcAuH6QBdZqAzWwnAXZAWJ\"]},\"node_modules/@openzeppelin/contracts/utils/structs/Checkpoints.sol\":{\"keccak256\":\"0xe32a5a466492f6a3b871d705d045fc2f8d6e6c8bf69288011531ff875003993f\",\"license\":\"MIT\",\"urls\":[\"bzz-raw://61c69a907ca80a9cff4bdf30f64d5ee458a6c54f0a87ed7e4c2a1b9275256851\",\"dweb:/ipfs/QmVmhbvE7w5Hs9tj9NBPLk6yAirrEhaRYgTRT9USat4H9a\"]},\"node_modules/@prb/math/src/Common.sol\":{\"keccak256\":\"0x8225a3898d2f11f585da1fb82234800e9717fa080dbe53d450fd429a3a632e99\",\"license\":\"MIT\",\"urls\":[\"bzz-raw://2dcbf39ca575f68f32f0d1c66391de94082424956e7585e849813966f8c0fc05\",\"dweb:/ipfs/QmYvk8vXFDUJHrmqbtutYXfoLomLBosYLyBzuPoYBxsQ42\"]},\"node_modules/@uniswap/permit2/src/interfaces/IAllowanceTransfer.sol\":{\"keccak256\":\"0x37f0ac203b6ef605c9533e1a739477e8e9dcea90710b40e645a367f8a21ace29\",\"license\":\"MIT\",\"urls\":[\"bzz-raw://e0104d72aeaec1cd66cc232e7de7b7ead08608efcc179491b8a66387614670b0\",\"dweb:/ipfs/QmfAZDyuNC9FXXbnJUwqHNwmAK6uRrXxtWEytLsxjskPsN\"]},\"node_modules/@uniswap/permit2/src/interfaces/IEIP712.sol\":{\"keccak256\":\"0xfdccf2b9639070803cd0e4198427fb0df3cc452ca59bd3b8a0d957a9a4254138\",\"license\":\"MIT\",\"urls\":[\"bzz-raw://f7c936ac42ce89e827db905a1544397f8bdf46db34cdb6aa1b90dea42fdb4c72\",\"dweb:/ipfs/QmVgurxo1N31qZqkPBirw9Z7S9tLYmv6jSwQp8R8ur2cBk\"]},\"node_modules/@uniswap/permit2/src/interfaces/IPermit2.sol\":{\"keccak256\":\"0xaa631cc9f53e699301d94233007110a345e6779011def484e8dd97b8fe0af771\",\"license\":\"MIT\",\"urls\":[\"bzz-raw://fc0502cf19c9c18f320a3001201e89e350393b75837f6b7971de18b2de06f30d\",\"dweb:/ipfs/QmT9SfhdJ7VJNNrf94g4H5usyi7ShqWGx7Cqsz9jZTjX96\"]},\"node_modules/@uniswap/permit2/src/interfaces/ISignatureTransfer.sol\":{\"keccak256\":\"0xe6df9966f8841dc3958ee86169c89de97e7f614c81c28b9dc947b12d732df64e\",\"license\":\"MIT\",\"urls\":[\"bzz-raw://3d4eafdee7f48c3be8350a94eb6edd0bfb2af2c105df65787a77174f356c0317\",\"dweb:/ipfs/QmY1j2adeeAhNpn6cUuthemxGCdLXHTfyMh9yTKsY4mZ2d\"]}},\"version\":1}",
			"gitCommit": "3a67a4be13dc6b55c180f742360322bf61e62087",
			"history": []
		}
	]
}