{"abi":[{"type":"constructor","inputs":[{"name":"_operatorStore","type":"address","internalType":"contract IJBOperatorStore"},{"name":"_projects","type":"address","internalType":"contract IJBProjects"},{"name":"_directory","type":"address","internalType":"contract IJBDirectory"}],"stateMutability":"nonpayable"},{"type":"function","name":"directory","inputs":[],"outputs":[{"name":"","type":"address","internalType":"contract IJBDirectory"}],"stateMutability":"view"},{"type":"function","name":"operatorStore","inputs":[],"outputs":[{"name":"","type":"address","internalType":"contract IJBOperatorStore"}],"stateMutability":"view"},{"type":"function","name":"projects","inputs":[],"outputs":[{"name":"","type":"address","internalType":"contract IJBProjects"}],"stateMutability":"view"},{"type":"function","name":"set","inputs":[{"name":"_projectId","type":"uint256","internalType":"uint256"},{"name":"_domain","type":"uint256","internalType":"uint256"},{"name":"_groupedSplits","type":"tuple[]","internalType":"struct JBGroupedSplits[]","components":[{"name":"group","type":"uint256","internalType":"uint256"},{"name":"splits","type":"tuple[]","internalType":"struct JBSplit[]","components":[{"name":"preferClaimed","type":"bool","internalType":"bool"},{"name":"preferAddToBalance","type":"bool","internalType":"bool"},{"name":"percent","type":"uint256","internalType":"uint256"},{"name":"projectId","type":"uint256","internalType":"uint256"},{"name":"beneficiary","type":"address","internalType":"address payable"},{"name":"lockedUntil","type":"uint256","internalType":"uint256"},{"name":"allocator","type":"address","internalType":"contract IJBSplitAllocator"}]}]}],"outputs":[],"stateMutability":"nonpayable"},{"type":"function","name":"splitsOf","inputs":[{"name":"_projectId","type":"uint256","internalType":"uint256"},{"name":"_domain","type":"uint256","internalType":"uint256"},{"name":"_group","type":"uint256","internalType":"uint256"}],"outputs":[{"name":"","type":"tuple[]","internalType":"struct JBSplit[]","components":[{"name":"preferClaimed","type":"bool","internalType":"bool"},{"name":"preferAddToBalance","type":"bool","internalType":"bool"},{"name":"percent","type":"uint256","internalType":"uint256"},{"name":"projectId","type":"uint256","internalType":"uint256"},{"name":"beneficiary","type":"address","internalType":"address payable"},{"name":"lockedUntil","type":"uint256","internalType":"uint256"},{"name":"allocator","type":"address","internalType":"contract IJBSplitAllocator"}]}],"stateMutability":"view"},{"type":"event","name":"SetSplit","inputs":[{"name":"projectId","type":"uint256","indexed":true,"internalType":"uint256"},{"name":"domain","type":"uint256","indexed":true,"internalType":"uint256"},{"name":"group","type":"uint256","indexed":true,"internalType":"uint256"},{"name":"split","type":"tuple","indexed":false,"internalType":"struct JBSplit","components":[{"name":"preferClaimed","type":"bool","internalType":"bool"},{"name":"preferAddToBalance","type":"bool","internalType":"bool"},{"name":"percent","type":"uint256","internalType":"uint256"},{"name":"projectId","type":"uint256","internalType":"uint256"},{"name":"beneficiary","type":"address","internalType":"address payable"},{"name":"lockedUntil","type":"uint256","internalType":"uint256"},{"name":"allocator","type":"address","internalType":"contract IJBSplitAllocator"}]},{"name":"caller","type":"address","indexed":false,"internalType":"address"}],"anonymous":false},{"type":"error","name":"INVALID_LOCKED_UNTIL","inputs":[]},{"type":"error","name":"INVALID_PROJECT_ID","inputs":[]},{"type":"error","name":"INVALID_SPLIT_PERCENT","inputs":[]},{"type":"error","name":"INVALID_TOTAL_PERCENT","inputs":[]},{"type":"error","name":"PREVIOUS_LOCKED_SPLITS_NOT_INCLUDED","inputs":[]},{"type":"error","name":"UNAUTHORIZED","inputs":[]}],"bytecode":{"object":"0x60e0346100bd57601f610e5538819003918201601f19168301916001600160401b038311848410176100c1578084926060946040528339810103126100bd5780516001600160a01b03919082811681036100bd5760208201519183831683036100bd576040015192831683036100bd5760805260a05260c052604051610d7f90816100d682396080518181816106e50152818161079801526108aa015260a05181818160c801526108ee015260c05181818161011e01526108660152f35b5f80fd5b634e487b7160e01b5f52604160045260245ffdfe60806040526004361015610011575f80fd5b5f3560e01c806369e11cc51461091d5780638b79543c146108d9578063ad007d6314610895578063c41c2f24146108515763f2da44b614610050575f80fd5b3461067d57606036600319011261067d5767ffffffffffffffff6044351161067d5736602360443501121561067d5767ffffffffffffffff604435600401351161067d573660246044356004013560051b60443501011161067d576040516331a9108f60e11b815260048035908201526020816024817f00000000000000000000000000000000000000000000000000000000000000006001600160a01b03165afa90811561074c575f91610832575b50604051632eec7b5560e11b815260048035908201526020816024817f00000000000000000000000000000000000000000000000000000000000000006001600160a01b03165afa90811561074c575f91610803575b506001600160a01b031633141590816107ef575b81610757575b816106a7575b50610695575f5b60443560040135811061018c57005b60248160051b60443501013560621960443536030181121561067d5760443501906040602319833603011261067d576040516040810181811067ffffffffffffffff8211176106815760405260248301358152604483013567ffffffffffffffff811161067d5736604382860101121561067d576024818501013561021081610a37565b9461021e60405196876109f6565b818652602086019036604460e0850286840101011161067d57604484820101935b604460e08502828401010185106105e55750505050508260208201525161026b81602435600435610bd8565b8051905f5b828110610595575050505f908351915f5b8381106102b8575050600193506004355f525f60205260405f206024355f5260205260405f20905f5260205260405f20550161017d565b60406102c48288610a5c565b510151156105835766ffffffffffffff60606102e08389610a5c565b510151116105715760406102f48288610a5c565b510151820180921161055d57633b9aca00821161054b575f6103168288610a5c565b5151610543575b60206103298389610a5c565b51015161053b575b604061033d8389610a5c565b51015190606061034d848a610a5c565b51015160221b906001605a1b600160fa1b03608061036b868c610a5c565b510151605a1b169260021b1717176004355f52600160205260405f206024355f5260205260405f20845f5260205260405f20825f5260205260405f205560a06103b48288610a5c565b5101511580159061051b575b156104af5765ffffffffffff60a06103d88389610a5c565b5101511161049d578065ffffffffffff60a06103f66001948a610a5c565b5101511666010000000000008360d01b0360c0610413848b610a5c565b51015160301b16176004355f52600260205260405f206024355f5260205260405f20855f5260205260405f20825f5260205260405f20555b836104568289610a5c565b51610464604051809261098a565b3360e0820152602435907f1d65eeba667d8160993d485b4782f11eef3bc64186c6521f2a0801f816e752e761010060043592a401610281565b60405163d509b54d60e01b8152600490fd5b6001906004355f52600260205260405f206024355f5260205260405f20845f5260205260405f20815f5260205260405f20541561044b576004355f52600260205260405f206024355f5260205260405f20845f5260205260405f20815f526020525f604081205561044b565b506001600160a01b0360c06105308389610a5c565b5101511615156103c0565b600217610331565b50600161031d565b604051630eca736160e41b8152600490fd5b634e487b7160e01b5f52601160045260245ffd5b604051631da26cc960e11b8152600490fd5b60405163e119ba4560e01b8152600490fd5b60a06105a18284610a5c565b5101514210806105ca575b6105b857600101610270565b604051631974459560e01b8152600490fd5b506105df6105d88284610a5c565b5187610a84565b156105ac565b60e08536031261067d576040516105fb816109da565b61060486610a4f565b815261061260208701610a4f565b60208201526040868101359082015260608087013590820152608080870135906001600160a01b038216820361067d5782015260a0868101359082015260c080870135906001600160a01b038216820361067d57820152835260e0949094019360209092019161023f565b5f80fd5b634e487b7160e01b5f52604160045260245ffd5b60405163075fd2b160e01b8152600490fd5b60405163c161c93f60e01b81523360048201526001600160a01b0391821660248201525f6044820152601260648201529150602090829060849082907f0000000000000000000000000000000000000000000000000000000000000000165afa90811561074c575f9161071d575b50155f610176565b61073f915060203d602011610745575b61073781836109f6565b810190610d31565b5f610715565b503d61072d565b6040513d5f823e3d90fd5b905060405163c161c93f60e01b815233600482015260018060a01b038216602482015260043560448201526012606482015260208160848160018060a01b037f0000000000000000000000000000000000000000000000000000000000000000165afa90811561074c575f916107d0575b501590610170565b6107e9915060203d6020116107455761073781836109f6565b5f6107c8565b336001600160a01b0382161415915061016a565b610825915060203d60201161082b575b61081d81836109f6565b810190610a18565b5f610156565b503d610813565b61084b915060203d60201161082b5761081d81836109f6565b5f610100565b3461067d575f36600319011261067d576040517f00000000000000000000000000000000000000000000000000000000000000006001600160a01b03168152602090f35b3461067d575f36600319011261067d576040517f00000000000000000000000000000000000000000000000000000000000000006001600160a01b03168152602090f35b3461067d575f36600319011261067d576040517f00000000000000000000000000000000000000000000000000000000000000006001600160a01b03168152602090f35b3461067d57606036600319011261067d5761093f604435602435600435610bd8565b604051602091828201838352815180915283604084019201935f5b8281106109675784840385f35b9091928260e08261097b6001948a5161098a565b0196019101949291909461095a565b60c09080511515835260208101511515602084015260408101516040840152606081015160608401528160018060a01b039182608082015116608086015260a081015160a0860152015116910152565b60e0810190811067ffffffffffffffff82111761068157604052565b90601f8019910116810190811067ffffffffffffffff82111761068157604052565b9081602091031261067d57516001600160a01b038116810361067d5790565b67ffffffffffffffff81116106815760051b60200190565b3590811515820361067d57565b8051821015610a705760209160051b010190565b634e487b7160e01b5f52603260045260245ffd5b8051915f5b838110610a9857505050505f90565b604080610aa58386610a5c565b510151908301511480610b7b575b80610b55575b80610b3a575b80610b21575b80610b02575b80610ae6575b610add57600101610a89565b50505050600190565b5060a080610af48386610a5c565b510151908301511115610ad1565b50602080610b108386610a5c565b510151151590830151151514610acb565b50610b2c8184610a5c565b515115158251151514610ac5565b50606080610b488386610a5c565b5101519083015114610abf565b5060c06001600160a01b038082610b6c8588610a5c565b51015116918401511614610ab9565b5060806001600160a01b038082610b928588610a5c565b51015116918401511614610ab3565b60405190610bae826109da565b8160c05f918281528260208201528260408201528260608201528260808201528260a08201520152565b92915f91848352602094838652604091828520818652875282852084865287528285205492610c0684610a37565b95610c13825197886109f6565b848752601f19610c2286610a37565b0189825b828110610d1b57505050805b858110610c455750959750505050505050565b848252600190818b528383208584528b528383208884528b528383208184528b5283832054610c72610ba1565b9083808216148252838082811c16148d830152600263ffffffff82821c168784015266ffffffffffffff8260221c16606084015260018060a01b038092605a1c1660808401528886528d528585208786528d528585208a86528d528585208386528d528585205480610cfd575b5050610ceb828b610a5c565b52610cf6818a610a5c565b5001610c32565b65ffffffffffff811660a084015260301c1660c08201525f80610cdf565b610d23610ba1565b82828c010152018a90610c26565b9081602091031261067d5751801515810361067d579056fea26469706673582212209b5525ae07cd1f6b09525534fcf9b82a034584971614719cb5c8758fbe70c8d864736f6c63430008140033","linkReferences":{}},"methodIdentifiers":{"directory()":"c41c2f24","operatorStore()":"ad007d63","projects()":"8b79543c","set(uint256,uint256,(uint256,(bool,bool,uint256,uint256,address,uint256,address)[])[])":"f2da44b6","splitsOf(uint256,uint256,uint256)":"69e11cc5"},"id":81}