{"abi":[{"type":"function","name":"balanceOf","inputs":[{"name":"_nft","type":"address","internalType":"address"},{"name":"_owner","type":"address","internalType":"address"}],"outputs":[{"name":"balance","type":"uint256","internalType":"uint256"}],"stateMutability":"view"},{"type":"function","name":"cleanTiers","inputs":[{"name":"_nft","type":"address","internalType":"address"}],"outputs":[],"stateMutability":"nonpayable"},{"type":"function","name":"defaultReservedTokenBeneficiaryOf","inputs":[{"name":"","type":"address","internalType":"address"}],"outputs":[{"name":"","type":"address","internalType":"address"}],"stateMutability":"view"},{"type":"function","name":"encodedIPFSUriOf","inputs":[{"name":"","type":"address","internalType":"address"},{"name":"","type":"uint256","internalType":"uint256"}],"outputs":[{"name":"","type":"bytes32","internalType":"bytes32"}],"stateMutability":"view"},{"type":"function","name":"encodedTierIPFSUriOf","inputs":[{"name":"_nft","type":"address","internalType":"address"},{"name":"_tokenId","type":"uint256","internalType":"uint256"}],"outputs":[{"name":"","type":"bytes32","internalType":"bytes32"}],"stateMutability":"view"},{"type":"function","name":"flagsOf","inputs":[{"name":"_nft","type":"address","internalType":"address"}],"outputs":[{"name":"","type":"tuple","internalType":"struct JBTiered721Flags","components":[{"name":"lockReservedTokenChanges","type":"bool","internalType":"bool"},{"name":"lockVotingUnitChanges","type":"bool","internalType":"bool"},{"name":"lockManualMintingChanges","type":"bool","internalType":"bool"},{"name":"preventOverspending","type":"bool","internalType":"bool"}]}],"stateMutability":"view"},{"type":"function","name":"isTierRemoved","inputs":[{"name":"_nft","type":"address","internalType":"address"},{"name":"_tierId","type":"uint256","internalType":"uint256"}],"outputs":[{"name":"","type":"bool","internalType":"bool"}],"stateMutability":"view"},{"type":"function","name":"maxTierIdOf","inputs":[{"name":"","type":"address","internalType":"address"}],"outputs":[{"name":"","type":"uint256","internalType":"uint256"}],"stateMutability":"view"},{"type":"function","name":"numberOfBurnedFor","inputs":[{"name":"","type":"address","internalType":"address"},{"name":"","type":"uint256","internalType":"uint256"}],"outputs":[{"name":"","type":"uint256","internalType":"uint256"}],"stateMutability":"view"},{"type":"function","name":"numberOfReservedTokensOutstandingFor","inputs":[{"name":"_nft","type":"address","internalType":"address"},{"name":"_tierId","type":"uint256","internalType":"uint256"}],"outputs":[{"name":"","type":"uint256","internalType":"uint256"}],"stateMutability":"view"},{"type":"function","name":"numberOfReservesMintedFor","inputs":[{"name":"","type":"address","internalType":"address"},{"name":"","type":"uint256","internalType":"uint256"}],"outputs":[{"name":"","type":"uint256","internalType":"uint256"}],"stateMutability":"view"},{"type":"function","name":"recordAddTiers","inputs":[{"name":"_tiersToAdd","type":"tuple[]","internalType":"struct JB721TierParams[]","components":[{"name":"price","type":"uint104","internalType":"uint104"},{"name":"initialQuantity","type":"uint32","internalType":"uint32"},{"name":"votingUnits","type":"uint32","internalType":"uint32"},{"name":"reservedRate","type":"uint16","internalType":"uint16"},{"name":"reservedTokenBeneficiary","type":"address","internalType":"address"},{"name":"encodedIPFSUri","type":"bytes32","internalType":"bytes32"},{"name":"category","type":"uint24","internalType":"uint24"},{"name":"allowManualMint","type":"bool","internalType":"bool"},{"name":"shouldUseReservedTokenBeneficiaryAsDefault","type":"bool","internalType":"bool"},{"name":"transfersPausable","type":"bool","internalType":"bool"},{"name":"useVotingUnits","type":"bool","internalType":"bool"}]}],"outputs":[{"name":"tierIds","type":"uint256[]","internalType":"uint256[]"}],"stateMutability":"nonpayable"},{"type":"function","name":"recordBurn","inputs":[{"name":"_tokenIds","type":"uint256[]","internalType":"uint256[]"}],"outputs":[],"stateMutability":"nonpayable"},{"type":"function","name":"recordFlags","inputs":[{"name":"_flags","type":"tuple","internalType":"struct JBTiered721Flags","components":[{"name":"lockReservedTokenChanges","type":"bool","internalType":"bool"},{"name":"lockVotingUnitChanges","type":"bool","internalType":"bool"},{"name":"lockManualMintingChanges","type":"bool","internalType":"bool"},{"name":"preventOverspending","type":"bool","internalType":"bool"}]}],"outputs":[],"stateMutability":"nonpayable"},{"type":"function","name":"recordMint","inputs":[{"name":"_amount","type":"uint256","internalType":"uint256"},{"name":"_tierIds","type":"uint16[]","internalType":"uint16[]"},{"name":"_isManualMint","type":"bool","internalType":"bool"}],"outputs":[{"name":"tokenIds","type":"uint256[]","internalType":"uint256[]"},{"name":"leftoverAmount","type":"uint256","internalType":"uint256"}],"stateMutability":"nonpayable"},{"type":"function","name":"recordMintReservesFor","inputs":[{"name":"_tierId","type":"uint256","internalType":"uint256"},{"name":"_count","type":"uint256","internalType":"uint256"}],"outputs":[{"name":"tokenIds","type":"uint256[]","internalType":"uint256[]"}],"stateMutability":"nonpayable"},{"type":"function","name":"recordRemoveTierIds","inputs":[{"name":"_tierIds","type":"uint256[]","internalType":"uint256[]"}],"outputs":[],"stateMutability":"nonpayable"},{"type":"function","name":"recordSetEncodedIPFSUriOf","inputs":[{"name":"_tierId","type":"uint256","internalType":"uint256"},{"name":"_encodedIPFSUri","type":"bytes32","internalType":"bytes32"}],"outputs":[],"stateMutability":"nonpayable"},{"type":"function","name":"recordSetTokenUriResolver","inputs":[{"name":"_resolver","type":"address","internalType":"contract IJB721TokenUriResolver"}],"outputs":[],"stateMutability":"nonpayable"},{"type":"function","name":"recordTransferForTier","inputs":[{"name":"_tierId","type":"uint256","internalType":"uint256"},{"name":"_from","type":"address","internalType":"address"},{"name":"_to","type":"address","internalType":"address"}],"outputs":[],"stateMutability":"nonpayable"},{"type":"function","name":"redemptionWeightOf","inputs":[{"name":"_nft","type":"address","internalType":"address"},{"name":"_tokenIds","type":"uint256[]","internalType":"uint256[]"}],"outputs":[{"name":"weight","type":"uint256","internalType":"uint256"}],"stateMutability":"view"},{"type":"function","name":"reservedTokenBeneficiaryOf","inputs":[{"name":"_nft","type":"address","internalType":"address"},{"name":"_tierId","type":"uint256","internalType":"uint256"}],"outputs":[{"name":"","type":"address","internalType":"address"}],"stateMutability":"view"},{"type":"function","name":"tierBalanceOf","inputs":[{"name":"","type":"address","internalType":"address"},{"name":"","type":"address","internalType":"address"},{"name":"","type":"uint256","internalType":"uint256"}],"outputs":[{"name":"","type":"uint256","internalType":"uint256"}],"stateMutability":"view"},{"type":"function","name":"tierIdOfToken","inputs":[{"name":"_tokenId","type":"uint256","internalType":"uint256"}],"outputs":[{"name":"","type":"uint256","internalType":"uint256"}],"stateMutability":"pure"},{"type":"function","name":"tierOf","inputs":[{"name":"_nft","type":"address","internalType":"address"},{"name":"_id","type":"uint256","internalType":"uint256"},{"name":"_includeResolvedUri","type":"bool","internalType":"bool"}],"outputs":[{"name":"","type":"tuple","internalType":"struct JB721Tier","components":[{"name":"id","type":"uint256","internalType":"uint256"},{"name":"price","type":"uint256","internalType":"uint256"},{"name":"remainingQuantity","type":"uint256","internalType":"uint256"},{"name":"initialQuantity","type":"uint256","internalType":"uint256"},{"name":"votingUnits","type":"uint256","internalType":"uint256"},{"name":"reservedRate","type":"uint256","internalType":"uint256"},{"name":"reservedTokenBeneficiary","type":"address","internalType":"address"},{"name":"encodedIPFSUri","type":"bytes32","internalType":"bytes32"},{"name":"category","type":"uint256","internalType":"uint256"},{"name":"allowManualMint","type":"bool","internalType":"bool"},{"name":"transfersPausable","type":"bool","internalType":"bool"},{"name":"resolvedUri","type":"string","internalType":"string"}]}],"stateMutability":"view"},{"type":"function","name":"tierOfTokenId","inputs":[{"name":"_nft","type":"address","internalType":"address"},{"name":"_tokenId","type":"uint256","internalType":"uint256"},{"name":"_includeResolvedUri","type":"bool","internalType":"bool"}],"outputs":[{"name":"","type":"tuple","internalType":"struct JB721Tier","components":[{"name":"id","type":"uint256","internalType":"uint256"},{"name":"price","type":"uint256","internalType":"uint256"},{"name":"remainingQuantity","type":"uint256","internalType":"uint256"},{"name":"initialQuantity","type":"uint256","internalType":"uint256"},{"name":"votingUnits","type":"uint256","internalType":"uint256"},{"name":"reservedRate","type":"uint256","internalType":"uint256"},{"name":"reservedTokenBeneficiary","type":"address","internalType":"address"},{"name":"encodedIPFSUri","type":"bytes32","internalType":"bytes32"},{"name":"category","type":"uint256","internalType":"uint256"},{"name":"allowManualMint","type":"bool","internalType":"bool"},{"name":"transfersPausable","type":"bool","internalType":"bool"},{"name":"resolvedUri","type":"string","internalType":"string"}]}],"stateMutability":"view"},{"type":"function","name":"tierVotingUnitsOf","inputs":[{"name":"_nft","type":"address","internalType":"address"},{"name":"_account","type":"address","internalType":"address"},{"name":"_tierId","type":"uint256","internalType":"uint256"}],"outputs":[{"name":"","type":"uint256","internalType":"uint256"}],"stateMutability":"view"},{"type":"function","name":"tiersOf","inputs":[{"name":"_nft","type":"address","internalType":"address"},{"name":"_categories","type":"uint256[]","internalType":"uint256[]"},{"name":"_includeResolvedUri","type":"bool","internalType":"bool"},{"name":"_startingId","type":"uint256","internalType":"uint256"},{"name":"_size","type":"uint256","internalType":"uint256"}],"outputs":[{"name":"_tiers","type":"tuple[]","internalType":"struct JB721Tier[]","components":[{"name":"id","type":"uint256","internalType":"uint256"},{"name":"price","type":"uint256","internalType":"uint256"},{"name":"remainingQuantity","type":"uint256","internalType":"uint256"},{"name":"initialQuantity","type":"uint256","internalType":"uint256"},{"name":"votingUnits","type":"uint256","internalType":"uint256"},{"name":"reservedRate","type":"uint256","internalType":"uint256"},{"name":"reservedTokenBeneficiary","type":"address","internalType":"address"},{"name":"encodedIPFSUri","type":"bytes32","internalType":"bytes32"},{"name":"category","type":"uint256","internalType":"uint256"},{"name":"allowManualMint","type":"bool","internalType":"bool"},{"name":"transfersPausable","type":"bool","internalType":"bool"},{"name":"resolvedUri","type":"string","internalType":"string"}]}],"stateMutability":"view"},{"type":"function","name":"tokenUriResolverOf","inputs":[{"name":"","type":"address","internalType":"address"}],"outputs":[{"name":"","type":"address","internalType":"contract IJB721TokenUriResolver"}],"stateMutability":"view"},{"type":"function","name":"totalRedemptionWeight","inputs":[{"name":"_nft","type":"address","internalType":"address"}],"outputs":[{"name":"weight","type":"uint256","internalType":"uint256"}],"stateMutability":"view"},{"type":"function","name":"totalSupplyOf","inputs":[{"name":"_nft","type":"address","internalType":"address"}],"outputs":[{"name":"supply","type":"uint256","internalType":"uint256"}],"stateMutability":"view"},{"type":"function","name":"votingUnitsOf","inputs":[{"name":"_nft","type":"address","internalType":"address"},{"name":"_account","type":"address","internalType":"address"}],"outputs":[{"name":"units","type":"uint256","internalType":"uint256"}],"stateMutability":"view"},{"type":"event","name":"CleanTiers","inputs":[{"name":"nft","type":"address","indexed":true,"internalType":"address"},{"name":"caller","type":"address","indexed":false,"internalType":"address"}],"anonymous":false},{"type":"error","name":"CANT_MINT_MANUALLY","inputs":[]},{"type":"error","name":"INSUFFICIENT_AMOUNT","inputs":[]},{"type":"error","name":"INSUFFICIENT_RESERVES","inputs":[]},{"type":"error","name":"INVALID_CATEGORY_SORT_ORDER","inputs":[]},{"type":"error","name":"INVALID_QUANTITY","inputs":[]},{"type":"error","name":"INVALID_TIER","inputs":[]},{"type":"error","name":"MANUAL_MINTING_NOT_ALLOWED","inputs":[]},{"type":"error","name":"MAX_TIERS_EXCEEDED","inputs":[]},{"type":"error","name":"NO_QUANTITY","inputs":[]},{"type":"error","name":"OUT","inputs":[]},{"type":"error","name":"RESERVED_RATE_NOT_ALLOWED","inputs":[]},{"type":"error","name":"TIER_REMOVED","inputs":[]},{"type":"error","name":"VOTING_UNITS_NOT_ALLOWED","inputs":[]}],"bytecode":{"object":"0x60808060405234610016576127d4908161001b8239f35b5f80fdfe6101206040526004361015610012575f80fd5b5f3560e01c8063086bb19a14611a6a5780630fab094714611a31578063136e651c146119f8578063144cc2d41461195257806320512ba1146118db5780632ae5e492146118105780632b7e6ef0146117cc5780632e4d0ea8146117b357806335314b921461176057806337f446521461171c57806342f9914b146116f957806349bd1ac6146116c85780635f6466111461167c57806364faa159146116375780636825bb80146115f3578063845104de1461154157806386bc2be3146114825780638da5e32b14610d33578063911c80b514610cfa5780639335557814610bd75780639403a74f146108d4578063baa7e80e14610793578063bd51923c1461074f578063c2c55f941461069b578063c44a8e6d14610632578063c8df1710146105e8578063cb827e3214610561578063cf9530d0146104c5578063d84a72c01461047e578063eaa19ab314610242578063f1bea54f1461020a5763f7888aec1461017a575f80fd5b3461020657604036600319011261020657610193611bb1565b61019b611bc7565b6001600160a01b039182165f8181526007602090815260408220549094919390929116825b6101cf57505050604051908152f35b9091926101fa90835f526008865260405f20835f52865260405f20855f52865260405f205490611fbf565b925f19019190826101c0565b5f80fd5b34610206576020366003190112610206576001600160a01b0361022b611bb1565b165f526007602052602060405f2054604051908152f35b34610206576060366003190112610206576024356001600160401b03811161020657610272903690600401611bdd565b9061027b611c42565b916004359061028981612089565b9260405161029681611dfa565b5f81525f60208201525f925b8084106102cc576102c28686604051928392604084526040840190611d61565b9060208301520390f35b909192936102db858386611ef8565b359061ffff82168203610206576102f78461ffff841633612503565b61046c57335f52600260205260405f2061ffff83165f5260205260405f2091825492896103378560f81c8060011615159181600216151591600416151590565b505081610463575b506104515763ffffffff8460881c161561043f57826001600160681b0385161161042d5761038c61037d61037283611f1c565b61ffff85163361256f565b63ffffffff8660681c16612216565b1561041b576104026001600160681b039261ffff60019663ffffffff805f19818460681c1601166103d981889081549063ffffffff60681b9060681b169063ffffffff60681b1916179055565b335f52600a60205260405f208486165f526020528160405f20549360881c16031601911661268e565b61040c898b611f95565b525416900394019291906102a2565b60405163985a45d960e01b8152600490fd5b604051632cd294cf60e01b8152600490fd5b604051630de5859f60e01b8152600490fd5b604051632f792d3960e11b8152600490fd5b9050158b61033f565b60405163d32cb5c160e01b8152600490fd5b34610206576020366003190112610206576004356001600160a01b0381169081900361020657335f908152600c6020526040902080546001600160a01b0319169091179055005b3461020657602080600319360112610206576104df611bb1565b5f906104e9611ec1565b506001600160a01b03165f81815260078452604090205490815b610511575050604051908152f35b909161055690825f526002855260405f20845f52855261053360405f20611f1c565b61054f63ffffffff918288816040840151169201511690611fa9565b1690611fbf565b915f19019081610503565b3461020657608036600319011261020657335f52600360205260405f20600435801515809103610206578154602435908115158092036102065760443591821515809303610206576064358015158091036102065762ff00009260ff63ff00000061ff009360181b1696169063ffffffff1916179160081b16179160101b16171790555f80f35b34610206576040366003190112610206576001600160a01b03610609611bb1565b165f52600d60205260405f20633b9aca00602435045f52602052602060405f2054604051908152f35b3461020657610697610683633b9aca0061064b36611c5e565b9290610655611e69565b500460018060a01b0382165f52600260205260405f20815f5260205261067d60405f20611f1c565b91612223565b604051918291602083526020830190611cb2565b0390f35b34610206576060366003190112610206576004356106b7611bc7565b6001600160a01b036044358181169290839003610206571680610708575b50806106dd57005b335f52600860205260405f20905f5260205260405f20905f5260205260405f20600181540190555f80f35b335f52600860205260405f20905f5260205260405f20825f5260205260405f208054801561073b575f19019055826106d5565b634e487b7160e01b5f52601160045260245ffd5b34610206576040366003190112610206576001600160a01b03610770611bb1565b165f52600d60205260405f206024355f52602052602060405f2054604051908152f35b3461020657604036600319011261020657600435602490813590335f526020916002835260405f20825f52835260405f206107d76107d082611f1c565b843361256f565b82116108c257335f526009845260405f20835f52845260405f206107fc838254611fbf565b905561080782612089565b94335f52600a855260405f20845f52855260405f2054915f5b84811061083a5760405187815280610697818a018b611d61565b815463ffffffff90818160681c1680156108af57845463ffffffff60681b19165f19909101606881901b63ffffffff60681b169190911785556001939261089e92610898928992916108929190839060881c16611fa9565b16611fbf565b8861268e565b6108a8828b611f95565b5201610820565b85634e487b7160e01b5f5260116004525ffd5b60405163226f999960e11b8152600490fd5b346102065760a0366003190112610206576108ed611bb1565b6024356001600160401b0381116102065761090c903690600401611bdd565b610917929192611c42565b61092083612734565b60805261092e608435611e52565b61093b6040519182611e31565b6084358152601f1961094e608435611e52565b015f5b818110610bc05750505f90610964611ec1565b506040519361097285611dfa565b5f85525f60208601525f60a05260015b15610bab575b5f6084358414610b295760643515610ab9576064355b80151580610aae575b15610aa8576109b787828a612503565b156109cf575b6080516109ca91896126ae565b61099e565b60018060a01b0388165f52600260205260405f20815f526020526109f560405f20611f1c565b908684151592838094610a88575b15610a1b57505050505b600160a0510160a052610982565b6109ca93861590610a68575b610a35575b505090506109bd565b610a6091610a4491848d612223565b96610a4e81611f87565b97610a598289611f95565b5286611f95565b50868b610a2c565b5062ffffff608082015116610a818d8860a05191611ef8565b3514610a27565b5062ffffff608082015116610aa18d8860a05191611ef8565b3510610a03565b50610a0d565b5060843585106109a7565b81610b16575f5b80610af2575060018060a01b0387165f525f60205260405f205f805260205260405f20545b8061099e5750600161099e565b60018060a01b0388165f52600660205260405f20905f5260205260405f2054610ae5565b610b2360a051838a611ef8565b35610ac0565b50509450925050505b6084358103610ba3575b506040518091602082016020835281518091526040830190602060408260051b8601019301915f905b828210610b7457505050500390f35b91936001919395506020610b938192603f198a82030186528851611cb2565b9601920192018594939192610b65565b815281610b3c565b8060a051106109885750945092505050610b32565b602090610bcb611e69565b82828601015201610951565b3461020657604036600319011261020657610bf0611bb1565b610bf8611bc7565b905f9060018060a01b0380911692835f526020936007855260405f2054610c1d611ec1565b9093849316925b610c32578585604051908152f35b815f9592939495526008865260405f20845f52865260405f20855f52865260405f20549182610cce575b610caa8293610c8560ff60c0610cb0960151168060011615159181600216151591600416151590565b9150505f14610cbd576001600160681b0364ffffffffff6060870151165b1690611fcc565b90611fbf565b935f190192919083610c24565b6001600160681b0380865116610ca3565b610cb09150835f526002875260405f20865f528752610caa610cf260405f20611f1c565b925050610c5c565b346102065760203660031901126102065760206001600160a01b0380610d1e611bb1565b165f52600b825260405f205416604051908152f35b34610206576020366003190112610206576004356001600160401b03808211610206573660238301121561020657816004013511610206573660246101608360040135028301011161020657335f52600760205260405f20549061ffff610d9e826004013584611fbf565b1161147057610dac33612734565b90610dba8160040135612089565b9183611462575f5b905f610dcc6120bb565b50335f52600360205260405f209160ff60405193610de985611d94565b5481811615158552818160081c1615156020860152818160101c161515604086015260181c16151560608401525f5b85600401358110610e565761069787610e3560048901358b611fbf565b335f52600760205260405f2055604051918291602083526020830190611d61565b610e70610e6b82886004013560248a0161210d565b61212f565b633b9ac9ff63ffffffff6020830151161161145057610e8d6120bb565b9082611401575b60208601511515806113ae575b61139c5785511580159061138f575b8061137e575b61136c57604086015115158061135f575b61134d5763ffffffff6020820151161561133b57610ee5838b611fbf565b91600183018311908161073b5760c062ffffff916001600160681b0385511660ff63ffffffff60208801511663ffffffff60408901511661ffff60608a0151169087878b0151169160e08b01511515926101208c01511515926101408d015115159560405198610f548a611dc3565b89528060208a015260408901526060880152608087015260a086015260011b179060021b171683820152335f52600260205260405f20600188015f5260205260405f20906001600160681b038151166001600160681b0319835416178255610fe263ffffffff602083015116839081549063ffffffff60681b9060681b169063ffffffff60681b1916179055565b604081015190825464ffffffffff60a81b606083015160a81b1660808301519170ffffffffffffffffffffffffffffffffff61ffff60e81b60a086015160e81b16948960ff60f81b91015160f81b169563ffffffff60881b9060881b1691161717908760d01b9060d01b16171717905501511662ffffff60c084015116809114159081611331575b50611308575b6080820180516001600160a01b0390811680611286575b50505060a082015180611266575b50876110b5575b50509060018092016110ae828a611f95565b5201610e18565b87805b6110c2575061109c565b91976110d28684989398336126ae565b62ffffff60c08b015116335f52600260205260405f20855f5260205262ffffff60405f205460d01c1610158061125c575b156111d757505060028301600184011161073b576002830182036111b8575b335f526005602052858560405f20818154036111b0575b505061073b5780831490811582611192575b61115f575b50509560018201945f806110b8565b5f96509015611188575f905b335f525f60205260405f20905f5260205260405f20558a80611150565b600183019061116b565b50335f525f60205260405f20815f5260205260405f2054151561114b565b55858d611139565b335f525f60205260405f20600184015f526020528160405f2055611122565b809993929799158015611253575b1561124857505060018101811161073b57808303611228575b5060018201965f335f5260056020528060405f20805461121f575b506110b8565b5f90558d611219565b335f525f60205260405f20905f526020526001820160405f20558a6111fe565b9650979095806110b8565b508c81116111e5565b508c841115611103565b335f52600d60205260405f20600185015f5260205260405f20558b611095565b610100850151156112d05750335f52600b60205260405f209181835491511680928216036112bb575b5050505b8b8080611087565b6001600160a01b0319161790558b80806112af565b915050335f52600160205260405f20600185015f5260205260405f20906bffffffffffffffffffffffff60a01b8254161790556112b3565b335f52600660205260405f2062ffffff60c0840151165f526020526001830160405f2055611070565b905015158c61106a565b604051631e0a863160e31b8152600490fd5b6040516330ec637f60e01b8152600490fd5b5060e08101511515610ec7565b60405163a75b1cd560e01b8152600490fd5b5061ffff6060820151161515610eb6565b5060e08101511515610eb0565b604051630189200360e11b8152600490fd5b5061014081015115801590816113ed575b81156113cc575b50610ea1565b9050806113da575b8b6113c6565b506001600160681b0381511615156113d4565b604083015163ffffffff16151591506113bf565b9050815f1981011161073b57611425610e6b5f19840160048a013560248b0161210d565b9062ffffff60c09080828401511691840151161115610e9457604051631cabebd560e21b8152600490fd5b6040516349016ea360e01b8152600490fd5b61146b33612705565b610dc2565b604051631bc68c8b60e11b8152600490fd5b3461020657602080600319360112610206576004356001600160401b038111610206576114b3903690600401611bdd565b91905f5b8381106114c057005b633b9aca006114d0828685611ef8565b3504335f52600a845260405f20815f52845260405f206114f08154611f87565b9055335f526002845260405f20905f52835260405f209063ffffffff9182815460681c1692831461073b57805463ffffffff60681b1916600193840160681b63ffffffff60681b16179055016114b7565b346102065760203660031901126102065761155a611bb1565b5f606060405161156981611d94565b828152826020820152826040820152015260018060a01b03165f526003602052608060405f206040519061159c82611d94565b5460ff81161515918281526020810160ff8360081c161515815260ff60606040840193828660101c1615158552019360181c1615158352604051938452511515602084015251151560408301525115156060820152f35b34610206576040366003190112610206576001600160a01b03611614611bb1565b165f52600960205260405f206024355f52602052602060405f2054604051908152f35b346102065761069761068361164b36611c5e565b9190611655611e69565b5060018060a01b0382165f52600260205260405f20815f5260205261067d60405f20611f1c565b34610206576040366003190112610206576020611697611bb1565b6024359060018060a01b03165f52600482526001806116b98360405f20612762565b5160ff60405194161c16148152f35b3461020657604036600319011261020657335f52600d60205260405f206004355f5260205260243560405f20555f80f35b34610206576020366003190112610206576020604051633b9aca00600435048152f35b346102065761172a36611c0d565b9160018060a01b038091165f52600860205260405f2091165f5260205260405f20905f52602052602060405f2054604051908152f35b346102065760403660031901126102065760206117ab61177e611bb1565b60243560018060a01b0382165f526002845260405f20815f5284526117a560405f20611f1c565b9161256f565b604051908152f35b346102065760206117ab6117c636611c0d565b91611fdf565b34610206576040366003190112610206576001600160a01b036117ed611bb1565b165f52600a60205260405f206024355f52602052602060405f2054604051908152f35b34610206576020806003193601126102065761182a611bb1565b6001600160a01b0381165f8181526007845260408120549392909161184d611ec1565b505f5b85811061186257505050604051908152f35b815f526002855260405f20936001820194855f52865261188460405f20611f1c565b6001600160681b0381511663ffffffff91876118ac84604084015116858c8501511690611fa9565b951161073b576118d594610caa936118c86118cf938b8b61256f565b9116611fbf565b90611fcc565b92611850565b3461020657602080600319360112610206576004356001600160401b0381116102065761190c903690600401611bdd565b90915f5b82811061191957005b8061192760ff928587611ef8565b35335f526004845260405f208160081c5f52845260405f20906001938491161b815417905501611910565b346102065760403660031901126102065761196b611bb1565b6024356001600160401b0381116102065761198a903690600401611bdd565b5f9283926001600160a01b03909116915b8085106119ad57602084604051908152f35b9091926119ed600191855f5260206002815260405f2090633b9aca006119d48a888a611ef8565b35045f52526001600160681b0360405f20541690611fbf565b94019392919061199b565b34610206576040366003190112610206576020611a1f611a16611bb1565b60243590612049565b6040516001600160a01b039091168152f35b346102065760203660031901126102065760206001600160a01b0380611a55611bb1565b165f52600c825260405f205416604051908152f35b346102065760208060031936011261020657611a84611bb1565b90611a8e82612734565b611a9783612705565b604051905f611aa583611dfa565b5f8352815f868501525b611aeb576040513381526001600160a01b038716907f4a0f854ce3c180d56f3e9eb47eb064c595bf3de0ab9af45425291e5b1bb733a8908790a2005b83611af7848489612503565b15611b0f575b611b089192876126ae565b9081611aaf565b506001810180821161073b578214611b6c576001600160a01b0386165f81815280875260408082208483528852902054839003611b51575b50505b8083611afd565b5f525f855260405f20905f5284528060405f20558580611b47565b6001600160a01b0386165f81815280875260408082208483528852902054611b96575b5050611b4a565b5f525f855260405f20905f5284525f60408120558580611b8f565b600435906001600160a01b038216820361020657565b602435906001600160a01b038216820361020657565b9181601f84011215610206578235916001600160401b038311610206576020808501948460051b01011161020657565b6060906003190112610206576001600160a01b0390600435828116810361020657916024359081168103610206579060443590565b60443590811515820361020657565b3590811515820361020657565b6060906003190112610206576004356001600160a01b038116810361020657906024359060443580151581036102065790565b5f5b838110611ca25750505f910152565b8181015183820152602001611c93565b90815181526020820151602082015260408201516040820152606082015160608201526080820151608082015260a082015160a082015260018060a01b0360c08301511660c082015260e082015160e0820152610100808301519082015261012080830151151590820152610140808301511515908201526101608092015191610180809183015282518091830152611d55816101a09460208686019101611c91565b601f01601f1916010190565b9081518082526020808093019301915f5b828110611d80575050505090565b835185529381019392810192600101611d72565b608081019081106001600160401b03821117611daf57604052565b634e487b7160e01b5f52604160045260245ffd5b60e081019081106001600160401b03821117611daf57604052565b61018081019081106001600160401b03821117611daf57604052565b604081019081106001600160401b03821117611daf57604052565b61016081019081106001600160401b03821117611daf57604052565b90601f801991011681019081106001600160401b03821117611daf57604052565b6001600160401b038111611daf5760051b60200190565b60405190611e7682611dde565b6060610160835f80825280602083015280604083015280848301528060808301528060a08301528060c08301528060e083015280610100830152806101208301526101408201520152565b60405190611ece82611dc3565b8160c05f918281528260208201528260408201528260608201528260808201528260a08201520152565b9190811015611f085760051b0190565b634e487b7160e01b5f52603260045260245ffd5b90604051611f2981611dc3565b60c08193546001600160681b038116835263ffffffff808260681c1660208501528160881c16604084015264ffffffffff8160a81c16606084015262ffffff8160d01c16608084015261ffff8160e81c1660a084015260f81c910152565b5f19811461073b5760010190565b8051821015611f085760209160051b010190565b63ffffffff918216908216039190821161073b57565b9190820180921161073b57565b8181029291811591840414171561073b57565b9160018060a01b03809316915f9383855260086020526040852091168452602052604083208184526020526040832054918215612043578364ffffffffff9260409261204096526002602052828220908252602052205460a81c1690611fcc565b90565b50505090565b6001600160a01b039081165f8181526001602090815260408083209583529490529283205482169290836120435760409293508152600b60205220541690565b9061209382611e52565b6120a06040519182611e31565b82815280926120b1601f1991611e52565b0190602036910137565b604051906120c882611e15565b816101405f918281528260208201528260408201528260608201528260808201528260a08201528260c08201528260e082015282610100820152826101208201520152565b9190811015611f0857610160020190565b359063ffffffff8216820361020657565b61016081360312610206576040519061214782611e15565b80356001600160681b03811681036102065782526121676020820161211e565b60208301526121786040820161211e565b6040830152606081013561ffff8116810361020657606083015260808101356001600160a01b038116810361020657608083015260a081013560a083015260c081013562ffffff811681036102065760c08301526121d860e08201611c51565b60e08301526101006121eb818301611c51565b908301526101206121fd818301611c51565b9083015261220f610140809201611c51565b9082015290565b9190820391821161073b57565b9192909261222f611e69565b5061223a8484612049565b60c082015160028116151560e05282516020610100819052808501516040808701516001861615159993969591946001600160681b03169263ffffffff90811692911690600416156124fc5764ffffffffff606089015116915b6001600160a01b03978789166124ec57885f965b16805f52600d82528d885f20905f52825262ffffff6080895f20549c0151169b159182156124d6575b5f921561237d57505050855195610100518701948786106001600160401b03871117611daf5761ffff976001600160681b039683525f81529d5b61231983518060c052611dde565b60c051526101005160c051015260c0510152606060c051015216608060c05101521660a060c05101521660c08051015260e060c051015261010060c0510152151561012060c051015260e051151561014060c051015261016060c051015260c05190565b600c9082849a96989597999a52528d8a858420541691633b9aca00918281029281840414901517156124c257906044849287519485938492635e703e7160e01b8452600484015260248301525afa9182156124b75780926123f3575b50509161ffff969593916001600160681b0395939d61230b565b9091503d8082843e6124058184611e31565b820191610100519283828203126124b35781516001600160401b039384821161249c5782601f83860101121561249c578184015194851161249f57612455885196601f19601f8801160187611e31565b8486526101005192838684870101011161249c57509284928261ffff9c9b99979561248e946001600160681b039c9a9801920101611c91565b9193958193959798506123d9565b80fd5b634e487b7160e01b81526041600452602490fd5b8280fd5b8451903d90823e3d90fd5b634e487b7160e01b84526011600452602484fd5b9150805f52600c825289885f20541615916122d1565b8861ffff60a08c015116966122a8565b8291612294565b906001929183926020810151808460081c1490811591612554575b50612531575b60ff91505191161c161490565b50828060a01b03165f52600460205260ff61254f8260405f20612762565b612524565b825115915081612566575b505f61251e565b9050155f61255f565b60a083019161ffff9081845116158015612674575b801561265a575b612651575f9260018060a01b03168352600960205260408320908352602052604082205493604081019063ffffffff918260206125cb8983855116612216565b9301511680921461264757908287939251160316039080845116801561263357820493511690811561261f570661260f575b81831161260957500390565b91505090565b9061261990611f87565b906125fd565b634e487b7160e01b83526012600452602483fd5b634e487b7160e01b84526012600452602484fd5b5050505091505090565b50505050505f90565b506001600160a01b0361266d8285612049565b161561258b565b5063ffffffff806040870151169060208701511614612584565b90633b9aca009182810292818404149015171561073b5761204091611fbf565b909182146126ff576001600160a01b03165f90815260208181526040808320848452909152812054806126095750600182018092116126eb575090565b634e487b7160e01b81526011600452602490fd5b50505f90565b6001600160a01b03165f9081526020818152604080832083805290915290205490811561272e57565b60019150565b6001600160a01b03165f9081526005602052604090205490811561275457565b600760205260405f20549150565b905f602060405161277281611dfa565b828152015260081c90815f5260205260405f2054906040519161279483611dfa565b825260208201529056fea2646970667358221220a73a6db4ced7402814397bd2e93cfe263c4e78ce81a45ed3f5d1ef945b7d78ec64736f6c63430008140033","linkReferences":{}},"methodIdentifiers":{"balanceOf(address,address)":"f7888aec","cleanTiers(address)":"086bb19a","defaultReservedTokenBeneficiaryOf(address)":"911c80b5","encodedIPFSUriOf(address,uint256)":"bd51923c","encodedTierIPFSUriOf(address,uint256)":"c8df1710","flagsOf(address)":"845104de","isTierRemoved(address,uint256)":"5f646611","maxTierIdOf(address)":"f1bea54f","numberOfBurnedFor(address,uint256)":"2b7e6ef0","numberOfReservedTokensOutstandingFor(address,uint256)":"35314b92","numberOfReservesMintedFor(address,uint256)":"6825bb80","recordAddTiers((uint104,uint32,uint32,uint16,address,bytes32,uint24,bool,bool,bool,bool)[])":"8da5e32b","recordBurn(uint256[])":"86bc2be3","recordFlags((bool,bool,bool,bool))":"cb827e32","recordMint(uint256,uint16[],bool)":"eaa19ab3","recordMintReservesFor(uint256,uint256)":"baa7e80e","recordRemoveTierIds(uint256[])":"20512ba1","recordSetEncodedIPFSUriOf(uint256,bytes32)":"49bd1ac6","recordSetTokenUriResolver(address)":"d84a72c0","recordTransferForTier(uint256,address,address)":"c2c55f94","redemptionWeightOf(address,uint256[])":"144cc2d4","reservedTokenBeneficiaryOf(address,uint256)":"136e651c","tierBalanceOf(address,address,uint256)":"37f44652","tierIdOfToken(uint256)":"42f9914b","tierOf(address,uint256,bool)":"64faa159","tierOfTokenId(address,uint256,bool)":"c44a8e6d","tierVotingUnitsOf(address,address,uint256)":"2e4d0ea8","tiersOf(address,uint256[],bool,uint256,uint256)":"9403a74f","tokenUriResolverOf(address)":"0fab0947","totalRedemptionWeight(address)":"2ae5e492","totalSupplyOf(address)":"cf9530d0","votingUnitsOf(address,address)":"93355578"},"id":44}