{"abi":[{"type":"function","name":"ETH_PAYOUT","inputs":[],"outputs":[{"name":"","type":"uint256","internalType":"uint256"}],"stateMutability":"view"},{"type":"function","name":"RESERVED_TOKENS","inputs":[],"outputs":[{"name":"","type":"uint256","internalType":"uint256"}],"stateMutability":"view"}],"bytecode":{"object":"0x608080604052346018576098908161001d823930815050f35b5f80fdfe60808060405260043610156011575f80fd5b5f90813560e01c90816368fc68c7146049575063ad8710ad146031575f80fd5b80600319360112604657602060405160018152f35b80fd5b905081600319360112605e5780600260209252f35b5080fdfea2646970667358221220d61e380f9f65eba078146c8f5a16a2ebaef5c30b5fadb28360c2bad33f7e790a64736f6c63430008140033","linkReferences":{}},"methodIdentifiers":{"ETH_PAYOUT()":"ad8710ad","RESERVED_TOKENS()":"68fc68c7"},"id":97}