{"abi":[{"type":"constructor","inputs":[{"name":"_directory","type":"address","internalType":"contract IJBDirectory"}],"stateMutability":"nonpayable"},{"type":"function","name":"directory","inputs":[],"outputs":[{"name":"","type":"address","internalType":"contract IJBDirectory"}],"stateMutability":"view"},{"type":"function","name":"distributionLimitOf","inputs":[{"name":"_projectId","type":"uint256","internalType":"uint256"},{"name":"_configuration","type":"uint256","internalType":"uint256"},{"name":"_terminal","type":"address","internalType":"contract IJBPaymentTerminal"},{"name":"_token","type":"address","internalType":"address"}],"outputs":[{"name":"","type":"uint256","internalType":"uint256"},{"name":"","type":"uint256","internalType":"uint256"}],"stateMutability":"view"},{"type":"function","name":"overflowAllowanceOf","inputs":[{"name":"_projectId","type":"uint256","internalType":"uint256"},{"name":"_configuration","type":"uint256","internalType":"uint256"},{"name":"_terminal","type":"address","internalType":"contract IJBPaymentTerminal"},{"name":"_token","type":"address","internalType":"address"}],"outputs":[{"name":"","type":"uint256","internalType":"uint256"},{"name":"","type":"uint256","internalType":"uint256"}],"stateMutability":"view"},{"type":"function","name":"setFor","inputs":[{"name":"_projectId","type":"uint256","internalType":"uint256"},{"name":"_configuration","type":"uint256","internalType":"uint256"},{"name":"_fundAccessConstraints","type":"tuple[]","internalType":"struct JBFundAccessConstraints[]","components":[{"name":"terminal","type":"address","internalType":"contract IJBPaymentTerminal"},{"name":"token","type":"address","internalType":"address"},{"name":"distributionLimit","type":"uint256","internalType":"uint256"},{"name":"distributionLimitCurrency","type":"uint256","internalType":"uint256"},{"name":"overflowAllowance","type":"uint256","internalType":"uint256"},{"name":"overflowAllowanceCurrency","type":"uint256","internalType":"uint256"}]}],"outputs":[],"stateMutability":"nonpayable"},{"type":"function","name":"supportsInterface","inputs":[{"name":"interfaceId","type":"bytes4","internalType":"bytes4"}],"outputs":[{"name":"","type":"bool","internalType":"bool"}],"stateMutability":"view"},{"type":"event","name":"SetFundAccessConstraints","inputs":[{"name":"fundingCycleConfiguration","type":"uint256","indexed":true,"internalType":"uint256"},{"name":"projectId","type":"uint256","indexed":true,"internalType":"uint256"},{"name":"constraints","type":"tuple","indexed":false,"internalType":"struct JBFundAccessConstraints","components":[{"name":"terminal","type":"address","internalType":"contract IJBPaymentTerminal"},{"name":"token","type":"address","internalType":"address"},{"name":"distributionLimit","type":"uint256","internalType":"uint256"},{"name":"distributionLimitCurrency","type":"uint256","internalType":"uint256"},{"name":"overflowAllowance","type":"uint256","internalType":"uint256"},{"name":"overflowAllowanceCurrency","type":"uint256","internalType":"uint256"}]},{"name":"caller","type":"address","indexed":false,"internalType":"address"}],"anonymous":false},{"type":"error","name":"CONTROLLER_UNAUTHORIZED","inputs":[]},{"type":"error","name":"INVALID_DISTRIBUTION_LIMIT","inputs":[]},{"type":"error","name":"INVALID_DISTRIBUTION_LIMIT_CURRENCY","inputs":[]},{"type":"error","name":"INVALID_OVERFLOW_ALLOWANCE","inputs":[]},{"type":"error","name":"INVALID_OVERFLOW_ALLOWANCE_CURRENCY","inputs":[]}],"bytecode":{"object":"0x60a03461007057601f6106f538819003918201601f19168301916001600160401b038311848410176100745780849260209460405283398101031261007057516001600160a01b03811681036100705760805260405161066c9081610089823960805181818160ca01526101c20152f35b5f80fd5b634e487b7160e01b5f52604160045260245ffdfe6080806040526004361015610012575f80fd5b5f3560e01c90816301ffc9a71461057b5750806334002f31146101585780637a81b562146100f9578063c41c2f24146100b55763e8db213014610053575f80fd5b346100b157610061366105c5565b925f929192525f60205260405f20905f5260205260405f2060018060a01b038092165f5260205260405f2091165f526020526040805f205481519060018060e81b038116825260e81c6020820152f35b5f80fd5b346100b1575f3660031901126100b1576040517f00000000000000000000000000000000000000000000000000000000000000006001600160a01b03168152602090f35b346100b157610107366105c5565b925f92919252600160205260405f20905f5260205260405f2060018060a01b038092165f5260205260405f2091165f526020526040805f205481519060018060e81b038116825260e81c6020820152f35b346100b15760603660031901126100b15760443567ffffffffffffffff8082116100b157366023830112156100b157808260040135116100b15736602460c0846004013502840101116100b157604051632eec7b5560e11b815260048035908201526020816024817f00000000000000000000000000000000000000000000000000000000000000006001600160a01b03165afa918215610570575f92610508575b5050336001600160a01b03909116036104f6575f5b8160040135811061021c57005b6001600160e81b03806040610239846004870135602488016105fe565b0135116104e45762ffffff9081606061025a858760040135602489016105fe565b0135116104d2576080610275848660040135602488016105fe565b0135116104c05760a0610290838560040135602487016105fe565b0135116104ae578060406102ae6001938560040135602487016105fe565b0135610413575b60806102c9828560040135602487016105fe565b013561036d575b6102e2818460040135602486016105fe565b60a0604051918480831b036102f6826105b1565b1683528480831b0361030a602083016105b1565b166020840152604081013560408401526060810135606084015260808101356080840152013560a08201523360c0820152600435907f26f78d7903ac64ef9b38a2bf94b365f364f28efa245a6b67bcc27350f141c5f760e060243592a30161020f565b6080610381828560040135602487016105fe565b013560a0610397838660040135602488016105fe565b013560e81b176004355f528260205260405f206024355f5260205260405f20838060a01b036103d66103d185886004013560248a016105fe565b610622565b165f5260205260405f20838060a01b0361040360206103fd86896004013560248b016105fe565b01610622565b165f5260205260405f20556102d0565b6040610427828560040135602487016105fe565b0135606061043d838660040135602488016105fe565b013560e81b176004355f525f60205260405f206024355f5260205260405f20838060a01b036104776103d185886004013560248a016105fe565b165f5260205260405f20838060a01b0361049e60206103fd86896004013560248b016105fe565b165f5260205260405f20556102b5565b60405163d9b93c2560e01b8152600490fd5b604051635730278360e01b8152600490fd5b604051639583faed60e01b8152600490fd5b60405163a9b8fbcf60e01b8152600490fd5b604051632adfdd0560e21b8152600490fd5b9091506020903d602011610568575b601f8201601f1916830190811183821017610554576020918391604052810103126100b157516001600160a01b03811681036100b15782806101fa565b634e487b7160e01b5f52604160045260245ffd5b3d9150610517565b6040513d5f823e3d90fd5b346100b15760203660031901126100b1576004359063ffffffff60e01b82168092036100b1576020916301ffc9a760e01b148152f35b35906001600160a01b03821682036100b157565b60809060031901126100b15760043590602435906001600160a01b039060443582811681036100b1579160643590811681036100b15790565b919081101561060e5760c0020190565b634e487b7160e01b5f52603260045260245ffd5b356001600160a01b03811681036100b1579056fea2646970667358221220ecf9ab2655538a8268f59e4d13fb4c520ddc17c2d8245bbb71e620e42c2df3b764736f6c63430008140033","linkReferences":{}},"methodIdentifiers":{"directory()":"c41c2f24","distributionLimitOf(uint256,uint256,address,address)":"e8db2130","overflowAllowanceOf(uint256,uint256,address,address)":"7a81b562","setFor(uint256,uint256,(address,address,uint256,uint256,uint256,uint256)[])":"34002f31","supportsInterface(bytes4)":"01ffc9a7"},"id":75}