{"abi":[{"type":"function","name":"ETH","inputs":[],"outputs":[{"name":"","type":"uint256","internalType":"uint256"}],"stateMutability":"pure"},{"type":"function","name":"ETHToken","inputs":[],"outputs":[{"name":"","type":"address","internalType":"address"}],"stateMutability":"pure"},{"type":"function","name":"MAX_DISCOUNT_RATE","inputs":[],"outputs":[{"name":"","type":"uint256","internalType":"uint256"}],"stateMutability":"pure"},{"type":"function","name":"MAX_FEE","inputs":[],"outputs":[{"name":"","type":"uint256","internalType":"uint256"}],"stateMutability":"pure"},{"type":"function","name":"MAX_FEE_DISCOUNT","inputs":[],"outputs":[{"name":"","type":"uint256","internalType":"uint256"}],"stateMutability":"pure"},{"type":"function","name":"MAX_REDEMPTION_RATE","inputs":[],"outputs":[{"name":"","type":"uint256","internalType":"uint256"}],"stateMutability":"pure"},{"type":"function","name":"MAX_RESERVED_RATE","inputs":[],"outputs":[{"name":"","type":"uint256","internalType":"uint256"}],"stateMutability":"pure"},{"type":"function","name":"SPLITS_TOTAL_PERCENT","inputs":[],"outputs":[{"name":"","type":"uint256","internalType":"uint256"}],"stateMutability":"pure"},{"type":"function","name":"USD","inputs":[],"outputs":[{"name":"","type":"uint256","internalType":"uint256"}],"stateMutability":"pure"}],"bytecode":{"object":"0x6080806040523461001657610152908161001b8239f35b5f80fdfe60806040526004361015610011575f80fd5b5f803560e01c806319a9f941146100de5780631bf6c21b146100c25780634bb97042146100bd5780635d14fef8146100bd5780638322fff2146100a1578063870bc1fd1461009c578063bc063e1a1461009c578063d3c4fca91461009c5763deda20c21461007d575f80fd5b34610099578060031936011261009957602060405161eeee8152f35b80fd5b6100de565b5034610099578060031936011261009957602060405160018152f35b610100565b5034610099578060031936011261009957602060405160028152f35b346100fc575f3660031901126100fc576020604051633b9aca008152f35b5f80fd5b346100fc575f3660031901126100fc5760206040516127108152f3fea2646970667358221220eaa83bb67ca4fb654ea7d0d2509716628a11722d7288c90cafabcfe3e61932c464736f6c63430008140033","linkReferences":{}},"methodIdentifiers":{"ETH()":"8322fff2","ETHToken()":"deda20c2","MAX_DISCOUNT_RATE()":"870bc1fd","MAX_FEE()":"bc063e1a","MAX_FEE_DISCOUNT()":"19a9f941","MAX_REDEMPTION_RATE()":"4bb97042","MAX_RESERVED_RATE()":"5d14fef8","SPLITS_TOTAL_PERCENT()":"d3c4fca9","USD()":"1bf6c21b"},"id":48}