{"abi":[{"type":"function","name":"addDelegate","inputs":[{"name":"_deployer","type":"address","internalType":"address"},{"name":"_nonce","type":"uint256","internalType":"uint256"}],"outputs":[],"stateMutability":"nonpayable"},{"type":"function","name":"addDelegateCreate2","inputs":[{"name":"_deployer","type":"address","internalType":"address"},{"name":"_salt","type":"bytes32","internalType":"bytes32"},{"name":"_bytecode","type":"bytes","internalType":"bytes"}],"outputs":[],"stateMutability":"nonpayable"},{"type":"function","name":"deployerOf","inputs":[{"name":"","type":"address","internalType":"address"}],"outputs":[{"name":"","type":"address","internalType":"address"}],"stateMutability":"view"},{"type":"event","name":"DelegateAdded","inputs":[{"name":"_delegate","type":"address","indexed":true,"internalType":"address"},{"name":"_deployer","type":"address","indexed":true,"internalType":"address"}],"anonymous":false},{"type":"error","name":"JBDelegatesRegistry_incompatibleDelegate","inputs":[]}],"bytecode":{"object":"0x6080806040523461001657610660908161001b8239f35b5f80fdfe6040608081526004361015610012575f80fd5b5f803560e01c918263416dc7321461029a5782635bcfd2121461004457505063aceea1e41461003f575f80fd5b6102ea565b346102965780600319360112610296576100c3906100606102d0565b90602435806100c6575051606b60f91b6020820152602560fa1b6021820152606082901b6001600160601b0319166022820152600160ff1b60368201526100b481603781015b03601f198101835282610427565b60208151910120808452610449565b80f35b607f811161011f579051606b60f91b6020820152602560fa1b6021820152606083901b6001600160601b031916602282015260f89190911b6001600160f81b031916603682015261011a81603781016100a6565b6100b4565b60ff811161017d57905160d760f81b6020820152602560fa1b6021820152606083901b6001600160601b0319166022820152608160f81b603682015260f89190911b6001600160f81b031916603782015261011a81603881016100a6565b61ffff918282116101dc5751601b60fb1b6020820152602560fa1b6021820152606084901b6001600160601b0319166022820152604160f91b6036820152911660f01b6001600160f01b031916603782015261011a81603981016100a6565b915062ffffff9081811161023f57915160d960f81b6020820152602560fa1b6021820152606084901b6001600160601b0319166022820152608360f81b6036820152911660e81b6001600160e81b031916603782015261011a81603a81016100a6565b9151606d60f91b6020820152602560fa1b6021820152606084901b6001600160601b0319166022820152602160fa1b603682015260e09290921b6001600160e01b03191660378301525061011a81603b81016100a6565b5080fd5b34610296576020366003190112610296576001600160a01b0391826102bd6102d0565b1681528060205220541660805260206080f35b600435906001600160a01b03821682036102e657565b5f80fd5b346102e65760603660031901126102e6576103036102d0565b67ffffffffffffffff906044358281116102e657366023820112156102e65780600401359283116102e65736602484830101116102e6576103c36103cf916103d4945f60206040519261035f82601f19601f8401160185610427565b8084528060248386019601863783010152519020604051602081019160ff60f81b83526bffffffffffffffffffffffff198660601b16602183015260243560358301526055820152605581526103b48161040b565b5190206001600160a01b031690565b6001600160a01b031690565b610449565b005b634e487b7160e01b5f52604160045260245ffd5b6060810190811067ffffffffffffffff82111761040657604052565b6103d6565b6080810190811067ffffffffffffffff82111761040657604052565b90601f8019910116810190811067ffffffffffffffff82111761040657604052565b61045281610578565b80610568575b80610506575b80156104d1575b156104bf576001600160a01b039081165f81815260208190526040812080546001600160a01b03191694909316938417909255907f12dade473695d73bd34e031c850d5e815fa17a42b1b5ba13ff72de2497c5e3099080a3565b6040516302d47a4160e41b8152600490fd5b506104db81610578565b806104f6575b801561046557506104f1816105fb565b610465565b50610500816105cc565b156104e1565b5060205f604051828101906301ffc9a760e01b825263da9ee8b760e01b602482015260248152610535816103ea565b519084617530fa5f513d8261055c575b5081610552575b5061045e565b905015155f61054c565b6020111591505f610545565b50610572816105cc565b15610458565b5f602091604051838101906301ffc9a760e01b8083526024820152602481526105a0816103ea565b5191617530fa5f513d826105c0575b50816105b9575090565b9050151590565b6020111591505f6105af565b5f602091604051838101906301ffc9a760e01b825263ffffffff60e01b6024820152602481526105a0816103ea565b5f602091604051838101906301ffc9a760e01b8252632b13c58f60e01b6024820152602481526105a0816103ea56fea2646970667358221220afbf2318153fef5d5827fa4ddfb2d0399a03b119708ea64e630b83f0ea3d496264736f6c63430008140033","linkReferences":{}},"methodIdentifiers":{"addDelegate(address,uint256)":"5bcfd212","addDelegateCreate2(address,bytes32,bytes)":"aceea1e4","deployerOf(address)":"416dc732"},"id":149}