{
	"format": "sphinx-sol-ct-artifact-1",
	"merkleRoot": "0xb7149150da4a21f5e44df929622f7bf5f8a6bfee8d83c108f14adc174a50c70d",
	"address": "0xae7e8924b2f284e1b8fec1932575d1b3e7a7b921",
	"sourceName": "contracts/DefifaTokenUriResolver.sol",
	"contractName": "DefifaTokenUriResolver",
	"chainId": "0x66eee",
	"abi": [
		{
			"inputs": [
				{
					"internalType": "contract ITypeface",
					"name": "_typeface",
					"type": "address"
				}
			],
			"stateMutability": "nonpayable",
			"type": "constructor"
		},
		{
			"inputs": [
				{
					"internalType": "address",
					"name": "_nft",
					"type": "address"
				},
				{
					"internalType": "uint256",
					"name": "_tokenId",
					"type": "uint256"
				}
			],
			"name": "tokenUriOf",
			"outputs": [
				{
					"internalType": "string",
					"name": "",
					"type": "string"
				}
			],
			"stateMutability": "view",
			"type": "function"
		},
		{
			"inputs": [],
			"name": "typeface",
			"outputs": [
				{
					"internalType": "contract ITypeface",
					"name": "",
					"type": "address"
				}
			],
			"stateMutability": "view",
			"type": "function"
		},
		{
			"inputs": [
				{
					"internalType": "uint256",
					"name": "x",
					"type": "uint256"
				},
				{
					"internalType": "uint256",
					"name": "y",
					"type": "uint256"
				},
				{
					"internalType": "uint256",
					"name": "denominator",
					"type": "uint256"
				}
			],
			"name": "PRBMath_MulDiv_Overflow",
			"type": "error"
		}
	],
	"args": [],
	"solcInputHash": "e66434ef07bfb2e8f4105cb7c779518c",
	"bytecode": "0x60a03461007057601f61298238819003918201601f19168301916001600160401b038311848410176100745780849260209460405283398101031261007057516001600160a01b0381168103610070576080526040516128f99081610089823960805181818160890152610e480152f35b5f80fd5b634e487b7160e01b5f52604160045260245ffdfe60806040526004361015610011575f80fd5b5f3560e01c80634d5a1d111461007757635e703e711461002f575f80fd5b346100735760403660031901126100735761006f61005b600435610052816100bb565b60243590610919565b6040519182916020835260208301906100ed565b0390f35b5f80fd5b34610073575f366003190112610073577f00000000000000000000000000000000000000000000000000000000000000006001600160a01b03166080908152602090f35b6001600160a01b0381160361007357565b5f5b8381106100dd5750505f910152565b81810151838201526020016100ce565b90602091610106815180928185528580860191016100cc565b601f01601f1916010190565b634e487b7160e01b5f52604160045260245ffd5b604081019081106001600160401b0382111761014157604052565b610112565b602081019081106001600160401b0382111761014157604052565b606081019081106001600160401b0382111761014157604052565b601f909101601f19168101906001600160401b0382119082101761014157604052565b90816020910312610073575190565b6040513d5f823e3d90fd5b604051906101e082016001600160401b0381118382101761014157604052565b6001600160401b03811161014157601f01601f191660200190565b90929192610201816101d9565b9161020f604051938461017c565b8294828452828201116100735760206102299301906100cc565b565b9080601f83011215610073578151610245926020016101f4565b90565b906020828203126100735781516001600160401b03811161007357610245920161022b565b6001600160401b0381116101415760051b60200190565b6040519060a082016001600160401b038111838210176101415760405260048252815f5b608081106102b4575050565b8060606020809385010152016102a8565b908160209103126100735751610245816100bb565b519063ffffffff8216820361007357565b51906001600160681b038216820361007357565b519061ffff8216820361007357565b5190610229826100bb565b519062ffffff8216820361007357565b519060ff8216820361007357565b5190811515820361007357565b6020818303126100735780516001600160401b039182821161007357016101e081840312610073576103746101b9565b9261037e826102da565b845261038c602083016102eb565b602085015261039d604083016102da565b60408501526103ae606083016102da565b60608501526103bf608083016102eb565b60808501526103d060a083016102ff565b60a08501526103e160c0830161030e565b60c085015260e082015160e08501526101006103fe818401610319565b90850152610120610410818401610329565b90850152610140610422818401610337565b90850152610160610434818401610337565b90850152610180610446818401610337565b908501526101a0610458818401610337565b908501526101c0928383015190811161007357610475920161022b565b9082015290565b6040519061048982610146565b5f8252565b6040519061049b82610126565b601d82527f646174613a6170706c69636174696f6e2f6a736f6e3b6261736536342c0000006020830152565b634e487b7160e01b5f52603260045260245ffd5b8051156104e85760200190565b6104c7565b8051600110156104e85760400190565b8051600210156104e85760600190565b8051600310156104e85760800190565b80518210156104e85760209160051b010190565b90610544602092828151948592016100cc565b0190565b90816020910312610073575160078110156100735790565b90816060910312610073578051916040602083015161057e816100bb565b92015190565b634e487b7160e01b5f52601160045260245ffd5b90600282018092116105a657565b610584565b90602082018092116105a657565b919082018092116105a657565b600711156105d057565b634e487b7160e01b5f52602160045260245ffd5b604051906105f182610161565b602a82526934b6903932bbb0b9321760b11b6040837f53636f726563617264206c6f636b656420696e2e204275726e20746f20636c6160208201520152565b6040519061063d82610126565b601c82527b20bbb0b4ba34b7339039b1b7b932b1b0b9321030b8383937bb30b61760211b6020830152565b6040519061067582610161565b602482526334b7339760e11b6040837f4d696e74696e67206973206f7665722e20526566756e64732061726520656e6460208201520152565b604051906106bb82610126565b601d82527f4d696e74696e6720616e6420726566756e647320617265206f70656e2e0000006020830152565b604051906106f482610126565b601482527326b4b73a34b7339039ba30b93a399039b7b7b71760611b6020830152565b6040519061072482610161565b60248252633832b71760e11b6040837f4e6f20636f6e7465737420696e6576697461626c652e20526566756e6473206f60208201520152565b6040519061076a82610126565b601982527827379031b7b73a32b9ba17102932b33ab732399037b832b71760391b6020830152565b6040519061079f82610126565b601382527220636172647320696e206578697374656e636560681b6020830152565b604051906107ce82610126565b6012825271206361726420696e206578697374656e636560701b6020830152565b604051906107fc82610126565b600d82526c1031b0b932399039b7903330b960991b6020830152565b6040519061082582610126565b600c82526b1031b0b9321039b7903330b960a11b6020830152565b908160209103126100735761024590610337565b6040519061086182610126565b601582527420bbb0b4ba34b7339039b1b7b932b1b0b93217171760591b6020830152565b75293b666f726d617428226f70656e7479706522293b7d60501b815260160190565b661e17ba32bc3a1f60c91b815260070190565b604051906108c782610126565b6002825261227d60f01b6020830152565b60206102299193929360405194816108f987935180928680870191016100cc565b820161090d825180938680850191016100cc565b0103808552018361017c565b6040516356539f3960e01b815290916020826004816001600160a01b0387165afa9182156117b4575f92611b44575b506040516306fdde0360e01b81529060605f836004816001600160a01b0389165afa9283156117b4575f93611b28575b50610981610284565b60405163975057e760e01b8152909590926020846004816001600160a01b0386165afa9384156117b4575f94611b07575b5060405163c44a8e6d60e01b81526001600160a01b038381166004830152602482018390525f60448301819052919586916064918391165afa9384156117b4575f94611ae3575b50610a325f610a0c865163ffffffff1690565b604051630dd55e1f60e11b815263ffffffff909116600482015291829081906024820190565b03816001600160a01b0387165afa9081156117b4575f91611ac9575b5060e085018051611a605750610a6261048e565b610a6b896104db565b52610a75886104db565b50610b07610b88610a9e610a99610a90895163ffffffff1690565b63ffffffff1690565b611c37565b610b7a610b42610ab8610a99610a908c5163ffffffff1690565b610aeb610b30610b2a604051988997610aeb610af18d610aeb60208d01600990683d913730b6b2911d1160b91b81520190565b90610531565b691116101134b2111d101160b11b8152600a0190565b7601116113232b9b1b934b83a34b7b7111d112a32b0b69d1604d1b815260170190565b89610531565b650161024a21d160d51b815260060190565b7f2e222c22696d616765223a22646174613a696d6167652f7376672b786d6c3b62815265185cd94d8d0b60d21b602082015260260190565b03601f19810183528261017c565b610b91896104ed565b52610b9b886104ed565b5060405163282d924360e21b8152936020856004816001600160a01b0388165afa9485156117b4575f95611a3f575b5060405163038ab08560e11b81526004810189905294602090869060249082906001600160a01b03165afa9485156117b4575f95611a0e575b50604051631c91760360e21b81526020816004816001600160a01b0389165afa80156117b457898391610c60935f916119ef575b506040518080958194635a6fd84360e11b83526004830160205f91939293604081019481520152565b03916001600160a01b03165afa80156117b4575f80925f926119bd575b506040516327f6e97960e01b8152906020826004816001600160a01b038c165afa9081156117b457610cb6925f9261199c575b506105b9565b610cc1828483611dbb565b93610ccb896105c6565b600689036118fa5750610cdc61075d565b985b610d176020610cf1835163ffffffff1690565b6040516342c9297160e11b815263ffffffff909116600482015291829081906024820190565b03816001600160a01b038d165afa9081156117b4575f916118db575b50610d3d8a6105c6565b60018a036118a757610d78816001610d57610aeb94611c37565b910361189757610b7a610d68610818565b6040519485936020850190610531565b985b610d83816105c6565b60038114908115611883575b501561186557506040516329eabfe760e01b815260048101879052906020826024816001600160a01b038c165afa9182156117b4575f92611844575b5060405163873e7e4b60e01b8152916020836004816001600160a01b038d165afa9182156117b457610e04935f93611823575b50611ef0565b60405163d3fef14360e01b81529092906020816004816001600160a01b038c165afa9081156117b4575f916117f4575b506117e657505050610e44610854565b955b7f000000000000000000000000000000000000000000000000000000000000000097610e83610e7d610e778b612015565b9a61208e565b9a611c37565b60405163975057e760e01b81529096906020816004816001600160a01b0386165afa9182156117b457610ee8926020925f916117b9575b50604051630cf9530d60e41b81526001600160a01b0390921660048301529092839190829081906024820190565b03916001600160a01b03165afa80156117b457610f0c915f91611785575b50611c37565b91610f1f610f19836120fb565b926121c3565b92610f298661225b565b51151580611773575b1561176557610f408661238b565b945b610f4b8761225b565b511561173457610f7d610f5d886122f3565b975b610f688161225b565b511561170e57610f779061225b565b98611c37565b986040519d8e9d60208f01610fdc90603e907f3c7376672076696577426f783d2230203020353030203530302220786d6c6e7381527f3d22687474703a2f2f7777772e77332e6f72672f323030302f737667223e000060208201520190565b7f3c7374796c653e40666f6e742d666163657b666f6e742d66616d696c793a224381527f617073756c65732d353030223b7372633a75726c28646174613a666f6e742f7460208201527f727565747970653b636861727365743d7574662d383b6261736536342c0000006040820152605d0161105791610531565b61106090610885565b7f40666f6e742d666163657b666f6e742d66616d696c793a2243617073756c657381527f2d373030223b7372633a75726c28646174613a666f6e742f74727565747970656020820152750ed8da185c9cd95d0f5d5d198b4e0ed8985cd94d8d0b60521b60408201526056016110d491610531565b6110dd90610885565b7f746578747b77686974652d73706163653a7072652d777261703b20776964746881526f1d189818129d903e9e17b9ba3cb6329f60811b60208201526030017f3c726563742077696474683d223130302522206865696768743d223130302522815270103334b6361e9111989c189a191a11179f60791b60208201526031017f3c7465787420783d2231302220793d22333022207374796c653d22666f6e742d81525f805160206128a483398151915260208201525f8051602061282483398151915260408201526c03119b3189d911f23a0a6a29d1609d1b6060820152606d016111c791610531565b670103e102827aa1d160c51b81526008016111e191610531565b690103e1021a0a922299d160b51b8152600a016111fd91610531565b611206906108a7565b7f3c7465787420783d2231302220793d22353022207374796c653d22666f6e742d81525f805160206128a483398151915260208201527f2d3530303b20666f6e742d7765696768743a3530303b2066696c6c3a2023656460408201526618189bb19d911f60c91b606082015260670161127e91610531565b611287906108a7565b7f3c7465787420783d2231302220793d22383522207374796c653d22666f6e742d81527f73697a653a323670783b20666f6e742d66616d696c793a2043617073756c657360208201525f805160206128248339815191526040820152663119b3189d911f60c91b60608201526067016112ff91610531565b611308906108a7565b7f3c7465787420783d2231302220793d2231323022207374796c653d22666f6e7481527f2d73697a653a323670783b20666f6e742d66616d696c793a2043617073756c6560208201525f80516020612844833981519152604082015267183119b3189d911f60c11b606082015260680161138191610531565b61138a906108a7565b7f3c7465787420783d2231302220793d2232303522207374796c653d22666f6e7481525f8051602061286483398151915260208201525f8051602061288483398151915260408201526732b0991c191d911f60c11b60608201526068016113f091610531565b6113f9906108a7565b7f3c7465787420783d2231302220793d2232393522207374796c653d22666f6e7481525f8051602061286483398151915260208201525f8051602061288483398151915260408201526732b0991c191d911f60c11b606082015260680161145f91610531565b611468906108a7565b7f3c7465787420783d2231302220793d2233383522207374796c653d22666f6e7481525f8051602061286483398151915260208201525f8051602061288483398151915260408201526732b0991c191d911f60c11b60608201526068016114ce91610531565b6114d7906108a7565b7f3c7465787420783d2231302220793d2234333022207374796c653d22666f6e7481525f8051602061280483398151915260208201525f805160206128448339815191526040820152710183119b3189d911f2a27a5a2a71024a21d160751b606082015260720161154791610531565b611550906108a7565b7f3c7465787420783d2231302220793d2234353522207374796c653d22666f6e7481525f8051602061280483398151915260208201525f8051602061284483398151915260408201526f0183119b3189d911f2920a924aa2c9d160851b60608201526070016115be91610531565b6115c7906108a7565b7f3c7465787420783d2231302220793d2234383022207374796c653d22666f6e7481525f8051602061280483398151915260208201525f805160206128448339815191526040820152720183119b3189d911f2120a1a5a2a210212c9d1606d1b606082015260730161163891610531565b611641906108a7565b651e17b9bb339f60d11b815260060103601f1981018252611662908261017c565b61166b9061247e565b611674826104fd565b5261167e816104fd565b506116876108ba565b6116908261050d565b5261169a8161050d565b506116a4816104db565b51906116af816104ed565b516116b9826104fd565b51916116c49061050d565b51604051928392602084016116d891610531565b6116e191610531565b6116ea91610531565b03601f19810182526116fc908261017c565b6117059061247e565b610245916108d8565b611717816122f3565b511561172657610f77906122f3565b61172f9061238b565b610f77565b61173d876122f3565b511561175557610f7d61174f8861238b565b97610f5f565b610f7d61176061047c565b61174f565b61176d61047c565b94610f42565b5061177d866122f3565b511515610f32565b6117a7915060203d6020116117ad575b61179f818361017c565b81019061019f565b5f610f06565b503d611795565b6101ae565b6117d99150833d85116117df575b6117d1818361017c565b8101906102c5565b5f610eba565b503d6117c7565b6117ef92611dbb565b610e44565b611816915060203d60201161181c575b61180e818361017c565b810190610840565b5f610e34565b503d611804565b61183d91935060203d6020116117ad5761179f818361017c565b915f610dfe565b61185e91925060203d6020116117ad5761179f818361017c565b905f610dcb565b6020015161187d9391506001600160681b0316611dbb565b95610e46565b60049150611890816105c6565b145f610d8f565b610b7a6118a26107ef565b610d68565b6118ca8160016118b9610aeb94611c37565b91036118d057610b7a610d686107c1565b98610d7a565b610b7a6118a2610792565b6118f4915060203d6020116117ad5761179f818361017c565b5f610d33565b611903896105c6565b6005890361191b5750611914610717565b985b610cde565b611924896105c6565b8861193257506119146106e7565b61193b896105c6565b6001890361194c57506119146106ae565b611955896105c6565b600289036119665750611914610668565b61196f896105c6565b600389036119805750611914610630565b9861198a896105c6565b600489036119165798506119146105e4565b6119b691925060203d6020116117ad5761179f818361017c565b905f610cb0565b9150506119e09150823d84116119e8575b6119d8818361017c565b810190610560565b90915f610c7d565b503d6119ce565b611a08915060203d6020116117df576117d1818361017c565b5f610c37565b611a3191955060203d602011611a38575b611a29818361017c565b810190610548565b935f610c03565b503d611a1f565b611a5991955060203d6020116117df576117d1818361017c565b935f610bca565b604051636c0360eb60e01b8152985096505f95508794506004935084926001600160a01b03169150505afa9081156117b457610245925f92611aa5575b505190611b65565b611ac29192503d805f833e611aba818361017c565b810190610248565b905f611a9d565b611add91503d805f833e611aba818361017c565b5f610a4e565b611b009194503d805f833e611af8818361017c565b810190610344565b925f6109f9565b611b2191945060203d6020116117df576117d1818361017c565b925f6109b2565b611b3d9193503d805f833e611aba818361017c565b915f610978565b611b5e91925060203d6020116117ad5761179f818361017c565b905f610948565b9061024590611b93604051602092609160f51b84830152602282015260228152611b8e81610161565b6125b6565b926040519381611bac86935180928680870191016100cc565b8201611bc0825180938680850191016100cc565b0103808452018261017c565b604051611bd881610146565b5f8152905f368137565b90611bec826101d9565b611bf9604051918261017c565b8281528092611c0a601f19916101d9565b0190602036910137565b634e487b7160e01b5f52601260045260245ffd5b8115611c32570490565b611c14565b5f908072184f03e93ff9f4daa797ed6e38ed64bf6a1f0160401b80821015611d65575b506904ee2d6d415b85acef8160201b80831015611d56575b50662386f26fc1000080831015611d47575b506305f5e10080831015611d38575b5061271080831015611d29575b506064821015611d19575b600a80921015611d0f575b600190816021611cc860018701611be2565b95860101905b611cda575b5050505090565b5f19019083906f181899199a1a9b1b9c1cb0b131b232b360811b8282061a835304918215611d0a57919082611cce565b611cd3565b9160010191611cb6565b9190606460029104910191611cab565b6004919392049101915f611ca0565b6008919392049101915f611c93565b6010919392049101915f611c84565b6020919392049101915f611c72565b60409350810491505f611c5a565b604d81116105a657600a0a90565b8115611c32570690565b600281901b91906001600160fe1b038116036105a657565b90620186a0918281029281840414901517156105a657565b6001600160a01b039091169291611dfd90610a9990611dd990611d73565b611df8611df382611ded610a998289611c28565b96611d81565b611da3565b611c28565b600581511015611e2d57604051600360fc1b602082015290611e28908290610b7a9060218301610aeb565b611dfd565b90919261eeee81145f14611e72575060405161674f60f11b602082015291610245918391610b7a9190610aeb90611e65906022860183565b601760f91b815260010190565b915f600493604051948580926395d89b4160e01b82525afa9283156117b457611e659361024593610b7a925f92611ecc575b50611ebf610aeb91610aeb6040519889976020890190610531565b600160fd1b815260010190565b610aeb919250611ee8611ebf913d805f833e611aba818361017c565b929150611ea4565b90915f198383099280830292838086109503948086039514611f8f5782851015611f66579082910960018219018216809204600280826003021880830282030280830282030280830282030280830282030280830282030280920290030293600183805f03040190848311900302920304170290565b604051630c740aef60e31b81526004810191909152602481019190915260448101829052606490fd5b5050906102459250611c28565b60405190611fa982610126565b60068252651b9bdc9b585b60d21b6020830152565b602081830312610073578051906001600160401b03821161007357019080601f83011215610073578151610245926020016101f4565b606060206102459381845280518285015201519160408082015201906100ed565b5f612054916040519061202782610126565b6101f48252612034611f9c565b6020830152604051808095819463bf6519ad60e01b835260048301611ff4565b03916001600160a01b03165afa9081156117b4575f91612072575090565b61024591503d805f833e612086818361017c565b810190611fbe565b5f61205491604051906120a082610126565b6102bc8252612034611f9c565b8051601e10156104e857603e0190565b8051601410156104e85760340190565b8051600a10156104e857602a0190565b9081518110156104e8570160200190565b919082039182116105a657565b90601e8251156121b857825180601e116121b0575b50600160fd1b6001600160f81b031961213961212b866104db565b516001600160f81b03191690565b16036121a9576001905b8082101561219d5761215d61215883836120ee565b611be2565b91805b82811061216f57509193505050565b8061217f61212b600193896120dd565b61219661218c85846120ee565b915f1a91876120dd565b5301612160565b5050905061024561047c565b5f90612143565b90505f612110565b50905061024561047c565b90603c8251601e10156121b857825180603c11612253575b50600160fd1b6001600160f81b03196121f661212b866120ad565b160361224b57601f905b8082101561219d5761221561215883836120ee565b91805b82811061222757509193505050565b8061223761212b600193896120dd565b61224461218c85846120ee565b5301612218565b601e90612200565b90505f6121db565b90601e8251601410156121b857825180601e116122eb575b50600160fd1b6001600160f81b031961228e61212b866120bd565b16036122e3576015905b8082101561219d576122ad61215883836120ee565b91805b8281106122bf57509193505050565b806122cf61212b600193896120dd565b6122dc61218c85846120ee565b53016122b0565b601490612298565b90505f612273565b9060148251600a10156121b857825180601411612383575b50600160fd1b6001600160f81b031961232661212b866120cd565b160361237b57600b905b8082101561219d5761234561215883836120ee565b91805b82811061235757509193505050565b8061236761212b600193896120dd565b61237461218c85846120ee565b5301612348565b600a90612330565b90505f61230b565b90600a8251156121b857825180600a11612417575b50600160fd1b6001600160f81b03196123bb61212b866104db565b1603612410576001905b8082101561219d576123da61215883836120ee565b91805b8281106123ec57509193505050565b806123fc61212b600193896120dd565b61240961218c85846120ee565b53016123dd565b5f906123c5565b90505f6123a0565b6040519061242c82610161565b604082527f6768696a6b6c6d6e6f707172737475767778797a303132333435363738392b2f6040837f4142434445464748494a4b4c4d4e4f505152535455565758595a61626364656660208201520152565b8051156125585761248d61241f565b6124a96124a461249d8451610598565b6003900490565b611d8b565b916124b6612158846105ab565b92835280815182019060208501935b828210612506575050506003905106806001146124f5576002146124e7575090565b603d60f81b5f199091015290565b50613d3d60f01b6001199091015290565b9091936004906003809401938451600190603f9082828260121c16880101518553828282600c1c16880101518386015382828260061c16880101516002860153168501015190820153019391906124c5565b5061024561047c565b604051906105e082016001600160401b0381118382101761014157604052602e82526105c0366020840137565b906125988261026d565b6125a5604051918261017c565b8281528092611c0a601f199161026d565b908151156126c2576125c6612561565b915f6125d1846104db565b5260019080515f915b8183106125ff575050506125f56125fa9161024593946126cc565b61270e565b612753565b90919361262161261b61261561212b88866120dd565b60f81c90565b60ff1690565b905f915b60ff9088828816851015612685576001929161265a61265461261b61264d896126609661051d565b5160ff1690565b60081b90565b906105b9565b61267c603a9283830616612674878d61051d565b9060ff169052565b04920191612625565b509196925050805b61269c575060010191906125da565b9360ff6001603a926126b883858a06166126748584168d61051d565b011694048061268d565b9050610245611bcc565b9060ff809116906126dc8261258e565b925f5b8381106126ed575050505090565b80836126fb6001938561051d565b5116612707828861051d565b52016126df565b90815161271a8161258e565b905f5b81811061272b575090925050565b60019060ff6127405f1983895103018861051d565b511661274c828661051d565b520161271d565b90815161275f81611be2565b905f5b818110612770575090925050565b6001906040792d30b131b232b333b434b535b6b737b838b939ba3abb3bbc3cbd60311b81519161279f83610161565b603a83527f31323334353637383941424344454647484a4b4c4d4e5051525354555657585960208401528201526001600160f81b0319906127ee9060ff6127e6858b61051d565b5116906120dd565b51165f1a6127fc82866120dd565b530161276256fe2d73697a653a313670783b20666f6e742d66616d696c793a2043617073756c652d3530303b20666f6e742d7765696768743a3530303b2066696c6c3a20236330732d3530303b20666f6e742d7765696768743a3530303b2066696c6c3a2023632d73697a653a383070783b20666f6e742d66616d696c793a2043617073756c65732d3730303b20666f6e742d7765696768743a3730303b2066696c6c3a20236673697a653a313670783b20666f6e742d66616d696c793a2043617073756c6573a2646970667358221220e286705c2af26e54c5d7e80ed1c3b2f9ec8c8080b8d9d01d9a4f253ef7494ac964736f6c63430008170033",
	"deployedBytecode": "0x60806040526004361015610011575f80fd5b5f3560e01c80634d5a1d111461007757635e703e711461002f575f80fd5b346100735760403660031901126100735761006f61005b600435610052816100bb565b60243590610919565b6040519182916020835260208301906100ed565b0390f35b5f80fd5b34610073575f366003190112610073577f000000000000000000000000431c35e9fa5152a906a38390910d0cfcba0fb43b6001600160a01b03166080908152602090f35b6001600160a01b0381160361007357565b5f5b8381106100dd5750505f910152565b81810151838201526020016100ce565b90602091610106815180928185528580860191016100cc565b601f01601f1916010190565b634e487b7160e01b5f52604160045260245ffd5b604081019081106001600160401b0382111761014157604052565b610112565b602081019081106001600160401b0382111761014157604052565b606081019081106001600160401b0382111761014157604052565b601f909101601f19168101906001600160401b0382119082101761014157604052565b90816020910312610073575190565b6040513d5f823e3d90fd5b604051906101e082016001600160401b0381118382101761014157604052565b6001600160401b03811161014157601f01601f191660200190565b90929192610201816101d9565b9161020f604051938461017c565b8294828452828201116100735760206102299301906100cc565b565b9080601f83011215610073578151610245926020016101f4565b90565b906020828203126100735781516001600160401b03811161007357610245920161022b565b6001600160401b0381116101415760051b60200190565b6040519060a082016001600160401b038111838210176101415760405260048252815f5b608081106102b4575050565b8060606020809385010152016102a8565b908160209103126100735751610245816100bb565b519063ffffffff8216820361007357565b51906001600160681b038216820361007357565b519061ffff8216820361007357565b5190610229826100bb565b519062ffffff8216820361007357565b519060ff8216820361007357565b5190811515820361007357565b6020818303126100735780516001600160401b039182821161007357016101e081840312610073576103746101b9565b9261037e826102da565b845261038c602083016102eb565b602085015261039d604083016102da565b60408501526103ae606083016102da565b60608501526103bf608083016102eb565b60808501526103d060a083016102ff565b60a08501526103e160c0830161030e565b60c085015260e082015160e08501526101006103fe818401610319565b90850152610120610410818401610329565b90850152610140610422818401610337565b90850152610160610434818401610337565b90850152610180610446818401610337565b908501526101a0610458818401610337565b908501526101c0928383015190811161007357610475920161022b565b9082015290565b6040519061048982610146565b5f8252565b6040519061049b82610126565b601d82527f646174613a6170706c69636174696f6e2f6a736f6e3b6261736536342c0000006020830152565b634e487b7160e01b5f52603260045260245ffd5b8051156104e85760200190565b6104c7565b8051600110156104e85760400190565b8051600210156104e85760600190565b8051600310156104e85760800190565b80518210156104e85760209160051b010190565b90610544602092828151948592016100cc565b0190565b90816020910312610073575160078110156100735790565b90816060910312610073578051916040602083015161057e816100bb565b92015190565b634e487b7160e01b5f52601160045260245ffd5b90600282018092116105a657565b610584565b90602082018092116105a657565b919082018092116105a657565b600711156105d057565b634e487b7160e01b5f52602160045260245ffd5b604051906105f182610161565b602a82526934b6903932bbb0b9321760b11b6040837f53636f726563617264206c6f636b656420696e2e204275726e20746f20636c6160208201520152565b6040519061063d82610126565b601c82527b20bbb0b4ba34b7339039b1b7b932b1b0b9321030b8383937bb30b61760211b6020830152565b6040519061067582610161565b602482526334b7339760e11b6040837f4d696e74696e67206973206f7665722e20526566756e64732061726520656e6460208201520152565b604051906106bb82610126565b601d82527f4d696e74696e6720616e6420726566756e647320617265206f70656e2e0000006020830152565b604051906106f482610126565b601482527326b4b73a34b7339039ba30b93a399039b7b7b71760611b6020830152565b6040519061072482610161565b60248252633832b71760e11b6040837f4e6f20636f6e7465737420696e6576697461626c652e20526566756e6473206f60208201520152565b6040519061076a82610126565b601982527827379031b7b73a32b9ba17102932b33ab732399037b832b71760391b6020830152565b6040519061079f82610126565b601382527220636172647320696e206578697374656e636560681b6020830152565b604051906107ce82610126565b6012825271206361726420696e206578697374656e636560701b6020830152565b604051906107fc82610126565b600d82526c1031b0b932399039b7903330b960991b6020830152565b6040519061082582610126565b600c82526b1031b0b9321039b7903330b960a11b6020830152565b908160209103126100735761024590610337565b6040519061086182610126565b601582527420bbb0b4ba34b7339039b1b7b932b1b0b93217171760591b6020830152565b75293b666f726d617428226f70656e7479706522293b7d60501b815260160190565b661e17ba32bc3a1f60c91b815260070190565b604051906108c782610126565b6002825261227d60f01b6020830152565b60206102299193929360405194816108f987935180928680870191016100cc565b820161090d825180938680850191016100cc565b0103808552018361017c565b6040516356539f3960e01b815290916020826004816001600160a01b0387165afa9182156117b4575f92611b44575b506040516306fdde0360e01b81529060605f836004816001600160a01b0389165afa9283156117b4575f93611b28575b50610981610284565b60405163975057e760e01b8152909590926020846004816001600160a01b0386165afa9384156117b4575f94611b07575b5060405163c44a8e6d60e01b81526001600160a01b038381166004830152602482018390525f60448301819052919586916064918391165afa9384156117b4575f94611ae3575b50610a325f610a0c865163ffffffff1690565b604051630dd55e1f60e11b815263ffffffff909116600482015291829081906024820190565b03816001600160a01b0387165afa9081156117b4575f91611ac9575b5060e085018051611a605750610a6261048e565b610a6b896104db565b52610a75886104db565b50610b07610b88610a9e610a99610a90895163ffffffff1690565b63ffffffff1690565b611c37565b610b7a610b42610ab8610a99610a908c5163ffffffff1690565b610aeb610b30610b2a604051988997610aeb610af18d610aeb60208d01600990683d913730b6b2911d1160b91b81520190565b90610531565b691116101134b2111d101160b11b8152600a0190565b7601116113232b9b1b934b83a34b7b7111d112a32b0b69d1604d1b815260170190565b89610531565b650161024a21d160d51b815260060190565b7f2e222c22696d616765223a22646174613a696d6167652f7376672b786d6c3b62815265185cd94d8d0b60d21b602082015260260190565b03601f19810183528261017c565b610b91896104ed565b52610b9b886104ed565b5060405163282d924360e21b8152936020856004816001600160a01b0388165afa9485156117b4575f95611a3f575b5060405163038ab08560e11b81526004810189905294602090869060249082906001600160a01b03165afa9485156117b4575f95611a0e575b50604051631c91760360e21b81526020816004816001600160a01b0389165afa80156117b457898391610c60935f916119ef575b506040518080958194635a6fd84360e11b83526004830160205f91939293604081019481520152565b03916001600160a01b03165afa80156117b4575f80925f926119bd575b506040516327f6e97960e01b8152906020826004816001600160a01b038c165afa9081156117b457610cb6925f9261199c575b506105b9565b610cc1828483611dbb565b93610ccb896105c6565b600689036118fa5750610cdc61075d565b985b610d176020610cf1835163ffffffff1690565b6040516342c9297160e11b815263ffffffff909116600482015291829081906024820190565b03816001600160a01b038d165afa9081156117b4575f916118db575b50610d3d8a6105c6565b60018a036118a757610d78816001610d57610aeb94611c37565b910361189757610b7a610d68610818565b6040519485936020850190610531565b985b610d83816105c6565b60038114908115611883575b501561186557506040516329eabfe760e01b815260048101879052906020826024816001600160a01b038c165afa9182156117b4575f92611844575b5060405163873e7e4b60e01b8152916020836004816001600160a01b038d165afa9182156117b457610e04935f93611823575b50611ef0565b60405163d3fef14360e01b81529092906020816004816001600160a01b038c165afa9081156117b4575f916117f4575b506117e657505050610e44610854565b955b7f000000000000000000000000431c35e9fa5152a906a38390910d0cfcba0fb43b97610e83610e7d610e778b612015565b9a61208e565b9a611c37565b60405163975057e760e01b81529096906020816004816001600160a01b0386165afa9182156117b457610ee8926020925f916117b9575b50604051630cf9530d60e41b81526001600160a01b0390921660048301529092839190829081906024820190565b03916001600160a01b03165afa80156117b457610f0c915f91611785575b50611c37565b91610f1f610f19836120fb565b926121c3565b92610f298661225b565b51151580611773575b1561176557610f408661238b565b945b610f4b8761225b565b511561173457610f7d610f5d886122f3565b975b610f688161225b565b511561170e57610f779061225b565b98611c37565b986040519d8e9d60208f01610fdc90603e907f3c7376672076696577426f783d2230203020353030203530302220786d6c6e7381527f3d22687474703a2f2f7777772e77332e6f72672f323030302f737667223e000060208201520190565b7f3c7374796c653e40666f6e742d666163657b666f6e742d66616d696c793a224381527f617073756c65732d353030223b7372633a75726c28646174613a666f6e742f7460208201527f727565747970653b636861727365743d7574662d383b6261736536342c0000006040820152605d0161105791610531565b61106090610885565b7f40666f6e742d666163657b666f6e742d66616d696c793a2243617073756c657381527f2d373030223b7372633a75726c28646174613a666f6e742f74727565747970656020820152750ed8da185c9cd95d0f5d5d198b4e0ed8985cd94d8d0b60521b60408201526056016110d491610531565b6110dd90610885565b7f746578747b77686974652d73706163653a7072652d777261703b20776964746881526f1d189818129d903e9e17b9ba3cb6329f60811b60208201526030017f3c726563742077696474683d223130302522206865696768743d223130302522815270103334b6361e9111989c189a191a11179f60791b60208201526031017f3c7465787420783d2231302220793d22333022207374796c653d22666f6e742d81525f805160206128a483398151915260208201525f8051602061282483398151915260408201526c03119b3189d911f23a0a6a29d1609d1b6060820152606d016111c791610531565b670103e102827aa1d160c51b81526008016111e191610531565b690103e1021a0a922299d160b51b8152600a016111fd91610531565b611206906108a7565b7f3c7465787420783d2231302220793d22353022207374796c653d22666f6e742d81525f805160206128a483398151915260208201527f2d3530303b20666f6e742d7765696768743a3530303b2066696c6c3a2023656460408201526618189bb19d911f60c91b606082015260670161127e91610531565b611287906108a7565b7f3c7465787420783d2231302220793d22383522207374796c653d22666f6e742d81527f73697a653a323670783b20666f6e742d66616d696c793a2043617073756c657360208201525f805160206128248339815191526040820152663119b3189d911f60c91b60608201526067016112ff91610531565b611308906108a7565b7f3c7465787420783d2231302220793d2231323022207374796c653d22666f6e7481527f2d73697a653a323670783b20666f6e742d66616d696c793a2043617073756c6560208201525f80516020612844833981519152604082015267183119b3189d911f60c11b606082015260680161138191610531565b61138a906108a7565b7f3c7465787420783d2231302220793d2232303522207374796c653d22666f6e7481525f8051602061286483398151915260208201525f8051602061288483398151915260408201526732b0991c191d911f60c11b60608201526068016113f091610531565b6113f9906108a7565b7f3c7465787420783d2231302220793d2232393522207374796c653d22666f6e7481525f8051602061286483398151915260208201525f8051602061288483398151915260408201526732b0991c191d911f60c11b606082015260680161145f91610531565b611468906108a7565b7f3c7465787420783d2231302220793d2233383522207374796c653d22666f6e7481525f8051602061286483398151915260208201525f8051602061288483398151915260408201526732b0991c191d911f60c11b60608201526068016114ce91610531565b6114d7906108a7565b7f3c7465787420783d2231302220793d2234333022207374796c653d22666f6e7481525f8051602061280483398151915260208201525f805160206128448339815191526040820152710183119b3189d911f2a27a5a2a71024a21d160751b606082015260720161154791610531565b611550906108a7565b7f3c7465787420783d2231302220793d2234353522207374796c653d22666f6e7481525f8051602061280483398151915260208201525f8051602061284483398151915260408201526f0183119b3189d911f2920a924aa2c9d160851b60608201526070016115be91610531565b6115c7906108a7565b7f3c7465787420783d2231302220793d2234383022207374796c653d22666f6e7481525f8051602061280483398151915260208201525f805160206128448339815191526040820152720183119b3189d911f2120a1a5a2a210212c9d1606d1b606082015260730161163891610531565b611641906108a7565b651e17b9bb339f60d11b815260060103601f1981018252611662908261017c565b61166b9061247e565b611674826104fd565b5261167e816104fd565b506116876108ba565b6116908261050d565b5261169a8161050d565b506116a4816104db565b51906116af816104ed565b516116b9826104fd565b51916116c49061050d565b51604051928392602084016116d891610531565b6116e191610531565b6116ea91610531565b03601f19810182526116fc908261017c565b6117059061247e565b610245916108d8565b611717816122f3565b511561172657610f77906122f3565b61172f9061238b565b610f77565b61173d876122f3565b511561175557610f7d61174f8861238b565b97610f5f565b610f7d61176061047c565b61174f565b61176d61047c565b94610f42565b5061177d866122f3565b511515610f32565b6117a7915060203d6020116117ad575b61179f818361017c565b81019061019f565b5f610f06565b503d611795565b6101ae565b6117d99150833d85116117df575b6117d1818361017c565b8101906102c5565b5f610eba565b503d6117c7565b6117ef92611dbb565b610e44565b611816915060203d60201161181c575b61180e818361017c565b810190610840565b5f610e34565b503d611804565b61183d91935060203d6020116117ad5761179f818361017c565b915f610dfe565b61185e91925060203d6020116117ad5761179f818361017c565b905f610dcb565b6020015161187d9391506001600160681b0316611dbb565b95610e46565b60049150611890816105c6565b145f610d8f565b610b7a6118a26107ef565b610d68565b6118ca8160016118b9610aeb94611c37565b91036118d057610b7a610d686107c1565b98610d7a565b610b7a6118a2610792565b6118f4915060203d6020116117ad5761179f818361017c565b5f610d33565b611903896105c6565b6005890361191b5750611914610717565b985b610cde565b611924896105c6565b8861193257506119146106e7565b61193b896105c6565b6001890361194c57506119146106ae565b611955896105c6565b600289036119665750611914610668565b61196f896105c6565b600389036119805750611914610630565b9861198a896105c6565b600489036119165798506119146105e4565b6119b691925060203d6020116117ad5761179f818361017c565b905f610cb0565b9150506119e09150823d84116119e8575b6119d8818361017c565b810190610560565b90915f610c7d565b503d6119ce565b611a08915060203d6020116117df576117d1818361017c565b5f610c37565b611a3191955060203d602011611a38575b611a29818361017c565b810190610548565b935f610c03565b503d611a1f565b611a5991955060203d6020116117df576117d1818361017c565b935f610bca565b604051636c0360eb60e01b8152985096505f95508794506004935084926001600160a01b03169150505afa9081156117b457610245925f92611aa5575b505190611b65565b611ac29192503d805f833e611aba818361017c565b810190610248565b905f611a9d565b611add91503d805f833e611aba818361017c565b5f610a4e565b611b009194503d805f833e611af8818361017c565b810190610344565b925f6109f9565b611b2191945060203d6020116117df576117d1818361017c565b925f6109b2565b611b3d9193503d805f833e611aba818361017c565b915f610978565b611b5e91925060203d6020116117ad5761179f818361017c565b905f610948565b9061024590611b93604051602092609160f51b84830152602282015260228152611b8e81610161565b6125b6565b926040519381611bac86935180928680870191016100cc565b8201611bc0825180938680850191016100cc565b0103808452018261017c565b604051611bd881610146565b5f8152905f368137565b90611bec826101d9565b611bf9604051918261017c565b8281528092611c0a601f19916101d9565b0190602036910137565b634e487b7160e01b5f52601260045260245ffd5b8115611c32570490565b611c14565b5f908072184f03e93ff9f4daa797ed6e38ed64bf6a1f0160401b80821015611d65575b506904ee2d6d415b85acef8160201b80831015611d56575b50662386f26fc1000080831015611d47575b506305f5e10080831015611d38575b5061271080831015611d29575b506064821015611d19575b600a80921015611d0f575b600190816021611cc860018701611be2565b95860101905b611cda575b5050505090565b5f19019083906f181899199a1a9b1b9c1cb0b131b232b360811b8282061a835304918215611d0a57919082611cce565b611cd3565b9160010191611cb6565b9190606460029104910191611cab565b6004919392049101915f611ca0565b6008919392049101915f611c93565b6010919392049101915f611c84565b6020919392049101915f611c72565b60409350810491505f611c5a565b604d81116105a657600a0a90565b8115611c32570690565b600281901b91906001600160fe1b038116036105a657565b90620186a0918281029281840414901517156105a657565b6001600160a01b039091169291611dfd90610a9990611dd990611d73565b611df8611df382611ded610a998289611c28565b96611d81565b611da3565b611c28565b600581511015611e2d57604051600360fc1b602082015290611e28908290610b7a9060218301610aeb565b611dfd565b90919261eeee81145f14611e72575060405161674f60f11b602082015291610245918391610b7a9190610aeb90611e65906022860183565b601760f91b815260010190565b915f600493604051948580926395d89b4160e01b82525afa9283156117b457611e659361024593610b7a925f92611ecc575b50611ebf610aeb91610aeb6040519889976020890190610531565b600160fd1b815260010190565b610aeb919250611ee8611ebf913d805f833e611aba818361017c565b929150611ea4565b90915f198383099280830292838086109503948086039514611f8f5782851015611f66579082910960018219018216809204600280826003021880830282030280830282030280830282030280830282030280830282030280920290030293600183805f03040190848311900302920304170290565b604051630c740aef60e31b81526004810191909152602481019190915260448101829052606490fd5b5050906102459250611c28565b60405190611fa982610126565b60068252651b9bdc9b585b60d21b6020830152565b602081830312610073578051906001600160401b03821161007357019080601f83011215610073578151610245926020016101f4565b606060206102459381845280518285015201519160408082015201906100ed565b5f612054916040519061202782610126565b6101f48252612034611f9c565b6020830152604051808095819463bf6519ad60e01b835260048301611ff4565b03916001600160a01b03165afa9081156117b4575f91612072575090565b61024591503d805f833e612086818361017c565b810190611fbe565b5f61205491604051906120a082610126565b6102bc8252612034611f9c565b8051601e10156104e857603e0190565b8051601410156104e85760340190565b8051600a10156104e857602a0190565b9081518110156104e8570160200190565b919082039182116105a657565b90601e8251156121b857825180601e116121b0575b50600160fd1b6001600160f81b031961213961212b866104db565b516001600160f81b03191690565b16036121a9576001905b8082101561219d5761215d61215883836120ee565b611be2565b91805b82811061216f57509193505050565b8061217f61212b600193896120dd565b61219661218c85846120ee565b915f1a91876120dd565b5301612160565b5050905061024561047c565b5f90612143565b90505f612110565b50905061024561047c565b90603c8251601e10156121b857825180603c11612253575b50600160fd1b6001600160f81b03196121f661212b866120ad565b160361224b57601f905b8082101561219d5761221561215883836120ee565b91805b82811061222757509193505050565b8061223761212b600193896120dd565b61224461218c85846120ee565b5301612218565b601e90612200565b90505f6121db565b90601e8251601410156121b857825180601e116122eb575b50600160fd1b6001600160f81b031961228e61212b866120bd565b16036122e3576015905b8082101561219d576122ad61215883836120ee565b91805b8281106122bf57509193505050565b806122cf61212b600193896120dd565b6122dc61218c85846120ee565b53016122b0565b601490612298565b90505f612273565b9060148251600a10156121b857825180601411612383575b50600160fd1b6001600160f81b031961232661212b866120cd565b160361237b57600b905b8082101561219d5761234561215883836120ee565b91805b82811061235757509193505050565b8061236761212b600193896120dd565b61237461218c85846120ee565b5301612348565b600a90612330565b90505f61230b565b90600a8251156121b857825180600a11612417575b50600160fd1b6001600160f81b03196123bb61212b866104db565b1603612410576001905b8082101561219d576123da61215883836120ee565b91805b8281106123ec57509193505050565b806123fc61212b600193896120dd565b61240961218c85846120ee565b53016123dd565b5f906123c5565b90505f6123a0565b6040519061242c82610161565b604082527f6768696a6b6c6d6e6f707172737475767778797a303132333435363738392b2f6040837f4142434445464748494a4b4c4d4e4f505152535455565758595a61626364656660208201520152565b8051156125585761248d61241f565b6124a96124a461249d8451610598565b6003900490565b611d8b565b916124b6612158846105ab565b92835280815182019060208501935b828210612506575050506003905106806001146124f5576002146124e7575090565b603d60f81b5f199091015290565b50613d3d60f01b6001199091015290565b9091936004906003809401938451600190603f9082828260121c16880101518553828282600c1c16880101518386015382828260061c16880101516002860153168501015190820153019391906124c5565b5061024561047c565b604051906105e082016001600160401b0381118382101761014157604052602e82526105c0366020840137565b906125988261026d565b6125a5604051918261017c565b8281528092611c0a601f199161026d565b908151156126c2576125c6612561565b915f6125d1846104db565b5260019080515f915b8183106125ff575050506125f56125fa9161024593946126cc565b61270e565b612753565b90919361262161261b61261561212b88866120dd565b60f81c90565b60ff1690565b905f915b60ff9088828816851015612685576001929161265a61265461261b61264d896126609661051d565b5160ff1690565b60081b90565b906105b9565b61267c603a9283830616612674878d61051d565b9060ff169052565b04920191612625565b509196925050805b61269c575060010191906125da565b9360ff6001603a926126b883858a06166126748584168d61051d565b011694048061268d565b9050610245611bcc565b9060ff809116906126dc8261258e565b925f5b8381106126ed575050505090565b80836126fb6001938561051d565b5116612707828861051d565b52016126df565b90815161271a8161258e565b905f5b81811061272b575090925050565b60019060ff6127405f1983895103018861051d565b511661274c828661051d565b520161271d565b90815161275f81611be2565b905f5b818110612770575090925050565b6001906040792d30b131b232b333b434b535b6b737b838b939ba3abb3bbc3cbd60311b81519161279f83610161565b603a83527f31323334353637383941424344454647484a4b4c4d4e5051525354555657585960208401528201526001600160f81b0319906127ee9060ff6127e6858b61051d565b5116906120dd565b51165f1a6127fc82866120dd565b530161276256fe2d73697a653a313670783b20666f6e742d66616d696c793a2043617073756c652d3530303b20666f6e742d7765696768743a3530303b2066696c6c3a20236330732d3530303b20666f6e742d7765696768743a3530303b2066696c6c3a2023632d73697a653a383070783b20666f6e742d66616d696c793a2043617073756c65732d3730303b20666f6e742d7765696768743a3730303b2066696c6c3a20236673697a653a313670783b20666f6e742d66616d696c793a2043617073756c6573a2646970667358221220e286705c2af26e54c5d7e80ed1c3b2f9ec8c8080b8d9d01d9a4f253ef7494ac964736f6c63430008170033",
	"gitCommit": "65e9171fc69ba65af9e9ac84f021a9fd6cb1787d",
	"history": [
		{
			"format": "sphinx-sol-ct-artifact-1",
			"merkleRoot": "0xf08f9ca7dcb710bbe0f088e7fa547a30ed0560e0de626166d34dde93c2b21941",
			"address": "0x57c110647675bb935f8e0b417fe7f64475718e94",
			"sourceName": "contracts/DefifaTokenUriResolver.sol",
			"contractName": "DefifaTokenUriResolver",
			"chainId": "0x66eee",
			"abi": [
				{
					"inputs": [
						{
							"internalType": "contract ITypeface",
							"name": "_typeface",
							"type": "address"
						}
					],
					"stateMutability": "nonpayable",
					"type": "constructor"
				},
				{
					"inputs": [
						{
							"internalType": "address",
							"name": "_nft",
							"type": "address"
						},
						{
							"internalType": "uint256",
							"name": "_tokenId",
							"type": "uint256"
						}
					],
					"name": "tokenUriOf",
					"outputs": [
						{
							"internalType": "string",
							"name": "",
							"type": "string"
						}
					],
					"stateMutability": "view",
					"type": "function"
				},
				{
					"inputs": [],
					"name": "typeface",
					"outputs": [
						{
							"internalType": "contract ITypeface",
							"name": "",
							"type": "address"
						}
					],
					"stateMutability": "view",
					"type": "function"
				},
				{
					"inputs": [
						{
							"internalType": "uint256",
							"name": "x",
							"type": "uint256"
						},
						{
							"internalType": "uint256",
							"name": "y",
							"type": "uint256"
						},
						{
							"internalType": "uint256",
							"name": "denominator",
							"type": "uint256"
						}
					],
					"name": "PRBMath_MulDiv_Overflow",
					"type": "error"
				}
			],
			"args": [],
			"solcInputHash": "bbd52d6f4feb6ee413754f9f8639fe9c",
			"receipt": {
				"type": "0x2",
				"status": "0x1",
				"cumulativeGasUsed": "0x288b33",
				"logs": [
					{
						"address": "0xa2ea7657440875bf916cbfc0cfa88f13e38ad463",
						"topics": [
							"0x572f161235911da04685a68c06adf558fc7e4a36909dca394650e0adc19cc93d",
							"0x000000000000000000000000755ff2f75a0a586ecfa2b9a3c959cb662458a105",
							"0x000000000000000000000000f99fe00bf35369acadc62f2cf302c66fefbc7a11",
							"0x5af265619618d75650a220dff2d3cf8a72671d8a4a192f0bb2ad62359512df11"
						],
						"data": "0x0000000000000000000000000000000000000000000000000000000000000000",
						"blockHash": "0xfac50afaf93630451dc192db4fa4cc0b3a58f4159de73cb2fb27553d2a8ef825",
						"blockNumber": "0xc6f9dd1",
						"transactionHash": "0xd5496aca19b0840e52b0d30e95ff97df8710d2954dc4e6a5faa04e29b4fbf649",
						"transactionIndex": "0x3",
						"logIndex": "0x2",
						"removed": false
					},
					{
						"address": "0xe22e214f8646eafd1c89ece0eb1d553de96af4a9",
						"topics": [
							"0x6895c13664aa4f67288b25d7a21d7aaa34916e355fb9b6fae0a139a9085becb8",
							"0x000000000000000000000000f99fe00bf35369acadc62f2cf302c66fefbc7a11"
						],
						"data": "0x",
						"blockHash": "0xfac50afaf93630451dc192db4fa4cc0b3a58f4159de73cb2fb27553d2a8ef825",
						"blockNumber": "0xc6f9dd1",
						"transactionHash": "0xd5496aca19b0840e52b0d30e95ff97df8710d2954dc4e6a5faa04e29b4fbf649",
						"transactionIndex": "0x3",
						"logIndex": "0x3",
						"removed": false
					},
					{
						"address": "0xf99fe00bf35369acadc62f2cf302c66fefbc7a11",
						"topics": [
							"0xa65fb05c5808f5f389d72edeaf719ce38f4cc55c1f69ca3cbfb31c21501caa07",
							"0xf08f9ca7dcb710bbe0f088e7fa547a30ed0560e0de626166d34dde93c2b21941"
						],
						"data": "0x0000000000000000000000000000000000000000000000000000000000000002",
						"blockHash": "0xfac50afaf93630451dc192db4fa4cc0b3a58f4159de73cb2fb27553d2a8ef825",
						"blockNumber": "0xc6f9dd1",
						"transactionHash": "0xd5496aca19b0840e52b0d30e95ff97df8710d2954dc4e6a5faa04e29b4fbf649",
						"transactionIndex": "0x3",
						"logIndex": "0x4",
						"removed": false
					}
				],
				"logsBloom": "0x00000000000010000400000000080000000004800000000000000000000000000800000000000000000000000040000000000000000000000000000000000010000004000000200000000000000000000000000000000800000000000000000000000000000000001000000000000000000000000000000000000000000000000800000000000000000104000000000000000020000000080000000000000000004000040000000000000000000000002200400000000000000008000004000000000002008000000000000000000000000000000000000000000000000000000000000020000000000000000000000200020000000080000000000000000000",
				"transactionHash": "0xd5496aca19b0840e52b0d30e95ff97df8710d2954dc4e6a5faa04e29b4fbf649",
				"transactionIndex": "0x3",
				"blockHash": "0xfac50afaf93630451dc192db4fa4cc0b3a58f4159de73cb2fb27553d2a8ef825",
				"blockNumber": "0xc6f9dd1",
				"gasUsed": "0x26027a",
				"effectiveGasPrice": "0x5f5e100",
				"from": "0x755ff2f75a0a586ecfa2b9a3c959cb662458a105",
				"to": "0xa2ea7657440875bf916cbfc0cfa88f13e38ad463",
				"contractAddress": null
			},
			"bytecode": "0x60a03461007057601f61298138819003918201601f19168301916001600160401b038311848410176100745780849260209460405283398101031261007057516001600160a01b0381168103610070576080526040516128f89081610089823960805181818160890152610e480152f35b5f80fd5b634e487b7160e01b5f52604160045260245ffdfe60806040526004361015610011575f80fd5b5f3560e01c80634d5a1d111461007757635e703e711461002f575f80fd5b346100735760403660031901126100735761006f61005b600435610052816100bb565b60243590610919565b6040519182916020835260208301906100ed565b0390f35b5f80fd5b34610073575f366003190112610073577f00000000000000000000000000000000000000000000000000000000000000006001600160a01b03166080908152602090f35b6001600160a01b0381160361007357565b5f5b8381106100dd5750505f910152565b81810151838201526020016100ce565b90602091610106815180928185528580860191016100cc565b601f01601f1916010190565b634e487b7160e01b5f52604160045260245ffd5b604081019081106001600160401b0382111761014157604052565b610112565b602081019081106001600160401b0382111761014157604052565b606081019081106001600160401b0382111761014157604052565b601f909101601f19168101906001600160401b0382119082101761014157604052565b90816020910312610073575190565b6040513d5f823e3d90fd5b604051906101e082016001600160401b0381118382101761014157604052565b6001600160401b03811161014157601f01601f191660200190565b90929192610201816101d9565b9161020f604051938461017c565b8294828452828201116100735760206102299301906100cc565b565b9080601f83011215610073578151610245926020016101f4565b90565b906020828203126100735781516001600160401b03811161007357610245920161022b565b6001600160401b0381116101415760051b60200190565b6040519060a082016001600160401b038111838210176101415760405260048252815f5b608081106102b4575050565b8060606020809385010152016102a8565b908160209103126100735751610245816100bb565b519063ffffffff8216820361007357565b51906001600160681b038216820361007357565b519061ffff8216820361007357565b5190610229826100bb565b519062ffffff8216820361007357565b519060ff8216820361007357565b5190811515820361007357565b6020818303126100735780516001600160401b039182821161007357016101e081840312610073576103746101b9565b9261037e826102da565b845261038c602083016102eb565b602085015261039d604083016102da565b60408501526103ae606083016102da565b60608501526103bf608083016102eb565b60808501526103d060a083016102ff565b60a08501526103e160c0830161030e565b60c085015260e082015160e08501526101006103fe818401610319565b90850152610120610410818401610329565b90850152610140610422818401610337565b90850152610160610434818401610337565b90850152610180610446818401610337565b908501526101a0610458818401610337565b908501526101c0928383015190811161007357610475920161022b565b9082015290565b6040519061048982610146565b5f8252565b6040519061049b82610126565b601d82527f646174613a6170706c69636174696f6e2f6a736f6e3b6261736536342c0000006020830152565b634e487b7160e01b5f52603260045260245ffd5b8051156104e85760200190565b6104c7565b8051600110156104e85760400190565b8051600210156104e85760600190565b8051600310156104e85760800190565b80518210156104e85760209160051b010190565b90610544602092828151948592016100cc565b0190565b90816020910312610073575160078110156100735790565b90816060910312610073578051916040602083015161057e816100bb565b92015190565b634e487b7160e01b5f52601160045260245ffd5b90600282018092116105a657565b610584565b90602082018092116105a657565b919082018092116105a657565b600711156105d057565b634e487b7160e01b5f52602160045260245ffd5b604051906105f182610161565b602a82526934b6903932bbb0b9321760b11b6040837f53636f726563617264206c6f636b656420696e2e204275726e20746f20636c6160208201520152565b6040519061063d82610126565b601c82527b20bbb0b4ba34b7339039b1b7b932b1b0b9321030b8383937bb30b61760211b6020830152565b6040519061067582610161565b602482526334b7339760e11b6040837f4d696e74696e67206973206f7665722e20526566756e64732061726520656e6460208201520152565b604051906106bb82610126565b601d82527f4d696e74696e6720616e6420726566756e647320617265206f70656e2e0000006020830152565b604051906106f482610126565b601482527326b4b73a34b7339039ba30b93a399039b7b7b71760611b6020830152565b6040519061072482610161565b60248252633832b71760e11b6040837f4e6f20636f6e7465737420696e6576697461626c652e20526566756e6473206f60208201520152565b6040519061076a82610126565b601982527827379031b7b73a32b9ba17102932b33ab732399037b832b71760391b6020830152565b6040519061079f82610126565b601382527220636172647320696e206578697374656e636560681b6020830152565b604051906107ce82610126565b6012825271206361726420696e206578697374656e636560701b6020830152565b604051906107fc82610126565b600d82526c1031b0b932399039b7903330b960991b6020830152565b6040519061082582610126565b600c82526b1031b0b9321039b7903330b960a11b6020830152565b908160209103126100735761024590610337565b6040519061086182610126565b601582527420bbb0b4ba34b7339039b1b7b932b1b0b93217171760591b6020830152565b75293b666f726d617428226f70656e7479706522293b7d60501b815260160190565b661e17ba32bc3a1f60c91b815260070190565b604051906108c782610126565b6002825261227d60f01b6020830152565b60206102299193929360405194816108f987935180928680870191016100cc565b820161090d825180938680850191016100cc565b0103808552018361017c565b6040516356539f3960e01b815290916020826004816001600160a01b0387165afa9182156117b4575f92611b44575b506040516306fdde0360e01b81529060605f836004816001600160a01b0389165afa9283156117b4575f93611b28575b50610981610284565b60405163975057e760e01b8152909590926020846004816001600160a01b0386165afa9384156117b4575f94611b07575b5060405163c44a8e6d60e01b81526001600160a01b038381166004830152602482018390525f60448301819052919586916064918391165afa9384156117b4575f94611ae3575b50610a325f610a0c865163ffffffff1690565b604051630dd55e1f60e11b815263ffffffff909116600482015291829081906024820190565b03816001600160a01b0387165afa9081156117b4575f91611ac9575b5060e085018051611a605750610a6261048e565b610a6b896104db565b52610a75886104db565b50610b07610b88610a9e610a99610a90895163ffffffff1690565b63ffffffff1690565b611c37565b610b7a610b42610ab8610a99610a908c5163ffffffff1690565b610aeb610b30610b2a604051988997610aeb610af18d610aeb60208d01600990683d913730b6b2911d1160b91b81520190565b90610531565b691116101134b2111d101160b11b8152600a0190565b7601116113232b9b1b934b83a34b7b7111d112a32b0b69d1604d1b815260170190565b89610531565b650161024a21d160d51b815260060190565b7f2e222c22696d616765223a22646174613a696d6167652f7376672b786d6c3b62815265185cd94d8d0b60d21b602082015260260190565b03601f19810183528261017c565b610b91896104ed565b52610b9b886104ed565b5060405163282d924360e21b8152936020856004816001600160a01b0388165afa9485156117b4575f95611a3f575b5060405163038ab08560e11b81526004810189905294602090869060249082906001600160a01b03165afa9485156117b4575f95611a0e575b50604051631c91760360e21b81526020816004816001600160a01b0389165afa80156117b457898391610c60935f916119ef575b506040518080958194635a6fd84360e11b83526004830160205f91939293604081019481520152565b03916001600160a01b03165afa80156117b4575f80925f926119bd575b506040516327f6e97960e01b8152906020826004816001600160a01b038c165afa9081156117b457610cb6925f9261199c575b506105b9565b610cc1828483611dba565b93610ccb896105c6565b600689036118fa5750610cdc61075d565b985b610d176020610cf1835163ffffffff1690565b6040516342c9297160e11b815263ffffffff909116600482015291829081906024820190565b03816001600160a01b038d165afa9081156117b4575f916118db575b50610d3d8a6105c6565b60018a036118a757610d78816001610d57610aeb94611c37565b910361189757610b7a610d68610818565b6040519485936020850190610531565b985b610d83816105c6565b60038114908115611883575b501561186557506040516329eabfe760e01b815260048101879052906020826024816001600160a01b038c165afa9182156117b4575f92611844575b5060405163873e7e4b60e01b8152916020836004816001600160a01b038d165afa9182156117b457610e04935f93611823575b50611eef565b60405163d3fef14360e01b81529092906020816004816001600160a01b038c165afa9081156117b4575f916117f4575b506117e657505050610e44610854565b955b7f000000000000000000000000000000000000000000000000000000000000000097610e83610e7d610e778b612014565b9a61208d565b9a611c37565b60405163975057e760e01b81529096906020816004816001600160a01b0386165afa9182156117b457610ee8926020925f916117b9575b50604051630cf9530d60e41b81526001600160a01b0390921660048301529092839190829081906024820190565b03916001600160a01b03165afa80156117b457610f0c915f91611785575b50611c37565b91610f1f610f19836120fa565b926121c2565b92610f298661225a565b51151580611773575b1561176557610f408661238a565b945b610f4b8761225a565b511561173457610f7d610f5d886122f2565b975b610f688161225a565b511561170e57610f779061225a565b98611c37565b986040519d8e9d60208f01610fdc90603e907f3c7376672076696577426f783d2230203020353030203530302220786d6c6e7381527f3d22687474703a2f2f7777772e77332e6f72672f323030302f737667223e000060208201520190565b7f3c7374796c653e40666f6e742d666163657b666f6e742d66616d696c793a224381527f617073756c65732d353030223b7372633a75726c28646174613a666f6e742f7460208201527f727565747970653b636861727365743d7574662d383b6261736536342c0000006040820152605d0161105791610531565b61106090610885565b7f40666f6e742d666163657b666f6e742d66616d696c793a2243617073756c657381527f2d373030223b7372633a75726c28646174613a666f6e742f74727565747970656020820152750ed8da185c9cd95d0f5d5d198b4e0ed8985cd94d8d0b60521b60408201526056016110d491610531565b6110dd90610885565b7f746578747b77686974652d73706163653a7072652d777261703b20776964746881526f1d189818129d903e9e17b9ba3cb6329f60811b60208201526030017f3c726563742077696474683d223130302522206865696768743d223130302522815270103334b6361e9111989c189a191a11179f60791b60208201526031017f3c7465787420783d2231302220793d22333022207374796c653d22666f6e742d81525f805160206128a383398151915260208201525f8051602061282383398151915260408201526c03119b3189d911f23a0a6a29d1609d1b6060820152606d016111c791610531565b670103e102827aa1d160c51b81526008016111e191610531565b690103e1021a0a922299d160b51b8152600a016111fd91610531565b611206906108a7565b7f3c7465787420783d2231302220793d22353022207374796c653d22666f6e742d81525f805160206128a383398151915260208201527f2d3530303b20666f6e742d7765696768743a3530303b2066696c6c3a2023656460408201526618189bb19d911f60c91b606082015260670161127e91610531565b611287906108a7565b7f3c7465787420783d2231302220793d22383522207374796c653d22666f6e742d81527f73697a653a323670783b20666f6e742d66616d696c793a2043617073756c657360208201525f805160206128238339815191526040820152663119b3189d911f60c91b60608201526067016112ff91610531565b611308906108a7565b7f3c7465787420783d2231302220793d2231323022207374796c653d22666f6e7481527f2d73697a653a323670783b20666f6e742d66616d696c793a2043617073756c6560208201525f80516020612843833981519152604082015267183119b3189d911f60c11b606082015260680161138191610531565b61138a906108a7565b7f3c7465787420783d2231302220793d2232303522207374796c653d22666f6e7481525f8051602061286383398151915260208201525f8051602061288383398151915260408201526732b0991c191d911f60c11b60608201526068016113f091610531565b6113f9906108a7565b7f3c7465787420783d2231302220793d2232393522207374796c653d22666f6e7481525f8051602061286383398151915260208201525f8051602061288383398151915260408201526732b0991c191d911f60c11b606082015260680161145f91610531565b611468906108a7565b7f3c7465787420783d2231302220793d2233383522207374796c653d22666f6e7481525f8051602061286383398151915260208201525f8051602061288383398151915260408201526732b0991c191d911f60c11b60608201526068016114ce91610531565b6114d7906108a7565b7f3c7465787420783d2231302220793d2234333022207374796c653d22666f6e7481525f8051602061280383398151915260208201525f805160206128438339815191526040820152710183119b3189d911f2a27a5a2a71024a21d160751b606082015260720161154791610531565b611550906108a7565b7f3c7465787420783d2231302220793d2234353522207374796c653d22666f6e7481525f8051602061280383398151915260208201525f8051602061284383398151915260408201526f0183119b3189d911f2920a924aa2c9d160851b60608201526070016115be91610531565b6115c7906108a7565b7f3c7465787420783d2231302220793d2234383022207374796c653d22666f6e7481525f8051602061280383398151915260208201525f805160206128438339815191526040820152720183119b3189d911f2120a1a5a2a210212c9d1606d1b606082015260730161163891610531565b611641906108a7565b651e17b9bb339f60d11b815260060103601f1981018252611662908261017c565b61166b9061247d565b611674826104fd565b5261167e816104fd565b506116876108ba565b6116908261050d565b5261169a8161050d565b506116a4816104db565b51906116af816104ed565b516116b9826104fd565b51916116c49061050d565b51604051928392602084016116d891610531565b6116e191610531565b6116ea91610531565b03601f19810182526116fc908261017c565b6117059061247d565b610245916108d8565b611717816122f2565b511561172657610f77906122f2565b61172f9061238a565b610f77565b61173d876122f2565b511561175557610f7d61174f8861238a565b97610f5f565b610f7d61176061047c565b61174f565b61176d61047c565b94610f42565b5061177d866122f2565b511515610f32565b6117a7915060203d6020116117ad575b61179f818361017c565b81019061019f565b5f610f06565b503d611795565b6101ae565b6117d99150833d85116117df575b6117d1818361017c565b8101906102c5565b5f610eba565b503d6117c7565b6117ef92611dba565b610e44565b611816915060203d60201161181c575b61180e818361017c565b810190610840565b5f610e34565b503d611804565b61183d91935060203d6020116117ad5761179f818361017c565b915f610dfe565b61185e91925060203d6020116117ad5761179f818361017c565b905f610dcb565b6020015161187d9391506001600160681b0316611dba565b95610e46565b60049150611890816105c6565b145f610d8f565b610b7a6118a26107ef565b610d68565b6118ca8160016118b9610aeb94611c37565b91036118d057610b7a610d686107c1565b98610d7a565b610b7a6118a2610792565b6118f4915060203d6020116117ad5761179f818361017c565b5f610d33565b611903896105c6565b6005890361191b5750611914610717565b985b610cde565b611924896105c6565b8861193257506119146106e7565b61193b896105c6565b6001890361194c57506119146106ae565b611955896105c6565b600289036119665750611914610668565b61196f896105c6565b600389036119805750611914610630565b9861198a896105c6565b600489036119165798506119146105e4565b6119b691925060203d6020116117ad5761179f818361017c565b905f610cb0565b9150506119e09150823d84116119e8575b6119d8818361017c565b810190610560565b90915f610c7d565b503d6119ce565b611a08915060203d6020116117df576117d1818361017c565b5f610c37565b611a3191955060203d602011611a38575b611a29818361017c565b810190610548565b935f610c03565b503d611a1f565b611a5991955060203d6020116117df576117d1818361017c565b935f610bca565b604051636c0360eb60e01b8152985096505f95508794506004935084926001600160a01b03169150505afa9081156117b457610245925f92611aa5575b505190611b65565b611ac29192503d805f833e611aba818361017c565b810190610248565b905f611a9d565b611add91503d805f833e611aba818361017c565b5f610a4e565b611b009194503d805f833e611af8818361017c565b810190610344565b925f6109f9565b611b2191945060203d6020116117df576117d1818361017c565b925f6109b2565b611b3d9193503d805f833e611aba818361017c565b915f610978565b611b5e91925060203d6020116117ad5761179f818361017c565b905f610948565b9061024590611b93604051602092609160f51b84830152602282015260228152611b8e81610161565b6125b5565b926040519381611bac86935180928680870191016100cc565b8201611bc0825180938680850191016100cc565b0103808452018261017c565b604051611bd881610146565b5f8152905f368137565b90611bec826101d9565b611bf9604051918261017c565b8281528092611c0a601f19916101d9565b0190602036910137565b634e487b7160e01b5f52601260045260245ffd5b8115611c32570490565b611c14565b5f908072184f03e93ff9f4daa797ed6e38ed64bf6a1f0160401b80821015611d65575b506904ee2d6d415b85acef8160201b80831015611d56575b50662386f26fc1000080831015611d47575b506305f5e10080831015611d38575b5061271080831015611d29575b506064821015611d19575b600a80921015611d0f575b600190816021611cc860018701611be2565b95860101905b611cda575b5050505090565b5f19019083906f181899199a1a9b1b9c1cb0b131b232b360811b8282061a835304918215611d0a57919082611cce565b611cd3565b9160010191611cb6565b9190606460029104910191611cab565b6004919392049101915f611ca0565b6008919392049101915f611c93565b6010919392049101915f611c84565b6020919392049101915f611c72565b60409350810491505f611c5a565b604d81116105a657600a0a90565b8115611c32570690565b600281901b91906001600160fe1b038116036105a657565b906103e8918281029281840414901517156105a657565b6001600160a01b039091169291611dfc90610a9990611dd890611d73565b611df7611df282611dec610a998289611c28565b96611d81565b611da3565b611c28565b600381511015611e2c57604051600360fc1b602082015290611e27908290610b7a9060218301610aeb565b611dfc565b90919261eeee81145f14611e71575060405161674f60f11b602082015291610245918391610b7a9190610aeb90611e64906022860183565b601760f91b815260010190565b915f600493604051948580926395d89b4160e01b82525afa9283156117b457611e649361024593610b7a925f92611ecb575b50611ebe610aeb91610aeb6040519889976020890190610531565b600160fd1b815260010190565b610aeb919250611ee7611ebe913d805f833e611aba818361017c565b929150611ea3565b90915f198383099280830292838086109503948086039514611f8e5782851015611f65579082910960018219018216809204600280826003021880830282030280830282030280830282030280830282030280830282030280920290030293600183805f03040190848311900302920304170290565b604051630c740aef60e31b81526004810191909152602481019190915260448101829052606490fd5b5050906102459250611c28565b60405190611fa882610126565b60068252651b9bdc9b585b60d21b6020830152565b602081830312610073578051906001600160401b03821161007357019080601f83011215610073578151610245926020016101f4565b606060206102459381845280518285015201519160408082015201906100ed565b5f612053916040519061202682610126565b6101f48252612033611f9b565b6020830152604051808095819463bf6519ad60e01b835260048301611ff3565b03916001600160a01b03165afa9081156117b4575f91612071575090565b61024591503d805f833e612085818361017c565b810190611fbd565b5f612053916040519061209f82610126565b6102bc8252612033611f9b565b8051601e10156104e857603e0190565b8051601410156104e85760340190565b8051600a10156104e857602a0190565b9081518110156104e8570160200190565b919082039182116105a657565b90601e8251156121b757825180601e116121af575b50600160fd1b6001600160f81b031961213861212a866104db565b516001600160f81b03191690565b16036121a8576001905b8082101561219c5761215c61215783836120ed565b611be2565b91805b82811061216e57509193505050565b8061217e61212a600193896120dc565b61219561218b85846120ed565b915f1a91876120dc565b530161215f565b5050905061024561047c565b5f90612142565b90505f61210f565b50905061024561047c565b90603c8251601e10156121b757825180603c11612252575b50600160fd1b6001600160f81b03196121f561212a866120ac565b160361224a57601f905b8082101561219c5761221461215783836120ed565b91805b82811061222657509193505050565b8061223661212a600193896120dc565b61224361218b85846120ed565b5301612217565b601e906121ff565b90505f6121da565b90601e8251601410156121b757825180601e116122ea575b50600160fd1b6001600160f81b031961228d61212a866120bc565b16036122e2576015905b8082101561219c576122ac61215783836120ed565b91805b8281106122be57509193505050565b806122ce61212a600193896120dc565b6122db61218b85846120ed565b53016122af565b601490612297565b90505f612272565b9060148251600a10156121b757825180601411612382575b50600160fd1b6001600160f81b031961232561212a866120cc565b160361237a57600b905b8082101561219c5761234461215783836120ed565b91805b82811061235657509193505050565b8061236661212a600193896120dc565b61237361218b85846120ed565b5301612347565b600a9061232f565b90505f61230a565b90600a8251156121b757825180600a11612416575b50600160fd1b6001600160f81b03196123ba61212a866104db565b160361240f576001905b8082101561219c576123d961215783836120ed565b91805b8281106123eb57509193505050565b806123fb61212a600193896120dc565b61240861218b85846120ed565b53016123dc565b5f906123c4565b90505f61239f565b6040519061242b82610161565b604082527f6768696a6b6c6d6e6f707172737475767778797a303132333435363738392b2f6040837f4142434445464748494a4b4c4d4e4f505152535455565758595a61626364656660208201520152565b8051156125575761248c61241e565b6124a86124a361249c8451610598565b6003900490565b611d8b565b916124b5612157846105ab565b92835280815182019060208501935b828210612505575050506003905106806001146124f4576002146124e6575090565b603d60f81b5f199091015290565b50613d3d60f01b6001199091015290565b9091936004906003809401938451600190603f9082828260121c16880101518553828282600c1c16880101518386015382828260061c16880101516002860153168501015190820153019391906124c4565b5061024561047c565b604051906105e082016001600160401b0381118382101761014157604052602e82526105c0366020840137565b906125978261026d565b6125a4604051918261017c565b8281528092611c0a601f199161026d565b908151156126c1576125c5612560565b915f6125d0846104db565b5260019080515f915b8183106125fe575050506125f46125f99161024593946126cb565b61270d565b612752565b90919361262061261a61261461212a88866120dc565b60f81c90565b60ff1690565b905f915b60ff9088828816851015612684576001929161265961265361261a61264c8961265f9661051d565b5160ff1690565b60081b90565b906105b9565b61267b603a9283830616612673878d61051d565b9060ff169052565b04920191612624565b509196925050805b61269b575060010191906125d9565b9360ff6001603a926126b783858a06166126738584168d61051d565b011694048061268c565b9050610245611bcc565b9060ff809116906126db8261258d565b925f5b8381106126ec575050505090565b80836126fa6001938561051d565b5116612706828861051d565b52016126de565b9081516127198161258d565b905f5b81811061272a575090925050565b60019060ff61273f5f1983895103018861051d565b511661274b828661051d565b520161271c565b90815161275e81611be2565b905f5b81811061276f575090925050565b6001906040792d30b131b232b333b434b535b6b737b838b939ba3abb3bbc3cbd60311b81519161279e83610161565b603a83527f31323334353637383941424344454647484a4b4c4d4e5051525354555657585960208401528201526001600160f81b0319906127ed9060ff6127e5858b61051d565b5116906120dc565b51165f1a6127fb82866120dc565b530161276156fe2d73697a653a313670783b20666f6e742d66616d696c793a2043617073756c652d3530303b20666f6e742d7765696768743a3530303b2066696c6c3a20236330732d3530303b20666f6e742d7765696768743a3530303b2066696c6c3a2023632d73697a653a383070783b20666f6e742d66616d696c793a2043617073756c65732d3730303b20666f6e742d7765696768743a3730303b2066696c6c3a20236673697a653a313670783b20666f6e742d66616d696c793a2043617073756c6573a26469706673582212203b3e3ec1d321b721b949d4a4a56216da95d6c93d1f6cfde894f189960aae1e5564736f6c63430008170033",
			"deployedBytecode": "0x60806040526004361015610011575f80fd5b5f3560e01c80634d5a1d111461007757635e703e711461002f575f80fd5b346100735760403660031901126100735761006f61005b600435610052816100bb565b60243590610919565b6040519182916020835260208301906100ed565b0390f35b5f80fd5b34610073575f366003190112610073577f000000000000000000000000a77b7d93e79f1e6b4f77fab29d9ef85733a3d44a6001600160a01b03166080908152602090f35b6001600160a01b0381160361007357565b5f5b8381106100dd5750505f910152565b81810151838201526020016100ce565b90602091610106815180928185528580860191016100cc565b601f01601f1916010190565b634e487b7160e01b5f52604160045260245ffd5b604081019081106001600160401b0382111761014157604052565b610112565b602081019081106001600160401b0382111761014157604052565b606081019081106001600160401b0382111761014157604052565b601f909101601f19168101906001600160401b0382119082101761014157604052565b90816020910312610073575190565b6040513d5f823e3d90fd5b604051906101e082016001600160401b0381118382101761014157604052565b6001600160401b03811161014157601f01601f191660200190565b90929192610201816101d9565b9161020f604051938461017c565b8294828452828201116100735760206102299301906100cc565b565b9080601f83011215610073578151610245926020016101f4565b90565b906020828203126100735781516001600160401b03811161007357610245920161022b565b6001600160401b0381116101415760051b60200190565b6040519060a082016001600160401b038111838210176101415760405260048252815f5b608081106102b4575050565b8060606020809385010152016102a8565b908160209103126100735751610245816100bb565b519063ffffffff8216820361007357565b51906001600160681b038216820361007357565b519061ffff8216820361007357565b5190610229826100bb565b519062ffffff8216820361007357565b519060ff8216820361007357565b5190811515820361007357565b6020818303126100735780516001600160401b039182821161007357016101e081840312610073576103746101b9565b9261037e826102da565b845261038c602083016102eb565b602085015261039d604083016102da565b60408501526103ae606083016102da565b60608501526103bf608083016102eb565b60808501526103d060a083016102ff565b60a08501526103e160c0830161030e565b60c085015260e082015160e08501526101006103fe818401610319565b90850152610120610410818401610329565b90850152610140610422818401610337565b90850152610160610434818401610337565b90850152610180610446818401610337565b908501526101a0610458818401610337565b908501526101c0928383015190811161007357610475920161022b565b9082015290565b6040519061048982610146565b5f8252565b6040519061049b82610126565b601d82527f646174613a6170706c69636174696f6e2f6a736f6e3b6261736536342c0000006020830152565b634e487b7160e01b5f52603260045260245ffd5b8051156104e85760200190565b6104c7565b8051600110156104e85760400190565b8051600210156104e85760600190565b8051600310156104e85760800190565b80518210156104e85760209160051b010190565b90610544602092828151948592016100cc565b0190565b90816020910312610073575160078110156100735790565b90816060910312610073578051916040602083015161057e816100bb565b92015190565b634e487b7160e01b5f52601160045260245ffd5b90600282018092116105a657565b610584565b90602082018092116105a657565b919082018092116105a657565b600711156105d057565b634e487b7160e01b5f52602160045260245ffd5b604051906105f182610161565b602a82526934b6903932bbb0b9321760b11b6040837f53636f726563617264206c6f636b656420696e2e204275726e20746f20636c6160208201520152565b6040519061063d82610126565b601c82527b20bbb0b4ba34b7339039b1b7b932b1b0b9321030b8383937bb30b61760211b6020830152565b6040519061067582610161565b602482526334b7339760e11b6040837f4d696e74696e67206973206f7665722e20526566756e64732061726520656e6460208201520152565b604051906106bb82610126565b601d82527f4d696e74696e6720616e6420726566756e647320617265206f70656e2e0000006020830152565b604051906106f482610126565b601482527326b4b73a34b7339039ba30b93a399039b7b7b71760611b6020830152565b6040519061072482610161565b60248252633832b71760e11b6040837f4e6f20636f6e7465737420696e6576697461626c652e20526566756e6473206f60208201520152565b6040519061076a82610126565b601982527827379031b7b73a32b9ba17102932b33ab732399037b832b71760391b6020830152565b6040519061079f82610126565b601382527220636172647320696e206578697374656e636560681b6020830152565b604051906107ce82610126565b6012825271206361726420696e206578697374656e636560701b6020830152565b604051906107fc82610126565b600d82526c1031b0b932399039b7903330b960991b6020830152565b6040519061082582610126565b600c82526b1031b0b9321039b7903330b960a11b6020830152565b908160209103126100735761024590610337565b6040519061086182610126565b601582527420bbb0b4ba34b7339039b1b7b932b1b0b93217171760591b6020830152565b75293b666f726d617428226f70656e7479706522293b7d60501b815260160190565b661e17ba32bc3a1f60c91b815260070190565b604051906108c782610126565b6002825261227d60f01b6020830152565b60206102299193929360405194816108f987935180928680870191016100cc565b820161090d825180938680850191016100cc565b0103808552018361017c565b6040516356539f3960e01b815290916020826004816001600160a01b0387165afa9182156117b4575f92611b44575b506040516306fdde0360e01b81529060605f836004816001600160a01b0389165afa9283156117b4575f93611b28575b50610981610284565b60405163975057e760e01b8152909590926020846004816001600160a01b0386165afa9384156117b4575f94611b07575b5060405163c44a8e6d60e01b81526001600160a01b038381166004830152602482018390525f60448301819052919586916064918391165afa9384156117b4575f94611ae3575b50610a325f610a0c865163ffffffff1690565b604051630dd55e1f60e11b815263ffffffff909116600482015291829081906024820190565b03816001600160a01b0387165afa9081156117b4575f91611ac9575b5060e085018051611a605750610a6261048e565b610a6b896104db565b52610a75886104db565b50610b07610b88610a9e610a99610a90895163ffffffff1690565b63ffffffff1690565b611c37565b610b7a610b42610ab8610a99610a908c5163ffffffff1690565b610aeb610b30610b2a604051988997610aeb610af18d610aeb60208d01600990683d913730b6b2911d1160b91b81520190565b90610531565b691116101134b2111d101160b11b8152600a0190565b7601116113232b9b1b934b83a34b7b7111d112a32b0b69d1604d1b815260170190565b89610531565b650161024a21d160d51b815260060190565b7f2e222c22696d616765223a22646174613a696d6167652f7376672b786d6c3b62815265185cd94d8d0b60d21b602082015260260190565b03601f19810183528261017c565b610b91896104ed565b52610b9b886104ed565b5060405163282d924360e21b8152936020856004816001600160a01b0388165afa9485156117b4575f95611a3f575b5060405163038ab08560e11b81526004810189905294602090869060249082906001600160a01b03165afa9485156117b4575f95611a0e575b50604051631c91760360e21b81526020816004816001600160a01b0389165afa80156117b457898391610c60935f916119ef575b506040518080958194635a6fd84360e11b83526004830160205f91939293604081019481520152565b03916001600160a01b03165afa80156117b4575f80925f926119bd575b506040516327f6e97960e01b8152906020826004816001600160a01b038c165afa9081156117b457610cb6925f9261199c575b506105b9565b610cc1828483611dba565b93610ccb896105c6565b600689036118fa5750610cdc61075d565b985b610d176020610cf1835163ffffffff1690565b6040516342c9297160e11b815263ffffffff909116600482015291829081906024820190565b03816001600160a01b038d165afa9081156117b4575f916118db575b50610d3d8a6105c6565b60018a036118a757610d78816001610d57610aeb94611c37565b910361189757610b7a610d68610818565b6040519485936020850190610531565b985b610d83816105c6565b60038114908115611883575b501561186557506040516329eabfe760e01b815260048101879052906020826024816001600160a01b038c165afa9182156117b4575f92611844575b5060405163873e7e4b60e01b8152916020836004816001600160a01b038d165afa9182156117b457610e04935f93611823575b50611eef565b60405163d3fef14360e01b81529092906020816004816001600160a01b038c165afa9081156117b4575f916117f4575b506117e657505050610e44610854565b955b7f000000000000000000000000a77b7d93e79f1e6b4f77fab29d9ef85733a3d44a97610e83610e7d610e778b612014565b9a61208d565b9a611c37565b60405163975057e760e01b81529096906020816004816001600160a01b0386165afa9182156117b457610ee8926020925f916117b9575b50604051630cf9530d60e41b81526001600160a01b0390921660048301529092839190829081906024820190565b03916001600160a01b03165afa80156117b457610f0c915f91611785575b50611c37565b91610f1f610f19836120fa565b926121c2565b92610f298661225a565b51151580611773575b1561176557610f408661238a565b945b610f4b8761225a565b511561173457610f7d610f5d886122f2565b975b610f688161225a565b511561170e57610f779061225a565b98611c37565b986040519d8e9d60208f01610fdc90603e907f3c7376672076696577426f783d2230203020353030203530302220786d6c6e7381527f3d22687474703a2f2f7777772e77332e6f72672f323030302f737667223e000060208201520190565b7f3c7374796c653e40666f6e742d666163657b666f6e742d66616d696c793a224381527f617073756c65732d353030223b7372633a75726c28646174613a666f6e742f7460208201527f727565747970653b636861727365743d7574662d383b6261736536342c0000006040820152605d0161105791610531565b61106090610885565b7f40666f6e742d666163657b666f6e742d66616d696c793a2243617073756c657381527f2d373030223b7372633a75726c28646174613a666f6e742f74727565747970656020820152750ed8da185c9cd95d0f5d5d198b4e0ed8985cd94d8d0b60521b60408201526056016110d491610531565b6110dd90610885565b7f746578747b77686974652d73706163653a7072652d777261703b20776964746881526f1d189818129d903e9e17b9ba3cb6329f60811b60208201526030017f3c726563742077696474683d223130302522206865696768743d223130302522815270103334b6361e9111989c189a191a11179f60791b60208201526031017f3c7465787420783d2231302220793d22333022207374796c653d22666f6e742d81525f805160206128a383398151915260208201525f8051602061282383398151915260408201526c03119b3189d911f23a0a6a29d1609d1b6060820152606d016111c791610531565b670103e102827aa1d160c51b81526008016111e191610531565b690103e1021a0a922299d160b51b8152600a016111fd91610531565b611206906108a7565b7f3c7465787420783d2231302220793d22353022207374796c653d22666f6e742d81525f805160206128a383398151915260208201527f2d3530303b20666f6e742d7765696768743a3530303b2066696c6c3a2023656460408201526618189bb19d911f60c91b606082015260670161127e91610531565b611287906108a7565b7f3c7465787420783d2231302220793d22383522207374796c653d22666f6e742d81527f73697a653a323670783b20666f6e742d66616d696c793a2043617073756c657360208201525f805160206128238339815191526040820152663119b3189d911f60c91b60608201526067016112ff91610531565b611308906108a7565b7f3c7465787420783d2231302220793d2231323022207374796c653d22666f6e7481527f2d73697a653a323670783b20666f6e742d66616d696c793a2043617073756c6560208201525f80516020612843833981519152604082015267183119b3189d911f60c11b606082015260680161138191610531565b61138a906108a7565b7f3c7465787420783d2231302220793d2232303522207374796c653d22666f6e7481525f8051602061286383398151915260208201525f8051602061288383398151915260408201526732b0991c191d911f60c11b60608201526068016113f091610531565b6113f9906108a7565b7f3c7465787420783d2231302220793d2232393522207374796c653d22666f6e7481525f8051602061286383398151915260208201525f8051602061288383398151915260408201526732b0991c191d911f60c11b606082015260680161145f91610531565b611468906108a7565b7f3c7465787420783d2231302220793d2233383522207374796c653d22666f6e7481525f8051602061286383398151915260208201525f8051602061288383398151915260408201526732b0991c191d911f60c11b60608201526068016114ce91610531565b6114d7906108a7565b7f3c7465787420783d2231302220793d2234333022207374796c653d22666f6e7481525f8051602061280383398151915260208201525f805160206128438339815191526040820152710183119b3189d911f2a27a5a2a71024a21d160751b606082015260720161154791610531565b611550906108a7565b7f3c7465787420783d2231302220793d2234353522207374796c653d22666f6e7481525f8051602061280383398151915260208201525f8051602061284383398151915260408201526f0183119b3189d911f2920a924aa2c9d160851b60608201526070016115be91610531565b6115c7906108a7565b7f3c7465787420783d2231302220793d2234383022207374796c653d22666f6e7481525f8051602061280383398151915260208201525f805160206128438339815191526040820152720183119b3189d911f2120a1a5a2a210212c9d1606d1b606082015260730161163891610531565b611641906108a7565b651e17b9bb339f60d11b815260060103601f1981018252611662908261017c565b61166b9061247d565b611674826104fd565b5261167e816104fd565b506116876108ba565b6116908261050d565b5261169a8161050d565b506116a4816104db565b51906116af816104ed565b516116b9826104fd565b51916116c49061050d565b51604051928392602084016116d891610531565b6116e191610531565b6116ea91610531565b03601f19810182526116fc908261017c565b6117059061247d565b610245916108d8565b611717816122f2565b511561172657610f77906122f2565b61172f9061238a565b610f77565b61173d876122f2565b511561175557610f7d61174f8861238a565b97610f5f565b610f7d61176061047c565b61174f565b61176d61047c565b94610f42565b5061177d866122f2565b511515610f32565b6117a7915060203d6020116117ad575b61179f818361017c565b81019061019f565b5f610f06565b503d611795565b6101ae565b6117d99150833d85116117df575b6117d1818361017c565b8101906102c5565b5f610eba565b503d6117c7565b6117ef92611dba565b610e44565b611816915060203d60201161181c575b61180e818361017c565b810190610840565b5f610e34565b503d611804565b61183d91935060203d6020116117ad5761179f818361017c565b915f610dfe565b61185e91925060203d6020116117ad5761179f818361017c565b905f610dcb565b6020015161187d9391506001600160681b0316611dba565b95610e46565b60049150611890816105c6565b145f610d8f565b610b7a6118a26107ef565b610d68565b6118ca8160016118b9610aeb94611c37565b91036118d057610b7a610d686107c1565b98610d7a565b610b7a6118a2610792565b6118f4915060203d6020116117ad5761179f818361017c565b5f610d33565b611903896105c6565b6005890361191b5750611914610717565b985b610cde565b611924896105c6565b8861193257506119146106e7565b61193b896105c6565b6001890361194c57506119146106ae565b611955896105c6565b600289036119665750611914610668565b61196f896105c6565b600389036119805750611914610630565b9861198a896105c6565b600489036119165798506119146105e4565b6119b691925060203d6020116117ad5761179f818361017c565b905f610cb0565b9150506119e09150823d84116119e8575b6119d8818361017c565b810190610560565b90915f610c7d565b503d6119ce565b611a08915060203d6020116117df576117d1818361017c565b5f610c37565b611a3191955060203d602011611a38575b611a29818361017c565b810190610548565b935f610c03565b503d611a1f565b611a5991955060203d6020116117df576117d1818361017c565b935f610bca565b604051636c0360eb60e01b8152985096505f95508794506004935084926001600160a01b03169150505afa9081156117b457610245925f92611aa5575b505190611b65565b611ac29192503d805f833e611aba818361017c565b810190610248565b905f611a9d565b611add91503d805f833e611aba818361017c565b5f610a4e565b611b009194503d805f833e611af8818361017c565b810190610344565b925f6109f9565b611b2191945060203d6020116117df576117d1818361017c565b925f6109b2565b611b3d9193503d805f833e611aba818361017c565b915f610978565b611b5e91925060203d6020116117ad5761179f818361017c565b905f610948565b9061024590611b93604051602092609160f51b84830152602282015260228152611b8e81610161565b6125b5565b926040519381611bac86935180928680870191016100cc565b8201611bc0825180938680850191016100cc565b0103808452018261017c565b604051611bd881610146565b5f8152905f368137565b90611bec826101d9565b611bf9604051918261017c565b8281528092611c0a601f19916101d9565b0190602036910137565b634e487b7160e01b5f52601260045260245ffd5b8115611c32570490565b611c14565b5f908072184f03e93ff9f4daa797ed6e38ed64bf6a1f0160401b80821015611d65575b506904ee2d6d415b85acef8160201b80831015611d56575b50662386f26fc1000080831015611d47575b506305f5e10080831015611d38575b5061271080831015611d29575b506064821015611d19575b600a80921015611d0f575b600190816021611cc860018701611be2565b95860101905b611cda575b5050505090565b5f19019083906f181899199a1a9b1b9c1cb0b131b232b360811b8282061a835304918215611d0a57919082611cce565b611cd3565b9160010191611cb6565b9190606460029104910191611cab565b6004919392049101915f611ca0565b6008919392049101915f611c93565b6010919392049101915f611c84565b6020919392049101915f611c72565b60409350810491505f611c5a565b604d81116105a657600a0a90565b8115611c32570690565b600281901b91906001600160fe1b038116036105a657565b906103e8918281029281840414901517156105a657565b6001600160a01b039091169291611dfc90610a9990611dd890611d73565b611df7611df282611dec610a998289611c28565b96611d81565b611da3565b611c28565b600381511015611e2c57604051600360fc1b602082015290611e27908290610b7a9060218301610aeb565b611dfc565b90919261eeee81145f14611e71575060405161674f60f11b602082015291610245918391610b7a9190610aeb90611e64906022860183565b601760f91b815260010190565b915f600493604051948580926395d89b4160e01b82525afa9283156117b457611e649361024593610b7a925f92611ecb575b50611ebe610aeb91610aeb6040519889976020890190610531565b600160fd1b815260010190565b610aeb919250611ee7611ebe913d805f833e611aba818361017c565b929150611ea3565b90915f198383099280830292838086109503948086039514611f8e5782851015611f65579082910960018219018216809204600280826003021880830282030280830282030280830282030280830282030280830282030280920290030293600183805f03040190848311900302920304170290565b604051630c740aef60e31b81526004810191909152602481019190915260448101829052606490fd5b5050906102459250611c28565b60405190611fa882610126565b60068252651b9bdc9b585b60d21b6020830152565b602081830312610073578051906001600160401b03821161007357019080601f83011215610073578151610245926020016101f4565b606060206102459381845280518285015201519160408082015201906100ed565b5f612053916040519061202682610126565b6101f48252612033611f9b565b6020830152604051808095819463bf6519ad60e01b835260048301611ff3565b03916001600160a01b03165afa9081156117b4575f91612071575090565b61024591503d805f833e612085818361017c565b810190611fbd565b5f612053916040519061209f82610126565b6102bc8252612033611f9b565b8051601e10156104e857603e0190565b8051601410156104e85760340190565b8051600a10156104e857602a0190565b9081518110156104e8570160200190565b919082039182116105a657565b90601e8251156121b757825180601e116121af575b50600160fd1b6001600160f81b031961213861212a866104db565b516001600160f81b03191690565b16036121a8576001905b8082101561219c5761215c61215783836120ed565b611be2565b91805b82811061216e57509193505050565b8061217e61212a600193896120dc565b61219561218b85846120ed565b915f1a91876120dc565b530161215f565b5050905061024561047c565b5f90612142565b90505f61210f565b50905061024561047c565b90603c8251601e10156121b757825180603c11612252575b50600160fd1b6001600160f81b03196121f561212a866120ac565b160361224a57601f905b8082101561219c5761221461215783836120ed565b91805b82811061222657509193505050565b8061223661212a600193896120dc565b61224361218b85846120ed565b5301612217565b601e906121ff565b90505f6121da565b90601e8251601410156121b757825180601e116122ea575b50600160fd1b6001600160f81b031961228d61212a866120bc565b16036122e2576015905b8082101561219c576122ac61215783836120ed565b91805b8281106122be57509193505050565b806122ce61212a600193896120dc565b6122db61218b85846120ed565b53016122af565b601490612297565b90505f612272565b9060148251600a10156121b757825180601411612382575b50600160fd1b6001600160f81b031961232561212a866120cc565b160361237a57600b905b8082101561219c5761234461215783836120ed565b91805b82811061235657509193505050565b8061236661212a600193896120dc565b61237361218b85846120ed565b5301612347565b600a9061232f565b90505f61230a565b90600a8251156121b757825180600a11612416575b50600160fd1b6001600160f81b03196123ba61212a866104db565b160361240f576001905b8082101561219c576123d961215783836120ed565b91805b8281106123eb57509193505050565b806123fb61212a600193896120dc565b61240861218b85846120ed565b53016123dc565b5f906123c4565b90505f61239f565b6040519061242b82610161565b604082527f6768696a6b6c6d6e6f707172737475767778797a303132333435363738392b2f6040837f4142434445464748494a4b4c4d4e4f505152535455565758595a61626364656660208201520152565b8051156125575761248c61241e565b6124a86124a361249c8451610598565b6003900490565b611d8b565b916124b5612157846105ab565b92835280815182019060208501935b828210612505575050506003905106806001146124f4576002146124e6575090565b603d60f81b5f199091015290565b50613d3d60f01b6001199091015290565b9091936004906003809401938451600190603f9082828260121c16880101518553828282600c1c16880101518386015382828260061c16880101516002860153168501015190820153019391906124c4565b5061024561047c565b604051906105e082016001600160401b0381118382101761014157604052602e82526105c0366020840137565b906125978261026d565b6125a4604051918261017c565b8281528092611c0a601f199161026d565b908151156126c1576125c5612560565b915f6125d0846104db565b5260019080515f915b8183106125fe575050506125f46125f99161024593946126cb565b61270d565b612752565b90919361262061261a61261461212a88866120dc565b60f81c90565b60ff1690565b905f915b60ff9088828816851015612684576001929161265961265361261a61264c8961265f9661051d565b5160ff1690565b60081b90565b906105b9565b61267b603a9283830616612673878d61051d565b9060ff169052565b04920191612624565b509196925050805b61269b575060010191906125d9565b9360ff6001603a926126b783858a06166126738584168d61051d565b011694048061268c565b9050610245611bcc565b9060ff809116906126db8261258d565b925f5b8381106126ec575050505090565b80836126fa6001938561051d565b5116612706828861051d565b52016126de565b9081516127198161258d565b905f5b81811061272a575090925050565b60019060ff61273f5f1983895103018861051d565b511661274b828661051d565b520161271c565b90815161275e81611be2565b905f5b81811061276f575090925050565b6001906040792d30b131b232b333b434b535b6b737b838b939ba3abb3bbc3cbd60311b81519161279e83610161565b603a83527f31323334353637383941424344454647484a4b4c4d4e5051525354555657585960208401528201526001600160f81b0319906127ed9060ff6127e5858b61051d565b5116906120dc565b51165f1a6127fb82866120dc565b530161276156fe2d73697a653a313670783b20666f6e742d66616d696c793a2043617073756c652d3530303b20666f6e742d7765696768743a3530303b2066696c6c3a20236330732d3530303b20666f6e742d7765696768743a3530303b2066696c6c3a2023632d73697a653a383070783b20666f6e742d66616d696c793a2043617073756c65732d3730303b20666f6e742d7765696768743a3730303b2066696c6c3a20236673697a653a313670783b20666f6e742d66616d696c793a2043617073756c6573a26469706673582212203b3e3ec1d321b721b949d4a4a56216da95d6c93d1f6cfde894f189960aae1e5564736f6c63430008170033",
			"metadata": "{\"compiler\":{\"version\":\"0.8.23+commit.f704f362\"},\"language\":\"Solidity\",\"output\":{\"abi\":[{\"inputs\":[{\"internalType\":\"contract ITypeface\",\"name\":\"_typeface\",\"type\":\"address\"}],\"stateMutability\":\"nonpayable\",\"type\":\"constructor\"},{\"inputs\":[{\"internalType\":\"uint256\",\"name\":\"x\",\"type\":\"uint256\"},{\"internalType\":\"uint256\",\"name\":\"y\",\"type\":\"uint256\"},{\"internalType\":\"uint256\",\"name\":\"denominator\",\"type\":\"uint256\"}],\"name\":\"PRBMath_MulDiv_Overflow\",\"type\":\"error\"},{\"inputs\":[{\"internalType\":\"address\",\"name\":\"_nft\",\"type\":\"address\"},{\"internalType\":\"uint256\",\"name\":\"_tokenId\",\"type\":\"uint256\"}],\"name\":\"tokenUriOf\",\"outputs\":[{\"internalType\":\"string\",\"name\":\"\",\"type\":\"string\"}],\"stateMutability\":\"view\",\"type\":\"function\"},{\"inputs\":[],\"name\":\"typeface\",\"outputs\":[{\"internalType\":\"contract ITypeface\",\"name\":\"\",\"type\":\"address\"}],\"stateMutability\":\"view\",\"type\":\"function\"}],\"devdoc\":{\"kind\":\"dev\",\"methods\":{\"tokenUriOf(address,uint256)\":{\"details\":\"Defer to the token's tier IPFS URI if set.\",\"params\":{\"_nft\":\"The address of the nft the token URI should be oriented to.\",\"_tokenId\":\"The ID of the token to get the tier URI for.\"},\"returns\":{\"_0\":\"The token URI corresponding with the tier.\"}}},\"version\":1},\"userdoc\":{\"kind\":\"user\",\"methods\":{\"tokenUriOf(address,uint256)\":{\"notice\":\"The metadata URI of the provided token ID.\"},\"typeface()\":{\"notice\":\"The typeface of the SVGs.\"}},\"version\":1}},\"settings\":{\"compilationTarget\":{\"contracts/DefifaTokenUriResolver.sol\":\"DefifaTokenUriResolver\"},\"evmVersion\":\"shanghai\",\"libraries\":{},\"metadata\":{\"bytecodeHash\":\"ipfs\"},\"optimizer\":{\"enabled\":true,\"runs\":10},\"remappings\":[\"@arbitrum/=node_modules/@arbitrum/\",\"@bananapus/=node_modules/@bananapus/\",\"@chainlink/=node_modules/@chainlink/\",\"@eth-optimism/=node_modules/@eth-optimism/\",\"@offchainlabs/=node_modules/@offchainlabs/\",\"@openzeppelin/=node_modules/@openzeppelin/\",\"@prb/math/=node_modules/@prb/math/\",\"@scroll-tech/=node_modules/@scroll-tech/\",\"@sphinx-labs/contracts/=node_modules/@sphinx-labs/contracts/contracts/foundry/\",\"@uniswap/=node_modules/@uniswap/\",\"@zksync/=node_modules/@zksync/\",\"base64/=lib/base64/\",\"capsules/=lib/capsules/contracts/\",\"ds-test/=lib/forge-std/lib/ds-test/src/\",\"forge-std/=lib/forge-std/src/\",\"hardhat/=node_modules/hardhat/\",\"solady/=node_modules/solady/\",\"solmate/=node_modules/solmate/\",\"typeface/=lib/typeface/contracts/\"],\"viaIR\":true},\"sources\":{\"contracts/DefifaTokenUriResolver.sol\":{\"keccak256\":\"0x95151634690886003c630bf26ae6e41951d3d67b5de809390572029605cbf6a9\",\"license\":\"MIT\",\"urls\":[\"bzz-raw://71a76443bf39e5f10efb9ae7a0d5aec609c96744a404af77d6fb31baa9488b99\",\"dweb:/ipfs/QmQqTiTzbod6wH17xaLACVfZpjuDf7RDupyAKNwBBmUzAe\"]},\"contracts/enums/DefifaGamePhase.sol\":{\"keccak256\":\"0xf2486e4e253632ac3d480d7289e759e13c2b652b1293222175801dd89d78791e\",\"license\":\"MIT\",\"urls\":[\"bzz-raw://a8a6f440d7b58ca7388f122221328d4423136183fb8bdabde4869bbcdcac3d30\",\"dweb:/ipfs/Qmcqs1LXUKLw2FBq5Bs1FSaruwu8dvGRQLVegC44iFjbcj\"]},\"contracts/interfaces/IDefifaDelegate.sol\":{\"keccak256\":\"0x13473336806a368a7d2a0ec29f47c7f8f219a0a87e44968c2d1c89db23182e16\",\"license\":\"MIT\",\"urls\":[\"bzz-raw://55c2d75dfa15e2b9b74c74e50c19f9af70d4d1a2af0d4a4c8b51185ff94c68fd\",\"dweb:/ipfs/QmeNT8kVjjdzMqWDq3ZVC1bBaQLjgPp69Dip1ZQkcDRh7d\"]},\"contracts/interfaces/IDefifaGamePhaseReporter.sol\":{\"keccak256\":\"0xe3af51c58dcf373de5090be2347a3659c44901bf84881e988029f8338581080a\",\"license\":\"MIT\",\"urls\":[\"bzz-raw://81fa1a3abc418b613699e5982a44f4eaeadc2e73f8a259f4893591b68343b906\",\"dweb:/ipfs/QmdXNrAEAn312hziK8UKDz9dWRvH88p2HeWoVpod9PkyZ3\"]},\"contracts/interfaces/IDefifaGamePotReporter.sol\":{\"keccak256\":\"0x3034956baed910156222da9df0932008eef5ac6dca7c0e9a06fbf0c82f2d5ae4\",\"license\":\"MIT\",\"urls\":[\"bzz-raw://5e61e750e0cce0e93a21300a2f7ee0fa01fa1a1191c88ea147be335f1fa427a6\",\"dweb:/ipfs/QmQBXVYJkkPjfFJEMBLJcM3VfrMEGpsr5ZdLWvedryqSDq\"]},\"contracts/interfaces/IDefifaTokenUriResolver.sol\":{\"keccak256\":\"0x89a6d057338d01568fa8d72c61750ae5a689e84362be0eb68f942cb602f7d3e0\",\"license\":\"MIT\",\"urls\":[\"bzz-raw://a51d1728ccccfbb4a030e3215d5e22002106335dadc4a1745290ad50fccbd46e\",\"dweb:/ipfs/QmT87FxwwGfHz8MRhVzUjUGbQQieX65UcwSMp468mrpF54\"]},\"contracts/libraries/DefifaFontImporter.sol\":{\"keccak256\":\"0xb097ddb0138493a443e9240907b41bf7518614bacf5f1f361efb9d92c7c787dd\",\"license\":\"MIT\",\"urls\":[\"bzz-raw://b6cdf3994bd1999e5ab8c2c9c2f5d1cedeb877260ae10eb48287f89e55bd1cba\",\"dweb:/ipfs/QmVfeY7o7ezgDij7S3DJfAk6exzURh95exAoRFBbfFJSNC\"]},\"contracts/structs/DefifaDelegation.sol\":{\"keccak256\":\"0xc2dd2d049c462e0137ba84dc2b0fa8d9d0139c9d324f1440e9e943f4161b3422\",\"license\":\"MIT\",\"urls\":[\"bzz-raw://14f446455bf221717bac8498e1ee8fe386b28aa768628cb4522e718740e1ba46\",\"dweb:/ipfs/QmQziN3zjYUiZ4Cm9BLtDVbNNY7ZbL5HhvTJqpQdwy2uvx\"]},\"contracts/structs/DefifaTierCashOutWeight.sol\":{\"keccak256\":\"0x887924246fed02168924efd07cba0beaa261de1962a3065674665ef4fbd7c1f6\",\"license\":\"MIT\",\"urls\":[\"bzz-raw://5477867a360e1c898b34630330645dd5f6f3d07052b7c75c3b8a4677f97bc075\",\"dweb:/ipfs/Qmc43QdoNqUSriku1Lin31HHXXxmdV9WHyYFdCApNfn5fa\"]},\"lib/base64/base64.sol\":{\"keccak256\":\"0xa73959e6ef0b693e4423a562e612370160b934a75e618361ddd8c9c4b8ddbaaf\",\"license\":\"MIT\",\"urls\":[\"bzz-raw://17c12e16d8d66f3af15d8787920bd41ca6c1e7517a212a6b9cebd4b6d38f36fe\",\"dweb:/ipfs/QmcXMnZUXEz6LRKsm3CSvqdPboAzmezavi8bTg2dRxM2yE\"]},\"lib/typeface/contracts/interfaces/ITypeface.sol\":{\"keccak256\":\"0x6e79f0dffbd38af3941df702b99d537c7c8aa0b604b3833d80da0343e51c2c95\",\"license\":\"MIT\",\"urls\":[\"bzz-raw://07a9e3494fab50454b7caf1295440b32cfe56054292979fb0ad5107b405f2685\",\"dweb:/ipfs/QmUWD8smvCAreeutvYLak5cwsQRZ9gviMrwwiMz5yRzyqN\"]},\"node_modules/@bananapus/721-hook-v5/src/abstract/ERC721.sol\":{\"keccak256\":\"0xee3758d50043b58a173dada85fb33a0a2b4a9f8e57e11a213d0f1d021cd2ffc6\",\"license\":\"MIT\",\"urls\":[\"bzz-raw://f9b8cbac216d14a83dcc54fee0e660e8131afee94a21ec0c0af5dd7853692bb1\",\"dweb:/ipfs/QmRU67EeBHtqE7osaBd286poaTDjS7cAVMwt6UXdBBDRGP\"]},\"node_modules/@bananapus/721-hook-v5/src/interfaces/IJB721Hook.sol\":{\"keccak256\":\"0x1e7b684c86c0f44b0b680c7aba9e511c89892bc0638424722920368911a087f2\",\"license\":\"MIT\",\"urls\":[\"bzz-raw://96995e70a8f15d5600b509ad689c8f2ea6f8116cc7cce9c529b7a41c12c854dc\",\"dweb:/ipfs/QmaAARj3BDSQNsPwkFxauDpWBNgb4kYdzo19tUNdBbc6cX\"]},\"node_modules/@bananapus/721-hook-v5/src/interfaces/IJB721TiersHookStore.sol\":{\"keccak256\":\"0x01d419bf6b9dce2ab162f8aac82f0e4a6d948f53819a42ed023e8f23e358c9c2\",\"license\":\"MIT\",\"urls\":[\"bzz-raw://0e0b14b2ae2032bd256614522078cf0f831c35d1f64d1ea2050227117d08c060\",\"dweb:/ipfs/QmP1xbw5597GDvNVgT5Te6w8LBqeXHq4x6HeXYmqLqw2RC\"]},\"node_modules/@bananapus/721-hook-v5/src/interfaces/IJB721TokenUriResolver.sol\":{\"keccak256\":\"0xfa599167098f4459320ec4141a98a17b2dfffbce422baa27d8b4e4530f61ece1\",\"license\":\"MIT\",\"urls\":[\"bzz-raw://8b758b161f4c7b520b2c34b4d91e585e961b8f4ca278eebb91d791f7f2f45140\",\"dweb:/ipfs/QmcD9DF7NJ9QykQpT4KPzm4bs3fkjzukdAUWwdU6Atfw85\"]},\"node_modules/@bananapus/721-hook-v5/src/libraries/JBIpfsDecoder.sol\":{\"keccak256\":\"0xb93ba562ac1fc9d3829be00e61f3a90f51df5661cf0f2c819a7f1d8ba19ec171\",\"license\":\"MIT\",\"urls\":[\"bzz-raw://fc9bc948fac8897d9720ef25b13d63c60b40a18aa1897dd1c657fc278c416b4f\",\"dweb:/ipfs/QmNtiJTALZW5zfyKVy7XG5GkqGgMrfkVvU4Auu4bb9cGQc\"]},\"node_modules/@bananapus/721-hook-v5/src/structs/JB721Tier.sol\":{\"keccak256\":\"0x99232aa73d5715977332dc7c93b03552a93259e59ae00e86b4ddc200f06adaf1\",\"license\":\"MIT\",\"urls\":[\"bzz-raw://721c0cf10a29fa11677718faafb3a2ecfcb4fbe4e1c09e70a7fac681c80fcc94\",\"dweb:/ipfs/QmSUR77E9PqnpB5kBcKNz2CGBjG9XL9FH57RWVYu3Q7GMR\"]},\"node_modules/@bananapus/721-hook-v5/src/structs/JB721TierConfig.sol\":{\"keccak256\":\"0x86e54a0de4deab9d105bf276586aebe256188b193e83eb7a6f6f93e4a29ae9c5\",\"license\":\"MIT\",\"urls\":[\"bzz-raw://04bfcc07d452c26dfc50d3a5eb62df4b3b81e063defd752e0aa5ed049a78eef4\",\"dweb:/ipfs/QmWd5nJHUvZPHxJXkrYCboXaqdtiWWkQG26sNM6qkJuAgD\"]},\"node_modules/@bananapus/721-hook-v5/src/structs/JB721TiersHookFlags.sol\":{\"keccak256\":\"0x283d8429f31bd58875c056515aa42abd09c95362bd929e85cfc44a0d92585766\",\"license\":\"MIT\",\"urls\":[\"bzz-raw://9a580b89fe99d9f8e930c58a4d0d63a5ff7c01c79d210af01373d066c9e72ed6\",\"dweb:/ipfs/QmdY1eSGSoTjv4KSdsG4Tm5CzJN6iqk3qTRga5ZWNbejRz\"]},\"node_modules/@bananapus/721-hook-v5/src/structs/JB721TiersMintReservesConfig.sol\":{\"keccak256\":\"0x86fe586a05e6d4bc6fab9b68996a7f4b74c5362ca6f24b9d8057ed7e4cd1c5ac\",\"license\":\"MIT\",\"urls\":[\"bzz-raw://0915f17d1f958ab1fe6b214d99ed62f1f858684898c803f1a8a6a557472dd140\",\"dweb:/ipfs/QmUhdnSV8UzkgvbtkYEKHrpyDEmc2aJxW5HQ1gucuxxu5A\"]},\"node_modules/@bananapus/core-v5/src/enums/JBApprovalStatus.sol\":{\"keccak256\":\"0x61c69b6bac7d24b566d87cda23a77e4ca9cdb87200b106aba8534cb9a0973e33\",\"license\":\"MIT\",\"urls\":[\"bzz-raw://6a9ca7249de76f77a8252eefe6bd1b63d47952f25a2acfa2c8db967cdff4470c\",\"dweb:/ipfs/QmaxSxptRQNj8bNy96EreENmrnRWdKmhyihBcxyWzBX5BN\"]},\"node_modules/@bananapus/core-v5/src/interfaces/IJBCashOutHook.sol\":{\"keccak256\":\"0x6c516b030f55065eb169d666d11dbd82c4a0b8cea7782ebc5e79433cade38670\",\"license\":\"MIT\",\"urls\":[\"bzz-raw://fa0659eb08477176f130ccaf387d4bde71f0ecca2b24f61124d225f2f50397a3\",\"dweb:/ipfs/QmRNBRGhdGpLQLkC4wK4VrgNEw4EdSiJ4ZZJfiJU4aNt2L\"]},\"node_modules/@bananapus/core-v5/src/interfaces/IJBDirectory.sol\":{\"keccak256\":\"0xcb97db460d2948a7f51c660fe0d1b1749047a419027711c476b86ad3573534c5\",\"license\":\"MIT\",\"urls\":[\"bzz-raw://a909c7a3d471054537894dca827e6e018e92ac25299b43026e5b1e335ec4de68\",\"dweb:/ipfs/QmU1GT3F8PNMjSiPPP5cSLLofefHYFJXnywMCdqqM9xUeh\"]},\"node_modules/@bananapus/core-v5/src/interfaces/IJBPayHook.sol\":{\"keccak256\":\"0x9438866782c652c2942f4d114e35f393cd3c8b0334abce8387eed90bca35e8b2\",\"license\":\"MIT\",\"urls\":[\"bzz-raw://cfd99daf57213f92325aad7d7d16e98476d38e870470e95ba01e3ae3cdecc95d\",\"dweb:/ipfs/QmUKKAVGf7ki8BHksr99tFcRW8APveeB5tNH63ctTbbCW8\"]},\"node_modules/@bananapus/core-v5/src/interfaces/IJBProjects.sol\":{\"keccak256\":\"0x4ae42a9cc29b517b26d2b9b635deb82c16696b777deeca92dfcad33b0f81c0a0\",\"license\":\"MIT\",\"urls\":[\"bzz-raw://1dcbd860e7d7f05232d90c5e9cfd3d01e2ce986ffcdb053473d8a4d387b1a48a\",\"dweb:/ipfs/QmWKWoSJJbVWDumbnzXJBJyXmAacgC97bxMtchh8te41bn\"]},\"node_modules/@bananapus/core-v5/src/interfaces/IJBRulesetApprovalHook.sol\":{\"keccak256\":\"0x5f0dc5968277b572ba5dc74518906dfb33a9684b7a199c7843f4e66af1c11fb9\",\"license\":\"MIT\",\"urls\":[\"bzz-raw://323ce3731aebdf5bf8055b8550055e856feed700d293af8beaf8a750625a0975\",\"dweb:/ipfs/QmU2ErV2uzvXnsJt1qBKm73H2qWcEqYtQGHtZEpx93DaWJ\"]},\"node_modules/@bananapus/core-v5/src/interfaces/IJBRulesetDataHook.sol\":{\"keccak256\":\"0x45a88aa9f26512f7fc3deff6d00be9a292fc07a76c8311f175249400e83d1837\",\"license\":\"MIT\",\"urls\":[\"bzz-raw://1e88b996c3a05f87f7391ebcb9cd6d46c6ce8768083945f26a98c4ac4509e64c\",\"dweb:/ipfs/QmbpuYi6mYV8K8qrh8syWvbPc34pFrXG6QeC23m4MsX3r9\"]},\"node_modules/@bananapus/core-v5/src/interfaces/IJBRulesets.sol\":{\"keccak256\":\"0xf287c7a4a162cd58084ed10ee5f9f31c992addff0ce2f2ac7e810cc393546f30\",\"license\":\"MIT\",\"urls\":[\"bzz-raw://c851b72de52c3ceb73c6b1849ad0cc7c0832fd126ee52cc838a163ab6d3055b8\",\"dweb:/ipfs/Qmbv6k6pSeNMwZoTUKzDNb18DMGR8DboRMrYQBydATuVZw\"]},\"node_modules/@bananapus/core-v5/src/interfaces/IJBTerminal.sol\":{\"keccak256\":\"0x5a4c0ef6c8fd10069a408cc42a862909f7b47aba46327da5003203508d8f17d9\",\"license\":\"MIT\",\"urls\":[\"bzz-raw://09d8854151c21046b6b939189ad2139c669888e6baf47034a0cb754104d1efe6\",\"dweb:/ipfs/QmaMrxnf6K6znvDBwdAqsw5x6yuR4SY1BdNtyz226siAt5\"]},\"node_modules/@bananapus/core-v5/src/interfaces/IJBTokenUriResolver.sol\":{\"keccak256\":\"0xfa5cb00dcd6085d1ef912d071fe73c63f9478a2cd0f9d8bddaf659b6af2d0967\",\"license\":\"MIT\",\"urls\":[\"bzz-raw://282e4e7c342d65f77cde0e9a08fcaf20ef5cf379c7a48b639842c0ffd0b2afb8\",\"dweb:/ipfs/QmbnN3PEQeZaXdPLT75V1J79kMg7KqSMru37RHrL3z8Yf2\"]},\"node_modules/@bananapus/core-v5/src/libraries/JBConstants.sol\":{\"keccak256\":\"0x4dd0f809f1f10cf961e85632e5f3ea5e49716b104a0e8bc4d8ccc2081e9d007a\",\"license\":\"MIT\",\"urls\":[\"bzz-raw://09432ec01de81f7c295579fa3176610776cb186fba4c50d799108a18f14e5cc6\",\"dweb:/ipfs/QmS52c525xJui5u1xoY76PTq2n1pvnUzThBK38A1fsWdLp\"]},\"node_modules/@bananapus/core-v5/src/structs/JBAccountingContext.sol\":{\"keccak256\":\"0x9c47e048a719f784f601df69a583505432217b9868a0244876d277f84dd1ebdf\",\"license\":\"MIT\",\"urls\":[\"bzz-raw://8565f194b87914da9a02af2e760ae2ed2a9d185c6f11229f7035140776d2fec9\",\"dweb:/ipfs/QmPs2fic8W3F5e5zNRwmGmJFjb3JWGPWJ3YUe5o82nQgEn\"]},\"node_modules/@bananapus/core-v5/src/structs/JBAfterCashOutRecordedContext.sol\":{\"keccak256\":\"0xa1acdb1a5670f66f730e71f8eff120766b6f5c934e6cd699c7f1a7cc93adf658\",\"license\":\"MIT\",\"urls\":[\"bzz-raw://a9c7655c9c42b30132688b395251748c809c334370ee584cb9bac46e1fb8f162\",\"dweb:/ipfs/QmbMV1wg1Fm236HaA6nnMSvRkzeYCKPRhMYDbqkAxieY7x\"]},\"node_modules/@bananapus/core-v5/src/structs/JBAfterPayRecordedContext.sol\":{\"keccak256\":\"0x3bfc01ae9944a0ff5c41125e18ebb8efca58d7aa4e471d2ffa6d8588afb689ab\",\"license\":\"MIT\",\"urls\":[\"bzz-raw://beb21399142d9b89539cfc8aa94119bc106bd1ea847b922d4c78f3f8804a5cba\",\"dweb:/ipfs/QmXDwJXrzCb6zh1KYwVdN2PEY86uK62MTfYF1M2MBtbEP7\"]},\"node_modules/@bananapus/core-v5/src/structs/JBBeforeCashOutRecordedContext.sol\":{\"keccak256\":\"0x7b2119f3e0725becc552ed5dcfa51683960a8772550c95ac5e2f75240ced367c\",\"license\":\"MIT\",\"urls\":[\"bzz-raw://03369dd07a9126ce453d83ac409919326f0aaa48ff9eac5c703092b3824d79c9\",\"dweb:/ipfs/Qmc1QKw6FfmeBD372RnDyeW27QyzEUjMX5up5rk8SHRYGa\"]},\"node_modules/@bananapus/core-v5/src/structs/JBBeforePayRecordedContext.sol\":{\"keccak256\":\"0xbc98b968d84be2f0ddbb24240723c7179ec9c5e02e5fbd5843dd0e76623a3ea5\",\"license\":\"MIT\",\"urls\":[\"bzz-raw://1310e522696a9fc6f7f96b04c293fab3b4cf1e722bdbb7aa1eec7b3ecc25402f\",\"dweb:/ipfs/QmTYiijDJRuQcMhLrmpbHzHAQFPq6jurPP5HjyYtnzbpnK\"]},\"node_modules/@bananapus/core-v5/src/structs/JBCashOutHookSpecification.sol\":{\"keccak256\":\"0x67a6e781019979e626eaa81d84a800b2656603c23ae455e15d0fa1a6f03c1736\",\"license\":\"MIT\",\"urls\":[\"bzz-raw://b43ce54447dda62d449a1e3575a9e4cb9c5a2adb41b45423dcefeb7d9afe8336\",\"dweb:/ipfs/QmW77REnQcvsfv4gwTLj2CyynmaGC3a6om7zCFWmERhrPY\"]},\"node_modules/@bananapus/core-v5/src/structs/JBPayHookSpecification.sol\":{\"keccak256\":\"0x955f0bfca97300b9e5927dc181753830ee362f83fa9ca32a90daade32aa0cfd5\",\"license\":\"MIT\",\"urls\":[\"bzz-raw://f517af1597c7c40f8d3da53f7a6684a3e162950a16559d6bf6ea3b727bb11546\",\"dweb:/ipfs/QmRWo2ZTYXmVZTzNJDYhsJNsEaHphjpUfx9eNz2cciyz86\"]},\"node_modules/@bananapus/core-v5/src/structs/JBRuleset.sol\":{\"keccak256\":\"0x2d1f0a8457e94addae51a8222b1837e372847624fde96bb3178e7aee52ab2b24\",\"license\":\"MIT\",\"urls\":[\"bzz-raw://bbb1478e8f5d1c20f981e5a0d5e526d002add1e05ddced87ccd45543ed00c9e4\",\"dweb:/ipfs/QmZkgaYdwkbnvW2MGwVe9FeHjac8XyZTP1YZcWUApiGZgE\"]},\"node_modules/@bananapus/core-v5/src/structs/JBTokenAmount.sol\":{\"keccak256\":\"0xc61593d33d5ec30e695d382948a1b944d01e29a8f2bfd29f75ecebcdbc7816de\",\"license\":\"MIT\",\"urls\":[\"bzz-raw://8992c1e5fca0c2342ecc0e734dfba6a2a752e4c29184784931d0971e44305051\",\"dweb:/ipfs/QmYNcaW3qeCkgAExUaFTq238fgfJuoYCTwjCn7jm94U4dJ\"]},\"node_modules/@openzeppelin/contracts/interfaces/draft-IERC6093.sol\":{\"keccak256\":\"0x19fdfb0f3b89a230e7dbd1cf416f1a6b531a3ee5db4da483f946320fc74afc0e\",\"license\":\"MIT\",\"urls\":[\"bzz-raw://3490d794728f5bfecb46820431adaff71ba374141545ec20b650bb60353fac23\",\"dweb:/ipfs/QmPsfxjVpMcZbpE7BH93DzTpEaktESigEw4SmDzkXuJ4WR\"]},\"node_modules/@openzeppelin/contracts/token/ERC20/IERC20.sol\":{\"keccak256\":\"0x74ed01eb66b923d0d0cfe3be84604ac04b76482a55f9dd655e1ef4d367f95bc2\",\"license\":\"MIT\",\"urls\":[\"bzz-raw://5282825a626cfe924e504274b864a652b0023591fa66f06a067b25b51ba9b303\",\"dweb:/ipfs/QmeCfPykghhMc81VJTrHTC7sF6CRvaA1FXVq2pJhwYp1dV\"]},\"node_modules/@openzeppelin/contracts/token/ERC20/extensions/IERC20Metadata.sol\":{\"keccak256\":\"0xd6fa4088198f04eef10c5bce8a2f4d60554b7ec4b987f684393c01bf79b94d9f\",\"license\":\"MIT\",\"urls\":[\"bzz-raw://f95ee0bbd4dd3ac730d066ba3e785ded4565e890dbec2fa7d3b9fe3bad9d0d6e\",\"dweb:/ipfs/QmSLr6bHkPFWT7ntj34jmwfyskpwo97T9jZUrk5sz3sdtR\"]},\"node_modules/@openzeppelin/contracts/token/ERC721/IERC721.sol\":{\"keccak256\":\"0xf78f05f3b8c9f75570e85300d7b4600d7f6f6a198449273f31d44c1641adb46f\",\"license\":\"MIT\",\"urls\":[\"bzz-raw://e28b872613b45e0e801d4995aa4380be2531147bfe2d85c1d6275f1de514fba3\",\"dweb:/ipfs/QmeeFcfShHYaS3BdgVj78nxR28ZaVUwbvr66ud8bT6kzw9\"]},\"node_modules/@openzeppelin/contracts/token/ERC721/IERC721Receiver.sol\":{\"keccak256\":\"0x88cd5e3bee2e8c36b8d9058fbcaa81ad5704281b25634122234b55ea853d8055\",\"license\":\"MIT\",\"urls\":[\"bzz-raw://8dc7e7ab5b8ea36c15027ab04221b05d1c970f47a53e9fd47ead8ca665d49c7e\",\"dweb:/ipfs/Qmeeph7fsDyfRr8vb2L8KcDEmKPb224TAayMvgqgGAnqpL\"]},\"node_modules/@openzeppelin/contracts/token/ERC721/extensions/IERC721Metadata.sol\":{\"keccak256\":\"0xf46268c37522320bb2119a5a394bc5c739a95c0c574c8d08e8c643f4d06e5c76\",\"license\":\"MIT\",\"urls\":[\"bzz-raw://517e4b295f35b9947c72ad7379a6089439ece7bb6f4a2ea0a159da13046c039e\",\"dweb:/ipfs/QmZXzkSfLUbvujig3zVbpDHykpHhqLpvQtdiN3B5j4TA3u\"]},\"node_modules/@openzeppelin/contracts/utils/Context.sol\":{\"keccak256\":\"0x493033a8d1b176a037b2cc6a04dad01a5c157722049bbecf632ca876224dd4b2\",\"license\":\"MIT\",\"urls\":[\"bzz-raw://6a708e8a5bdb1011c2c381c9a5cfd8a9a956d7d0a9dc1bd8bcdaf52f76ef2f12\",\"dweb:/ipfs/Qmax9WHBnVsZP46ZxEMNRQpLQnrdE4dK8LehML1Py8FowF\"]},\"node_modules/@openzeppelin/contracts/utils/Panic.sol\":{\"keccak256\":\"0xf7fe324703a64fc51702311dc51562d5cb1497734f074e4f483bfb6717572d7a\",\"license\":\"MIT\",\"urls\":[\"bzz-raw://c6a5ff4f9fd8649b7ee20800b7fa387d3465bd77cf20c2d1068cd5c98e1ed57a\",\"dweb:/ipfs/QmVSaVJf9FXFhdYEYeCEfjMVHrxDh5qL4CGkxdMWpQCrqG\"]},\"node_modules/@openzeppelin/contracts/utils/Strings.sol\":{\"keccak256\":\"0xad148d59f05165f9217d0a9e1ac8f772abb02ea6aaad8a756315c532bf79f9f4\",\"license\":\"MIT\",\"urls\":[\"bzz-raw://15e3599867c2182f5831e9268b274b2ef2047825837df6b4d81c9e89254b093e\",\"dweb:/ipfs/QmZbL7XAYr5RmaNaooPgZRmcDXaudfsYQfYD9y5iAECvpS\"]},\"node_modules/@openzeppelin/contracts/utils/introspection/ERC165.sol\":{\"keccak256\":\"0x2d9dc2fe26180f74c11c13663647d38e259e45f95eb88f57b61d2160b0109d3e\",\"license\":\"MIT\",\"urls\":[\"bzz-raw://81233d1f98060113d9922180bb0f14f8335856fe9f339134b09335e9f678c377\",\"dweb:/ipfs/QmWh6R35SarhAn4z2wH8SU456jJSYL2FgucfTFgbHJJN4E\"]},\"node_modules/@openzeppelin/contracts/utils/introspection/IERC165.sol\":{\"keccak256\":\"0x8891738ffe910f0cf2da09566928589bf5d63f4524dd734fd9cedbac3274dd5c\",\"license\":\"MIT\",\"urls\":[\"bzz-raw://971f954442df5c2ef5b5ebf1eb245d7105d9fbacc7386ee5c796df1d45b21617\",\"dweb:/ipfs/QmadRjHbkicwqwwh61raUEapaVEtaLMcYbQZWs9gUkgj3u\"]},\"node_modules/@openzeppelin/contracts/utils/math/Math.sol\":{\"keccak256\":\"0x1225214420c83ebcca88f2ae2b50f053aaa7df7bd684c3e878d334627f2edfc6\",\"license\":\"MIT\",\"urls\":[\"bzz-raw://6c5fab4970634f9ab9a620983dc1c8a30153981a0b1a521666e269d0a11399d3\",\"dweb:/ipfs/QmVRnBC575MESGkEHndjujtR7qub2FzU9RWy9eKLp4hPZB\"]},\"node_modules/@openzeppelin/contracts/utils/math/SafeCast.sol\":{\"keccak256\":\"0x195533c86d0ef72bcc06456a4f66a9b941f38eb403739b00f21fd7c1abd1ae54\",\"license\":\"MIT\",\"urls\":[\"bzz-raw://b1d578337048cad08c1c03041cca5978eff5428aa130c781b271ad9e5566e1f8\",\"dweb:/ipfs/QmPFKL2r9CBsMwmUqqdcFPfHZB2qcs9g1HDrPxzWSxomvy\"]},\"node_modules/@openzeppelin/contracts/utils/math/SignedMath.sol\":{\"keccak256\":\"0xb1970fac7b64e6c09611e6691791e848d5e3fe410fa5899e7df2e0afd77a99e3\",\"license\":\"MIT\",\"urls\":[\"bzz-raw://db5fbb3dddd8b7047465b62575d96231ba8a2774d37fb4737fbf23340fabbb03\",\"dweb:/ipfs/QmVUSvooZKEdEdap619tcJjTLcAuH6QBdZqAzWwnAXZAWJ\"]},\"node_modules/@prb/math/src/Common.sol\":{\"keccak256\":\"0x8225a3898d2f11f585da1fb82234800e9717fa080dbe53d450fd429a3a632e99\",\"license\":\"MIT\",\"urls\":[\"bzz-raw://2dcbf39ca575f68f32f0d1c66391de94082424956e7585e849813966f8c0fc05\",\"dweb:/ipfs/QmYvk8vXFDUJHrmqbtutYXfoLomLBosYLyBzuPoYBxsQ42\"]}},\"version\":1}",
			"gitCommit": "3a67a4be13dc6b55c180f742360322bf61e62087",
			"history": []
		}
	]
}