{"abi":[{"type":"constructor","inputs":[{"name":"_operatorStore","type":"address","internalType":"contract IJBOperatorStore"}],"stateMutability":"nonpayable"},{"type":"function","name":"CLOCK_MODE","inputs":[],"outputs":[{"name":"","type":"string","internalType":"string"}],"stateMutability":"view"},{"type":"function","name":"DOMAIN_SEPARATOR","inputs":[],"outputs":[{"name":"","type":"bytes32","internalType":"bytes32"}],"stateMutability":"view"},{"type":"function","name":"approve","inputs":[{"name":"to","type":"address","internalType":"address"},{"name":"tokenId","type":"uint256","internalType":"uint256"}],"outputs":[],"stateMutability":"nonpayable"},{"type":"function","name":"balanceOf","inputs":[{"name":"owner","type":"address","internalType":"address"}],"outputs":[{"name":"","type":"uint256","internalType":"uint256"}],"stateMutability":"view"},{"type":"function","name":"clock","inputs":[],"outputs":[{"name":"","type":"uint48","internalType":"uint48"}],"stateMutability":"view"},{"type":"function","name":"count","inputs":[],"outputs":[{"name":"","type":"uint256","internalType":"uint256"}],"stateMutability":"view"},{"type":"function","name":"createFor","inputs":[{"name":"_owner","type":"address","internalType":"address"},{"name":"_metadata","type":"tuple","internalType":"struct JBProjectMetadata","components":[{"name":"content","type":"string","internalType":"string"},{"name":"domain","type":"uint256","internalType":"uint256"}]}],"outputs":[{"name":"projectId","type":"uint256","internalType":"uint256"}],"stateMutability":"nonpayable"},{"type":"function","name":"delegate","inputs":[{"name":"delegatee","type":"address","internalType":"address"}],"outputs":[],"stateMutability":"nonpayable"},{"type":"function","name":"delegateBySig","inputs":[{"name":"delegatee","type":"address","internalType":"address"},{"name":"nonce","type":"uint256","internalType":"uint256"},{"name":"expiry","type":"uint256","internalType":"uint256"},{"name":"v","type":"uint8","internalType":"uint8"},{"name":"r","type":"bytes32","internalType":"bytes32"},{"name":"s","type":"bytes32","internalType":"bytes32"}],"outputs":[],"stateMutability":"nonpayable"},{"type":"function","name":"delegates","inputs":[{"name":"account","type":"address","internalType":"address"}],"outputs":[{"name":"","type":"address","internalType":"address"}],"stateMutability":"view"},{"type":"function","name":"eip712Domain","inputs":[],"outputs":[{"name":"fields","type":"bytes1","internalType":"bytes1"},{"name":"name","type":"string","internalType":"string"},{"name":"version","type":"string","internalType":"string"},{"name":"chainId","type":"uint256","internalType":"uint256"},{"name":"verifyingContract","type":"address","internalType":"address"},{"name":"salt","type":"bytes32","internalType":"bytes32"},{"name":"extensions","type":"uint256[]","internalType":"uint256[]"}],"stateMutability":"view"},{"type":"function","name":"getApproved","inputs":[{"name":"tokenId","type":"uint256","internalType":"uint256"}],"outputs":[{"name":"","type":"address","internalType":"address"}],"stateMutability":"view"},{"type":"function","name":"getPastTotalSupply","inputs":[{"name":"timepoint","type":"uint256","internalType":"uint256"}],"outputs":[{"name":"","type":"uint256","internalType":"uint256"}],"stateMutability":"view"},{"type":"function","name":"getPastVotes","inputs":[{"name":"account","type":"address","internalType":"address"},{"name":"timepoint","type":"uint256","internalType":"uint256"}],"outputs":[{"name":"","type":"uint256","internalType":"uint256"}],"stateMutability":"view"},{"type":"function","name":"getVotes","inputs":[{"name":"account","type":"address","internalType":"address"}],"outputs":[{"name":"","type":"uint256","internalType":"uint256"}],"stateMutability":"view"},{"type":"function","name":"isApprovedForAll","inputs":[{"name":"owner","type":"address","internalType":"address"},{"name":"operator","type":"address","internalType":"address"}],"outputs":[{"name":"","type":"bool","internalType":"bool"}],"stateMutability":"view"},{"type":"function","name":"metadataContentOf","inputs":[{"name":"","type":"uint256","internalType":"uint256"},{"name":"","type":"uint256","internalType":"uint256"}],"outputs":[{"name":"","type":"string","internalType":"string"}],"stateMutability":"view"},{"type":"function","name":"name","inputs":[],"outputs":[{"name":"","type":"string","internalType":"string"}],"stateMutability":"view"},{"type":"function","name":"nonces","inputs":[{"name":"owner","type":"address","internalType":"address"}],"outputs":[{"name":"","type":"uint256","internalType":"uint256"}],"stateMutability":"view"},{"type":"function","name":"operatorStore","inputs":[],"outputs":[{"name":"","type":"address","internalType":"contract IJBOperatorStore"}],"stateMutability":"view"},{"type":"function","name":"owner","inputs":[],"outputs":[{"name":"","type":"address","internalType":"address"}],"stateMutability":"view"},{"type":"function","name":"ownerOf","inputs":[{"name":"tokenId","type":"uint256","internalType":"uint256"}],"outputs":[{"name":"","type":"address","internalType":"address"}],"stateMutability":"view"},{"type":"function","name":"renounceOwnership","inputs":[],"outputs":[],"stateMutability":"nonpayable"},{"type":"function","name":"safeTransferFrom","inputs":[{"name":"from","type":"address","internalType":"address"},{"name":"to","type":"address","internalType":"address"},{"name":"tokenId","type":"uint256","internalType":"uint256"}],"outputs":[],"stateMutability":"nonpayable"},{"type":"function","name":"safeTransferFrom","inputs":[{"name":"from","type":"address","internalType":"address"},{"name":"to","type":"address","internalType":"address"},{"name":"tokenId","type":"uint256","internalType":"uint256"},{"name":"data","type":"bytes","internalType":"bytes"}],"outputs":[],"stateMutability":"nonpayable"},{"type":"function","name":"setApprovalForAll","inputs":[{"name":"operator","type":"address","internalType":"address"},{"name":"approved","type":"bool","internalType":"bool"}],"outputs":[],"stateMutability":"nonpayable"},{"type":"function","name":"setMetadataOf","inputs":[{"name":"_projectId","type":"uint256","internalType":"uint256"},{"name":"_metadata","type":"tuple","internalType":"struct JBProjectMetadata","components":[{"name":"content","type":"string","internalType":"string"},{"name":"domain","type":"uint256","internalType":"uint256"}]}],"outputs":[],"stateMutability":"nonpayable"},{"type":"function","name":"setTokenUriResolver","inputs":[{"name":"_newResolver","type":"address","internalType":"contract IJBTokenUriResolver"}],"outputs":[],"stateMutability":"nonpayable"},{"type":"function","name":"supportsInterface","inputs":[{"name":"_interfaceId","type":"bytes4","internalType":"bytes4"}],"outputs":[{"name":"","type":"bool","internalType":"bool"}],"stateMutability":"view"},{"type":"function","name":"symbol","inputs":[],"outputs":[{"name":"","type":"string","internalType":"string"}],"stateMutability":"view"},{"type":"function","name":"tokenURI","inputs":[{"name":"_projectId","type":"uint256","internalType":"uint256"}],"outputs":[{"name":"","type":"string","internalType":"string"}],"stateMutability":"view"},{"type":"function","name":"tokenUriResolver","inputs":[],"outputs":[{"name":"","type":"address","internalType":"contract IJBTokenUriResolver"}],"stateMutability":"view"},{"type":"function","name":"transferFrom","inputs":[{"name":"from","type":"address","internalType":"address"},{"name":"to","type":"address","internalType":"address"},{"name":"tokenId","type":"uint256","internalType":"uint256"}],"outputs":[],"stateMutability":"nonpayable"},{"type":"function","name":"transferOwnership","inputs":[{"name":"newOwner","type":"address","internalType":"address"}],"outputs":[],"stateMutability":"nonpayable"},{"type":"event","name":"Approval","inputs":[{"name":"owner","type":"address","indexed":true,"internalType":"address"},{"name":"approved","type":"address","indexed":true,"internalType":"address"},{"name":"tokenId","type":"uint256","indexed":true,"internalType":"uint256"}],"anonymous":false},{"type":"event","name":"ApprovalForAll","inputs":[{"name":"owner","type":"address","indexed":true,"internalType":"address"},{"name":"operator","type":"address","indexed":true,"internalType":"address"},{"name":"approved","type":"bool","indexed":false,"internalType":"bool"}],"anonymous":false},{"type":"event","name":"Create","inputs":[{"name":"projectId","type":"uint256","indexed":true,"internalType":"uint256"},{"name":"owner","type":"address","indexed":true,"internalType":"address"},{"name":"metadata","type":"tuple","indexed":false,"internalType":"struct JBProjectMetadata","components":[{"name":"content","type":"string","internalType":"string"},{"name":"domain","type":"uint256","internalType":"uint256"}]},{"name":"caller","type":"address","indexed":false,"internalType":"address"}],"anonymous":false},{"type":"event","name":"DelegateChanged","inputs":[{"name":"delegator","type":"address","indexed":true,"internalType":"address"},{"name":"fromDelegate","type":"address","indexed":true,"internalType":"address"},{"name":"toDelegate","type":"address","indexed":true,"internalType":"address"}],"anonymous":false},{"type":"event","name":"DelegateVotesChanged","inputs":[{"name":"delegate","type":"address","indexed":true,"internalType":"address"},{"name":"previousBalance","type":"uint256","indexed":false,"internalType":"uint256"},{"name":"newBalance","type":"uint256","indexed":false,"internalType":"uint256"}],"anonymous":false},{"type":"event","name":"EIP712DomainChanged","inputs":[],"anonymous":false},{"type":"event","name":"OwnershipTransferred","inputs":[{"name":"previousOwner","type":"address","indexed":true,"internalType":"address"},{"name":"newOwner","type":"address","indexed":true,"internalType":"address"}],"anonymous":false},{"type":"event","name":"SetMetadata","inputs":[{"name":"projectId","type":"uint256","indexed":true,"internalType":"uint256"},{"name":"metadata","type":"tuple","indexed":false,"internalType":"struct JBProjectMetadata","components":[{"name":"content","type":"string","internalType":"string"},{"name":"domain","type":"uint256","internalType":"uint256"}]},{"name":"caller","type":"address","indexed":false,"internalType":"address"}],"anonymous":false},{"type":"event","name":"SetTokenUriResolver","inputs":[{"name":"resolver","type":"address","indexed":true,"internalType":"contract IJBTokenUriResolver"},{"name":"caller","type":"address","indexed":false,"internalType":"address"}],"anonymous":false},{"type":"event","name":"Transfer","inputs":[{"name":"from","type":"address","indexed":true,"internalType":"address"},{"name":"to","type":"address","indexed":true,"internalType":"address"},{"name":"tokenId","type":"uint256","indexed":true,"internalType":"uint256"}],"anonymous":false},{"type":"error","name":"InvalidShortString","inputs":[]},{"type":"error","name":"StringTooLong","inputs":[{"name":"str","type":"string","internalType":"string"}]},{"type":"error","name":"UNAUTHORIZED","inputs":[]}],"bytecode":{"object":"0x61018034620004d357601f19906001600160401b0390601f9062003b933881900383810186168301919085831184841017620004bf5780849260409485528339602093849181010312620004d35751926001600160a01b038085168503620004d3578251946200006f86620004d7565b6011865284860194704a75696365626f782050726f6a6563747360781b938487528551996200009e8b620004d7565b600191828c52838c0194603160f81b8652885197620000bd89620004d7565b6011895285890152885190620000d382620004d7565b6008825267094aa92868a849eb60c31b8683015260805287518c8111620004bf575f9889548681811c91168015620004b4575b88821014620004a0579081858493116200044d575b508790858311600114620003ed578b92620003e1575b50505f19600383901b1c191690851b1788555b8051928c8411620003cd5784548581811c91168015620003c2575b87821014620003ae57908184869594931162000357575b5086928411600114620002f757508892620002eb575b50505f19600383901b1c191690821b1790555b620001aa87620004f3565b95610140968752620001bc8a620006c2565b976101609889525190209161010099838b5251902094610120958087524660c0528151928301937f8b73c3c69bb8fe3d512ecc4cf759cc79239f7b179b0ffacaa9a75d522b39400f85528284015260608301524660808301523060a083015260a0825260c0820198828a10908a1117620002d75788905251902060a0523060e052600c8054336001600160a01b0319821681179092559091167f8be0079c531659141344cd1fd0a4f28419497f9722a3daafe3b4186f6b6457e08380a3600d556133239485620008708639608051858181610711015281816107b80152611328015260a05185612d54015260c05185612e0f015260e05185612d1e01525184612da301525183612dc901525182610f1701525181610f400152f35b634e487b7160e01b85526041600452602485fd5b015190505f806200018c565b858a52868a20869590939291168a5b8882821062000340575050841162000327575b505050811b0190556200019f565b01515f1960f88460031b161c191690555f808062000319565b838501518655889790950194938401930162000306565b9091929350858a52868a208480870160051c820192898810620003a4575b9187968992969594930160051c01915b8281106200039557505062000176565b8c815587965088910162000385565b9250819262000375565b634e487b7160e01b8a52602260045260248afd5b90607f16906200015f565b634e487b7160e01b89526041600452602489fd5b015190505f8062000131565b9086889416918c8052898d20928d5b8b8282106200043657505084116200041d575b505050811b01885562000144565b01515f1960f88460031b161c191690555f80806200040f565b8385015186558b97909501949384019301620003fc565b9091508a8052878b208580850160051c8201928a861062000496575b918991869594930160051c01915b828110620004875750506200011b565b8d815585945089910162000477565b9250819262000469565b634e487b7160e01b8b52602260045260248bfd5b90607f169062000106565b634e487b7160e01b5f52604160045260245ffd5b5f80fd5b604081019081106001600160401b03821117620004bf57604052565b8051602090818110156200058d5750601f8251116200052e57808251920151908083106200052057501790565b825f19910360031b1b161790565b90604051809263305a27a960e01b82528060048301528251908160248401525f935b82851062000573575050604492505f838284010152601f80199101168101030190fd5b848101820151868601604401529381019385935062000550565b906001600160401b038211620004bf57600654926001938481811c91168015620006b7575b83821014620006a357601f81116200066c575b5081601f84116001146200060457509282939183925f94620005f8575b50501b915f199060031b1c19161760065560ff90565b015192505f80620005e2565b919083601f19811660065f52845f20945f905b8883831062000651575050501062000638575b505050811b0160065560ff90565b01515f1960f88460031b161c191690555f80806200062a565b85870151885590960195948501948793509081019062000617565b60065f5284601f845f20920160051c820191601f860160051c015b82811062000697575050620005c5565b5f815501859062000687565b634e487b7160e01b5f52602260045260245ffd5b90607f1690620005b2565b8051602090818110156200074e5750601f825111620006ef57808251920151908083106200052057501790565b90604051809263305a27a960e01b82528060048301528251908160248401525f935b82851062000734575050604492505f838284010152601f80199101168101030190fd5b848101820151868601604401529381019385935062000711565b906001600160401b038211620004bf57600754926001938481811c9116801562000864575b83821014620006a357601f81116200082d575b5081601f8411600114620007c557509282939183925f94620007b9575b50501b915f199060031b1c19161760075560ff90565b015192505f80620007a3565b919083601f19811660075f52845f20945f905b88838310620008125750505010620007f9575b505050811b0160075560ff90565b01515f1960f88460031b161c191690555f8080620007eb565b858701518855909601959485019487935090810190620007d8565b60075f5284601f845f20920160051c820191601f860160051c015b8281106200085857505062000786565b5f815501859062000848565b90607f16906200077356fe60806040526004361015610011575f80fd5b5f3560e01c806301ffc9a71461023457806306661abd1461022f57806306fdde031461022a578063081812fc14610225578063095ea7b31461022057806323b872dd1461021b5780632407497e146102165780633644e51514610211578063365749751461020c57806339fbc775146102075780633a46b1a81461020257806342842e0e146101fd5780634bf5d7e9146101f8578063587cde1e146101f35780635c19a95c146101ee5780636352211e146101e9578063666d87a0146101e457806370a08231146101df578063715018a6146101da5780637ecebe00146101d557806384b0196e146101d05780638da5cb5b146101cb5780638e539e8c146101c657806391ddadf4146101c157806395d89b41146101bc5780639ab24eb0146101b7578063a22cb465146101b2578063ad007d63146101ad578063b88d4fde146101a8578063c3cda520146101a3578063c87b56dd1461019e578063e131fc0c14610199578063e985e9c5146101945763f2fde38b1461018f575f80fd5b611601565b61159d565b611575565b611542565b611410565b611381565b611313565b611227565b6111cc565b611128565b6110fd565b61101c565b610ff4565b610efd565b610ec2565b610e65565b610e3e565b610c0e565b610bf0565b610bca565b610b8d565b610adc565b610ab5565b6109b1565b6108d2565b610658565b610628565b6105b6565b61058d565b610489565b610448565b610366565b6102ef565b61024f565b6001600160e01b031981160361024b57565b5f80fd5b3461024b57602036600319011261024b57602060043561026e81610239565b63ffffffff60e01b1663aa91a66f60e01b81149081156102de575b811561029b575b506040519015158152f35b6380ac58cd60e01b8114915081156102cd575b81156102bc575b505f610290565b6301ffc9a760e01b1490505f6102b5565b635b5e139f60e01b811491506102ae565b63ad007d6360e01b81149150610289565b3461024b575f36600319011261024b576020600d54604051908152f35b5f5b83811061031d5750505f910152565b818101518382015260200161030e565b906020916103468151809281855285808601910161030c565b601f01601f1916010190565b90602061036392818152019061032d565b90565b3461024b575f8060031936011261044557604051908080546103878161080f565b8085529160019180831690811561041b57506001146103c1575b6103bd856103b1818703826108b1565b60405191829182610352565b0390f35b80809450527f290decd9548b62a8d60345a988386fc84ba6bc95484008f6362f93160ef3e5635b8284106104035750505081016020016103b1826103bd6103a1565b805460208587018101919091529093019281016103e8565b8695506103bd969350602092506103b194915060ff191682840152151560051b82010192936103a1565b80fd5b3461024b57602036600319011261024b57602061046660043561207a565b6040516001600160a01b039091168152f35b6001600160a01b0381160361024b57565b3461024b57604036600319011261024b576004356104a681610478565b6024356104b281611fe6565b916001600160a01b038084169082168114610512576104e4936104df9133149081156104e6575b50612008565b612409565b005b6001600160a01b03165f90815260056020908152604080832033845290915281205460ff1691506104d9565b60405162461bcd60e51b815260206004820152602160248201527f4552433732313a20617070726f76616c20746f2063757272656e74206f776e656044820152603960f91b6064820152608490fd5b606090600319011261024b5760043561057981610478565b9060243561058681610478565b9060443590565b3461024b576104e461059e36610561565b916105b16105ac84336121b6565b6120b6565b6122d4565b3461024b57602036600319011261024b576004356105d381610478565b6105db611ae4565b60018060a01b0316806bffffffffffffffffffffffff60a01b600f541617600f557fe7784d93cfbfa4408e19577e6cc0436f4dbb51214b70e100905dfce9def88c166020604051338152a2005b3461024b575f36600319011261024b576020610642612d1b565b604051908152f35b9081604091031261024b5790565b3461024b57604036600319011261024b576004356024356001600160401b03811161024b5761068b90369060040161064a565b61069482611fe6565b6001600160a01b0381811633141591908261077d575b826106d1575b50506106bf576104e491611981565b60405163075fd2b160e01b8152600490fd5b60405163c161c93f60e01b81523360048201526001600160a01b039290921660248301525f604483015260066064830152909150602090829060849082907f0000000000000000000000000000000000000000000000000000000000000000165afa908115610778575f9161074a575b50155f806106b0565b61076b915060203d8111610771575b61076381836108b1565b810190611acf565b5f610741565b503d610759565b6116cd565b60405163c161c93f60e01b81523360048201526001600160a01b038316602482015260448101869052600660648201529092506020816084817f000000000000000000000000000000000000000000000000000000000000000087165afa908115610778575f916107f1575b5015916106aa565b610809915060203d81116107715761076381836108b1565b5f6107e9565b90600182811c9216801561083d575b602083101461082957565b634e487b7160e01b5f52602260045260245ffd5b91607f169161081e565b634e487b7160e01b5f52604160045260245ffd5b602081019081106001600160401b0382111761087657604052565b610847565b604081019081106001600160401b0382111761087657604052565b60c081019081106001600160401b0382111761087657604052565b90601f801991011681019081106001600160401b0382111761087657604052565b3461024b57604036600319011261024b575f60043581526020600e8152604082206024358352815260408220604051838194908354906109118261080f565b948585526001928784821691825f1461098d575050600114610951575b50505061093d925003836108b1565b6103bd60405192828493845283019061032d565b869350819291528282205b85831061097557505061093d93508201015f808061092e565b8054838901850152879450869390920191810161095c565b93509450505061093d94915060ff191682840152151560051b8201015f808061092e565b3461024b57604036600319011261024b576004356109ce81610478565b602435906109ed65ffffffffffff6109e5436131e1565b168310611b3c565b6001600160a01b03165f90815260096020526040812091610a0d90613248565b91805482938160058111610a5e575b5090602094610a2b9284612ae8565b80610a455750505b6040516001600160e01b039091168152f35b91610a518492936126cc565b928152200154811c610a33565b94610a6886613028565b8603958611610ab057602095610a2b9385875263ffffffff80838a8a20015416908516105f14610a9e5750915b91925094610a1c565b929150610aaa906126da565b90610a95565b6117ad565b3461024b576104e4610ac636610561565b9060405192610ad48461085b565b5f8452612118565b3461024b575f36600319011261024b574365ffffffffffff610afd436131e1565b1603610b48576103bd604051610b128161087b565b601d81527f6d6f64653d626c6f636b6e756d6265722666726f6d3d64656661756c74000000602082015260405191829182610352565b60405162461bcd60e51b815260206004820152601860248201527f566f7465733a2062726f6b656e20636c6f636b206d6f646500000000000000006044820152606490fd5b3461024b57602036600319011261024b576020600435610bac81610478565b60018060a01b038091165f526008825260405f205416604051908152f35b3461024b57602036600319011261024b576104e4600435610bea81610478565b33611bc2565b3461024b57602036600319011261024b576020610466600435611fe6565b3461024b57604036600319011261024b57600435610c2b81610478565b6024356001600160401b03811161024b57610c4a90369060040161064a565b600d545f198114610ab0576001019081600d5560405190610c6a8261085b565b5f82526001600160a01b038416918215610dfa57610da98492610d8a610d857fa1c6fd563bcbc3222f6031d7c26ff58cd6c701abff0bfffe652d055ce40629d494866103bd9a610cdc610cd7610cd3845f52600260205260018060a01b0360405f205416151590565b1590565b61222e565b5f82815260026020526040902054610cfd906001600160a01b03161561222e565b6001600160a01b0381165f90815260036020526040902060018154019055610d5081610d31845f52600260205260405f2090565b80546001600160a01b0319166001600160a01b03909216919091179055565b818a5f7fddf252ad1be2c89b69c2b068fc378daa952ba7f163c4a11628f55a4df523b3ef8180a4610d8081612604565b61250a565b612192565b610d9481806117c1565b9050610dbc575b604051918291339083611907565b0390a36040519081529081906020820190565b610df5610dc982806117c1565b90610df0610ddf885f52600e60205260405f2090565b60208601355f5260205260405f2090565b611846565b610d9b565b606460405162461bcd60e51b815260206004820152602060248201527f4552433732313a206d696e7420746f20746865207a65726f20616464726573736044820152fd5b3461024b57602036600319011261024b576020610642600435610e6081610478565b611f25565b3461024b575f8060031936011261044557610e7e611ae4565b600c80546001600160a01b0319811690915581906001600160a01b03167f8be0079c531659141344cd1fd0a4f28419497f9722a3daafe3b4186f6b6457e08280a380f35b3461024b57602036600319011261024b57600435610edf81610478565b60018060a01b03165f52600b602052602060405f2054604051908152f35b3461024b575f8060031936011261044557610fa690610f3b7f0000000000000000000000000000000000000000000000000000000000000000612e5b565b610f647f0000000000000000000000000000000000000000000000000000000000000000612f52565b9160405191610f728361085b565b818352604051948594600f60f81b8652610f9860209360e08589015260e088019061032d565b90868203604088015261032d565b904660608601523060808601528260a086015284820360c08601528080855193848152019401925b828110610fdd57505050500390f35b835185528695509381019392810192600101610fce565b3461024b575f36600319011261024b57600c546040516001600160a01b039091168152602090f35b3461024b57602036600319011261024b5761105360043561104e65ffffffffffff611046436131e1565b168210611b3c565b613248565b600a54905f8291600584116110a6575b61106d9350612a84565b5f816110805750506040515f8152602090f35b600a61108d6020936126cc565b91525f805160206132ae8339815191520154811c610a33565b91926110b181613028565b8103908111610ab05761106d93600a835263ffffffff80835f805160206132ae833981519152015416908516105f146110eb575091611063565b9291506110f7906126da565b90611063565b3461024b575f36600319011261024b576020611118436131e1565b65ffffffffffff60405191168152f35b3461024b575f80600319360112610445576040519080600180549161114c8361080f565b8086529282811690811561041b5750600114611172576103bd856103b1818703826108b1565b92508083527fb10e2d527612073b26eecdfd717e6a320cf44b4afac2b0732d9fcbe2b7fa0cf65b8284106111b45750505081016020016103b1826103bd6103a1565b80546020858701810191909152909301928101611199565b3461024b57602036600319011261024b576004356111e981610478565b6001600160a01b03165f9081526009602090815260409091206001600160e01b03906112149061272f565b16604051908152f35b8015150361024b57565b3461024b57604036600319011261024b5760043561124481610478565b6024356112508161121d565b6001600160a01b038216913383146112ce578161128b61129c92335f52600560205260405f209060018060a01b03165f5260205260405f2090565b9060ff801983541691151516179055565b604051901515815233907f17307eab39ab6107e8899845ad3d59bd9653f200f220920489ca2b5937696c3190602090a3005b60405162461bcd60e51b815260206004820152601960248201527f4552433732313a20617070726f766520746f2063616c6c6572000000000000006044820152606490fd5b3461024b575f36600319011261024b576040517f00000000000000000000000000000000000000000000000000000000000000006001600160a01b03168152602090f35b604051906113648261087b565b565b6001600160401b03811161087657601f01601f191660200190565b3461024b57608036600319011261024b5760043561139e81610478565b6024356113aa81610478565b606435916001600160401b03831161024b573660238401121561024b578260040135916113d683611366565b926113e460405194856108b1565b808452366024828701011161024b576020815f9260246104e49801838801378501015260443591612118565b3461024b5760c036600319011261024b5760043561142d81610478565b6064359060243560443560ff8416840361024b578042116114fd576114d06114f8916104e495604051906114b8826114aa6020820195898b8860609194939260808201957fe48329057bfd03d55e49b547132e39cffd9c1820ad7b9d4c5307691425d15adf835260018060a01b0316602083015260408201520152565b03601f1981018452836108b1565b6114cb60a4359360843593519020612e35565b612b46565b6001600160a01b0381165f908152600b60205260409020805460018101909155909214611b7f565b611bc2565b60405162461bcd60e51b815260206004820152601860248201527f566f7465733a207369676e6174757265206578706972656400000000000000006044820152606490fd5b3461024b57602036600319011261024b576103bd6115616004356116d8565b60405191829160208352602083019061032d565b3461024b575f36600319011261024b57600f546040516001600160a01b039091168152602090f35b3461024b57604036600319011261024b57602060ff6115f56004356115c181610478565b602435906115ce82610478565b60018060a01b03165f526005845260405f209060018060a01b03165f5260205260405f2090565b54166040519015158152f35b3461024b57602036600319011261024b5760043561161e81610478565b611626611ae4565b6001600160a01b0390811690811561167957600c54826bffffffffffffffffffffffff60a01b821617600c55167f8be0079c531659141344cd1fd0a4f28419497f9722a3daafe3b4186f6b6457e05f80a3005b60405162461bcd60e51b815260206004820152602660248201527f4f776e61626c653a206e6577206f776e657220697320746865207a65726f206160448201526564647265737360d01b6064820152608490fd5b6040513d5f823e3d90fd5b600f546001600160a01b031690811561179957604051918291636d02a25560e11b835260048301528160245f9485935afa91821561077857809261171b57505090565b9091503d8082843e61172d81846108b1565b820191602081840312611791578051906001600160401b038211611795570182601f820112156117915780519161176383611366565b9361177160405195866108b1565b83855260208484010111610445575090610363916020808501910161030c565b5080fd5b8280fd5b50506040516117a78161085b565b5f815290565b634e487b7160e01b5f52601160045260245ffd5b903590601e198136030182121561024b57018035906001600160401b03821161024b5760200191813603831361024b57565b90601f811161180157505050565b5f91825260208220906020601f850160051c8301941061183c575b601f0160051c01915b82811061183157505050565b818155600101611825565b909250829061181c565b9092916001600160401b0381116108765761186b81611865845461080f565b846117f3565b5f601f82116001146118a257819293945f92611897575b50508160011b915f199060031b1c1916179055565b013590505f80611882565b601f198216946118b5845f5260205f2090565b91805b8781106118ef5750836001959697106118d6575b505050811b019055565b01355f19600384901b60f8161c191690555f80806118cc565b909260206001819286860135815501940191016118b8565b9291604084528135601e198336030181121561024b57820191602083359301906001600160401b03841161024b57833603821361024b5783602060a0926113649682956040808c01528160808c0152858b01375f84848b01015201356060880152601f801991011686010194019060018060a01b03169052565b9061198c81806117c1565b5f91848352602090600e825260408420828601358552825260408420936001600160401b038411610876576119cb846119c5875461080f565b876117f3565b8092601f8511600114611a3b575092611a2b949281927fd07720acb527321c9d1766f359139d0e0e3551bd99fb3ca353d4f008f3aad8e6979592611a30575b50508160011b915f199060031b1c1916179055604051918291339083611907565b0390a2565b013590505f80611a0a565b601f93919319851690611a51875f5260205f2090565b94905b828210611ab75750509260019285927fd07720acb527321c9d1766f359139d0e0e3551bd99fb3ca353d4f008f3aad8e69896611a2b989610611a9e575b505050811b019055610d9b565b01355f19600384901b60f8161c191690555f8080611a91565b80600185978294968801358155019601930190611a54565b9081602091031261024b57516103638161121d565b600c546001600160a01b03163303611af857565b606460405162461bcd60e51b815260206004820152602060248201527f4f776e61626c653a2063616c6c6572206973206e6f7420746865206f776e65726044820152fd5b15611b4357565b60405162461bcd60e51b81526020600482015260146024820152730566f7465733a20667574757265206c6f6f6b75760641b6044820152606490fd5b15611b8657565b60405162461bcd60e51b8152602060048201526014602482015273566f7465733a20696e76616c6964206e6f6e636560601b6044820152606490fd5b6001600160a01b038181165f81815260086020526040812080548685166001600160a01b0319821681179092559095931693611c27929091869186917f3134e8a2e6d97e929a7e54011ea5485d7d196dd5f0ba4d4ef95803e8e3fc257f9080a4611f25565b918381141580611d44575b611c3d575b50505050565b80611cac575b5082611c50575b80611c37565b6001600160a01b03165f9081526009602052604090205f805160206132ce83398151915291611c8991611c839091613178565b90611e8b565b604080516001600160e01b039384168152919092166020820152a25f8080611c4a565b6001600160a01b0381165f908152600960205260409020611ccc84613178565b611ce565ffffffffffff611cdf436131e1565b16613248565b6001600160e01b03918280611cf98661272f565b169116900392828411610ab0575f805160206132ce83398151915293611d3b92611d22926129a3565b6040805192851683529316602082015291829190820190565b0390a25f611c43565b50821515611c32565b6001600160a01b038083169291908116908184141580611e45575b611d725750505050565b81611dd7575b505081611d87575b8080611c37565b6001600160a01b03165f9081526009602052604090205f805160206132ce83398151915290611db590611e4d565b604080516001600160e01b039384168152919092166020820152a25f80611d80565b6001600160a01b03165f908152600960205260409020611e0065ffffffffffff611cdf436131e1565b6001600160e01b03905f1982611e158561272f565b160192828411610ab0575f805160206132ce83398151915293611e3b92611d22926129a3565b0390a25f80611d78565b506001611d68565b611e6065ffffffffffff611cdf436131e1565b6001600160e01b0390600182611e758561272f565b1601918211610ab057611e87926129a3565b9091565b90611e9f65ffffffffffff611cdf436131e1565b6001600160e01b03918280611eb38661272f565b16911601918211610ab057611e87926129a3565b611eda65ffffffffffff611cdf436131e1565b6001600160e01b03600181611eed6126e8565b1601908111610ab057611e8791612888565b611f1265ffffffffffff611cdf436131e1565b6001600160e01b035f1981611eed6126e8565b6001600160a01b03168015611f43575f52600360205260405f205490565b60405162461bcd60e51b815260206004820152602960248201527f4552433732313a2061646472657373207a65726f206973206e6f7420612076616044820152683634b21037bbb732b960b91b6064820152608490fd5b15611fa157565b60405162461bcd60e51b815260206004820152601860248201527f4552433732313a20696e76616c696420746f6b656e20494400000000000000006044820152606490fd5b5f908152600260205260409020546001600160a01b0316610363811515611f9a565b1561200f57565b60405162461bcd60e51b815260206004820152603d60248201527f4552433732313a20617070726f76652063616c6c6572206973206e6f7420746f60448201527f6b656e206f776e6572206f7220617070726f76656420666f7220616c6c0000006064820152608490fd5b5f8181526002602052604090205461209c906001600160a01b03161515611f9a565b5f908152600460205260409020546001600160a01b031690565b156120bd57565b60405162461bcd60e51b815260206004820152602d60248201527f4552433732313a2063616c6c6572206973206e6f7420746f6b656e206f776e6560448201526c1c881bdc88185c1c1c9bdd9959609a1b6064820152608490fd5b916113649391610d859361212f6105ac84336121b6565b61213a8383836122d4565b6125c9565b60809060208152603260208201527f4552433732313a207472616e7366657220746f206e6f6e20455243373231526560408201527131b2b4bb32b91034b6b83632b6b2b73a32b960711b60608201520190565b1561219957565b60405162461bcd60e51b8152806121b26004820161213f565b0390fd5b6001600160a01b03806121c884611fe6565b1692818316928484149485156121fe575b505083156121e8575b50505090565b6121f49192935061207a565b16145f80806121e2565b5f9081526005602090815260408083206001600160a01b039490941683529290529081205460ff169450806121d9565b1561223557565b60405162461bcd60e51b815260206004820152601c60248201527f4552433732313a20746f6b656e20616c7265616479206d696e746564000000006044820152606490fd5b1561228157565b60405162461bcd60e51b815260206004820152602560248201527f4552433732313a207472616e736665722066726f6d20696e636f72726563742060448201526437bbb732b960d91b6064820152608490fd5b6122f8926122e181611fe6565b6001600160a01b038381169590918216861461227a565b831680156123b857846123266113649661232061231486611fe6565b6001600160a01b031690565b1461227a565b61234b61233b845f52600460205260405f2090565b80546001600160a01b0319169055565b6001600160a01b038481165f90815260036020908152604080832080545f19019055928816825282822080546001019055858252600290522061238f908690610d31565b7fddf252ad1be2c89b69c2b068fc378daa952ba7f163c4a11628f55a4df523b3ef5f80a461266e565b60405162461bcd60e51b8152602060048201526024808201527f4552433732313a207472616e7366657220746f20746865207a65726f206164646044820152637265737360e01b6064820152608490fd5b5f82815260046020526040902080546001600160a01b0319166001600160a01b0383161790556001600160a01b038061244184611fe6565b169116907f8c5be1e5ebec7d5bd14f71427d1e84f3dd0314c0f7b2291e5b200ac8c7c3b9255f80a4565b9081602091031261024b575161036381610239565b610363939260809260018060a01b031682525f60208301526040820152816060820152019061032d565b6001600160a01b0391821681529116602082015260408101919091526080606082018190526103639291019061032d565b3d15612505573d906124ec82611366565b916124fa60405193846108b1565b82523d5f602084013e565b606090565b909190803b156125c15761253b6020915f93604051948580948193630a85bd0160e11b998a84523360048501612480565b03926001600160a01b03165af15f9181612591575b506125835761255d6124db565b8051908161257e5760405162461bcd60e51b8152806121b26004820161213f565b602001fd5b6001600160e01b0319161490565b6125b391925060203d81116125ba575b6125ab81836108b1565b81019061246b565b905f612550565b503d6125a1565b505050600190565b92909190823b156125fb5761253b926020925f604051809681958294630a85bd0160e11b9a8b855233600486016124aa565b50505050600190565b61136490612610611ec7565b50506001600160a01b0390811690811561265f575b60086020527f5eff886ea0ce6ca488a3d6e336d6c0f75f46d19b42c06ce5ee98e42c96d256c7545f92835260409092205481169116611d4d565b612667611eff565b5050612625565b611364916001600160a01b039182169190819083156126bd575b169182156126ae575b5f5260086020528060405f205416915f5260405f20541690611d4d565b6126b6611eff565b5050612691565b6126c5611ec7565b5050612688565b5f19810191908211610ab057565b9060018201809211610ab057565b600a545f90806126f85750505f90565b805f19810111610ab057600a7fc65a7bb8d6351c1cf70c95a316cc6a92839c986682d98bc35f958f4883f9d2a79252015460201c90565b80545f918161273f575050505f90565b5f19928284810111610ab05760209181522001015460201c90565b600a5490600160401b821015610876576001820180600a558210156127ad57600a5f52805160209182015190911b63ffffffff191663ffffffff91909116175f805160206132ae83398151915290910155565b634e487b7160e01b5f52603260045260245ffd5b908154600160401b81101561087657600181018084558110156127ad575f92835260209283902082519284015190931b63ffffffff191663ffffffff9290921691909117910155565b90604051604081018181106001600160401b0382111761087657604052602081935463ffffffff81168352811c910152565b1561284357565b60405162461bcd60e51b815260206004820152601b60248201527f436865636b706f696e743a2064656372656173696e67206b65797300000000006044820152606490fd5b600a54919291801561297a576129409181856128c66128c16128ab6020966126cc565b600a5f525f805160206132ae8339815191520190565b61280a565b926128d5845163ffffffff1690565b6128ec63ffffffff9182841692839116111561283c565b6129066128fd865163ffffffff1690565b63ffffffff1690565b03612944575061291b6128ab612932936126cc565b9063ffffffff82549181199060201b169116179055565b01516001600160e01b031690565b9190565b90506129759150612962612956611357565b63ffffffff9092168252565b6001600160e01b0387168185015261275a565b612932565b5061299e9061298a612956611357565b6001600160e01b038416602082015261275a565b5f9190565b909291928382548015155f14612a5f579260209291846129d66128c16129cb612940986126cc565b855f5260205f200190565b936129e5855163ffffffff1690565b6129fc63ffffffff9182841692839116111561283c565b612a0d6128fd875163ffffffff1690565b03612a2e575061293292612a2361291b926126cc565b905f5260205f200190565b91505061297591612a4c612a40611357565b63ffffffff9093168352565b6001600160e01b038816828601526127c1565b505061299e91612a70612a40611357565b6001600160e01b03851660208301526127c1565b905b828110612a9257505090565b90918082169080831860011c8201809211610ab057600a5f5263ffffffff80835f805160206132ae833981519152015416908516105f14612ad65750915b90612a86565b929150612ae2906126da565b90612ad0565b91905b838210612af85750505090565b9091928083169080841860011c8201809211610ab0575f8581526020902082015463ffffffff9081169084161015612b345750925b9190612aeb565b939250612b40906126da565b91612b2d565b916103639391612b5593612c9b565b919091612b7b565b60051115612b6757565b634e487b7160e01b5f52602160045260245ffd5b612b8481612b5d565b80612b8c5750565b612b9581612b5d565b60018103612be25760405162461bcd60e51b815260206004820152601860248201527f45434453413a20696e76616c6964207369676e617475726500000000000000006044820152606490fd5b612beb81612b5d565b60028103612c385760405162461bcd60e51b815260206004820152601f60248201527f45434453413a20696e76616c6964207369676e6174757265206c656e677468006044820152606490fd5b80612c44600392612b5d565b14612c4b57565b60405162461bcd60e51b815260206004820152602260248201527f45434453413a20696e76616c6964207369676e6174757265202773272076616c604482015261756560f01b6064820152608490fd5b9291907f7fffffffffffffffffffffffffffffff5d576e7357a4501ddfe92f46681b20a08311612d105791608094939160ff6020946040519485521684840152604083015260608201525f93849182805260015afa156107785781516001600160a01b03811615612d0a579190565b50600190565b505050505f90600390565b307f00000000000000000000000000000000000000000000000000000000000000006001600160a01b03161480612e0c575b15612d76577f000000000000000000000000000000000000000000000000000000000000000090565b60405160208101907f8b73c3c69bb8fe3d512ecc4cf759cc79239f7b179b0ffacaa9a75d522b39400f82527f000000000000000000000000000000000000000000000000000000000000000060408201527f000000000000000000000000000000000000000000000000000000000000000060608201524660808201523060a082015260a08152612e0681610896565b51902090565b507f00000000000000000000000000000000000000000000000000000000000000004614612d4d565b604290612e40612d1b565b906040519161190160f01b8352600283015260228201522090565b60ff8114612e995760ff811690601f8211612e875760405191612e7d8361087b565b8252602082015290565b604051632cd44ac360e21b8152600490fd5b50604051600654815f612eab8361080f565b80835292600190818116908115612f305750600114612ed2575b50610363925003826108b1565b60065f90815291507ff652222313e28459528d920b65115c16c04f3efc82aaedc97be59f3f377c0d3f5b848310612f15575061036393505081016020015f612ec5565b81935090816020925483858901015201910190918492612efc565b90506020925061036394915060ff191682840152151560051b8201015f612ec5565b60ff8114612f745760ff811690601f8211612e875760405191612e7d8361087b565b50604051600754815f612f868361080f565b80835292600190818116908115612f305750600114612fac5750610363925003826108b1565b60075f90815291507fa66cc928b5edb82af9bd49922954155ab7b0942694bea4ce44661d9a8736c6885b848310612fef575061036393505081016020015f612ec5565b81935090816020925483858901015201910190918492612fd6565b8115613014570490565b634e487b7160e01b5f52601260045260245ffd5b801561316157806130fa6130f36130e96130df6130d56130cb6130c16130b760016103639a5f908b60801c80613155575b508060401c80613148575b508060201c8061313b575b508060101c8061312e575b508060081c80613121575b508060041c80613114575b508060021c80613107575b50821c613100575b811c1b6130b0818b61300a565b0160011c90565b6130b0818a61300a565b6130b0818961300a565b6130b0818861300a565b6130b0818761300a565b6130b0818661300a565b6130b0818561300a565b809261300a565b90613166565b81016130a3565b600291509101905f61309b565b600491509101905f613090565b600891509101905f613085565b601091509101905f61307a565b602091509101905f61306f565b604091509101905f613064565b9150506080905f613059565b505f90565b9080821015613173575090565b905090565b6001600160e01b039081811161318c571690565b60405162461bcd60e51b815260206004820152602760248201527f53616665436173743a2076616c756520646f65736e27742066697420696e20326044820152663234206269747360c81b6064820152608490fd5b65ffffffffffff908181116131f4571690565b60405162461bcd60e51b815260206004820152602660248201527f53616665436173743a2076616c756520646f65736e27742066697420696e203460448201526538206269747360d01b6064820152608490fd5b63ffffffff90818111613259571690565b60405162461bcd60e51b815260206004820152602660248201527f53616665436173743a2076616c756520646f65736e27742066697420696e203360448201526532206269747360d01b6064820152608490fdfec65a7bb8d6351c1cf70c95a316cc6a92839c986682d98bc35f958f4883f9d2a8dec2bacdd2f05b59de34da9b523dff8be42e5e38e818c82fdb0bae774387a724a2646970667358221220f8ba2b103483cec2b24f009420a58cab1b6b325cdf8f2be2033be94769b9b8c664736f6c63430008140033","linkReferences":{}},"methodIdentifiers":{"CLOCK_MODE()":"4bf5d7e9","DOMAIN_SEPARATOR()":"3644e515","approve(address,uint256)":"095ea7b3","balanceOf(address)":"70a08231","clock()":"91ddadf4","count()":"06661abd","createFor(address,(string,uint256))":"666d87a0","delegate(address)":"5c19a95c","delegateBySig(address,uint256,uint256,uint8,bytes32,bytes32)":"c3cda520","delegates(address)":"587cde1e","eip712Domain()":"84b0196e","getApproved(uint256)":"081812fc","getPastTotalSupply(uint256)":"8e539e8c","getPastVotes(address,uint256)":"3a46b1a8","getVotes(address)":"9ab24eb0","isApprovedForAll(address,address)":"e985e9c5","metadataContentOf(uint256,uint256)":"39fbc775","name()":"06fdde03","nonces(address)":"7ecebe00","operatorStore()":"ad007d63","owner()":"8da5cb5b","ownerOf(uint256)":"6352211e","renounceOwnership()":"715018a6","safeTransferFrom(address,address,uint256)":"42842e0e","safeTransferFrom(address,address,uint256,bytes)":"b88d4fde","setApprovalForAll(address,bool)":"a22cb465","setMetadataOf(uint256,(string,uint256))":"36574975","setTokenUriResolver(address)":"2407497e","supportsInterface(bytes4)":"01ffc9a7","symbol()":"95d89b41","tokenURI(uint256)":"c87b56dd","tokenUriResolver()":"e131fc0c","transferFrom(address,address,uint256)":"23b872dd","transferOwnership(address)":"f2fde38b"},"id":79}