{"abi":[{"type":"constructor","inputs":[{"name":"_operatorStore","type":"address","internalType":"contract IJBOperatorStore"},{"name":"_projects","type":"address","internalType":"contract IJBProjects"},{"name":"_deployer","type":"address","internalType":"contract DefifaDeployer"}],"stateMutability":"nonpayable"},{"type":"function","name":"deployer","inputs":[],"outputs":[{"name":"","type":"address","internalType":"contract DefifaDeployer"}],"stateMutability":"view"},{"type":"function","name":"onERC721Received","inputs":[{"name":"_operator","type":"address","internalType":"address"},{"name":"_from","type":"address","internalType":"address"},{"name":"_tokenId","type":"uint256","internalType":"uint256"},{"name":"_data","type":"bytes","internalType":"bytes"}],"outputs":[{"name":"","type":"bytes4","internalType":"bytes4"}],"stateMutability":"nonpayable"},{"type":"function","name":"operatorStore","inputs":[],"outputs":[{"name":"","type":"address","internalType":"contract IJBOperatorStore"}],"stateMutability":"view"},{"type":"function","name":"projects","inputs":[],"outputs":[{"name":"","type":"address","internalType":"contract IJBProjects"}],"stateMutability":"view"}],"bytecode":{"object":"0x6080346100a257601f61039038819003918201601f19168301916001600160401b038311848410176100a6578084926060946040528339810103126100a25780516001600160a01b0391828216918290036100a2576020810151908382168092036100a257604001519283168093036100a25760018060a01b031991825f5416175f5581600154161760015560025416176002556040516102d590816100bb8239f35b5f80fd5b634e487b7160e01b5f52604160045260245ffdfe60806040818152600480361015610014575f80fd5b5f92833560e01c918263150b7a02146100c757505080638b79543c1461009f578063ad007d63146100785763d5f394881461004d575f80fd5b3461007457816003193601126100745760025490516001600160a01b039091168152602090f35b5080fd5b5034610074578160031936011261007457905490516001600160a01b039091168152602090f35b503461007457816003193601126100745760015490516001600160a01b039091168152602090f35b84849134610074576080366003190112610074576001600160a01b039181358381160361029c576024918235848116036100745767ffffffffffffffff6064358181116102905736602382011215610290578083013582811161029857369101850111610294576001858154163303610290578688018881108382111761027d5787528088526020978881018936823781511561026b576012905286855416918760025416918951926060840184811087821117610259578b5283528a830160443581528a8401918252843b156102555792879492918c948c519b8c9663294e6e9760e11b88528a880152608487019351168b87015251604486015251916060606486015282518092528c60a486019301918d87905b82821061023b5750505050508383809203925af180156102315761020c575b8551630a85bd0160e11b81528790f35b841161022157505050815282808080806101fc565b634e487b7160e01b825260419052fd5b86513d85823e3d90fd5b845186528b98508d9750948501949093019282018e6101dd565b8780fd5b634e487b7160e01b8952604188528989fd5b634e487b7160e01b8652603285528686fd5b5050634e487b7160e01b83525060419052fd5b8380fd5b8280fd5b8480fd5b80fdfea26469706673582212204a29a77cbb43b67f0fce96e05f83e3452cac13dc7ee314b4a4e6ea428d93a51564736f6c63430008140033","linkReferences":{}},"methodIdentifiers":{"deployer()":"d5f39488","onERC721Received(address,address,uint256,bytes)":"150b7a02","operatorStore()":"ad007d63","projects()":"8b79543c"},"id":4}