{"abi":[{"type":"constructor","inputs":[{"name":"_operatorStore","type":"address","internalType":"contract IJBOperatorStore"},{"name":"_projects","type":"address","internalType":"contract IJBProjects"},{"name":"_fundingCycleStore","type":"address","internalType":"contract IJBFundingCycleStore"},{"name":"_owner","type":"address","internalType":"address"}],"stateMutability":"nonpayable"},{"type":"function","name":"controllerOf","inputs":[{"name":"","type":"uint256","internalType":"uint256"}],"outputs":[{"name":"","type":"address","internalType":"address"}],"stateMutability":"view"},{"type":"function","name":"fundingCycleStore","inputs":[],"outputs":[{"name":"","type":"address","internalType":"contract IJBFundingCycleStore"}],"stateMutability":"view"},{"type":"function","name":"isAllowedToSetFirstController","inputs":[{"name":"","type":"address","internalType":"address"}],"outputs":[{"name":"","type":"bool","internalType":"bool"}],"stateMutability":"view"},{"type":"function","name":"isTerminalOf","inputs":[{"name":"_projectId","type":"uint256","internalType":"uint256"},{"name":"_terminal","type":"address","internalType":"contract IJBPaymentTerminal"}],"outputs":[{"name":"","type":"bool","internalType":"bool"}],"stateMutability":"view"},{"type":"function","name":"operatorStore","inputs":[],"outputs":[{"name":"","type":"address","internalType":"contract IJBOperatorStore"}],"stateMutability":"view"},{"type":"function","name":"owner","inputs":[],"outputs":[{"name":"","type":"address","internalType":"address"}],"stateMutability":"view"},{"type":"function","name":"primaryTerminalOf","inputs":[{"name":"_projectId","type":"uint256","internalType":"uint256"},{"name":"_token","type":"address","internalType":"address"}],"outputs":[{"name":"","type":"address","internalType":"contract IJBPaymentTerminal"}],"stateMutability":"view"},{"type":"function","name":"projects","inputs":[],"outputs":[{"name":"","type":"address","internalType":"contract IJBProjects"}],"stateMutability":"view"},{"type":"function","name":"renounceOwnership","inputs":[],"outputs":[],"stateMutability":"nonpayable"},{"type":"function","name":"setControllerOf","inputs":[{"name":"_projectId","type":"uint256","internalType":"uint256"},{"name":"_controller","type":"address","internalType":"address"}],"outputs":[],"stateMutability":"nonpayable"},{"type":"function","name":"setIsAllowedToSetFirstController","inputs":[{"name":"_address","type":"address","internalType":"address"},{"name":"_flag","type":"bool","internalType":"bool"}],"outputs":[],"stateMutability":"nonpayable"},{"type":"function","name":"setPrimaryTerminalOf","inputs":[{"name":"_projectId","type":"uint256","internalType":"uint256"},{"name":"_token","type":"address","internalType":"address"},{"name":"_terminal","type":"address","internalType":"contract IJBPaymentTerminal"}],"outputs":[],"stateMutability":"nonpayable"},{"type":"function","name":"setTerminalsOf","inputs":[{"name":"_projectId","type":"uint256","internalType":"uint256"},{"name":"_terminals","type":"address[]","internalType":"contract IJBPaymentTerminal[]"}],"outputs":[],"stateMutability":"nonpayable"},{"type":"function","name":"terminalsOf","inputs":[{"name":"_projectId","type":"uint256","internalType":"uint256"}],"outputs":[{"name":"","type":"address[]","internalType":"contract IJBPaymentTerminal[]"}],"stateMutability":"view"},{"type":"function","name":"transferOwnership","inputs":[{"name":"newOwner","type":"address","internalType":"address"}],"outputs":[],"stateMutability":"nonpayable"},{"type":"event","name":"AddTerminal","inputs":[{"name":"projectId","type":"uint256","indexed":true,"internalType":"uint256"},{"name":"terminal","type":"address","indexed":true,"internalType":"contract IJBPaymentTerminal"},{"name":"caller","type":"address","indexed":false,"internalType":"address"}],"anonymous":false},{"type":"event","name":"OwnershipTransferred","inputs":[{"name":"previousOwner","type":"address","indexed":true,"internalType":"address"},{"name":"newOwner","type":"address","indexed":true,"internalType":"address"}],"anonymous":false},{"type":"event","name":"SetController","inputs":[{"name":"projectId","type":"uint256","indexed":true,"internalType":"uint256"},{"name":"controller","type":"address","indexed":true,"internalType":"address"},{"name":"caller","type":"address","indexed":false,"internalType":"address"}],"anonymous":false},{"type":"event","name":"SetIsAllowedToSetFirstController","inputs":[{"name":"addr","type":"address","indexed":true,"internalType":"address"},{"name":"flag","type":"bool","indexed":true,"internalType":"bool"},{"name":"caller","type":"address","indexed":false,"internalType":"address"}],"anonymous":false},{"type":"event","name":"SetPrimaryTerminal","inputs":[{"name":"projectId","type":"uint256","indexed":true,"internalType":"uint256"},{"name":"token","type":"address","indexed":true,"internalType":"address"},{"name":"terminal","type":"address","indexed":true,"internalType":"contract IJBPaymentTerminal"},{"name":"caller","type":"address","indexed":false,"internalType":"address"}],"anonymous":false},{"type":"event","name":"SetTerminals","inputs":[{"name":"projectId","type":"uint256","indexed":true,"internalType":"uint256"},{"name":"terminals","type":"address[]","indexed":false,"internalType":"contract IJBPaymentTerminal[]"},{"name":"caller","type":"address","indexed":false,"internalType":"address"}],"anonymous":false},{"type":"error","name":"DUPLICATE_TERMINALS","inputs":[]},{"type":"error","name":"INVALID_PROJECT_ID_IN_DIRECTORY","inputs":[]},{"type":"error","name":"SET_CONTROLLER_NOT_ALLOWED","inputs":[]},{"type":"error","name":"SET_TERMINALS_NOT_ALLOWED","inputs":[]},{"type":"error","name":"TOKEN_NOT_ACCEPTED","inputs":[]},{"type":"error","name":"UNAUTHORIZED","inputs":[]}],"bytecode":{"object":"0x60e03461011857601f6200168b38819003918201601f19168301916001600160401b0383118484101761011c57808492608094604052833981010312610118578051906001600160a01b03908183168303610118576020810151828116810361011857604082015191838316830361011857606001519283168303610118576100999360805261008e33610130565b60a05260c052610130565b60405161151490816200017782396080518181816102860152818161073d015281816107dc01528181610b4001528181610bc601528181610e590152610edc015260a051818181610376015281816104590152818161090a0152610cfb015260c0518181816104cf015281816109bb01528181610f9e01526113130152f35b5f80fd5b634e487b7160e01b5f52604160045260245ffd5b5f80546001600160a01b039283166001600160a01b03198216811783559216907f8be0079c531659141344cd1fd0a4f28419497f9722a3daafe3b4186f6b6457e09080a356fe60806040818152600480361015610014575f80fd5b5f92833560e01c908163557e715514610f8a575080635dd8f6aa14610f5857806363d0850a14610ca85780636e49181f14610c77578063714e7f32146108c9578063715018a61461086f578063821b9fd8146103e157806386202650146103a55780638b79543c146103615780638da5cb5b14610339578063a1ed3175146102b9578063ad007d6314610271578063c5664e2114610235578063d17541531461018a5763f2fde38b146100c5575f80fd5b34610186576020366003190112610186576100de610fe7565b906100e7611487565b6001600160a01b0391821692831561013457505082546001600160a01b0319811683178455167f8be0079c531659141344cd1fd0a4f28419497f9722a3daafe3b4186f6b6457e08380a380f35b906020608492519162461bcd60e51b8352820152602660248201527f4f776e61626c653a206e6577206f776e657220697320746865207a65726f206160448201526564647265737360d01b6064820152fd5b8280fd5b50346101865760209081600319360112610231573583526001808252828420835181548082529186528386208185019693949192879190855b81811061021557505050826101d991038361102d565b8451948186019282875251809352850195925b8281106101f95785870386f35b83516001600160a01b03168752958101959281019284016101ec565b82546001600160a01b03168452928401929187019187016101c3565b8380fd5b50346101865760203660031901126101865760209260ff918391906001600160a01b03610260610fe7565b168252855220541690519015158152f35b5050346102b557816003193601126102b557517f00000000000000000000000000000000000000000000000000000000000000006001600160a01b03168152602090f35b5080fd5b50346101865781600319360112610186576102d2610fe7565b9160243592831515809403610335577f11207664cc48b0fa81c8674795f1d8f642960f38d5d2d305ad813093bed85fab9160209161030e611487565b6001600160a01b0316808752938252808620805460ff191660ff871617905551338152a380f35b8480fd5b5050346102b557816003193601126102b557905490516001600160a01b039091168152602090f35b5050346102b557816003193601126102b557517f00000000000000000000000000000000000000000000000000000000000000006001600160a01b03168152602090f35b5091346103de57816003193601126103de57506103cd6020926103c6610fcd565b9035611090565b90516001600160a01b039091168152f35b80fd5b509190346102b557806003193601126102b55782359060249384359067ffffffffffffffff80831161086b573660238401121561086b578282013590811161086b57868301928736918360051b01011161086b5783516331a9108f60e11b81528281018690526020976001600160a01b0391898183817f000000000000000000000000000000000000000000000000000000000000000087165afa9081156107a357899161083e575b5087895260038a5282878a2054163314159081610831575b816107ad575b8161070e575b506106fe5785516321d1336160e11b815284810188905261012090818184817f000000000000000000000000000000000000000000000000000000000000000088165afa9182156106f4578a926106c7575b505087895260038a5282878a20541633141590816106b5575b506106a557868852600193848a52868920600160401b851161069357805485825580861061066c575b50895289892086868b5b878110610653575091505084116105d4575b50509190808551958087019087525260608501939287905b8282106105ad57338a88015288887fb648241d83df6540fc10f2acc641e4bf80a1e84e7ae2f1f6b0ad204b8fee635b8989038aa280f35b909192939485358281168091036105d05781528901948901939291830190610576565b8980fd5b885b8481106105e3575061055e565b8581019081811161064157815b8681106105fe5750506105d6565b888680610622610617858c61061c6106178a838a6112ca565b6112b6565b966112ca565b169116146106315787016105f0565b8951633e3830ab60e11b81528490fd5b634e487b7160e01b8b5260118352838bfd5b8d61065d846112b6565b9301928185015501879061054c565b818b5286868d8d2092830192015b828110610688575050610542565b8c815501879061067a565b50634e487b7160e01b89526041905287fd5b85516375fef35f60e11b81528490fd5b6106bf915061143a565b51155f610519565b6106e69250803d106106ed575b6106de818361102d565b810190611225565b5f80610500565b503d6106d4565b88513d8c823e3d90fd5b855163075fd2b160e01b81528490fd5b875163c161c93f60e01b8152338782015290841683820152604481018a9052600f6064820152905089816084817f000000000000000000000000000000000000000000000000000000000000000087165afa9081156107a3578991610776575b50155f6104ae565b61079691508a3d8c1161079c575b61078e818361102d565b810190611078565b5f61076e565b503d610784565b87513d8b823e3d90fd5b9050865163c161c93f60e01b8152338682015283821683820152886044820152600f60648201528a81608481877f0000000000000000000000000000000000000000000000000000000000000000165afa9081156106f4578a91610814575b5015906104a8565b61082b91508b3d8d1161079c5761078e818361102d565b5f61080c565b33848216141591506104a2565b61085e91508a3d8c11610864575b610856818361102d565b810190611206565b5f61048a565b503d61084c565b8580fd5b83346103de57806003193601126103de57610888611487565b80546001600160a01b03198116825581906001600160a01b03167f8be0079c531659141344cd1fd0a4f28419497f9722a3daafe3b4186f6b6457e08280a380f35b50346101865781600319360112610186578035906108e5610fcd565b83516331a9108f60e11b8152808301849052909360209290916001600160a01b0391907f00000000000000000000000000000000000000000000000000000000000000008316908581602481855afa908115610aaa578991610c5a575b508689526003865283858a20541633148015610c32575b159081610c25575b81610b96575b81610b10575b50610b01578482918551928380926306661abd60e01b82525afa908115610af7579086918991610ac2575b5010610ab45782516321d1336160e11b81528181018690526101209081816024817f000000000000000000000000000000000000000000000000000000000000000088165afa918215610aaa578992610a8d575b5050858852600385528483858a20541691823314159283610a83575b5082610a6e575b5050610a6057508386526003835281862080546001600160a01b031916959091169485179055513381527f7f9a7dcb234c909a09de2f344661ad9e5b24067adb97c908647c2edcbb121c309190a380f35b825163a33db4cb60e01b8152fd5b610a7991925061143a565b015115845f610a0f565b151592505f610a08565b610aa39250803d106106ed576106de818361102d565b5f806109ec565b85513d8b823e3d90fd5b8251634a283a5360e11b8152fd5b809250868092503d8311610af0575b610adb818361102d565b81010312610aec578590515f610998565b8780fd5b503d610ad1565b84513d8a823e3d90fd5b50825163075fd2b160e01b8152fd5b855163c161c93f60e01b815233858201529085166024820152604481018a9052600e6064820152905085816084817f000000000000000000000000000000000000000000000000000000000000000088165afa908115610aaa578991610b79575b50155f61096d565b610b909150863d881161079c5761078e818361102d565b5f610b71565b9050845163c161c93f60e01b815233848201528482166024820152876044820152600e60648201528681608481887f0000000000000000000000000000000000000000000000000000000000000000165afa908115610c1b578a91610bfe575b501590610967565b610c159150873d891161079c5761078e818361102d565b5f610bf6565b86513d8c823e3d90fd5b3385821614159150610961565b5033895282865260ff858a205416801561095957508689526003865283858a20541615610959565b610c719150863d881161086457610856818361102d565b5f610942565b5091346103de57816003193601126103de5750610c9f602092610c98610fcd565b903561119b565b90519015158152f35b5034610186576060366003190112610186578035610cc4610fcd565b6044356001600160a01b038181169592949291868103610aec5782516331a9108f60e11b81528481018690526020949085816024817f000000000000000000000000000000000000000000000000000000000000000088165afa908115610e13579084918b91610f3b575b5016803314159081610eae575b81610e2b575b50610e1d57835163df21a7dd60e01b81526001600160a01b0388168282019081526020810188905286908290819060400103818c5afa908115610e13578a91610df6575b5015610de8575090610dbb7fc670a502bbb9f8a4315f95eca901a9f99b65f89a2eb5705a58050e5c00f9d672949392866112da565b84885260028352818820951680885294825280872080546001600160a01b0319168717905551338152a480f35b8351630faa917b60e11b8152fd5b610e0d9150863d881161079c5761078e818361102d565b5f610d86565b85513d8c823e3d90fd5b835163075fd2b160e01b8152fd5b905084519063c161c93f60e01b825233838301526024820152896044820152601060648201528581608481877f0000000000000000000000000000000000000000000000000000000000000000165afa908115610e13578a91610e91575b50155f610d42565b610ea89150863d881161079c5761078e818361102d565b5f610e89565b9050845163c161c93f60e01b81523383820152816024820152876044820152601060648201528681608481887f0000000000000000000000000000000000000000000000000000000000000000165afa908115610f31578b91610f14575b501590610d3c565b610f2b9150873d891161079c5761078e818361102d565b5f610f0c565b86513d8d823e3d90fd5b610f529150873d891161086457610856818361102d565b5f610d2f565b50346101865760203660031901126101865735825260036020908152918190205490516001600160a01b039091168152f35b8490346102b557816003193601126102b5577f00000000000000000000000000000000000000000000000000000000000000006001600160a01b03168152602090f35b602435906001600160a01b0382168203610fe357565b5f80fd5b600435906001600160a01b0382168203610fe357565b6060810190811067ffffffffffffffff82111761101957604052565b634e487b7160e01b5f52604160045260245ffd5b90601f8019910116810190811067ffffffffffffffff82111761101957604052565b8054821015611064575f5260205f2001905f90565b634e487b7160e01b5f52603260045260245ffd5b90816020910312610fe357518015158103610fe35790565b5f918183526020906002825260408085209260018060a01b0393848416875281528382872054168015158061118b575b61118157508486526001948582528287205494875b8681106110e757505050505050505090565b828952878452816110fa82878c2061104f565b9054875163df21a7dd60e01b81526001600160a01b038a1660048201526024810187905260039290921b1c91909116908581604481855afa908115611177578b9161115a575b5061114d575087016110d5565b9850505050505050505090565b6111719150863d881161079c5761078e818361102d565b5f611140565b87513d8d823e3d90fd5b9550505050505090565b50611196818761119b565b6110c0565b91905f9083825260019060209082825260408085205492855b8481106111c657509496505050505050565b8887528582526111d88184892061104f565b905460039190911b1c6001600160a01b03908116908516146111fb5785016111b4565b509396505050505050565b90816020910312610fe357516001600160a01b0381168103610fe35790565b80916101209283910312610fe35760405191820182811067ffffffffffffffff82111761101957604052805182526020810151602083015260408101516040830152606081015160608301526080810151608083015260a081015160a083015260c081015160c083015260e081015160018060a01b0381168103610fe35760e0830152610100809101519082015290565b356001600160a01b0381168103610fe35790565b91908110156110645760051b0190565b6112e4828261119b565b61141857604080516321d1336160e11b8152600481018390526001600160a01b039391906101209081816024817f00000000000000000000000000000000000000000000000000000000000000008a165afa91821561140e575f926113f1575b5050835f52600360205284825f20541633141590816113df575b506113cf57825f526001602052805f2090815492600160401b84101561101957856113b28560209560017f409bccc07b7cf7807930526a24318212d614c59f2dde05a017a41efee144e7c89801815561104f565b979092169682549060031b9188831b921b191617905551338152a3565b516375fef35f60e11b8152600490fd5b6113e9915061143a565b51155f61135e565b6114079250803d106106ed576106de818361102d565b5f80611344565b83513d5f823e3d90fd5b5050565b6040519061142982610ffd565b5f6040838281528260208201520152565b6101009061144661141c565b50015161145161141c565b506040519061145f82610ffd565b6001818180809460081c1614845281808260091c16146020850152600a1c1614604082015290565b5f546001600160a01b0316330361149a57565b606460405162461bcd60e51b815260206004820152602060248201527f4f776e61626c653a2063616c6c6572206973206e6f7420746865206f776e65726044820152fdfea26469706673582212205fdb920a331738d23734a94b1ec7e259d518ace978e3e7cb014ce96b4b910a2164736f6c63430008140033","linkReferences":{}},"methodIdentifiers":{"controllerOf(uint256)":"5dd8f6aa","fundingCycleStore()":"557e7155","isAllowedToSetFirstController(address)":"c5664e21","isTerminalOf(uint256,address)":"6e49181f","operatorStore()":"ad007d63","owner()":"8da5cb5b","primaryTerminalOf(uint256,address)":"86202650","projects()":"8b79543c","renounceOwnership()":"715018a6","setControllerOf(uint256,address)":"714e7f32","setIsAllowedToSetFirstController(address,bool)":"a1ed3175","setPrimaryTerminalOf(uint256,address,address)":"63d0850a","setTerminalsOf(uint256,address[])":"821b9fd8","terminalsOf(uint256)":"d1754153","transferOwnership(address)":"f2fde38b"},"id":72}