{"abi":[{"type":"constructor","inputs":[{"name":"_baseWeightCurrency","type":"uint256","internalType":"uint256"},{"name":"_operatorStore","type":"address","internalType":"contract IJBOperatorStore"},{"name":"_projects","type":"address","internalType":"contract IJBProjects"},{"name":"_directory","type":"address","internalType":"contract IJBDirectory"},{"name":"_splitsStore","type":"address","internalType":"contract IJBSplitsStore"},{"name":"_prices","type":"address","internalType":"contract IJBPrices"},{"name":"_store","type":"address","internalType":"contract IJBSingleTokenPaymentTerminalStore"},{"name":"_owner","type":"address","internalType":"address"}],"stateMutability":"nonpayable"},{"type":"function","name":"acceptsToken","inputs":[{"name":"_token","type":"address","internalType":"address"},{"name":"_projectId","type":"uint256","internalType":"uint256"}],"outputs":[{"name":"","type":"bool","internalType":"bool"}],"stateMutability":"view"},{"type":"function","name":"addToBalanceOf","inputs":[{"name":"_projectId","type":"uint256","internalType":"uint256"},{"name":"_amount","type":"uint256","internalType":"uint256"},{"name":"_token","type":"address","internalType":"address"},{"name":"_memo","type":"string","internalType":"string"},{"name":"_metadata","type":"bytes","internalType":"bytes"}],"outputs":[],"stateMutability":"payable"},{"type":"function","name":"baseWeightCurrency","inputs":[],"outputs":[{"name":"","type":"uint256","internalType":"uint256"}],"stateMutability":"view"},{"type":"function","name":"currency","inputs":[],"outputs":[{"name":"","type":"uint256","internalType":"uint256"}],"stateMutability":"view"},{"type":"function","name":"currencyForToken","inputs":[{"name":"_token","type":"address","internalType":"address"}],"outputs":[{"name":"","type":"uint256","internalType":"uint256"}],"stateMutability":"view"},{"type":"function","name":"currentEthOverflowOf","inputs":[{"name":"_projectId","type":"uint256","internalType":"uint256"}],"outputs":[{"name":"","type":"uint256","internalType":"uint256"}],"stateMutability":"view"},{"type":"function","name":"decimals","inputs":[],"outputs":[{"name":"","type":"uint256","internalType":"uint256"}],"stateMutability":"view"},{"type":"function","name":"decimalsForToken","inputs":[{"name":"_token","type":"address","internalType":"address"}],"outputs":[{"name":"","type":"uint256","internalType":"uint256"}],"stateMutability":"view"},{"type":"function","name":"directory","inputs":[],"outputs":[{"name":"","type":"address","internalType":"contract IJBDirectory"}],"stateMutability":"view"},{"type":"function","name":"distributePayoutsOf","inputs":[{"name":"_projectId","type":"uint256","internalType":"uint256"},{"name":"_amount","type":"uint256","internalType":"uint256"},{"name":"_currency","type":"uint256","internalType":"uint256"},{"name":"_token","type":"address","internalType":"address"},{"name":"_minReturnedTokens","type":"uint256","internalType":"uint256"},{"name":"_memo","type":"string","internalType":"string"}],"outputs":[{"name":"netLeftoverDistributionAmount","type":"uint256","internalType":"uint256"}],"stateMutability":"nonpayable"},{"type":"function","name":"fee","inputs":[],"outputs":[{"name":"","type":"uint256","internalType":"uint256"}],"stateMutability":"view"},{"type":"function","name":"feeGauge","inputs":[],"outputs":[{"name":"","type":"address","internalType":"contract IJBFeeGauge"}],"stateMutability":"view"},{"type":"function","name":"heldFeesOf","inputs":[{"name":"_projectId","type":"uint256","internalType":"uint256"}],"outputs":[{"name":"","type":"tuple[]","internalType":"struct JBFee[]","components":[{"name":"amount","type":"uint256","internalType":"uint256"},{"name":"fee","type":"uint32","internalType":"uint32"},{"name":"feeDiscount","type":"uint32","internalType":"uint32"},{"name":"beneficiary","type":"address","internalType":"address"}]}],"stateMutability":"view"},{"type":"function","name":"isFeelessAddress","inputs":[{"name":"","type":"address","internalType":"address"}],"outputs":[{"name":"","type":"bool","internalType":"bool"}],"stateMutability":"view"},{"type":"function","name":"migrate","inputs":[{"name":"_projectId","type":"uint256","internalType":"uint256"},{"name":"_to","type":"address","internalType":"contract IJBPaymentTerminal"}],"outputs":[{"name":"balance","type":"uint256","internalType":"uint256"}],"stateMutability":"nonpayable"},{"type":"function","name":"operatorStore","inputs":[],"outputs":[{"name":"","type":"address","internalType":"contract IJBOperatorStore"}],"stateMutability":"view"},{"type":"function","name":"owner","inputs":[],"outputs":[{"name":"","type":"address","internalType":"address"}],"stateMutability":"view"},{"type":"function","name":"pay","inputs":[{"name":"_projectId","type":"uint256","internalType":"uint256"},{"name":"_amount","type":"uint256","internalType":"uint256"},{"name":"_token","type":"address","internalType":"address"},{"name":"_beneficiary","type":"address","internalType":"address"},{"name":"_minReturnedTokens","type":"uint256","internalType":"uint256"},{"name":"_preferClaimedTokens","type":"bool","internalType":"bool"},{"name":"_memo","type":"string","internalType":"string"},{"name":"_metadata","type":"bytes","internalType":"bytes"}],"outputs":[{"name":"","type":"uint256","internalType":"uint256"}],"stateMutability":"payable"},{"type":"function","name":"payoutSplitsGroup","inputs":[],"outputs":[{"name":"","type":"uint256","internalType":"uint256"}],"stateMutability":"view"},{"type":"function","name":"prices","inputs":[],"outputs":[{"name":"","type":"address","internalType":"contract IJBPrices"}],"stateMutability":"view"},{"type":"function","name":"processFees","inputs":[{"name":"_projectId","type":"uint256","internalType":"uint256"}],"outputs":[],"stateMutability":"nonpayable"},{"type":"function","name":"projects","inputs":[],"outputs":[{"name":"","type":"address","internalType":"contract IJBProjects"}],"stateMutability":"view"},{"type":"function","name":"redeemTokensOf","inputs":[{"name":"_holder","type":"address","internalType":"address"},{"name":"_projectId","type":"uint256","internalType":"uint256"},{"name":"_tokenCount","type":"uint256","internalType":"uint256"},{"name":"_token","type":"address","internalType":"address"},{"name":"_minReturnedTokens","type":"uint256","internalType":"uint256"},{"name":"_beneficiary","type":"address","internalType":"address payable"},{"name":"_memo","type":"string","internalType":"string"},{"name":"_metadata","type":"bytes","internalType":"bytes"}],"outputs":[{"name":"reclaimAmount","type":"uint256","internalType":"uint256"}],"stateMutability":"nonpayable"},{"type":"function","name":"renounceOwnership","inputs":[],"outputs":[],"stateMutability":"nonpayable"},{"type":"function","name":"setFee","inputs":[{"name":"_fee","type":"uint256","internalType":"uint256"}],"outputs":[],"stateMutability":"nonpayable"},{"type":"function","name":"setFeeGauge","inputs":[{"name":"_feeGauge","type":"address","internalType":"contract IJBFeeGauge"}],"outputs":[],"stateMutability":"nonpayable"},{"type":"function","name":"setFeelessAddress","inputs":[{"name":"_address","type":"address","internalType":"address"},{"name":"_flag","type":"bool","internalType":"bool"}],"outputs":[],"stateMutability":"nonpayable"},{"type":"function","name":"splitsStore","inputs":[],"outputs":[{"name":"","type":"address","internalType":"contract IJBSplitsStore"}],"stateMutability":"view"},{"type":"function","name":"store","inputs":[],"outputs":[{"name":"","type":"address","internalType":"contract IJBSingleTokenPaymentTerminalStore"}],"stateMutability":"view"},{"type":"function","name":"supportsInterface","inputs":[{"name":"_interfaceId","type":"bytes4","internalType":"bytes4"}],"outputs":[{"name":"","type":"bool","internalType":"bool"}],"stateMutability":"view"},{"type":"function","name":"token","inputs":[],"outputs":[{"name":"","type":"address","internalType":"address"}],"stateMutability":"view"},{"type":"function","name":"transferOwnership","inputs":[{"name":"newOwner","type":"address","internalType":"address"}],"outputs":[],"stateMutability":"nonpayable"},{"type":"function","name":"useAllowanceOf","inputs":[{"name":"_projectId","type":"uint256","internalType":"uint256"},{"name":"_amount","type":"uint256","internalType":"uint256"},{"name":"_currency","type":"uint256","internalType":"uint256"},{"name":"_token","type":"address","internalType":"address"},{"name":"_minReturnedTokens","type":"uint256","internalType":"uint256"},{"name":"_beneficiary","type":"address","internalType":"address payable"},{"name":"_memo","type":"string","internalType":"string"}],"outputs":[{"name":"netDistributedAmount","type":"uint256","internalType":"uint256"}],"stateMutability":"nonpayable"},{"type":"event","name":"AddToBalance","inputs":[{"name":"projectId","type":"uint256","indexed":true,"internalType":"uint256"},{"name":"amount","type":"uint256","indexed":false,"internalType":"uint256"},{"name":"refundedFees","type":"uint256","indexed":false,"internalType":"uint256"},{"name":"memo","type":"string","indexed":false,"internalType":"string"},{"name":"metadata","type":"bytes","indexed":false,"internalType":"bytes"},{"name":"caller","type":"address","indexed":false,"internalType":"address"}],"anonymous":false},{"type":"event","name":"DelegateDidPay","inputs":[{"name":"delegate","type":"address","indexed":true,"internalType":"contract IJBPayDelegate"},{"name":"data","type":"tuple","indexed":false,"internalType":"struct JBDidPayData","components":[{"name":"payer","type":"address","internalType":"address"},{"name":"projectId","type":"uint256","internalType":"uint256"},{"name":"currentFundingCycleConfiguration","type":"uint256","internalType":"uint256"},{"name":"amount","type":"tuple","internalType":"struct JBTokenAmount","components":[{"name":"token","type":"address","internalType":"address"},{"name":"value","type":"uint256","internalType":"uint256"},{"name":"decimals","type":"uint256","internalType":"uint256"},{"name":"currency","type":"uint256","internalType":"uint256"}]},{"name":"forwardedAmount","type":"tuple","internalType":"struct JBTokenAmount","components":[{"name":"token","type":"address","internalType":"address"},{"name":"value","type":"uint256","internalType":"uint256"},{"name":"decimals","type":"uint256","internalType":"uint256"},{"name":"currency","type":"uint256","internalType":"uint256"}]},{"name":"projectTokenCount","type":"uint256","internalType":"uint256"},{"name":"beneficiary","type":"address","internalType":"address"},{"name":"preferClaimedTokens","type":"bool","internalType":"bool"},{"name":"memo","type":"string","internalType":"string"},{"name":"metadata","type":"bytes","internalType":"bytes"}]},{"name":"delegatedAmount","type":"uint256","indexed":false,"internalType":"uint256"},{"name":"caller","type":"address","indexed":false,"internalType":"address"}],"anonymous":false},{"type":"event","name":"DelegateDidRedeem","inputs":[{"name":"delegate","type":"address","indexed":true,"internalType":"contract IJBRedemptionDelegate"},{"name":"data","type":"tuple","indexed":false,"internalType":"struct JBDidRedeemData","components":[{"name":"holder","type":"address","internalType":"address"},{"name":"projectId","type":"uint256","internalType":"uint256"},{"name":"currentFundingCycleConfiguration","type":"uint256","internalType":"uint256"},{"name":"projectTokenCount","type":"uint256","internalType":"uint256"},{"name":"reclaimedAmount","type":"tuple","internalType":"struct JBTokenAmount","components":[{"name":"token","type":"address","internalType":"address"},{"name":"value","type":"uint256","internalType":"uint256"},{"name":"decimals","type":"uint256","internalType":"uint256"},{"name":"currency","type":"uint256","internalType":"uint256"}]},{"name":"forwardedAmount","type":"tuple","internalType":"struct JBTokenAmount","components":[{"name":"token","type":"address","internalType":"address"},{"name":"value","type":"uint256","internalType":"uint256"},{"name":"decimals","type":"uint256","internalType":"uint256"},{"name":"currency","type":"uint256","internalType":"uint256"}]},{"name":"beneficiary","type":"address","internalType":"address payable"},{"name":"memo","type":"string","internalType":"string"},{"name":"metadata","type":"bytes","internalType":"bytes"}]},{"name":"delegatedAmount","type":"uint256","indexed":false,"internalType":"uint256"},{"name":"caller","type":"address","indexed":false,"internalType":"address"}],"anonymous":false},{"type":"event","name":"DistributePayouts","inputs":[{"name":"fundingCycleConfiguration","type":"uint256","indexed":true,"internalType":"uint256"},{"name":"fundingCycleNumber","type":"uint256","indexed":true,"internalType":"uint256"},{"name":"projectId","type":"uint256","indexed":true,"internalType":"uint256"},{"name":"beneficiary","type":"address","indexed":false,"internalType":"address"},{"name":"amount","type":"uint256","indexed":false,"internalType":"uint256"},{"name":"distributedAmount","type":"uint256","indexed":false,"internalType":"uint256"},{"name":"fee","type":"uint256","indexed":false,"internalType":"uint256"},{"name":"beneficiaryDistributionAmount","type":"uint256","indexed":false,"internalType":"uint256"},{"name":"memo","type":"string","indexed":false,"internalType":"string"},{"name":"caller","type":"address","indexed":false,"internalType":"address"}],"anonymous":false},{"type":"event","name":"DistributeToPayoutSplit","inputs":[{"name":"projectId","type":"uint256","indexed":true,"internalType":"uint256"},{"name":"domain","type":"uint256","indexed":true,"internalType":"uint256"},{"name":"group","type":"uint256","indexed":true,"internalType":"uint256"},{"name":"split","type":"tuple","indexed":false,"internalType":"struct JBSplit","components":[{"name":"preferClaimed","type":"bool","internalType":"bool"},{"name":"preferAddToBalance","type":"bool","internalType":"bool"},{"name":"percent","type":"uint256","internalType":"uint256"},{"name":"projectId","type":"uint256","internalType":"uint256"},{"name":"beneficiary","type":"address","internalType":"address payable"},{"name":"lockedUntil","type":"uint256","internalType":"uint256"},{"name":"allocator","type":"address","internalType":"contract IJBSplitAllocator"}]},{"name":"amount","type":"uint256","indexed":false,"internalType":"uint256"},{"name":"caller","type":"address","indexed":false,"internalType":"address"}],"anonymous":false},{"type":"event","name":"HoldFee","inputs":[{"name":"projectId","type":"uint256","indexed":true,"internalType":"uint256"},{"name":"amount","type":"uint256","indexed":true,"internalType":"uint256"},{"name":"fee","type":"uint256","indexed":true,"internalType":"uint256"},{"name":"feeDiscount","type":"uint256","indexed":false,"internalType":"uint256"},{"name":"beneficiary","type":"address","indexed":false,"internalType":"address"},{"name":"caller","type":"address","indexed":false,"internalType":"address"}],"anonymous":false},{"type":"event","name":"Migrate","inputs":[{"name":"projectId","type":"uint256","indexed":true,"internalType":"uint256"},{"name":"to","type":"address","indexed":true,"internalType":"contract IJBPaymentTerminal"},{"name":"amount","type":"uint256","indexed":false,"internalType":"uint256"},{"name":"caller","type":"address","indexed":false,"internalType":"address"}],"anonymous":false},{"type":"event","name":"OwnershipTransferred","inputs":[{"name":"previousOwner","type":"address","indexed":true,"internalType":"address"},{"name":"newOwner","type":"address","indexed":true,"internalType":"address"}],"anonymous":false},{"type":"event","name":"Pay","inputs":[{"name":"fundingCycleConfiguration","type":"uint256","indexed":true,"internalType":"uint256"},{"name":"fundingCycleNumber","type":"uint256","indexed":true,"internalType":"uint256"},{"name":"projectId","type":"uint256","indexed":true,"internalType":"uint256"},{"name":"payer","type":"address","indexed":false,"internalType":"address"},{"name":"beneficiary","type":"address","indexed":false,"internalType":"address"},{"name":"amount","type":"uint256","indexed":false,"internalType":"uint256"},{"name":"beneficiaryTokenCount","type":"uint256","indexed":false,"internalType":"uint256"},{"name":"memo","type":"string","indexed":false,"internalType":"string"},{"name":"metadata","type":"bytes","indexed":false,"internalType":"bytes"},{"name":"caller","type":"address","indexed":false,"internalType":"address"}],"anonymous":false},{"type":"event","name":"ProcessFee","inputs":[{"name":"projectId","type":"uint256","indexed":true,"internalType":"uint256"},{"name":"amount","type":"uint256","indexed":true,"internalType":"uint256"},{"name":"wasHeld","type":"bool","indexed":true,"internalType":"bool"},{"name":"beneficiary","type":"address","indexed":false,"internalType":"address"},{"name":"caller","type":"address","indexed":false,"internalType":"address"}],"anonymous":false},{"type":"event","name":"RedeemTokens","inputs":[{"name":"fundingCycleConfiguration","type":"uint256","indexed":true,"internalType":"uint256"},{"name":"fundingCycleNumber","type":"uint256","indexed":true,"internalType":"uint256"},{"name":"projectId","type":"uint256","indexed":true,"internalType":"uint256"},{"name":"holder","type":"address","indexed":false,"internalType":"address"},{"name":"beneficiary","type":"address","indexed":false,"internalType":"address"},{"name":"tokenCount","type":"uint256","indexed":false,"internalType":"uint256"},{"name":"reclaimedAmount","type":"uint256","indexed":false,"internalType":"uint256"},{"name":"memo","type":"string","indexed":false,"internalType":"string"},{"name":"metadata","type":"bytes","indexed":false,"internalType":"bytes"},{"name":"caller","type":"address","indexed":false,"internalType":"address"}],"anonymous":false},{"type":"event","name":"RefundHeldFees","inputs":[{"name":"projectId","type":"uint256","indexed":true,"internalType":"uint256"},{"name":"amount","type":"uint256","indexed":true,"internalType":"uint256"},{"name":"refundedFees","type":"uint256","indexed":true,"internalType":"uint256"},{"name":"leftoverAmount","type":"uint256","indexed":false,"internalType":"uint256"},{"name":"caller","type":"address","indexed":false,"internalType":"address"}],"anonymous":false},{"type":"event","name":"SetFee","inputs":[{"name":"fee","type":"uint256","indexed":false,"internalType":"uint256"},{"name":"caller","type":"address","indexed":false,"internalType":"address"}],"anonymous":false},{"type":"event","name":"SetFeeGauge","inputs":[{"name":"feeGauge","type":"address","indexed":true,"internalType":"contract IJBFeeGauge"},{"name":"caller","type":"address","indexed":false,"internalType":"address"}],"anonymous":false},{"type":"event","name":"SetFeelessAddress","inputs":[{"name":"addrs","type":"address","indexed":true,"internalType":"address"},{"name":"flag","type":"bool","indexed":true,"internalType":"bool"},{"name":"caller","type":"address","indexed":false,"internalType":"address"}],"anonymous":false},{"type":"event","name":"UseAllowance","inputs":[{"name":"fundingCycleConfiguration","type":"uint256","indexed":true,"internalType":"uint256"},{"name":"fundingCycleNumber","type":"uint256","indexed":true,"internalType":"uint256"},{"name":"projectId","type":"uint256","indexed":true,"internalType":"uint256"},{"name":"beneficiary","type":"address","indexed":false,"internalType":"address"},{"name":"amount","type":"uint256","indexed":false,"internalType":"uint256"},{"name":"distributedAmount","type":"uint256","indexed":false,"internalType":"uint256"},{"name":"netDistributedamount","type":"uint256","indexed":false,"internalType":"uint256"},{"name":"memo","type":"string","indexed":false,"internalType":"string"},{"name":"caller","type":"address","indexed":false,"internalType":"address"}],"anonymous":false},{"type":"error","name":"FEE_TOO_HIGH","inputs":[]},{"type":"error","name":"INADEQUATE_DISTRIBUTION_AMOUNT","inputs":[]},{"type":"error","name":"INADEQUATE_RECLAIM_AMOUNT","inputs":[]},{"type":"error","name":"INADEQUATE_TOKEN_COUNT","inputs":[]},{"type":"error","name":"NO_MSG_VALUE_ALLOWED","inputs":[]},{"type":"error","name":"PAY_TO_ZERO_ADDRESS","inputs":[]},{"type":"error","name":"PRBMath__MulDivOverflow","inputs":[{"name":"prod1","type":"uint256","internalType":"uint256"},{"name":"denominator","type":"uint256","internalType":"uint256"}]},{"type":"error","name":"PROJECT_TERMINAL_MISMATCH","inputs":[]},{"type":"error","name":"REDEEM_TO_ZERO_ADDRESS","inputs":[]},{"type":"error","name":"TERMINAL_IN_SPLIT_ZERO_ADDRESS","inputs":[]},{"type":"error","name":"TERMINAL_TOKENS_INCOMPATIBLE","inputs":[]},{"type":"error","name":"UNAUTHORIZED","inputs":[]}],"bytecode":{"object":"0x6101e0346200048c5762005b3838819003601f8101601f191683016001600160401b038111848210176200049057839282916040528339610100928391810103126200048c57805160208201516001600160a01b039290919083831683036200048c5760408101519284841684036200048c5760608201519480861686036200048c5760808301519080821682036200048c5760a08401519281841684036200048c5760c08501519482861686036200048c5760e0015191808316918284036200048c5761eeee608052601260a052600160c05260e052620000e133620004a4565b63017d78406002556101a09687526101c097600189528a5261012098895261014093845261016094855261018095865233905f541603620004485715620003f4576200012d90620004a4565b6040519561564d9788620004eb8939608051888181610498015281816105270152818161061101528181610aed01528181610c4501528181611c4f015281816122f3015281816124bd01528181612703015281816128fa015281816129e201528181612d5501528181612df301528181612ea90152818161346501528181613524015281816137160152818161380601528181613cd30152818161496701528181614a3001528181614bfd01528181614ce801528181615076015281816150e20152615284015260a0518881816104c2015281816105510152818161124f0152818161136601528181611f8b015281816123210152818161273601528181612924015281816135570152818161374001528181614a630152614c27015260c0518881816104e80152818161057701528181610bf901528181611395015281816127600152818161294a015281816135810152818161376601528181613bf301528181614a8d0152614c4d015260e0518881816109b701528181610a68015281816110e501528181611195015281816112c4015281816118920152818161193201528181611e4e0152611eea015251878181610d9a01528181610e810152818161152a015281816116ad01528181611c0301526120f801525186818161074201528181610d0a015281816124ee01528181612b050152818161342a0152818161393d01528181613c970152818161499d01528181614e0c01526152b4015251858181611ffd01526121a8015251848181610cc601526113fe01525183818161029d01528181610e2901528181611332015281816114bf01528181611cc5015281816120a00152818161259c015281816125ed0152818161280f0152818161363101528181613e1a0152614b29015251828181611fc5015281816127b0015281816135d20152614add015251818181611b230152818161216701528181612244015261234f0152f35b60405162461bcd60e51b815260206004820152602660248201527f4f776e61626c653a206e6577206f776e657220697320746865207a65726f206160448201526564647265737360d01b6064820152608490fd5b606460405162461bcd60e51b815260206004820152602060248201527f4f776e61626c653a2063616c6c6572206973206e6f7420746865206f776e65726044820152fd5b5f80fd5b634e487b7160e01b5f52604160045260245ffd5b5f80546001600160a01b039283166001600160a01b03198216811783559216907f8be0079c531659141344cd1fd0a4f28419497f9722a3daafe3b4186f6b6457e09080a356fe60e0806040526004361015610012575f80fd5b5f3560e01c90816301ffc9a71461417a575080630cf8e85814613c165780631982d67914613bd25780631ebc263f1461338f5780632b267b4e1461202c5780632bdfe00414611fe85780632d1a590314611fae578063313ce56714611f74578063405b84fa14611bb9578063637913ac14611b4657806366248b8614611b0c57806369fe0e2d14611a9c578063715018a614611a455780637258002c146119c957806389701db5146116735780638af56094146115595780638b79543c146115155780638da5cb5b146114ee578063975057e7146114aa578063a32e1e96146112f3578063ad007d63146112af578063b631b50014611272578063b7bad1b11461122e578063bc8926e914610d39578063c41c2f2414610cf5578063d3419bf314610cb1578063d6dacc5314610c89578063ddca3f4314610c6c578063df21a7dd14610c1c578063e5a6b10f14610be2578063f2fde38b14610b1c578063fc0c546a14610ad85763fe663f0f14610187575f80fd5b346107145760031961010036820112610714576101a2614275565b906101ab61428b565b506101b46142ce565b9160c4356001600160401b038111610714576101d49036906004016143f2565b9260e4356001600160401b0381116107145736602382011215610714576102059036906024816004013591016143bc565b93336001600160a01b038416141580610a27575b8061097a575b610968576001600160a01b03821615610956576102885f9161023f61458c565b5060405163a2df1f9560e01b81526001600160a01b03861660048201526024803590820152604480359082015260a06064820152958692839261029892919060a48501906144a3565b90838203016084840152886144a3565b0381837f00000000000000000000000000000000000000000000000000000000000000006001600160a01b03165af1938415610709575f905f945f905f97610834575b50608435861061082257604435610724575b8051610482575b508461038b575b6103747f2be10f2a0203c77d0fcaa9fd6484a8a1d6904de31cd820587f60c1c8c338c81491610366602098898601519551966040519860018060a01b0316895260018060a01b03168a890152604435604089015288606089015260e0608089015260e08801906144a3565b9086820360a08801526144a3565b933360c082015280602435950390a4604051908152f35b84471061043d575f808080886001600160a01b0388165af13d15610438573d6103b3816143a1565b906103c16040519283614380565b81525f60203d92013e5b6102fb575b60405162461bcd60e51b815260206004820152603a60248201527f416464726573733a20756e61626c6520746f2073656e642076616c75652c20726044820152791958da5c1a595b9d081b585e481a185d99481c995d995c9d195960321b6064820152608490fd5b6103cb565b60405162461bcd60e51b815260206004820152601d60248201527f416464726573733a20696e73756666696369656e742062616c616e63650000006044820152606490fd5b6040519061048f826142f7565b60018060a01b037f00000000000000000000000000000000000000000000000000000000000000001682525f60208301527f000000000000000000000000000000000000000000000000000000000000000060408301527f0000000000000000000000000000000000000000000000000000000000000000606083015260208401519160405161051e816142f7565b60018060a01b037f00000000000000000000000000000000000000000000000000000000000000001681528860208201527f000000000000000000000000000000000000000000000000000000000000000060408201527f00000000000000000000000000000000000000000000000000000000000000006060820152604051936105a88561432d565b60018060a01b0389168552602435602086015260408501526044356060850152608084015260a083015260018060a01b03851660c08301528760e0830152826101008301528051905f5b828110610601575050506102f4565b61060b8183614564565b515f91907f00000000000000000000000000000000000000000000000000000000000000006001600160a01b031661eeee14610718575b60208181015160a08801519091015280516001600160a01b031692833b15610714575f9060405194858092632b13c58f60e01b8252602060048301528161068c602482018d6146be565b03925af1928315610709576001936106fa575b507f54b3744c489f40987dd2726ca12131243334e8292f567389f761c5a432d813e46020848060a01b038351169201516040518091606082526106e5606083018b6146be565b9060208301523360408301520390a2016105f2565b610703906142e4565b5f61069f565b6040513d5f823e3d90fd5b5f80fd5b60208101519250610642565b604051632eec7b5560e11b81526024803560048301526020908290817f00000000000000000000000000000000000000000000000000000000000000006001600160a01b03165afa908115610709575f916107f4575b506001600160a01b0316803b15610714575f809160c460405180948193631665bc0f60e01b835260018060a01b038c1660048401526024356024840152604435604484015260a060648401528160a48401528160848401525af18015610709576107e5575b506102ed565b6107ee906142e4565b5f6107df565b610815915060203d811161081b575b61080d8183614380565b810190614463565b5f61077a565b503d610803565b60405163f896960b60e01b8152600490fd5b9550509450503d805f853e6108498185614380565b61018084828101031261071457610862818501856145d0565b9461012085015191610140860151956001600160401b03871161071457818101601f88830101121561071457868101519661089c88614432565b976108aa604051998a614380565b808952602089019184840160208360061b8387010101116107145791602083850101925b60208360061b8287010101841061090d57505050506101608101516001600160401b038111610714576109049282019101614650565b9591945f6102db565b60408487870103126107145760405161092581614312565b84516001600160a01b03811681036107145760209382859260409452828801518382015281520194019391506108ce565b604051637ba50db360e11b8152600490fd5b60405163075fd2b160e01b8152600490fd5b5060405163c161c93f60e01b81523360048201526001600160a01b0384811660248301525f604483015260026064830152602090829060849082907f0000000000000000000000000000000000000000000000000000000000000000165afa908115610709575f916109ee575b501561021f565b90506020813d8211610a1f575b81610a0860209383614380565b8101031261071457610a1990614449565b5f6109e7565b3d91506109fb565b5060405163c161c93f60e01b81523360048201526001600160a01b0384811660248084019190915235604483015260026064830152602090829060849082907f0000000000000000000000000000000000000000000000000000000000000000165afa908115610709575f91610a9f575b5015610219565b90506020813d8211610ad0575b81610ab960209383614380565b8101031261071457610aca90614449565b5f610a98565b3d9150610aac565b34610714575f366003190112610714576040517f00000000000000000000000000000000000000000000000000000000000000006001600160a01b03168152602090f35b3461071457602036600319011261071457610b35614275565b610b3d61541a565b6001600160a01b03908116908115610b8e575f54826bffffffffffffffffffffffff60a01b8216175f55167f8be0079c531659141344cd1fd0a4f28419497f9722a3daafe3b4186f6b6457e05f80a3005b60405162461bcd60e51b815260206004820152602660248201527f4f776e61626c653a206e6577206f776e657220697320746865207a65726f206160448201526564647265737360d01b6064820152608490fd5b34610714575f3660031901126107145760206040517f00000000000000000000000000000000000000000000000000000000000000008152f35b34610714576040366003190112610714576020610c37614275565b6040519060018060a01b03807f0000000000000000000000000000000000000000000000000000000000000000169116148152f35b34610714575f366003190112610714576020600254604051908152f35b34610714575f366003190112610714576003546040516001600160a01b039091168152602090f35b34610714575f366003190112610714576040517f00000000000000000000000000000000000000000000000000000000000000006001600160a01b03168152602090f35b34610714575f366003190112610714576040517f00000000000000000000000000000000000000000000000000000000000000006001600160a01b03168152602090f35b346107145760e036600319011261071457610d5261428b565b50610d5b6142ce565b60c4356001600160401b03811161071457610d7a9036906004016143f2565b6040516331a9108f60e11b815260048035908201529091906020816024817f00000000000000000000000000000000000000000000000000000000000000006001600160a01b03165afa908115610709575f9161120f575b5060018060a01b031680331415908161115f575b816110b3575b5061096857604051632538671560e01b815260048035908201526024803590820152604480359082015290610140826064815f6001600160a01b037f0000000000000000000000000000000000000000000000000000000000000000165af18015610709575f925f9161107c575b50608435811061106a576040516331a9108f60e11b815260048035908201526020816024817f00000000000000000000000000000000000000000000000000000000000000006001600160a01b03165afa908115610709575f9161104b575b50600254158015611035575b1561102557633b9aca005b633b9aca0081036110115750505f925b9281039283610f60575b7f8657a0c05a68a912c23c1bd00124afaa8c669063b046bd9bfd22b21d573c5e6d610f49602096878401519351946040519660018060a01b0316875260243589880152604087015286606087015260c0608087015260c08601906144a3565b933360a082015280600435950390a4604051908152f35b83471061043d575f808080876001600160a01b0388165af13d1561100c573d610f88816143a1565b90610f966040519283614380565b81525f60203d92013e5b610eea5760405162461bcd60e51b815260206004820152603a60248201527f416464726573733a20756e61626c6520746f2073656e642076616c75652c20726044820152791958da5c1a595b9d081b585e481a185d99481c995d995c9d195960321b6064820152608490fd5b610fa0565b61101f918386600435614840565b92610ee0565b611030600435615266565b610ed0565b50335f52600460205260ff60405f205416610ec5565b611064915060203d60201161081b5761080d8183614380565b85610eb9565b60405163b01493c160e01b8152600490fd5b90506110a39192506101403d610140116110ac575b61109b8183614380565b81019061474d565b91909184610e5a565b503d611091565b60405163c161c93f60e01b815233600482015260248101919091525f60448201526011606482015290506020816084817f00000000000000000000000000000000000000000000000000000000000000006001600160a01b03165afa908115610709575f91611125575b501583610dec565b90506020813d602011611157575b8161114060209383614380565b810103126107145761115190614449565b8361111d565b3d9150611133565b60405163c161c93f60e01b81523360048083019190915260248201839052356044820152601160648201529091506020816084817f00000000000000000000000000000000000000000000000000000000000000006001600160a01b03165afa908115610709575f916111d5575b501590610de6565b90506020813d602011611207575b816111f060209383614380565b810103126107145761120190614449565b846111cd565b3d91506111e3565b611228915060203d60201161081b5761080d8183614380565b83610dd2565b3461071457602036600319011261071457611247614275565b5060206040517f00000000000000000000000000000000000000000000000000000000000000008152f35b34610714576020366003190112610714576001600160a01b03611293614275565b165f526004602052602060ff60405f2054166040519015158152f35b34610714575f366003190112610714576040517f00000000000000000000000000000000000000000000000000000000000000006001600160a01b03168152602090f35b34610714576020806003193601126107145760405163035240c760e61b8152306004808301919091523560248201526001600160a01b039082816044817f000000000000000000000000000000000000000000000000000000000000000086165afa908115610709575f9161147d575b507f000000000000000000000000000000000000000000000000000000000000000090816012810361146e5750905b837f000000000000000000000000000000000000000000000000000000000000000091600183145f146113cd5750505090505b604051908152f35b60646113d882614410565b936040519687938492635268657960e11b845260048401526001602484015260448301527f0000000000000000000000000000000000000000000000000000000000000000165afa918215610709575f9261143d575b61143893506155a1565b6113c5565b91508383813d8311611467575b6114548183614380565b810103126107145761143892519161142e565b503d61144a565b611477916153bc565b90611392565b90508281813d83116114a3575b6114948183614380565b81010312610714575183611363565b503d61148a565b34610714575f366003190112610714576040517f00000000000000000000000000000000000000000000000000000000000000006001600160a01b03168152602090f35b34610714575f366003190112610714575f546040516001600160a01b039091168152602090f35b34610714575f366003190112610714576040517f00000000000000000000000000000000000000000000000000000000000000006001600160a01b03168152602090f35b3461071457602080600319360112610714576004355f5260019081815260405f209182549161158783614432565b926115956040519485614380565b80845281840180955f52825f205f915b83831061161b57505050506040519281840190828552518091526040840194915f5b8281106115d45785870386f35b8351805188528281015163ffffffff908116848a0152604080830151909116908901526060908101516001600160a01b0316908801526080909601959281019284016115c7565b94600285829997604099979951611631816142f7565b855481528486015463ffffffff8082168584015281851c16604083015260018060a01b039060401c1660608201528152019201920191909694969593956115a5565b3461071457602080600319360112610714576040516331a9108f60e11b815260048035908201819052916001600160a01b039181816024817f000000000000000000000000000000000000000000000000000000000000000087165afa908115610709575f916119ac575b50825f5416331415908161199f575b81611900575b81611861575b5061096857825f5260019283825260405f2090815461171781614432565b926117256040519485614380565b8184525f908152848120878686015b8785851061181b57505050505050805f5284835261175460405f20614500565b8151935f5b85811061176257005b80876117a0611772829488614564565b515163ffffffff808a611785878c614564565b51015116906040611796878c614564565b510151169161523b565b857fcf0c92a2c6d7c42f488326b0cb900104b99984b6b218db81cd29371364a3525161181287866117e3828d6117d96060948592614564565b5101511687614949565b6117ed888d614564565b51015160408051929091166001600160a01b0316825233602083015290918291820190565b0390a401611759565b60029160405161182a816142f7565b855481528b8587015463ffffffff8082168685015281861c16604084015260401c1660608201528152019201920191908890611734565b60405163c161c93f60e01b815233600482015290841660248201525f604482015260056064820152905081816084817f000000000000000000000000000000000000000000000000000000000000000087165afa908115610709575f916118cb575b5015846116f9565b90508181813d83116118f9575b6118e28183614380565b81010312610714576118f390614449565b846118c3565b503d6118d8565b905060405163c161c93f60e01b81523360048201528382166024820152846044820152600560648201528281608481877f0000000000000000000000000000000000000000000000000000000000000000165afa908115610709575f9161196a575b5015906116f3565b90508281813d8311611998575b6119818183614380565b810103126107145761199290614449565b85611962565b503d611977565b33848216141591506116ed565b6119c39150823d841161081b5761080d8183614380565b846116de565b34610714576040366003190112610714576119e2614275565b60243590811515809203610714576119f861541a565b60018060a01b0316805f52600460205260405f2060ff1981541660ff84161790557fa2653e25a502c023a5830d0de847ef6f458387865b1f4f575d7594f9f2c0d71e6020604051338152a3005b34610714575f36600319011261071457611a5d61541a565b5f80546001600160a01b0319811682556001600160a01b03167f8be0079c531659141344cd1fd0a4f28419497f9722a3daafe3b4186f6b6457e08280a3005b3461071457602036600319011261071457600435611ab861541a565b6302faf0808111611afa576002819055604080519182523360208301527fd7414e590e1cb532989ab2a34c8f4c2c17f7ab6f006efeeaef2e87cd5008c20291a1005b6040516345fbd9c160e01b8152600490fd5b34610714575f3660031901126107145760206040517f00000000000000000000000000000000000000000000000000000000000000008152f35b34610714576020366003190112610714576004356001600160a01b0381169081900361071457611b7461541a565b806bffffffffffffffffffffffff60a01b60035416176003557f0a9a80fe9716605b3e52abb3d792d6a4e7816d6afc02a5a4ef023081feaf9f606020604051338152a2005b346107145760403660031901126107145760246001600160a01b0381358181169060043590829003610714576040516331a9108f60e11b81526004810182905260209490858183817f000000000000000000000000000000000000000000000000000000000000000089165afa80156107095785915f91611f57575b5016803314159081611ebb575b81611e1f575b50610968577f0000000000000000000000000000000000000000000000000000000000000000906040519063df21a7dd60e01b82528583169182600482015284828201528781604481895afa908115610709575f91611dea575b5015611dd8575f95879160405180988193636bb6a5ad60e01b83528860048401527f0000000000000000000000000000000000000000000000000000000000000000165af1948515610709575f95611da9575b5084611d37575b5050604080518481523360208201527fa7519e5f94697b7f53e97c5eb46a0c730a296ab686ab8fd333835c5f735784eb9190a3604051908152f35b61eeee03611da25783905b604051611d4e81614365565b5f8152843b156107145760405163019f1d0b60e31b8152925f92849283918291611d7d918b8a600486016144c8565b0391875af1801561070957611d93575b80611cfc565b611d9c906142e4565b84611d8d565b5f90611d42565b9094508581813d8311611dd1575b611dc18183614380565b8101031261071457519386611cf5565b503d611db7565b60405163581010ed60e01b8152600490fd5b90508781813d8311611e18575b611e018183614380565b8101031261071457611e1290614449565b88611ca2565b503d611df7565b90506040519063c161c93f60e01b8252336004830152828201525f6044820152600460648201528581608481887f0000000000000000000000000000000000000000000000000000000000000000165afa908115610709575f91611e86575b501586611c48565b90508581813d8311611eb4575b611e9d8183614380565b8101031261071457611eae90614449565b86611e7e565b503d611e93565b905060405163c161c93f60e01b81523360048201528183820152836044820152600460648201528681608481897f0000000000000000000000000000000000000000000000000000000000000000165afa908115610709575f91611f22575b501590611c42565b90508681813d8311611f50575b611f398183614380565b8101031261071457611f4a90614449565b87611f1a565b503d611f2f565b611f6e9150873d891161081b5761080d8183614380565b87611c35565b34610714575f3660031901126107145760206040517f00000000000000000000000000000000000000000000000000000000000000008152f35b34610714575f3660031901126107145760206040517f00000000000000000000000000000000000000000000000000000000000000008152f35b34610714575f366003190112610714576040517f00000000000000000000000000000000000000000000000000000000000000006001600160a01b03168152602090f35b346107145760c03660031901126107145761204561428b565b5060a4356001600160401b038111610714576120659036906004016142a1565b60405163c664459760e01b81526004803590820152602480359082015260448035908201525f92919061014081606481876001600160a01b037f0000000000000000000000000000000000000000000000000000000000000000165af18015610709575f915f9161336c575b50608435811061106a576040516331a9108f60e11b815260048035908201526020816024817f00000000000000000000000000000000000000000000000000000000000000006001600160a01b03165afa8015610709575f60805261334b575b5060025461333b57633b9aca005b6020830151925f60a0528296633b9aca0095604051926369e11cc560e01b84525f84806121a47f00000000000000000000000000000000000000000000000000000000000000008b600435600485016040919493926060820195825260208201520152565b03817f00000000000000000000000000000000000000000000000000000000000000006001600160a01b03165afa938415610709575f946131ea575b505f5b8451811015613096576121f68186614564565b51612215604082019a8b518181145f1461308657508d9b5b5190614456565b995f60c05280612293575b5090600191612232604051809261477a565b60c05160e082015233610100820152897f0000000000000000000000000000000000000000000000000000000000000000917f2a1f2df21da49f011c6165709ae4b279f8d6d7cffe9043c582352882d8c9698b61012060043592a4016121e3565b60c0820151919c92916001600160a01b03161561248e57633b9aca0088148015612469575b15612443578060c0525b604051928360c08101106001600160401b0360c08601111761242f578360c08f950160405261eeee60018060a01b037f0000000000000000000000000000000000000000000000000000000000000000169586835260c05160208401527f0000000000000000000000000000000000000000000000000000000000000000604084015260043560608401527f000000000000000000000000000000000000000000000000000000000000000060808401528060a084015260c060018060a01b039101511695145f146124295760c0515b853b156107145760408051634eba05fd60e11b815283516001600160a01b0316600482015260208401516024820152908301516044820152606083015160648201526080830151608482015260a09092015191955f9287926101849284926123fe9060a485019061477a565b5af19384156107095760019461241a575b505b039b9091612220565b612423906142e4565b8e61240f565b5f612392565b634e487b7160e01b5f52604160045260245ffd5b612450886002548361523b565b810360c0526124618160a05161476d565b60a0526122c2565b5060c08d01516001600160a01b03165f9081526004602052604090205460ff166122b8565b60608d01518d9015612fdb5760600151604051630862026560e41b815260048101919091526001600160a01b037f0000000000000000000000000000000000000000000000000000000000000000166024820152602081806044810103817f00000000000000000000000000000000000000000000000000000000000000006001600160a01b03165afa908115610709575f91612fbc575b506001600160a01b03811615612faa576001600160a01b0381163003612d3a57508060c052602060405161255981614312565b81815281369101376040519260043560208501526020845261257a84614312565b60208e01518e901561269b57606001516040519461259786614365565b5f86527f00000000000000000000000000000000000000000000000000000000000000006001600160a01b03163b156107145760405163e7c8e3e360e01b815260048101839052602481018590525f81604481837f00000000000000000000000000000000000000000000000000000000000000006001600160a01b03165af19687156107095761267e7f9ecaf7fc3dfffd6867c175d6e684b1f1e3aef019398ba8db2c1ffab4a09db253936126709360019a61268c575b506040519384938985525f602086015260a0604086015260a08501906144a3565b9083820360608501526144a3565b3360808301520390a2612411565b612695906142e4565b5f61264f565b6060810151608082015194959394929390926001600160a01b03168015612d3257915b51151590604051926126cf84614365565b5f808552916001600160a01b03821615612d205761280a946126ef61458c565b505f6127f760405192612701846142f7565b7f00000000000000000000000000000000000000000000000000000000000000006001600160a01b03168452602084018c90527f00000000000000000000000000000000000000000000000000000000000000006040808601919091527f0000000000000000000000000000000000000000000000000000000000000000606086015251632fa1b39160e01b815230600482015298899283926127a76024850188614692565b60a484018d90527f000000000000000000000000000000000000000000000000000000000000000060c48501526001600160a01b03891660e48501526101406101048501526101448401906144a3565b82810360031901610124840152866144a3565b0381837f00000000000000000000000000000000000000000000000000000000000000006001600160a01b03165af1958615610709575f955f80925f99612c01575b5080612ae6575b5081516128e5575b505050917f133161f1c9161488f777ab9a26aae91d47c0d9a3fafb398960f138db02c73797916128d785946128c9602060019d9c9b9a999801519651976040519586953087528f8060a01b031660208701528c6040870152606086015260e0608086015260e08501906144a3565b9083820360a08501526144a3565b3360c08301520390a4612411565b6040516128f1816142f7565b60018060a01b037f00000000000000000000000000000000000000000000000000000000000000001681528b60208201527f000000000000000000000000000000000000000000000000000000000000000060408201527f000000000000000000000000000000000000000000000000000000000000000060608201526020880151936040519461298186614349565b3086528b60208701526040860152606085015260808401528560a084015260018060a01b03851660c084015260e083015286610100830152826101208301528051905f5b8281106129d2575061285b565b6129dc8183614564565b515f91907f00000000000000000000000000000000000000000000000000000000000000006001600160a01b031661eeee14612ada575b60208181015160808801519091015280516001600160a01b031692833b15610714575f906040519485809263da9ee8b760e01b82526020600483015281612a5d602482018d61519e565b03925af192831561070957600193612acb575b507f16112c26e14efc4be6c690149aa5a1ba75160de245f60d2273e28adb277b9e126020848060a01b03835116920151604051809160608252612ab6606083018b61519e565b9060208301523360408301520390a2016129c5565b612ad4906142e4565b5f612a70565b60208101519250612a13565b604051632eec7b5560e11b8152600481018b90529196506020826024817f00000000000000000000000000000000000000000000000000000000000000006001600160a01b03165afa918215610709575f92612bdf575b50604051638ae9c07b60e01b8152600481018b905260248101919091526001600160a01b03868116604483015260c060648301525f60c4830181905260848301899052600160a48401529192602092849260e492849291165af1908115610709575f91612bad575b50945f612853565b90506020813d602011612bd7575b81612bc860209383614380565b8101031261071457515f612ba5565b3d9150612bbb565b6020919250612bfa90823d841161081b5761080d8183614380565b9190612b3d565b9850509550503d94855f883e612c178688614380565b61018087878101031261071457612c30868801886145d0565b9061012088015196610140890151986001600160401b038a1161071457818101601f8b8301011215610714578981015199612c6a8b614432565b9a612c786040519c8d614380565b808c5260208c0184840160208360061b85870101011161071457602083850101905b60208360061b85870101018210612cd957505050506101608101516001600160401b03811161071457612cd09282019101614650565b9791965f61284c565b60408287870103126107145760405190612cf282614312565b8251906001600160a01b03821682036107145782602092604094528285015183820152815201910190612c9a565b60405163a762251360e01b8152600490fd5b5033916126be565b92633b9aca0089148015612f89575b15612f63578160c0525b7f00000000000000000000000000000000000000000000000000000000000000006001600160a01b031661eeee03612f5c5760c0518e5b6020604051612d9881614312565b818152813691013760405190600435602083015260208252612db982614312565b602081015115612e515760600151956001600160a01b0381163b1561071457612e20965f9360405180998195829463019f1d0b60e31b84527f00000000000000000000000000000000000000000000000000000000000000009060c05190600486016144c8565b03926001600160a01b03165af193841561070957600194612e42575b50612411565b612e4b906142e4565b8e612e3c565b606081015160808201519497929460209491939291906001600160a01b03168015612f5457915b51151593612f0860405197889687958694631ebc263f60e01b8652600486015260c051602486015260018060a01b037f000000000000000000000000000000000000000000000000000000000000000016604486015260018060a01b031660648501525f608485015260a484015261010060c48401525f61010484015261012060e48401526101248301906144a3565b03926001600160a01b03165af1801561070957612f29575b50600192612411565b602090813d8311612f4d575b612f3f8183614380565b81010312610714578d612f20565b503d612f35565b503391612e78565b5f8e612d8a565b612f70896002548461523b565b820360c052612f818260a05161476d565b60a052612d53565b506001600160a01b0384165f9081526004602052604090205460ff16612d49565b604051636921234360e01b8152600490fd5b612fd5915060203d60201161081b5761080d8183614380565b8e612526565b608001516001600160a01b0316801561307f575b633b9aca008903613059578160c0525b60c051471061043d5760c0515f91829182918291906001600160a01b03165af13d15613054573d61302f816143a1565b9061303d6040519283614380565b81525f60203d92013e5b156103d057600192612411565b613047565b613066896002548461523b565b820360c0526130778260a05161476d565b60a052612fff565b5033612fef565b613090908b615471565b9b61220e565b508593508490898b60a05181633b9aca0086036131e3575b508481156131da576080516130d2926001600160a01b039091169086600435614840565b935b8161316e575b50506020957f24352f49df447b14e0e08a323625c663d865ce20c343c4638af12e1dc48aa76091878401519351946040519260018060a01b036080511684526024358a8501526040840152606083015286608083015260e060a08301528560e08301528561010091828401375f8287018201523360c083015260043595601f01601f191682018290030190a4604051908152f35b613187929650613181906002548361523b565b90614456565b9384471061043d575f8080808860018060a01b03608051165af13d156131d5573d6131b1816143a1565b906131bf6040519283614380565b81525f60203d92013e5b156103d05786806130da565b6131c9565b50505f936130d4565b01816130ae565b9093503d805f833e6131fc8183614380565b6020828281010312610714578151906001600160401b03821161071457808301601f83850101121561071457818301519061323682614432565b936132446040519586614380565b8285526020850193828201602060e086028385010101116107145793602085830101945b602060e086028285010101861061328657505050505050928a6121e0565b60e086858501031261071457604051918260e08101106001600160401b0360e08501111761242f5760e083016040526132be87614449565b83526132cc60208801614449565b6020840152604087810151908401526060808801519084015260808701516001600160a01b038116810361071457608084015260a0878101519084015260c0870151926001600160a01b038416840361071457602060e09282829660c086950152815201970196925050613268565b613346600435615266565b61213f565b6133639060203d60201161081b5761080d8183614380565b60805285612131565b905061338991506101403d610140116110ac5761109b8183614380565b856120d1565b610100366003190112610714576133a461425f565b506133ad61428b565b60a4359081151582036107145760c4356001600160401b038111610714576133d99036906004016142a1565b60e4929192356001600160401b038111610714576133fb9036906004016142a1565b604051636e49181f60e01b81526004803590820152306024820152909491906020816044816001600160a01b037f0000000000000000000000000000000000000000000000000000000000000000165afa908115610709575f91613b98575b5015613b86576024357f00000000000000000000000000000000000000000000000000000000000000006001600160a01b031661eeee14613b775734613b6557479080471061043d575f80808093305af13d15613b60573d6134bb816143a1565b906134c96040519283614380565b81525f60203d92013e5b156103d0576134f2926134e96134e99247614456565b945b36916143bc565b935f936001600160a01b03841615612d205761362c9061351061458c565b505f61361960405192613522846142f7565b7f00000000000000000000000000000000000000000000000000000000000000006001600160a01b03168452602084018790527f00000000000000000000000000000000000000000000000000000000000000006040808601919091527f0000000000000000000000000000000000000000000000000000000000000000606086015251632fa1b39160e01b815233600482015294859283926135c86024850188614692565b60043560a48501527f000000000000000000000000000000000000000000000000000000000000000060c48501526001600160a01b038b1660e48501526101406101048501526101448401906144a3565b828103600319016101248401528b6144a3565b0381837f00000000000000000000000000000000000000000000000000000000000000006001600160a01b03165af1918215610709575f935f80925f95613a3b575b508061391c575b50608435881061390a578151613701575b5050506136ea6020966103667f133161f1c9161488f777ab9a26aae91d47c0d9a3fafb398960f138db02c73797938986015195519660405198338a5260018060a01b03168b8a0152604089015288606089015260e0608089015260e08801906144a3565b933360c082015280600435950390a4604051908152f35b60405161370d816142f7565b60018060a01b037f00000000000000000000000000000000000000000000000000000000000000001681528660208201527f000000000000000000000000000000000000000000000000000000000000000060408201527f000000000000000000000000000000000000000000000000000000000000000060608201526020860151936040519461379d86614349565b338652600435602087015260408601526060850152608084015260a083018890526001600160a01b03871660c0840152151560e0830152610100820183905261012082018890528051905f5b8281106137f65750613686565b6138008183614564565b515f91907f00000000000000000000000000000000000000000000000000000000000000006001600160a01b031661eeee146138fe575b60208181015160808801519091015280516001600160a01b031692833b15610714575f906040519485809263da9ee8b760e01b82526020600483015281613881602482018d61519e565b03925af1928315610709576001936138ef575b507f16112c26e14efc4be6c690149aa5a1ba75160de245f60d2273e28adb277b9e126020848060a01b038351169201516040518091606082526138da606083018b61519e565b9060208301523360408301520390a2016137e9565b6138f8906142e4565b8c613894565b60208101519250613837565b604051633dca309360e11b8152600490fd5b604051632eec7b5560e11b81526004803590820152919850906020816024817f00000000000000000000000000000000000000000000000000000000000000006001600160a01b03165afa8015610709575f926020928492613a19575b50604051638ae9c07b60e01b8152600480359082015260248101919091526001600160a01b038a8116604483015260c0606483015260c482018590528b15156084830152600160a48301529093849260e492849291165af1908115610709575f916139e7575b509689613675565b90506020813d602011613a11575b81613a0260209383614380565b810103126107145751896139df565b3d91506139f5565b60e4919250613a3490843d861161081b5761080d8183614380565b9190613979565b9450509350503d92835f843e613a518484614380565b61018083858101031261071457613a6a848401846145d0565b9061012084015194610140850151946001600160401b03861161071457818101601f878301011215610714578581015195613aa487614432565b96613ab26040519889614380565b808852602088019184840160208360061b8387010101116107145791602083850101925b60208360061b82870101018410613b1757505050506101608101516001600160401b03811161071457613b0c9282019101614650565b91949391938a61366e565b604084878701031261071457604051613b2f81614312565b84516001600160a01b0381168103610714576020938285926040945282880151838201528152019401939150613ad6565b6134d3565b604051635e7e9adf60e11b8152600490fd5b506134e96134f29234946134eb565b604051631b1d5a5960e31b8152600490fd5b90506020813d602011613bca575b81613bb360209383614380565b8101031261071457613bc490614449565b8761345a565b3d9150613ba6565b3461071457602036600319011261071457613beb614275565b5060206040517f00000000000000000000000000000000000000000000000000000000000000008152f35b60a036600319011261071457600435613c2d61425f565b506001600160401b0360643581811161071457613c4e9036906004016142a1565b9160843590811161071457613c679036906004016142a1565b604051636e49181f60e01b8152600481018690523060248201526001600160a01b039460209493909185816044817f00000000000000000000000000000000000000000000000000000000000000008b165afa908115610709575f91614145575b5015613b86576024357f0000000000000000000000000000000000000000000000000000000000000000871661eeee146141365734613b655747908047106140f1575f80808093305af13d156140ec573d613d22816143a1565b90613d306040519283614380565b81525f883d92013e5b156140845790613d69613d4f613d719347614456565b955b335f526004885260ff60405f205416159436916143bc565b9336916143bc565b901561407d575f865f52808488600180895260405f209081548b613d9482614432565b93613da26040519586614380565b8285528c8501905f528c805f20915f935b85851061402357505050505050825f52808a52613dd260405f20614500565b815184925f5b828110613ede575050604080519384523360208501527f59860d79d97c1fce2be7f987915c631471f4b08f671200463cc40a3380194ffb939092509050a4945b7f00000000000000000000000000000000000000000000000000000000000000001691613e45868561476d565b833b15610714575f9360448592604051968793849263e7c8e3e360e01b84528d600485015260248401525af1908115610709577f9ecaf7fc3dfffd6867c175d6e684b1f1e3aef019398ba8db2c1ffab4a09db25396613ec49461267093613ecf575b50604051968796875286015260a0604086015260a08501906144a3565b3360808301520390a2005b613ed8906142e4565b89613ea7565b929550929550925084155f14613f1d5783908c5f52818b52613f0e60405f20613f078386614564565b51906147ca565b01919288938695928d94613dd8565b9493613f298683614564565b51518110613f7a578390613f3d8784614564565b5151900394613f73613f4f8885614564565b515163ffffffff808e613f628c89614564565b510151169060406117968c89614564565b0195613f0e565b614019908c5f9796939752848b528b613ffc8c60405f2084613f9c8b8d614564565b515103918a8c63ffffffff968784613fb48585614564565b5101511690886040613fc68686614564565b5101511692613fd86060958692614564565b510151169360405196613fea886142f7565b875286015260408501528301526147ca565b808c614008898b614564565b51015116906040611796898b614564565b0193825f94613f0e565b9091929598506002939699508894975060405190614040826142f7565b865482528587015463ffffffff8082168685015281861c16604084015260401c16606082015281520192019201928c938796938c8c97948f613db3565b5f94613e18565b60405162461bcd60e51b815260048101879052603a60248201527f416464726573733a20756e61626c6520746f2073656e642076616c75652c20726044820152791958da5c1a595b9d081b585e481a185d99481c995d995c9d195960321b6064820152608490fd5b613d39565b60405162461bcd60e51b815260048101889052601d60248201527f416464726573733a20696e73756666696369656e742062616c616e63650000006044820152606490fd5b50613d7190613d693495613d51565b90508581813d8311614173575b61415c8183614380565b810103126107145761416d90614449565b88613cc8565b503d614152565b34610714576020366003190112610714576004359063ffffffff60e01b82168092036107145760209163edb527eb60e01b811490811561424e575b811561423d575b811561422c575b811561421b575b81156141d8575b5015158152f35b63301cdc3960e21b81149150811561420a575b81156141f9575b50836141d1565b6301ffc9a760e01b149050836141f2565b63144b000160e11b811491506141eb565b63ad007d6360e01b811491506141ca565b63fe663f0f60e01b811491506141c3565b63bc8926e960e01b811491506141bc565b6315933da760e11b811491506141b5565b604435906001600160a01b038216820361071457565b600435906001600160a01b038216820361071457565b606435906001600160a01b038216820361071457565b9181601f84011215610714578235916001600160401b038311610714576020838186019501011161071457565b60a435906001600160a01b038216820361071457565b6001600160401b03811161242f57604052565b608081019081106001600160401b0382111761242f57604052565b604081019081106001600160401b0382111761242f57604052565b61012081019081106001600160401b0382111761242f57604052565b61014081019081106001600160401b0382111761242f57604052565b602081019081106001600160401b0382111761242f57604052565b90601f801991011681019081106001600160401b0382111761242f57604052565b6001600160401b03811161242f57601f01601f191660200190565b9291926143c8826143a1565b916143d66040519384614380565b829481845281830111610714578281602093845f960137010152565b9080601f830112156107145781602061440d933591016143bc565b90565b604d811161441e57600a0a90565b634e487b7160e01b5f52601160045260245ffd5b6001600160401b03811161242f5760051b60200190565b5190811515820361071457565b9190820391821161441e57565b9081602091031261071457516001600160a01b03811681036107145790565b5f5b8381106144935750505f910152565b8181015183820152602001614484565b906020916144bc81518092818552858086019101614482565b601f01601f1916010190565b909260c09261440d95948352602083015260018060a01b0316604082015260a060608201525f60a082015281608082015201906144a3565b8054905f908181558261451257505050565b6001600160ff1b03831683036145505781526020812091600190811b8301925b83811061453f5750505050565b808360029255838382015501614532565b634e487b7160e01b82526011600452602482fd5b80518210156145785760209160051b010190565b634e487b7160e01b5f52603260045260245ffd5b604051906145998261432d565b816101005f918281528260208201528260408201528260608201528260808201528260a08201528260c08201528260e08201520152565b919082610120910312610714576040516145e98161432d565b8092805182526020810151602083015260408101516040830152606081015160608301526080810151608083015260a081015160a083015260c081015160c083015260e081015160018060a01b03811681036107145760e083015261010080910151910152565b81601f82011215610714578051614666816143a1565b926146746040519485614380565b818452602082840101116107145761440d9160208085019101614482565b80516001600160a01b031682526020808201519083015260408082015190830152606090810151910152565b61440d9160018060a01b038083511682526020830151602083015260408301516040830152606083015160608301526146ff60808401516080840190614692565b60a0830151906147156101009283850190614692565b60c08401511661018083015261473b60e08401516101e0806101a08601528401906144a3565b920151906101c08184039101526144a3565b9190610140838203126107145761476761012091846145d0565b92015190565b9190820180921161441e57565b60c09080511515835260208101511515602084015260408101516040840152606081015160608401528160018060a01b039182608082015116608086015260a081015160a0860152015116910152565b8054600160401b81101561242f5760018101808355811015614578576001915f5260205f2090821b0182518155019063ffffffff6020820151169082549167ffffffff00000000604083015160201b16916060600160401b600160e01b0391015160401b169263ffffffff60e01b161717179055565b90936101009594600180614857846002548861523b565b9889930151604f1c16145f146148f1575060607f77813be0661650ddc1a5193ff2837df4162b251cb432651e2c060c3fc39756be91835f5260016020526148d960405f209663ffffffff90816002541691604051926148b5846142f7565b8984526020840152841660408301526001600160a01b0316848201819052976147ca565b600254956040519182526020820152336040820152a4565b9250507fcf0c92a2c6d7c42f488326b0cb900104b99984b6b218db81cd29371364a35251614944846149245f9686614949565b604080516001600160a01b03909216825233602083015290918291820190565b0390a4565b604051630862026560e41b8152600160048201526001600160a01b037f00000000000000000000000000000000000000000000000000000000000000008116602483015291939291602090829060449082907f0000000000000000000000000000000000000000000000000000000000000000165afa908115610709575f9161517f575b506001600160a01b031630810361506a5750604051906149ec82614365565b5f8252604051906149fc82614365565b5f808352926001600160a01b03821615612d2057614b2492614a1c61458c565b50846127f760405192614a2e846142f7565b7f00000000000000000000000000000000000000000000000000000000000000006001600160a01b03168452602084018a90527f00000000000000000000000000000000000000000000000000000000000000006040808601919091527f0000000000000000000000000000000000000000000000000000000000000000606086015251632fa1b39160e01b81523060048201529687928392614ad46024850188614692565b600160a48501527f000000000000000000000000000000000000000000000000000000000000000060c48501526001600160a01b03891660e48501526101406101048501526101448401906144a3565b0381837f00000000000000000000000000000000000000000000000000000000000000006001600160a01b03165af190811561505f5785948687918894614f26575b5080614dec575b508051614be8575b505091614bdd60019697926128c97f133161f1c9161488f777ab9a26aae91d47c0d9a3fafb398960f138db02c737979560208801519751986040519687963088528c8060a01b031660208801526040870152606086015260e0608086015260e08501906144a3565b3360c08301520390a4565b604051614bf4816142f7565b60018060a01b037f00000000000000000000000000000000000000000000000000000000000000001681528960208201527f000000000000000000000000000000000000000000000000000000000000000060408201527f0000000000000000000000000000000000000000000000000000000000000000606082015260208701519260405193614c8485614349565b308552600160208601526040850152606084015260808301528660a083015260018060a01b03851660c08301525f60e083015282610100830152836101208301528051905f5b828110614cd8575050614b75565b614ce28183614564565b515f91907f00000000000000000000000000000000000000000000000000000000000000006001600160a01b031661eeee14614de0575b60208181015160808801519091015280516001600160a01b031692833b15610714575f906040519485809263da9ee8b760e01b82526020600483015281614d63602482018d61519e565b03925af192831561070957600193614dd1575b507f16112c26e14efc4be6c690149aa5a1ba75160de245f60d2273e28adb277b9e126020848060a01b03835116920151604051809160608252614dbc606083018b61519e565b9060208301523360408301520390a201614cca565b614dda906142e4565b5f614d76565b60208101519250614d19565b604051632eec7b5560e11b815260016004820152919791906020826024817f00000000000000000000000000000000000000000000000000000000000000006001600160a01b03165afa918215614f1b579160209184938492614ef9575b5060e4906040519485938492638ae9c07b60e01b845260016004850152602484015260018060a01b038c16604484015260c060648401528160c4840152816084840152600160a484015260018060a01b03165af1918215614eed578092614eb5575b5050955f614b6d565b9091506020823d602011614ee5575b81614ed160209383614380565b81010312614ee25750515f80614eac565b80fd5b3d9150614ec4565b604051903d90823e3d90fd5b60e4919250614f1490843d861161081b5761080d8183614380565b9190614e4a565b6040513d85823e3d90fd5b9650505090503d908186863e614f3c8286614380565b61018085838101031261505b57614f55828601866145d0565b61012086015195610140810151936001600160401b03851161505757808201601f868401011215615057578482015194614f8e86614432565b95614f9c6040519788614380565b808752602087019183850160208360061b83880101011161505357602081860101925b60208360061b838801010184106150065750505050610160820151906001600160401b03821161500257614ff7929081019101614650565b90959290925f614b66565b8980fd5b604084868801031261504f5760405161501e81614312565b84516001600160a01b038116810361504b5781526020858101518183015290825260409094019301614fbf565b8e80fd5b8c80fd5b8b80fd5b8880fd5b8580fd5b6040513d87823e3d90fd5b9192615142926020925f7f00000000000000000000000000000000000000000000000000000000000000006001600160a01b031661eeee0361517a5750825b604051936150b685614365565b5f855260405196879586948593631ebc263f60e01b855260016004860152602485015260018060a01b037f000000000000000000000000000000000000000000000000000000000000000016604485015260018060a01b031660648401525f60848401525f60a484015261010060c48401525f61010484015261012060e48401526101248301906144a3565b03925af18015610709576151535750565b602090813d8311615173575b6151698183614380565b8101031261071457565b503d61515f565b6150a9565b615198915060203d60201161081b5761080d8183614380565b5f6149cd565b61440d9160018060a01b0380835116825260208301516020830152604083015160408301526151d560608401516060840190614692565b6151e7608084015160e0840190614692565b60a083015161016083015260c08301511661018082015260e082015115156101a0820152610120615229610100840151610200806101c08601528401906144a3565b920151906101e08184039101526144a3565b919061318161524a9282615471565b90633b9aca00820180921161441e5761318161440d92826154fc565b604051630862026560e41b8152600160048201526001600160a01b037f00000000000000000000000000000000000000000000000000000000000000008116602483015260209182816044817f000000000000000000000000000000000000000000000000000000000000000086165afa80156107095782915f91615381575b501615615376576003541691826152ff575b5050505f90565b8190602460405180958193633bb4ac4b60e11b835260048301525afa9182915f93615345575b505061533057505f90565b633b9aca0081111561440d57505f80806152f8565b8181949293943d831161536f575b61535d8183614380565b81010312614ee2575051905f80615325565b503d615353565b505050633b9aca0090565b6153989150843d861161081b5761080d8183614380565b5f6152e6565b81156153a8570490565b634e487b7160e01b5f52601260045260245ffd5b90601281036153c9575090565b806012115f146153fb576012036012811161441e576153e790614410565b9081810291818304149015171561441e5790565b60111981019190821161441e5761541461440d92614410565b9061539e565b5f546001600160a01b0316330361542d57565b606460405162461bcd60e51b815260206004820152602060248201527f4f776e61626c653a2063616c6c6572206973206e6f7420746865206f776e65726044820152fd5b91905f19818409818402918280831092039180830392146154ef57633b9aca0090818310156154d1577f88f2cfb83100cb4e69e7c79c58b316e597157d372fb9787e8e47ce423a2e9c6d94950990828211900360f71b910360091c170290565b6044838360405191631dcf306360e21b835260048301526024820152fd5b5050633b9aca0090049150565b633b9aca00915f1983830992808302928380861095039480860395146155945782851015615576579082910960018219018216809204600280826003021880830282030280830282030280830282030280830282030280830282030280920290030293600183805f03040190848311900302920304170290565b6044858460405191631dcf306360e21b835260048301526024820152fd5b50509061440d925061539e565b90915f1983830992808302928380861095039480860395146155945782851015615576579082910960018219018216809204600280826003021880830282030280830282030280830282030280830282030280830282030280920290030293600183805f0304019084831190030292030417029056fea26469706673582212203b76c98f0e0f197e11948ae63fa380cd80e4777eb380bebbbbfcda1951411d9164736f6c63430008140033","linkReferences":{}},"methodIdentifiers":{"acceptsToken(address,uint256)":"df21a7dd","addToBalanceOf(uint256,uint256,address,string,bytes)":"0cf8e858","baseWeightCurrency()":"2d1a5903","currency()":"e5a6b10f","currencyForToken(address)":"1982d679","currentEthOverflowOf(uint256)":"a32e1e96","decimals()":"313ce567","decimalsForToken(address)":"b7bad1b1","directory()":"c41c2f24","distributePayoutsOf(uint256,uint256,uint256,address,uint256,string)":"2b267b4e","fee()":"ddca3f43","feeGauge()":"d6dacc53","heldFeesOf(uint256)":"8af56094","isFeelessAddress(address)":"b631b500","migrate(uint256,address)":"405b84fa","operatorStore()":"ad007d63","owner()":"8da5cb5b","pay(uint256,uint256,address,address,uint256,bool,string,bytes)":"1ebc263f","payoutSplitsGroup()":"66248b86","prices()":"d3419bf3","processFees(uint256)":"89701db5","projects()":"8b79543c","redeemTokensOf(address,uint256,uint256,address,uint256,address,string,bytes)":"fe663f0f","renounceOwnership()":"715018a6","setFee(uint256)":"69fe0e2d","setFeeGauge(address)":"637913ac","setFeelessAddress(address,bool)":"7258002c","splitsStore()":"2bdfe004","store()":"975057e7","supportsInterface(bytes4)":"01ffc9a7","token()":"fc0c546a","transferOwnership(address)":"f2fde38b","useAllowanceOf(uint256,uint256,uint256,address,uint256,address,string)":"bc8926e9"},"id":74}