{
	"format": "sphinx-sol-ct-artifact-1",
	"merkleRoot": "0xb7149150da4a21f5e44df929622f7bf5f8a6bfee8d83c108f14adc174a50c70d",
	"address": "0xb57d30ed3cba3ce0934336db86f22797a9fa8359",
	"sourceName": "contracts/DefifaDelegate.sol",
	"contractName": "DefifaDelegate",
	"chainId": "0xaa37dc",
	"abi": [
		{
			"inputs": [
				{
					"internalType": "contract IJBDirectory",
					"name": "_directory",
					"type": "address"
				},
				{
					"internalType": "contract IERC20",
					"name": "_defifaToken",
					"type": "address"
				},
				{
					"internalType": "contract IERC20",
					"name": "_baseProtocolToken",
					"type": "address"
				}
			],
			"stateMutability": "nonpayable",
			"type": "constructor"
		},
		{
			"inputs": [],
			"name": "DIRECTORY",
			"outputs": [
				{
					"internalType": "contract IJBDirectory",
					"name": "",
					"type": "address"
				}
			],
			"stateMutability": "view",
			"type": "function"
		},
		{
			"inputs": [],
			"name": "METADATA_ID_TARGET",
			"outputs": [
				{
					"internalType": "address",
					"name": "",
					"type": "address"
				}
			],
			"stateMutability": "view",
			"type": "function"
		},
		{
			"inputs": [],
			"name": "PROJECT_ID",
			"outputs": [
				{
					"internalType": "uint256",
					"name": "",
					"type": "uint256"
				}
			],
			"stateMutability": "view",
			"type": "function"
		},
		{
			"inputs": [],
			"name": "TOTAL_CASHOUT_WEIGHT",
			"outputs": [
				{
					"internalType": "uint256",
					"name": "",
					"type": "uint256"
				}
			],
			"stateMutability": "view",
			"type": "function"
		},
		{
			"inputs": [
				{
					"components": [
						{
							"internalType": "address",
							"name": "holder",
							"type": "address"
						},
						{
							"internalType": "uint256",
							"name": "projectId",
							"type": "uint256"
						},
						{
							"internalType": "uint256",
							"name": "rulesetId",
							"type": "uint256"
						},
						{
							"internalType": "uint256",
							"name": "cashOutCount",
							"type": "uint256"
						},
						{
							"components": [
								{
									"internalType": "address",
									"name": "token",
									"type": "address"
								},
								{
									"internalType": "uint8",
									"name": "decimals",
									"type": "uint8"
								},
								{
									"internalType": "uint32",
									"name": "currency",
									"type": "uint32"
								},
								{
									"internalType": "uint256",
									"name": "value",
									"type": "uint256"
								}
							],
							"internalType": "struct JBTokenAmount",
							"name": "reclaimedAmount",
							"type": "tuple"
						},
						{
							"components": [
								{
									"internalType": "address",
									"name": "token",
									"type": "address"
								},
								{
									"internalType": "uint8",
									"name": "decimals",
									"type": "uint8"
								},
								{
									"internalType": "uint32",
									"name": "currency",
									"type": "uint32"
								},
								{
									"internalType": "uint256",
									"name": "value",
									"type": "uint256"
								}
							],
							"internalType": "struct JBTokenAmount",
							"name": "forwardedAmount",
							"type": "tuple"
						},
						{
							"internalType": "uint256",
							"name": "cashOutTaxRate",
							"type": "uint256"
						},
						{
							"internalType": "address payable",
							"name": "beneficiary",
							"type": "address"
						},
						{
							"internalType": "bytes",
							"name": "hookMetadata",
							"type": "bytes"
						},
						{
							"internalType": "bytes",
							"name": "cashOutMetadata",
							"type": "bytes"
						}
					],
					"internalType": "struct JBAfterCashOutRecordedContext",
					"name": "context",
					"type": "tuple"
				}
			],
			"name": "afterCashOutRecordedWith",
			"outputs": [],
			"stateMutability": "payable",
			"type": "function"
		},
		{
			"inputs": [
				{
					"components": [
						{
							"internalType": "address",
							"name": "payer",
							"type": "address"
						},
						{
							"internalType": "uint256",
							"name": "projectId",
							"type": "uint256"
						},
						{
							"internalType": "uint256",
							"name": "rulesetId",
							"type": "uint256"
						},
						{
							"components": [
								{
									"internalType": "address",
									"name": "token",
									"type": "address"
								},
								{
									"internalType": "uint8",
									"name": "decimals",
									"type": "uint8"
								},
								{
									"internalType": "uint32",
									"name": "currency",
									"type": "uint32"
								},
								{
									"internalType": "uint256",
									"name": "value",
									"type": "uint256"
								}
							],
							"internalType": "struct JBTokenAmount",
							"name": "amount",
							"type": "tuple"
						},
						{
							"components": [
								{
									"internalType": "address",
									"name": "token",
									"type": "address"
								},
								{
									"internalType": "uint8",
									"name": "decimals",
									"type": "uint8"
								},
								{
									"internalType": "uint32",
									"name": "currency",
									"type": "uint32"
								},
								{
									"internalType": "uint256",
									"name": "value",
									"type": "uint256"
								}
							],
							"internalType": "struct JBTokenAmount",
							"name": "forwardedAmount",
							"type": "tuple"
						},
						{
							"internalType": "uint256",
							"name": "weight",
							"type": "uint256"
						},
						{
							"internalType": "uint256",
							"name": "newlyIssuedTokenCount",
							"type": "uint256"
						},
						{
							"internalType": "address",
							"name": "beneficiary",
							"type": "address"
						},
						{
							"internalType": "bytes",
							"name": "hookMetadata",
							"type": "bytes"
						},
						{
							"internalType": "bytes",
							"name": "payerMetadata",
							"type": "bytes"
						}
					],
					"internalType": "struct JBAfterPayRecordedContext",
					"name": "context",
					"type": "tuple"
				}
			],
			"name": "afterPayRecordedWith",
			"outputs": [],
			"stateMutability": "payable",
			"type": "function"
		},
		{
			"inputs": [],
			"name": "amountRedeemed",
			"outputs": [
				{
					"internalType": "uint256",
					"name": "",
					"type": "uint256"
				}
			],
			"stateMutability": "view",
			"type": "function"
		},
		{
			"inputs": [
				{
					"internalType": "address",
					"name": "to",
					"type": "address"
				},
				{
					"internalType": "uint256",
					"name": "tokenId",
					"type": "uint256"
				}
			],
			"name": "approve",
			"outputs": [],
			"stateMutability": "nonpayable",
			"type": "function"
		},
		{
			"inputs": [
				{
					"internalType": "address",
					"name": "owner",
					"type": "address"
				}
			],
			"name": "balanceOf",
			"outputs": [
				{
					"internalType": "uint256",
					"name": "",
					"type": "uint256"
				}
			],
			"stateMutability": "view",
			"type": "function"
		},
		{
			"inputs": [],
			"name": "baseProtocolToken",
			"outputs": [
				{
					"internalType": "contract IERC20",
					"name": "",
					"type": "address"
				}
			],
			"stateMutability": "view",
			"type": "function"
		},
		{
			"inputs": [],
			"name": "baseURI",
			"outputs": [
				{
					"internalType": "string",
					"name": "",
					"type": "string"
				}
			],
			"stateMutability": "view",
			"type": "function"
		},
		{
			"inputs": [
				{
					"components": [
						{
							"internalType": "address",
							"name": "terminal",
							"type": "address"
						},
						{
							"internalType": "address",
							"name": "holder",
							"type": "address"
						},
						{
							"internalType": "uint256",
							"name": "projectId",
							"type": "uint256"
						},
						{
							"internalType": "uint256",
							"name": "rulesetId",
							"type": "uint256"
						},
						{
							"internalType": "uint256",
							"name": "cashOutCount",
							"type": "uint256"
						},
						{
							"internalType": "uint256",
							"name": "totalSupply",
							"type": "uint256"
						},
						{
							"components": [
								{
									"internalType": "address",
									"name": "token",
									"type": "address"
								},
								{
									"internalType": "uint8",
									"name": "decimals",
									"type": "uint8"
								},
								{
									"internalType": "uint32",
									"name": "currency",
									"type": "uint32"
								},
								{
									"internalType": "uint256",
									"name": "value",
									"type": "uint256"
								}
							],
							"internalType": "struct JBTokenAmount",
							"name": "surplus",
							"type": "tuple"
						},
						{
							"internalType": "bool",
							"name": "useTotalSurplus",
							"type": "bool"
						},
						{
							"internalType": "uint256",
							"name": "cashOutTaxRate",
							"type": "uint256"
						},
						{
							"internalType": "bytes",
							"name": "metadata",
							"type": "bytes"
						}
					],
					"internalType": "struct JBBeforeCashOutRecordedContext",
					"name": "context",
					"type": "tuple"
				}
			],
			"name": "beforeCashOutRecordedWith",
			"outputs": [
				{
					"internalType": "uint256",
					"name": "cashOutTaxRate",
					"type": "uint256"
				},
				{
					"internalType": "uint256",
					"name": "cashOutCount",
					"type": "uint256"
				},
				{
					"internalType": "uint256",
					"name": "totalSupply",
					"type": "uint256"
				},
				{
					"components": [
						{
							"internalType": "contract IJBCashOutHook",
							"name": "hook",
							"type": "address"
						},
						{
							"internalType": "uint256",
							"name": "amount",
							"type": "uint256"
						},
						{
							"internalType": "bytes",
							"name": "metadata",
							"type": "bytes"
						}
					],
					"internalType": "struct JBCashOutHookSpecification[]",
					"name": "hookSpecifications",
					"type": "tuple[]"
				}
			],
			"stateMutability": "view",
			"type": "function"
		},
		{
			"inputs": [
				{
					"components": [
						{
							"internalType": "address",
							"name": "terminal",
							"type": "address"
						},
						{
							"internalType": "address",
							"name": "payer",
							"type": "address"
						},
						{
							"components": [
								{
									"internalType": "address",
									"name": "token",
									"type": "address"
								},
								{
									"internalType": "uint8",
									"name": "decimals",
									"type": "uint8"
								},
								{
									"internalType": "uint32",
									"name": "currency",
									"type": "uint32"
								},
								{
									"internalType": "uint256",
									"name": "value",
									"type": "uint256"
								}
							],
							"internalType": "struct JBTokenAmount",
							"name": "amount",
							"type": "tuple"
						},
						{
							"internalType": "uint256",
							"name": "projectId",
							"type": "uint256"
						},
						{
							"internalType": "uint256",
							"name": "rulesetId",
							"type": "uint256"
						},
						{
							"internalType": "address",
							"name": "beneficiary",
							"type": "address"
						},
						{
							"internalType": "uint256",
							"name": "weight",
							"type": "uint256"
						},
						{
							"internalType": "uint256",
							"name": "reservedPercent",
							"type": "uint256"
						},
						{
							"internalType": "bytes",
							"name": "metadata",
							"type": "bytes"
						}
					],
					"internalType": "struct JBBeforePayRecordedContext",
					"name": "context",
					"type": "tuple"
				}
			],
			"name": "beforePayRecordedWith",
			"outputs": [
				{
					"internalType": "uint256",
					"name": "weight",
					"type": "uint256"
				},
				{
					"components": [
						{
							"internalType": "contract IJBPayHook",
							"name": "hook",
							"type": "address"
						},
						{
							"internalType": "uint256",
							"name": "amount",
							"type": "uint256"
						},
						{
							"internalType": "bytes",
							"name": "metadata",
							"type": "bytes"
						}
					],
					"internalType": "struct JBPayHookSpecification[]",
					"name": "hookSpecifications",
					"type": "tuple[]"
				}
			],
			"stateMutability": "view",
			"type": "function"
		},
		{
			"inputs": [],
			"name": "cashOutWeightIsSet",
			"outputs": [
				{
					"internalType": "bool",
					"name": "",
					"type": "bool"
				}
			],
			"stateMutability": "view",
			"type": "function"
		},
		{
			"inputs": [
				{
					"internalType": "uint256",
					"name": "_tokenId",
					"type": "uint256"
				}
			],
			"name": "cashOutWeightOf",
			"outputs": [
				{
					"internalType": "uint256",
					"name": "",
					"type": "uint256"
				}
			],
			"stateMutability": "view",
			"type": "function"
		},
		{
			"inputs": [
				{
					"internalType": "uint256[]",
					"name": "tokenIds",
					"type": "uint256[]"
				},
				{
					"components": [
						{
							"internalType": "address",
							"name": "terminal",
							"type": "address"
						},
						{
							"internalType": "address",
							"name": "holder",
							"type": "address"
						},
						{
							"internalType": "uint256",
							"name": "projectId",
							"type": "uint256"
						},
						{
							"internalType": "uint256",
							"name": "rulesetId",
							"type": "uint256"
						},
						{
							"internalType": "uint256",
							"name": "cashOutCount",
							"type": "uint256"
						},
						{
							"internalType": "uint256",
							"name": "totalSupply",
							"type": "uint256"
						},
						{
							"components": [
								{
									"internalType": "address",
									"name": "token",
									"type": "address"
								},
								{
									"internalType": "uint8",
									"name": "decimals",
									"type": "uint8"
								},
								{
									"internalType": "uint32",
									"name": "currency",
									"type": "uint32"
								},
								{
									"internalType": "uint256",
									"name": "value",
									"type": "uint256"
								}
							],
							"internalType": "struct JBTokenAmount",
							"name": "surplus",
							"type": "tuple"
						},
						{
							"internalType": "bool",
							"name": "useTotalSurplus",
							"type": "bool"
						},
						{
							"internalType": "uint256",
							"name": "cashOutTaxRate",
							"type": "uint256"
						},
						{
							"internalType": "bytes",
							"name": "metadata",
							"type": "bytes"
						}
					],
					"internalType": "struct JBBeforeCashOutRecordedContext",
					"name": "",
					"type": "tuple"
				}
			],
			"name": "cashOutWeightOf",
			"outputs": [
				{
					"internalType": "uint256",
					"name": "cumulativeWeight",
					"type": "uint256"
				}
			],
			"stateMutability": "view",
			"type": "function"
		},
		{
			"inputs": [],
			"name": "codeOrigin",
			"outputs": [
				{
					"internalType": "address",
					"name": "",
					"type": "address"
				}
			],
			"stateMutability": "view",
			"type": "function"
		},
		{
			"inputs": [],
			"name": "contractURI",
			"outputs": [
				{
					"internalType": "string",
					"name": "",
					"type": "string"
				}
			],
			"stateMutability": "view",
			"type": "function"
		},
		{
			"inputs": [
				{
					"internalType": "uint256",
					"name": "_tierId",
					"type": "uint256"
				}
			],
			"name": "currentSupplyOfTier",
			"outputs": [
				{
					"internalType": "uint256",
					"name": "",
					"type": "uint256"
				}
			],
			"stateMutability": "view",
			"type": "function"
		},
		{
			"inputs": [],
			"name": "defaultAttestationDelegate",
			"outputs": [
				{
					"internalType": "address",
					"name": "",
					"type": "address"
				}
			],
			"stateMutability": "view",
			"type": "function"
		},
		{
			"inputs": [],
			"name": "defifaToken",
			"outputs": [
				{
					"internalType": "contract IERC20",
					"name": "",
					"type": "address"
				}
			],
			"stateMutability": "view",
			"type": "function"
		},
		{
			"inputs": [
				{
					"internalType": "uint256",
					"name": "_tokenId",
					"type": "uint256"
				}
			],
			"name": "firstOwnerOf",
			"outputs": [
				{
					"internalType": "address",
					"name": "",
					"type": "address"
				}
			],
			"stateMutability": "view",
			"type": "function"
		},
		{
			"inputs": [],
			"name": "gamePhaseReporter",
			"outputs": [
				{
					"internalType": "contract IDefifaGamePhaseReporter",
					"name": "",
					"type": "address"
				}
			],
			"stateMutability": "view",
			"type": "function"
		},
		{
			"inputs": [],
			"name": "gamePotReporter",
			"outputs": [
				{
					"internalType": "contract IDefifaGamePotReporter",
					"name": "",
					"type": "address"
				}
			],
			"stateMutability": "view",
			"type": "function"
		},
		{
			"inputs": [
				{
					"internalType": "uint256",
					"name": "tokenId",
					"type": "uint256"
				}
			],
			"name": "getApproved",
			"outputs": [
				{
					"internalType": "address",
					"name": "",
					"type": "address"
				}
			],
			"stateMutability": "view",
			"type": "function"
		},
		{
			"inputs": [
				{
					"internalType": "address",
					"name": "_account",
					"type": "address"
				},
				{
					"internalType": "uint256",
					"name": "_tier",
					"type": "uint256"
				},
				{
					"internalType": "uint48",
					"name": "_timestamp",
					"type": "uint48"
				}
			],
			"name": "getPastTierAttestationUnitsOf",
			"outputs": [
				{
					"internalType": "uint256",
					"name": "",
					"type": "uint256"
				}
			],
			"stateMutability": "view",
			"type": "function"
		},
		{
			"inputs": [
				{
					"internalType": "uint256",
					"name": "_tier",
					"type": "uint256"
				},
				{
					"internalType": "uint48",
					"name": "_timestamp",
					"type": "uint48"
				}
			],
			"name": "getPastTierTotalAttestationUnitsOf",
			"outputs": [
				{
					"internalType": "uint256",
					"name": "",
					"type": "uint256"
				}
			],
			"stateMutability": "view",
			"type": "function"
		},
		{
			"inputs": [
				{
					"internalType": "address",
					"name": "_account",
					"type": "address"
				},
				{
					"internalType": "uint256",
					"name": "_tier",
					"type": "uint256"
				}
			],
			"name": "getTierAttestationUnitsOf",
			"outputs": [
				{
					"internalType": "uint256",
					"name": "",
					"type": "uint256"
				}
			],
			"stateMutability": "view",
			"type": "function"
		},
		{
			"inputs": [
				{
					"internalType": "address",
					"name": "_account",
					"type": "address"
				},
				{
					"internalType": "uint256",
					"name": "_tier",
					"type": "uint256"
				}
			],
			"name": "getTierDelegateOf",
			"outputs": [
				{
					"internalType": "address",
					"name": "",
					"type": "address"
				}
			],
			"stateMutability": "view",
			"type": "function"
		},
		{
			"inputs": [
				{
					"internalType": "uint256",
					"name": "_tier",
					"type": "uint256"
				}
			],
			"name": "getTierTotalAttestationUnitsOf",
			"outputs": [
				{
					"internalType": "uint256",
					"name": "",
					"type": "uint256"
				}
			],
			"stateMutability": "view",
			"type": "function"
		},
		{
			"inputs": [
				{
					"internalType": "uint256",
					"name": "",
					"type": "uint256"
				},
				{
					"components": [
						{
							"internalType": "uint48",
							"name": "cycleNumber",
							"type": "uint48"
						},
						{
							"internalType": "uint48",
							"name": "id",
							"type": "uint48"
						},
						{
							"internalType": "uint48",
							"name": "basedOnId",
							"type": "uint48"
						},
						{
							"internalType": "uint48",
							"name": "start",
							"type": "uint48"
						},
						{
							"internalType": "uint32",
							"name": "duration",
							"type": "uint32"
						},
						{
							"internalType": "uint112",
							"name": "weight",
							"type": "uint112"
						},
						{
							"internalType": "uint32",
							"name": "weightCutPercent",
							"type": "uint32"
						},
						{
							"internalType": "contract IJBRulesetApprovalHook",
							"name": "approvalHook",
							"type": "address"
						},
						{
							"internalType": "uint256",
							"name": "metadata",
							"type": "uint256"
						}
					],
					"internalType": "struct JBRuleset",
					"name": "",
					"type": "tuple"
				},
				{
					"internalType": "address",
					"name": "",
					"type": "address"
				}
			],
			"name": "hasMintPermissionFor",
			"outputs": [
				{
					"internalType": "bool",
					"name": "",
					"type": "bool"
				}
			],
			"stateMutability": "pure",
			"type": "function"
		},
		{
			"inputs": [
				{
					"internalType": "uint256",
					"name": "_gameId",
					"type": "uint256"
				},
				{
					"internalType": "string",
					"name": "_name",
					"type": "string"
				},
				{
					"internalType": "string",
					"name": "_symbol",
					"type": "string"
				},
				{
					"internalType": "contract IJBRulesets",
					"name": "_rulesets",
					"type": "address"
				},
				{
					"internalType": "string",
					"name": "_baseUri",
					"type": "string"
				},
				{
					"internalType": "contract IJB721TokenUriResolver",
					"name": "_tokenUriResolver",
					"type": "address"
				},
				{
					"internalType": "string",
					"name": "_contractUri",
					"type": "string"
				},
				{
					"components": [
						{
							"internalType": "uint104",
							"name": "price",
							"type": "uint104"
						},
						{
							"internalType": "uint32",
							"name": "initialSupply",
							"type": "uint32"
						},
						{
							"internalType": "uint32",
							"name": "votingUnits",
							"type": "uint32"
						},
						{
							"internalType": "uint16",
							"name": "reserveFrequency",
							"type": "uint16"
						},
						{
							"internalType": "address",
							"name": "reserveBeneficiary",
							"type": "address"
						},
						{
							"internalType": "bytes32",
							"name": "encodedIPFSUri",
							"type": "bytes32"
						},
						{
							"internalType": "uint24",
							"name": "category",
							"type": "uint24"
						},
						{
							"internalType": "uint8",
							"name": "discountPercent",
							"type": "uint8"
						},
						{
							"internalType": "bool",
							"name": "allowOwnerMint",
							"type": "bool"
						},
						{
							"internalType": "bool",
							"name": "useReserveBeneficiaryAsDefault",
							"type": "bool"
						},
						{
							"internalType": "bool",
							"name": "transfersPausable",
							"type": "bool"
						},
						{
							"internalType": "bool",
							"name": "useVotingUnits",
							"type": "bool"
						},
						{
							"internalType": "bool",
							"name": "cannotBeRemoved",
							"type": "bool"
						},
						{
							"internalType": "bool",
							"name": "cannotIncreaseDiscountPercent",
							"type": "bool"
						}
					],
					"internalType": "struct JB721TierConfig[]",
					"name": "_tiers",
					"type": "tuple[]"
				},
				{
					"internalType": "uint48",
					"name": "_currency",
					"type": "uint48"
				},
				{
					"internalType": "contract IJB721TiersHookStore",
					"name": "_store",
					"type": "address"
				},
				{
					"internalType": "contract IDefifaGamePhaseReporter",
					"name": "_gamePhaseReporter",
					"type": "address"
				},
				{
					"internalType": "contract IDefifaGamePotReporter",
					"name": "_gamePotReporter",
					"type": "address"
				},
				{
					"internalType": "address",
					"name": "_defaultAttestationDelegate",
					"type": "address"
				},
				{
					"internalType": "string[]",
					"name": "_tierNames",
					"type": "string[]"
				}
			],
			"name": "initialize",
			"outputs": [],
			"stateMutability": "nonpayable",
			"type": "function"
		},
		{
			"inputs": [
				{
					"internalType": "address",
					"name": "owner",
					"type": "address"
				},
				{
					"internalType": "address",
					"name": "operator",
					"type": "address"
				}
			],
			"name": "isApprovedForAll",
			"outputs": [
				{
					"internalType": "bool",
					"name": "",
					"type": "bool"
				}
			],
			"stateMutability": "view",
			"type": "function"
		},
		{
			"inputs": [
				{
					"components": [
						{
							"internalType": "uint32",
							"name": "tierId",
							"type": "uint32"
						},
						{
							"internalType": "uint16",
							"name": "count",
							"type": "uint16"
						}
					],
					"internalType": "struct JB721TiersMintReservesConfig[]",
					"name": "_mintReservesForTiersData",
					"type": "tuple[]"
				}
			],
			"name": "mintReservesFor",
			"outputs": [],
			"stateMutability": "nonpayable",
			"type": "function"
		},
		{
			"inputs": [
				{
					"internalType": "uint256",
					"name": "_tierId",
					"type": "uint256"
				},
				{
					"internalType": "uint256",
					"name": "_count",
					"type": "uint256"
				}
			],
			"name": "mintReservesFor",
			"outputs": [],
			"stateMutability": "nonpayable",
			"type": "function"
		},
		{
			"inputs": [],
			"name": "name",
			"outputs": [
				{
					"internalType": "string",
					"name": "",
					"type": "string"
				}
			],
			"stateMutability": "view",
			"type": "function"
		},
		{
			"inputs": [],
			"name": "owner",
			"outputs": [
				{
					"internalType": "address",
					"name": "",
					"type": "address"
				}
			],
			"stateMutability": "view",
			"type": "function"
		},
		{
			"inputs": [
				{
					"internalType": "uint256",
					"name": "tokenId",
					"type": "uint256"
				}
			],
			"name": "ownerOf",
			"outputs": [
				{
					"internalType": "address",
					"name": "",
					"type": "address"
				}
			],
			"stateMutability": "view",
			"type": "function"
		},
		{
			"inputs": [],
			"name": "pricingCurrency",
			"outputs": [
				{
					"internalType": "uint256",
					"name": "",
					"type": "uint256"
				}
			],
			"stateMutability": "view",
			"type": "function"
		},
		{
			"inputs": [],
			"name": "renounceOwnership",
			"outputs": [],
			"stateMutability": "nonpayable",
			"type": "function"
		},
		{
			"inputs": [],
			"name": "rulesets",
			"outputs": [
				{
					"internalType": "contract IJBRulesets",
					"name": "",
					"type": "address"
				}
			],
			"stateMutability": "view",
			"type": "function"
		},
		{
			"inputs": [
				{
					"internalType": "address",
					"name": "from",
					"type": "address"
				},
				{
					"internalType": "address",
					"name": "to",
					"type": "address"
				},
				{
					"internalType": "uint256",
					"name": "tokenId",
					"type": "uint256"
				}
			],
			"name": "safeTransferFrom",
			"outputs": [],
			"stateMutability": "nonpayable",
			"type": "function"
		},
		{
			"inputs": [
				{
					"internalType": "address",
					"name": "from",
					"type": "address"
				},
				{
					"internalType": "address",
					"name": "to",
					"type": "address"
				},
				{
					"internalType": "uint256",
					"name": "tokenId",
					"type": "uint256"
				},
				{
					"internalType": "bytes",
					"name": "data",
					"type": "bytes"
				}
			],
			"name": "safeTransferFrom",
			"outputs": [],
			"stateMutability": "nonpayable",
			"type": "function"
		},
		{
			"inputs": [
				{
					"internalType": "address",
					"name": "operator",
					"type": "address"
				},
				{
					"internalType": "bool",
					"name": "approved",
					"type": "bool"
				}
			],
			"name": "setApprovalForAll",
			"outputs": [],
			"stateMutability": "nonpayable",
			"type": "function"
		},
		{
			"inputs": [
				{
					"components": [
						{
							"internalType": "uint256",
							"name": "id",
							"type": "uint256"
						},
						{
							"internalType": "uint256",
							"name": "cashOutWeight",
							"type": "uint256"
						}
					],
					"internalType": "struct DefifaTierCashOutWeight[]",
					"name": "_tierWeights",
					"type": "tuple[]"
				}
			],
			"name": "setTierCashOutWeightsTo",
			"outputs": [],
			"stateMutability": "nonpayable",
			"type": "function"
		},
		{
			"inputs": [
				{
					"internalType": "address",
					"name": "_delegatee",
					"type": "address"
				},
				{
					"internalType": "uint256",
					"name": "_tierId",
					"type": "uint256"
				}
			],
			"name": "setTierDelegateTo",
			"outputs": [],
			"stateMutability": "nonpayable",
			"type": "function"
		},
		{
			"inputs": [
				{
					"components": [
						{
							"internalType": "address",
							"name": "delegatee",
							"type": "address"
						},
						{
							"internalType": "uint256",
							"name": "tierId",
							"type": "uint256"
						}
					],
					"internalType": "struct DefifaDelegation[]",
					"name": "_setTierDelegatesData",
					"type": "tuple[]"
				}
			],
			"name": "setTierDelegatesTo",
			"outputs": [],
			"stateMutability": "nonpayable",
			"type": "function"
		},
		{
			"inputs": [],
			"name": "store",
			"outputs": [
				{
					"internalType": "contract IJB721TiersHookStore",
					"name": "",
					"type": "address"
				}
			],
			"stateMutability": "view",
			"type": "function"
		},
		{
			"inputs": [
				{
					"internalType": "bytes4",
					"name": "_interfaceId",
					"type": "bytes4"
				}
			],
			"name": "supportsInterface",
			"outputs": [
				{
					"internalType": "bool",
					"name": "",
					"type": "bool"
				}
			],
			"stateMutability": "view",
			"type": "function"
		},
		{
			"inputs": [],
			"name": "symbol",
			"outputs": [
				{
					"internalType": "string",
					"name": "",
					"type": "string"
				}
			],
			"stateMutability": "view",
			"type": "function"
		},
		{
			"inputs": [],
			"name": "tierCashOutWeights",
			"outputs": [
				{
					"internalType": "uint256[128]",
					"name": "",
					"type": "uint256[128]"
				}
			],
			"stateMutability": "view",
			"type": "function"
		},
		{
			"inputs": [
				{
					"internalType": "uint256",
					"name": "_tierId",
					"type": "uint256"
				}
			],
			"name": "tierNameOf",
			"outputs": [
				{
					"internalType": "string",
					"name": "",
					"type": "string"
				}
			],
			"stateMutability": "view",
			"type": "function"
		},
		{
			"inputs": [],
			"name": "tokenAllocations",
			"outputs": [
				{
					"internalType": "uint256",
					"name": "defifaTokenAllocation",
					"type": "uint256"
				},
				{
					"internalType": "uint256",
					"name": "baseProtocolTokenAllocation",
					"type": "uint256"
				}
			],
			"stateMutability": "view",
			"type": "function"
		},
		{
			"inputs": [
				{
					"internalType": "uint256",
					"name": "_tokenId",
					"type": "uint256"
				}
			],
			"name": "tokenURI",
			"outputs": [
				{
					"internalType": "string",
					"name": "",
					"type": "string"
				}
			],
			"stateMutability": "view",
			"type": "function"
		},
		{
			"inputs": [
				{
					"internalType": "uint256[]",
					"name": "_tokenIds",
					"type": "uint256[]"
				}
			],
			"name": "tokensClaimableFor",
			"outputs": [
				{
					"internalType": "uint256",
					"name": "defifaTokenAmount",
					"type": "uint256"
				},
				{
					"internalType": "uint256",
					"name": "baseProtocolTokenAmount",
					"type": "uint256"
				}
			],
			"stateMutability": "view",
			"type": "function"
		},
		{
			"inputs": [
				{
					"internalType": "uint256",
					"name": "",
					"type": "uint256"
				}
			],
			"name": "tokensRedeemedFrom",
			"outputs": [
				{
					"internalType": "uint256",
					"name": "",
					"type": "uint256"
				}
			],
			"stateMutability": "view",
			"type": "function"
		},
		{
			"inputs": [
				{
					"components": [
						{
							"internalType": "address",
							"name": "terminal",
							"type": "address"
						},
						{
							"internalType": "address",
							"name": "holder",
							"type": "address"
						},
						{
							"internalType": "uint256",
							"name": "projectId",
							"type": "uint256"
						},
						{
							"internalType": "uint256",
							"name": "rulesetId",
							"type": "uint256"
						},
						{
							"internalType": "uint256",
							"name": "cashOutCount",
							"type": "uint256"
						},
						{
							"internalType": "uint256",
							"name": "totalSupply",
							"type": "uint256"
						},
						{
							"components": [
								{
									"internalType": "address",
									"name": "token",
									"type": "address"
								},
								{
									"internalType": "uint8",
									"name": "decimals",
									"type": "uint8"
								},
								{
									"internalType": "uint32",
									"name": "currency",
									"type": "uint32"
								},
								{
									"internalType": "uint256",
									"name": "value",
									"type": "uint256"
								}
							],
							"internalType": "struct JBTokenAmount",
							"name": "surplus",
							"type": "tuple"
						},
						{
							"internalType": "bool",
							"name": "useTotalSurplus",
							"type": "bool"
						},
						{
							"internalType": "uint256",
							"name": "cashOutTaxRate",
							"type": "uint256"
						},
						{
							"internalType": "bytes",
							"name": "metadata",
							"type": "bytes"
						}
					],
					"internalType": "struct JBBeforeCashOutRecordedContext",
					"name": "",
					"type": "tuple"
				}
			],
			"name": "totalCashOutWeight",
			"outputs": [
				{
					"internalType": "uint256",
					"name": "",
					"type": "uint256"
				}
			],
			"stateMutability": "view",
			"type": "function"
		},
		{
			"inputs": [
				{
					"internalType": "address",
					"name": "from",
					"type": "address"
				},
				{
					"internalType": "address",
					"name": "to",
					"type": "address"
				},
				{
					"internalType": "uint256",
					"name": "tokenId",
					"type": "uint256"
				}
			],
			"name": "transferFrom",
			"outputs": [],
			"stateMutability": "nonpayable",
			"type": "function"
		},
		{
			"inputs": [
				{
					"internalType": "address",
					"name": "newOwner",
					"type": "address"
				}
			],
			"name": "transferOwnership",
			"outputs": [],
			"stateMutability": "nonpayable",
			"type": "function"
		},
		{
			"anonymous": false,
			"inputs": [
				{
					"indexed": true,
					"internalType": "address",
					"name": "owner",
					"type": "address"
				},
				{
					"indexed": true,
					"internalType": "address",
					"name": "approved",
					"type": "address"
				},
				{
					"indexed": true,
					"internalType": "uint256",
					"name": "tokenId",
					"type": "uint256"
				}
			],
			"name": "Approval",
			"type": "event"
		},
		{
			"anonymous": false,
			"inputs": [
				{
					"indexed": true,
					"internalType": "address",
					"name": "owner",
					"type": "address"
				},
				{
					"indexed": true,
					"internalType": "address",
					"name": "operator",
					"type": "address"
				},
				{
					"indexed": false,
					"internalType": "bool",
					"name": "approved",
					"type": "bool"
				}
			],
			"name": "ApprovalForAll",
			"type": "event"
		},
		{
			"anonymous": false,
			"inputs": [
				{
					"indexed": true,
					"internalType": "address",
					"name": "beneficiary",
					"type": "address"
				},
				{
					"indexed": false,
					"internalType": "uint256",
					"name": "defifaTokenAmount",
					"type": "uint256"
				},
				{
					"indexed": false,
					"internalType": "uint256",
					"name": "baseProtocolTokenAmount",
					"type": "uint256"
				},
				{
					"indexed": false,
					"internalType": "address",
					"name": "caller",
					"type": "address"
				}
			],
			"name": "ClaimedTokens",
			"type": "event"
		},
		{
			"anonymous": false,
			"inputs": [
				{
					"indexed": true,
					"internalType": "address",
					"name": "delegator",
					"type": "address"
				},
				{
					"indexed": true,
					"internalType": "address",
					"name": "fromDelegate",
					"type": "address"
				},
				{
					"indexed": true,
					"internalType": "address",
					"name": "toDelegate",
					"type": "address"
				}
			],
			"name": "DelegateChanged",
			"type": "event"
		},
		{
			"anonymous": false,
			"inputs": [
				{
					"indexed": true,
					"internalType": "uint256",
					"name": "tokenId",
					"type": "uint256"
				},
				{
					"indexed": true,
					"internalType": "uint256",
					"name": "tierId",
					"type": "uint256"
				},
				{
					"indexed": true,
					"internalType": "address",
					"name": "beneficiary",
					"type": "address"
				},
				{
					"indexed": false,
					"internalType": "uint256",
					"name": "totalAmountContributed",
					"type": "uint256"
				},
				{
					"indexed": false,
					"internalType": "address",
					"name": "caller",
					"type": "address"
				}
			],
			"name": "Mint",
			"type": "event"
		},
		{
			"anonymous": false,
			"inputs": [
				{
					"indexed": true,
					"internalType": "uint256",
					"name": "tokenId",
					"type": "uint256"
				},
				{
					"indexed": true,
					"internalType": "uint256",
					"name": "tierId",
					"type": "uint256"
				},
				{
					"indexed": true,
					"internalType": "address",
					"name": "beneficiary",
					"type": "address"
				},
				{
					"indexed": false,
					"internalType": "address",
					"name": "caller",
					"type": "address"
				}
			],
			"name": "MintReservedToken",
			"type": "event"
		},
		{
			"anonymous": false,
			"inputs": [
				{
					"indexed": true,
					"internalType": "address",
					"name": "previousOwner",
					"type": "address"
				},
				{
					"indexed": true,
					"internalType": "address",
					"name": "newOwner",
					"type": "address"
				}
			],
			"name": "OwnershipTransferred",
			"type": "event"
		},
		{
			"anonymous": false,
			"inputs": [
				{
					"components": [
						{
							"internalType": "uint256",
							"name": "id",
							"type": "uint256"
						},
						{
							"internalType": "uint256",
							"name": "cashOutWeight",
							"type": "uint256"
						}
					],
					"indexed": false,
					"internalType": "struct DefifaTierCashOutWeight[]",
					"name": "_tierWeights",
					"type": "tuple[]"
				},
				{
					"indexed": false,
					"internalType": "address",
					"name": "caller",
					"type": "address"
				}
			],
			"name": "TierCashOutWeightsSet",
			"type": "event"
		},
		{
			"anonymous": false,
			"inputs": [
				{
					"indexed": true,
					"internalType": "address",
					"name": "delegate",
					"type": "address"
				},
				{
					"indexed": true,
					"internalType": "uint256",
					"name": "tierId",
					"type": "uint256"
				},
				{
					"indexed": false,
					"internalType": "uint256",
					"name": "previousBalance",
					"type": "uint256"
				},
				{
					"indexed": false,
					"internalType": "uint256",
					"name": "newBalance",
					"type": "uint256"
				},
				{
					"indexed": false,
					"internalType": "address",
					"name": "caller",
					"type": "address"
				}
			],
			"name": "TierDelegateAttestationsChanged",
			"type": "event"
		},
		{
			"anonymous": false,
			"inputs": [
				{
					"indexed": true,
					"internalType": "address",
					"name": "from",
					"type": "address"
				},
				{
					"indexed": true,
					"internalType": "address",
					"name": "to",
					"type": "address"
				},
				{
					"indexed": true,
					"internalType": "uint256",
					"name": "tokenId",
					"type": "uint256"
				}
			],
			"name": "Transfer",
			"type": "event"
		},
		{
			"inputs": [],
			"name": "BAD_TIER_ORDER",
			"type": "error"
		},
		{
			"inputs": [],
			"name": "CASHOUT_WEIGHTS_ALREADY_SET",
			"type": "error"
		},
		{
			"inputs": [],
			"name": "CheckpointUnorderedInsertion",
			"type": "error"
		},
		{
			"inputs": [],
			"name": "DELEGATE_ADDRESS_ZERO",
			"type": "error"
		},
		{
			"inputs": [],
			"name": "DELEGATE_CHANGES_UNAVAILABLE_IN_THIS_PHASE",
			"type": "error"
		},
		{
			"inputs": [
				{
					"internalType": "address",
					"name": "sender",
					"type": "address"
				},
				{
					"internalType": "uint256",
					"name": "tokenId",
					"type": "uint256"
				},
				{
					"internalType": "address",
					"name": "owner",
					"type": "address"
				}
			],
			"name": "ERC721IncorrectOwner",
			"type": "error"
		},
		{
			"inputs": [
				{
					"internalType": "address",
					"name": "operator",
					"type": "address"
				},
				{
					"internalType": "uint256",
					"name": "tokenId",
					"type": "uint256"
				}
			],
			"name": "ERC721InsufficientApproval",
			"type": "error"
		},
		{
			"inputs": [
				{
					"internalType": "address",
					"name": "approver",
					"type": "address"
				}
			],
			"name": "ERC721InvalidApprover",
			"type": "error"
		},
		{
			"inputs": [
				{
					"internalType": "address",
					"name": "operator",
					"type": "address"
				}
			],
			"name": "ERC721InvalidOperator",
			"type": "error"
		},
		{
			"inputs": [
				{
					"internalType": "address",
					"name": "owner",
					"type": "address"
				}
			],
			"name": "ERC721InvalidOwner",
			"type": "error"
		},
		{
			"inputs": [
				{
					"internalType": "address",
					"name": "receiver",
					"type": "address"
				}
			],
			"name": "ERC721InvalidReceiver",
			"type": "error"
		},
		{
			"inputs": [
				{
					"internalType": "address",
					"name": "sender",
					"type": "address"
				}
			],
			"name": "ERC721InvalidSender",
			"type": "error"
		},
		{
			"inputs": [
				{
					"internalType": "uint256",
					"name": "tokenId",
					"type": "uint256"
				}
			],
			"name": "ERC721NonexistentToken",
			"type": "error"
		},
		{
			"inputs": [],
			"name": "GAME_ISNT_SCORING_YET",
			"type": "error"
		},
		{
			"inputs": [],
			"name": "INVALID_CASHOUT_WEIGHTS",
			"type": "error"
		},
		{
			"inputs": [],
			"name": "INVALID_TIER_ID",
			"type": "error"
		},
		{
			"inputs": [],
			"name": "JB721Hook_InvalidCashOut",
			"type": "error"
		},
		{
			"inputs": [],
			"name": "JB721Hook_InvalidPay",
			"type": "error"
		},
		{
			"inputs": [
				{
					"internalType": "uint256",
					"name": "tokenId",
					"type": "uint256"
				},
				{
					"internalType": "address",
					"name": "holder",
					"type": "address"
				}
			],
			"name": "JB721Hook_UnauthorizedToken",
			"type": "error"
		},
		{
			"inputs": [],
			"name": "JB721Hook_UnexpectedTokenCashedOut",
			"type": "error"
		},
		{
			"inputs": [],
			"name": "NOTHING_TO_CLAIM",
			"type": "error"
		},
		{
			"inputs": [],
			"name": "NOTHING_TO_MINT",
			"type": "error"
		},
		{
			"inputs": [],
			"name": "NO_CONTEST",
			"type": "error"
		},
		{
			"inputs": [],
			"name": "OVERSPENDING",
			"type": "error"
		},
		{
			"inputs": [
				{
					"internalType": "address",
					"name": "owner",
					"type": "address"
				}
			],
			"name": "OwnableInvalidOwner",
			"type": "error"
		},
		{
			"inputs": [
				{
					"internalType": "address",
					"name": "account",
					"type": "address"
				}
			],
			"name": "OwnableUnauthorizedAccount",
			"type": "error"
		},
		{
			"inputs": [
				{
					"internalType": "uint256",
					"name": "x",
					"type": "uint256"
				},
				{
					"internalType": "uint256",
					"name": "y",
					"type": "uint256"
				},
				{
					"internalType": "uint256",
					"name": "denominator",
					"type": "uint256"
				}
			],
			"name": "PRBMath_MulDiv_Overflow",
			"type": "error"
		},
		{
			"inputs": [],
			"name": "RESERVED_TOKEN_MINTING_PAUSED",
			"type": "error"
		},
		{
			"inputs": [],
			"name": "TRANSFERS_PAUSED",
			"type": "error"
		},
		{
			"inputs": [
				{
					"internalType": "uint256",
					"name": "tokenId",
					"type": "uint256"
				},
				{
					"internalType": "address",
					"name": "owner",
					"type": "address"
				},
				{
					"internalType": "address",
					"name": "caller",
					"type": "address"
				}
			],
			"name": "UNAUTHORIZED",
			"type": "error"
		},
		{
			"inputs": [],
			"name": "WRONG_CURRENCY",
			"type": "error"
		}
	],
	"args": [],
	"solcInputHash": "bbd52d6f4feb6ee413754f9f8639fe9c",
	"bytecode": "0x610120346200016457601f620060e438819003918201601f19168301916001600160401b038311848410176200016857808492606094604052833981010312620001645780516001600160a01b0390818116810362000164576200007460406200006c602086016200017c565b94016200017c565b906080523060a05233156200014c5760078054336001600160a01b03198216811790925560405193167f8be0079c531659141344cd1fd0a4f28419497f9722a3daafe3b4186f6b6457e05f80a36101009230845260c05260e052615f529182620001928339608051828181610ae90152818161180a0152612047015260a051828181611d1701526124f0015260c051828181610d8e01528181613ca40152615640015260e051828181610b6d01528181613cf201526155dd015251818181610c6a0152818161266401528181613920015261474d0152f35b604051631e4fbdf760e01b81525f6004820152602490fd5b5f80fd5b634e487b7160e01b5f52604160045260245ffd5b51906001600160a01b0382168203620001645756fe60806040526004361015610011575f80fd5b5f3560e01c806301ffc9a7146103c457806306fdde03146103bf57806307405b24146103ba578063081812fc146103b5578063095ea7b3146103b05780630fa617c0146103ab5780631337f986146103a65780631417f9f6146103a15780631baabc3e1461039c5780631d153ca4146103975780631da1da721461039257806323b872dd1461038d57806327f6e9791461038857806329eabfe7146103835780633b2b8a781461037e57806342842e0e14610379578063453135a41461037457806354c6d1f51461036f57806356539f391461036a57806359196c7d1461036557806361d4c25a146103605780636352211e1461035b57806364640c1e1461035657806369f72970146103515780636c0360eb1461034c57806370a0823114610347578063715018a6146103425780637245d80c1461033d578063743682b5146103385780637f98988714610333578063859252e21461032e578063873e7e4b1461032957806388bc2ef3146103245780638cc358461461031f5780638da5cb5b1461031a57806392eb16411461031557806395d89b4114610310578063975057e71461030b57806399f6d77f146103065780639c8c6cd514610301578063a0b6490c146102fc578063a22cb465146102f7578063aa4fb15b146102f2578063b88d4fde146102ed578063c22903b2146102e8578063c3c69a96146102e3578063c87b56dd146102de578063c90f5126146102d9578063c9149c5f146102d4578063caa00cf9146102cf578063cb7043f7146102ca578063d3fef143146102c5578063e4f650b8146102c0578063e8a3d485146102bb578063e985e9c5146102b6578063edab09b9146102b1578063f2fde38b146102ac578063f7623b81146102a75763fb82b1b0146102a2575f80fd5b612645565b612574565b61251f565b6124db565b612484565b6123fb565b612379565b612357565b61231f565b6122c2565b61229a565b6121e7565b6120f7565b6120a5565b611cf1565b611c8a565b611c6b565b611bc4565b611b9c565b611b54565b611aaa565b611a56565b6119cb565b6119a1565b611979565b6118cd565b6117f5565b6117d3565b6116a0565b611678565b61164e565b6115ee565b6115a6565b61154c565b6114c3565b611435565b6113b8565b61139a565b611351565b611295565b611278565b611248565b611159565b610dbd565b610d79565b610d53565b610d36565b610d1f565b610cd2565b610c55565b610b9c565b610b58565b610a76565b61099a565b61077a565b61073e565b61064a565b610551565b6103df565b6001600160e01b03198116036103db57565b5f80fd5b346103db5760203660031901126103db5761042c6004356103ff816103c9565b63ffffffff60e01b166231a68960e61b8114908115610430575b5060405190151581529081906020820190565b0390f35b633344b87360e01b8114915081156104dc575b81156104cb575b81156104ba575b81156104a9575b8115610466575b505f610419565b6380ac58cd60e01b811491508115610498575b8115610487575b505f61045f565b6301ffc9a760e01b1490505f610480565b635b5e139f60e01b81149150610479565b63152a902d60e11b81149150610458565b63611481d960e11b81149150610451565b63099bfcc360e11b8114915061044a565b63eeb73e8960e01b81149150610443565b5f9103126103db57565b5f5b8381106105085750505f910152565b81810151838201526020016104f9565b90602091610531815180928185528580860191016104f7565b601f01601f1916010190565b90602061054e928181520190610518565b90565b346103db575f3660031901126103db576040515f905f546105718161148b565b8083526020916001908181169081156105e457506001146105a9575b61042c8461059d818803826108d4565b6040519182918261053d565b5f808052838120939550925b8284106105d1575050508161042c9361059d928201019361058d565b80548585018701529285019281016105b5565b60ff1916858501525050151560051b820101915061059d8161042c61058d565b6001600160a01b031690565b6001600160a01b038116036103db57565b610184359061062f82610610565b565b610144359061062f82610610565b359061062f82610610565b346103db5760403660031901126103db5760043561066781610610565b6106a3602061067f61067a609054610604565b610604565b60065490604051808095819463038ab08560e11b8352600483019190602083019252565b03915afa8015610717576001915f916106e8575b506106c18161291d565b036106d6576106d490602435903361453c565b005b60405163f331f3c160e01b8152600490fd5b61070a915060203d602011610710575b61070281836108d4565b8101906128fa565b5f6106b7565b503d6106f8565b612912565b908160209103126103db573590565b6001600160a01b03909116815260200190565b346103db5760203660031901126103db5760043561075b81614604565b505f526004602052602060018060a01b0360405f205416604051908152f35b346103db5760403660031901126103db5760043561079781610610565b602435906107a482614604565b33151580610843575b8061081b575b6107fc576106d4926107f79181906001600160a01b0385811691167f8c5be1e5ebec7d5bd14f71427d1e84f3dd0314c0f7b2291e5b200ac8c7c3b9255f80a4611640565b61329f565b60405163a9fbf51f60e01b815280610817336004830161072b565b0390fd5b5060018060a01b0381165f52600560205260ff61083b3360405f20613c2f565b5416156107b3565b506001600160a01b0381163314156107ad565b634e487b7160e01b5f52604160045260245ffd5b604081019081106001600160401b0382111761088557604052565b610856565b6001600160401b03811161088557604052565b602081019081106001600160401b0382111761088557604052565b61100081019081106001600160401b0382111761088557604052565b601f909101601f19168101906001600160401b0382119082101761088557604052565b604051906101c082016001600160401b0381118382101761088557604052565b60405190606082016001600160401b0381118382101761088557604052565b6040519061012082016001600160401b0381118382101761088557604052565b604051906101e082016001600160401b0381118382101761088557604052565b6040519061062f8261086a565b6001600160401b0381116108855760051b60200190565b346103db576020806003193601126103db57600435906001600160401b0382116103db57366023830112156103db578160040135916109d883610983565b916040936109e960405194856108d4565b8084526024602085019160061b840101923684116103db57602401905b838210610a16576106d48561293b565b85823603126103db578286918251610a2d8161086a565b843581528285013583820152815201910190610a06565b600319906020818301126103db57600435916001600160401b0383116103db5782610200920301126103db5760040190565b610a7f36610a44565b600654341590811591610ac3575b8115610ab4575b50610aa2576106d490614729565b604051633fb648ad60e11b8152600490fd5b9050602082013514155f610a94565b604051636e49181f60e01b815290915060208180610ae5338660048401612fd9565b03817f00000000000000000000000000000000000000000000000000000000000000006001600160a01b03165afa908115610717575f91610b29575b501590610a8d565b610b4b915060203d602011610b51575b610b4381836108d4565b810190612fc4565b5f610b21565b503d610b39565b346103db575f3660031901126103db576040517f00000000000000000000000000000000000000000000000000000000000000006001600160a01b03168152602090f35b346103db576020806003193601126103db576004355f52608c815260405f2090604051905f928054610bcd8161148b565b80855291600191808316908115610c335750600114610bf7575b61042c8561059d818903826108d4565b5f908152838120939550925b828410610c20575050508161042c9361059d92820101935f610be7565b8054858501870152928501928101610c03565b60ff191686860152505050151560051b820101915061059d8161042c5f610be7565b346103db575f3660031901126103db576040517f00000000000000000000000000000000000000000000000000000000000000006001600160a01b03168152602090f35b90816101a09103126103db5790565b60206003198201126103db57600435906001600160401b0382116103db5761054e91600401610c99565b346103db57610ce036610ca8565b506020604051670de0b6b3a76400008152f35b60609060031901126103db57600435610d0b81610610565b90602435610d1881610610565b9060443590565b346103db576106d4610d3036610cf3565b91612ff2565b346103db575f3660031901126103db576020609754604051908152f35b346103db5760203660031901126103db576020610d716004356130b2565b604051908152f35b346103db575f3660031901126103db576040517f00000000000000000000000000000000000000000000000000000000000000006001600160a01b03168152602090f35b346103db576106d4610dce36610cf3565b9060405192610ddc8461089d565b5f8452614133565b6001600160401b03811161088557601f01601f191660200190565b929192610e0b82610de4565b91610e1960405193846108d4565b8294818452818301116103db578281602093845f960137010152565b9080601f830112156103db5781602061054e93359101610dff565b6064359061062f82610610565b60a4359061062f82610610565b6001600160681b038116036103db57565b359061062f82610e6a565b63ffffffff8116036103db57565b60a4359061062f82610e86565b60e4359061062f82610e86565b359061062f82610e86565b61ffff8116036103db57565b359061062f82610eb9565b62ffffff8116036103db57565b359061062f82610ed0565b60ff8116036103db57565b359061062f82610ee8565b801515036103db57565b359061062f82610efe565b81601f820112156103db578035906020610f2c83610983565b936040610f3c60405196876108d4565b84865282860191836101c0809702860101948186116103db578401925b858410610f6a575050505050505090565b86848303126103db57848791610f7e6108f7565b610f8787610e7b565b8152610f94838801610eae565b83820152610fa3868801610eae565b868201526060610fb4818901610ec5565b908201526080610fc581890161063f565b9082015260a0808801359082015260c0610fe0818901610edd565b9082015260e0610ff1818901610ef3565b90820152610100611003818901610f08565b90820152610120611015818901610f08565b90820152610140611027818901610f08565b90820152610160611039818901610f08565b9082015261018061104b818901610f08565b908201526101a061105d818901610f08565b90820152815201930192610f59565b65ffffffffffff8116036103db57565b610104359061062f8261106c565b6024359061062f8261106c565b6044359061062f8261106c565b6064359061062f8261106c565b6084359061062f8261106c565b610124359061062f82610610565b610164359061062f82610610565b81601f820112156103db578035916020916110f484610983565b9361110260405195866108d4565b808552838086019160051b830101928084116103db57848301915b84831061112d5750505050505090565b82356001600160401b0381116103db57869161114e84848094890101610e35565b81520192019161111d565b346103db576101c03660031901126103db576001600160401b0360046024358281116103db5761118c9036908301610e35565b6044358381116103db576111a39036908401610e35565b6111ab610e50565b6084358581116103db576111c29036908601610e35565b6111ca610e5d565b60c4358781116103db576111e19036908801610e35565b60e4358881116103db576111f89036908901610f13565b9061120161107c565b9261120a6110be565b94611213610631565b9661121c6110cc565b98611225610621565b9a6101a4359d8e116103db576112418d6106d49f3691016110da565b9c35613908565b346103db5760203660031901126103db576020611266600435613b74565b6040516001600160a01b039091168152f35b346103db575f3660031901126103db576020600654604051908152f35b346103db576020806003193601126103db57600435906001600160401b03908183116103db57366023840112156103db5782600401359182116103db5760249260063660248560061b840101116103db575f5b8481106112f157005b80821b83019060408060231984360301126103db5760019263ffffffff61ffff8861134b94516113208161086a565b60448d8601359561133087610e86565b868352013591829161134183610eb9565b0152169116613e52565b016112e8565b346103db5760403660031901126103db5760206024356113708161106c565b6004355f908152608a8352604090206001600160d01b039161139191614fb9565b16604051908152f35b346103db5760203660031901126103db576020611266600435614604565b346103db575f3660031901126103db576020609254604051908152f35b9080601f830112156103db5760209082356113ef81610983565b936113fd60405195866108d4565b81855260208086019260051b8201019283116103db57602001905b828210611426575050505090565b81358152908301908301611418565b346103db5760403660031901126103db576001600160401b036004358181116103db576114669036906004016113d5565b906024359081116103db57602091611485610d71923690600401610c99565b50613ba6565b90600182811c921680156114b9575b60208310146114a557565b634e487b7160e01b5f52602260045260245ffd5b91607f169161149a565b346103db575f3660031901126103db576040515f906094546114e48161148b565b8083526020916001908181169081156105e4575060011461150f5761042c8461059d818803826108d4565b91935060945f52835f20915f925b828410611539575050508161042c9361059d928201019361058d565b805485850187015292850192810161151d565b346103db5760203660031901126103db5760043561156981610610565b6001600160a01b0316801561158e575f526003602052602060405f2054604051908152f35b6040516322718ad960e21b81525f6004820152602490fd5b346103db575f3660031901126103db576115be61463e565b600780546001600160a01b031981169091555f906001600160a01b03165f80516020615ebd8339815191528280a3005b346103db575f3660031901126103db576091546040516001600160a01b039091168152602090f35b5f52600260205260405f2090565b5f52608b60205260405f2090565b5f52608a60205260405f2090565b5f52600460205260405f2090565b346103db5760203660031901126103db576004355f526098602052602060405f2054604051908152f35b346103db575f3660031901126103db576096546040516001600160a01b039091168152602090f35b346103db5760203660031901126103db576004356116c261067a608e54610604565b6040516364faa15960e01b8152915f83806116e1843060048401612eb8565b0381855afa9081156107175761173b935f926117ac575b5060209061171e6040611712606086015163ffffffff1690565b94015163ffffffff1690565b9360405180809781946302b7e6ef60e41b83523060048401613079565b03915afa9182156107175761176661176d9361042c955f9161177d575b5063ffffffff809316612f58565b911661306c565b6040519081529081906020820190565b61179f915060203d6020116117a5575b61179781836108d4565b810190612c2a565b5f611758565b503d61178d565b60209192506117cc903d805f833e6117c481836108d4565b810190612d80565b91906116f8565b346103db575f3660031901126103db576020604051670de0b6b3a76400008152f35b346103db575f3660031901126103db576040517f00000000000000000000000000000000000000000000000000000000000000006001600160a01b03168152602090f35b90604090604083019083526020604081850152845180925260608085018260608560051b8801019701945f925b85841061187857505050505050505090565b90919293949596989785806118b96001938d605f1990820301885285878d51878060a01b038151168452858101518685015201519181898201520190610518565b9a9b99019796959190910193019190611866565b346103db5760206003196020813601126103db57600435906001600160401b0382116103db576101809082360301126103db576040519161190d8361086a565b600183525f5b818110611963576101248361042c8661192a61328d565b611932610917565b308152905f6020830152604082015261194a82612ccb565b5261195481612ccb565b50604051938493013583611839565b819061196d613c44565b82828701015201611913565b346103db575f3660031901126103db576007546040516001600160a01b039091168152602090f35b346103db575f3660031901126103db576119b9613c73565b60408051928352602083019190915290f35b346103db575f3660031901126103db576040515f9060018054906119ee8261148b565b908184526020926001811690815f146105e45750600114611a195761042c8461059d818803826108d4565b91935060015f52835f20915f925b828410611a43575050508161042c9361059d928201019361058d565b8054858501870152928501928101611a27565b346103db575f3660031901126103db57608e546040516001600160a01b039091168152602090f35b6001600160701b038116036103db57565b60c4359061062f82611a7e565b610104359061062f82610610565b346103db576101603660031901126103db576101203660231901126103db57611ad1610936565b611ad961108a565b8152611ae3611097565b6020820152611af06110a4565b6040820152611afd6110b1565b6060820152611b0a610e94565b6080820152611b17611a8f565b60a0820152611b24610ea1565b60c0820152611b31611a9c565b60e082015261010061012435910152611b48610631565b506040515f8152602090f35b346103db5760403660031901126103db576020600435611b7381610610565b60018060a01b038091165f526088825260405f206024355f52825260405f205416604051908152f35b346103db575f3660031901126103db576090546040516001600160a01b039091168152602090f35b346103db5760403660031901126103db57600435611be181610610565b602435611bed81610efe565b6001600160a01b038216918215611c5257611c1390335f52600560205260405f20613c2f565b9015159060ff1981541660ff83161790556040519081527f17307eab39ab6107e8899845ad3d59bd9653f200f220920489ca2b5937696c3160203392a3005b604051630b61174360e31b815260048101849052602490fd5b346103db5760403660031901126103db576106d4602435600435613e52565b346103db5760803660031901126103db57600435611ca781610610565b602435611cb381610610565b606435916001600160401b0383116103db57366023840112156103db57611ce76106d4933690602481600401359101610dff565b9160443591614133565b611cfa36610a44565b341580159061201e575b801561200e575b611ffc57611d86611d687f0000000000000000000000000000000000000000000000000000000000000000611d3e61422b565b805160209091012060609190911b6001600160601b03199081169116186001600160e01b03191690565b611d80611d796101e085018561424e565b3691610dff565b9061539d565b90156103db57611da1815191602080809483010191016137d7565b90815191611db361067a609054610604565b916006549260409082604051809263038ab08560e11b82528180611de160049a600483019190602083019252565b03915afa8015610717576004915f91611fdf575b50611dff8161291d565b14935f5b868110611eb0578786611e158761551e565b611e2e611e266101c084018461424e565b81019061071c565b915f91611e76575b60e00135159081611e6d575b50611e5b57611e566106d491608d5461306c565b608d55565b604051637691472960e01b8152600490fd5b90501582611e42565b9050611e90611e8b60e0830135609754612f58565b609755565b60e0611ea8611e9e83614280565b84608d54916155c5565b919050611e36565b611eba8186612cdd565b5190611ed5611ec883611616565b546001600160a01b031690565b611ee161067a8b614280565b6001600160a01b0390911603611f8f578487611efc84615504565b611f0c575b506001915001611e03565b611f3d92611f1e61067a608e54610604565b86516342f9914b60e01b81528681019283529485928391829160200190565b03915afa91821561071757600192611f65915f91611f72575b505f52609860205260405f2090565b8054600101905584611f01565b611f899150873d89116117a55761179781836108d4565b5f611f56565b50916108179088611fab611fa5611ec887611616565b91614280565b9151631048fd9360e11b81529384019485526001600160a01b03908116602086015216604084015290918291606090910190565b611ff69150843d86116107105761070281836108d4565b5f611df5565b6040516394310b3d60e01b8152600490fd5b5060065460208201351415611d0b565b50612043602060065460405180938192636e49181f60e01b8352339060048401612fd9565b03817f00000000000000000000000000000000000000000000000000000000000000006001600160a01b03165afa908115610717575f91612086575b5015611d04565b61209f915060203d602011610b5157610b4381836108d4565b5f61207f565b346103db5760403660031901126103db576004356120c281610610565b6001600160a01b03165f908152608960209081526040808320602435845282529091206001600160d01b0390611391906157cc565b346103db5760203660031901126103db5761211661067a608e54610604565b60206040518092630fab094760e01b82528180612136306004830161072b565b03915afa908115610717575f916121b8575b505f6040518092635e703e7160e01b8252818061216b6004353060048401613079565b03916001600160a01b03165afa80156107175761042c915f91612196575b506040519182918261053d565b6121b291503d805f833e6121aa81836108d4565b81019061428a565b5f612189565b6121da915060203d6020116121e0575b6121d281836108d4565b810190613e14565b5f612148565b503d6121c8565b346103db576020806003193601126103db57600435906001600160401b0382116103db57366023830112156103db5781600401359161222583610983565b9160409361223660405194856108d4565b8084526024602085019160061b840101923684116103db57602401905b838210612263576106d4856142c7565b85823603126103db57828691825161227a8161086a565b843561228581610610565b81528285013583820152815201910190612253565b346103db575f3660031901126103db57608f546040516001600160a01b039091168152602090f35b346103db5760603660031901126103db5760206004356122e181610610565b604435906122ee8261106c565b6001600160a01b03165f9081526089835260408082206024358352845290206001600160d01b039161139191614fb9565b346103db5760203660031901126103db576004356001600160401b0381116103db576123526119b99136906004016113d5565b6143af565b346103db575f3660031901126103db57602060ff609354166040519015158152f35b346103db575f3660031901126103db57604051612395816108b8565b611000809136903760405160085f825b608082106123e5575050506123b9816108b8565b604051905f90825b608083106123ce57505050f35b6001908251815260208091019201920191906123c1565b60016020819285548152019301910190916123a5565b346103db575f3660031901126103db576040515f9060955461241c8161148b565b8083526020916001908181169081156105e457506001146124475761042c8461059d818803826108d4565b91935060955f52835f20915f925b828410612471575050508161042c9361059d928201019361058d565b8054858501870152928501928101612455565b346103db5760403660031901126103db57602060ff6124cf6004356124a881610610565b602435906124b582610610565b6001600160a01b03165f9081526005855260409020613c2f565b54166040519015158152f35b346103db575f3660031901126103db576040517f00000000000000000000000000000000000000000000000000000000000000006001600160a01b03168152602090f35b346103db5760203660031901126103db5760043561253c81610610565b61254461463e565b6001600160a01b0381161561255c576106d490614f84565b604051631e4fbdf760e01b81525f6004820152602490fd5b346103db5760203660031901126103db576004355f52608a602052602060018060d01b0361139160405f206157cc565b929160808401918452602090818501526040926040850152606060806060860152855180935260a085018260a08560051b8801019701945f925b8584106125f057505050505050505090565b90919293949596989785806126316001938d609f1990820301885285878d51878060a01b038151168452858101518685015201519181898201520190610518565b9a9b990197969591909101930191906125de565b346103db5761265336610ca8565b60808101356128e85761269c61268b7f0000000000000000000000000000000000000000000000000000000000000000611d3e61422b565b611d80611d7961018085018561424e565b6060916128ce575b506126b361067a609054610604565b9060409182519163038ab08560e11b8352602092838160049481806126e38a8c0135600483019190602083019252565b03915afa908115610717575f916128b1575b508151925f935f9161270b61067a608e54610604565b905b82841061281e57898961042c8a8a8a8a612725614501565b93865161274b8161273d878583019190602083019252565b03601f1981018352826108d4565b5f612754610917565b308152928301528782015261276885612ccb565b5261277284612ccb565b5061277c8161291d565b60018114908115612809575b81156127f4575b81156127e0575b50156127b55750925b51938493610160610120830135920135856125a4565b6127da91506127d46127ce609754610120890135612f58565b91613ba6565b906157f4565b9261279f565b600591506127ed8161291d565b1487612796565b90506127ff8161291d565b600681149061278f565b90506128148161291d565b6002811490612788565b9091929561284b905f6128318989612cdd565b518b518094819263c44a8e6d60e01b835230888401612eb8565b0381875afa9081156107175761288761287b8b61288d946001965f91612897575b5001516001600160681b031690565b6001600160681b031690565b90612f58565b960192919061270d565b6128ab91503d805f833e6117c481836108d4565b5f61286c565b6128c89150843d86116107105761070281836108d4565b5f6126f5565b6128e29150602080825183010191016137d7565b5f6126a4565b60405163096afe5960e41b8152600490fd5b908160209103126103db575160078110156103db5790565b6040513d5f823e3d90fd5b6007111561292757565b634e487b7160e01b5f52602160045260245ffd5b61294361463e565b61295161067a609054610604565b6006546040805163038ab08560e11b81526004808201939093529092602091908290829060249082905afa908115610717575f91612c0d575b506129948161291d565b60038103612bfd5760935460ff16612bed576129af8161291d565b60068114908115612bd9575b50612bca57608e6129d061067a608e54610604565b91808551809463f1bea54f60e01b825281806129ee308a830161072b565b03915afa928315610717575f93612bab575b5090915f91865191612a10612c39565b505f945b838610612a875750505050670de0b6b3a7640000915011612a7957507f9a6cf4ff8f1a3ee73be4815b44949c83dbc2e76a386eaf652b2a454bac9d241291612a7491612a68600160ff196093541617609355565b51918291339083612f65565b0390a1565b90516351ae01e360e11b8152fd5b90919293612ac55f612a9c61067a8554610604565b612aa6898d612cdd565b5151908a8c518095819482936364faa15960e01b845230908401612eb8565b03915afa908115610717575f91612b91575b50612af4612aec61010083015162ffffff1690565b62ffffff1690565b612b81578363ffffffff612b0c835163ffffffff1690565b1611612b8157600191612b61612b7592612b49612b44612b3f8f612b318e8d92612cdd565b510151935163ffffffff1690565b612eed565b612f1d565b90919082549060031b91821b915f19901b1916179055565b85612b6c898d612cdd565b51015190612f58565b95019493929190612a14565b885163148e14dd60e21b81528890fd5b612ba591503d805f833e6117c481836108d4565b5f612ad7565b81612bc39294503d85116117a55761179781836108d4565b915f612a00565b509051636fb8407560e01b8152fd5b60059150612be68161291d565b145f6129bb565b8351633bfa282760e21b81528390fd5b83516301e7228160e11b81528390fd5b612c249150823d84116107105761070281836108d4565b5f61298a565b908160209103126103db575190565b604051906101e082016001600160401b038111838210176108855760405260606101c0835f81525f60208201525f60408201525f838201525f60808201525f60a08201525f60c08201525f60e08201525f6101008201525f6101208201525f6101408201525f6101608201525f6101808201525f6101a08201520152565b634e487b7160e01b5f52603260045260245ffd5b805115612cd85760200190565b612cb7565b8051821015612cd85760209160051b010190565b519061062f82610e86565b519061062f82610e6a565b519061062f82610eb9565b519061062f82610610565b519061062f82610ed0565b519061062f82610ee8565b519061062f82610efe565b81601f820112156103db578051612d5481610de4565b92612d6260405194856108d4565b818452602082840101116103db5761054e91602080850191016104f7565b6020818303126103db5780516001600160401b03918282116103db57016101e0818403126103db57612db0610956565b92612dba82612cf1565b8452612dc860208301612cfc565b6020850152612dd960408301612cf1565b6040850152612dea60608301612cf1565b6060850152612dfb60808301612cfc565b6080850152612e0c60a08301612d07565b60a0850152612e1d60c08301612d12565b60c085015260e082015160e0850152610100612e3a818401612d1d565b90850152610120612e4c818401612d28565b90850152610140612e5e818401612d33565b90850152610160612e70818401612d33565b90850152610180612e82818401612d33565b908501526101a0612e94818401612d33565b908501526101c092838301519081116103db57612eb19201612d3e565b9082015290565b6001600160a01b03909116815260208101919091525f604082015260600190565b634e487b7160e01b5f52601160045260245ffd5b63ffffffff9081165f190191908211612f0257565b612ed9565b63ffffffff9182169082160391908211612f0257565b6080811015612cd857600801905f90565b9060018201809211612f0257565b9060048201809211612f0257565b9060098201809211612f0257565b91908201809211612f0257565b909291926040906040830160408452815180915260608401916020809101935f905b838210612fa45750505050602091509360018060a01b0316910152565b855180518652830151858401529482019493840193600190910190612f87565b908160209103126103db575161054e81610efe565b9081526001600160a01b03909116602082015260400190565b91906001600160a01b039081811615613046576130128291843391614e27565b931692169082820361302357505050565b60649350604051926364283d7b60e01b8452600484015260248301526044820152fd5b604051633250574960e11b81525f6004820152602490fd5b5f19810191908211612f0257565b91908203918211612f0257565b6001600160a01b039091168152602081019190915260400190565b811561309e570490565b634e487b7160e01b5f52601260045260245ffd5b6130e8906130c461067a608e54610604565b90604051906342f9914b60e01b825281806020958693600483019190602083019252565b0381855afa908115610717575f91613270575b506040516364faa15960e01b8152905f828061311b843060048401612eb8565b0381865afa918215610717575f92613254575b5061314861313e612b448361305e565b90549060031b1c90565b92831561324b578460405180926302b7e6ef60e41b8252818061316f873060048401613079565b03915afa948515610717575f9561322c575b505060608201916040613198845163ffffffff1690565b9101926131ce6131c1876131bc6131b3885163ffffffff1690565b63ffffffff1690565b612f58565b63ffffffff80941661306c565b156132225761054e9561321561320661321c966132006131f5611766965163ffffffff1690565b915163ffffffff1690565b90612f07565b945f52609860205260405f2090565b549061306c565b90613094565b5050505050505f90565b613243929550803d106117a55761179781836108d4565b925f80613181565b50505050505f90565b6132699192503d805f833e6117c481836108d4565b905f61312e565b6132879150833d85116117a55761179781836108d4565b5f6130fb565b6040519061329a8261089d565b5f8252565b80546001600160a01b0319166001600160a01b03909216919091179055565b601f81116132ca575050565b5f805260205f20906020601f840160051c83019310613303575b601f0160051c01905b8181106132f8575050565b5f81556001016132ed565b90915081906132e4565b601f8111613319575050565b60945f5260205f20906020601f840160051c83019310613353575b601f0160051c01905b818110613348575050565b5f815560010161333d565b9091508190613334565b601f8111613369575050565b60955f5260205f20906020601f840160051c830193106133a3575b601f0160051c01905b818110613398575050565b5f815560010161338d565b9091508190613384565b90601f82116133ba575050565b60019160015f5260205f20906020601f840160051c830193106133f7575b601f0160051c01905b8181106133ed57505050565b5f815582016133e1565b90915081906133d8565b601f821161340e57505050565b5f5260205f20906020601f840160051c83019310613446575b601f0160051c01905b81811061343b575050565b5f8155600101613430565b9091508190613427565b8160011b915f199060031b1c19161790565b80519091906001600160401b038111610885576134898161348460945461148b565b61330d565b602080601f83116001146134bd575081906134ad93945f926134b2575b5050613450565b609455565b015190505f806134a6565b60945f52601f198316949091907f7047a3cc0a76edcee45792ca71527c753f6167484f14b94c4a3bd2997516725c925f905b87821061352657505083600195961061350e575b505050811b01609455565b01515f1960f88460031b161c191690555f8080613503565b806001859682949686015181550195019301906134ef565b80519091906001600160401b038111610885576135658161356060955461148b565b61335d565b602080601f831160011461358d5750819061358893945f926134b2575050613450565b609555565b60955f52601f198316949091907f947035e97d0f7e1937f791bc189f60c984ceaaa7a8494fc67f9f8f4de8ccf2c6925f905b8782106135f65750508360019596106135de575b505050811b01609555565b01515f1960f88460031b161c191690555f80806135d3565b806001859682949686015181550195019301906135bf565b80519091906001600160401b0381116108855760019061363781613632845461148b565b6133ad565b602080601f831160011461365f5750819061365b9394955f926134b2575050613450565b9055565b60015f52601f198316959091907fb10e2d527612073b26eecdfd717e6a320cf44b4afac2b0732d9fcbe2b7fa0cf6925f905b8882106136c657505083859697106136ae575b505050811b019055565b01515f1960f88460031b161c191690555f80806136a4565b808785968294968601518155019501930190613691565b81519192916001600160401b03811161088557613704816136fe845461148b565b84613401565b602080601f83116001146137285750819061365b9394955f926134b2575050613450565b90601f1983169561373c855f5260205f2090565b925f905b88821061375e575050836001959697106136ae57505050811b019055565b80600185968294968601518155019501930190613740565b9080601f830112156103db5781519060209161379181610983565b9361379f60405195866108d4565b81855260208086019260051b8201019283116103db57602001905b8282106137c8575050505090565b815181529083019083016137ba565b906020828203126103db5781516001600160401b0381116103db5761054e9201613776565b60208082019080835283518092528060408094019401925f905b83821061382557505050505090565b9091929394836101c06001926138fb895161384883825160018060681b03169052565b8085015163ffffffff16838601528087015163ffffffff168388015260608181015161ffff16908401526080818101516001600160a01b03169084015260a0818101519084015260c08082015162ffffff169084015260e08181015160ff169084015261010081810151151590840152610120818101511515908401526101408181015115159084015261016081810151151590840152610180818101511515908401526101a090810151151590830152565b0196019493920190613816565b9b94989a92919396999097959760018060a01b039c8d7f00000000000000000000000000000000000000000000000000000000000000001630146103db578d61395561067a608e54610604565b166103db57613a31976139c58e6139a36139ed97613981613a0f9b6139cb9865ffffffffffff98614e98565b608f80546001600160a01b0319166001600160a01b0392909216919091179055565b608e80546001600160a01b0319166001600160a01b0392909216919091179055565b16609255565b609080546001600160a01b0319166001600160a01b0392909216919091179055565b609180546001600160a01b0319166001600160a01b0392909216919091179055565b609680546001600160a01b0319166001600160a01b0392909216919091179055565b8051613b65575b508051613b56575b50838116613aee575b505f91613a6d9183604051958680958194631f1d05ad60e01b8352600483016137fc565b0393165af1801561071757613acc575b508051905f5b828110613a965750505061062f33614f84565b80613ac6613aa660019385612cdd565b51613ac1613ab384612f2e565b5f52608c60205260405f2090565b6136dd565b01613a83565b613ae7903d805f833e613adf81836108d4565b8101906137d7565b505f613a7d565b91838116803b156103db5760405163036129cb60e61b8152935f918591829084908290613b1e906004830161072b565b03925af1918215610717575f93613a6d93613b3d575b50915091613a49565b80613b4a613b509261088a565b806104ed565b5f613b34565b613b5f9061353e565b5f613a40565b613b6e90613462565b5f613a38565b5f908152608b60205260409020546001600160a01b0390811680613ba15750600260205260405f20541690565b905090565b905f9180515f915b818310613bba57505050565b909193613bd0613bca8684612cdd565b516130b2565b8101809111612f0257936001019190613bae565b6001600160a01b03165f90815260886020526040902090565b6001600160a01b03165f90815260896020526040902090565b6001600160a01b03165f90815260036020526040902090565b9060018060a01b03165f5260205260405f2090565b60405190606082016001600160401b038111838210176108855760405260606040835f81525f60208201520152565b6040516370a0823160e01b80825291906020906001600160a01b0390828180613c9f306004830161072b565b0381857f0000000000000000000000000000000000000000000000000000000000000000165afa80156107175783915f91613d3c575b509460405192839182528180613cee306004830161072b565b03917f0000000000000000000000000000000000000000000000000000000000000000165afa918215610717575f92613d2657505090565b61054e9250803d106117a55761179781836108d4565b613d539150823d84116117a55761179781836108d4565b5f613cd5565b519061062f8261106c565b519061062f82611a7e565b90816101209103126103db57613d83610936565b90613d8d81613d59565b8252613d9b60208201613d59565b6020830152613dac60408201613d59565b6040830152613dbd60608201613d59565b6060830152613dce60808201612cf1565b6080830152613ddf60a08201613d64565b60a0830152613df060c08201612cf1565b60c0830152613e0160e08201612d12565b60e0830152610100809101519082015290565b908160209103126103db575161054e81610610565b908160051b9180830460201490151715612f0257565b81810292918115918404141715612f0257565b919091613e6361067a608f54610604565b600654604080516321d1336160e11b81526004810192909252929161012091908290829060249082905afa91821561071757613ebd92613eb292610100925f92614106575b5050015160f21c90565b60018091811c161490565b6140f557613ecf61067a608e54610604565b9160208151809462d5cc0160e21b82528180613eef873060048401613079565b03915afa928315610717575f936140d4575b506001600160a01b039081613f29611ec885613f1c88613be4565b905f5260205260405f2090565b16156140a5575b613f3e61067a608e54610604565b8151635d53f40760e11b8152600481018590526024810188905296905f908890604490829084905af1968715610717575f97614089575b50613f8461067a608e54610604565b915f815180946364faa15960e01b82528180613fa48a3060048401612eb8565b03915afa928315610717575f9361406d575b50602083015188516001600160681b039591613fe491611e5691613fdc91908916613e3f565b608d54612f58565b5f5b838110614018575050505060800151939461062f9461401292906001600160681b031691519116613e3f565b916150a5565b806140256001928c612cdd565b51614030818b61503a565b888551917f031e1988c95a91ec4d655ff63a8f87a80bc9daf28d95ae10ee08c0022cfb5c8b868d169380614064338261072b565b0390a401613fe6565b6140829193503d805f833e6117c481836108d4565b915f613fb6565b61409e9197503d805f833e613adf81836108d4565b955f613f75565b6140b0609654610604565b83818416156140c9576140c4915b8661453c565b613f30565b6140c49150856140be565b6140ee91935060203d6020116121e0576121d281836108d4565b915f613f01565b8151631d2c125760e31b8152600490fd5b6141259250803d1061412c575b61411d81836108d4565b810190613d6f565b5f80613ea8565b503d614113565b91929092614142818585612ff2565b833b61414f575b50505050565b614174916020916040519384928392630a85bd0160e11b97888552336004860161531c565b03815f6001600160a01b0388165af15f91816141fa575b506141c4578261419961534d565b80519190826141bd57604051633250574960e11b815280610817846004830161072b565b9050602001fd5b6001600160e01b031916036141dd57505f808080614149565b604051633250574960e11b8152908190610817906004830161072b565b61421d91925060203d602011614224575b61421581836108d4565b810190615307565b905f61418b565b503d61420b565b604051906142388261086a565b600782526618d85cda13dd5d60ca1b6020830152565b903590601e19813603018212156103db57018035906001600160401b0382116103db576020019181360383136103db57565b3561054e81610610565b906020828203126103db5781516001600160401b0381116103db5761054e9201612d3e565b604051906142bc8261086a565b5f6020838281520152565b6142d561067a609054610604565b6006546040805163038ab08560e11b8152600480820193909352939290916020918290869060249082905afa948515610717575f9561438e575b506143198561291d565b60018095036106d65783519361432d6142af565b505f5b8581106143405750505050505050565b61434a8183612cdd565b5161435861067a8251610604565b1561437e5790614378828661436e8b9551610604565b910151903361453c565b01614330565b85516314f4c13d60e21b81528490fd5b6143a891955060203d6020116107105761070281836108d4565b935f61430f565b906143be61067a609054610604565b91600654926040805163038ab08560e11b8152602081819481806143ec60049b600483019190602083019252565b03915afa8015610717576004915f916144e2575b5061440a8161291d565b0361446b579082949251915f955f9461442761067a608e54610604565b915b858710614476575050505050505061443f613c73565b92608d5491821561446b57816144658461446061054e969561446095613e3f565b613094565b95613e3f565b50505090505f905f90565b909192939495976144a6905f61448c8b85612cdd565b5187518094819263c44a8e6d60e01b835230898401612eb8565b0381885afa9081156107175761288761287b896144d5946001965f91612897575001516001600160681b031690565b9801959493929190614429565b6144fb915060203d6020116107105761070281836108d4565b5f614400565b6040519061450e8261086a565b60018252815f5b602090818110156145375760209161452b613c44565b90828501015201614515565b505050565b6001600160a01b039081165f8181526088602090815260408083208784528252909120805491959294929391821691869161457890859061329f565b80841683877f3134e8a2e6d97e929a7e54011ea5485d7d196dd5f0ba4d4ef95803e8e3fc257f5f80a4608e5416946064604051809781936305c9a1d560e31b835230600484015260248301528760448301525afa9384156107175761062f955f956145e5575b505061588e565b6145fc929550803d106117a55761179781836108d4565b925f806145de565b5f818152600260205260409020546001600160a01b0316908115614626575090565b60249060405190637e27328960e01b82526004820152fd5b6007546001600160a01b0316330361465257565b60405163118cdaa760e01b8152336004820152602490fd5b3561054e81610e86565b604051906146818261086a565b600382526270617960e81b6020830152565b91906040838203126103db5782516146aa81610610565b60208085015191949091906001600160401b0382116103db57019180601f840112156103db5782516146db81610983565b936146e960405195866108d4565b818552838086019260051b8201019283116103db578301905b828210614710575050505090565b838091835161471e81610eb9565b815201910190614702565b9061473660a0830161466a565b63ffffffff609254911603614a27576147856147747f0000000000000000000000000000000000000000000000000000000000000000611d3e614674565b611d80611d796101e086018661424e565b9015614a22578060208061479e93518301019101614693565b6001600160a01b03918216939184156149f7575b8151156149e5575f805f918451975f5b898110614804575050505050506147ec92935060c06147e46101a08401614280565b920135615a2b565b6147f257565b604051631b57826960e21b8152600490fd5b898861482561481e614816858c612cdd565b5161ffff1690565b61ffff1690565b8503614933575b90614846611ec886613f1c6148418b96614280565b613be4565b88808616918b83159485158096614928575b61486c575b505050505050506001016147c2565b879a96979161487b8b9261305e565b83109283614902575b5050505f146148ad575050505060019161489d91612f58565b935b9050845f8088818b8f61485d565b6148d49550836148f5575b5050506148dd575b83614012876148ce8c614280565b93612f58565b60015f9361489f565b6148f084846148eb8c614280565b61453c565b6148c0565b16141590505f88816148b8565b61ffff92935061491e9161491861481692612f2e565b90612cdd565b1614888d8b614884565b508383161515614858565b505093509061494861481e6148168689612cdd565b106149d35761495d61481e6148168588612cdd565b9061496c61067a608e54610604565b935f60405180966364faa15960e01b8252818061498d883060048401612eb8565b03915afa948515610717578a614846611ec886613f1c6149c761287b8f976148419d6080915f91612897575001516001600160681b031690565b9a50505050509061482c565b604051639fda363d60e01b8152600490fd5b604051633d04bd1f60e01b8152600490fd5b9350614a04609654610604565b80851615614a13575b936147b2565b50614a1d82614280565b614a0d565b509050565b6040516301e73e1760e61b8152600490fd5b919091614a4a61067a608e54610604565b905f604051809363c44a8e6d60e01b82528180614a6b893060048401612eb8565b03915afa918215610717575f92614c39575b50614a888482615b2e565b936001600160a01b038086161591908215614b55575b5050614aae61067a608e54610604565b835163ffffffff1690803b156103db576040516330b157e560e21b815263ffffffff9290921660048301526001600160a01b038781166024840152841660448301525f908290606490829084905af1801561071757614b42575b50614b3e579061062f9163ffffffff614b25835163ffffffff1690565b608093909301516001600160681b031692169085615245565b5050565b80613b4a614b4f9261088a565b5f614b08565b610160850151614b88575b5085614b7161067a611ec884611624565b614a9e576107f7614b8192611624565b5f85614a9e565b614bc290614b9a61067a608f54610604565b60065460405180926321d1336160e11b82528180610120978895600483019190602083019252565b03915afa928315610717575f93614c1a575b5050841615159081614bfe575b50614bec575f614b60565b6040516318cdaf9760e01b8152600490fd5b6101000151614c14915060f21c60018091161490565b5f614be1565b614c31929350803d1061412c5761411d81836108d4565b905f80614bd4565b614c4e9192503d805f833e6117c481836108d4565b905f614a7d565b90614c6461067a608e54610604565b5f604051809263c44a8e6d60e01b82528180614c84883060048401612eb8565b03915afa908115610717575f91614e0d575b50614ca083615bbc565b926001600160a01b03841615908115614d66575b50614cc361067a608e54610604565b825163ffffffff1690803b156103db576040516330b157e560e21b815263ffffffff9290921660048301526001600160a01b03861660248301525f60448301819052908290606490829084905af1801561071757614d53575b50614d50578063ffffffff614d3861062f935163ffffffff1690565b608092909201516001600160681b0316911684615171565b50565b80613b4a614d609261088a565b5f614d1c565b610160830151614da0575b84614d8161067a611ec884611624565b15614d8d575b50614cb4565b6107f7614d9992611624565b5f84614d87565b614dd9614db161067a608f54610604565b60065460405180926321d1336160e11b82528180610120968795600483019190602083019252565b03915afa801561071757614def575b5050614d71565b81614e0592903d1061412c5761411d81836108d4565b505f80614de8565b614e2191503d805f833e6117c481836108d4565b5f614c96565b92919092614e3961067a608e54610604565b915f604051809463c44a8e6d60e01b82528180614e5a8a3060048401612eb8565b03915afa928315610717575f93614e78575b50614a88908583615c33565b614a88919350614e91903d805f833e6117c481836108d4565b9290614e6c565b815191939290916001600160401b03811161088557614ec081614ebb5f5461148b565b6132be565b602080601f8311600114614ef7575081614ef29392614eeb9261062f97985f926134b2575050613450565b5f5561360e565b600655565b5f8052601f198316969091907f290decd9548b62a8d60345a988386fc84ba6bc95484008f6362f93160ef3e563925f905b898210614f6c575050918391600193614ef2969561062f999a10614f54575b505050811b015f5561360e565b01515f1960f88460031b161c191690555f8080614f47565b80600185968294968601518155019501930190614f28565b600780546001600160a01b039283166001600160a01b0319821681179092559091165f80516020615ebd8339815191525f80a3565b8054915f5b838110614fed57505081614fd25750505f90565b614fde61054e9261305e565b905f5260205f20015460301c90565b90928082169080831860011c8201809211612f0257835f5265ffffffffffff808360205f20015416908616105f146150285750925b90614fbe565b93915061503490612f2e565b90615022565b6001600160a01b0391818316156130465761505491614a39565b1661505b57565b6040516339e3563760e11b81525f6004820152602490fd5b6001600160d01b039182169082160191908211612f0257565b6001600160d01b039182169082160391908211612f0257565b9061062f9291815f52608a6020526150bf60405f206157cc565b6150c883611632565b4265ffffffffffff16916001600160d01b038616916150f290846150ec8585615073565b91615dd3565b506001600160a01b0393905084841615615155575b5050505f8381527f046491916a0278bc7eb038aba60c896854c99d791b5a890a9ff3ed75cc95e12a602052604090205481169161514390613be4565b835f5260205260405f2054169061588e565b6150ec61516b9361516588611632565b9361508c565b5f615107565b61062f9291906001600160a01b039061519b908281161580801561523d575b6151c6575b50613be4565b825f5260205260405f2054166151c0611ec883613f1c5f8052608860205260405f2090565b9061588e565b61521190855f52608a6020526151de60405f206157cc565b90615217575b6152016151f087611632565b916001600160d01b0389169061508c565b9065ffffffffffff421690615dd3565b50615195565b61523661522387611632565b6152016001600160d01b038a1684615073565b50506151e4565b506001615190565b906151c0611ec884613f1c615282611ec883613f1c61062f9b9a9960018060a01b038c81831615918280156152fd575b615288575b505050613be4565b94613be4565b855f52608a60205261529c60405f206157cc565b926152d7575b8c16156152b0575b8161527a565b6152016152d0926152c087611632565b926001600160d01b03169061508c565b508c6152aa565b6152f66152e387611632565b6152016001600160d01b03851686615073565b50506152a2565b50808d1615615275565b908160209103126103db575161054e816103c9565b6001600160a01b03918216815291166020820152604081019190915260806060820181905261054e92910190610518565b3d15615377573d9061535e82610de4565b9161536c60405193846108d4565b82523d5f602084013e565b606090565b805160241015612cd85760440190565b908151811015612cd8570160200190565b905f906060926025825111156154f6576153d96153d36153cd6153bf8561537c565b516001600160f81b03191690565b60f81c90565b60ff1690565b9060209360205b6154056153f86153bf6153f284612f3c565b8861538c565b6001600160f81b03191690565b1515806154e5575b156154dc5761542d6153d36153cd6153bf61542785612f3c565b8961538c565b8186018701516001600160e01b031985811691161461544f57506005016153e0565b95509291505061548c945061546c61546683612f4a565b91613e29565b118015906154bd575b156154915750615486815192613e29565b90615d2b565b600191565b6154b76154b26153d36153cd6153bf6154ac61548696612f4a565b8761538c565b613e29565b92613e29565b506154d66153f86153bf6154d084612f4a565b8561538c565b15615475565b50959350505050565b506154ef84613e29565b811061540d565b505050505f9061054e61328d565b6001600160a01b0361551582614c55565b16156146265750565b608e546001600160a01b0316803b156103db5760405180926386bc2be360e01b8252602482016020906020600485015282518091526020604485019301915f5b82811061558d575050505091815f81819503925af18015610717576155805750565b80613b4a61062f9261088a565b83518552879550938101939281019260010161555e565b90815260208101919091526001600160a01b03909116604082015260600190565b6040516370a0823160e01b8082526001600160a01b037f000000000000000000000000000000000000000000000000000000000000000081169560209592949093909290868180615619306004830161072b565b03818b5afa908115610717576144608361563c9388935f916157b5575b50613e3f565b93827f00000000000000000000000000000000000000000000000000000000000000001695604051908152878180615677306004830161072b565b03818a5afa9283156107175761569793614460925f916157985750613e3f565b918215968715958661574b575b5084151596876156df575b50506156d35f80516020615e9d8339815191529360405193849316953391846155a4565b0390a291613ba1575090565b909381604051809663a9059cbb60e01b8252815f816157028c8a60048401613079565b03925af1918215610717575f80516020615e9d833981519152956156d39361572d575b5050936156af565b8161574392903d10610b5157610b4381836108d4565b505f80615725565b87604051809263a9059cbb60e01b8252815f8161576c8b8a60048401613079565b03925af1801561071757156156a45761579190883d8a11610b5157610b4381836108d4565b505f6156a4565b6157af91508a3d8c116117a55761179781836108d4565b5f615636565b6157af91508b3d8d116117a55761179781836108d4565b8054806157d95750505f90565b5f19918183810111612f02575f5260205f2001015460301c90565b9091905f198382098382029182808310920391808303921461587d57670de0b6b3a7640000908183101561585a57947faccb18165bd6fe31ae1cf318dc5b51eee0e1ba569b88cd74c1773b91fac1066994950990828211900360ee1b910360121c170290565b6064918660405192630c740aef60e31b8452600484015260248301526044820152fd5b5050670de0b6b3a764000090049150565b91926001600160a01b0380831693919291908116808514801561598a575b61598257859181615935575b505050826158c65750505050565b5f80516020615efd833981519152916159158261520161590188613f1c6158fb6158f683613f1c6159299b613bfd565b6157cc565b94613bfd565b6001600160d01b0394909290851690615073565b6040519384939092339282169116846155a4565b0390a35f808080614149565b6159778161591561596186613f1c6158fb6158f683613f1c5f80516020615efd8339815191529a613bfd565b6001600160d01b0392615201908a85169061508c565b0390a3835f806158b8565b505050505050565b5083156158ac565b61599b90611640565b80546001600160a01b0319169055565b91906040838203126103db5782516001600160401b0381116103db576020916159d5918501613776565b92015190565b929190606084019084526020906060602086015282518091526020608086019301915f5b828110615a13575050505060405f91930152565b835161ffff16855293810193928101926001016159ff565b929192615a3c61067a608e54610604565b916040905f604051809563eaa19ab360e01b8252818381615a61878a600484016159db565b03925af18015610717575f945f91615b06575b5095845194615a88611e5686608d54612f58565b5f5b868110615a9a5750505050505050565b80615aa760019284612cdd565b51615ab2818661503a565b61ffff615ac26148168489612cdd565b168751917f598baf7bf150ca2f42be9e9f8f55e81d45f5715c3ff22bf46d697fabec7f31d6858060a01b0388169380615afd8d339083612fd9565b0390a401615a8a565b9050615b259194503d805f833e615b1d81836108d4565b8101906159ab565b9390935f615a74565b5f828152600260205260409020546001600160a01b03908116929190615b669084615b90575b82169182615b7b575b6107f784611616565b825f80516020615edd8339815191525f80a490565b615b8481613c16565b60018154019055615b5d565b615b9984611640565b80546001600160a01b0319169055615bb085613c16565b80545f19019055615b54565b5f818152600260205260409020546001600160a01b03169081615c07575b615be381611616565b80546001600160a01b03191690555f825f80516020615edd8339815191528280a490565b615c1081611640565b80546001600160a01b0319169055615c2782613c16565b80545f19019055615bda565b5f828152600260205260409020546001600160a01b03908116938082168015159081615c89575b505050615b669084615c775782169182615b7b576107f784611616565b615c8084615992565b615bb085613c16565b81615cd8575b5015615c9c578080615c5a565b839085615cbc57604051637e27328960e01b815260048101839052602490fd5b61081760405192839263177e802f60e01b845260048401613079565b86811491508115615d0a575b8115615cf2575b505f615c8f565b9050845f5260046020528260405f205416145f615ceb565b9050855f52600560205260ff615d238360405f20613c2f565b541690615ce4565b929181810391604051946020936020818801016040528652015f5b828110615d535750505050565b8181018401518682018501528301615d46565b9065ffffffffffff82549181199060301b169116179055565b908154600160401b8110156108855760018101808455811015612cd85761062f925f5260205f20019065ffffffffffff81511665ffffffffffff19835416178255602060018060d01b039101511690615d66565b80549293928015615e7257615dea615df59161305e565b825f5260205f200190565b9182549265ffffffffffff91828516928116808411615e6057879303615e275750615e209250615d66565b60301c9190565b915050615e5b91615e47615e39610976565b65ffffffffffff9093168352565b6001600160d01b0386166020830152615d7f565b615e20565b604051632520601d60e01b8152600490fd5b5090615e9791615e83615e39610976565b6001600160d01b0385166020830152615d7f565b5f919056fea183a623ac9e87a7002f8ccdd81b014fd2212a1a62a3059e097db62cb2df52c98be0079c531659141344cd1fd0a4f28419497f9722a3daafe3b4186f6b6457e0ddf252ad1be2c89b69c2b068fc378daa952ba7f163c4a11628f55a4df523b3ef26abcd0483bf852c577c9beff4daa5920a203234050413150a0aa946fb598bfaa264697066735822122044865371cdc2b25c790dde604ca00a4f1709a9921278fb82d384113de48819ab64736f6c63430008170033",
	"deployedBytecode": "0x60806040526004361015610011575f80fd5b5f3560e01c806301ffc9a7146103c457806306fdde03146103bf57806307405b24146103ba578063081812fc146103b5578063095ea7b3146103b05780630fa617c0146103ab5780631337f986146103a65780631417f9f6146103a15780631baabc3e1461039c5780631d153ca4146103975780631da1da721461039257806323b872dd1461038d57806327f6e9791461038857806329eabfe7146103835780633b2b8a781461037e57806342842e0e14610379578063453135a41461037457806354c6d1f51461036f57806356539f391461036a57806359196c7d1461036557806361d4c25a146103605780636352211e1461035b57806364640c1e1461035657806369f72970146103515780636c0360eb1461034c57806370a0823114610347578063715018a6146103425780637245d80c1461033d578063743682b5146103385780637f98988714610333578063859252e21461032e578063873e7e4b1461032957806388bc2ef3146103245780638cc358461461031f5780638da5cb5b1461031a57806392eb16411461031557806395d89b4114610310578063975057e71461030b57806399f6d77f146103065780639c8c6cd514610301578063a0b6490c146102fc578063a22cb465146102f7578063aa4fb15b146102f2578063b88d4fde146102ed578063c22903b2146102e8578063c3c69a96146102e3578063c87b56dd146102de578063c90f5126146102d9578063c9149c5f146102d4578063caa00cf9146102cf578063cb7043f7146102ca578063d3fef143146102c5578063e4f650b8146102c0578063e8a3d485146102bb578063e985e9c5146102b6578063edab09b9146102b1578063f2fde38b146102ac578063f7623b81146102a75763fb82b1b0146102a2575f80fd5b612645565b612574565b61251f565b6124db565b612484565b6123fb565b612379565b612357565b61231f565b6122c2565b61229a565b6121e7565b6120f7565b6120a5565b611cf1565b611c8a565b611c6b565b611bc4565b611b9c565b611b54565b611aaa565b611a56565b6119cb565b6119a1565b611979565b6118cd565b6117f5565b6117d3565b6116a0565b611678565b61164e565b6115ee565b6115a6565b61154c565b6114c3565b611435565b6113b8565b61139a565b611351565b611295565b611278565b611248565b611159565b610dbd565b610d79565b610d53565b610d36565b610d1f565b610cd2565b610c55565b610b9c565b610b58565b610a76565b61099a565b61077a565b61073e565b61064a565b610551565b6103df565b6001600160e01b03198116036103db57565b5f80fd5b346103db5760203660031901126103db5761042c6004356103ff816103c9565b63ffffffff60e01b166231a68960e61b8114908115610430575b5060405190151581529081906020820190565b0390f35b633344b87360e01b8114915081156104dc575b81156104cb575b81156104ba575b81156104a9575b8115610466575b505f610419565b6380ac58cd60e01b811491508115610498575b8115610487575b505f61045f565b6301ffc9a760e01b1490505f610480565b635b5e139f60e01b81149150610479565b63152a902d60e11b81149150610458565b63611481d960e11b81149150610451565b63099bfcc360e11b8114915061044a565b63eeb73e8960e01b81149150610443565b5f9103126103db57565b5f5b8381106105085750505f910152565b81810151838201526020016104f9565b90602091610531815180928185528580860191016104f7565b601f01601f1916010190565b90602061054e928181520190610518565b90565b346103db575f3660031901126103db576040515f905f546105718161148b565b8083526020916001908181169081156105e457506001146105a9575b61042c8461059d818803826108d4565b6040519182918261053d565b5f808052838120939550925b8284106105d1575050508161042c9361059d928201019361058d565b80548585018701529285019281016105b5565b60ff1916858501525050151560051b820101915061059d8161042c61058d565b6001600160a01b031690565b6001600160a01b038116036103db57565b610184359061062f82610610565b565b610144359061062f82610610565b359061062f82610610565b346103db5760403660031901126103db5760043561066781610610565b6106a3602061067f61067a609054610604565b610604565b60065490604051808095819463038ab08560e11b8352600483019190602083019252565b03915afa8015610717576001915f916106e8575b506106c18161291d565b036106d6576106d490602435903361453c565b005b60405163f331f3c160e01b8152600490fd5b61070a915060203d602011610710575b61070281836108d4565b8101906128fa565b5f6106b7565b503d6106f8565b612912565b908160209103126103db573590565b6001600160a01b03909116815260200190565b346103db5760203660031901126103db5760043561075b81614604565b505f526004602052602060018060a01b0360405f205416604051908152f35b346103db5760403660031901126103db5760043561079781610610565b602435906107a482614604565b33151580610843575b8061081b575b6107fc576106d4926107f79181906001600160a01b0385811691167f8c5be1e5ebec7d5bd14f71427d1e84f3dd0314c0f7b2291e5b200ac8c7c3b9255f80a4611640565b61329f565b60405163a9fbf51f60e01b815280610817336004830161072b565b0390fd5b5060018060a01b0381165f52600560205260ff61083b3360405f20613c2f565b5416156107b3565b506001600160a01b0381163314156107ad565b634e487b7160e01b5f52604160045260245ffd5b604081019081106001600160401b0382111761088557604052565b610856565b6001600160401b03811161088557604052565b602081019081106001600160401b0382111761088557604052565b61100081019081106001600160401b0382111761088557604052565b601f909101601f19168101906001600160401b0382119082101761088557604052565b604051906101c082016001600160401b0381118382101761088557604052565b60405190606082016001600160401b0381118382101761088557604052565b6040519061012082016001600160401b0381118382101761088557604052565b604051906101e082016001600160401b0381118382101761088557604052565b6040519061062f8261086a565b6001600160401b0381116108855760051b60200190565b346103db576020806003193601126103db57600435906001600160401b0382116103db57366023830112156103db578160040135916109d883610983565b916040936109e960405194856108d4565b8084526024602085019160061b840101923684116103db57602401905b838210610a16576106d48561293b565b85823603126103db578286918251610a2d8161086a565b843581528285013583820152815201910190610a06565b600319906020818301126103db57600435916001600160401b0383116103db5782610200920301126103db5760040190565b610a7f36610a44565b600654341590811591610ac3575b8115610ab4575b50610aa2576106d490614729565b604051633fb648ad60e11b8152600490fd5b9050602082013514155f610a94565b604051636e49181f60e01b815290915060208180610ae5338660048401612fd9565b03817f0000000000000000000000000061e516886a0540f63157f112c0588ee0651dcf6001600160a01b03165afa908115610717575f91610b29575b501590610a8d565b610b4b915060203d602011610b51575b610b4381836108d4565b810190612fc4565b5f610b21565b503d610b39565b346103db575f3660031901126103db576040517f00000000000000000000000058204a8849bf6a625d56021adfd12ce4a4a3af136001600160a01b03168152602090f35b346103db576020806003193601126103db576004355f52608c815260405f2090604051905f928054610bcd8161148b565b80855291600191808316908115610c335750600114610bf7575b61042c8561059d818903826108d4565b5f908152838120939550925b828410610c20575050508161042c9361059d92820101935f610be7565b8054858501870152928501928101610c03565b60ff191686860152505050151560051b820101915061059d8161042c5f610be7565b346103db575f3660031901126103db576040517f000000000000000000000000b57d30ed3cba3ce0934336db86f22797a9fa83596001600160a01b03168152602090f35b90816101a09103126103db5790565b60206003198201126103db57600435906001600160401b0382116103db5761054e91600401610c99565b346103db57610ce036610ca8565b506020604051670de0b6b3a76400008152f35b60609060031901126103db57600435610d0b81610610565b90602435610d1881610610565b9060443590565b346103db576106d4610d3036610cf3565b91612ff2565b346103db575f3660031901126103db576020609754604051908152f35b346103db5760203660031901126103db576020610d716004356130b2565b604051908152f35b346103db575f3660031901126103db576040517f0000000000000000000000001bf077855a17b4dd12eb3ade29d94cff27fe56d06001600160a01b03168152602090f35b346103db576106d4610dce36610cf3565b9060405192610ddc8461089d565b5f8452614133565b6001600160401b03811161088557601f01601f191660200190565b929192610e0b82610de4565b91610e1960405193846108d4565b8294818452818301116103db578281602093845f960137010152565b9080601f830112156103db5781602061054e93359101610dff565b6064359061062f82610610565b60a4359061062f82610610565b6001600160681b038116036103db57565b359061062f82610e6a565b63ffffffff8116036103db57565b60a4359061062f82610e86565b60e4359061062f82610e86565b359061062f82610e86565b61ffff8116036103db57565b359061062f82610eb9565b62ffffff8116036103db57565b359061062f82610ed0565b60ff8116036103db57565b359061062f82610ee8565b801515036103db57565b359061062f82610efe565b81601f820112156103db578035906020610f2c83610983565b936040610f3c60405196876108d4565b84865282860191836101c0809702860101948186116103db578401925b858410610f6a575050505050505090565b86848303126103db57848791610f7e6108f7565b610f8787610e7b565b8152610f94838801610eae565b83820152610fa3868801610eae565b868201526060610fb4818901610ec5565b908201526080610fc581890161063f565b9082015260a0808801359082015260c0610fe0818901610edd565b9082015260e0610ff1818901610ef3565b90820152610100611003818901610f08565b90820152610120611015818901610f08565b90820152610140611027818901610f08565b90820152610160611039818901610f08565b9082015261018061104b818901610f08565b908201526101a061105d818901610f08565b90820152815201930192610f59565b65ffffffffffff8116036103db57565b610104359061062f8261106c565b6024359061062f8261106c565b6044359061062f8261106c565b6064359061062f8261106c565b6084359061062f8261106c565b610124359061062f82610610565b610164359061062f82610610565b81601f820112156103db578035916020916110f484610983565b9361110260405195866108d4565b808552838086019160051b830101928084116103db57848301915b84831061112d5750505050505090565b82356001600160401b0381116103db57869161114e84848094890101610e35565b81520192019161111d565b346103db576101c03660031901126103db576001600160401b0360046024358281116103db5761118c9036908301610e35565b6044358381116103db576111a39036908401610e35565b6111ab610e50565b6084358581116103db576111c29036908601610e35565b6111ca610e5d565b60c4358781116103db576111e19036908801610e35565b60e4358881116103db576111f89036908901610f13565b9061120161107c565b9261120a6110be565b94611213610631565b9661121c6110cc565b98611225610621565b9a6101a4359d8e116103db576112418d6106d49f3691016110da565b9c35613908565b346103db5760203660031901126103db576020611266600435613b74565b6040516001600160a01b039091168152f35b346103db575f3660031901126103db576020600654604051908152f35b346103db576020806003193601126103db57600435906001600160401b03908183116103db57366023840112156103db5782600401359182116103db5760249260063660248560061b840101116103db575f5b8481106112f157005b80821b83019060408060231984360301126103db5760019263ffffffff61ffff8861134b94516113208161086a565b60448d8601359561133087610e86565b868352013591829161134183610eb9565b0152169116613e52565b016112e8565b346103db5760403660031901126103db5760206024356113708161106c565b6004355f908152608a8352604090206001600160d01b039161139191614fb9565b16604051908152f35b346103db5760203660031901126103db576020611266600435614604565b346103db575f3660031901126103db576020609254604051908152f35b9080601f830112156103db5760209082356113ef81610983565b936113fd60405195866108d4565b81855260208086019260051b8201019283116103db57602001905b828210611426575050505090565b81358152908301908301611418565b346103db5760403660031901126103db576001600160401b036004358181116103db576114669036906004016113d5565b906024359081116103db57602091611485610d71923690600401610c99565b50613ba6565b90600182811c921680156114b9575b60208310146114a557565b634e487b7160e01b5f52602260045260245ffd5b91607f169161149a565b346103db575f3660031901126103db576040515f906094546114e48161148b565b8083526020916001908181169081156105e4575060011461150f5761042c8461059d818803826108d4565b91935060945f52835f20915f925b828410611539575050508161042c9361059d928201019361058d565b805485850187015292850192810161151d565b346103db5760203660031901126103db5760043561156981610610565b6001600160a01b0316801561158e575f526003602052602060405f2054604051908152f35b6040516322718ad960e21b81525f6004820152602490fd5b346103db575f3660031901126103db576115be61463e565b600780546001600160a01b031981169091555f906001600160a01b03165f80516020615ebd8339815191528280a3005b346103db575f3660031901126103db576091546040516001600160a01b039091168152602090f35b5f52600260205260405f2090565b5f52608b60205260405f2090565b5f52608a60205260405f2090565b5f52600460205260405f2090565b346103db5760203660031901126103db576004355f526098602052602060405f2054604051908152f35b346103db575f3660031901126103db576096546040516001600160a01b039091168152602090f35b346103db5760203660031901126103db576004356116c261067a608e54610604565b6040516364faa15960e01b8152915f83806116e1843060048401612eb8565b0381855afa9081156107175761173b935f926117ac575b5060209061171e6040611712606086015163ffffffff1690565b94015163ffffffff1690565b9360405180809781946302b7e6ef60e41b83523060048401613079565b03915afa9182156107175761176661176d9361042c955f9161177d575b5063ffffffff809316612f58565b911661306c565b6040519081529081906020820190565b61179f915060203d6020116117a5575b61179781836108d4565b810190612c2a565b5f611758565b503d61178d565b60209192506117cc903d805f833e6117c481836108d4565b810190612d80565b91906116f8565b346103db575f3660031901126103db576020604051670de0b6b3a76400008152f35b346103db575f3660031901126103db576040517f0000000000000000000000000061e516886a0540f63157f112c0588ee0651dcf6001600160a01b03168152602090f35b90604090604083019083526020604081850152845180925260608085018260608560051b8801019701945f925b85841061187857505050505050505090565b90919293949596989785806118b96001938d605f1990820301885285878d51878060a01b038151168452858101518685015201519181898201520190610518565b9a9b99019796959190910193019190611866565b346103db5760206003196020813601126103db57600435906001600160401b0382116103db576101809082360301126103db576040519161190d8361086a565b600183525f5b818110611963576101248361042c8661192a61328d565b611932610917565b308152905f6020830152604082015261194a82612ccb565b5261195481612ccb565b50604051938493013583611839565b819061196d613c44565b82828701015201611913565b346103db575f3660031901126103db576007546040516001600160a01b039091168152602090f35b346103db575f3660031901126103db576119b9613c73565b60408051928352602083019190915290f35b346103db575f3660031901126103db576040515f9060018054906119ee8261148b565b908184526020926001811690815f146105e45750600114611a195761042c8461059d818803826108d4565b91935060015f52835f20915f925b828410611a43575050508161042c9361059d928201019361058d565b8054858501870152928501928101611a27565b346103db575f3660031901126103db57608e546040516001600160a01b039091168152602090f35b6001600160701b038116036103db57565b60c4359061062f82611a7e565b610104359061062f82610610565b346103db576101603660031901126103db576101203660231901126103db57611ad1610936565b611ad961108a565b8152611ae3611097565b6020820152611af06110a4565b6040820152611afd6110b1565b6060820152611b0a610e94565b6080820152611b17611a8f565b60a0820152611b24610ea1565b60c0820152611b31611a9c565b60e082015261010061012435910152611b48610631565b506040515f8152602090f35b346103db5760403660031901126103db576020600435611b7381610610565b60018060a01b038091165f526088825260405f206024355f52825260405f205416604051908152f35b346103db575f3660031901126103db576090546040516001600160a01b039091168152602090f35b346103db5760403660031901126103db57600435611be181610610565b602435611bed81610efe565b6001600160a01b038216918215611c5257611c1390335f52600560205260405f20613c2f565b9015159060ff1981541660ff83161790556040519081527f17307eab39ab6107e8899845ad3d59bd9653f200f220920489ca2b5937696c3160203392a3005b604051630b61174360e31b815260048101849052602490fd5b346103db5760403660031901126103db576106d4602435600435613e52565b346103db5760803660031901126103db57600435611ca781610610565b602435611cb381610610565b606435916001600160401b0383116103db57366023840112156103db57611ce76106d4933690602481600401359101610dff565b9160443591614133565b611cfa36610a44565b341580159061201e575b801561200e575b611ffc57611d86611d687f000000000000000000000000b57d30ed3cba3ce0934336db86f22797a9fa8359611d3e61422b565b805160209091012060609190911b6001600160601b03199081169116186001600160e01b03191690565b611d80611d796101e085018561424e565b3691610dff565b9061539d565b90156103db57611da1815191602080809483010191016137d7565b90815191611db361067a609054610604565b916006549260409082604051809263038ab08560e11b82528180611de160049a600483019190602083019252565b03915afa8015610717576004915f91611fdf575b50611dff8161291d565b14935f5b868110611eb0578786611e158761551e565b611e2e611e266101c084018461424e565b81019061071c565b915f91611e76575b60e00135159081611e6d575b50611e5b57611e566106d491608d5461306c565b608d55565b604051637691472960e01b8152600490fd5b90501582611e42565b9050611e90611e8b60e0830135609754612f58565b609755565b60e0611ea8611e9e83614280565b84608d54916155c5565b919050611e36565b611eba8186612cdd565b5190611ed5611ec883611616565b546001600160a01b031690565b611ee161067a8b614280565b6001600160a01b0390911603611f8f578487611efc84615504565b611f0c575b506001915001611e03565b611f3d92611f1e61067a608e54610604565b86516342f9914b60e01b81528681019283529485928391829160200190565b03915afa91821561071757600192611f65915f91611f72575b505f52609860205260405f2090565b8054600101905584611f01565b611f899150873d89116117a55761179781836108d4565b5f611f56565b50916108179088611fab611fa5611ec887611616565b91614280565b9151631048fd9360e11b81529384019485526001600160a01b03908116602086015216604084015290918291606090910190565b611ff69150843d86116107105761070281836108d4565b5f611df5565b6040516394310b3d60e01b8152600490fd5b5060065460208201351415611d0b565b50612043602060065460405180938192636e49181f60e01b8352339060048401612fd9565b03817f0000000000000000000000000061e516886a0540f63157f112c0588ee0651dcf6001600160a01b03165afa908115610717575f91612086575b5015611d04565b61209f915060203d602011610b5157610b4381836108d4565b5f61207f565b346103db5760403660031901126103db576004356120c281610610565b6001600160a01b03165f908152608960209081526040808320602435845282529091206001600160d01b0390611391906157cc565b346103db5760203660031901126103db5761211661067a608e54610604565b60206040518092630fab094760e01b82528180612136306004830161072b565b03915afa908115610717575f916121b8575b505f6040518092635e703e7160e01b8252818061216b6004353060048401613079565b03916001600160a01b03165afa80156107175761042c915f91612196575b506040519182918261053d565b6121b291503d805f833e6121aa81836108d4565b81019061428a565b5f612189565b6121da915060203d6020116121e0575b6121d281836108d4565b810190613e14565b5f612148565b503d6121c8565b346103db576020806003193601126103db57600435906001600160401b0382116103db57366023830112156103db5781600401359161222583610983565b9160409361223660405194856108d4565b8084526024602085019160061b840101923684116103db57602401905b838210612263576106d4856142c7565b85823603126103db57828691825161227a8161086a565b843561228581610610565b81528285013583820152815201910190612253565b346103db575f3660031901126103db57608f546040516001600160a01b039091168152602090f35b346103db5760603660031901126103db5760206004356122e181610610565b604435906122ee8261106c565b6001600160a01b03165f9081526089835260408082206024358352845290206001600160d01b039161139191614fb9565b346103db5760203660031901126103db576004356001600160401b0381116103db576123526119b99136906004016113d5565b6143af565b346103db575f3660031901126103db57602060ff609354166040519015158152f35b346103db575f3660031901126103db57604051612395816108b8565b611000809136903760405160085f825b608082106123e5575050506123b9816108b8565b604051905f90825b608083106123ce57505050f35b6001908251815260208091019201920191906123c1565b60016020819285548152019301910190916123a5565b346103db575f3660031901126103db576040515f9060955461241c8161148b565b8083526020916001908181169081156105e457506001146124475761042c8461059d818803826108d4565b91935060955f52835f20915f925b828410612471575050508161042c9361059d928201019361058d565b8054858501870152928501928101612455565b346103db5760403660031901126103db57602060ff6124cf6004356124a881610610565b602435906124b582610610565b6001600160a01b03165f9081526005855260409020613c2f565b54166040519015158152f35b346103db575f3660031901126103db576040517f000000000000000000000000b57d30ed3cba3ce0934336db86f22797a9fa83596001600160a01b03168152602090f35b346103db5760203660031901126103db5760043561253c81610610565b61254461463e565b6001600160a01b0381161561255c576106d490614f84565b604051631e4fbdf760e01b81525f6004820152602490fd5b346103db5760203660031901126103db576004355f52608a602052602060018060d01b0361139160405f206157cc565b929160808401918452602090818501526040926040850152606060806060860152855180935260a085018260a08560051b8801019701945f925b8584106125f057505050505050505090565b90919293949596989785806126316001938d609f1990820301885285878d51878060a01b038151168452858101518685015201519181898201520190610518565b9a9b990197969591909101930191906125de565b346103db5761265336610ca8565b60808101356128e85761269c61268b7f000000000000000000000000b57d30ed3cba3ce0934336db86f22797a9fa8359611d3e61422b565b611d80611d7961018085018561424e565b6060916128ce575b506126b361067a609054610604565b9060409182519163038ab08560e11b8352602092838160049481806126e38a8c0135600483019190602083019252565b03915afa908115610717575f916128b1575b508151925f935f9161270b61067a608e54610604565b905b82841061281e57898961042c8a8a8a8a612725614501565b93865161274b8161273d878583019190602083019252565b03601f1981018352826108d4565b5f612754610917565b308152928301528782015261276885612ccb565b5261277284612ccb565b5061277c8161291d565b60018114908115612809575b81156127f4575b81156127e0575b50156127b55750925b51938493610160610120830135920135856125a4565b6127da91506127d46127ce609754610120890135612f58565b91613ba6565b906157f4565b9261279f565b600591506127ed8161291d565b1487612796565b90506127ff8161291d565b600681149061278f565b90506128148161291d565b6002811490612788565b9091929561284b905f6128318989612cdd565b518b518094819263c44a8e6d60e01b835230888401612eb8565b0381875afa9081156107175761288761287b8b61288d946001965f91612897575b5001516001600160681b031690565b6001600160681b031690565b90612f58565b960192919061270d565b6128ab91503d805f833e6117c481836108d4565b5f61286c565b6128c89150843d86116107105761070281836108d4565b5f6126f5565b6128e29150602080825183010191016137d7565b5f6126a4565b60405163096afe5960e41b8152600490fd5b908160209103126103db575160078110156103db5790565b6040513d5f823e3d90fd5b6007111561292757565b634e487b7160e01b5f52602160045260245ffd5b61294361463e565b61295161067a609054610604565b6006546040805163038ab08560e11b81526004808201939093529092602091908290829060249082905afa908115610717575f91612c0d575b506129948161291d565b60038103612bfd5760935460ff16612bed576129af8161291d565b60068114908115612bd9575b50612bca57608e6129d061067a608e54610604565b91808551809463f1bea54f60e01b825281806129ee308a830161072b565b03915afa928315610717575f93612bab575b5090915f91865191612a10612c39565b505f945b838610612a875750505050670de0b6b3a7640000915011612a7957507f9a6cf4ff8f1a3ee73be4815b44949c83dbc2e76a386eaf652b2a454bac9d241291612a7491612a68600160ff196093541617609355565b51918291339083612f65565b0390a1565b90516351ae01e360e11b8152fd5b90919293612ac55f612a9c61067a8554610604565b612aa6898d612cdd565b5151908a8c518095819482936364faa15960e01b845230908401612eb8565b03915afa908115610717575f91612b91575b50612af4612aec61010083015162ffffff1690565b62ffffff1690565b612b81578363ffffffff612b0c835163ffffffff1690565b1611612b8157600191612b61612b7592612b49612b44612b3f8f612b318e8d92612cdd565b510151935163ffffffff1690565b612eed565b612f1d565b90919082549060031b91821b915f19901b1916179055565b85612b6c898d612cdd565b51015190612f58565b95019493929190612a14565b885163148e14dd60e21b81528890fd5b612ba591503d805f833e6117c481836108d4565b5f612ad7565b81612bc39294503d85116117a55761179781836108d4565b915f612a00565b509051636fb8407560e01b8152fd5b60059150612be68161291d565b145f6129bb565b8351633bfa282760e21b81528390fd5b83516301e7228160e11b81528390fd5b612c249150823d84116107105761070281836108d4565b5f61298a565b908160209103126103db575190565b604051906101e082016001600160401b038111838210176108855760405260606101c0835f81525f60208201525f60408201525f838201525f60808201525f60a08201525f60c08201525f60e08201525f6101008201525f6101208201525f6101408201525f6101608201525f6101808201525f6101a08201520152565b634e487b7160e01b5f52603260045260245ffd5b805115612cd85760200190565b612cb7565b8051821015612cd85760209160051b010190565b519061062f82610e86565b519061062f82610e6a565b519061062f82610eb9565b519061062f82610610565b519061062f82610ed0565b519061062f82610ee8565b519061062f82610efe565b81601f820112156103db578051612d5481610de4565b92612d6260405194856108d4565b818452602082840101116103db5761054e91602080850191016104f7565b6020818303126103db5780516001600160401b03918282116103db57016101e0818403126103db57612db0610956565b92612dba82612cf1565b8452612dc860208301612cfc565b6020850152612dd960408301612cf1565b6040850152612dea60608301612cf1565b6060850152612dfb60808301612cfc565b6080850152612e0c60a08301612d07565b60a0850152612e1d60c08301612d12565b60c085015260e082015160e0850152610100612e3a818401612d1d565b90850152610120612e4c818401612d28565b90850152610140612e5e818401612d33565b90850152610160612e70818401612d33565b90850152610180612e82818401612d33565b908501526101a0612e94818401612d33565b908501526101c092838301519081116103db57612eb19201612d3e565b9082015290565b6001600160a01b03909116815260208101919091525f604082015260600190565b634e487b7160e01b5f52601160045260245ffd5b63ffffffff9081165f190191908211612f0257565b612ed9565b63ffffffff9182169082160391908211612f0257565b6080811015612cd857600801905f90565b9060018201809211612f0257565b9060048201809211612f0257565b9060098201809211612f0257565b91908201809211612f0257565b909291926040906040830160408452815180915260608401916020809101935f905b838210612fa45750505050602091509360018060a01b0316910152565b855180518652830151858401529482019493840193600190910190612f87565b908160209103126103db575161054e81610efe565b9081526001600160a01b03909116602082015260400190565b91906001600160a01b039081811615613046576130128291843391614e27565b931692169082820361302357505050565b60649350604051926364283d7b60e01b8452600484015260248301526044820152fd5b604051633250574960e11b81525f6004820152602490fd5b5f19810191908211612f0257565b91908203918211612f0257565b6001600160a01b039091168152602081019190915260400190565b811561309e570490565b634e487b7160e01b5f52601260045260245ffd5b6130e8906130c461067a608e54610604565b90604051906342f9914b60e01b825281806020958693600483019190602083019252565b0381855afa908115610717575f91613270575b506040516364faa15960e01b8152905f828061311b843060048401612eb8565b0381865afa918215610717575f92613254575b5061314861313e612b448361305e565b90549060031b1c90565b92831561324b578460405180926302b7e6ef60e41b8252818061316f873060048401613079565b03915afa948515610717575f9561322c575b505060608201916040613198845163ffffffff1690565b9101926131ce6131c1876131bc6131b3885163ffffffff1690565b63ffffffff1690565b612f58565b63ffffffff80941661306c565b156132225761054e9561321561320661321c966132006131f5611766965163ffffffff1690565b915163ffffffff1690565b90612f07565b945f52609860205260405f2090565b549061306c565b90613094565b5050505050505f90565b613243929550803d106117a55761179781836108d4565b925f80613181565b50505050505f90565b6132699192503d805f833e6117c481836108d4565b905f61312e565b6132879150833d85116117a55761179781836108d4565b5f6130fb565b6040519061329a8261089d565b5f8252565b80546001600160a01b0319166001600160a01b03909216919091179055565b601f81116132ca575050565b5f805260205f20906020601f840160051c83019310613303575b601f0160051c01905b8181106132f8575050565b5f81556001016132ed565b90915081906132e4565b601f8111613319575050565b60945f5260205f20906020601f840160051c83019310613353575b601f0160051c01905b818110613348575050565b5f815560010161333d565b9091508190613334565b601f8111613369575050565b60955f5260205f20906020601f840160051c830193106133a3575b601f0160051c01905b818110613398575050565b5f815560010161338d565b9091508190613384565b90601f82116133ba575050565b60019160015f5260205f20906020601f840160051c830193106133f7575b601f0160051c01905b8181106133ed57505050565b5f815582016133e1565b90915081906133d8565b601f821161340e57505050565b5f5260205f20906020601f840160051c83019310613446575b601f0160051c01905b81811061343b575050565b5f8155600101613430565b9091508190613427565b8160011b915f199060031b1c19161790565b80519091906001600160401b038111610885576134898161348460945461148b565b61330d565b602080601f83116001146134bd575081906134ad93945f926134b2575b5050613450565b609455565b015190505f806134a6565b60945f52601f198316949091907f7047a3cc0a76edcee45792ca71527c753f6167484f14b94c4a3bd2997516725c925f905b87821061352657505083600195961061350e575b505050811b01609455565b01515f1960f88460031b161c191690555f8080613503565b806001859682949686015181550195019301906134ef565b80519091906001600160401b038111610885576135658161356060955461148b565b61335d565b602080601f831160011461358d5750819061358893945f926134b2575050613450565b609555565b60955f52601f198316949091907f947035e97d0f7e1937f791bc189f60c984ceaaa7a8494fc67f9f8f4de8ccf2c6925f905b8782106135f65750508360019596106135de575b505050811b01609555565b01515f1960f88460031b161c191690555f80806135d3565b806001859682949686015181550195019301906135bf565b80519091906001600160401b0381116108855760019061363781613632845461148b565b6133ad565b602080601f831160011461365f5750819061365b9394955f926134b2575050613450565b9055565b60015f52601f198316959091907fb10e2d527612073b26eecdfd717e6a320cf44b4afac2b0732d9fcbe2b7fa0cf6925f905b8882106136c657505083859697106136ae575b505050811b019055565b01515f1960f88460031b161c191690555f80806136a4565b808785968294968601518155019501930190613691565b81519192916001600160401b03811161088557613704816136fe845461148b565b84613401565b602080601f83116001146137285750819061365b9394955f926134b2575050613450565b90601f1983169561373c855f5260205f2090565b925f905b88821061375e575050836001959697106136ae57505050811b019055565b80600185968294968601518155019501930190613740565b9080601f830112156103db5781519060209161379181610983565b9361379f60405195866108d4565b81855260208086019260051b8201019283116103db57602001905b8282106137c8575050505090565b815181529083019083016137ba565b906020828203126103db5781516001600160401b0381116103db5761054e9201613776565b60208082019080835283518092528060408094019401925f905b83821061382557505050505090565b9091929394836101c06001926138fb895161384883825160018060681b03169052565b8085015163ffffffff16838601528087015163ffffffff168388015260608181015161ffff16908401526080818101516001600160a01b03169084015260a0818101519084015260c08082015162ffffff169084015260e08181015160ff169084015261010081810151151590840152610120818101511515908401526101408181015115159084015261016081810151151590840152610180818101511515908401526101a090810151151590830152565b0196019493920190613816565b9b94989a92919396999097959760018060a01b039c8d7f000000000000000000000000b57d30ed3cba3ce0934336db86f22797a9fa83591630146103db578d61395561067a608e54610604565b166103db57613a31976139c58e6139a36139ed97613981613a0f9b6139cb9865ffffffffffff98614e98565b608f80546001600160a01b0319166001600160a01b0392909216919091179055565b608e80546001600160a01b0319166001600160a01b0392909216919091179055565b16609255565b609080546001600160a01b0319166001600160a01b0392909216919091179055565b609180546001600160a01b0319166001600160a01b0392909216919091179055565b609680546001600160a01b0319166001600160a01b0392909216919091179055565b8051613b65575b508051613b56575b50838116613aee575b505f91613a6d9183604051958680958194631f1d05ad60e01b8352600483016137fc565b0393165af1801561071757613acc575b508051905f5b828110613a965750505061062f33614f84565b80613ac6613aa660019385612cdd565b51613ac1613ab384612f2e565b5f52608c60205260405f2090565b6136dd565b01613a83565b613ae7903d805f833e613adf81836108d4565b8101906137d7565b505f613a7d565b91838116803b156103db5760405163036129cb60e61b8152935f918591829084908290613b1e906004830161072b565b03925af1918215610717575f93613a6d93613b3d575b50915091613a49565b80613b4a613b509261088a565b806104ed565b5f613b34565b613b5f9061353e565b5f613a40565b613b6e90613462565b5f613a38565b5f908152608b60205260409020546001600160a01b0390811680613ba15750600260205260405f20541690565b905090565b905f9180515f915b818310613bba57505050565b909193613bd0613bca8684612cdd565b516130b2565b8101809111612f0257936001019190613bae565b6001600160a01b03165f90815260886020526040902090565b6001600160a01b03165f90815260896020526040902090565b6001600160a01b03165f90815260036020526040902090565b9060018060a01b03165f5260205260405f2090565b60405190606082016001600160401b038111838210176108855760405260606040835f81525f60208201520152565b6040516370a0823160e01b80825291906020906001600160a01b0390828180613c9f306004830161072b565b0381857f0000000000000000000000001bf077855a17b4dd12eb3ade29d94cff27fe56d0165afa80156107175783915f91613d3c575b509460405192839182528180613cee306004830161072b565b03917f00000000000000000000000058204a8849bf6a625d56021adfd12ce4a4a3af13165afa918215610717575f92613d2657505090565b61054e9250803d106117a55761179781836108d4565b613d539150823d84116117a55761179781836108d4565b5f613cd5565b519061062f8261106c565b519061062f82611a7e565b90816101209103126103db57613d83610936565b90613d8d81613d59565b8252613d9b60208201613d59565b6020830152613dac60408201613d59565b6040830152613dbd60608201613d59565b6060830152613dce60808201612cf1565b6080830152613ddf60a08201613d64565b60a0830152613df060c08201612cf1565b60c0830152613e0160e08201612d12565b60e0830152610100809101519082015290565b908160209103126103db575161054e81610610565b908160051b9180830460201490151715612f0257565b81810292918115918404141715612f0257565b919091613e6361067a608f54610604565b600654604080516321d1336160e11b81526004810192909252929161012091908290829060249082905afa91821561071757613ebd92613eb292610100925f92614106575b5050015160f21c90565b60018091811c161490565b6140f557613ecf61067a608e54610604565b9160208151809462d5cc0160e21b82528180613eef873060048401613079565b03915afa928315610717575f936140d4575b506001600160a01b039081613f29611ec885613f1c88613be4565b905f5260205260405f2090565b16156140a5575b613f3e61067a608e54610604565b8151635d53f40760e11b8152600481018590526024810188905296905f908890604490829084905af1968715610717575f97614089575b50613f8461067a608e54610604565b915f815180946364faa15960e01b82528180613fa48a3060048401612eb8565b03915afa928315610717575f9361406d575b50602083015188516001600160681b039591613fe491611e5691613fdc91908916613e3f565b608d54612f58565b5f5b838110614018575050505060800151939461062f9461401292906001600160681b031691519116613e3f565b916150a5565b806140256001928c612cdd565b51614030818b61503a565b888551917f031e1988c95a91ec4d655ff63a8f87a80bc9daf28d95ae10ee08c0022cfb5c8b868d169380614064338261072b565b0390a401613fe6565b6140829193503d805f833e6117c481836108d4565b915f613fb6565b61409e9197503d805f833e613adf81836108d4565b955f613f75565b6140b0609654610604565b83818416156140c9576140c4915b8661453c565b613f30565b6140c49150856140be565b6140ee91935060203d6020116121e0576121d281836108d4565b915f613f01565b8151631d2c125760e31b8152600490fd5b6141259250803d1061412c575b61411d81836108d4565b810190613d6f565b5f80613ea8565b503d614113565b91929092614142818585612ff2565b833b61414f575b50505050565b614174916020916040519384928392630a85bd0160e11b97888552336004860161531c565b03815f6001600160a01b0388165af15f91816141fa575b506141c4578261419961534d565b80519190826141bd57604051633250574960e11b815280610817846004830161072b565b9050602001fd5b6001600160e01b031916036141dd57505f808080614149565b604051633250574960e11b8152908190610817906004830161072b565b61421d91925060203d602011614224575b61421581836108d4565b810190615307565b905f61418b565b503d61420b565b604051906142388261086a565b600782526618d85cda13dd5d60ca1b6020830152565b903590601e19813603018212156103db57018035906001600160401b0382116103db576020019181360383136103db57565b3561054e81610610565b906020828203126103db5781516001600160401b0381116103db5761054e9201612d3e565b604051906142bc8261086a565b5f6020838281520152565b6142d561067a609054610604565b6006546040805163038ab08560e11b8152600480820193909352939290916020918290869060249082905afa948515610717575f9561438e575b506143198561291d565b60018095036106d65783519361432d6142af565b505f5b8581106143405750505050505050565b61434a8183612cdd565b5161435861067a8251610604565b1561437e5790614378828661436e8b9551610604565b910151903361453c565b01614330565b85516314f4c13d60e21b81528490fd5b6143a891955060203d6020116107105761070281836108d4565b935f61430f565b906143be61067a609054610604565b91600654926040805163038ab08560e11b8152602081819481806143ec60049b600483019190602083019252565b03915afa8015610717576004915f916144e2575b5061440a8161291d565b0361446b579082949251915f955f9461442761067a608e54610604565b915b858710614476575050505050505061443f613c73565b92608d5491821561446b57816144658461446061054e969561446095613e3f565b613094565b95613e3f565b50505090505f905f90565b909192939495976144a6905f61448c8b85612cdd565b5187518094819263c44a8e6d60e01b835230898401612eb8565b0381885afa9081156107175761288761287b896144d5946001965f91612897575001516001600160681b031690565b9801959493929190614429565b6144fb915060203d6020116107105761070281836108d4565b5f614400565b6040519061450e8261086a565b60018252815f5b602090818110156145375760209161452b613c44565b90828501015201614515565b505050565b6001600160a01b039081165f8181526088602090815260408083208784528252909120805491959294929391821691869161457890859061329f565b80841683877f3134e8a2e6d97e929a7e54011ea5485d7d196dd5f0ba4d4ef95803e8e3fc257f5f80a4608e5416946064604051809781936305c9a1d560e31b835230600484015260248301528760448301525afa9384156107175761062f955f956145e5575b505061588e565b6145fc929550803d106117a55761179781836108d4565b925f806145de565b5f818152600260205260409020546001600160a01b0316908115614626575090565b60249060405190637e27328960e01b82526004820152fd5b6007546001600160a01b0316330361465257565b60405163118cdaa760e01b8152336004820152602490fd5b3561054e81610e86565b604051906146818261086a565b600382526270617960e81b6020830152565b91906040838203126103db5782516146aa81610610565b60208085015191949091906001600160401b0382116103db57019180601f840112156103db5782516146db81610983565b936146e960405195866108d4565b818552838086019260051b8201019283116103db578301905b828210614710575050505090565b838091835161471e81610eb9565b815201910190614702565b9061473660a0830161466a565b63ffffffff609254911603614a27576147856147747f000000000000000000000000b57d30ed3cba3ce0934336db86f22797a9fa8359611d3e614674565b611d80611d796101e086018661424e565b9015614a22578060208061479e93518301019101614693565b6001600160a01b03918216939184156149f7575b8151156149e5575f805f918451975f5b898110614804575050505050506147ec92935060c06147e46101a08401614280565b920135615a2b565b6147f257565b604051631b57826960e21b8152600490fd5b898861482561481e614816858c612cdd565b5161ffff1690565b61ffff1690565b8503614933575b90614846611ec886613f1c6148418b96614280565b613be4565b88808616918b83159485158096614928575b61486c575b505050505050506001016147c2565b879a96979161487b8b9261305e565b83109283614902575b5050505f146148ad575050505060019161489d91612f58565b935b9050845f8088818b8f61485d565b6148d49550836148f5575b5050506148dd575b83614012876148ce8c614280565b93612f58565b60015f9361489f565b6148f084846148eb8c614280565b61453c565b6148c0565b16141590505f88816148b8565b61ffff92935061491e9161491861481692612f2e565b90612cdd565b1614888d8b614884565b508383161515614858565b505093509061494861481e6148168689612cdd565b106149d35761495d61481e6148168588612cdd565b9061496c61067a608e54610604565b935f60405180966364faa15960e01b8252818061498d883060048401612eb8565b03915afa948515610717578a614846611ec886613f1c6149c761287b8f976148419d6080915f91612897575001516001600160681b031690565b9a50505050509061482c565b604051639fda363d60e01b8152600490fd5b604051633d04bd1f60e01b8152600490fd5b9350614a04609654610604565b80851615614a13575b936147b2565b50614a1d82614280565b614a0d565b509050565b6040516301e73e1760e61b8152600490fd5b919091614a4a61067a608e54610604565b905f604051809363c44a8e6d60e01b82528180614a6b893060048401612eb8565b03915afa918215610717575f92614c39575b50614a888482615b2e565b936001600160a01b038086161591908215614b55575b5050614aae61067a608e54610604565b835163ffffffff1690803b156103db576040516330b157e560e21b815263ffffffff9290921660048301526001600160a01b038781166024840152841660448301525f908290606490829084905af1801561071757614b42575b50614b3e579061062f9163ffffffff614b25835163ffffffff1690565b608093909301516001600160681b031692169085615245565b5050565b80613b4a614b4f9261088a565b5f614b08565b610160850151614b88575b5085614b7161067a611ec884611624565b614a9e576107f7614b8192611624565b5f85614a9e565b614bc290614b9a61067a608f54610604565b60065460405180926321d1336160e11b82528180610120978895600483019190602083019252565b03915afa928315610717575f93614c1a575b5050841615159081614bfe575b50614bec575f614b60565b6040516318cdaf9760e01b8152600490fd5b6101000151614c14915060f21c60018091161490565b5f614be1565b614c31929350803d1061412c5761411d81836108d4565b905f80614bd4565b614c4e9192503d805f833e6117c481836108d4565b905f614a7d565b90614c6461067a608e54610604565b5f604051809263c44a8e6d60e01b82528180614c84883060048401612eb8565b03915afa908115610717575f91614e0d575b50614ca083615bbc565b926001600160a01b03841615908115614d66575b50614cc361067a608e54610604565b825163ffffffff1690803b156103db576040516330b157e560e21b815263ffffffff9290921660048301526001600160a01b03861660248301525f60448301819052908290606490829084905af1801561071757614d53575b50614d50578063ffffffff614d3861062f935163ffffffff1690565b608092909201516001600160681b0316911684615171565b50565b80613b4a614d609261088a565b5f614d1c565b610160830151614da0575b84614d8161067a611ec884611624565b15614d8d575b50614cb4565b6107f7614d9992611624565b5f84614d87565b614dd9614db161067a608f54610604565b60065460405180926321d1336160e11b82528180610120968795600483019190602083019252565b03915afa801561071757614def575b5050614d71565b81614e0592903d1061412c5761411d81836108d4565b505f80614de8565b614e2191503d805f833e6117c481836108d4565b5f614c96565b92919092614e3961067a608e54610604565b915f604051809463c44a8e6d60e01b82528180614e5a8a3060048401612eb8565b03915afa928315610717575f93614e78575b50614a88908583615c33565b614a88919350614e91903d805f833e6117c481836108d4565b9290614e6c565b815191939290916001600160401b03811161088557614ec081614ebb5f5461148b565b6132be565b602080601f8311600114614ef7575081614ef29392614eeb9261062f97985f926134b2575050613450565b5f5561360e565b600655565b5f8052601f198316969091907f290decd9548b62a8d60345a988386fc84ba6bc95484008f6362f93160ef3e563925f905b898210614f6c575050918391600193614ef2969561062f999a10614f54575b505050811b015f5561360e565b01515f1960f88460031b161c191690555f8080614f47565b80600185968294968601518155019501930190614f28565b600780546001600160a01b039283166001600160a01b0319821681179092559091165f80516020615ebd8339815191525f80a3565b8054915f5b838110614fed57505081614fd25750505f90565b614fde61054e9261305e565b905f5260205f20015460301c90565b90928082169080831860011c8201809211612f0257835f5265ffffffffffff808360205f20015416908616105f146150285750925b90614fbe565b93915061503490612f2e565b90615022565b6001600160a01b0391818316156130465761505491614a39565b1661505b57565b6040516339e3563760e11b81525f6004820152602490fd5b6001600160d01b039182169082160191908211612f0257565b6001600160d01b039182169082160391908211612f0257565b9061062f9291815f52608a6020526150bf60405f206157cc565b6150c883611632565b4265ffffffffffff16916001600160d01b038616916150f290846150ec8585615073565b91615dd3565b506001600160a01b0393905084841615615155575b5050505f8381527f046491916a0278bc7eb038aba60c896854c99d791b5a890a9ff3ed75cc95e12a602052604090205481169161514390613be4565b835f5260205260405f2054169061588e565b6150ec61516b9361516588611632565b9361508c565b5f615107565b61062f9291906001600160a01b039061519b908281161580801561523d575b6151c6575b50613be4565b825f5260205260405f2054166151c0611ec883613f1c5f8052608860205260405f2090565b9061588e565b61521190855f52608a6020526151de60405f206157cc565b90615217575b6152016151f087611632565b916001600160d01b0389169061508c565b9065ffffffffffff421690615dd3565b50615195565b61523661522387611632565b6152016001600160d01b038a1684615073565b50506151e4565b506001615190565b906151c0611ec884613f1c615282611ec883613f1c61062f9b9a9960018060a01b038c81831615918280156152fd575b615288575b505050613be4565b94613be4565b855f52608a60205261529c60405f206157cc565b926152d7575b8c16156152b0575b8161527a565b6152016152d0926152c087611632565b926001600160d01b03169061508c565b508c6152aa565b6152f66152e387611632565b6152016001600160d01b03851686615073565b50506152a2565b50808d1615615275565b908160209103126103db575161054e816103c9565b6001600160a01b03918216815291166020820152604081019190915260806060820181905261054e92910190610518565b3d15615377573d9061535e82610de4565b9161536c60405193846108d4565b82523d5f602084013e565b606090565b805160241015612cd85760440190565b908151811015612cd8570160200190565b905f906060926025825111156154f6576153d96153d36153cd6153bf8561537c565b516001600160f81b03191690565b60f81c90565b60ff1690565b9060209360205b6154056153f86153bf6153f284612f3c565b8861538c565b6001600160f81b03191690565b1515806154e5575b156154dc5761542d6153d36153cd6153bf61542785612f3c565b8961538c565b8186018701516001600160e01b031985811691161461544f57506005016153e0565b95509291505061548c945061546c61546683612f4a565b91613e29565b118015906154bd575b156154915750615486815192613e29565b90615d2b565b600191565b6154b76154b26153d36153cd6153bf6154ac61548696612f4a565b8761538c565b613e29565b92613e29565b506154d66153f86153bf6154d084612f4a565b8561538c565b15615475565b50959350505050565b506154ef84613e29565b811061540d565b505050505f9061054e61328d565b6001600160a01b0361551582614c55565b16156146265750565b608e546001600160a01b0316803b156103db5760405180926386bc2be360e01b8252602482016020906020600485015282518091526020604485019301915f5b82811061558d575050505091815f81819503925af18015610717576155805750565b80613b4a61062f9261088a565b83518552879550938101939281019260010161555e565b90815260208101919091526001600160a01b03909116604082015260600190565b6040516370a0823160e01b8082526001600160a01b037f00000000000000000000000058204a8849bf6a625d56021adfd12ce4a4a3af1381169560209592949093909290868180615619306004830161072b565b03818b5afa908115610717576144608361563c9388935f916157b5575b50613e3f565b93827f0000000000000000000000001bf077855a17b4dd12eb3ade29d94cff27fe56d01695604051908152878180615677306004830161072b565b03818a5afa9283156107175761569793614460925f916157985750613e3f565b918215968715958661574b575b5084151596876156df575b50506156d35f80516020615e9d8339815191529360405193849316953391846155a4565b0390a291613ba1575090565b909381604051809663a9059cbb60e01b8252815f816157028c8a60048401613079565b03925af1918215610717575f80516020615e9d833981519152956156d39361572d575b5050936156af565b8161574392903d10610b5157610b4381836108d4565b505f80615725565b87604051809263a9059cbb60e01b8252815f8161576c8b8a60048401613079565b03925af1801561071757156156a45761579190883d8a11610b5157610b4381836108d4565b505f6156a4565b6157af91508a3d8c116117a55761179781836108d4565b5f615636565b6157af91508b3d8d116117a55761179781836108d4565b8054806157d95750505f90565b5f19918183810111612f02575f5260205f2001015460301c90565b9091905f198382098382029182808310920391808303921461587d57670de0b6b3a7640000908183101561585a57947faccb18165bd6fe31ae1cf318dc5b51eee0e1ba569b88cd74c1773b91fac1066994950990828211900360ee1b910360121c170290565b6064918660405192630c740aef60e31b8452600484015260248301526044820152fd5b5050670de0b6b3a764000090049150565b91926001600160a01b0380831693919291908116808514801561598a575b61598257859181615935575b505050826158c65750505050565b5f80516020615efd833981519152916159158261520161590188613f1c6158fb6158f683613f1c6159299b613bfd565b6157cc565b94613bfd565b6001600160d01b0394909290851690615073565b6040519384939092339282169116846155a4565b0390a35f808080614149565b6159778161591561596186613f1c6158fb6158f683613f1c5f80516020615efd8339815191529a613bfd565b6001600160d01b0392615201908a85169061508c565b0390a3835f806158b8565b505050505050565b5083156158ac565b61599b90611640565b80546001600160a01b0319169055565b91906040838203126103db5782516001600160401b0381116103db576020916159d5918501613776565b92015190565b929190606084019084526020906060602086015282518091526020608086019301915f5b828110615a13575050505060405f91930152565b835161ffff16855293810193928101926001016159ff565b929192615a3c61067a608e54610604565b916040905f604051809563eaa19ab360e01b8252818381615a61878a600484016159db565b03925af18015610717575f945f91615b06575b5095845194615a88611e5686608d54612f58565b5f5b868110615a9a5750505050505050565b80615aa760019284612cdd565b51615ab2818661503a565b61ffff615ac26148168489612cdd565b168751917f598baf7bf150ca2f42be9e9f8f55e81d45f5715c3ff22bf46d697fabec7f31d6858060a01b0388169380615afd8d339083612fd9565b0390a401615a8a565b9050615b259194503d805f833e615b1d81836108d4565b8101906159ab565b9390935f615a74565b5f828152600260205260409020546001600160a01b03908116929190615b669084615b90575b82169182615b7b575b6107f784611616565b825f80516020615edd8339815191525f80a490565b615b8481613c16565b60018154019055615b5d565b615b9984611640565b80546001600160a01b0319169055615bb085613c16565b80545f19019055615b54565b5f818152600260205260409020546001600160a01b03169081615c07575b615be381611616565b80546001600160a01b03191690555f825f80516020615edd8339815191528280a490565b615c1081611640565b80546001600160a01b0319169055615c2782613c16565b80545f19019055615bda565b5f828152600260205260409020546001600160a01b03908116938082168015159081615c89575b505050615b669084615c775782169182615b7b576107f784611616565b615c8084615992565b615bb085613c16565b81615cd8575b5015615c9c578080615c5a565b839085615cbc57604051637e27328960e01b815260048101839052602490fd5b61081760405192839263177e802f60e01b845260048401613079565b86811491508115615d0a575b8115615cf2575b505f615c8f565b9050845f5260046020528260405f205416145f615ceb565b9050855f52600560205260ff615d238360405f20613c2f565b541690615ce4565b929181810391604051946020936020818801016040528652015f5b828110615d535750505050565b8181018401518682018501528301615d46565b9065ffffffffffff82549181199060301b169116179055565b908154600160401b8110156108855760018101808455811015612cd85761062f925f5260205f20019065ffffffffffff81511665ffffffffffff19835416178255602060018060d01b039101511690615d66565b80549293928015615e7257615dea615df59161305e565b825f5260205f200190565b9182549265ffffffffffff91828516928116808411615e6057879303615e275750615e209250615d66565b60301c9190565b915050615e5b91615e47615e39610976565b65ffffffffffff9093168352565b6001600160d01b0386166020830152615d7f565b615e20565b604051632520601d60e01b8152600490fd5b5090615e9791615e83615e39610976565b6001600160d01b0385166020830152615d7f565b5f919056fea183a623ac9e87a7002f8ccdd81b014fd2212a1a62a3059e097db62cb2df52c98be0079c531659141344cd1fd0a4f28419497f9722a3daafe3b4186f6b6457e0ddf252ad1be2c89b69c2b068fc378daa952ba7f163c4a11628f55a4df523b3ef26abcd0483bf852c577c9beff4daa5920a203234050413150a0aa946fb598bfaa264697066735822122044865371cdc2b25c790dde604ca00a4f1709a9921278fb82d384113de48819ab64736f6c63430008170033",
	"gitCommit": "65e9171fc69ba65af9e9ac84f021a9fd6cb1787d",
	"history": [
		{
			"format": "sphinx-sol-ct-artifact-1",
			"merkleRoot": "0xf08f9ca7dcb710bbe0f088e7fa547a30ed0560e0de626166d34dde93c2b21941",
			"address": "0x9f8e41fdb2447fcebfffdc97387ac72b523e9fc3",
			"sourceName": "contracts/DefifaDelegate.sol",
			"contractName": "DefifaDelegate",
			"chainId": "0xaa37dc",
			"abi": [
				{
					"inputs": [
						{
							"internalType": "contract IJBDirectory",
							"name": "_directory",
							"type": "address"
						},
						{
							"internalType": "contract IERC20",
							"name": "_defifaToken",
							"type": "address"
						},
						{
							"internalType": "contract IERC20",
							"name": "_baseProtocolToken",
							"type": "address"
						}
					],
					"stateMutability": "nonpayable",
					"type": "constructor"
				},
				{
					"inputs": [],
					"name": "DIRECTORY",
					"outputs": [
						{
							"internalType": "contract IJBDirectory",
							"name": "",
							"type": "address"
						}
					],
					"stateMutability": "view",
					"type": "function"
				},
				{
					"inputs": [],
					"name": "METADATA_ID_TARGET",
					"outputs": [
						{
							"internalType": "address",
							"name": "",
							"type": "address"
						}
					],
					"stateMutability": "view",
					"type": "function"
				},
				{
					"inputs": [],
					"name": "PROJECT_ID",
					"outputs": [
						{
							"internalType": "uint256",
							"name": "",
							"type": "uint256"
						}
					],
					"stateMutability": "view",
					"type": "function"
				},
				{
					"inputs": [],
					"name": "TOTAL_CASHOUT_WEIGHT",
					"outputs": [
						{
							"internalType": "uint256",
							"name": "",
							"type": "uint256"
						}
					],
					"stateMutability": "view",
					"type": "function"
				},
				{
					"inputs": [
						{
							"components": [
								{
									"internalType": "address",
									"name": "holder",
									"type": "address"
								},
								{
									"internalType": "uint256",
									"name": "projectId",
									"type": "uint256"
								},
								{
									"internalType": "uint256",
									"name": "rulesetId",
									"type": "uint256"
								},
								{
									"internalType": "uint256",
									"name": "cashOutCount",
									"type": "uint256"
								},
								{
									"components": [
										{
											"internalType": "address",
											"name": "token",
											"type": "address"
										},
										{
											"internalType": "uint8",
											"name": "decimals",
											"type": "uint8"
										},
										{
											"internalType": "uint32",
											"name": "currency",
											"type": "uint32"
										},
										{
											"internalType": "uint256",
											"name": "value",
											"type": "uint256"
										}
									],
									"internalType": "struct JBTokenAmount",
									"name": "reclaimedAmount",
									"type": "tuple"
								},
								{
									"components": [
										{
											"internalType": "address",
											"name": "token",
											"type": "address"
										},
										{
											"internalType": "uint8",
											"name": "decimals",
											"type": "uint8"
										},
										{
											"internalType": "uint32",
											"name": "currency",
											"type": "uint32"
										},
										{
											"internalType": "uint256",
											"name": "value",
											"type": "uint256"
										}
									],
									"internalType": "struct JBTokenAmount",
									"name": "forwardedAmount",
									"type": "tuple"
								},
								{
									"internalType": "uint256",
									"name": "cashOutTaxRate",
									"type": "uint256"
								},
								{
									"internalType": "address payable",
									"name": "beneficiary",
									"type": "address"
								},
								{
									"internalType": "bytes",
									"name": "hookMetadata",
									"type": "bytes"
								},
								{
									"internalType": "bytes",
									"name": "cashOutMetadata",
									"type": "bytes"
								}
							],
							"internalType": "struct JBAfterCashOutRecordedContext",
							"name": "context",
							"type": "tuple"
						}
					],
					"name": "afterCashOutRecordedWith",
					"outputs": [],
					"stateMutability": "payable",
					"type": "function"
				},
				{
					"inputs": [
						{
							"components": [
								{
									"internalType": "address",
									"name": "payer",
									"type": "address"
								},
								{
									"internalType": "uint256",
									"name": "projectId",
									"type": "uint256"
								},
								{
									"internalType": "uint256",
									"name": "rulesetId",
									"type": "uint256"
								},
								{
									"components": [
										{
											"internalType": "address",
											"name": "token",
											"type": "address"
										},
										{
											"internalType": "uint8",
											"name": "decimals",
											"type": "uint8"
										},
										{
											"internalType": "uint32",
											"name": "currency",
											"type": "uint32"
										},
										{
											"internalType": "uint256",
											"name": "value",
											"type": "uint256"
										}
									],
									"internalType": "struct JBTokenAmount",
									"name": "amount",
									"type": "tuple"
								},
								{
									"components": [
										{
											"internalType": "address",
											"name": "token",
											"type": "address"
										},
										{
											"internalType": "uint8",
											"name": "decimals",
											"type": "uint8"
										},
										{
											"internalType": "uint32",
											"name": "currency",
											"type": "uint32"
										},
										{
											"internalType": "uint256",
											"name": "value",
											"type": "uint256"
										}
									],
									"internalType": "struct JBTokenAmount",
									"name": "forwardedAmount",
									"type": "tuple"
								},
								{
									"internalType": "uint256",
									"name": "weight",
									"type": "uint256"
								},
								{
									"internalType": "uint256",
									"name": "newlyIssuedTokenCount",
									"type": "uint256"
								},
								{
									"internalType": "address",
									"name": "beneficiary",
									"type": "address"
								},
								{
									"internalType": "bytes",
									"name": "hookMetadata",
									"type": "bytes"
								},
								{
									"internalType": "bytes",
									"name": "payerMetadata",
									"type": "bytes"
								}
							],
							"internalType": "struct JBAfterPayRecordedContext",
							"name": "context",
							"type": "tuple"
						}
					],
					"name": "afterPayRecordedWith",
					"outputs": [],
					"stateMutability": "payable",
					"type": "function"
				},
				{
					"inputs": [],
					"name": "amountRedeemed",
					"outputs": [
						{
							"internalType": "uint256",
							"name": "",
							"type": "uint256"
						}
					],
					"stateMutability": "view",
					"type": "function"
				},
				{
					"inputs": [
						{
							"internalType": "address",
							"name": "to",
							"type": "address"
						},
						{
							"internalType": "uint256",
							"name": "tokenId",
							"type": "uint256"
						}
					],
					"name": "approve",
					"outputs": [],
					"stateMutability": "nonpayable",
					"type": "function"
				},
				{
					"inputs": [
						{
							"internalType": "address",
							"name": "owner",
							"type": "address"
						}
					],
					"name": "balanceOf",
					"outputs": [
						{
							"internalType": "uint256",
							"name": "",
							"type": "uint256"
						}
					],
					"stateMutability": "view",
					"type": "function"
				},
				{
					"inputs": [],
					"name": "baseProtocolToken",
					"outputs": [
						{
							"internalType": "contract IERC20",
							"name": "",
							"type": "address"
						}
					],
					"stateMutability": "view",
					"type": "function"
				},
				{
					"inputs": [],
					"name": "baseURI",
					"outputs": [
						{
							"internalType": "string",
							"name": "",
							"type": "string"
						}
					],
					"stateMutability": "view",
					"type": "function"
				},
				{
					"inputs": [
						{
							"components": [
								{
									"internalType": "address",
									"name": "terminal",
									"type": "address"
								},
								{
									"internalType": "address",
									"name": "holder",
									"type": "address"
								},
								{
									"internalType": "uint256",
									"name": "projectId",
									"type": "uint256"
								},
								{
									"internalType": "uint256",
									"name": "rulesetId",
									"type": "uint256"
								},
								{
									"internalType": "uint256",
									"name": "cashOutCount",
									"type": "uint256"
								},
								{
									"internalType": "uint256",
									"name": "totalSupply",
									"type": "uint256"
								},
								{
									"components": [
										{
											"internalType": "address",
											"name": "token",
											"type": "address"
										},
										{
											"internalType": "uint8",
											"name": "decimals",
											"type": "uint8"
										},
										{
											"internalType": "uint32",
											"name": "currency",
											"type": "uint32"
										},
										{
											"internalType": "uint256",
											"name": "value",
											"type": "uint256"
										}
									],
									"internalType": "struct JBTokenAmount",
									"name": "surplus",
									"type": "tuple"
								},
								{
									"internalType": "bool",
									"name": "useTotalSurplus",
									"type": "bool"
								},
								{
									"internalType": "uint256",
									"name": "cashOutTaxRate",
									"type": "uint256"
								},
								{
									"internalType": "bytes",
									"name": "metadata",
									"type": "bytes"
								}
							],
							"internalType": "struct JBBeforeCashOutRecordedContext",
							"name": "context",
							"type": "tuple"
						}
					],
					"name": "beforeCashOutRecordedWith",
					"outputs": [
						{
							"internalType": "uint256",
							"name": "cashOutTaxRate",
							"type": "uint256"
						},
						{
							"internalType": "uint256",
							"name": "cashOutCount",
							"type": "uint256"
						},
						{
							"internalType": "uint256",
							"name": "totalSupply",
							"type": "uint256"
						},
						{
							"components": [
								{
									"internalType": "contract IJBCashOutHook",
									"name": "hook",
									"type": "address"
								},
								{
									"internalType": "uint256",
									"name": "amount",
									"type": "uint256"
								},
								{
									"internalType": "bytes",
									"name": "metadata",
									"type": "bytes"
								}
							],
							"internalType": "struct JBCashOutHookSpecification[]",
							"name": "hookSpecifications",
							"type": "tuple[]"
						}
					],
					"stateMutability": "view",
					"type": "function"
				},
				{
					"inputs": [
						{
							"components": [
								{
									"internalType": "address",
									"name": "terminal",
									"type": "address"
								},
								{
									"internalType": "address",
									"name": "payer",
									"type": "address"
								},
								{
									"components": [
										{
											"internalType": "address",
											"name": "token",
											"type": "address"
										},
										{
											"internalType": "uint8",
											"name": "decimals",
											"type": "uint8"
										},
										{
											"internalType": "uint32",
											"name": "currency",
											"type": "uint32"
										},
										{
											"internalType": "uint256",
											"name": "value",
											"type": "uint256"
										}
									],
									"internalType": "struct JBTokenAmount",
									"name": "amount",
									"type": "tuple"
								},
								{
									"internalType": "uint256",
									"name": "projectId",
									"type": "uint256"
								},
								{
									"internalType": "uint256",
									"name": "rulesetId",
									"type": "uint256"
								},
								{
									"internalType": "address",
									"name": "beneficiary",
									"type": "address"
								},
								{
									"internalType": "uint256",
									"name": "weight",
									"type": "uint256"
								},
								{
									"internalType": "uint256",
									"name": "reservedPercent",
									"type": "uint256"
								},
								{
									"internalType": "bytes",
									"name": "metadata",
									"type": "bytes"
								}
							],
							"internalType": "struct JBBeforePayRecordedContext",
							"name": "context",
							"type": "tuple"
						}
					],
					"name": "beforePayRecordedWith",
					"outputs": [
						{
							"internalType": "uint256",
							"name": "weight",
							"type": "uint256"
						},
						{
							"components": [
								{
									"internalType": "contract IJBPayHook",
									"name": "hook",
									"type": "address"
								},
								{
									"internalType": "uint256",
									"name": "amount",
									"type": "uint256"
								},
								{
									"internalType": "bytes",
									"name": "metadata",
									"type": "bytes"
								}
							],
							"internalType": "struct JBPayHookSpecification[]",
							"name": "hookSpecifications",
							"type": "tuple[]"
						}
					],
					"stateMutability": "view",
					"type": "function"
				},
				{
					"inputs": [],
					"name": "cashOutWeightIsSet",
					"outputs": [
						{
							"internalType": "bool",
							"name": "",
							"type": "bool"
						}
					],
					"stateMutability": "view",
					"type": "function"
				},
				{
					"inputs": [
						{
							"internalType": "uint256",
							"name": "_tokenId",
							"type": "uint256"
						}
					],
					"name": "cashOutWeightOf",
					"outputs": [
						{
							"internalType": "uint256",
							"name": "",
							"type": "uint256"
						}
					],
					"stateMutability": "view",
					"type": "function"
				},
				{
					"inputs": [
						{
							"internalType": "uint256[]",
							"name": "tokenIds",
							"type": "uint256[]"
						},
						{
							"components": [
								{
									"internalType": "address",
									"name": "terminal",
									"type": "address"
								},
								{
									"internalType": "address",
									"name": "holder",
									"type": "address"
								},
								{
									"internalType": "uint256",
									"name": "projectId",
									"type": "uint256"
								},
								{
									"internalType": "uint256",
									"name": "rulesetId",
									"type": "uint256"
								},
								{
									"internalType": "uint256",
									"name": "cashOutCount",
									"type": "uint256"
								},
								{
									"internalType": "uint256",
									"name": "totalSupply",
									"type": "uint256"
								},
								{
									"components": [
										{
											"internalType": "address",
											"name": "token",
											"type": "address"
										},
										{
											"internalType": "uint8",
											"name": "decimals",
											"type": "uint8"
										},
										{
											"internalType": "uint32",
											"name": "currency",
											"type": "uint32"
										},
										{
											"internalType": "uint256",
											"name": "value",
											"type": "uint256"
										}
									],
									"internalType": "struct JBTokenAmount",
									"name": "surplus",
									"type": "tuple"
								},
								{
									"internalType": "bool",
									"name": "useTotalSurplus",
									"type": "bool"
								},
								{
									"internalType": "uint256",
									"name": "cashOutTaxRate",
									"type": "uint256"
								},
								{
									"internalType": "bytes",
									"name": "metadata",
									"type": "bytes"
								}
							],
							"internalType": "struct JBBeforeCashOutRecordedContext",
							"name": "",
							"type": "tuple"
						}
					],
					"name": "cashOutWeightOf",
					"outputs": [
						{
							"internalType": "uint256",
							"name": "cumulativeWeight",
							"type": "uint256"
						}
					],
					"stateMutability": "view",
					"type": "function"
				},
				{
					"inputs": [],
					"name": "codeOrigin",
					"outputs": [
						{
							"internalType": "address",
							"name": "",
							"type": "address"
						}
					],
					"stateMutability": "view",
					"type": "function"
				},
				{
					"inputs": [],
					"name": "contractURI",
					"outputs": [
						{
							"internalType": "string",
							"name": "",
							"type": "string"
						}
					],
					"stateMutability": "view",
					"type": "function"
				},
				{
					"inputs": [
						{
							"internalType": "uint256",
							"name": "_tierId",
							"type": "uint256"
						}
					],
					"name": "currentSupplyOfTier",
					"outputs": [
						{
							"internalType": "uint256",
							"name": "",
							"type": "uint256"
						}
					],
					"stateMutability": "view",
					"type": "function"
				},
				{
					"inputs": [],
					"name": "defaultAttestationDelegate",
					"outputs": [
						{
							"internalType": "address",
							"name": "",
							"type": "address"
						}
					],
					"stateMutability": "view",
					"type": "function"
				},
				{
					"inputs": [],
					"name": "defifaToken",
					"outputs": [
						{
							"internalType": "contract IERC20",
							"name": "",
							"type": "address"
						}
					],
					"stateMutability": "view",
					"type": "function"
				},
				{
					"inputs": [
						{
							"internalType": "uint256",
							"name": "_tokenId",
							"type": "uint256"
						}
					],
					"name": "firstOwnerOf",
					"outputs": [
						{
							"internalType": "address",
							"name": "",
							"type": "address"
						}
					],
					"stateMutability": "view",
					"type": "function"
				},
				{
					"inputs": [],
					"name": "gamePhaseReporter",
					"outputs": [
						{
							"internalType": "contract IDefifaGamePhaseReporter",
							"name": "",
							"type": "address"
						}
					],
					"stateMutability": "view",
					"type": "function"
				},
				{
					"inputs": [],
					"name": "gamePotReporter",
					"outputs": [
						{
							"internalType": "contract IDefifaGamePotReporter",
							"name": "",
							"type": "address"
						}
					],
					"stateMutability": "view",
					"type": "function"
				},
				{
					"inputs": [
						{
							"internalType": "uint256",
							"name": "tokenId",
							"type": "uint256"
						}
					],
					"name": "getApproved",
					"outputs": [
						{
							"internalType": "address",
							"name": "",
							"type": "address"
						}
					],
					"stateMutability": "view",
					"type": "function"
				},
				{
					"inputs": [
						{
							"internalType": "address",
							"name": "_account",
							"type": "address"
						},
						{
							"internalType": "uint256",
							"name": "_tier",
							"type": "uint256"
						},
						{
							"internalType": "uint48",
							"name": "_timestamp",
							"type": "uint48"
						}
					],
					"name": "getPastTierAttestationUnitsOf",
					"outputs": [
						{
							"internalType": "uint256",
							"name": "",
							"type": "uint256"
						}
					],
					"stateMutability": "view",
					"type": "function"
				},
				{
					"inputs": [
						{
							"internalType": "uint256",
							"name": "_tier",
							"type": "uint256"
						},
						{
							"internalType": "uint48",
							"name": "_timestamp",
							"type": "uint48"
						}
					],
					"name": "getPastTierTotalAttestationUnitsOf",
					"outputs": [
						{
							"internalType": "uint256",
							"name": "",
							"type": "uint256"
						}
					],
					"stateMutability": "view",
					"type": "function"
				},
				{
					"inputs": [
						{
							"internalType": "address",
							"name": "_account",
							"type": "address"
						},
						{
							"internalType": "uint256",
							"name": "_tier",
							"type": "uint256"
						}
					],
					"name": "getTierAttestationUnitsOf",
					"outputs": [
						{
							"internalType": "uint256",
							"name": "",
							"type": "uint256"
						}
					],
					"stateMutability": "view",
					"type": "function"
				},
				{
					"inputs": [
						{
							"internalType": "address",
							"name": "_account",
							"type": "address"
						},
						{
							"internalType": "uint256",
							"name": "_tier",
							"type": "uint256"
						}
					],
					"name": "getTierDelegateOf",
					"outputs": [
						{
							"internalType": "address",
							"name": "",
							"type": "address"
						}
					],
					"stateMutability": "view",
					"type": "function"
				},
				{
					"inputs": [
						{
							"internalType": "uint256",
							"name": "_tier",
							"type": "uint256"
						}
					],
					"name": "getTierTotalAttestationUnitsOf",
					"outputs": [
						{
							"internalType": "uint256",
							"name": "",
							"type": "uint256"
						}
					],
					"stateMutability": "view",
					"type": "function"
				},
				{
					"inputs": [
						{
							"internalType": "uint256",
							"name": "",
							"type": "uint256"
						},
						{
							"components": [
								{
									"internalType": "uint48",
									"name": "cycleNumber",
									"type": "uint48"
								},
								{
									"internalType": "uint48",
									"name": "id",
									"type": "uint48"
								},
								{
									"internalType": "uint48",
									"name": "basedOnId",
									"type": "uint48"
								},
								{
									"internalType": "uint48",
									"name": "start",
									"type": "uint48"
								},
								{
									"internalType": "uint32",
									"name": "duration",
									"type": "uint32"
								},
								{
									"internalType": "uint112",
									"name": "weight",
									"type": "uint112"
								},
								{
									"internalType": "uint32",
									"name": "weightCutPercent",
									"type": "uint32"
								},
								{
									"internalType": "contract IJBRulesetApprovalHook",
									"name": "approvalHook",
									"type": "address"
								},
								{
									"internalType": "uint256",
									"name": "metadata",
									"type": "uint256"
								}
							],
							"internalType": "struct JBRuleset",
							"name": "",
							"type": "tuple"
						},
						{
							"internalType": "address",
							"name": "",
							"type": "address"
						}
					],
					"name": "hasMintPermissionFor",
					"outputs": [
						{
							"internalType": "bool",
							"name": "",
							"type": "bool"
						}
					],
					"stateMutability": "pure",
					"type": "function"
				},
				{
					"inputs": [
						{
							"internalType": "uint256",
							"name": "_gameId",
							"type": "uint256"
						},
						{
							"internalType": "string",
							"name": "_name",
							"type": "string"
						},
						{
							"internalType": "string",
							"name": "_symbol",
							"type": "string"
						},
						{
							"internalType": "contract IJBRulesets",
							"name": "_rulesets",
							"type": "address"
						},
						{
							"internalType": "string",
							"name": "_baseUri",
							"type": "string"
						},
						{
							"internalType": "contract IJB721TokenUriResolver",
							"name": "_tokenUriResolver",
							"type": "address"
						},
						{
							"internalType": "string",
							"name": "_contractUri",
							"type": "string"
						},
						{
							"components": [
								{
									"internalType": "uint104",
									"name": "price",
									"type": "uint104"
								},
								{
									"internalType": "uint32",
									"name": "initialSupply",
									"type": "uint32"
								},
								{
									"internalType": "uint32",
									"name": "votingUnits",
									"type": "uint32"
								},
								{
									"internalType": "uint16",
									"name": "reserveFrequency",
									"type": "uint16"
								},
								{
									"internalType": "address",
									"name": "reserveBeneficiary",
									"type": "address"
								},
								{
									"internalType": "bytes32",
									"name": "encodedIPFSUri",
									"type": "bytes32"
								},
								{
									"internalType": "uint24",
									"name": "category",
									"type": "uint24"
								},
								{
									"internalType": "uint8",
									"name": "discountPercent",
									"type": "uint8"
								},
								{
									"internalType": "bool",
									"name": "allowOwnerMint",
									"type": "bool"
								},
								{
									"internalType": "bool",
									"name": "useReserveBeneficiaryAsDefault",
									"type": "bool"
								},
								{
									"internalType": "bool",
									"name": "transfersPausable",
									"type": "bool"
								},
								{
									"internalType": "bool",
									"name": "useVotingUnits",
									"type": "bool"
								},
								{
									"internalType": "bool",
									"name": "cannotBeRemoved",
									"type": "bool"
								},
								{
									"internalType": "bool",
									"name": "cannotIncreaseDiscountPercent",
									"type": "bool"
								}
							],
							"internalType": "struct JB721TierConfig[]",
							"name": "_tiers",
							"type": "tuple[]"
						},
						{
							"internalType": "uint48",
							"name": "_currency",
							"type": "uint48"
						},
						{
							"internalType": "contract IJB721TiersHookStore",
							"name": "_store",
							"type": "address"
						},
						{
							"internalType": "contract IDefifaGamePhaseReporter",
							"name": "_gamePhaseReporter",
							"type": "address"
						},
						{
							"internalType": "contract IDefifaGamePotReporter",
							"name": "_gamePotReporter",
							"type": "address"
						},
						{
							"internalType": "address",
							"name": "_defaultAttestationDelegate",
							"type": "address"
						},
						{
							"internalType": "string[]",
							"name": "_tierNames",
							"type": "string[]"
						}
					],
					"name": "initialize",
					"outputs": [],
					"stateMutability": "nonpayable",
					"type": "function"
				},
				{
					"inputs": [
						{
							"internalType": "address",
							"name": "owner",
							"type": "address"
						},
						{
							"internalType": "address",
							"name": "operator",
							"type": "address"
						}
					],
					"name": "isApprovedForAll",
					"outputs": [
						{
							"internalType": "bool",
							"name": "",
							"type": "bool"
						}
					],
					"stateMutability": "view",
					"type": "function"
				},
				{
					"inputs": [
						{
							"components": [
								{
									"internalType": "uint32",
									"name": "tierId",
									"type": "uint32"
								},
								{
									"internalType": "uint16",
									"name": "count",
									"type": "uint16"
								}
							],
							"internalType": "struct JB721TiersMintReservesConfig[]",
							"name": "_mintReservesForTiersData",
							"type": "tuple[]"
						}
					],
					"name": "mintReservesFor",
					"outputs": [],
					"stateMutability": "nonpayable",
					"type": "function"
				},
				{
					"inputs": [
						{
							"internalType": "uint256",
							"name": "_tierId",
							"type": "uint256"
						},
						{
							"internalType": "uint256",
							"name": "_count",
							"type": "uint256"
						}
					],
					"name": "mintReservesFor",
					"outputs": [],
					"stateMutability": "nonpayable",
					"type": "function"
				},
				{
					"inputs": [],
					"name": "name",
					"outputs": [
						{
							"internalType": "string",
							"name": "",
							"type": "string"
						}
					],
					"stateMutability": "view",
					"type": "function"
				},
				{
					"inputs": [],
					"name": "owner",
					"outputs": [
						{
							"internalType": "address",
							"name": "",
							"type": "address"
						}
					],
					"stateMutability": "view",
					"type": "function"
				},
				{
					"inputs": [
						{
							"internalType": "uint256",
							"name": "tokenId",
							"type": "uint256"
						}
					],
					"name": "ownerOf",
					"outputs": [
						{
							"internalType": "address",
							"name": "",
							"type": "address"
						}
					],
					"stateMutability": "view",
					"type": "function"
				},
				{
					"inputs": [],
					"name": "pricingCurrency",
					"outputs": [
						{
							"internalType": "uint256",
							"name": "",
							"type": "uint256"
						}
					],
					"stateMutability": "view",
					"type": "function"
				},
				{
					"inputs": [],
					"name": "renounceOwnership",
					"outputs": [],
					"stateMutability": "nonpayable",
					"type": "function"
				},
				{
					"inputs": [],
					"name": "rulesets",
					"outputs": [
						{
							"internalType": "contract IJBRulesets",
							"name": "",
							"type": "address"
						}
					],
					"stateMutability": "view",
					"type": "function"
				},
				{
					"inputs": [
						{
							"internalType": "address",
							"name": "from",
							"type": "address"
						},
						{
							"internalType": "address",
							"name": "to",
							"type": "address"
						},
						{
							"internalType": "uint256",
							"name": "tokenId",
							"type": "uint256"
						}
					],
					"name": "safeTransferFrom",
					"outputs": [],
					"stateMutability": "nonpayable",
					"type": "function"
				},
				{
					"inputs": [
						{
							"internalType": "address",
							"name": "from",
							"type": "address"
						},
						{
							"internalType": "address",
							"name": "to",
							"type": "address"
						},
						{
							"internalType": "uint256",
							"name": "tokenId",
							"type": "uint256"
						},
						{
							"internalType": "bytes",
							"name": "data",
							"type": "bytes"
						}
					],
					"name": "safeTransferFrom",
					"outputs": [],
					"stateMutability": "nonpayable",
					"type": "function"
				},
				{
					"inputs": [
						{
							"internalType": "address",
							"name": "operator",
							"type": "address"
						},
						{
							"internalType": "bool",
							"name": "approved",
							"type": "bool"
						}
					],
					"name": "setApprovalForAll",
					"outputs": [],
					"stateMutability": "nonpayable",
					"type": "function"
				},
				{
					"inputs": [
						{
							"components": [
								{
									"internalType": "uint256",
									"name": "id",
									"type": "uint256"
								},
								{
									"internalType": "uint256",
									"name": "cashOutWeight",
									"type": "uint256"
								}
							],
							"internalType": "struct DefifaTierCashOutWeight[]",
							"name": "_tierWeights",
							"type": "tuple[]"
						}
					],
					"name": "setTierCashOutWeightsTo",
					"outputs": [],
					"stateMutability": "nonpayable",
					"type": "function"
				},
				{
					"inputs": [
						{
							"internalType": "address",
							"name": "_delegatee",
							"type": "address"
						},
						{
							"internalType": "uint256",
							"name": "_tierId",
							"type": "uint256"
						}
					],
					"name": "setTierDelegateTo",
					"outputs": [],
					"stateMutability": "nonpayable",
					"type": "function"
				},
				{
					"inputs": [
						{
							"components": [
								{
									"internalType": "address",
									"name": "delegatee",
									"type": "address"
								},
								{
									"internalType": "uint256",
									"name": "tierId",
									"type": "uint256"
								}
							],
							"internalType": "struct DefifaDelegation[]",
							"name": "_setTierDelegatesData",
							"type": "tuple[]"
						}
					],
					"name": "setTierDelegatesTo",
					"outputs": [],
					"stateMutability": "nonpayable",
					"type": "function"
				},
				{
					"inputs": [],
					"name": "store",
					"outputs": [
						{
							"internalType": "contract IJB721TiersHookStore",
							"name": "",
							"type": "address"
						}
					],
					"stateMutability": "view",
					"type": "function"
				},
				{
					"inputs": [
						{
							"internalType": "bytes4",
							"name": "_interfaceId",
							"type": "bytes4"
						}
					],
					"name": "supportsInterface",
					"outputs": [
						{
							"internalType": "bool",
							"name": "",
							"type": "bool"
						}
					],
					"stateMutability": "view",
					"type": "function"
				},
				{
					"inputs": [],
					"name": "symbol",
					"outputs": [
						{
							"internalType": "string",
							"name": "",
							"type": "string"
						}
					],
					"stateMutability": "view",
					"type": "function"
				},
				{
					"inputs": [],
					"name": "tierCashOutWeights",
					"outputs": [
						{
							"internalType": "uint256[128]",
							"name": "",
							"type": "uint256[128]"
						}
					],
					"stateMutability": "view",
					"type": "function"
				},
				{
					"inputs": [
						{
							"internalType": "uint256",
							"name": "_tierId",
							"type": "uint256"
						}
					],
					"name": "tierNameOf",
					"outputs": [
						{
							"internalType": "string",
							"name": "",
							"type": "string"
						}
					],
					"stateMutability": "view",
					"type": "function"
				},
				{
					"inputs": [],
					"name": "tokenAllocations",
					"outputs": [
						{
							"internalType": "uint256",
							"name": "defifaTokenAllocation",
							"type": "uint256"
						},
						{
							"internalType": "uint256",
							"name": "baseProtocolTokenAllocation",
							"type": "uint256"
						}
					],
					"stateMutability": "view",
					"type": "function"
				},
				{
					"inputs": [
						{
							"internalType": "uint256",
							"name": "_tokenId",
							"type": "uint256"
						}
					],
					"name": "tokenURI",
					"outputs": [
						{
							"internalType": "string",
							"name": "",
							"type": "string"
						}
					],
					"stateMutability": "view",
					"type": "function"
				},
				{
					"inputs": [
						{
							"internalType": "uint256[]",
							"name": "_tokenIds",
							"type": "uint256[]"
						}
					],
					"name": "tokensClaimableFor",
					"outputs": [
						{
							"internalType": "uint256",
							"name": "defifaTokenAmount",
							"type": "uint256"
						},
						{
							"internalType": "uint256",
							"name": "baseProtocolTokenAmount",
							"type": "uint256"
						}
					],
					"stateMutability": "view",
					"type": "function"
				},
				{
					"inputs": [
						{
							"internalType": "uint256",
							"name": "",
							"type": "uint256"
						}
					],
					"name": "tokensRedeemedFrom",
					"outputs": [
						{
							"internalType": "uint256",
							"name": "",
							"type": "uint256"
						}
					],
					"stateMutability": "view",
					"type": "function"
				},
				{
					"inputs": [
						{
							"components": [
								{
									"internalType": "address",
									"name": "terminal",
									"type": "address"
								},
								{
									"internalType": "address",
									"name": "holder",
									"type": "address"
								},
								{
									"internalType": "uint256",
									"name": "projectId",
									"type": "uint256"
								},
								{
									"internalType": "uint256",
									"name": "rulesetId",
									"type": "uint256"
								},
								{
									"internalType": "uint256",
									"name": "cashOutCount",
									"type": "uint256"
								},
								{
									"internalType": "uint256",
									"name": "totalSupply",
									"type": "uint256"
								},
								{
									"components": [
										{
											"internalType": "address",
											"name": "token",
											"type": "address"
										},
										{
											"internalType": "uint8",
											"name": "decimals",
											"type": "uint8"
										},
										{
											"internalType": "uint32",
											"name": "currency",
											"type": "uint32"
										},
										{
											"internalType": "uint256",
											"name": "value",
											"type": "uint256"
										}
									],
									"internalType": "struct JBTokenAmount",
									"name": "surplus",
									"type": "tuple"
								},
								{
									"internalType": "bool",
									"name": "useTotalSurplus",
									"type": "bool"
								},
								{
									"internalType": "uint256",
									"name": "cashOutTaxRate",
									"type": "uint256"
								},
								{
									"internalType": "bytes",
									"name": "metadata",
									"type": "bytes"
								}
							],
							"internalType": "struct JBBeforeCashOutRecordedContext",
							"name": "",
							"type": "tuple"
						}
					],
					"name": "totalCashOutWeight",
					"outputs": [
						{
							"internalType": "uint256",
							"name": "",
							"type": "uint256"
						}
					],
					"stateMutability": "view",
					"type": "function"
				},
				{
					"inputs": [
						{
							"internalType": "address",
							"name": "from",
							"type": "address"
						},
						{
							"internalType": "address",
							"name": "to",
							"type": "address"
						},
						{
							"internalType": "uint256",
							"name": "tokenId",
							"type": "uint256"
						}
					],
					"name": "transferFrom",
					"outputs": [],
					"stateMutability": "nonpayable",
					"type": "function"
				},
				{
					"inputs": [
						{
							"internalType": "address",
							"name": "newOwner",
							"type": "address"
						}
					],
					"name": "transferOwnership",
					"outputs": [],
					"stateMutability": "nonpayable",
					"type": "function"
				},
				{
					"anonymous": false,
					"inputs": [
						{
							"indexed": true,
							"internalType": "address",
							"name": "owner",
							"type": "address"
						},
						{
							"indexed": true,
							"internalType": "address",
							"name": "approved",
							"type": "address"
						},
						{
							"indexed": true,
							"internalType": "uint256",
							"name": "tokenId",
							"type": "uint256"
						}
					],
					"name": "Approval",
					"type": "event"
				},
				{
					"anonymous": false,
					"inputs": [
						{
							"indexed": true,
							"internalType": "address",
							"name": "owner",
							"type": "address"
						},
						{
							"indexed": true,
							"internalType": "address",
							"name": "operator",
							"type": "address"
						},
						{
							"indexed": false,
							"internalType": "bool",
							"name": "approved",
							"type": "bool"
						}
					],
					"name": "ApprovalForAll",
					"type": "event"
				},
				{
					"anonymous": false,
					"inputs": [
						{
							"indexed": true,
							"internalType": "address",
							"name": "beneficiary",
							"type": "address"
						},
						{
							"indexed": false,
							"internalType": "uint256",
							"name": "defifaTokenAmount",
							"type": "uint256"
						},
						{
							"indexed": false,
							"internalType": "uint256",
							"name": "baseProtocolTokenAmount",
							"type": "uint256"
						},
						{
							"indexed": false,
							"internalType": "address",
							"name": "caller",
							"type": "address"
						}
					],
					"name": "ClaimedTokens",
					"type": "event"
				},
				{
					"anonymous": false,
					"inputs": [
						{
							"indexed": true,
							"internalType": "address",
							"name": "delegator",
							"type": "address"
						},
						{
							"indexed": true,
							"internalType": "address",
							"name": "fromDelegate",
							"type": "address"
						},
						{
							"indexed": true,
							"internalType": "address",
							"name": "toDelegate",
							"type": "address"
						}
					],
					"name": "DelegateChanged",
					"type": "event"
				},
				{
					"anonymous": false,
					"inputs": [
						{
							"indexed": true,
							"internalType": "uint256",
							"name": "tokenId",
							"type": "uint256"
						},
						{
							"indexed": true,
							"internalType": "uint256",
							"name": "tierId",
							"type": "uint256"
						},
						{
							"indexed": true,
							"internalType": "address",
							"name": "beneficiary",
							"type": "address"
						},
						{
							"indexed": false,
							"internalType": "uint256",
							"name": "totalAmountContributed",
							"type": "uint256"
						},
						{
							"indexed": false,
							"internalType": "address",
							"name": "caller",
							"type": "address"
						}
					],
					"name": "Mint",
					"type": "event"
				},
				{
					"anonymous": false,
					"inputs": [
						{
							"indexed": true,
							"internalType": "uint256",
							"name": "tokenId",
							"type": "uint256"
						},
						{
							"indexed": true,
							"internalType": "uint256",
							"name": "tierId",
							"type": "uint256"
						},
						{
							"indexed": true,
							"internalType": "address",
							"name": "beneficiary",
							"type": "address"
						},
						{
							"indexed": false,
							"internalType": "address",
							"name": "caller",
							"type": "address"
						}
					],
					"name": "MintReservedToken",
					"type": "event"
				},
				{
					"anonymous": false,
					"inputs": [
						{
							"indexed": true,
							"internalType": "address",
							"name": "previousOwner",
							"type": "address"
						},
						{
							"indexed": true,
							"internalType": "address",
							"name": "newOwner",
							"type": "address"
						}
					],
					"name": "OwnershipTransferred",
					"type": "event"
				},
				{
					"anonymous": false,
					"inputs": [
						{
							"components": [
								{
									"internalType": "uint256",
									"name": "id",
									"type": "uint256"
								},
								{
									"internalType": "uint256",
									"name": "cashOutWeight",
									"type": "uint256"
								}
							],
							"indexed": false,
							"internalType": "struct DefifaTierCashOutWeight[]",
							"name": "_tierWeights",
							"type": "tuple[]"
						},
						{
							"indexed": false,
							"internalType": "address",
							"name": "caller",
							"type": "address"
						}
					],
					"name": "TierCashOutWeightsSet",
					"type": "event"
				},
				{
					"anonymous": false,
					"inputs": [
						{
							"indexed": true,
							"internalType": "address",
							"name": "delegate",
							"type": "address"
						},
						{
							"indexed": true,
							"internalType": "uint256",
							"name": "tierId",
							"type": "uint256"
						},
						{
							"indexed": false,
							"internalType": "uint256",
							"name": "previousBalance",
							"type": "uint256"
						},
						{
							"indexed": false,
							"internalType": "uint256",
							"name": "newBalance",
							"type": "uint256"
						},
						{
							"indexed": false,
							"internalType": "address",
							"name": "caller",
							"type": "address"
						}
					],
					"name": "TierDelegateAttestationsChanged",
					"type": "event"
				},
				{
					"anonymous": false,
					"inputs": [
						{
							"indexed": true,
							"internalType": "address",
							"name": "from",
							"type": "address"
						},
						{
							"indexed": true,
							"internalType": "address",
							"name": "to",
							"type": "address"
						},
						{
							"indexed": true,
							"internalType": "uint256",
							"name": "tokenId",
							"type": "uint256"
						}
					],
					"name": "Transfer",
					"type": "event"
				},
				{
					"inputs": [],
					"name": "BAD_TIER_ORDER",
					"type": "error"
				},
				{
					"inputs": [],
					"name": "CASHOUT_WEIGHTS_ALREADY_SET",
					"type": "error"
				},
				{
					"inputs": [],
					"name": "CheckpointUnorderedInsertion",
					"type": "error"
				},
				{
					"inputs": [],
					"name": "DELEGATE_ADDRESS_ZERO",
					"type": "error"
				},
				{
					"inputs": [],
					"name": "DELEGATE_CHANGES_UNAVAILABLE_IN_THIS_PHASE",
					"type": "error"
				},
				{
					"inputs": [
						{
							"internalType": "address",
							"name": "sender",
							"type": "address"
						},
						{
							"internalType": "uint256",
							"name": "tokenId",
							"type": "uint256"
						},
						{
							"internalType": "address",
							"name": "owner",
							"type": "address"
						}
					],
					"name": "ERC721IncorrectOwner",
					"type": "error"
				},
				{
					"inputs": [
						{
							"internalType": "address",
							"name": "operator",
							"type": "address"
						},
						{
							"internalType": "uint256",
							"name": "tokenId",
							"type": "uint256"
						}
					],
					"name": "ERC721InsufficientApproval",
					"type": "error"
				},
				{
					"inputs": [
						{
							"internalType": "address",
							"name": "approver",
							"type": "address"
						}
					],
					"name": "ERC721InvalidApprover",
					"type": "error"
				},
				{
					"inputs": [
						{
							"internalType": "address",
							"name": "operator",
							"type": "address"
						}
					],
					"name": "ERC721InvalidOperator",
					"type": "error"
				},
				{
					"inputs": [
						{
							"internalType": "address",
							"name": "owner",
							"type": "address"
						}
					],
					"name": "ERC721InvalidOwner",
					"type": "error"
				},
				{
					"inputs": [
						{
							"internalType": "address",
							"name": "receiver",
							"type": "address"
						}
					],
					"name": "ERC721InvalidReceiver",
					"type": "error"
				},
				{
					"inputs": [
						{
							"internalType": "address",
							"name": "sender",
							"type": "address"
						}
					],
					"name": "ERC721InvalidSender",
					"type": "error"
				},
				{
					"inputs": [
						{
							"internalType": "uint256",
							"name": "tokenId",
							"type": "uint256"
						}
					],
					"name": "ERC721NonexistentToken",
					"type": "error"
				},
				{
					"inputs": [],
					"name": "GAME_ISNT_SCORING_YET",
					"type": "error"
				},
				{
					"inputs": [],
					"name": "INVALID_CASHOUT_WEIGHTS",
					"type": "error"
				},
				{
					"inputs": [],
					"name": "INVALID_TIER_ID",
					"type": "error"
				},
				{
					"inputs": [],
					"name": "JB721Hook_InvalidCashOut",
					"type": "error"
				},
				{
					"inputs": [],
					"name": "JB721Hook_InvalidPay",
					"type": "error"
				},
				{
					"inputs": [
						{
							"internalType": "uint256",
							"name": "tokenId",
							"type": "uint256"
						},
						{
							"internalType": "address",
							"name": "holder",
							"type": "address"
						}
					],
					"name": "JB721Hook_UnauthorizedToken",
					"type": "error"
				},
				{
					"inputs": [],
					"name": "JB721Hook_UnexpectedTokenCashedOut",
					"type": "error"
				},
				{
					"inputs": [],
					"name": "NOTHING_TO_CLAIM",
					"type": "error"
				},
				{
					"inputs": [],
					"name": "NOTHING_TO_MINT",
					"type": "error"
				},
				{
					"inputs": [],
					"name": "NO_CONTEST",
					"type": "error"
				},
				{
					"inputs": [],
					"name": "OVERSPENDING",
					"type": "error"
				},
				{
					"inputs": [
						{
							"internalType": "address",
							"name": "owner",
							"type": "address"
						}
					],
					"name": "OwnableInvalidOwner",
					"type": "error"
				},
				{
					"inputs": [
						{
							"internalType": "address",
							"name": "account",
							"type": "address"
						}
					],
					"name": "OwnableUnauthorizedAccount",
					"type": "error"
				},
				{
					"inputs": [
						{
							"internalType": "uint256",
							"name": "x",
							"type": "uint256"
						},
						{
							"internalType": "uint256",
							"name": "y",
							"type": "uint256"
						},
						{
							"internalType": "uint256",
							"name": "denominator",
							"type": "uint256"
						}
					],
					"name": "PRBMath_MulDiv_Overflow",
					"type": "error"
				},
				{
					"inputs": [],
					"name": "RESERVED_TOKEN_MINTING_PAUSED",
					"type": "error"
				},
				{
					"inputs": [],
					"name": "TRANSFERS_PAUSED",
					"type": "error"
				},
				{
					"inputs": [
						{
							"internalType": "uint256",
							"name": "tokenId",
							"type": "uint256"
						},
						{
							"internalType": "address",
							"name": "owner",
							"type": "address"
						},
						{
							"internalType": "address",
							"name": "caller",
							"type": "address"
						}
					],
					"name": "UNAUTHORIZED",
					"type": "error"
				},
				{
					"inputs": [],
					"name": "WRONG_CURRENCY",
					"type": "error"
				}
			],
			"args": [],
			"solcInputHash": "bbd52d6f4feb6ee413754f9f8639fe9c",
			"receipt": {
				"type": "0x2",
				"status": "0x1",
				"cumulativeGasUsed": "0x574e3a",
				"logs": [
					{
						"address": "0xa2ea7657440875bf916cbfc0cfa88f13e38ad463",
						"topics": [
							"0x572f161235911da04685a68c06adf558fc7e4a36909dca394650e0adc19cc93d",
							"0x000000000000000000000000755ff2f75a0a586ecfa2b9a3c959cb662458a105",
							"0x000000000000000000000000f99fe00bf35369acadc62f2cf302c66fefbc7a11",
							"0x5f522e293e9192b6c9b4052b5752fabada0a8cec718ab4d06b7a7eb974a2308c"
						],
						"data": "0x0000000000000000000000000000000000000000000000000000000000000000",
						"blockHash": "0x5a9d5323a90bf5251826ee3b90d6a6ba4e6bebb05d1354428d45a32c80311b10",
						"blockNumber": "0x21395c4",
						"blockTimestamp": "0x68fe0734",
						"transactionHash": "0xa200d390927045dd700a8188490943b2e40136396af26185e8708ebd64cd8847",
						"transactionIndex": "0x1",
						"logIndex": "0x0",
						"removed": false
					},
					{
						"address": "0x9f8e41fdb2447fcebfffdc97387ac72b523e9fc3",
						"topics": [
							"0x8be0079c531659141344cd1fd0a4f28419497f9722a3daafe3b4186f6b6457e0",
							"0x0000000000000000000000000000000000000000000000000000000000000000",
							"0x0000000000000000000000004e59b44847b379578588920ca78fbf26c0b4956c"
						],
						"data": "0x",
						"blockHash": "0x5a9d5323a90bf5251826ee3b90d6a6ba4e6bebb05d1354428d45a32c80311b10",
						"blockNumber": "0x21395c4",
						"blockTimestamp": "0x68fe0734",
						"transactionHash": "0xa200d390927045dd700a8188490943b2e40136396af26185e8708ebd64cd8847",
						"transactionIndex": "0x1",
						"logIndex": "0x1",
						"removed": false
					},
					{
						"address": "0xe22e214f8646eafd1c89ece0eb1d553de96af4a9",
						"topics": [
							"0x6895c13664aa4f67288b25d7a21d7aaa34916e355fb9b6fae0a139a9085becb8",
							"0x000000000000000000000000f99fe00bf35369acadc62f2cf302c66fefbc7a11"
						],
						"data": "0x",
						"blockHash": "0x5a9d5323a90bf5251826ee3b90d6a6ba4e6bebb05d1354428d45a32c80311b10",
						"blockNumber": "0x21395c4",
						"blockTimestamp": "0x68fe0734",
						"transactionHash": "0xa200d390927045dd700a8188490943b2e40136396af26185e8708ebd64cd8847",
						"transactionIndex": "0x1",
						"logIndex": "0x2",
						"removed": false
					},
					{
						"address": "0xf99fe00bf35369acadc62f2cf302c66fefbc7a11",
						"topics": [
							"0xa65fb05c5808f5f389d72edeaf719ce38f4cc55c1f69ca3cbfb31c21501caa07",
							"0xf08f9ca7dcb710bbe0f088e7fa547a30ed0560e0de626166d34dde93c2b21941"
						],
						"data": "0x0000000000000000000000000000000000000000000000000000000000000001",
						"blockHash": "0x5a9d5323a90bf5251826ee3b90d6a6ba4e6bebb05d1354428d45a32c80311b10",
						"blockNumber": "0x21395c4",
						"blockTimestamp": "0x68fe0734",
						"transactionHash": "0xa200d390927045dd700a8188490943b2e40136396af26185e8708ebd64cd8847",
						"transactionIndex": "0x1",
						"logIndex": "0x3",
						"removed": false
					}
				],
				"logsBloom": "0x00000000000010000400000800080000000000800000000000800001000000000800000000000000000000000040000000000000000000000000000000000010000004000000200000000000000000010001000000000800000000000000000000000000020000000000000000000800000000000000000000000000000000400800000000000000000104000000000000000020001000480000000000000000004000040001000010000000000000002200400000000000000008000004000000000002000000000000000000000000000000000000000000000000000020000000000020000000000000000000000280020000000880000000000000000000",
				"transactionHash": "0xa200d390927045dd700a8188490943b2e40136396af26185e8708ebd64cd8847",
				"transactionIndex": "0x1",
				"blockHash": "0x5a9d5323a90bf5251826ee3b90d6a6ba4e6bebb05d1354428d45a32c80311b10",
				"blockNumber": "0x21395c4",
				"gasUsed": "0x569a1e",
				"effectiveGasPrice": "0x24a02c",
				"from": "0x755ff2f75a0a586ecfa2b9a3c959cb662458a105",
				"to": "0xa2ea7657440875bf916cbfc0cfa88f13e38ad463",
				"contractAddress": null
			},
			"bytecode": "0x610120346200016457601f620060e438819003918201601f19168301916001600160401b038311848410176200016857808492606094604052833981010312620001645780516001600160a01b0390818116810362000164576200007460406200006c602086016200017c565b94016200017c565b906080523060a05233156200014c5760078054336001600160a01b03198216811790925560405193167f8be0079c531659141344cd1fd0a4f28419497f9722a3daafe3b4186f6b6457e05f80a36101009230845260c05260e052615f529182620001928339608051828181610ae90152818161180a0152612047015260a051828181611d1701526124f0015260c051828181610d8e01528181613ca40152615640015260e051828181610b6d01528181613cf201526155dd015251818181610c6a0152818161266401528181613920015261474d0152f35b604051631e4fbdf760e01b81525f6004820152602490fd5b5f80fd5b634e487b7160e01b5f52604160045260245ffd5b51906001600160a01b0382168203620001645756fe60806040526004361015610011575f80fd5b5f3560e01c806301ffc9a7146103c457806306fdde03146103bf57806307405b24146103ba578063081812fc146103b5578063095ea7b3146103b05780630fa617c0146103ab5780631337f986146103a65780631417f9f6146103a15780631baabc3e1461039c5780631d153ca4146103975780631da1da721461039257806323b872dd1461038d57806327f6e9791461038857806329eabfe7146103835780633b2b8a781461037e57806342842e0e14610379578063453135a41461037457806354c6d1f51461036f57806356539f391461036a57806359196c7d1461036557806361d4c25a146103605780636352211e1461035b57806364640c1e1461035657806369f72970146103515780636c0360eb1461034c57806370a0823114610347578063715018a6146103425780637245d80c1461033d578063743682b5146103385780637f98988714610333578063859252e21461032e578063873e7e4b1461032957806388bc2ef3146103245780638cc358461461031f5780638da5cb5b1461031a57806392eb16411461031557806395d89b4114610310578063975057e71461030b57806399f6d77f146103065780639c8c6cd514610301578063a0b6490c146102fc578063a22cb465146102f7578063aa4fb15b146102f2578063b88d4fde146102ed578063c22903b2146102e8578063c3c69a96146102e3578063c87b56dd146102de578063c90f5126146102d9578063c9149c5f146102d4578063caa00cf9146102cf578063cb7043f7146102ca578063d3fef143146102c5578063e4f650b8146102c0578063e8a3d485146102bb578063e985e9c5146102b6578063edab09b9146102b1578063f2fde38b146102ac578063f7623b81146102a75763fb82b1b0146102a2575f80fd5b612645565b612574565b61251f565b6124db565b612484565b6123fb565b612379565b612357565b61231f565b6122c2565b61229a565b6121e7565b6120f7565b6120a5565b611cf1565b611c8a565b611c6b565b611bc4565b611b9c565b611b54565b611aaa565b611a56565b6119cb565b6119a1565b611979565b6118cd565b6117f5565b6117d3565b6116a0565b611678565b61164e565b6115ee565b6115a6565b61154c565b6114c3565b611435565b6113b8565b61139a565b611351565b611295565b611278565b611248565b611159565b610dbd565b610d79565b610d53565b610d36565b610d1f565b610cd2565b610c55565b610b9c565b610b58565b610a76565b61099a565b61077a565b61073e565b61064a565b610551565b6103df565b6001600160e01b03198116036103db57565b5f80fd5b346103db5760203660031901126103db5761042c6004356103ff816103c9565b63ffffffff60e01b166231a68960e61b8114908115610430575b5060405190151581529081906020820190565b0390f35b633344b87360e01b8114915081156104dc575b81156104cb575b81156104ba575b81156104a9575b8115610466575b505f610419565b6380ac58cd60e01b811491508115610498575b8115610487575b505f61045f565b6301ffc9a760e01b1490505f610480565b635b5e139f60e01b81149150610479565b63152a902d60e11b81149150610458565b63611481d960e11b81149150610451565b63099bfcc360e11b8114915061044a565b63eeb73e8960e01b81149150610443565b5f9103126103db57565b5f5b8381106105085750505f910152565b81810151838201526020016104f9565b90602091610531815180928185528580860191016104f7565b601f01601f1916010190565b90602061054e928181520190610518565b90565b346103db575f3660031901126103db576040515f905f546105718161148b565b8083526020916001908181169081156105e457506001146105a9575b61042c8461059d818803826108d4565b6040519182918261053d565b5f808052838120939550925b8284106105d1575050508161042c9361059d928201019361058d565b80548585018701529285019281016105b5565b60ff1916858501525050151560051b820101915061059d8161042c61058d565b6001600160a01b031690565b6001600160a01b038116036103db57565b610184359061062f82610610565b565b610144359061062f82610610565b359061062f82610610565b346103db5760403660031901126103db5760043561066781610610565b6106a3602061067f61067a609054610604565b610604565b60065490604051808095819463038ab08560e11b8352600483019190602083019252565b03915afa8015610717576001915f916106e8575b506106c18161291d565b036106d6576106d490602435903361453c565b005b60405163f331f3c160e01b8152600490fd5b61070a915060203d602011610710575b61070281836108d4565b8101906128fa565b5f6106b7565b503d6106f8565b612912565b908160209103126103db573590565b6001600160a01b03909116815260200190565b346103db5760203660031901126103db5760043561075b81614604565b505f526004602052602060018060a01b0360405f205416604051908152f35b346103db5760403660031901126103db5760043561079781610610565b602435906107a482614604565b33151580610843575b8061081b575b6107fc576106d4926107f79181906001600160a01b0385811691167f8c5be1e5ebec7d5bd14f71427d1e84f3dd0314c0f7b2291e5b200ac8c7c3b9255f80a4611640565b61329f565b60405163a9fbf51f60e01b815280610817336004830161072b565b0390fd5b5060018060a01b0381165f52600560205260ff61083b3360405f20613c2f565b5416156107b3565b506001600160a01b0381163314156107ad565b634e487b7160e01b5f52604160045260245ffd5b604081019081106001600160401b0382111761088557604052565b610856565b6001600160401b03811161088557604052565b602081019081106001600160401b0382111761088557604052565b61100081019081106001600160401b0382111761088557604052565b601f909101601f19168101906001600160401b0382119082101761088557604052565b604051906101c082016001600160401b0381118382101761088557604052565b60405190606082016001600160401b0381118382101761088557604052565b6040519061012082016001600160401b0381118382101761088557604052565b604051906101e082016001600160401b0381118382101761088557604052565b6040519061062f8261086a565b6001600160401b0381116108855760051b60200190565b346103db576020806003193601126103db57600435906001600160401b0382116103db57366023830112156103db578160040135916109d883610983565b916040936109e960405194856108d4565b8084526024602085019160061b840101923684116103db57602401905b838210610a16576106d48561293b565b85823603126103db578286918251610a2d8161086a565b843581528285013583820152815201910190610a06565b600319906020818301126103db57600435916001600160401b0383116103db5782610200920301126103db5760040190565b610a7f36610a44565b600654341590811591610ac3575b8115610ab4575b50610aa2576106d490614729565b604051633fb648ad60e11b8152600490fd5b9050602082013514155f610a94565b604051636e49181f60e01b815290915060208180610ae5338660048401612fd9565b03817f00000000000000000000000000000000000000000000000000000000000000006001600160a01b03165afa908115610717575f91610b29575b501590610a8d565b610b4b915060203d602011610b51575b610b4381836108d4565b810190612fc4565b5f610b21565b503d610b39565b346103db575f3660031901126103db576040517f00000000000000000000000000000000000000000000000000000000000000006001600160a01b03168152602090f35b346103db576020806003193601126103db576004355f52608c815260405f2090604051905f928054610bcd8161148b565b80855291600191808316908115610c335750600114610bf7575b61042c8561059d818903826108d4565b5f908152838120939550925b828410610c20575050508161042c9361059d92820101935f610be7565b8054858501870152928501928101610c03565b60ff191686860152505050151560051b820101915061059d8161042c5f610be7565b346103db575f3660031901126103db576040517f00000000000000000000000000000000000000000000000000000000000000006001600160a01b03168152602090f35b90816101a09103126103db5790565b60206003198201126103db57600435906001600160401b0382116103db5761054e91600401610c99565b346103db57610ce036610ca8565b506020604051670de0b6b3a76400008152f35b60609060031901126103db57600435610d0b81610610565b90602435610d1881610610565b9060443590565b346103db576106d4610d3036610cf3565b91612ff2565b346103db575f3660031901126103db576020609754604051908152f35b346103db5760203660031901126103db576020610d716004356130b2565b604051908152f35b346103db575f3660031901126103db576040517f00000000000000000000000000000000000000000000000000000000000000006001600160a01b03168152602090f35b346103db576106d4610dce36610cf3565b9060405192610ddc8461089d565b5f8452614133565b6001600160401b03811161088557601f01601f191660200190565b929192610e0b82610de4565b91610e1960405193846108d4565b8294818452818301116103db578281602093845f960137010152565b9080601f830112156103db5781602061054e93359101610dff565b6064359061062f82610610565b60a4359061062f82610610565b6001600160681b038116036103db57565b359061062f82610e6a565b63ffffffff8116036103db57565b60a4359061062f82610e86565b60e4359061062f82610e86565b359061062f82610e86565b61ffff8116036103db57565b359061062f82610eb9565b62ffffff8116036103db57565b359061062f82610ed0565b60ff8116036103db57565b359061062f82610ee8565b801515036103db57565b359061062f82610efe565b81601f820112156103db578035906020610f2c83610983565b936040610f3c60405196876108d4565b84865282860191836101c0809702860101948186116103db578401925b858410610f6a575050505050505090565b86848303126103db57848791610f7e6108f7565b610f8787610e7b565b8152610f94838801610eae565b83820152610fa3868801610eae565b868201526060610fb4818901610ec5565b908201526080610fc581890161063f565b9082015260a0808801359082015260c0610fe0818901610edd565b9082015260e0610ff1818901610ef3565b90820152610100611003818901610f08565b90820152610120611015818901610f08565b90820152610140611027818901610f08565b90820152610160611039818901610f08565b9082015261018061104b818901610f08565b908201526101a061105d818901610f08565b90820152815201930192610f59565b65ffffffffffff8116036103db57565b610104359061062f8261106c565b6024359061062f8261106c565b6044359061062f8261106c565b6064359061062f8261106c565b6084359061062f8261106c565b610124359061062f82610610565b610164359061062f82610610565b81601f820112156103db578035916020916110f484610983565b9361110260405195866108d4565b808552838086019160051b830101928084116103db57848301915b84831061112d5750505050505090565b82356001600160401b0381116103db57869161114e84848094890101610e35565b81520192019161111d565b346103db576101c03660031901126103db576001600160401b0360046024358281116103db5761118c9036908301610e35565b6044358381116103db576111a39036908401610e35565b6111ab610e50565b6084358581116103db576111c29036908601610e35565b6111ca610e5d565b60c4358781116103db576111e19036908801610e35565b60e4358881116103db576111f89036908901610f13565b9061120161107c565b9261120a6110be565b94611213610631565b9661121c6110cc565b98611225610621565b9a6101a4359d8e116103db576112418d6106d49f3691016110da565b9c35613908565b346103db5760203660031901126103db576020611266600435613b74565b6040516001600160a01b039091168152f35b346103db575f3660031901126103db576020600654604051908152f35b346103db576020806003193601126103db57600435906001600160401b03908183116103db57366023840112156103db5782600401359182116103db5760249260063660248560061b840101116103db575f5b8481106112f157005b80821b83019060408060231984360301126103db5760019263ffffffff61ffff8861134b94516113208161086a565b60448d8601359561133087610e86565b868352013591829161134183610eb9565b0152169116613e52565b016112e8565b346103db5760403660031901126103db5760206024356113708161106c565b6004355f908152608a8352604090206001600160d01b039161139191614fb9565b16604051908152f35b346103db5760203660031901126103db576020611266600435614604565b346103db575f3660031901126103db576020609254604051908152f35b9080601f830112156103db5760209082356113ef81610983565b936113fd60405195866108d4565b81855260208086019260051b8201019283116103db57602001905b828210611426575050505090565b81358152908301908301611418565b346103db5760403660031901126103db576001600160401b036004358181116103db576114669036906004016113d5565b906024359081116103db57602091611485610d71923690600401610c99565b50613ba6565b90600182811c921680156114b9575b60208310146114a557565b634e487b7160e01b5f52602260045260245ffd5b91607f169161149a565b346103db575f3660031901126103db576040515f906094546114e48161148b565b8083526020916001908181169081156105e4575060011461150f5761042c8461059d818803826108d4565b91935060945f52835f20915f925b828410611539575050508161042c9361059d928201019361058d565b805485850187015292850192810161151d565b346103db5760203660031901126103db5760043561156981610610565b6001600160a01b0316801561158e575f526003602052602060405f2054604051908152f35b6040516322718ad960e21b81525f6004820152602490fd5b346103db575f3660031901126103db576115be61463e565b600780546001600160a01b031981169091555f906001600160a01b03165f80516020615ebd8339815191528280a3005b346103db575f3660031901126103db576091546040516001600160a01b039091168152602090f35b5f52600260205260405f2090565b5f52608b60205260405f2090565b5f52608a60205260405f2090565b5f52600460205260405f2090565b346103db5760203660031901126103db576004355f526098602052602060405f2054604051908152f35b346103db575f3660031901126103db576096546040516001600160a01b039091168152602090f35b346103db5760203660031901126103db576004356116c261067a608e54610604565b6040516364faa15960e01b8152915f83806116e1843060048401612eb8565b0381855afa9081156107175761173b935f926117ac575b5060209061171e6040611712606086015163ffffffff1690565b94015163ffffffff1690565b9360405180809781946302b7e6ef60e41b83523060048401613079565b03915afa9182156107175761176661176d9361042c955f9161177d575b5063ffffffff809316612f58565b911661306c565b6040519081529081906020820190565b61179f915060203d6020116117a5575b61179781836108d4565b810190612c2a565b5f611758565b503d61178d565b60209192506117cc903d805f833e6117c481836108d4565b810190612d80565b91906116f8565b346103db575f3660031901126103db576020604051670de0b6b3a76400008152f35b346103db575f3660031901126103db576040517f00000000000000000000000000000000000000000000000000000000000000006001600160a01b03168152602090f35b90604090604083019083526020604081850152845180925260608085018260608560051b8801019701945f925b85841061187857505050505050505090565b90919293949596989785806118b96001938d605f1990820301885285878d51878060a01b038151168452858101518685015201519181898201520190610518565b9a9b99019796959190910193019190611866565b346103db5760206003196020813601126103db57600435906001600160401b0382116103db576101809082360301126103db576040519161190d8361086a565b600183525f5b818110611963576101248361042c8661192a61328d565b611932610917565b308152905f6020830152604082015261194a82612ccb565b5261195481612ccb565b50604051938493013583611839565b819061196d613c44565b82828701015201611913565b346103db575f3660031901126103db576007546040516001600160a01b039091168152602090f35b346103db575f3660031901126103db576119b9613c73565b60408051928352602083019190915290f35b346103db575f3660031901126103db576040515f9060018054906119ee8261148b565b908184526020926001811690815f146105e45750600114611a195761042c8461059d818803826108d4565b91935060015f52835f20915f925b828410611a43575050508161042c9361059d928201019361058d565b8054858501870152928501928101611a27565b346103db575f3660031901126103db57608e546040516001600160a01b039091168152602090f35b6001600160701b038116036103db57565b60c4359061062f82611a7e565b610104359061062f82610610565b346103db576101603660031901126103db576101203660231901126103db57611ad1610936565b611ad961108a565b8152611ae3611097565b6020820152611af06110a4565b6040820152611afd6110b1565b6060820152611b0a610e94565b6080820152611b17611a8f565b60a0820152611b24610ea1565b60c0820152611b31611a9c565b60e082015261010061012435910152611b48610631565b506040515f8152602090f35b346103db5760403660031901126103db576020600435611b7381610610565b60018060a01b038091165f526088825260405f206024355f52825260405f205416604051908152f35b346103db575f3660031901126103db576090546040516001600160a01b039091168152602090f35b346103db5760403660031901126103db57600435611be181610610565b602435611bed81610efe565b6001600160a01b038216918215611c5257611c1390335f52600560205260405f20613c2f565b9015159060ff1981541660ff83161790556040519081527f17307eab39ab6107e8899845ad3d59bd9653f200f220920489ca2b5937696c3160203392a3005b604051630b61174360e31b815260048101849052602490fd5b346103db5760403660031901126103db576106d4602435600435613e52565b346103db5760803660031901126103db57600435611ca781610610565b602435611cb381610610565b606435916001600160401b0383116103db57366023840112156103db57611ce76106d4933690602481600401359101610dff565b9160443591614133565b611cfa36610a44565b341580159061201e575b801561200e575b611ffc57611d86611d687f0000000000000000000000000000000000000000000000000000000000000000611d3e61422b565b805160209091012060609190911b6001600160601b03199081169116186001600160e01b03191690565b611d80611d796101e085018561424e565b3691610dff565b9061539d565b90156103db57611da1815191602080809483010191016137d7565b90815191611db361067a609054610604565b916006549260409082604051809263038ab08560e11b82528180611de160049a600483019190602083019252565b03915afa8015610717576004915f91611fdf575b50611dff8161291d565b14935f5b868110611eb0578786611e158761551e565b611e2e611e266101c084018461424e565b81019061071c565b915f91611e76575b60e00135159081611e6d575b50611e5b57611e566106d491608d5461306c565b608d55565b604051637691472960e01b8152600490fd5b90501582611e42565b9050611e90611e8b60e0830135609754612f58565b609755565b60e0611ea8611e9e83614280565b84608d54916155c5565b919050611e36565b611eba8186612cdd565b5190611ed5611ec883611616565b546001600160a01b031690565b611ee161067a8b614280565b6001600160a01b0390911603611f8f578487611efc84615504565b611f0c575b506001915001611e03565b611f3d92611f1e61067a608e54610604565b86516342f9914b60e01b81528681019283529485928391829160200190565b03915afa91821561071757600192611f65915f91611f72575b505f52609860205260405f2090565b8054600101905584611f01565b611f899150873d89116117a55761179781836108d4565b5f611f56565b50916108179088611fab611fa5611ec887611616565b91614280565b9151631048fd9360e11b81529384019485526001600160a01b03908116602086015216604084015290918291606090910190565b611ff69150843d86116107105761070281836108d4565b5f611df5565b6040516394310b3d60e01b8152600490fd5b5060065460208201351415611d0b565b50612043602060065460405180938192636e49181f60e01b8352339060048401612fd9565b03817f00000000000000000000000000000000000000000000000000000000000000006001600160a01b03165afa908115610717575f91612086575b5015611d04565b61209f915060203d602011610b5157610b4381836108d4565b5f61207f565b346103db5760403660031901126103db576004356120c281610610565b6001600160a01b03165f908152608960209081526040808320602435845282529091206001600160d01b0390611391906157cc565b346103db5760203660031901126103db5761211661067a608e54610604565b60206040518092630fab094760e01b82528180612136306004830161072b565b03915afa908115610717575f916121b8575b505f6040518092635e703e7160e01b8252818061216b6004353060048401613079565b03916001600160a01b03165afa80156107175761042c915f91612196575b506040519182918261053d565b6121b291503d805f833e6121aa81836108d4565b81019061428a565b5f612189565b6121da915060203d6020116121e0575b6121d281836108d4565b810190613e14565b5f612148565b503d6121c8565b346103db576020806003193601126103db57600435906001600160401b0382116103db57366023830112156103db5781600401359161222583610983565b9160409361223660405194856108d4565b8084526024602085019160061b840101923684116103db57602401905b838210612263576106d4856142c7565b85823603126103db57828691825161227a8161086a565b843561228581610610565b81528285013583820152815201910190612253565b346103db575f3660031901126103db57608f546040516001600160a01b039091168152602090f35b346103db5760603660031901126103db5760206004356122e181610610565b604435906122ee8261106c565b6001600160a01b03165f9081526089835260408082206024358352845290206001600160d01b039161139191614fb9565b346103db5760203660031901126103db576004356001600160401b0381116103db576123526119b99136906004016113d5565b6143af565b346103db575f3660031901126103db57602060ff609354166040519015158152f35b346103db575f3660031901126103db57604051612395816108b8565b611000809136903760405160085f825b608082106123e5575050506123b9816108b8565b604051905f90825b608083106123ce57505050f35b6001908251815260208091019201920191906123c1565b60016020819285548152019301910190916123a5565b346103db575f3660031901126103db576040515f9060955461241c8161148b565b8083526020916001908181169081156105e457506001146124475761042c8461059d818803826108d4565b91935060955f52835f20915f925b828410612471575050508161042c9361059d928201019361058d565b8054858501870152928501928101612455565b346103db5760403660031901126103db57602060ff6124cf6004356124a881610610565b602435906124b582610610565b6001600160a01b03165f9081526005855260409020613c2f565b54166040519015158152f35b346103db575f3660031901126103db576040517f00000000000000000000000000000000000000000000000000000000000000006001600160a01b03168152602090f35b346103db5760203660031901126103db5760043561253c81610610565b61254461463e565b6001600160a01b0381161561255c576106d490614f84565b604051631e4fbdf760e01b81525f6004820152602490fd5b346103db5760203660031901126103db576004355f52608a602052602060018060d01b0361139160405f206157cc565b929160808401918452602090818501526040926040850152606060806060860152855180935260a085018260a08560051b8801019701945f925b8584106125f057505050505050505090565b90919293949596989785806126316001938d609f1990820301885285878d51878060a01b038151168452858101518685015201519181898201520190610518565b9a9b990197969591909101930191906125de565b346103db5761265336610ca8565b60808101356128e85761269c61268b7f0000000000000000000000000000000000000000000000000000000000000000611d3e61422b565b611d80611d7961018085018561424e565b6060916128ce575b506126b361067a609054610604565b9060409182519163038ab08560e11b8352602092838160049481806126e38a8c0135600483019190602083019252565b03915afa908115610717575f916128b1575b508151925f935f9161270b61067a608e54610604565b905b82841061281e57898961042c8a8a8a8a612725614501565b93865161274b8161273d878583019190602083019252565b03601f1981018352826108d4565b5f612754610917565b308152928301528782015261276885612ccb565b5261277284612ccb565b5061277c8161291d565b60018114908115612809575b81156127f4575b81156127e0575b50156127b55750925b51938493610160610120830135920135856125a4565b6127da91506127d46127ce609754610120890135612f58565b91613ba6565b906157f4565b9261279f565b600591506127ed8161291d565b1487612796565b90506127ff8161291d565b600681149061278f565b90506128148161291d565b6002811490612788565b9091929561284b905f6128318989612cdd565b518b518094819263c44a8e6d60e01b835230888401612eb8565b0381875afa9081156107175761288761287b8b61288d946001965f91612897575b5001516001600160681b031690565b6001600160681b031690565b90612f58565b960192919061270d565b6128ab91503d805f833e6117c481836108d4565b5f61286c565b6128c89150843d86116107105761070281836108d4565b5f6126f5565b6128e29150602080825183010191016137d7565b5f6126a4565b60405163096afe5960e41b8152600490fd5b908160209103126103db575160078110156103db5790565b6040513d5f823e3d90fd5b6007111561292757565b634e487b7160e01b5f52602160045260245ffd5b61294361463e565b61295161067a609054610604565b6006546040805163038ab08560e11b81526004808201939093529092602091908290829060249082905afa908115610717575f91612c0d575b506129948161291d565b60038103612bfd5760935460ff16612bed576129af8161291d565b60068114908115612bd9575b50612bca57608e6129d061067a608e54610604565b91808551809463f1bea54f60e01b825281806129ee308a830161072b565b03915afa928315610717575f93612bab575b5090915f91865191612a10612c39565b505f945b838610612a875750505050670de0b6b3a7640000915011612a7957507f9a6cf4ff8f1a3ee73be4815b44949c83dbc2e76a386eaf652b2a454bac9d241291612a7491612a68600160ff196093541617609355565b51918291339083612f65565b0390a1565b90516351ae01e360e11b8152fd5b90919293612ac55f612a9c61067a8554610604565b612aa6898d612cdd565b5151908a8c518095819482936364faa15960e01b845230908401612eb8565b03915afa908115610717575f91612b91575b50612af4612aec61010083015162ffffff1690565b62ffffff1690565b612b81578363ffffffff612b0c835163ffffffff1690565b1611612b8157600191612b61612b7592612b49612b44612b3f8f612b318e8d92612cdd565b510151935163ffffffff1690565b612eed565b612f1d565b90919082549060031b91821b915f19901b1916179055565b85612b6c898d612cdd565b51015190612f58565b95019493929190612a14565b885163148e14dd60e21b81528890fd5b612ba591503d805f833e6117c481836108d4565b5f612ad7565b81612bc39294503d85116117a55761179781836108d4565b915f612a00565b509051636fb8407560e01b8152fd5b60059150612be68161291d565b145f6129bb565b8351633bfa282760e21b81528390fd5b83516301e7228160e11b81528390fd5b612c249150823d84116107105761070281836108d4565b5f61298a565b908160209103126103db575190565b604051906101e082016001600160401b038111838210176108855760405260606101c0835f81525f60208201525f60408201525f838201525f60808201525f60a08201525f60c08201525f60e08201525f6101008201525f6101208201525f6101408201525f6101608201525f6101808201525f6101a08201520152565b634e487b7160e01b5f52603260045260245ffd5b805115612cd85760200190565b612cb7565b8051821015612cd85760209160051b010190565b519061062f82610e86565b519061062f82610e6a565b519061062f82610eb9565b519061062f82610610565b519061062f82610ed0565b519061062f82610ee8565b519061062f82610efe565b81601f820112156103db578051612d5481610de4565b92612d6260405194856108d4565b818452602082840101116103db5761054e91602080850191016104f7565b6020818303126103db5780516001600160401b03918282116103db57016101e0818403126103db57612db0610956565b92612dba82612cf1565b8452612dc860208301612cfc565b6020850152612dd960408301612cf1565b6040850152612dea60608301612cf1565b6060850152612dfb60808301612cfc565b6080850152612e0c60a08301612d07565b60a0850152612e1d60c08301612d12565b60c085015260e082015160e0850152610100612e3a818401612d1d565b90850152610120612e4c818401612d28565b90850152610140612e5e818401612d33565b90850152610160612e70818401612d33565b90850152610180612e82818401612d33565b908501526101a0612e94818401612d33565b908501526101c092838301519081116103db57612eb19201612d3e565b9082015290565b6001600160a01b03909116815260208101919091525f604082015260600190565b634e487b7160e01b5f52601160045260245ffd5b63ffffffff9081165f190191908211612f0257565b612ed9565b63ffffffff9182169082160391908211612f0257565b6080811015612cd857600801905f90565b9060018201809211612f0257565b9060048201809211612f0257565b9060098201809211612f0257565b91908201809211612f0257565b909291926040906040830160408452815180915260608401916020809101935f905b838210612fa45750505050602091509360018060a01b0316910152565b855180518652830151858401529482019493840193600190910190612f87565b908160209103126103db575161054e81610efe565b9081526001600160a01b03909116602082015260400190565b91906001600160a01b039081811615613046576130128291843391614e27565b931692169082820361302357505050565b60649350604051926364283d7b60e01b8452600484015260248301526044820152fd5b604051633250574960e11b81525f6004820152602490fd5b5f19810191908211612f0257565b91908203918211612f0257565b6001600160a01b039091168152602081019190915260400190565b811561309e570490565b634e487b7160e01b5f52601260045260245ffd5b6130e8906130c461067a608e54610604565b90604051906342f9914b60e01b825281806020958693600483019190602083019252565b0381855afa908115610717575f91613270575b506040516364faa15960e01b8152905f828061311b843060048401612eb8565b0381865afa918215610717575f92613254575b5061314861313e612b448361305e565b90549060031b1c90565b92831561324b578460405180926302b7e6ef60e41b8252818061316f873060048401613079565b03915afa948515610717575f9561322c575b505060608201916040613198845163ffffffff1690565b9101926131ce6131c1876131bc6131b3885163ffffffff1690565b63ffffffff1690565b612f58565b63ffffffff80941661306c565b156132225761054e9561321561320661321c966132006131f5611766965163ffffffff1690565b915163ffffffff1690565b90612f07565b945f52609860205260405f2090565b549061306c565b90613094565b5050505050505f90565b613243929550803d106117a55761179781836108d4565b925f80613181565b50505050505f90565b6132699192503d805f833e6117c481836108d4565b905f61312e565b6132879150833d85116117a55761179781836108d4565b5f6130fb565b6040519061329a8261089d565b5f8252565b80546001600160a01b0319166001600160a01b03909216919091179055565b601f81116132ca575050565b5f805260205f20906020601f840160051c83019310613303575b601f0160051c01905b8181106132f8575050565b5f81556001016132ed565b90915081906132e4565b601f8111613319575050565b60945f5260205f20906020601f840160051c83019310613353575b601f0160051c01905b818110613348575050565b5f815560010161333d565b9091508190613334565b601f8111613369575050565b60955f5260205f20906020601f840160051c830193106133a3575b601f0160051c01905b818110613398575050565b5f815560010161338d565b9091508190613384565b90601f82116133ba575050565b60019160015f5260205f20906020601f840160051c830193106133f7575b601f0160051c01905b8181106133ed57505050565b5f815582016133e1565b90915081906133d8565b601f821161340e57505050565b5f5260205f20906020601f840160051c83019310613446575b601f0160051c01905b81811061343b575050565b5f8155600101613430565b9091508190613427565b8160011b915f199060031b1c19161790565b80519091906001600160401b038111610885576134898161348460945461148b565b61330d565b602080601f83116001146134bd575081906134ad93945f926134b2575b5050613450565b609455565b015190505f806134a6565b60945f52601f198316949091907f7047a3cc0a76edcee45792ca71527c753f6167484f14b94c4a3bd2997516725c925f905b87821061352657505083600195961061350e575b505050811b01609455565b01515f1960f88460031b161c191690555f8080613503565b806001859682949686015181550195019301906134ef565b80519091906001600160401b038111610885576135658161356060955461148b565b61335d565b602080601f831160011461358d5750819061358893945f926134b2575050613450565b609555565b60955f52601f198316949091907f947035e97d0f7e1937f791bc189f60c984ceaaa7a8494fc67f9f8f4de8ccf2c6925f905b8782106135f65750508360019596106135de575b505050811b01609555565b01515f1960f88460031b161c191690555f80806135d3565b806001859682949686015181550195019301906135bf565b80519091906001600160401b0381116108855760019061363781613632845461148b565b6133ad565b602080601f831160011461365f5750819061365b9394955f926134b2575050613450565b9055565b60015f52601f198316959091907fb10e2d527612073b26eecdfd717e6a320cf44b4afac2b0732d9fcbe2b7fa0cf6925f905b8882106136c657505083859697106136ae575b505050811b019055565b01515f1960f88460031b161c191690555f80806136a4565b808785968294968601518155019501930190613691565b81519192916001600160401b03811161088557613704816136fe845461148b565b84613401565b602080601f83116001146137285750819061365b9394955f926134b2575050613450565b90601f1983169561373c855f5260205f2090565b925f905b88821061375e575050836001959697106136ae57505050811b019055565b80600185968294968601518155019501930190613740565b9080601f830112156103db5781519060209161379181610983565b9361379f60405195866108d4565b81855260208086019260051b8201019283116103db57602001905b8282106137c8575050505090565b815181529083019083016137ba565b906020828203126103db5781516001600160401b0381116103db5761054e9201613776565b60208082019080835283518092528060408094019401925f905b83821061382557505050505090565b9091929394836101c06001926138fb895161384883825160018060681b03169052565b8085015163ffffffff16838601528087015163ffffffff168388015260608181015161ffff16908401526080818101516001600160a01b03169084015260a0818101519084015260c08082015162ffffff169084015260e08181015160ff169084015261010081810151151590840152610120818101511515908401526101408181015115159084015261016081810151151590840152610180818101511515908401526101a090810151151590830152565b0196019493920190613816565b9b94989a92919396999097959760018060a01b039c8d7f00000000000000000000000000000000000000000000000000000000000000001630146103db578d61395561067a608e54610604565b166103db57613a31976139c58e6139a36139ed97613981613a0f9b6139cb9865ffffffffffff98614e98565b608f80546001600160a01b0319166001600160a01b0392909216919091179055565b608e80546001600160a01b0319166001600160a01b0392909216919091179055565b16609255565b609080546001600160a01b0319166001600160a01b0392909216919091179055565b609180546001600160a01b0319166001600160a01b0392909216919091179055565b609680546001600160a01b0319166001600160a01b0392909216919091179055565b8051613b65575b508051613b56575b50838116613aee575b505f91613a6d9183604051958680958194631f1d05ad60e01b8352600483016137fc565b0393165af1801561071757613acc575b508051905f5b828110613a965750505061062f33614f84565b80613ac6613aa660019385612cdd565b51613ac1613ab384612f2e565b5f52608c60205260405f2090565b6136dd565b01613a83565b613ae7903d805f833e613adf81836108d4565b8101906137d7565b505f613a7d565b91838116803b156103db5760405163036129cb60e61b8152935f918591829084908290613b1e906004830161072b565b03925af1918215610717575f93613a6d93613b3d575b50915091613a49565b80613b4a613b509261088a565b806104ed565b5f613b34565b613b5f9061353e565b5f613a40565b613b6e90613462565b5f613a38565b5f908152608b60205260409020546001600160a01b0390811680613ba15750600260205260405f20541690565b905090565b905f9180515f915b818310613bba57505050565b909193613bd0613bca8684612cdd565b516130b2565b8101809111612f0257936001019190613bae565b6001600160a01b03165f90815260886020526040902090565b6001600160a01b03165f90815260896020526040902090565b6001600160a01b03165f90815260036020526040902090565b9060018060a01b03165f5260205260405f2090565b60405190606082016001600160401b038111838210176108855760405260606040835f81525f60208201520152565b6040516370a0823160e01b80825291906020906001600160a01b0390828180613c9f306004830161072b565b0381857f0000000000000000000000000000000000000000000000000000000000000000165afa80156107175783915f91613d3c575b509460405192839182528180613cee306004830161072b565b03917f0000000000000000000000000000000000000000000000000000000000000000165afa918215610717575f92613d2657505090565b61054e9250803d106117a55761179781836108d4565b613d539150823d84116117a55761179781836108d4565b5f613cd5565b519061062f8261106c565b519061062f82611a7e565b90816101209103126103db57613d83610936565b90613d8d81613d59565b8252613d9b60208201613d59565b6020830152613dac60408201613d59565b6040830152613dbd60608201613d59565b6060830152613dce60808201612cf1565b6080830152613ddf60a08201613d64565b60a0830152613df060c08201612cf1565b60c0830152613e0160e08201612d12565b60e0830152610100809101519082015290565b908160209103126103db575161054e81610610565b908160051b9180830460201490151715612f0257565b81810292918115918404141715612f0257565b919091613e6361067a608f54610604565b600654604080516321d1336160e11b81526004810192909252929161012091908290829060249082905afa91821561071757613ebd92613eb292610100925f92614106575b5050015160f21c90565b60018091811c161490565b6140f557613ecf61067a608e54610604565b9160208151809462d5cc0160e21b82528180613eef873060048401613079565b03915afa928315610717575f936140d4575b506001600160a01b039081613f29611ec885613f1c88613be4565b905f5260205260405f2090565b16156140a5575b613f3e61067a608e54610604565b8151635d53f40760e11b8152600481018590526024810188905296905f908890604490829084905af1968715610717575f97614089575b50613f8461067a608e54610604565b915f815180946364faa15960e01b82528180613fa48a3060048401612eb8565b03915afa928315610717575f9361406d575b50602083015188516001600160681b039591613fe491611e5691613fdc91908916613e3f565b608d54612f58565b5f5b838110614018575050505060800151939461062f9461401292906001600160681b031691519116613e3f565b916150a5565b806140256001928c612cdd565b51614030818b61503a565b888551917f031e1988c95a91ec4d655ff63a8f87a80bc9daf28d95ae10ee08c0022cfb5c8b868d169380614064338261072b565b0390a401613fe6565b6140829193503d805f833e6117c481836108d4565b915f613fb6565b61409e9197503d805f833e613adf81836108d4565b955f613f75565b6140b0609654610604565b83818416156140c9576140c4915b8661453c565b613f30565b6140c49150856140be565b6140ee91935060203d6020116121e0576121d281836108d4565b915f613f01565b8151631d2c125760e31b8152600490fd5b6141259250803d1061412c575b61411d81836108d4565b810190613d6f565b5f80613ea8565b503d614113565b91929092614142818585612ff2565b833b61414f575b50505050565b614174916020916040519384928392630a85bd0160e11b97888552336004860161531c565b03815f6001600160a01b0388165af15f91816141fa575b506141c4578261419961534d565b80519190826141bd57604051633250574960e11b815280610817846004830161072b565b9050602001fd5b6001600160e01b031916036141dd57505f808080614149565b604051633250574960e11b8152908190610817906004830161072b565b61421d91925060203d602011614224575b61421581836108d4565b810190615307565b905f61418b565b503d61420b565b604051906142388261086a565b600782526618d85cda13dd5d60ca1b6020830152565b903590601e19813603018212156103db57018035906001600160401b0382116103db576020019181360383136103db57565b3561054e81610610565b906020828203126103db5781516001600160401b0381116103db5761054e9201612d3e565b604051906142bc8261086a565b5f6020838281520152565b6142d561067a609054610604565b6006546040805163038ab08560e11b8152600480820193909352939290916020918290869060249082905afa948515610717575f9561438e575b506143198561291d565b60018095036106d65783519361432d6142af565b505f5b8581106143405750505050505050565b61434a8183612cdd565b5161435861067a8251610604565b1561437e5790614378828661436e8b9551610604565b910151903361453c565b01614330565b85516314f4c13d60e21b81528490fd5b6143a891955060203d6020116107105761070281836108d4565b935f61430f565b906143be61067a609054610604565b91600654926040805163038ab08560e11b8152602081819481806143ec60049b600483019190602083019252565b03915afa8015610717576004915f916144e2575b5061440a8161291d565b0361446b579082949251915f955f9461442761067a608e54610604565b915b858710614476575050505050505061443f613c73565b92608d5491821561446b57816144658461446061054e969561446095613e3f565b613094565b95613e3f565b50505090505f905f90565b909192939495976144a6905f61448c8b85612cdd565b5187518094819263c44a8e6d60e01b835230898401612eb8565b0381885afa9081156107175761288761287b896144d5946001965f91612897575001516001600160681b031690565b9801959493929190614429565b6144fb915060203d6020116107105761070281836108d4565b5f614400565b6040519061450e8261086a565b60018252815f5b602090818110156145375760209161452b613c44565b90828501015201614515565b505050565b6001600160a01b039081165f8181526088602090815260408083208784528252909120805491959294929391821691869161457890859061329f565b80841683877f3134e8a2e6d97e929a7e54011ea5485d7d196dd5f0ba4d4ef95803e8e3fc257f5f80a4608e5416946064604051809781936305c9a1d560e31b835230600484015260248301528760448301525afa9384156107175761062f955f956145e5575b505061588e565b6145fc929550803d106117a55761179781836108d4565b925f806145de565b5f818152600260205260409020546001600160a01b0316908115614626575090565b60249060405190637e27328960e01b82526004820152fd5b6007546001600160a01b0316330361465257565b60405163118cdaa760e01b8152336004820152602490fd5b3561054e81610e86565b604051906146818261086a565b600382526270617960e81b6020830152565b91906040838203126103db5782516146aa81610610565b60208085015191949091906001600160401b0382116103db57019180601f840112156103db5782516146db81610983565b936146e960405195866108d4565b818552838086019260051b8201019283116103db578301905b828210614710575050505090565b838091835161471e81610eb9565b815201910190614702565b9061473660a0830161466a565b63ffffffff609254911603614a27576147856147747f0000000000000000000000000000000000000000000000000000000000000000611d3e614674565b611d80611d796101e086018661424e565b9015614a22578060208061479e93518301019101614693565b6001600160a01b03918216939184156149f7575b8151156149e5575f805f918451975f5b898110614804575050505050506147ec92935060c06147e46101a08401614280565b920135615a2b565b6147f257565b604051631b57826960e21b8152600490fd5b898861482561481e614816858c612cdd565b5161ffff1690565b61ffff1690565b8503614933575b90614846611ec886613f1c6148418b96614280565b613be4565b88808616918b83159485158096614928575b61486c575b505050505050506001016147c2565b879a96979161487b8b9261305e565b83109283614902575b5050505f146148ad575050505060019161489d91612f58565b935b9050845f8088818b8f61485d565b6148d49550836148f5575b5050506148dd575b83614012876148ce8c614280565b93612f58565b60015f9361489f565b6148f084846148eb8c614280565b61453c565b6148c0565b16141590505f88816148b8565b61ffff92935061491e9161491861481692612f2e565b90612cdd565b1614888d8b614884565b508383161515614858565b505093509061494861481e6148168689612cdd565b106149d35761495d61481e6148168588612cdd565b9061496c61067a608e54610604565b935f60405180966364faa15960e01b8252818061498d883060048401612eb8565b03915afa948515610717578a614846611ec886613f1c6149c761287b8f976148419d6080915f91612897575001516001600160681b031690565b9a50505050509061482c565b604051639fda363d60e01b8152600490fd5b604051633d04bd1f60e01b8152600490fd5b9350614a04609654610604565b80851615614a13575b936147b2565b50614a1d82614280565b614a0d565b509050565b6040516301e73e1760e61b8152600490fd5b919091614a4a61067a608e54610604565b905f604051809363c44a8e6d60e01b82528180614a6b893060048401612eb8565b03915afa918215610717575f92614c39575b50614a888482615b2e565b936001600160a01b038086161591908215614b55575b5050614aae61067a608e54610604565b835163ffffffff1690803b156103db576040516330b157e560e21b815263ffffffff9290921660048301526001600160a01b038781166024840152841660448301525f908290606490829084905af1801561071757614b42575b50614b3e579061062f9163ffffffff614b25835163ffffffff1690565b608093909301516001600160681b031692169085615245565b5050565b80613b4a614b4f9261088a565b5f614b08565b610160850151614b88575b5085614b7161067a611ec884611624565b614a9e576107f7614b8192611624565b5f85614a9e565b614bc290614b9a61067a608f54610604565b60065460405180926321d1336160e11b82528180610120978895600483019190602083019252565b03915afa928315610717575f93614c1a575b5050841615159081614bfe575b50614bec575f614b60565b6040516318cdaf9760e01b8152600490fd5b6101000151614c14915060f21c60018091161490565b5f614be1565b614c31929350803d1061412c5761411d81836108d4565b905f80614bd4565b614c4e9192503d805f833e6117c481836108d4565b905f614a7d565b90614c6461067a608e54610604565b5f604051809263c44a8e6d60e01b82528180614c84883060048401612eb8565b03915afa908115610717575f91614e0d575b50614ca083615bbc565b926001600160a01b03841615908115614d66575b50614cc361067a608e54610604565b825163ffffffff1690803b156103db576040516330b157e560e21b815263ffffffff9290921660048301526001600160a01b03861660248301525f60448301819052908290606490829084905af1801561071757614d53575b50614d50578063ffffffff614d3861062f935163ffffffff1690565b608092909201516001600160681b0316911684615171565b50565b80613b4a614d609261088a565b5f614d1c565b610160830151614da0575b84614d8161067a611ec884611624565b15614d8d575b50614cb4565b6107f7614d9992611624565b5f84614d87565b614dd9614db161067a608f54610604565b60065460405180926321d1336160e11b82528180610120968795600483019190602083019252565b03915afa801561071757614def575b5050614d71565b81614e0592903d1061412c5761411d81836108d4565b505f80614de8565b614e2191503d805f833e6117c481836108d4565b5f614c96565b92919092614e3961067a608e54610604565b915f604051809463c44a8e6d60e01b82528180614e5a8a3060048401612eb8565b03915afa928315610717575f93614e78575b50614a88908583615c33565b614a88919350614e91903d805f833e6117c481836108d4565b9290614e6c565b815191939290916001600160401b03811161088557614ec081614ebb5f5461148b565b6132be565b602080601f8311600114614ef7575081614ef29392614eeb9261062f97985f926134b2575050613450565b5f5561360e565b600655565b5f8052601f198316969091907f290decd9548b62a8d60345a988386fc84ba6bc95484008f6362f93160ef3e563925f905b898210614f6c575050918391600193614ef2969561062f999a10614f54575b505050811b015f5561360e565b01515f1960f88460031b161c191690555f8080614f47565b80600185968294968601518155019501930190614f28565b600780546001600160a01b039283166001600160a01b0319821681179092559091165f80516020615ebd8339815191525f80a3565b8054915f5b838110614fed57505081614fd25750505f90565b614fde61054e9261305e565b905f5260205f20015460301c90565b90928082169080831860011c8201809211612f0257835f5265ffffffffffff808360205f20015416908616105f146150285750925b90614fbe565b93915061503490612f2e565b90615022565b6001600160a01b0391818316156130465761505491614a39565b1661505b57565b6040516339e3563760e11b81525f6004820152602490fd5b6001600160d01b039182169082160191908211612f0257565b6001600160d01b039182169082160391908211612f0257565b9061062f9291815f52608a6020526150bf60405f206157cc565b6150c883611632565b4265ffffffffffff16916001600160d01b038616916150f290846150ec8585615073565b91615dd3565b506001600160a01b0393905084841615615155575b5050505f8381527f046491916a0278bc7eb038aba60c896854c99d791b5a890a9ff3ed75cc95e12a602052604090205481169161514390613be4565b835f5260205260405f2054169061588e565b6150ec61516b9361516588611632565b9361508c565b5f615107565b61062f9291906001600160a01b039061519b908281161580801561523d575b6151c6575b50613be4565b825f5260205260405f2054166151c0611ec883613f1c5f8052608860205260405f2090565b9061588e565b61521190855f52608a6020526151de60405f206157cc565b90615217575b6152016151f087611632565b916001600160d01b0389169061508c565b9065ffffffffffff421690615dd3565b50615195565b61523661522387611632565b6152016001600160d01b038a1684615073565b50506151e4565b506001615190565b906151c0611ec884613f1c615282611ec883613f1c61062f9b9a9960018060a01b038c81831615918280156152fd575b615288575b505050613be4565b94613be4565b855f52608a60205261529c60405f206157cc565b926152d7575b8c16156152b0575b8161527a565b6152016152d0926152c087611632565b926001600160d01b03169061508c565b508c6152aa565b6152f66152e387611632565b6152016001600160d01b03851686615073565b50506152a2565b50808d1615615275565b908160209103126103db575161054e816103c9565b6001600160a01b03918216815291166020820152604081019190915260806060820181905261054e92910190610518565b3d15615377573d9061535e82610de4565b9161536c60405193846108d4565b82523d5f602084013e565b606090565b805160241015612cd85760440190565b908151811015612cd8570160200190565b905f906060926025825111156154f6576153d96153d36153cd6153bf8561537c565b516001600160f81b03191690565b60f81c90565b60ff1690565b9060209360205b6154056153f86153bf6153f284612f3c565b8861538c565b6001600160f81b03191690565b1515806154e5575b156154dc5761542d6153d36153cd6153bf61542785612f3c565b8961538c565b8186018701516001600160e01b031985811691161461544f57506005016153e0565b95509291505061548c945061546c61546683612f4a565b91613e29565b118015906154bd575b156154915750615486815192613e29565b90615d2b565b600191565b6154b76154b26153d36153cd6153bf6154ac61548696612f4a565b8761538c565b613e29565b92613e29565b506154d66153f86153bf6154d084612f4a565b8561538c565b15615475565b50959350505050565b506154ef84613e29565b811061540d565b505050505f9061054e61328d565b6001600160a01b0361551582614c55565b16156146265750565b608e546001600160a01b0316803b156103db5760405180926386bc2be360e01b8252602482016020906020600485015282518091526020604485019301915f5b82811061558d575050505091815f81819503925af18015610717576155805750565b80613b4a61062f9261088a565b83518552879550938101939281019260010161555e565b90815260208101919091526001600160a01b03909116604082015260600190565b6040516370a0823160e01b8082526001600160a01b037f000000000000000000000000000000000000000000000000000000000000000081169560209592949093909290868180615619306004830161072b565b03818b5afa908115610717576144608361563c9388935f916157b5575b50613e3f565b93827f00000000000000000000000000000000000000000000000000000000000000001695604051908152878180615677306004830161072b565b03818a5afa9283156107175761569793614460925f916157985750613e3f565b918215968715958661574b575b5084151596876156df575b50506156d35f80516020615e9d8339815191529360405193849316953391846155a4565b0390a291613ba1575090565b909381604051809663a9059cbb60e01b8252815f816157028c8a60048401613079565b03925af1918215610717575f80516020615e9d833981519152956156d39361572d575b5050936156af565b8161574392903d10610b5157610b4381836108d4565b505f80615725565b87604051809263a9059cbb60e01b8252815f8161576c8b8a60048401613079565b03925af1801561071757156156a45761579190883d8a11610b5157610b4381836108d4565b505f6156a4565b6157af91508a3d8c116117a55761179781836108d4565b5f615636565b6157af91508b3d8d116117a55761179781836108d4565b8054806157d95750505f90565b5f19918183810111612f02575f5260205f2001015460301c90565b9091905f198382098382029182808310920391808303921461587d57670de0b6b3a7640000908183101561585a57947faccb18165bd6fe31ae1cf318dc5b51eee0e1ba569b88cd74c1773b91fac1066994950990828211900360ee1b910360121c170290565b6064918660405192630c740aef60e31b8452600484015260248301526044820152fd5b5050670de0b6b3a764000090049150565b91926001600160a01b0380831693919291908116808514801561598a575b61598257859181615935575b505050826158c65750505050565b5f80516020615efd833981519152916159158261520161590188613f1c6158fb6158f683613f1c6159299b613bfd565b6157cc565b94613bfd565b6001600160d01b0394909290851690615073565b6040519384939092339282169116846155a4565b0390a35f808080614149565b6159778161591561596186613f1c6158fb6158f683613f1c5f80516020615efd8339815191529a613bfd565b6001600160d01b0392615201908a85169061508c565b0390a3835f806158b8565b505050505050565b5083156158ac565b61599b90611640565b80546001600160a01b0319169055565b91906040838203126103db5782516001600160401b0381116103db576020916159d5918501613776565b92015190565b929190606084019084526020906060602086015282518091526020608086019301915f5b828110615a13575050505060405f91930152565b835161ffff16855293810193928101926001016159ff565b929192615a3c61067a608e54610604565b916040905f604051809563eaa19ab360e01b8252818381615a61878a600484016159db565b03925af18015610717575f945f91615b06575b5095845194615a88611e5686608d54612f58565b5f5b868110615a9a5750505050505050565b80615aa760019284612cdd565b51615ab2818661503a565b61ffff615ac26148168489612cdd565b168751917f598baf7bf150ca2f42be9e9f8f55e81d45f5715c3ff22bf46d697fabec7f31d6858060a01b0388169380615afd8d339083612fd9565b0390a401615a8a565b9050615b259194503d805f833e615b1d81836108d4565b8101906159ab565b9390935f615a74565b5f828152600260205260409020546001600160a01b03908116929190615b669084615b90575b82169182615b7b575b6107f784611616565b825f80516020615edd8339815191525f80a490565b615b8481613c16565b60018154019055615b5d565b615b9984611640565b80546001600160a01b0319169055615bb085613c16565b80545f19019055615b54565b5f818152600260205260409020546001600160a01b03169081615c07575b615be381611616565b80546001600160a01b03191690555f825f80516020615edd8339815191528280a490565b615c1081611640565b80546001600160a01b0319169055615c2782613c16565b80545f19019055615bda565b5f828152600260205260409020546001600160a01b03908116938082168015159081615c89575b505050615b669084615c775782169182615b7b576107f784611616565b615c8084615992565b615bb085613c16565b81615cd8575b5015615c9c578080615c5a565b839085615cbc57604051637e27328960e01b815260048101839052602490fd5b61081760405192839263177e802f60e01b845260048401613079565b86811491508115615d0a575b8115615cf2575b505f615c8f565b9050845f5260046020528260405f205416145f615ceb565b9050855f52600560205260ff615d238360405f20613c2f565b541690615ce4565b929181810391604051946020936020818801016040528652015f5b828110615d535750505050565b8181018401518682018501528301615d46565b9065ffffffffffff82549181199060301b169116179055565b908154600160401b8110156108855760018101808455811015612cd85761062f925f5260205f20019065ffffffffffff81511665ffffffffffff19835416178255602060018060d01b039101511690615d66565b80549293928015615e7257615dea615df59161305e565b825f5260205f200190565b9182549265ffffffffffff91828516928116808411615e6057879303615e275750615e209250615d66565b60301c9190565b915050615e5b91615e47615e39610976565b65ffffffffffff9093168352565b6001600160d01b0386166020830152615d7f565b615e20565b604051632520601d60e01b8152600490fd5b5090615e9791615e83615e39610976565b6001600160d01b0385166020830152615d7f565b5f919056fea183a623ac9e87a7002f8ccdd81b014fd2212a1a62a3059e097db62cb2df52c98be0079c531659141344cd1fd0a4f28419497f9722a3daafe3b4186f6b6457e0ddf252ad1be2c89b69c2b068fc378daa952ba7f163c4a11628f55a4df523b3ef26abcd0483bf852c577c9beff4daa5920a203234050413150a0aa946fb598bfaa264697066735822122044865371cdc2b25c790dde604ca00a4f1709a9921278fb82d384113de48819ab64736f6c63430008170033",
			"deployedBytecode": "0x60806040526004361015610011575f80fd5b5f3560e01c806301ffc9a7146103c457806306fdde03146103bf57806307405b24146103ba578063081812fc146103b5578063095ea7b3146103b05780630fa617c0146103ab5780631337f986146103a65780631417f9f6146103a15780631baabc3e1461039c5780631d153ca4146103975780631da1da721461039257806323b872dd1461038d57806327f6e9791461038857806329eabfe7146103835780633b2b8a781461037e57806342842e0e14610379578063453135a41461037457806354c6d1f51461036f57806356539f391461036a57806359196c7d1461036557806361d4c25a146103605780636352211e1461035b57806364640c1e1461035657806369f72970146103515780636c0360eb1461034c57806370a0823114610347578063715018a6146103425780637245d80c1461033d578063743682b5146103385780637f98988714610333578063859252e21461032e578063873e7e4b1461032957806388bc2ef3146103245780638cc358461461031f5780638da5cb5b1461031a57806392eb16411461031557806395d89b4114610310578063975057e71461030b57806399f6d77f146103065780639c8c6cd514610301578063a0b6490c146102fc578063a22cb465146102f7578063aa4fb15b146102f2578063b88d4fde146102ed578063c22903b2146102e8578063c3c69a96146102e3578063c87b56dd146102de578063c90f5126146102d9578063c9149c5f146102d4578063caa00cf9146102cf578063cb7043f7146102ca578063d3fef143146102c5578063e4f650b8146102c0578063e8a3d485146102bb578063e985e9c5146102b6578063edab09b9146102b1578063f2fde38b146102ac578063f7623b81146102a75763fb82b1b0146102a2575f80fd5b612645565b612574565b61251f565b6124db565b612484565b6123fb565b612379565b612357565b61231f565b6122c2565b61229a565b6121e7565b6120f7565b6120a5565b611cf1565b611c8a565b611c6b565b611bc4565b611b9c565b611b54565b611aaa565b611a56565b6119cb565b6119a1565b611979565b6118cd565b6117f5565b6117d3565b6116a0565b611678565b61164e565b6115ee565b6115a6565b61154c565b6114c3565b611435565b6113b8565b61139a565b611351565b611295565b611278565b611248565b611159565b610dbd565b610d79565b610d53565b610d36565b610d1f565b610cd2565b610c55565b610b9c565b610b58565b610a76565b61099a565b61077a565b61073e565b61064a565b610551565b6103df565b6001600160e01b03198116036103db57565b5f80fd5b346103db5760203660031901126103db5761042c6004356103ff816103c9565b63ffffffff60e01b166231a68960e61b8114908115610430575b5060405190151581529081906020820190565b0390f35b633344b87360e01b8114915081156104dc575b81156104cb575b81156104ba575b81156104a9575b8115610466575b505f610419565b6380ac58cd60e01b811491508115610498575b8115610487575b505f61045f565b6301ffc9a760e01b1490505f610480565b635b5e139f60e01b81149150610479565b63152a902d60e11b81149150610458565b63611481d960e11b81149150610451565b63099bfcc360e11b8114915061044a565b63eeb73e8960e01b81149150610443565b5f9103126103db57565b5f5b8381106105085750505f910152565b81810151838201526020016104f9565b90602091610531815180928185528580860191016104f7565b601f01601f1916010190565b90602061054e928181520190610518565b90565b346103db575f3660031901126103db576040515f905f546105718161148b565b8083526020916001908181169081156105e457506001146105a9575b61042c8461059d818803826108d4565b6040519182918261053d565b5f808052838120939550925b8284106105d1575050508161042c9361059d928201019361058d565b80548585018701529285019281016105b5565b60ff1916858501525050151560051b820101915061059d8161042c61058d565b6001600160a01b031690565b6001600160a01b038116036103db57565b610184359061062f82610610565b565b610144359061062f82610610565b359061062f82610610565b346103db5760403660031901126103db5760043561066781610610565b6106a3602061067f61067a609054610604565b610604565b60065490604051808095819463038ab08560e11b8352600483019190602083019252565b03915afa8015610717576001915f916106e8575b506106c18161291d565b036106d6576106d490602435903361453c565b005b60405163f331f3c160e01b8152600490fd5b61070a915060203d602011610710575b61070281836108d4565b8101906128fa565b5f6106b7565b503d6106f8565b612912565b908160209103126103db573590565b6001600160a01b03909116815260200190565b346103db5760203660031901126103db5760043561075b81614604565b505f526004602052602060018060a01b0360405f205416604051908152f35b346103db5760403660031901126103db5760043561079781610610565b602435906107a482614604565b33151580610843575b8061081b575b6107fc576106d4926107f79181906001600160a01b0385811691167f8c5be1e5ebec7d5bd14f71427d1e84f3dd0314c0f7b2291e5b200ac8c7c3b9255f80a4611640565b61329f565b60405163a9fbf51f60e01b815280610817336004830161072b565b0390fd5b5060018060a01b0381165f52600560205260ff61083b3360405f20613c2f565b5416156107b3565b506001600160a01b0381163314156107ad565b634e487b7160e01b5f52604160045260245ffd5b604081019081106001600160401b0382111761088557604052565b610856565b6001600160401b03811161088557604052565b602081019081106001600160401b0382111761088557604052565b61100081019081106001600160401b0382111761088557604052565b601f909101601f19168101906001600160401b0382119082101761088557604052565b604051906101c082016001600160401b0381118382101761088557604052565b60405190606082016001600160401b0381118382101761088557604052565b6040519061012082016001600160401b0381118382101761088557604052565b604051906101e082016001600160401b0381118382101761088557604052565b6040519061062f8261086a565b6001600160401b0381116108855760051b60200190565b346103db576020806003193601126103db57600435906001600160401b0382116103db57366023830112156103db578160040135916109d883610983565b916040936109e960405194856108d4565b8084526024602085019160061b840101923684116103db57602401905b838210610a16576106d48561293b565b85823603126103db578286918251610a2d8161086a565b843581528285013583820152815201910190610a06565b600319906020818301126103db57600435916001600160401b0383116103db5782610200920301126103db5760040190565b610a7f36610a44565b600654341590811591610ac3575b8115610ab4575b50610aa2576106d490614729565b604051633fb648ad60e11b8152600490fd5b9050602082013514155f610a94565b604051636e49181f60e01b815290915060208180610ae5338660048401612fd9565b03817f0000000000000000000000000061e516886a0540f63157f112c0588ee0651dcf6001600160a01b03165afa908115610717575f91610b29575b501590610a8d565b610b4b915060203d602011610b51575b610b4381836108d4565b810190612fc4565b5f610b21565b503d610b39565b346103db575f3660031901126103db576040517f00000000000000000000000058204a8849bf6a625d56021adfd12ce4a4a3af136001600160a01b03168152602090f35b346103db576020806003193601126103db576004355f52608c815260405f2090604051905f928054610bcd8161148b565b80855291600191808316908115610c335750600114610bf7575b61042c8561059d818903826108d4565b5f908152838120939550925b828410610c20575050508161042c9361059d92820101935f610be7565b8054858501870152928501928101610c03565b60ff191686860152505050151560051b820101915061059d8161042c5f610be7565b346103db575f3660031901126103db576040517f0000000000000000000000009f8e41fdb2447fcebfffdc97387ac72b523e9fc36001600160a01b03168152602090f35b90816101a09103126103db5790565b60206003198201126103db57600435906001600160401b0382116103db5761054e91600401610c99565b346103db57610ce036610ca8565b506020604051670de0b6b3a76400008152f35b60609060031901126103db57600435610d0b81610610565b90602435610d1881610610565b9060443590565b346103db576106d4610d3036610cf3565b91612ff2565b346103db575f3660031901126103db576020609754604051908152f35b346103db5760203660031901126103db576020610d716004356130b2565b604051908152f35b346103db575f3660031901126103db576040517f0000000000000000000000001bf077855a17b4dd12eb3ade29d94cff27fe56d06001600160a01b03168152602090f35b346103db576106d4610dce36610cf3565b9060405192610ddc8461089d565b5f8452614133565b6001600160401b03811161088557601f01601f191660200190565b929192610e0b82610de4565b91610e1960405193846108d4565b8294818452818301116103db578281602093845f960137010152565b9080601f830112156103db5781602061054e93359101610dff565b6064359061062f82610610565b60a4359061062f82610610565b6001600160681b038116036103db57565b359061062f82610e6a565b63ffffffff8116036103db57565b60a4359061062f82610e86565b60e4359061062f82610e86565b359061062f82610e86565b61ffff8116036103db57565b359061062f82610eb9565b62ffffff8116036103db57565b359061062f82610ed0565b60ff8116036103db57565b359061062f82610ee8565b801515036103db57565b359061062f82610efe565b81601f820112156103db578035906020610f2c83610983565b936040610f3c60405196876108d4565b84865282860191836101c0809702860101948186116103db578401925b858410610f6a575050505050505090565b86848303126103db57848791610f7e6108f7565b610f8787610e7b565b8152610f94838801610eae565b83820152610fa3868801610eae565b868201526060610fb4818901610ec5565b908201526080610fc581890161063f565b9082015260a0808801359082015260c0610fe0818901610edd565b9082015260e0610ff1818901610ef3565b90820152610100611003818901610f08565b90820152610120611015818901610f08565b90820152610140611027818901610f08565b90820152610160611039818901610f08565b9082015261018061104b818901610f08565b908201526101a061105d818901610f08565b90820152815201930192610f59565b65ffffffffffff8116036103db57565b610104359061062f8261106c565b6024359061062f8261106c565b6044359061062f8261106c565b6064359061062f8261106c565b6084359061062f8261106c565b610124359061062f82610610565b610164359061062f82610610565b81601f820112156103db578035916020916110f484610983565b9361110260405195866108d4565b808552838086019160051b830101928084116103db57848301915b84831061112d5750505050505090565b82356001600160401b0381116103db57869161114e84848094890101610e35565b81520192019161111d565b346103db576101c03660031901126103db576001600160401b0360046024358281116103db5761118c9036908301610e35565b6044358381116103db576111a39036908401610e35565b6111ab610e50565b6084358581116103db576111c29036908601610e35565b6111ca610e5d565b60c4358781116103db576111e19036908801610e35565b60e4358881116103db576111f89036908901610f13565b9061120161107c565b9261120a6110be565b94611213610631565b9661121c6110cc565b98611225610621565b9a6101a4359d8e116103db576112418d6106d49f3691016110da565b9c35613908565b346103db5760203660031901126103db576020611266600435613b74565b6040516001600160a01b039091168152f35b346103db575f3660031901126103db576020600654604051908152f35b346103db576020806003193601126103db57600435906001600160401b03908183116103db57366023840112156103db5782600401359182116103db5760249260063660248560061b840101116103db575f5b8481106112f157005b80821b83019060408060231984360301126103db5760019263ffffffff61ffff8861134b94516113208161086a565b60448d8601359561133087610e86565b868352013591829161134183610eb9565b0152169116613e52565b016112e8565b346103db5760403660031901126103db5760206024356113708161106c565b6004355f908152608a8352604090206001600160d01b039161139191614fb9565b16604051908152f35b346103db5760203660031901126103db576020611266600435614604565b346103db575f3660031901126103db576020609254604051908152f35b9080601f830112156103db5760209082356113ef81610983565b936113fd60405195866108d4565b81855260208086019260051b8201019283116103db57602001905b828210611426575050505090565b81358152908301908301611418565b346103db5760403660031901126103db576001600160401b036004358181116103db576114669036906004016113d5565b906024359081116103db57602091611485610d71923690600401610c99565b50613ba6565b90600182811c921680156114b9575b60208310146114a557565b634e487b7160e01b5f52602260045260245ffd5b91607f169161149a565b346103db575f3660031901126103db576040515f906094546114e48161148b565b8083526020916001908181169081156105e4575060011461150f5761042c8461059d818803826108d4565b91935060945f52835f20915f925b828410611539575050508161042c9361059d928201019361058d565b805485850187015292850192810161151d565b346103db5760203660031901126103db5760043561156981610610565b6001600160a01b0316801561158e575f526003602052602060405f2054604051908152f35b6040516322718ad960e21b81525f6004820152602490fd5b346103db575f3660031901126103db576115be61463e565b600780546001600160a01b031981169091555f906001600160a01b03165f80516020615ebd8339815191528280a3005b346103db575f3660031901126103db576091546040516001600160a01b039091168152602090f35b5f52600260205260405f2090565b5f52608b60205260405f2090565b5f52608a60205260405f2090565b5f52600460205260405f2090565b346103db5760203660031901126103db576004355f526098602052602060405f2054604051908152f35b346103db575f3660031901126103db576096546040516001600160a01b039091168152602090f35b346103db5760203660031901126103db576004356116c261067a608e54610604565b6040516364faa15960e01b8152915f83806116e1843060048401612eb8565b0381855afa9081156107175761173b935f926117ac575b5060209061171e6040611712606086015163ffffffff1690565b94015163ffffffff1690565b9360405180809781946302b7e6ef60e41b83523060048401613079565b03915afa9182156107175761176661176d9361042c955f9161177d575b5063ffffffff809316612f58565b911661306c565b6040519081529081906020820190565b61179f915060203d6020116117a5575b61179781836108d4565b810190612c2a565b5f611758565b503d61178d565b60209192506117cc903d805f833e6117c481836108d4565b810190612d80565b91906116f8565b346103db575f3660031901126103db576020604051670de0b6b3a76400008152f35b346103db575f3660031901126103db576040517f0000000000000000000000000061e516886a0540f63157f112c0588ee0651dcf6001600160a01b03168152602090f35b90604090604083019083526020604081850152845180925260608085018260608560051b8801019701945f925b85841061187857505050505050505090565b90919293949596989785806118b96001938d605f1990820301885285878d51878060a01b038151168452858101518685015201519181898201520190610518565b9a9b99019796959190910193019190611866565b346103db5760206003196020813601126103db57600435906001600160401b0382116103db576101809082360301126103db576040519161190d8361086a565b600183525f5b818110611963576101248361042c8661192a61328d565b611932610917565b308152905f6020830152604082015261194a82612ccb565b5261195481612ccb565b50604051938493013583611839565b819061196d613c44565b82828701015201611913565b346103db575f3660031901126103db576007546040516001600160a01b039091168152602090f35b346103db575f3660031901126103db576119b9613c73565b60408051928352602083019190915290f35b346103db575f3660031901126103db576040515f9060018054906119ee8261148b565b908184526020926001811690815f146105e45750600114611a195761042c8461059d818803826108d4565b91935060015f52835f20915f925b828410611a43575050508161042c9361059d928201019361058d565b8054858501870152928501928101611a27565b346103db575f3660031901126103db57608e546040516001600160a01b039091168152602090f35b6001600160701b038116036103db57565b60c4359061062f82611a7e565b610104359061062f82610610565b346103db576101603660031901126103db576101203660231901126103db57611ad1610936565b611ad961108a565b8152611ae3611097565b6020820152611af06110a4565b6040820152611afd6110b1565b6060820152611b0a610e94565b6080820152611b17611a8f565b60a0820152611b24610ea1565b60c0820152611b31611a9c565b60e082015261010061012435910152611b48610631565b506040515f8152602090f35b346103db5760403660031901126103db576020600435611b7381610610565b60018060a01b038091165f526088825260405f206024355f52825260405f205416604051908152f35b346103db575f3660031901126103db576090546040516001600160a01b039091168152602090f35b346103db5760403660031901126103db57600435611be181610610565b602435611bed81610efe565b6001600160a01b038216918215611c5257611c1390335f52600560205260405f20613c2f565b9015159060ff1981541660ff83161790556040519081527f17307eab39ab6107e8899845ad3d59bd9653f200f220920489ca2b5937696c3160203392a3005b604051630b61174360e31b815260048101849052602490fd5b346103db5760403660031901126103db576106d4602435600435613e52565b346103db5760803660031901126103db57600435611ca781610610565b602435611cb381610610565b606435916001600160401b0383116103db57366023840112156103db57611ce76106d4933690602481600401359101610dff565b9160443591614133565b611cfa36610a44565b341580159061201e575b801561200e575b611ffc57611d86611d687f0000000000000000000000009f8e41fdb2447fcebfffdc97387ac72b523e9fc3611d3e61422b565b805160209091012060609190911b6001600160601b03199081169116186001600160e01b03191690565b611d80611d796101e085018561424e565b3691610dff565b9061539d565b90156103db57611da1815191602080809483010191016137d7565b90815191611db361067a609054610604565b916006549260409082604051809263038ab08560e11b82528180611de160049a600483019190602083019252565b03915afa8015610717576004915f91611fdf575b50611dff8161291d565b14935f5b868110611eb0578786611e158761551e565b611e2e611e266101c084018461424e565b81019061071c565b915f91611e76575b60e00135159081611e6d575b50611e5b57611e566106d491608d5461306c565b608d55565b604051637691472960e01b8152600490fd5b90501582611e42565b9050611e90611e8b60e0830135609754612f58565b609755565b60e0611ea8611e9e83614280565b84608d54916155c5565b919050611e36565b611eba8186612cdd565b5190611ed5611ec883611616565b546001600160a01b031690565b611ee161067a8b614280565b6001600160a01b0390911603611f8f578487611efc84615504565b611f0c575b506001915001611e03565b611f3d92611f1e61067a608e54610604565b86516342f9914b60e01b81528681019283529485928391829160200190565b03915afa91821561071757600192611f65915f91611f72575b505f52609860205260405f2090565b8054600101905584611f01565b611f899150873d89116117a55761179781836108d4565b5f611f56565b50916108179088611fab611fa5611ec887611616565b91614280565b9151631048fd9360e11b81529384019485526001600160a01b03908116602086015216604084015290918291606090910190565b611ff69150843d86116107105761070281836108d4565b5f611df5565b6040516394310b3d60e01b8152600490fd5b5060065460208201351415611d0b565b50612043602060065460405180938192636e49181f60e01b8352339060048401612fd9565b03817f0000000000000000000000000061e516886a0540f63157f112c0588ee0651dcf6001600160a01b03165afa908115610717575f91612086575b5015611d04565b61209f915060203d602011610b5157610b4381836108d4565b5f61207f565b346103db5760403660031901126103db576004356120c281610610565b6001600160a01b03165f908152608960209081526040808320602435845282529091206001600160d01b0390611391906157cc565b346103db5760203660031901126103db5761211661067a608e54610604565b60206040518092630fab094760e01b82528180612136306004830161072b565b03915afa908115610717575f916121b8575b505f6040518092635e703e7160e01b8252818061216b6004353060048401613079565b03916001600160a01b03165afa80156107175761042c915f91612196575b506040519182918261053d565b6121b291503d805f833e6121aa81836108d4565b81019061428a565b5f612189565b6121da915060203d6020116121e0575b6121d281836108d4565b810190613e14565b5f612148565b503d6121c8565b346103db576020806003193601126103db57600435906001600160401b0382116103db57366023830112156103db5781600401359161222583610983565b9160409361223660405194856108d4565b8084526024602085019160061b840101923684116103db57602401905b838210612263576106d4856142c7565b85823603126103db57828691825161227a8161086a565b843561228581610610565b81528285013583820152815201910190612253565b346103db575f3660031901126103db57608f546040516001600160a01b039091168152602090f35b346103db5760603660031901126103db5760206004356122e181610610565b604435906122ee8261106c565b6001600160a01b03165f9081526089835260408082206024358352845290206001600160d01b039161139191614fb9565b346103db5760203660031901126103db576004356001600160401b0381116103db576123526119b99136906004016113d5565b6143af565b346103db575f3660031901126103db57602060ff609354166040519015158152f35b346103db575f3660031901126103db57604051612395816108b8565b611000809136903760405160085f825b608082106123e5575050506123b9816108b8565b604051905f90825b608083106123ce57505050f35b6001908251815260208091019201920191906123c1565b60016020819285548152019301910190916123a5565b346103db575f3660031901126103db576040515f9060955461241c8161148b565b8083526020916001908181169081156105e457506001146124475761042c8461059d818803826108d4565b91935060955f52835f20915f925b828410612471575050508161042c9361059d928201019361058d565b8054858501870152928501928101612455565b346103db5760403660031901126103db57602060ff6124cf6004356124a881610610565b602435906124b582610610565b6001600160a01b03165f9081526005855260409020613c2f565b54166040519015158152f35b346103db575f3660031901126103db576040517f0000000000000000000000009f8e41fdb2447fcebfffdc97387ac72b523e9fc36001600160a01b03168152602090f35b346103db5760203660031901126103db5760043561253c81610610565b61254461463e565b6001600160a01b0381161561255c576106d490614f84565b604051631e4fbdf760e01b81525f6004820152602490fd5b346103db5760203660031901126103db576004355f52608a602052602060018060d01b0361139160405f206157cc565b929160808401918452602090818501526040926040850152606060806060860152855180935260a085018260a08560051b8801019701945f925b8584106125f057505050505050505090565b90919293949596989785806126316001938d609f1990820301885285878d51878060a01b038151168452858101518685015201519181898201520190610518565b9a9b990197969591909101930191906125de565b346103db5761265336610ca8565b60808101356128e85761269c61268b7f0000000000000000000000009f8e41fdb2447fcebfffdc97387ac72b523e9fc3611d3e61422b565b611d80611d7961018085018561424e565b6060916128ce575b506126b361067a609054610604565b9060409182519163038ab08560e11b8352602092838160049481806126e38a8c0135600483019190602083019252565b03915afa908115610717575f916128b1575b508151925f935f9161270b61067a608e54610604565b905b82841061281e57898961042c8a8a8a8a612725614501565b93865161274b8161273d878583019190602083019252565b03601f1981018352826108d4565b5f612754610917565b308152928301528782015261276885612ccb565b5261277284612ccb565b5061277c8161291d565b60018114908115612809575b81156127f4575b81156127e0575b50156127b55750925b51938493610160610120830135920135856125a4565b6127da91506127d46127ce609754610120890135612f58565b91613ba6565b906157f4565b9261279f565b600591506127ed8161291d565b1487612796565b90506127ff8161291d565b600681149061278f565b90506128148161291d565b6002811490612788565b9091929561284b905f6128318989612cdd565b518b518094819263c44a8e6d60e01b835230888401612eb8565b0381875afa9081156107175761288761287b8b61288d946001965f91612897575b5001516001600160681b031690565b6001600160681b031690565b90612f58565b960192919061270d565b6128ab91503d805f833e6117c481836108d4565b5f61286c565b6128c89150843d86116107105761070281836108d4565b5f6126f5565b6128e29150602080825183010191016137d7565b5f6126a4565b60405163096afe5960e41b8152600490fd5b908160209103126103db575160078110156103db5790565b6040513d5f823e3d90fd5b6007111561292757565b634e487b7160e01b5f52602160045260245ffd5b61294361463e565b61295161067a609054610604565b6006546040805163038ab08560e11b81526004808201939093529092602091908290829060249082905afa908115610717575f91612c0d575b506129948161291d565b60038103612bfd5760935460ff16612bed576129af8161291d565b60068114908115612bd9575b50612bca57608e6129d061067a608e54610604565b91808551809463f1bea54f60e01b825281806129ee308a830161072b565b03915afa928315610717575f93612bab575b5090915f91865191612a10612c39565b505f945b838610612a875750505050670de0b6b3a7640000915011612a7957507f9a6cf4ff8f1a3ee73be4815b44949c83dbc2e76a386eaf652b2a454bac9d241291612a7491612a68600160ff196093541617609355565b51918291339083612f65565b0390a1565b90516351ae01e360e11b8152fd5b90919293612ac55f612a9c61067a8554610604565b612aa6898d612cdd565b5151908a8c518095819482936364faa15960e01b845230908401612eb8565b03915afa908115610717575f91612b91575b50612af4612aec61010083015162ffffff1690565b62ffffff1690565b612b81578363ffffffff612b0c835163ffffffff1690565b1611612b8157600191612b61612b7592612b49612b44612b3f8f612b318e8d92612cdd565b510151935163ffffffff1690565b612eed565b612f1d565b90919082549060031b91821b915f19901b1916179055565b85612b6c898d612cdd565b51015190612f58565b95019493929190612a14565b885163148e14dd60e21b81528890fd5b612ba591503d805f833e6117c481836108d4565b5f612ad7565b81612bc39294503d85116117a55761179781836108d4565b915f612a00565b509051636fb8407560e01b8152fd5b60059150612be68161291d565b145f6129bb565b8351633bfa282760e21b81528390fd5b83516301e7228160e11b81528390fd5b612c249150823d84116107105761070281836108d4565b5f61298a565b908160209103126103db575190565b604051906101e082016001600160401b038111838210176108855760405260606101c0835f81525f60208201525f60408201525f838201525f60808201525f60a08201525f60c08201525f60e08201525f6101008201525f6101208201525f6101408201525f6101608201525f6101808201525f6101a08201520152565b634e487b7160e01b5f52603260045260245ffd5b805115612cd85760200190565b612cb7565b8051821015612cd85760209160051b010190565b519061062f82610e86565b519061062f82610e6a565b519061062f82610eb9565b519061062f82610610565b519061062f82610ed0565b519061062f82610ee8565b519061062f82610efe565b81601f820112156103db578051612d5481610de4565b92612d6260405194856108d4565b818452602082840101116103db5761054e91602080850191016104f7565b6020818303126103db5780516001600160401b03918282116103db57016101e0818403126103db57612db0610956565b92612dba82612cf1565b8452612dc860208301612cfc565b6020850152612dd960408301612cf1565b6040850152612dea60608301612cf1565b6060850152612dfb60808301612cfc565b6080850152612e0c60a08301612d07565b60a0850152612e1d60c08301612d12565b60c085015260e082015160e0850152610100612e3a818401612d1d565b90850152610120612e4c818401612d28565b90850152610140612e5e818401612d33565b90850152610160612e70818401612d33565b90850152610180612e82818401612d33565b908501526101a0612e94818401612d33565b908501526101c092838301519081116103db57612eb19201612d3e565b9082015290565b6001600160a01b03909116815260208101919091525f604082015260600190565b634e487b7160e01b5f52601160045260245ffd5b63ffffffff9081165f190191908211612f0257565b612ed9565b63ffffffff9182169082160391908211612f0257565b6080811015612cd857600801905f90565b9060018201809211612f0257565b9060048201809211612f0257565b9060098201809211612f0257565b91908201809211612f0257565b909291926040906040830160408452815180915260608401916020809101935f905b838210612fa45750505050602091509360018060a01b0316910152565b855180518652830151858401529482019493840193600190910190612f87565b908160209103126103db575161054e81610efe565b9081526001600160a01b03909116602082015260400190565b91906001600160a01b039081811615613046576130128291843391614e27565b931692169082820361302357505050565b60649350604051926364283d7b60e01b8452600484015260248301526044820152fd5b604051633250574960e11b81525f6004820152602490fd5b5f19810191908211612f0257565b91908203918211612f0257565b6001600160a01b039091168152602081019190915260400190565b811561309e570490565b634e487b7160e01b5f52601260045260245ffd5b6130e8906130c461067a608e54610604565b90604051906342f9914b60e01b825281806020958693600483019190602083019252565b0381855afa908115610717575f91613270575b506040516364faa15960e01b8152905f828061311b843060048401612eb8565b0381865afa918215610717575f92613254575b5061314861313e612b448361305e565b90549060031b1c90565b92831561324b578460405180926302b7e6ef60e41b8252818061316f873060048401613079565b03915afa948515610717575f9561322c575b505060608201916040613198845163ffffffff1690565b9101926131ce6131c1876131bc6131b3885163ffffffff1690565b63ffffffff1690565b612f58565b63ffffffff80941661306c565b156132225761054e9561321561320661321c966132006131f5611766965163ffffffff1690565b915163ffffffff1690565b90612f07565b945f52609860205260405f2090565b549061306c565b90613094565b5050505050505f90565b613243929550803d106117a55761179781836108d4565b925f80613181565b50505050505f90565b6132699192503d805f833e6117c481836108d4565b905f61312e565b6132879150833d85116117a55761179781836108d4565b5f6130fb565b6040519061329a8261089d565b5f8252565b80546001600160a01b0319166001600160a01b03909216919091179055565b601f81116132ca575050565b5f805260205f20906020601f840160051c83019310613303575b601f0160051c01905b8181106132f8575050565b5f81556001016132ed565b90915081906132e4565b601f8111613319575050565b60945f5260205f20906020601f840160051c83019310613353575b601f0160051c01905b818110613348575050565b5f815560010161333d565b9091508190613334565b601f8111613369575050565b60955f5260205f20906020601f840160051c830193106133a3575b601f0160051c01905b818110613398575050565b5f815560010161338d565b9091508190613384565b90601f82116133ba575050565b60019160015f5260205f20906020601f840160051c830193106133f7575b601f0160051c01905b8181106133ed57505050565b5f815582016133e1565b90915081906133d8565b601f821161340e57505050565b5f5260205f20906020601f840160051c83019310613446575b601f0160051c01905b81811061343b575050565b5f8155600101613430565b9091508190613427565b8160011b915f199060031b1c19161790565b80519091906001600160401b038111610885576134898161348460945461148b565b61330d565b602080601f83116001146134bd575081906134ad93945f926134b2575b5050613450565b609455565b015190505f806134a6565b60945f52601f198316949091907f7047a3cc0a76edcee45792ca71527c753f6167484f14b94c4a3bd2997516725c925f905b87821061352657505083600195961061350e575b505050811b01609455565b01515f1960f88460031b161c191690555f8080613503565b806001859682949686015181550195019301906134ef565b80519091906001600160401b038111610885576135658161356060955461148b565b61335d565b602080601f831160011461358d5750819061358893945f926134b2575050613450565b609555565b60955f52601f198316949091907f947035e97d0f7e1937f791bc189f60c984ceaaa7a8494fc67f9f8f4de8ccf2c6925f905b8782106135f65750508360019596106135de575b505050811b01609555565b01515f1960f88460031b161c191690555f80806135d3565b806001859682949686015181550195019301906135bf565b80519091906001600160401b0381116108855760019061363781613632845461148b565b6133ad565b602080601f831160011461365f5750819061365b9394955f926134b2575050613450565b9055565b60015f52601f198316959091907fb10e2d527612073b26eecdfd717e6a320cf44b4afac2b0732d9fcbe2b7fa0cf6925f905b8882106136c657505083859697106136ae575b505050811b019055565b01515f1960f88460031b161c191690555f80806136a4565b808785968294968601518155019501930190613691565b81519192916001600160401b03811161088557613704816136fe845461148b565b84613401565b602080601f83116001146137285750819061365b9394955f926134b2575050613450565b90601f1983169561373c855f5260205f2090565b925f905b88821061375e575050836001959697106136ae57505050811b019055565b80600185968294968601518155019501930190613740565b9080601f830112156103db5781519060209161379181610983565b9361379f60405195866108d4565b81855260208086019260051b8201019283116103db57602001905b8282106137c8575050505090565b815181529083019083016137ba565b906020828203126103db5781516001600160401b0381116103db5761054e9201613776565b60208082019080835283518092528060408094019401925f905b83821061382557505050505090565b9091929394836101c06001926138fb895161384883825160018060681b03169052565b8085015163ffffffff16838601528087015163ffffffff168388015260608181015161ffff16908401526080818101516001600160a01b03169084015260a0818101519084015260c08082015162ffffff169084015260e08181015160ff169084015261010081810151151590840152610120818101511515908401526101408181015115159084015261016081810151151590840152610180818101511515908401526101a090810151151590830152565b0196019493920190613816565b9b94989a92919396999097959760018060a01b039c8d7f0000000000000000000000009f8e41fdb2447fcebfffdc97387ac72b523e9fc31630146103db578d61395561067a608e54610604565b166103db57613a31976139c58e6139a36139ed97613981613a0f9b6139cb9865ffffffffffff98614e98565b608f80546001600160a01b0319166001600160a01b0392909216919091179055565b608e80546001600160a01b0319166001600160a01b0392909216919091179055565b16609255565b609080546001600160a01b0319166001600160a01b0392909216919091179055565b609180546001600160a01b0319166001600160a01b0392909216919091179055565b609680546001600160a01b0319166001600160a01b0392909216919091179055565b8051613b65575b508051613b56575b50838116613aee575b505f91613a6d9183604051958680958194631f1d05ad60e01b8352600483016137fc565b0393165af1801561071757613acc575b508051905f5b828110613a965750505061062f33614f84565b80613ac6613aa660019385612cdd565b51613ac1613ab384612f2e565b5f52608c60205260405f2090565b6136dd565b01613a83565b613ae7903d805f833e613adf81836108d4565b8101906137d7565b505f613a7d565b91838116803b156103db5760405163036129cb60e61b8152935f918591829084908290613b1e906004830161072b565b03925af1918215610717575f93613a6d93613b3d575b50915091613a49565b80613b4a613b509261088a565b806104ed565b5f613b34565b613b5f9061353e565b5f613a40565b613b6e90613462565b5f613a38565b5f908152608b60205260409020546001600160a01b0390811680613ba15750600260205260405f20541690565b905090565b905f9180515f915b818310613bba57505050565b909193613bd0613bca8684612cdd565b516130b2565b8101809111612f0257936001019190613bae565b6001600160a01b03165f90815260886020526040902090565b6001600160a01b03165f90815260896020526040902090565b6001600160a01b03165f90815260036020526040902090565b9060018060a01b03165f5260205260405f2090565b60405190606082016001600160401b038111838210176108855760405260606040835f81525f60208201520152565b6040516370a0823160e01b80825291906020906001600160a01b0390828180613c9f306004830161072b565b0381857f0000000000000000000000001bf077855a17b4dd12eb3ade29d94cff27fe56d0165afa80156107175783915f91613d3c575b509460405192839182528180613cee306004830161072b565b03917f00000000000000000000000058204a8849bf6a625d56021adfd12ce4a4a3af13165afa918215610717575f92613d2657505090565b61054e9250803d106117a55761179781836108d4565b613d539150823d84116117a55761179781836108d4565b5f613cd5565b519061062f8261106c565b519061062f82611a7e565b90816101209103126103db57613d83610936565b90613d8d81613d59565b8252613d9b60208201613d59565b6020830152613dac60408201613d59565b6040830152613dbd60608201613d59565b6060830152613dce60808201612cf1565b6080830152613ddf60a08201613d64565b60a0830152613df060c08201612cf1565b60c0830152613e0160e08201612d12565b60e0830152610100809101519082015290565b908160209103126103db575161054e81610610565b908160051b9180830460201490151715612f0257565b81810292918115918404141715612f0257565b919091613e6361067a608f54610604565b600654604080516321d1336160e11b81526004810192909252929161012091908290829060249082905afa91821561071757613ebd92613eb292610100925f92614106575b5050015160f21c90565b60018091811c161490565b6140f557613ecf61067a608e54610604565b9160208151809462d5cc0160e21b82528180613eef873060048401613079565b03915afa928315610717575f936140d4575b506001600160a01b039081613f29611ec885613f1c88613be4565b905f5260205260405f2090565b16156140a5575b613f3e61067a608e54610604565b8151635d53f40760e11b8152600481018590526024810188905296905f908890604490829084905af1968715610717575f97614089575b50613f8461067a608e54610604565b915f815180946364faa15960e01b82528180613fa48a3060048401612eb8565b03915afa928315610717575f9361406d575b50602083015188516001600160681b039591613fe491611e5691613fdc91908916613e3f565b608d54612f58565b5f5b838110614018575050505060800151939461062f9461401292906001600160681b031691519116613e3f565b916150a5565b806140256001928c612cdd565b51614030818b61503a565b888551917f031e1988c95a91ec4d655ff63a8f87a80bc9daf28d95ae10ee08c0022cfb5c8b868d169380614064338261072b565b0390a401613fe6565b6140829193503d805f833e6117c481836108d4565b915f613fb6565b61409e9197503d805f833e613adf81836108d4565b955f613f75565b6140b0609654610604565b83818416156140c9576140c4915b8661453c565b613f30565b6140c49150856140be565b6140ee91935060203d6020116121e0576121d281836108d4565b915f613f01565b8151631d2c125760e31b8152600490fd5b6141259250803d1061412c575b61411d81836108d4565b810190613d6f565b5f80613ea8565b503d614113565b91929092614142818585612ff2565b833b61414f575b50505050565b614174916020916040519384928392630a85bd0160e11b97888552336004860161531c565b03815f6001600160a01b0388165af15f91816141fa575b506141c4578261419961534d565b80519190826141bd57604051633250574960e11b815280610817846004830161072b565b9050602001fd5b6001600160e01b031916036141dd57505f808080614149565b604051633250574960e11b8152908190610817906004830161072b565b61421d91925060203d602011614224575b61421581836108d4565b810190615307565b905f61418b565b503d61420b565b604051906142388261086a565b600782526618d85cda13dd5d60ca1b6020830152565b903590601e19813603018212156103db57018035906001600160401b0382116103db576020019181360383136103db57565b3561054e81610610565b906020828203126103db5781516001600160401b0381116103db5761054e9201612d3e565b604051906142bc8261086a565b5f6020838281520152565b6142d561067a609054610604565b6006546040805163038ab08560e11b8152600480820193909352939290916020918290869060249082905afa948515610717575f9561438e575b506143198561291d565b60018095036106d65783519361432d6142af565b505f5b8581106143405750505050505050565b61434a8183612cdd565b5161435861067a8251610604565b1561437e5790614378828661436e8b9551610604565b910151903361453c565b01614330565b85516314f4c13d60e21b81528490fd5b6143a891955060203d6020116107105761070281836108d4565b935f61430f565b906143be61067a609054610604565b91600654926040805163038ab08560e11b8152602081819481806143ec60049b600483019190602083019252565b03915afa8015610717576004915f916144e2575b5061440a8161291d565b0361446b579082949251915f955f9461442761067a608e54610604565b915b858710614476575050505050505061443f613c73565b92608d5491821561446b57816144658461446061054e969561446095613e3f565b613094565b95613e3f565b50505090505f905f90565b909192939495976144a6905f61448c8b85612cdd565b5187518094819263c44a8e6d60e01b835230898401612eb8565b0381885afa9081156107175761288761287b896144d5946001965f91612897575001516001600160681b031690565b9801959493929190614429565b6144fb915060203d6020116107105761070281836108d4565b5f614400565b6040519061450e8261086a565b60018252815f5b602090818110156145375760209161452b613c44565b90828501015201614515565b505050565b6001600160a01b039081165f8181526088602090815260408083208784528252909120805491959294929391821691869161457890859061329f565b80841683877f3134e8a2e6d97e929a7e54011ea5485d7d196dd5f0ba4d4ef95803e8e3fc257f5f80a4608e5416946064604051809781936305c9a1d560e31b835230600484015260248301528760448301525afa9384156107175761062f955f956145e5575b505061588e565b6145fc929550803d106117a55761179781836108d4565b925f806145de565b5f818152600260205260409020546001600160a01b0316908115614626575090565b60249060405190637e27328960e01b82526004820152fd5b6007546001600160a01b0316330361465257565b60405163118cdaa760e01b8152336004820152602490fd5b3561054e81610e86565b604051906146818261086a565b600382526270617960e81b6020830152565b91906040838203126103db5782516146aa81610610565b60208085015191949091906001600160401b0382116103db57019180601f840112156103db5782516146db81610983565b936146e960405195866108d4565b818552838086019260051b8201019283116103db578301905b828210614710575050505090565b838091835161471e81610eb9565b815201910190614702565b9061473660a0830161466a565b63ffffffff609254911603614a27576147856147747f0000000000000000000000009f8e41fdb2447fcebfffdc97387ac72b523e9fc3611d3e614674565b611d80611d796101e086018661424e565b9015614a22578060208061479e93518301019101614693565b6001600160a01b03918216939184156149f7575b8151156149e5575f805f918451975f5b898110614804575050505050506147ec92935060c06147e46101a08401614280565b920135615a2b565b6147f257565b604051631b57826960e21b8152600490fd5b898861482561481e614816858c612cdd565b5161ffff1690565b61ffff1690565b8503614933575b90614846611ec886613f1c6148418b96614280565b613be4565b88808616918b83159485158096614928575b61486c575b505050505050506001016147c2565b879a96979161487b8b9261305e565b83109283614902575b5050505f146148ad575050505060019161489d91612f58565b935b9050845f8088818b8f61485d565b6148d49550836148f5575b5050506148dd575b83614012876148ce8c614280565b93612f58565b60015f9361489f565b6148f084846148eb8c614280565b61453c565b6148c0565b16141590505f88816148b8565b61ffff92935061491e9161491861481692612f2e565b90612cdd565b1614888d8b614884565b508383161515614858565b505093509061494861481e6148168689612cdd565b106149d35761495d61481e6148168588612cdd565b9061496c61067a608e54610604565b935f60405180966364faa15960e01b8252818061498d883060048401612eb8565b03915afa948515610717578a614846611ec886613f1c6149c761287b8f976148419d6080915f91612897575001516001600160681b031690565b9a50505050509061482c565b604051639fda363d60e01b8152600490fd5b604051633d04bd1f60e01b8152600490fd5b9350614a04609654610604565b80851615614a13575b936147b2565b50614a1d82614280565b614a0d565b509050565b6040516301e73e1760e61b8152600490fd5b919091614a4a61067a608e54610604565b905f604051809363c44a8e6d60e01b82528180614a6b893060048401612eb8565b03915afa918215610717575f92614c39575b50614a888482615b2e565b936001600160a01b038086161591908215614b55575b5050614aae61067a608e54610604565b835163ffffffff1690803b156103db576040516330b157e560e21b815263ffffffff9290921660048301526001600160a01b038781166024840152841660448301525f908290606490829084905af1801561071757614b42575b50614b3e579061062f9163ffffffff614b25835163ffffffff1690565b608093909301516001600160681b031692169085615245565b5050565b80613b4a614b4f9261088a565b5f614b08565b610160850151614b88575b5085614b7161067a611ec884611624565b614a9e576107f7614b8192611624565b5f85614a9e565b614bc290614b9a61067a608f54610604565b60065460405180926321d1336160e11b82528180610120978895600483019190602083019252565b03915afa928315610717575f93614c1a575b5050841615159081614bfe575b50614bec575f614b60565b6040516318cdaf9760e01b8152600490fd5b6101000151614c14915060f21c60018091161490565b5f614be1565b614c31929350803d1061412c5761411d81836108d4565b905f80614bd4565b614c4e9192503d805f833e6117c481836108d4565b905f614a7d565b90614c6461067a608e54610604565b5f604051809263c44a8e6d60e01b82528180614c84883060048401612eb8565b03915afa908115610717575f91614e0d575b50614ca083615bbc565b926001600160a01b03841615908115614d66575b50614cc361067a608e54610604565b825163ffffffff1690803b156103db576040516330b157e560e21b815263ffffffff9290921660048301526001600160a01b03861660248301525f60448301819052908290606490829084905af1801561071757614d53575b50614d50578063ffffffff614d3861062f935163ffffffff1690565b608092909201516001600160681b0316911684615171565b50565b80613b4a614d609261088a565b5f614d1c565b610160830151614da0575b84614d8161067a611ec884611624565b15614d8d575b50614cb4565b6107f7614d9992611624565b5f84614d87565b614dd9614db161067a608f54610604565b60065460405180926321d1336160e11b82528180610120968795600483019190602083019252565b03915afa801561071757614def575b5050614d71565b81614e0592903d1061412c5761411d81836108d4565b505f80614de8565b614e2191503d805f833e6117c481836108d4565b5f614c96565b92919092614e3961067a608e54610604565b915f604051809463c44a8e6d60e01b82528180614e5a8a3060048401612eb8565b03915afa928315610717575f93614e78575b50614a88908583615c33565b614a88919350614e91903d805f833e6117c481836108d4565b9290614e6c565b815191939290916001600160401b03811161088557614ec081614ebb5f5461148b565b6132be565b602080601f8311600114614ef7575081614ef29392614eeb9261062f97985f926134b2575050613450565b5f5561360e565b600655565b5f8052601f198316969091907f290decd9548b62a8d60345a988386fc84ba6bc95484008f6362f93160ef3e563925f905b898210614f6c575050918391600193614ef2969561062f999a10614f54575b505050811b015f5561360e565b01515f1960f88460031b161c191690555f8080614f47565b80600185968294968601518155019501930190614f28565b600780546001600160a01b039283166001600160a01b0319821681179092559091165f80516020615ebd8339815191525f80a3565b8054915f5b838110614fed57505081614fd25750505f90565b614fde61054e9261305e565b905f5260205f20015460301c90565b90928082169080831860011c8201809211612f0257835f5265ffffffffffff808360205f20015416908616105f146150285750925b90614fbe565b93915061503490612f2e565b90615022565b6001600160a01b0391818316156130465761505491614a39565b1661505b57565b6040516339e3563760e11b81525f6004820152602490fd5b6001600160d01b039182169082160191908211612f0257565b6001600160d01b039182169082160391908211612f0257565b9061062f9291815f52608a6020526150bf60405f206157cc565b6150c883611632565b4265ffffffffffff16916001600160d01b038616916150f290846150ec8585615073565b91615dd3565b506001600160a01b0393905084841615615155575b5050505f8381527f046491916a0278bc7eb038aba60c896854c99d791b5a890a9ff3ed75cc95e12a602052604090205481169161514390613be4565b835f5260205260405f2054169061588e565b6150ec61516b9361516588611632565b9361508c565b5f615107565b61062f9291906001600160a01b039061519b908281161580801561523d575b6151c6575b50613be4565b825f5260205260405f2054166151c0611ec883613f1c5f8052608860205260405f2090565b9061588e565b61521190855f52608a6020526151de60405f206157cc565b90615217575b6152016151f087611632565b916001600160d01b0389169061508c565b9065ffffffffffff421690615dd3565b50615195565b61523661522387611632565b6152016001600160d01b038a1684615073565b50506151e4565b506001615190565b906151c0611ec884613f1c615282611ec883613f1c61062f9b9a9960018060a01b038c81831615918280156152fd575b615288575b505050613be4565b94613be4565b855f52608a60205261529c60405f206157cc565b926152d7575b8c16156152b0575b8161527a565b6152016152d0926152c087611632565b926001600160d01b03169061508c565b508c6152aa565b6152f66152e387611632565b6152016001600160d01b03851686615073565b50506152a2565b50808d1615615275565b908160209103126103db575161054e816103c9565b6001600160a01b03918216815291166020820152604081019190915260806060820181905261054e92910190610518565b3d15615377573d9061535e82610de4565b9161536c60405193846108d4565b82523d5f602084013e565b606090565b805160241015612cd85760440190565b908151811015612cd8570160200190565b905f906060926025825111156154f6576153d96153d36153cd6153bf8561537c565b516001600160f81b03191690565b60f81c90565b60ff1690565b9060209360205b6154056153f86153bf6153f284612f3c565b8861538c565b6001600160f81b03191690565b1515806154e5575b156154dc5761542d6153d36153cd6153bf61542785612f3c565b8961538c565b8186018701516001600160e01b031985811691161461544f57506005016153e0565b95509291505061548c945061546c61546683612f4a565b91613e29565b118015906154bd575b156154915750615486815192613e29565b90615d2b565b600191565b6154b76154b26153d36153cd6153bf6154ac61548696612f4a565b8761538c565b613e29565b92613e29565b506154d66153f86153bf6154d084612f4a565b8561538c565b15615475565b50959350505050565b506154ef84613e29565b811061540d565b505050505f9061054e61328d565b6001600160a01b0361551582614c55565b16156146265750565b608e546001600160a01b0316803b156103db5760405180926386bc2be360e01b8252602482016020906020600485015282518091526020604485019301915f5b82811061558d575050505091815f81819503925af18015610717576155805750565b80613b4a61062f9261088a565b83518552879550938101939281019260010161555e565b90815260208101919091526001600160a01b03909116604082015260600190565b6040516370a0823160e01b8082526001600160a01b037f00000000000000000000000058204a8849bf6a625d56021adfd12ce4a4a3af1381169560209592949093909290868180615619306004830161072b565b03818b5afa908115610717576144608361563c9388935f916157b5575b50613e3f565b93827f0000000000000000000000001bf077855a17b4dd12eb3ade29d94cff27fe56d01695604051908152878180615677306004830161072b565b03818a5afa9283156107175761569793614460925f916157985750613e3f565b918215968715958661574b575b5084151596876156df575b50506156d35f80516020615e9d8339815191529360405193849316953391846155a4565b0390a291613ba1575090565b909381604051809663a9059cbb60e01b8252815f816157028c8a60048401613079565b03925af1918215610717575f80516020615e9d833981519152956156d39361572d575b5050936156af565b8161574392903d10610b5157610b4381836108d4565b505f80615725565b87604051809263a9059cbb60e01b8252815f8161576c8b8a60048401613079565b03925af1801561071757156156a45761579190883d8a11610b5157610b4381836108d4565b505f6156a4565b6157af91508a3d8c116117a55761179781836108d4565b5f615636565b6157af91508b3d8d116117a55761179781836108d4565b8054806157d95750505f90565b5f19918183810111612f02575f5260205f2001015460301c90565b9091905f198382098382029182808310920391808303921461587d57670de0b6b3a7640000908183101561585a57947faccb18165bd6fe31ae1cf318dc5b51eee0e1ba569b88cd74c1773b91fac1066994950990828211900360ee1b910360121c170290565b6064918660405192630c740aef60e31b8452600484015260248301526044820152fd5b5050670de0b6b3a764000090049150565b91926001600160a01b0380831693919291908116808514801561598a575b61598257859181615935575b505050826158c65750505050565b5f80516020615efd833981519152916159158261520161590188613f1c6158fb6158f683613f1c6159299b613bfd565b6157cc565b94613bfd565b6001600160d01b0394909290851690615073565b6040519384939092339282169116846155a4565b0390a35f808080614149565b6159778161591561596186613f1c6158fb6158f683613f1c5f80516020615efd8339815191529a613bfd565b6001600160d01b0392615201908a85169061508c565b0390a3835f806158b8565b505050505050565b5083156158ac565b61599b90611640565b80546001600160a01b0319169055565b91906040838203126103db5782516001600160401b0381116103db576020916159d5918501613776565b92015190565b929190606084019084526020906060602086015282518091526020608086019301915f5b828110615a13575050505060405f91930152565b835161ffff16855293810193928101926001016159ff565b929192615a3c61067a608e54610604565b916040905f604051809563eaa19ab360e01b8252818381615a61878a600484016159db565b03925af18015610717575f945f91615b06575b5095845194615a88611e5686608d54612f58565b5f5b868110615a9a5750505050505050565b80615aa760019284612cdd565b51615ab2818661503a565b61ffff615ac26148168489612cdd565b168751917f598baf7bf150ca2f42be9e9f8f55e81d45f5715c3ff22bf46d697fabec7f31d6858060a01b0388169380615afd8d339083612fd9565b0390a401615a8a565b9050615b259194503d805f833e615b1d81836108d4565b8101906159ab565b9390935f615a74565b5f828152600260205260409020546001600160a01b03908116929190615b669084615b90575b82169182615b7b575b6107f784611616565b825f80516020615edd8339815191525f80a490565b615b8481613c16565b60018154019055615b5d565b615b9984611640565b80546001600160a01b0319169055615bb085613c16565b80545f19019055615b54565b5f818152600260205260409020546001600160a01b03169081615c07575b615be381611616565b80546001600160a01b03191690555f825f80516020615edd8339815191528280a490565b615c1081611640565b80546001600160a01b0319169055615c2782613c16565b80545f19019055615bda565b5f828152600260205260409020546001600160a01b03908116938082168015159081615c89575b505050615b669084615c775782169182615b7b576107f784611616565b615c8084615992565b615bb085613c16565b81615cd8575b5015615c9c578080615c5a565b839085615cbc57604051637e27328960e01b815260048101839052602490fd5b61081760405192839263177e802f60e01b845260048401613079565b86811491508115615d0a575b8115615cf2575b505f615c8f565b9050845f5260046020528260405f205416145f615ceb565b9050855f52600560205260ff615d238360405f20613c2f565b541690615ce4565b929181810391604051946020936020818801016040528652015f5b828110615d535750505050565b8181018401518682018501528301615d46565b9065ffffffffffff82549181199060301b169116179055565b908154600160401b8110156108855760018101808455811015612cd85761062f925f5260205f20019065ffffffffffff81511665ffffffffffff19835416178255602060018060d01b039101511690615d66565b80549293928015615e7257615dea615df59161305e565b825f5260205f200190565b9182549265ffffffffffff91828516928116808411615e6057879303615e275750615e209250615d66565b60301c9190565b915050615e5b91615e47615e39610976565b65ffffffffffff9093168352565b6001600160d01b0386166020830152615d7f565b615e20565b604051632520601d60e01b8152600490fd5b5090615e9791615e83615e39610976565b6001600160d01b0385166020830152615d7f565b5f919056fea183a623ac9e87a7002f8ccdd81b014fd2212a1a62a3059e097db62cb2df52c98be0079c531659141344cd1fd0a4f28419497f9722a3daafe3b4186f6b6457e0ddf252ad1be2c89b69c2b068fc378daa952ba7f163c4a11628f55a4df523b3ef26abcd0483bf852c577c9beff4daa5920a203234050413150a0aa946fb598bfaa264697066735822122044865371cdc2b25c790dde604ca00a4f1709a9921278fb82d384113de48819ab64736f6c63430008170033",
			"metadata": "{\"compiler\":{\"version\":\"0.8.23+commit.f704f362\"},\"language\":\"Solidity\",\"output\":{\"abi\":[{\"inputs\":[{\"internalType\":\"contract IJBDirectory\",\"name\":\"_directory\",\"type\":\"address\"},{\"internalType\":\"contract IERC20\",\"name\":\"_defifaToken\",\"type\":\"address\"},{\"internalType\":\"contract IERC20\",\"name\":\"_baseProtocolToken\",\"type\":\"address\"}],\"stateMutability\":\"nonpayable\",\"type\":\"constructor\"},{\"inputs\":[],\"name\":\"BAD_TIER_ORDER\",\"type\":\"error\"},{\"inputs\":[],\"name\":\"CASHOUT_WEIGHTS_ALREADY_SET\",\"type\":\"error\"},{\"inputs\":[],\"name\":\"CheckpointUnorderedInsertion\",\"type\":\"error\"},{\"inputs\":[],\"name\":\"DELEGATE_ADDRESS_ZERO\",\"type\":\"error\"},{\"inputs\":[],\"name\":\"DELEGATE_CHANGES_UNAVAILABLE_IN_THIS_PHASE\",\"type\":\"error\"},{\"inputs\":[{\"internalType\":\"address\",\"name\":\"sender\",\"type\":\"address\"},{\"internalType\":\"uint256\",\"name\":\"tokenId\",\"type\":\"uint256\"},{\"internalType\":\"address\",\"name\":\"owner\",\"type\":\"address\"}],\"name\":\"ERC721IncorrectOwner\",\"type\":\"error\"},{\"inputs\":[{\"internalType\":\"address\",\"name\":\"operator\",\"type\":\"address\"},{\"internalType\":\"uint256\",\"name\":\"tokenId\",\"type\":\"uint256\"}],\"name\":\"ERC721InsufficientApproval\",\"type\":\"error\"},{\"inputs\":[{\"internalType\":\"address\",\"name\":\"approver\",\"type\":\"address\"}],\"name\":\"ERC721InvalidApprover\",\"type\":\"error\"},{\"inputs\":[{\"internalType\":\"address\",\"name\":\"operator\",\"type\":\"address\"}],\"name\":\"ERC721InvalidOperator\",\"type\":\"error\"},{\"inputs\":[{\"internalType\":\"address\",\"name\":\"owner\",\"type\":\"address\"}],\"name\":\"ERC721InvalidOwner\",\"type\":\"error\"},{\"inputs\":[{\"internalType\":\"address\",\"name\":\"receiver\",\"type\":\"address\"}],\"name\":\"ERC721InvalidReceiver\",\"type\":\"error\"},{\"inputs\":[{\"internalType\":\"address\",\"name\":\"sender\",\"type\":\"address\"}],\"name\":\"ERC721InvalidSender\",\"type\":\"error\"},{\"inputs\":[{\"internalType\":\"uint256\",\"name\":\"tokenId\",\"type\":\"uint256\"}],\"name\":\"ERC721NonexistentToken\",\"type\":\"error\"},{\"inputs\":[],\"name\":\"GAME_ISNT_SCORING_YET\",\"type\":\"error\"},{\"inputs\":[],\"name\":\"INVALID_CASHOUT_WEIGHTS\",\"type\":\"error\"},{\"inputs\":[],\"name\":\"INVALID_TIER_ID\",\"type\":\"error\"},{\"inputs\":[],\"name\":\"JB721Hook_InvalidCashOut\",\"type\":\"error\"},{\"inputs\":[],\"name\":\"JB721Hook_InvalidPay\",\"type\":\"error\"},{\"inputs\":[{\"internalType\":\"uint256\",\"name\":\"tokenId\",\"type\":\"uint256\"},{\"internalType\":\"address\",\"name\":\"holder\",\"type\":\"address\"}],\"name\":\"JB721Hook_UnauthorizedToken\",\"type\":\"error\"},{\"inputs\":[],\"name\":\"JB721Hook_UnexpectedTokenCashedOut\",\"type\":\"error\"},{\"inputs\":[],\"name\":\"NOTHING_TO_CLAIM\",\"type\":\"error\"},{\"inputs\":[],\"name\":\"NOTHING_TO_MINT\",\"type\":\"error\"},{\"inputs\":[],\"name\":\"NO_CONTEST\",\"type\":\"error\"},{\"inputs\":[],\"name\":\"OVERSPENDING\",\"type\":\"error\"},{\"inputs\":[{\"internalType\":\"address\",\"name\":\"owner\",\"type\":\"address\"}],\"name\":\"OwnableInvalidOwner\",\"type\":\"error\"},{\"inputs\":[{\"internalType\":\"address\",\"name\":\"account\",\"type\":\"address\"}],\"name\":\"OwnableUnauthorizedAccount\",\"type\":\"error\"},{\"inputs\":[{\"internalType\":\"uint256\",\"name\":\"x\",\"type\":\"uint256\"},{\"internalType\":\"uint256\",\"name\":\"y\",\"type\":\"uint256\"},{\"internalType\":\"uint256\",\"name\":\"denominator\",\"type\":\"uint256\"}],\"name\":\"PRBMath_MulDiv_Overflow\",\"type\":\"error\"},{\"inputs\":[],\"name\":\"RESERVED_TOKEN_MINTING_PAUSED\",\"type\":\"error\"},{\"inputs\":[],\"name\":\"TRANSFERS_PAUSED\",\"type\":\"error\"},{\"inputs\":[{\"internalType\":\"uint256\",\"name\":\"tokenId\",\"type\":\"uint256\"},{\"internalType\":\"address\",\"name\":\"owner\",\"type\":\"address\"},{\"internalType\":\"address\",\"name\":\"caller\",\"type\":\"address\"}],\"name\":\"UNAUTHORIZED\",\"type\":\"error\"},{\"inputs\":[],\"name\":\"WRONG_CURRENCY\",\"type\":\"error\"},{\"anonymous\":false,\"inputs\":[{\"indexed\":true,\"internalType\":\"address\",\"name\":\"owner\",\"type\":\"address\"},{\"indexed\":true,\"internalType\":\"address\",\"name\":\"approved\",\"type\":\"address\"},{\"indexed\":true,\"internalType\":\"uint256\",\"name\":\"tokenId\",\"type\":\"uint256\"}],\"name\":\"Approval\",\"type\":\"event\"},{\"anonymous\":false,\"inputs\":[{\"indexed\":true,\"internalType\":\"address\",\"name\":\"owner\",\"type\":\"address\"},{\"indexed\":true,\"internalType\":\"address\",\"name\":\"operator\",\"type\":\"address\"},{\"indexed\":false,\"internalType\":\"bool\",\"name\":\"approved\",\"type\":\"bool\"}],\"name\":\"ApprovalForAll\",\"type\":\"event\"},{\"anonymous\":false,\"inputs\":[{\"indexed\":true,\"internalType\":\"address\",\"name\":\"beneficiary\",\"type\":\"address\"},{\"indexed\":false,\"internalType\":\"uint256\",\"name\":\"defifaTokenAmount\",\"type\":\"uint256\"},{\"indexed\":false,\"internalType\":\"uint256\",\"name\":\"baseProtocolTokenAmount\",\"type\":\"uint256\"},{\"indexed\":false,\"internalType\":\"address\",\"name\":\"caller\",\"type\":\"address\"}],\"name\":\"ClaimedTokens\",\"type\":\"event\"},{\"anonymous\":false,\"inputs\":[{\"indexed\":true,\"internalType\":\"address\",\"name\":\"delegator\",\"type\":\"address\"},{\"indexed\":true,\"internalType\":\"address\",\"name\":\"fromDelegate\",\"type\":\"address\"},{\"indexed\":true,\"internalType\":\"address\",\"name\":\"toDelegate\",\"type\":\"address\"}],\"name\":\"DelegateChanged\",\"type\":\"event\"},{\"anonymous\":false,\"inputs\":[{\"indexed\":true,\"internalType\":\"uint256\",\"name\":\"tokenId\",\"type\":\"uint256\"},{\"indexed\":true,\"internalType\":\"uint256\",\"name\":\"tierId\",\"type\":\"uint256\"},{\"indexed\":true,\"internalType\":\"address\",\"name\":\"beneficiary\",\"type\":\"address\"},{\"indexed\":false,\"internalType\":\"uint256\",\"name\":\"totalAmountContributed\",\"type\":\"uint256\"},{\"indexed\":false,\"internalType\":\"address\",\"name\":\"caller\",\"type\":\"address\"}],\"name\":\"Mint\",\"type\":\"event\"},{\"anonymous\":false,\"inputs\":[{\"indexed\":true,\"internalType\":\"uint256\",\"name\":\"tokenId\",\"type\":\"uint256\"},{\"indexed\":true,\"internalType\":\"uint256\",\"name\":\"tierId\",\"type\":\"uint256\"},{\"indexed\":true,\"internalType\":\"address\",\"name\":\"beneficiary\",\"type\":\"address\"},{\"indexed\":false,\"internalType\":\"address\",\"name\":\"caller\",\"type\":\"address\"}],\"name\":\"MintReservedToken\",\"type\":\"event\"},{\"anonymous\":false,\"inputs\":[{\"indexed\":true,\"internalType\":\"address\",\"name\":\"previousOwner\",\"type\":\"address\"},{\"indexed\":true,\"internalType\":\"address\",\"name\":\"newOwner\",\"type\":\"address\"}],\"name\":\"OwnershipTransferred\",\"type\":\"event\"},{\"anonymous\":false,\"inputs\":[{\"components\":[{\"internalType\":\"uint256\",\"name\":\"id\",\"type\":\"uint256\"},{\"internalType\":\"uint256\",\"name\":\"cashOutWeight\",\"type\":\"uint256\"}],\"indexed\":false,\"internalType\":\"struct DefifaTierCashOutWeight[]\",\"name\":\"_tierWeights\",\"type\":\"tuple[]\"},{\"indexed\":false,\"internalType\":\"address\",\"name\":\"caller\",\"type\":\"address\"}],\"name\":\"TierCashOutWeightsSet\",\"type\":\"event\"},{\"anonymous\":false,\"inputs\":[{\"indexed\":true,\"internalType\":\"address\",\"name\":\"delegate\",\"type\":\"address\"},{\"indexed\":true,\"internalType\":\"uint256\",\"name\":\"tierId\",\"type\":\"uint256\"},{\"indexed\":false,\"internalType\":\"uint256\",\"name\":\"previousBalance\",\"type\":\"uint256\"},{\"indexed\":false,\"internalType\":\"uint256\",\"name\":\"newBalance\",\"type\":\"uint256\"},{\"indexed\":false,\"internalType\":\"address\",\"name\":\"caller\",\"type\":\"address\"}],\"name\":\"TierDelegateAttestationsChanged\",\"type\":\"event\"},{\"anonymous\":false,\"inputs\":[{\"indexed\":true,\"internalType\":\"address\",\"name\":\"from\",\"type\":\"address\"},{\"indexed\":true,\"internalType\":\"address\",\"name\":\"to\",\"type\":\"address\"},{\"indexed\":true,\"internalType\":\"uint256\",\"name\":\"tokenId\",\"type\":\"uint256\"}],\"name\":\"Transfer\",\"type\":\"event\"},{\"inputs\":[],\"name\":\"DIRECTORY\",\"outputs\":[{\"internalType\":\"contract IJBDirectory\",\"name\":\"\",\"type\":\"address\"}],\"stateMutability\":\"view\",\"type\":\"function\"},{\"inputs\":[],\"name\":\"METADATA_ID_TARGET\",\"outputs\":[{\"internalType\":\"address\",\"name\":\"\",\"type\":\"address\"}],\"stateMutability\":\"view\",\"type\":\"function\"},{\"inputs\":[],\"name\":\"PROJECT_ID\",\"outputs\":[{\"internalType\":\"uint256\",\"name\":\"\",\"type\":\"uint256\"}],\"stateMutability\":\"view\",\"type\":\"function\"},{\"inputs\":[],\"name\":\"TOTAL_CASHOUT_WEIGHT\",\"outputs\":[{\"internalType\":\"uint256\",\"name\":\"\",\"type\":\"uint256\"}],\"stateMutability\":\"view\",\"type\":\"function\"},{\"inputs\":[{\"components\":[{\"internalType\":\"address\",\"name\":\"holder\",\"type\":\"address\"},{\"internalType\":\"uint256\",\"name\":\"projectId\",\"type\":\"uint256\"},{\"internalType\":\"uint256\",\"name\":\"rulesetId\",\"type\":\"uint256\"},{\"internalType\":\"uint256\",\"name\":\"cashOutCount\",\"type\":\"uint256\"},{\"components\":[{\"internalType\":\"address\",\"name\":\"token\",\"type\":\"address\"},{\"internalType\":\"uint8\",\"name\":\"decimals\",\"type\":\"uint8\"},{\"internalType\":\"uint32\",\"name\":\"currency\",\"type\":\"uint32\"},{\"internalType\":\"uint256\",\"name\":\"value\",\"type\":\"uint256\"}],\"internalType\":\"struct JBTokenAmount\",\"name\":\"reclaimedAmount\",\"type\":\"tuple\"},{\"components\":[{\"internalType\":\"address\",\"name\":\"token\",\"type\":\"address\"},{\"internalType\":\"uint8\",\"name\":\"decimals\",\"type\":\"uint8\"},{\"internalType\":\"uint32\",\"name\":\"currency\",\"type\":\"uint32\"},{\"internalType\":\"uint256\",\"name\":\"value\",\"type\":\"uint256\"}],\"internalType\":\"struct JBTokenAmount\",\"name\":\"forwardedAmount\",\"type\":\"tuple\"},{\"internalType\":\"uint256\",\"name\":\"cashOutTaxRate\",\"type\":\"uint256\"},{\"internalType\":\"address payable\",\"name\":\"beneficiary\",\"type\":\"address\"},{\"internalType\":\"bytes\",\"name\":\"hookMetadata\",\"type\":\"bytes\"},{\"internalType\":\"bytes\",\"name\":\"cashOutMetadata\",\"type\":\"bytes\"}],\"internalType\":\"struct JBAfterCashOutRecordedContext\",\"name\":\"context\",\"type\":\"tuple\"}],\"name\":\"afterCashOutRecordedWith\",\"stateMutability\":\"payable\",\"type\":\"function\"},{\"inputs\":[{\"components\":[{\"internalType\":\"address\",\"name\":\"payer\",\"type\":\"address\"},{\"internalType\":\"uint256\",\"name\":\"projectId\",\"type\":\"uint256\"},{\"internalType\":\"uint256\",\"name\":\"rulesetId\",\"type\":\"uint256\"},{\"components\":[{\"internalType\":\"address\",\"name\":\"token\",\"type\":\"address\"},{\"internalType\":\"uint8\",\"name\":\"decimals\",\"type\":\"uint8\"},{\"internalType\":\"uint32\",\"name\":\"currency\",\"type\":\"uint32\"},{\"internalType\":\"uint256\",\"name\":\"value\",\"type\":\"uint256\"}],\"internalType\":\"struct JBTokenAmount\",\"name\":\"amount\",\"type\":\"tuple\"},{\"components\":[{\"internalType\":\"address\",\"name\":\"token\",\"type\":\"address\"},{\"internalType\":\"uint8\",\"name\":\"decimals\",\"type\":\"uint8\"},{\"internalType\":\"uint32\",\"name\":\"currency\",\"type\":\"uint32\"},{\"internalType\":\"uint256\",\"name\":\"value\",\"type\":\"uint256\"}],\"internalType\":\"struct JBTokenAmount\",\"name\":\"forwardedAmount\",\"type\":\"tuple\"},{\"internalType\":\"uint256\",\"name\":\"weight\",\"type\":\"uint256\"},{\"internalType\":\"uint256\",\"name\":\"newlyIssuedTokenCount\",\"type\":\"uint256\"},{\"internalType\":\"address\",\"name\":\"beneficiary\",\"type\":\"address\"},{\"internalType\":\"bytes\",\"name\":\"hookMetadata\",\"type\":\"bytes\"},{\"internalType\":\"bytes\",\"name\":\"payerMetadata\",\"type\":\"bytes\"}],\"internalType\":\"struct JBAfterPayRecordedContext\",\"name\":\"context\",\"type\":\"tuple\"}],\"name\":\"afterPayRecordedWith\",\"stateMutability\":\"payable\",\"type\":\"function\"},{\"inputs\":[],\"name\":\"amountRedeemed\",\"outputs\":[{\"internalType\":\"uint256\",\"name\":\"\",\"type\":\"uint256\"}],\"stateMutability\":\"view\",\"type\":\"function\"},{\"inputs\":[{\"internalType\":\"address\",\"name\":\"to\",\"type\":\"address\"},{\"internalType\":\"uint256\",\"name\":\"tokenId\",\"type\":\"uint256\"}],\"name\":\"approve\",\"stateMutability\":\"nonpayable\",\"type\":\"function\"},{\"inputs\":[{\"internalType\":\"address\",\"name\":\"owner\",\"type\":\"address\"}],\"name\":\"balanceOf\",\"outputs\":[{\"internalType\":\"uint256\",\"name\":\"\",\"type\":\"uint256\"}],\"stateMutability\":\"view\",\"type\":\"function\"},{\"inputs\":[],\"name\":\"baseProtocolToken\",\"outputs\":[{\"internalType\":\"contract IERC20\",\"name\":\"\",\"type\":\"address\"}],\"stateMutability\":\"view\",\"type\":\"function\"},{\"inputs\":[],\"name\":\"baseURI\",\"outputs\":[{\"internalType\":\"string\",\"name\":\"\",\"type\":\"string\"}],\"stateMutability\":\"view\",\"type\":\"function\"},{\"inputs\":[{\"components\":[{\"internalType\":\"address\",\"name\":\"terminal\",\"type\":\"address\"},{\"internalType\":\"address\",\"name\":\"holder\",\"type\":\"address\"},{\"internalType\":\"uint256\",\"name\":\"projectId\",\"type\":\"uint256\"},{\"internalType\":\"uint256\",\"name\":\"rulesetId\",\"type\":\"uint256\"},{\"internalType\":\"uint256\",\"name\":\"cashOutCount\",\"type\":\"uint256\"},{\"internalType\":\"uint256\",\"name\":\"totalSupply\",\"type\":\"uint256\"},{\"components\":[{\"internalType\":\"address\",\"name\":\"token\",\"type\":\"address\"},{\"internalType\":\"uint8\",\"name\":\"decimals\",\"type\":\"uint8\"},{\"internalType\":\"uint32\",\"name\":\"currency\",\"type\":\"uint32\"},{\"internalType\":\"uint256\",\"name\":\"value\",\"type\":\"uint256\"}],\"internalType\":\"struct JBTokenAmount\",\"name\":\"surplus\",\"type\":\"tuple\"},{\"internalType\":\"bool\",\"name\":\"useTotalSurplus\",\"type\":\"bool\"},{\"internalType\":\"uint256\",\"name\":\"cashOutTaxRate\",\"type\":\"uint256\"},{\"internalType\":\"bytes\",\"name\":\"metadata\",\"type\":\"bytes\"}],\"internalType\":\"struct JBBeforeCashOutRecordedContext\",\"name\":\"context\",\"type\":\"tuple\"}],\"name\":\"beforeCashOutRecordedWith\",\"outputs\":[{\"internalType\":\"uint256\",\"name\":\"cashOutTaxRate\",\"type\":\"uint256\"},{\"internalType\":\"uint256\",\"name\":\"cashOutCount\",\"type\":\"uint256\"},{\"internalType\":\"uint256\",\"name\":\"totalSupply\",\"type\":\"uint256\"},{\"components\":[{\"internalType\":\"contract IJBCashOutHook\",\"name\":\"hook\",\"type\":\"address\"},{\"internalType\":\"uint256\",\"name\":\"amount\",\"type\":\"uint256\"},{\"internalType\":\"bytes\",\"name\":\"metadata\",\"type\":\"bytes\"}],\"internalType\":\"struct JBCashOutHookSpecification[]\",\"name\":\"hookSpecifications\",\"type\":\"tuple[]\"}],\"stateMutability\":\"view\",\"type\":\"function\"},{\"inputs\":[{\"components\":[{\"internalType\":\"address\",\"name\":\"terminal\",\"type\":\"address\"},{\"internalType\":\"address\",\"name\":\"payer\",\"type\":\"address\"},{\"components\":[{\"internalType\":\"address\",\"name\":\"token\",\"type\":\"address\"},{\"internalType\":\"uint8\",\"name\":\"decimals\",\"type\":\"uint8\"},{\"internalType\":\"uint32\",\"name\":\"currency\",\"type\":\"uint32\"},{\"internalType\":\"uint256\",\"name\":\"value\",\"type\":\"uint256\"}],\"internalType\":\"struct JBTokenAmount\",\"name\":\"amount\",\"type\":\"tuple\"},{\"internalType\":\"uint256\",\"name\":\"projectId\",\"type\":\"uint256\"},{\"internalType\":\"uint256\",\"name\":\"rulesetId\",\"type\":\"uint256\"},{\"internalType\":\"address\",\"name\":\"beneficiary\",\"type\":\"address\"},{\"internalType\":\"uint256\",\"name\":\"weight\",\"type\":\"uint256\"},{\"internalType\":\"uint256\",\"name\":\"reservedPercent\",\"type\":\"uint256\"},{\"internalType\":\"bytes\",\"name\":\"metadata\",\"type\":\"bytes\"}],\"internalType\":\"struct JBBeforePayRecordedContext\",\"name\":\"context\",\"type\":\"tuple\"}],\"name\":\"beforePayRecordedWith\",\"outputs\":[{\"internalType\":\"uint256\",\"name\":\"weight\",\"type\":\"uint256\"},{\"components\":[{\"internalType\":\"contract IJBPayHook\",\"name\":\"hook\",\"type\":\"address\"},{\"internalType\":\"uint256\",\"name\":\"amount\",\"type\":\"uint256\"},{\"internalType\":\"bytes\",\"name\":\"metadata\",\"type\":\"bytes\"}],\"internalType\":\"struct JBPayHookSpecification[]\",\"name\":\"hookSpecifications\",\"type\":\"tuple[]\"}],\"stateMutability\":\"view\",\"type\":\"function\"},{\"inputs\":[],\"name\":\"cashOutWeightIsSet\",\"outputs\":[{\"internalType\":\"bool\",\"name\":\"\",\"type\":\"bool\"}],\"stateMutability\":\"view\",\"type\":\"function\"},{\"inputs\":[{\"internalType\":\"uint256\",\"name\":\"_tokenId\",\"type\":\"uint256\"}],\"name\":\"cashOutWeightOf\",\"outputs\":[{\"internalType\":\"uint256\",\"name\":\"\",\"type\":\"uint256\"}],\"stateMutability\":\"view\",\"type\":\"function\"},{\"inputs\":[{\"internalType\":\"uint256[]\",\"name\":\"tokenIds\",\"type\":\"uint256[]\"},{\"components\":[{\"internalType\":\"address\",\"name\":\"terminal\",\"type\":\"address\"},{\"internalType\":\"address\",\"name\":\"holder\",\"type\":\"address\"},{\"internalType\":\"uint256\",\"name\":\"projectId\",\"type\":\"uint256\"},{\"internalType\":\"uint256\",\"name\":\"rulesetId\",\"type\":\"uint256\"},{\"internalType\":\"uint256\",\"name\":\"cashOutCount\",\"type\":\"uint256\"},{\"internalType\":\"uint256\",\"name\":\"totalSupply\",\"type\":\"uint256\"},{\"components\":[{\"internalType\":\"address\",\"name\":\"token\",\"type\":\"address\"},{\"internalType\":\"uint8\",\"name\":\"decimals\",\"type\":\"uint8\"},{\"internalType\":\"uint32\",\"name\":\"currency\",\"type\":\"uint32\"},{\"internalType\":\"uint256\",\"name\":\"value\",\"type\":\"uint256\"}],\"internalType\":\"struct JBTokenAmount\",\"name\":\"surplus\",\"type\":\"tuple\"},{\"internalType\":\"bool\",\"name\":\"useTotalSurplus\",\"type\":\"bool\"},{\"internalType\":\"uint256\",\"name\":\"cashOutTaxRate\",\"type\":\"uint256\"},{\"internalType\":\"bytes\",\"name\":\"metadata\",\"type\":\"bytes\"}],\"internalType\":\"struct JBBeforeCashOutRecordedContext\",\"name\":\"\",\"type\":\"tuple\"}],\"name\":\"cashOutWeightOf\",\"outputs\":[{\"internalType\":\"uint256\",\"name\":\"cumulativeWeight\",\"type\":\"uint256\"}],\"stateMutability\":\"view\",\"type\":\"function\"},{\"inputs\":[],\"name\":\"codeOrigin\",\"outputs\":[{\"internalType\":\"address\",\"name\":\"\",\"type\":\"address\"}],\"stateMutability\":\"view\",\"type\":\"function\"},{\"inputs\":[],\"name\":\"contractURI\",\"outputs\":[{\"internalType\":\"string\",\"name\":\"\",\"type\":\"string\"}],\"stateMutability\":\"view\",\"type\":\"function\"},{\"inputs\":[{\"internalType\":\"uint256\",\"name\":\"_tierId\",\"type\":\"uint256\"}],\"name\":\"currentSupplyOfTier\",\"outputs\":[{\"internalType\":\"uint256\",\"name\":\"\",\"type\":\"uint256\"}],\"stateMutability\":\"view\",\"type\":\"function\"},{\"inputs\":[],\"name\":\"defaultAttestationDelegate\",\"outputs\":[{\"internalType\":\"address\",\"name\":\"\",\"type\":\"address\"}],\"stateMutability\":\"view\",\"type\":\"function\"},{\"inputs\":[],\"name\":\"defifaToken\",\"outputs\":[{\"internalType\":\"contract IERC20\",\"name\":\"\",\"type\":\"address\"}],\"stateMutability\":\"view\",\"type\":\"function\"},{\"inputs\":[{\"internalType\":\"uint256\",\"name\":\"_tokenId\",\"type\":\"uint256\"}],\"name\":\"firstOwnerOf\",\"outputs\":[{\"internalType\":\"address\",\"name\":\"\",\"type\":\"address\"}],\"stateMutability\":\"view\",\"type\":\"function\"},{\"inputs\":[],\"name\":\"gamePhaseReporter\",\"outputs\":[{\"internalType\":\"contract IDefifaGamePhaseReporter\",\"name\":\"\",\"type\":\"address\"}],\"stateMutability\":\"view\",\"type\":\"function\"},{\"inputs\":[],\"name\":\"gamePotReporter\",\"outputs\":[{\"internalType\":\"contract IDefifaGamePotReporter\",\"name\":\"\",\"type\":\"address\"}],\"stateMutability\":\"view\",\"type\":\"function\"},{\"inputs\":[{\"internalType\":\"uint256\",\"name\":\"tokenId\",\"type\":\"uint256\"}],\"name\":\"getApproved\",\"outputs\":[{\"internalType\":\"address\",\"name\":\"\",\"type\":\"address\"}],\"stateMutability\":\"view\",\"type\":\"function\"},{\"inputs\":[{\"internalType\":\"address\",\"name\":\"_account\",\"type\":\"address\"},{\"internalType\":\"uint256\",\"name\":\"_tier\",\"type\":\"uint256\"},{\"internalType\":\"uint48\",\"name\":\"_timestamp\",\"type\":\"uint48\"}],\"name\":\"getPastTierAttestationUnitsOf\",\"outputs\":[{\"internalType\":\"uint256\",\"name\":\"\",\"type\":\"uint256\"}],\"stateMutability\":\"view\",\"type\":\"function\"},{\"inputs\":[{\"internalType\":\"uint256\",\"name\":\"_tier\",\"type\":\"uint256\"},{\"internalType\":\"uint48\",\"name\":\"_timestamp\",\"type\":\"uint48\"}],\"name\":\"getPastTierTotalAttestationUnitsOf\",\"outputs\":[{\"internalType\":\"uint256\",\"name\":\"\",\"type\":\"uint256\"}],\"stateMutability\":\"view\",\"type\":\"function\"},{\"inputs\":[{\"internalType\":\"address\",\"name\":\"_account\",\"type\":\"address\"},{\"internalType\":\"uint256\",\"name\":\"_tier\",\"type\":\"uint256\"}],\"name\":\"getTierAttestationUnitsOf\",\"outputs\":[{\"internalType\":\"uint256\",\"name\":\"\",\"type\":\"uint256\"}],\"stateMutability\":\"view\",\"type\":\"function\"},{\"inputs\":[{\"internalType\":\"address\",\"name\":\"_account\",\"type\":\"address\"},{\"internalType\":\"uint256\",\"name\":\"_tier\",\"type\":\"uint256\"}],\"name\":\"getTierDelegateOf\",\"outputs\":[{\"internalType\":\"address\",\"name\":\"\",\"type\":\"address\"}],\"stateMutability\":\"view\",\"type\":\"function\"},{\"inputs\":[{\"internalType\":\"uint256\",\"name\":\"_tier\",\"type\":\"uint256\"}],\"name\":\"getTierTotalAttestationUnitsOf\",\"outputs\":[{\"internalType\":\"uint256\",\"name\":\"\",\"type\":\"uint256\"}],\"stateMutability\":\"view\",\"type\":\"function\"},{\"inputs\":[{\"internalType\":\"uint256\",\"name\":\"\",\"type\":\"uint256\"},{\"components\":[{\"internalType\":\"uint48\",\"name\":\"cycleNumber\",\"type\":\"uint48\"},{\"internalType\":\"uint48\",\"name\":\"id\",\"type\":\"uint48\"},{\"internalType\":\"uint48\",\"name\":\"basedOnId\",\"type\":\"uint48\"},{\"internalType\":\"uint48\",\"name\":\"start\",\"type\":\"uint48\"},{\"internalType\":\"uint32\",\"name\":\"duration\",\"type\":\"uint32\"},{\"internalType\":\"uint112\",\"name\":\"weight\",\"type\":\"uint112\"},{\"internalType\":\"uint32\",\"name\":\"weightCutPercent\",\"type\":\"uint32\"},{\"internalType\":\"contract IJBRulesetApprovalHook\",\"name\":\"approvalHook\",\"type\":\"address\"},{\"internalType\":\"uint256\",\"name\":\"metadata\",\"type\":\"uint256\"}],\"internalType\":\"struct JBRuleset\",\"name\":\"\",\"type\":\"tuple\"},{\"internalType\":\"address\",\"name\":\"\",\"type\":\"address\"}],\"name\":\"hasMintPermissionFor\",\"outputs\":[{\"internalType\":\"bool\",\"name\":\"\",\"type\":\"bool\"}],\"stateMutability\":\"pure\",\"type\":\"function\"},{\"inputs\":[{\"internalType\":\"uint256\",\"name\":\"_gameId\",\"type\":\"uint256\"},{\"internalType\":\"string\",\"name\":\"_name\",\"type\":\"string\"},{\"internalType\":\"string\",\"name\":\"_symbol\",\"type\":\"string\"},{\"internalType\":\"contract IJBRulesets\",\"name\":\"_rulesets\",\"type\":\"address\"},{\"internalType\":\"string\",\"name\":\"_baseUri\",\"type\":\"string\"},{\"internalType\":\"contract IJB721TokenUriResolver\",\"name\":\"_tokenUriResolver\",\"type\":\"address\"},{\"internalType\":\"string\",\"name\":\"_contractUri\",\"type\":\"string\"},{\"components\":[{\"internalType\":\"uint104\",\"name\":\"price\",\"type\":\"uint104\"},{\"internalType\":\"uint32\",\"name\":\"initialSupply\",\"type\":\"uint32\"},{\"internalType\":\"uint32\",\"name\":\"votingUnits\",\"type\":\"uint32\"},{\"internalType\":\"uint16\",\"name\":\"reserveFrequency\",\"type\":\"uint16\"},{\"internalType\":\"address\",\"name\":\"reserveBeneficiary\",\"type\":\"address\"},{\"internalType\":\"bytes32\",\"name\":\"encodedIPFSUri\",\"type\":\"bytes32\"},{\"internalType\":\"uint24\",\"name\":\"category\",\"type\":\"uint24\"},{\"internalType\":\"uint8\",\"name\":\"discountPercent\",\"type\":\"uint8\"},{\"internalType\":\"bool\",\"name\":\"allowOwnerMint\",\"type\":\"bool\"},{\"internalType\":\"bool\",\"name\":\"useReserveBeneficiaryAsDefault\",\"type\":\"bool\"},{\"internalType\":\"bool\",\"name\":\"transfersPausable\",\"type\":\"bool\"},{\"internalType\":\"bool\",\"name\":\"useVotingUnits\",\"type\":\"bool\"},{\"internalType\":\"bool\",\"name\":\"cannotBeRemoved\",\"type\":\"bool\"},{\"internalType\":\"bool\",\"name\":\"cannotIncreaseDiscountPercent\",\"type\":\"bool\"}],\"internalType\":\"struct JB721TierConfig[]\",\"name\":\"_tiers\",\"type\":\"tuple[]\"},{\"internalType\":\"uint48\",\"name\":\"_currency\",\"type\":\"uint48\"},{\"internalType\":\"contract IJB721TiersHookStore\",\"name\":\"_store\",\"type\":\"address\"},{\"internalType\":\"contract IDefifaGamePhaseReporter\",\"name\":\"_gamePhaseReporter\",\"type\":\"address\"},{\"internalType\":\"contract IDefifaGamePotReporter\",\"name\":\"_gamePotReporter\",\"type\":\"address\"},{\"internalType\":\"address\",\"name\":\"_defaultAttestationDelegate\",\"type\":\"address\"},{\"internalType\":\"string[]\",\"name\":\"_tierNames\",\"type\":\"string[]\"}],\"name\":\"initialize\",\"stateMutability\":\"nonpayable\",\"type\":\"function\"},{\"inputs\":[{\"internalType\":\"address\",\"name\":\"owner\",\"type\":\"address\"},{\"internalType\":\"address\",\"name\":\"operator\",\"type\":\"address\"}],\"name\":\"isApprovedForAll\",\"outputs\":[{\"internalType\":\"bool\",\"name\":\"\",\"type\":\"bool\"}],\"stateMutability\":\"view\",\"type\":\"function\"},{\"inputs\":[{\"components\":[{\"internalType\":\"uint32\",\"name\":\"tierId\",\"type\":\"uint32\"},{\"internalType\":\"uint16\",\"name\":\"count\",\"type\":\"uint16\"}],\"internalType\":\"struct JB721TiersMintReservesConfig[]\",\"name\":\"_mintReservesForTiersData\",\"type\":\"tuple[]\"}],\"name\":\"mintReservesFor\",\"stateMutability\":\"nonpayable\",\"type\":\"function\"},{\"inputs\":[{\"internalType\":\"uint256\",\"name\":\"_tierId\",\"type\":\"uint256\"},{\"internalType\":\"uint256\",\"name\":\"_count\",\"type\":\"uint256\"}],\"name\":\"mintReservesFor\",\"stateMutability\":\"nonpayable\",\"type\":\"function\"},{\"inputs\":[],\"name\":\"name\",\"outputs\":[{\"internalType\":\"string\",\"name\":\"\",\"type\":\"string\"}],\"stateMutability\":\"view\",\"type\":\"function\"},{\"inputs\":[],\"name\":\"owner\",\"outputs\":[{\"internalType\":\"address\",\"name\":\"\",\"type\":\"address\"}],\"stateMutability\":\"view\",\"type\":\"function\"},{\"inputs\":[{\"internalType\":\"uint256\",\"name\":\"tokenId\",\"type\":\"uint256\"}],\"name\":\"ownerOf\",\"outputs\":[{\"internalType\":\"address\",\"name\":\"\",\"type\":\"address\"}],\"stateMutability\":\"view\",\"type\":\"function\"},{\"inputs\":[],\"name\":\"pricingCurrency\",\"outputs\":[{\"internalType\":\"uint256\",\"name\":\"\",\"type\":\"uint256\"}],\"stateMutability\":\"view\",\"type\":\"function\"},{\"inputs\":[],\"name\":\"renounceOwnership\",\"stateMutability\":\"nonpayable\",\"type\":\"function\"},{\"inputs\":[],\"name\":\"rulesets\",\"outputs\":[{\"internalType\":\"contract IJBRulesets\",\"name\":\"\",\"type\":\"address\"}],\"stateMutability\":\"view\",\"type\":\"function\"},{\"inputs\":[{\"internalType\":\"address\",\"name\":\"from\",\"type\":\"address\"},{\"internalType\":\"address\",\"name\":\"to\",\"type\":\"address\"},{\"internalType\":\"uint256\",\"name\":\"tokenId\",\"type\":\"uint256\"}],\"name\":\"safeTransferFrom\",\"stateMutability\":\"nonpayable\",\"type\":\"function\"},{\"inputs\":[{\"internalType\":\"address\",\"name\":\"from\",\"type\":\"address\"},{\"internalType\":\"address\",\"name\":\"to\",\"type\":\"address\"},{\"internalType\":\"uint256\",\"name\":\"tokenId\",\"type\":\"uint256\"},{\"internalType\":\"bytes\",\"name\":\"data\",\"type\":\"bytes\"}],\"name\":\"safeTransferFrom\",\"stateMutability\":\"nonpayable\",\"type\":\"function\"},{\"inputs\":[{\"internalType\":\"address\",\"name\":\"operator\",\"type\":\"address\"},{\"internalType\":\"bool\",\"name\":\"approved\",\"type\":\"bool\"}],\"name\":\"setApprovalForAll\",\"stateMutability\":\"nonpayable\",\"type\":\"function\"},{\"inputs\":[{\"components\":[{\"internalType\":\"uint256\",\"name\":\"id\",\"type\":\"uint256\"},{\"internalType\":\"uint256\",\"name\":\"cashOutWeight\",\"type\":\"uint256\"}],\"internalType\":\"struct DefifaTierCashOutWeight[]\",\"name\":\"_tierWeights\",\"type\":\"tuple[]\"}],\"name\":\"setTierCashOutWeightsTo\",\"stateMutability\":\"nonpayable\",\"type\":\"function\"},{\"inputs\":[{\"internalType\":\"address\",\"name\":\"_delegatee\",\"type\":\"address\"},{\"internalType\":\"uint256\",\"name\":\"_tierId\",\"type\":\"uint256\"}],\"name\":\"setTierDelegateTo\",\"stateMutability\":\"nonpayable\",\"type\":\"function\"},{\"inputs\":[{\"components\":[{\"internalType\":\"address\",\"name\":\"delegatee\",\"type\":\"address\"},{\"internalType\":\"uint256\",\"name\":\"tierId\",\"type\":\"uint256\"}],\"internalType\":\"struct DefifaDelegation[]\",\"name\":\"_setTierDelegatesData\",\"type\":\"tuple[]\"}],\"name\":\"setTierDelegatesTo\",\"stateMutability\":\"nonpayable\",\"type\":\"function\"},{\"inputs\":[],\"name\":\"store\",\"outputs\":[{\"internalType\":\"contract IJB721TiersHookStore\",\"name\":\"\",\"type\":\"address\"}],\"stateMutability\":\"view\",\"type\":\"function\"},{\"inputs\":[{\"internalType\":\"bytes4\",\"name\":\"_interfaceId\",\"type\":\"bytes4\"}],\"name\":\"supportsInterface\",\"outputs\":[{\"internalType\":\"bool\",\"name\":\"\",\"type\":\"bool\"}],\"stateMutability\":\"view\",\"type\":\"function\"},{\"inputs\":[],\"name\":\"symbol\",\"outputs\":[{\"internalType\":\"string\",\"name\":\"\",\"type\":\"string\"}],\"stateMutability\":\"view\",\"type\":\"function\"},{\"inputs\":[],\"name\":\"tierCashOutWeights\",\"outputs\":[{\"internalType\":\"uint256[128]\",\"name\":\"\",\"type\":\"uint256[128]\"}],\"stateMutability\":\"view\",\"type\":\"function\"},{\"inputs\":[{\"internalType\":\"uint256\",\"name\":\"_tierId\",\"type\":\"uint256\"}],\"name\":\"tierNameOf\",\"outputs\":[{\"internalType\":\"string\",\"name\":\"\",\"type\":\"string\"}],\"stateMutability\":\"view\",\"type\":\"function\"},{\"inputs\":[],\"name\":\"tokenAllocations\",\"outputs\":[{\"internalType\":\"uint256\",\"name\":\"defifaTokenAllocation\",\"type\":\"uint256\"},{\"internalType\":\"uint256\",\"name\":\"baseProtocolTokenAllocation\",\"type\":\"uint256\"}],\"stateMutability\":\"view\",\"type\":\"function\"},{\"inputs\":[{\"internalType\":\"uint256\",\"name\":\"_tokenId\",\"type\":\"uint256\"}],\"name\":\"tokenURI\",\"outputs\":[{\"internalType\":\"string\",\"name\":\"\",\"type\":\"string\"}],\"stateMutability\":\"view\",\"type\":\"function\"},{\"inputs\":[{\"internalType\":\"uint256[]\",\"name\":\"_tokenIds\",\"type\":\"uint256[]\"}],\"name\":\"tokensClaimableFor\",\"outputs\":[{\"internalType\":\"uint256\",\"name\":\"defifaTokenAmount\",\"type\":\"uint256\"},{\"internalType\":\"uint256\",\"name\":\"baseProtocolTokenAmount\",\"type\":\"uint256\"}],\"stateMutability\":\"view\",\"type\":\"function\"},{\"inputs\":[{\"internalType\":\"uint256\",\"name\":\"\",\"type\":\"uint256\"}],\"name\":\"tokensRedeemedFrom\",\"outputs\":[{\"internalType\":\"uint256\",\"name\":\"\",\"type\":\"uint256\"}],\"stateMutability\":\"view\",\"type\":\"function\"},{\"inputs\":[{\"components\":[{\"internalType\":\"address\",\"name\":\"terminal\",\"type\":\"address\"},{\"internalType\":\"address\",\"name\":\"holder\",\"type\":\"address\"},{\"internalType\":\"uint256\",\"name\":\"projectId\",\"type\":\"uint256\"},{\"internalType\":\"uint256\",\"name\":\"rulesetId\",\"type\":\"uint256\"},{\"internalType\":\"uint256\",\"name\":\"cashOutCount\",\"type\":\"uint256\"},{\"internalType\":\"uint256\",\"name\":\"totalSupply\",\"type\":\"uint256\"},{\"components\":[{\"internalType\":\"address\",\"name\":\"token\",\"type\":\"address\"},{\"internalType\":\"uint8\",\"name\":\"decimals\",\"type\":\"uint8\"},{\"internalType\":\"uint32\",\"name\":\"currency\",\"type\":\"uint32\"},{\"internalType\":\"uint256\",\"name\":\"value\",\"type\":\"uint256\"}],\"internalType\":\"struct JBTokenAmount\",\"name\":\"surplus\",\"type\":\"tuple\"},{\"internalType\":\"bool\",\"name\":\"useTotalSurplus\",\"type\":\"bool\"},{\"internalType\":\"uint256\",\"name\":\"cashOutTaxRate\",\"type\":\"uint256\"},{\"internalType\":\"bytes\",\"name\":\"metadata\",\"type\":\"bytes\"}],\"internalType\":\"struct JBBeforeCashOutRecordedContext\",\"name\":\"\",\"type\":\"tuple\"}],\"name\":\"totalCashOutWeight\",\"outputs\":[{\"internalType\":\"uint256\",\"name\":\"\",\"type\":\"uint256\"}],\"stateMutability\":\"view\",\"type\":\"function\"},{\"inputs\":[{\"internalType\":\"address\",\"name\":\"from\",\"type\":\"address\"},{\"internalType\":\"address\",\"name\":\"to\",\"type\":\"address\"},{\"internalType\":\"uint256\",\"name\":\"tokenId\",\"type\":\"uint256\"}],\"name\":\"transferFrom\",\"stateMutability\":\"nonpayable\",\"type\":\"function\"},{\"inputs\":[{\"internalType\":\"address\",\"name\":\"newOwner\",\"type\":\"address\"}],\"name\":\"transferOwnership\",\"stateMutability\":\"nonpayable\",\"type\":\"function\"}],\"devdoc\":{\"kind\":\"dev\",\"methods\":{\"afterCashOutRecordedWith((address,uint256,uint256,uint256,(address,uint8,uint32,uint256),(address,uint8,uint32,uint256),uint256,address,bytes,bytes))\":{\"details\":\"Reverts if the calling contract is not one of the project's terminals.\",\"params\":{\"context\":\"The cash out context passed in by the terminal.\"}},\"afterPayRecordedWith((address,uint256,uint256,(address,uint8,uint32,uint256),(address,uint8,uint32,uint256),uint256,uint256,address,bytes,bytes))\":{\"details\":\"Reverts if the calling contract is not one of the project's terminals.\",\"params\":{\"context\":\"The payment context passed in by the terminal.\"}},\"approve(address,uint256)\":{\"details\":\"See {IERC721-approve}.\"},\"balanceOf(address)\":{\"details\":\"See {IERC721-balanceOf}.\"},\"beforeCashOutRecordedWith((address,address,uint256,uint256,uint256,uint256,(address,uint8,uint32,uint256),bool,uint256,bytes))\":{\"details\":\"Sets this contract as the cash out hook. Part of `IJBRulesetDataHook`.This function is used for NFT cash outs, and will only be called if the project's ruleset has `useDataHookForCashOut` set to `true`.\",\"params\":{\"context\":\"The cash out context passed to this contract by the `cashOutTokensOf(...)` function.\"},\"returns\":{\"cashOutCount\":\"The amount of tokens that should be considered cashed out.\",\"cashOutTaxRate\":\"The cash out tax rate influencing the reclaim amount.\",\"hookSpecifications\":\"The amount and data to send to cash out hooks (this contract) instead of returning to the beneficiary.\",\"totalSupply\":\"The total amount of tokens that are considered to be existing.\"}},\"beforePayRecordedWith((address,address,(address,uint8,uint32,uint256),uint256,uint256,address,uint256,uint256,bytes))\":{\"details\":\"Sets this contract as the pay hook. Part of `IJBRulesetDataHook`.\",\"params\":{\"context\":\"The payment context passed to this contract by the `pay(...)` function.\"},\"returns\":{\"hookSpecifications\":\"The amount and data to send to pay hooks (this contract) instead of adding to the terminal's balance.\",\"weight\":\"The new `weight` to use, overriding the ruleset's `weight`.\"}},\"cashOutWeightOf(uint256)\":{\"params\":{\"_tokenId\":\"The ID of the token to get the cashOut weight of.\"},\"returns\":{\"_0\":\"The weight.\"}},\"cashOutWeightOf(uint256[],(address,address,uint256,uint256,uint256,uint256,(address,uint8,uint32,uint256),bool,uint256,bytes))\":{\"params\":{\"tokenIds\":\"The IDs of the tokens to get the cumulative cashOut weight of.\"},\"returns\":{\"cumulativeWeight\":\"The weight.\"}},\"currentSupplyOfTier(uint256)\":{\"params\":{\"_tierId\":\"The ID of the tier to get the current supply of.\"}},\"firstOwnerOf(uint256)\":{\"params\":{\"_tokenId\":\"The ID of the token to get the first owner of.\"},\"returns\":{\"_0\":\"The first owner of the token.\"}},\"getApproved(uint256)\":{\"details\":\"See {IERC721-getApproved}.\"},\"getPastTierAttestationUnitsOf(address,uint256,uint48)\":{\"params\":{\"_account\":\"The address to check.\",\"_tier\":\"The tier to check within.\",\"_timestamp\":\"the timestamp to check the attestation power at.\"}},\"getPastTierTotalAttestationUnitsOf(uint256,uint48)\":{\"params\":{\"_tier\":\"The tier to check.\",\"_timestamp\":\"The timestamp to check the total attestation units at.\"}},\"getTierAttestationUnitsOf(address,uint256)\":{\"params\":{\"_account\":\"The address to check.\",\"_tier\":\"The tier to check within.\"}},\"getTierDelegateOf(address,uint256)\":{\"params\":{\"_account\":\"The account to check for a delegate of.\",\"_tier\":\"the tier to check within.\"}},\"getTierTotalAttestationUnitsOf(uint256)\":{\"params\":{\"_tier\":\"The tier to check.\"}},\"initialize(uint256,string,string,address,string,address,string,(uint104,uint32,uint32,uint16,address,bytes32,uint24,uint8,bool,bool,bool,bool,bool,bool)[],uint48,address,address,address,address,string[])\":{\"params\":{\"_baseUri\":\"A URI to use as a base for full token URIs.\",\"_contractUri\":\"A URI where contract metadata can be found.\",\"_currency\":\"The currency that the tier contribution floors are denoted in.\",\"_defaultAttestationDelegate\":\"The address that'll be set as the attestation delegate by default.\",\"_gameId\":\"The ID of the project this contract's functionality applies to.\",\"_gamePhaseReporter\":\"The contract that reports the game phase.\",\"_gamePotReporter\":\"The contract that reports the game's pot.\",\"_name\":\"The name of the token.\",\"_rulesets\":\"A contract storing all ruleset configurations.\",\"_store\":\"A contract that stores the NFT's data.\",\"_symbol\":\"The symbol that the token should be represented by.\",\"_tierNames\":\"The names of each tier.\",\"_tiers\":\"The tiers to set.\",\"_tokenUriResolver\":\"A contract responsible for resolving the token URI for each token ID.\"}},\"isApprovedForAll(address,address)\":{\"details\":\"See {IERC721-isApprovedForAll}.\"},\"mintReservesFor((uint32,uint16)[])\":{\"params\":{\"_mintReservesForTiersData\":\"Contains information about how many reserved tokens to mint for each tier.\"}},\"mintReservesFor(uint256,uint256)\":{\"params\":{\"_count\":\"The number of reserved tokens to mint.\",\"_tierId\":\"The ID of the tier to mint within.\"}},\"name()\":{\"details\":\"See {IERC721Metadata-name}.\"},\"owner()\":{\"details\":\"Returns the address of the current owner.\"},\"ownerOf(uint256)\":{\"details\":\"See {IERC721-ownerOf}.\"},\"renounceOwnership()\":{\"details\":\"Leaves the contract without owner. It will not be possible to call `onlyOwner` functions. Can only be called by the current owner. NOTE: Renouncing ownership will leave the contract without an owner, thereby disabling any functionality that is only available to the owner.\"},\"safeTransferFrom(address,address,uint256)\":{\"details\":\"See {IERC721-safeTransferFrom}.\"},\"safeTransferFrom(address,address,uint256,bytes)\":{\"details\":\"See {IERC721-safeTransferFrom}.\"},\"setApprovalForAll(address,bool)\":{\"details\":\"See {IERC721-setApprovalForAll}.\"},\"setTierCashOutWeightsTo((uint256,uint256)[])\":{\"details\":\"Only this contract's owner can set tier cashOut weights.\",\"params\":{\"_tierWeights\":\"The tier weights to set.\"}},\"setTierDelegateTo(address,uint256)\":{\"params\":{\"_delegatee\":\"The account to delegate tier attestation units to.\",\"_tierId\":\"The ID of the tier to delegate attestation units for.\"}},\"setTierDelegatesTo((address,uint256)[])\":{\"params\":{\"_setTierDelegatesData\":\"An array of tiers to set delegates for.\"}},\"supportsInterface(bytes4)\":{\"details\":\"See {IERC165-supportsInterface}.\",\"params\":{\"_interfaceId\":\"The ID of the interface to check for adherence to.\"}},\"symbol()\":{\"details\":\"See {IERC721Metadata-symbol}.\"},\"tierCashOutWeights()\":{\"returns\":{\"_0\":\"The array of weights, indexed by tier.\"}},\"tokenAllocations()\":{\"returns\":{\"baseProtocolTokenAllocation\":\"The $BASE_PROTOCOL token allocation.\",\"defifaTokenAllocation\":\"The $DEFIFA token allocation.\"}},\"tokenURI(uint256)\":{\"details\":\"Defer to the tokenUriResolver if set, otherwise, use the tokenUri set with the token's tier.\",\"params\":{\"_tokenId\":\"The ID of the token to get the tier URI for.\"},\"returns\":{\"_0\":\"The token URI corresponding with the tier or the tokenUriResolver URI.\"}},\"tokensClaimableFor(uint256[])\":{\"params\":{\"_tokenIds\":\"The IDs of the tokens that justify a $DEFIFA claim.\"},\"returns\":{\"baseProtocolTokenAmount\":\"The amount of $BASE_PROTOCOL that can be claimed.\",\"defifaTokenAmount\":\"The amount of $DEFIFA that can be claimed.\"}},\"totalCashOutWeight((address,address,uint256,uint256,uint256,uint256,(address,uint8,uint32,uint256),bool,uint256,bytes))\":{\"details\":\"An NFT's cash out weight is its price.\",\"returns\":{\"_0\":\"weight The total cash out weight.\"}},\"transferFrom(address,address,uint256)\":{\"details\":\"See {IERC721-transferFrom}.\"},\"transferOwnership(address)\":{\"details\":\"Transfers ownership of the contract to a new account (`newOwner`). Can only be called by the current owner.\"}},\"version\":1},\"userdoc\":{\"kind\":\"user\",\"methods\":{\"DIRECTORY()\":{\"notice\":\"The directory of terminals and controllers for projects.\"},\"METADATA_ID_TARGET()\":{\"notice\":\"The ID used when parsing metadata.\"},\"PROJECT_ID()\":{\"notice\":\"The ID of the project that this contract is associated with.\"},\"TOTAL_CASHOUT_WEIGHT()\":{\"notice\":\"The total cashOut weight that can be divided among tiers.\"},\"afterCashOutRecordedWith((address,uint256,uint256,uint256,(address,uint8,uint32,uint256),(address,uint8,uint32,uint256),uint256,address,bytes,bytes))\":{\"notice\":\"Burns the specified NFTs upon token holder cash out, reclaiming funds from the project's balance for `context.beneficiary`. Part of `IJBCashOutHook`.\"},\"afterPayRecordedWith((address,uint256,uint256,(address,uint8,uint32,uint256),(address,uint8,uint32,uint256),uint256,uint256,address,bytes,bytes))\":{\"notice\":\"Mints one or more NFTs to the `context.benficiary` upon payment if conditions are met. Part of `IJBPayHook`.\"},\"amountRedeemed()\":{\"notice\":\"The amount that has been redeemed from ths game, refunds are not counted.\"},\"baseProtocolToken()\":{\"notice\":\"The $BASE_PROTOCOL token that is expected to be issued from paying fees.\"},\"baseURI()\":{\"notice\":\"The common base for the tokenUri's\"},\"beforeCashOutRecordedWith((address,address,uint256,uint256,uint256,uint256,(address,uint8,uint32,uint256),bool,uint256,bytes))\":{\"notice\":\"The data calculated before a cash out is recorded in the terminal store. This data is provided to the terminal's `cashOutTokensOf(...)` transaction.\"},\"beforePayRecordedWith((address,address,(address,uint8,uint32,uint256),uint256,uint256,address,uint256,uint256,bytes))\":{\"notice\":\"The data calculated before a payment is recorded in the terminal store. This data is provided to the terminal's `pay(...)` transaction.\"},\"cashOutWeightIsSet()\":{\"notice\":\"A flag indicating if the cashout weights has been set.\"},\"cashOutWeightOf(uint256)\":{\"notice\":\"The weight the given token ID has in cashOuts.\"},\"cashOutWeightOf(uint256[],(address,address,uint256,uint256,uint256,uint256,(address,uint8,uint32,uint256),bool,uint256,bytes))\":{\"notice\":\"The cumulative weight the given token IDs have in cashOuts compared to the `_totalCashOutWeight`.\"},\"codeOrigin()\":{\"notice\":\"The address of the origin 'DefifaDelegate', used to check in the init if the contract is the original or not\"},\"constructor\":{\"notice\":\"The $DEFIFA token that is expected to be issued from paying fees.The $BASE_PROTOCOL token that is expected to be issued from paying fees.\"},\"contractURI()\":{\"notice\":\"Contract metadata uri.\"},\"currentSupplyOfTier(uint256)\":{\"notice\":\"The amount of tokens of a tier that are currently in circulation.\"},\"defaultAttestationDelegate()\":{\"notice\":\"The address that'll be set as the attestation delegate by default.\"},\"defifaToken()\":{\"notice\":\"The $DEFIFA token that is expected to be issued from paying fees.\"},\"firstOwnerOf(uint256)\":{\"notice\":\"The first owner of each token ID, which corresponds to the address that originally contributed to the project to receive the NFT.\"},\"gamePhaseReporter()\":{\"notice\":\"The contract reporting game phases.\"},\"gamePotReporter()\":{\"notice\":\"The contract reporting the game pot.\"},\"getPastTierAttestationUnitsOf(address,uint256,uint48)\":{\"notice\":\"Returns the past attestation units of a specific address for a specific tier.\"},\"getPastTierTotalAttestationUnitsOf(uint256,uint48)\":{\"notice\":\"Returns the total amount of attestation units that has existed for a tier.\"},\"getTierAttestationUnitsOf(address,uint256)\":{\"notice\":\"Returns the current attestation power of an address for a specific tier.\"},\"getTierDelegateOf(address,uint256)\":{\"notice\":\"Returns the delegate of an account for specific tier.\"},\"getTierTotalAttestationUnitsOf(uint256)\":{\"notice\":\"Returns the total amount of attestation units that exists for a tier.\"},\"hasMintPermissionFor(uint256,(uint48,uint48,uint48,uint48,uint32,uint112,uint32,address,uint256),address)\":{\"notice\":\"Required by the IJBRulesetDataHook interfaces. Return false to not leak any permissions.\"},\"initialize(uint256,string,string,address,string,address,string,(uint104,uint32,uint32,uint16,address,bytes32,uint24,uint8,bool,bool,bool,bool,bool,bool)[],uint48,address,address,address,address,string[])\":{\"notice\":\"Initialize a clone of this contract.\"},\"mintReservesFor((uint32,uint16)[])\":{\"notice\":\"Mint reserved tokens within the tier for the provided value.\"},\"mintReservesFor(uint256,uint256)\":{\"notice\":\"Mint reserved tokens within the tier for the provided value.\"},\"pricingCurrency()\":{\"notice\":\"The currency that is accepted when minting tier NFTs.\"},\"rulesets()\":{\"notice\":\"The contract storing all funding cycle configurations.\"},\"setTierCashOutWeightsTo((uint256,uint256)[])\":{\"notice\":\"Stores the cashOut weights that should be used in the end game phase.\"},\"setTierDelegateTo(address,uint256)\":{\"notice\":\"Delegate attestations.\"},\"setTierDelegatesTo((address,uint256)[])\":{\"notice\":\"Delegate attestations.\"},\"store()\":{\"notice\":\"The contract that stores and manages the NFT's data.\"},\"supportsInterface(bytes4)\":{\"notice\":\"Indicates if this contract adheres to the specified interface.\"},\"tierCashOutWeights()\":{\"notice\":\"The cashOut weight for each tier.\"},\"tierNameOf(uint256)\":{\"notice\":\"The name of the tier with the specified ID.\"},\"tokenAllocations()\":{\"notice\":\"The amount of $DEFIFA and $BASE_PROTOCOL tokens this game was allocated from paying the network fee.\"},\"tokenURI(uint256)\":{\"notice\":\"The metadata URI of the provided token ID.\"},\"tokensClaimableFor(uint256[])\":{\"notice\":\"The amount of $DEFIFA and $BASE_PROTOCOL tokens claimable for a set of token IDs.\"},\"tokensRedeemedFrom(uint256)\":{\"notice\":\"The amount of tokens that have been redeemed from a tier, refunds are not counted.\"},\"totalCashOutWeight((address,address,uint256,uint256,uint256,uint256,(address,uint8,uint32,uint256),bool,uint256,bytes))\":{\"notice\":\"The combined cash out weight of all outstanding NFTs.\"}},\"version\":1}},\"settings\":{\"compilationTarget\":{\"contracts/DefifaDelegate.sol\":\"DefifaDelegate\"},\"evmVersion\":\"shanghai\",\"libraries\":{},\"metadata\":{\"bytecodeHash\":\"ipfs\"},\"optimizer\":{\"enabled\":true,\"runs\":10},\"remappings\":[\"@arbitrum/=node_modules/@arbitrum/\",\"@bananapus/=node_modules/@bananapus/\",\"@chainlink/=node_modules/@chainlink/\",\"@eth-optimism/=node_modules/@eth-optimism/\",\"@offchainlabs/=node_modules/@offchainlabs/\",\"@openzeppelin/=node_modules/@openzeppelin/\",\"@prb/math/=node_modules/@prb/math/\",\"@scroll-tech/=node_modules/@scroll-tech/\",\"@sphinx-labs/contracts/=node_modules/@sphinx-labs/contracts/contracts/foundry/\",\"@uniswap/=node_modules/@uniswap/\",\"@zksync/=node_modules/@zksync/\",\"base64/=lib/base64/\",\"capsules/=lib/capsules/contracts/\",\"ds-test/=lib/forge-std/lib/ds-test/src/\",\"forge-std/=lib/forge-std/src/\",\"hardhat/=node_modules/hardhat/\",\"solady/=node_modules/solady/\",\"solmate/=node_modules/solmate/\",\"typeface/=lib/typeface/contracts/\"],\"viaIR\":true},\"sources\":{\"contracts/DefifaDelegate.sol\":{\"keccak256\":\"0x9104af25cdf7cec73a2982b1a7b54412c67b1cc8dd22f708058854b0d45a8d62\",\"license\":\"MIT\",\"urls\":[\"bzz-raw://898fe89b80d8cac7e63ae634abdee350b1bd757e7a2680b66dc3d3954daa1c4e\",\"dweb:/ipfs/QmPyJskfzv5LvYUsBc3KvjdwhnM4C3kwEWsNQfiBy3R8AA\"]},\"contracts/enums/DefifaGamePhase.sol\":{\"keccak256\":\"0xf2486e4e253632ac3d480d7289e759e13c2b652b1293222175801dd89d78791e\",\"license\":\"MIT\",\"urls\":[\"bzz-raw://a8a6f440d7b58ca7388f122221328d4423136183fb8bdabde4869bbcdcac3d30\",\"dweb:/ipfs/Qmcqs1LXUKLw2FBq5Bs1FSaruwu8dvGRQLVegC44iFjbcj\"]},\"contracts/interfaces/IDefifaDelegate.sol\":{\"keccak256\":\"0x13473336806a368a7d2a0ec29f47c7f8f219a0a87e44968c2d1c89db23182e16\",\"license\":\"MIT\",\"urls\":[\"bzz-raw://55c2d75dfa15e2b9b74c74e50c19f9af70d4d1a2af0d4a4c8b51185ff94c68fd\",\"dweb:/ipfs/QmeNT8kVjjdzMqWDq3ZVC1bBaQLjgPp69Dip1ZQkcDRh7d\"]},\"contracts/interfaces/IDefifaGamePhaseReporter.sol\":{\"keccak256\":\"0xe3af51c58dcf373de5090be2347a3659c44901bf84881e988029f8338581080a\",\"license\":\"MIT\",\"urls\":[\"bzz-raw://81fa1a3abc418b613699e5982a44f4eaeadc2e73f8a259f4893591b68343b906\",\"dweb:/ipfs/QmdXNrAEAn312hziK8UKDz9dWRvH88p2HeWoVpod9PkyZ3\"]},\"contracts/interfaces/IDefifaGamePotReporter.sol\":{\"keccak256\":\"0x3034956baed910156222da9df0932008eef5ac6dca7c0e9a06fbf0c82f2d5ae4\",\"license\":\"MIT\",\"urls\":[\"bzz-raw://5e61e750e0cce0e93a21300a2f7ee0fa01fa1a1191c88ea147be335f1fa427a6\",\"dweb:/ipfs/QmQBXVYJkkPjfFJEMBLJcM3VfrMEGpsr5ZdLWvedryqSDq\"]},\"contracts/structs/DefifaDelegation.sol\":{\"keccak256\":\"0xc2dd2d049c462e0137ba84dc2b0fa8d9d0139c9d324f1440e9e943f4161b3422\",\"license\":\"MIT\",\"urls\":[\"bzz-raw://14f446455bf221717bac8498e1ee8fe386b28aa768628cb4522e718740e1ba46\",\"dweb:/ipfs/QmQziN3zjYUiZ4Cm9BLtDVbNNY7ZbL5HhvTJqpQdwy2uvx\"]},\"contracts/structs/DefifaTierCashOutWeight.sol\":{\"keccak256\":\"0x887924246fed02168924efd07cba0beaa261de1962a3065674665ef4fbd7c1f6\",\"license\":\"MIT\",\"urls\":[\"bzz-raw://5477867a360e1c898b34630330645dd5f6f3d07052b7c75c3b8a4677f97bc075\",\"dweb:/ipfs/Qmc43QdoNqUSriku1Lin31HHXXxmdV9WHyYFdCApNfn5fa\"]},\"node_modules/@bananapus/721-hook-v5/src/JB721TiersHook.sol\":{\"keccak256\":\"0x286e699f4ca81ea84217bbdcc4e4efa426ba9cc5d0886719232dd4d2e604a1b6\",\"license\":\"MIT\",\"urls\":[\"bzz-raw://adf31e0beae7d3381a1a841786e2f78dee5b73084ba030c345440b11d8aa0b67\",\"dweb:/ipfs/QmNmXeaVoTrQ9hSMXMZ1r7vvemDpB8FAbdfxPfXqWrj4SE\"]},\"node_modules/@bananapus/721-hook-v5/src/abstract/ERC721.sol\":{\"keccak256\":\"0xee3758d50043b58a173dada85fb33a0a2b4a9f8e57e11a213d0f1d021cd2ffc6\",\"license\":\"MIT\",\"urls\":[\"bzz-raw://f9b8cbac216d14a83dcc54fee0e660e8131afee94a21ec0c0af5dd7853692bb1\",\"dweb:/ipfs/QmRU67EeBHtqE7osaBd286poaTDjS7cAVMwt6UXdBBDRGP\"]},\"node_modules/@bananapus/721-hook-v5/src/abstract/JB721Hook.sol\":{\"keccak256\":\"0x3de2a2a70ce211879e6f49e3032a6630b5c56589ff222410c1e375c3ba34e87c\",\"license\":\"MIT\",\"urls\":[\"bzz-raw://d9e944468f255e8cafa01b485e9eb8e8abfa2cd28462a9013547000c5484272a\",\"dweb:/ipfs/QmfKDiSgxW7Miq4jwFqeJEtFLLUTYgTEEGirwtNBKMGaUi\"]},\"node_modules/@bananapus/721-hook-v5/src/interfaces/IJB721Hook.sol\":{\"keccak256\":\"0x1e7b684c86c0f44b0b680c7aba9e511c89892bc0638424722920368911a087f2\",\"license\":\"MIT\",\"urls\":[\"bzz-raw://96995e70a8f15d5600b509ad689c8f2ea6f8116cc7cce9c529b7a41c12c854dc\",\"dweb:/ipfs/QmaAARj3BDSQNsPwkFxauDpWBNgb4kYdzo19tUNdBbc6cX\"]},\"node_modules/@bananapus/721-hook-v5/src/interfaces/IJB721TiersHook.sol\":{\"keccak256\":\"0x107f91c5a0674717684d75e0c71106dd1d2937c0089366c7bb555be7fffdd6b2\",\"license\":\"MIT\",\"urls\":[\"bzz-raw://3ce29d75e454845d0636e671c60c7a691e4a77d1c88fe17dbc435945890465b1\",\"dweb:/ipfs/QmewJn8HeiqKggWA8scLUbwv1TMiit8Va8A5A3K7N9Euss\"]},\"node_modules/@bananapus/721-hook-v5/src/interfaces/IJB721TiersHookStore.sol\":{\"keccak256\":\"0x01d419bf6b9dce2ab162f8aac82f0e4a6d948f53819a42ed023e8f23e358c9c2\",\"license\":\"MIT\",\"urls\":[\"bzz-raw://0e0b14b2ae2032bd256614522078cf0f831c35d1f64d1ea2050227117d08c060\",\"dweb:/ipfs/QmP1xbw5597GDvNVgT5Te6w8LBqeXHq4x6HeXYmqLqw2RC\"]},\"node_modules/@bananapus/721-hook-v5/src/interfaces/IJB721TokenUriResolver.sol\":{\"keccak256\":\"0xfa599167098f4459320ec4141a98a17b2dfffbce422baa27d8b4e4530f61ece1\",\"license\":\"MIT\",\"urls\":[\"bzz-raw://8b758b161f4c7b520b2c34b4d91e585e961b8f4ca278eebb91d791f7f2f45140\",\"dweb:/ipfs/QmcD9DF7NJ9QykQpT4KPzm4bs3fkjzukdAUWwdU6Atfw85\"]},\"node_modules/@bananapus/721-hook-v5/src/libraries/JB721TiersRulesetMetadataResolver.sol\":{\"keccak256\":\"0xe1e224860fce816c0566c4b22044eb2f5a767a09764d00482b954733bf18e51e\",\"license\":\"MIT\",\"urls\":[\"bzz-raw://043663de2a9c7e822e947e0b68833e77985d493bebcb48f86bf1b67f937417fc\",\"dweb:/ipfs/QmXVXPdpLfmT2a97gUQ5d2XSsHXhgpiTfs7w2ZtoD55uAd\"]},\"node_modules/@bananapus/721-hook-v5/src/libraries/JBIpfsDecoder.sol\":{\"keccak256\":\"0xb93ba562ac1fc9d3829be00e61f3a90f51df5661cf0f2c819a7f1d8ba19ec171\",\"license\":\"MIT\",\"urls\":[\"bzz-raw://fc9bc948fac8897d9720ef25b13d63c60b40a18aa1897dd1c657fc278c416b4f\",\"dweb:/ipfs/QmNtiJTALZW5zfyKVy7XG5GkqGgMrfkVvU4Auu4bb9cGQc\"]},\"node_modules/@bananapus/721-hook-v5/src/structs/JB721InitTiersConfig.sol\":{\"keccak256\":\"0xfe7147d09467fd8f9b755d2a1485f22bb4a8797acd0e97623258498ddac2e441\",\"license\":\"MIT\",\"urls\":[\"bzz-raw://9ee21464af9e6c78f580c6920757017cdfbd276728773338a67660fedfea0fd2\",\"dweb:/ipfs/QmVYviC7uQ7rEvdpzD6U4BN19P5f8uMuC7jWffzQWvuFcu\"]},\"node_modules/@bananapus/721-hook-v5/src/structs/JB721Tier.sol\":{\"keccak256\":\"0x99232aa73d5715977332dc7c93b03552a93259e59ae00e86b4ddc200f06adaf1\",\"license\":\"MIT\",\"urls\":[\"bzz-raw://721c0cf10a29fa11677718faafb3a2ecfcb4fbe4e1c09e70a7fac681c80fcc94\",\"dweb:/ipfs/QmSUR77E9PqnpB5kBcKNz2CGBjG9XL9FH57RWVYu3Q7GMR\"]},\"node_modules/@bananapus/721-hook-v5/src/structs/JB721TierConfig.sol\":{\"keccak256\":\"0x86e54a0de4deab9d105bf276586aebe256188b193e83eb7a6f6f93e4a29ae9c5\",\"license\":\"MIT\",\"urls\":[\"bzz-raw://04bfcc07d452c26dfc50d3a5eb62df4b3b81e063defd752e0aa5ed049a78eef4\",\"dweb:/ipfs/QmWd5nJHUvZPHxJXkrYCboXaqdtiWWkQG26sNM6qkJuAgD\"]},\"node_modules/@bananapus/721-hook-v5/src/structs/JB721TiersHookFlags.sol\":{\"keccak256\":\"0x283d8429f31bd58875c056515aa42abd09c95362bd929e85cfc44a0d92585766\",\"license\":\"MIT\",\"urls\":[\"bzz-raw://9a580b89fe99d9f8e930c58a4d0d63a5ff7c01c79d210af01373d066c9e72ed6\",\"dweb:/ipfs/QmdY1eSGSoTjv4KSdsG4Tm5CzJN6iqk3qTRga5ZWNbejRz\"]},\"node_modules/@bananapus/721-hook-v5/src/structs/JB721TiersMintReservesConfig.sol\":{\"keccak256\":\"0x86fe586a05e6d4bc6fab9b68996a7f4b74c5362ca6f24b9d8057ed7e4cd1c5ac\",\"license\":\"MIT\",\"urls\":[\"bzz-raw://0915f17d1f958ab1fe6b214d99ed62f1f858684898c803f1a8a6a557472dd140\",\"dweb:/ipfs/QmUhdnSV8UzkgvbtkYEKHrpyDEmc2aJxW5HQ1gucuxxu5A\"]},\"node_modules/@bananapus/721-hook-v5/src/structs/JB721TiersRulesetMetadata.sol\":{\"keccak256\":\"0x6720a6ada2a882f99afa050e40b6c925439da4339240565a0e706521b3aadc6b\",\"license\":\"MIT\",\"urls\":[\"bzz-raw://ede4a3165276d9d89eeea2dfd56f68d77dbfaedb738b30c8a0faa81c3a153b1b\",\"dweb:/ipfs/QmXa4QCb6K9MXxwNKed17VWeX9crKeMjkQnVk2xMARzh76\"]},\"node_modules/@bananapus/721-hook-v5/src/structs/JB721TiersSetDiscountPercentConfig.sol\":{\"keccak256\":\"0x4672eacb6b0cda5e6f5f72ddb91463c52fb90b4df421053e3b40024f19a59954\",\"license\":\"MIT\",\"urls\":[\"bzz-raw://9d8e3a0b35d6b2a6ec66527594263400189b6c766bfd6943c83704380a989aec\",\"dweb:/ipfs/QmUE7NhFWsxjFRzTuRyHJ7oRx3JXD9CnG83t29PjGAhwPR\"]},\"node_modules/@bananapus/core-v5/src/abstract/JBPermissioned.sol\":{\"keccak256\":\"0xbaaa61c6aa043522617d3c1a86960c23b9978ee2a6c9d593b00beeeb6ce64423\",\"license\":\"MIT\",\"urls\":[\"bzz-raw://09beed8608e02ce9dbf28814309aaf62c9eec67e0701a26113bdbb4cbae56c42\",\"dweb:/ipfs/QmZrHFnpjX9uBzbFrSjqQgQBkvpJ1ZyvjtT9RfneNGv32S\"]},\"node_modules/@bananapus/core-v5/src/enums/JBApprovalStatus.sol\":{\"keccak256\":\"0x61c69b6bac7d24b566d87cda23a77e4ca9cdb87200b106aba8534cb9a0973e33\",\"license\":\"MIT\",\"urls\":[\"bzz-raw://6a9ca7249de76f77a8252eefe6bd1b63d47952f25a2acfa2c8db967cdff4470c\",\"dweb:/ipfs/QmaxSxptRQNj8bNy96EreENmrnRWdKmhyihBcxyWzBX5BN\"]},\"node_modules/@bananapus/core-v5/src/interfaces/IJBCashOutHook.sol\":{\"keccak256\":\"0x6c516b030f55065eb169d666d11dbd82c4a0b8cea7782ebc5e79433cade38670\",\"license\":\"MIT\",\"urls\":[\"bzz-raw://fa0659eb08477176f130ccaf387d4bde71f0ecca2b24f61124d225f2f50397a3\",\"dweb:/ipfs/QmRNBRGhdGpLQLkC4wK4VrgNEw4EdSiJ4ZZJfiJU4aNt2L\"]},\"node_modules/@bananapus/core-v5/src/interfaces/IJBDirectory.sol\":{\"keccak256\":\"0xcb97db460d2948a7f51c660fe0d1b1749047a419027711c476b86ad3573534c5\",\"license\":\"MIT\",\"urls\":[\"bzz-raw://a909c7a3d471054537894dca827e6e018e92ac25299b43026e5b1e335ec4de68\",\"dweb:/ipfs/QmU1GT3F8PNMjSiPPP5cSLLofefHYFJXnywMCdqqM9xUeh\"]},\"node_modules/@bananapus/core-v5/src/interfaces/IJBPayHook.sol\":{\"keccak256\":\"0x9438866782c652c2942f4d114e35f393cd3c8b0334abce8387eed90bca35e8b2\",\"license\":\"MIT\",\"urls\":[\"bzz-raw://cfd99daf57213f92325aad7d7d16e98476d38e870470e95ba01e3ae3cdecc95d\",\"dweb:/ipfs/QmUKKAVGf7ki8BHksr99tFcRW8APveeB5tNH63ctTbbCW8\"]},\"node_modules/@bananapus/core-v5/src/interfaces/IJBPermissioned.sol\":{\"keccak256\":\"0x5b038d4dee116584e88b230920e56d48e135053e3f7e5642eaea14a775c1dad7\",\"license\":\"MIT\",\"urls\":[\"bzz-raw://19e43102f349fd4a1da1c0943ffb8f2950007fe4bb4bb7e8f74fc142575d091b\",\"dweb:/ipfs/QmXHAt4KzDTdDZgDDefEXH2WKi7NcfkJb9R7nxW5uDqsNp\"]},\"node_modules/@bananapus/core-v5/src/interfaces/IJBPermissions.sol\":{\"keccak256\":\"0x49d2b91a866004af098a6770b28040071885b048b4b50744b12a1e5b212c5e5e\",\"license\":\"MIT\",\"urls\":[\"bzz-raw://089b4dda50be91412ffe1fbe333f78cc894f073c1a7afe469f10a2cee12fbf9e\",\"dweb:/ipfs/QmYPPBZ6HwBa1RNkNGqGcR2xgj4fnWBzrPHHoJG3kZA6AN\"]},\"node_modules/@bananapus/core-v5/src/interfaces/IJBPriceFeed.sol\":{\"keccak256\":\"0x4bd84c0f1a5d4729ed709bcddd43f4c50ec4a165ece79780af8dce482ed07d4a\",\"license\":\"MIT\",\"urls\":[\"bzz-raw://62bac4bfb6982fb002f620c77e5c445e62d50241a5aa64a07e51d929f5a42180\",\"dweb:/ipfs/QmWgJUDreVY2BuMX38a1iUUR5kNbMwGnKG3VvurB7oZtuM\"]},\"node_modules/@bananapus/core-v5/src/interfaces/IJBPrices.sol\":{\"keccak256\":\"0xb4d5244daa52aafab0c9b8806b7f973afa6a3b298add5966d586d27b78424cfb\",\"license\":\"MIT\",\"urls\":[\"bzz-raw://a819f74455aaa4f679ded378424702f3992608a640d7f943b19938eb4ff711da\",\"dweb:/ipfs/QmSMGvVTsMW3L5YSUyXTKoEsgNpGEutnq4frEZHuDdeDvz\"]},\"node_modules/@bananapus/core-v5/src/interfaces/IJBProjects.sol\":{\"keccak256\":\"0x4ae42a9cc29b517b26d2b9b635deb82c16696b777deeca92dfcad33b0f81c0a0\",\"license\":\"MIT\",\"urls\":[\"bzz-raw://1dcbd860e7d7f05232d90c5e9cfd3d01e2ce986ffcdb053473d8a4d387b1a48a\",\"dweb:/ipfs/QmWKWoSJJbVWDumbnzXJBJyXmAacgC97bxMtchh8te41bn\"]},\"node_modules/@bananapus/core-v5/src/interfaces/IJBRulesetApprovalHook.sol\":{\"keccak256\":\"0x5f0dc5968277b572ba5dc74518906dfb33a9684b7a199c7843f4e66af1c11fb9\",\"license\":\"MIT\",\"urls\":[\"bzz-raw://323ce3731aebdf5bf8055b8550055e856feed700d293af8beaf8a750625a0975\",\"dweb:/ipfs/QmU2ErV2uzvXnsJt1qBKm73H2qWcEqYtQGHtZEpx93DaWJ\"]},\"node_modules/@bananapus/core-v5/src/interfaces/IJBRulesetDataHook.sol\":{\"keccak256\":\"0x45a88aa9f26512f7fc3deff6d00be9a292fc07a76c8311f175249400e83d1837\",\"license\":\"MIT\",\"urls\":[\"bzz-raw://1e88b996c3a05f87f7391ebcb9cd6d46c6ce8768083945f26a98c4ac4509e64c\",\"dweb:/ipfs/QmbpuYi6mYV8K8qrh8syWvbPc34pFrXG6QeC23m4MsX3r9\"]},\"node_modules/@bananapus/core-v5/src/interfaces/IJBRulesets.sol\":{\"keccak256\":\"0xf287c7a4a162cd58084ed10ee5f9f31c992addff0ce2f2ac7e810cc393546f30\",\"license\":\"MIT\",\"urls\":[\"bzz-raw://c851b72de52c3ceb73c6b1849ad0cc7c0832fd126ee52cc838a163ab6d3055b8\",\"dweb:/ipfs/Qmbv6k6pSeNMwZoTUKzDNb18DMGR8DboRMrYQBydATuVZw\"]},\"node_modules/@bananapus/core-v5/src/interfaces/IJBTerminal.sol\":{\"keccak256\":\"0x5a4c0ef6c8fd10069a408cc42a862909f7b47aba46327da5003203508d8f17d9\",\"license\":\"MIT\",\"urls\":[\"bzz-raw://09d8854151c21046b6b939189ad2139c669888e6baf47034a0cb754104d1efe6\",\"dweb:/ipfs/QmaMrxnf6K6znvDBwdAqsw5x6yuR4SY1BdNtyz226siAt5\"]},\"node_modules/@bananapus/core-v5/src/interfaces/IJBTokenUriResolver.sol\":{\"keccak256\":\"0xfa5cb00dcd6085d1ef912d071fe73c63f9478a2cd0f9d8bddaf659b6af2d0967\",\"license\":\"MIT\",\"urls\":[\"bzz-raw://282e4e7c342d65f77cde0e9a08fcaf20ef5cf379c7a48b639842c0ffd0b2afb8\",\"dweb:/ipfs/QmbnN3PEQeZaXdPLT75V1J79kMg7KqSMru37RHrL3z8Yf2\"]},\"node_modules/@bananapus/core-v5/src/libraries/JBConstants.sol\":{\"keccak256\":\"0x4dd0f809f1f10cf961e85632e5f3ea5e49716b104a0e8bc4d8ccc2081e9d007a\",\"license\":\"MIT\",\"urls\":[\"bzz-raw://09432ec01de81f7c295579fa3176610776cb186fba4c50d799108a18f14e5cc6\",\"dweb:/ipfs/QmS52c525xJui5u1xoY76PTq2n1pvnUzThBK38A1fsWdLp\"]},\"node_modules/@bananapus/core-v5/src/libraries/JBMetadataResolver.sol\":{\"keccak256\":\"0x52402cc945b1a23d0560a2a9c93a11271ce0ab18e592a4d78fc449a8b417526d\",\"license\":\"MIT\",\"urls\":[\"bzz-raw://912b5056f5768b14f26e4e2a754b90ce631a1f4898af6883f6d1e4a1f4ce87c8\",\"dweb:/ipfs/QmdnGcjTQtxscD1QDTERN2xqVA6iJnLCkfq1vWSUmDYYtX\"]},\"node_modules/@bananapus/core-v5/src/libraries/JBRulesetMetadataResolver.sol\":{\"keccak256\":\"0x3ed84aa51ce7ee94c65c507bb6f209fef4ae89c7446a2ed841602a235afcf43d\",\"license\":\"MIT\",\"urls\":[\"bzz-raw://cbeb6faae79112f85366ee53ad5c65f41a68f799912a5f09b0d6a49f8d9df647\",\"dweb:/ipfs/QmdEyZ6QF5q9UHMwbxWA9RrFwtL5iYHRydCAnHdKqqukDB\"]},\"node_modules/@bananapus/core-v5/src/structs/JBAccountingContext.sol\":{\"keccak256\":\"0x9c47e048a719f784f601df69a583505432217b9868a0244876d277f84dd1ebdf\",\"license\":\"MIT\",\"urls\":[\"bzz-raw://8565f194b87914da9a02af2e760ae2ed2a9d185c6f11229f7035140776d2fec9\",\"dweb:/ipfs/QmPs2fic8W3F5e5zNRwmGmJFjb3JWGPWJ3YUe5o82nQgEn\"]},\"node_modules/@bananapus/core-v5/src/structs/JBAfterCashOutRecordedContext.sol\":{\"keccak256\":\"0xa1acdb1a5670f66f730e71f8eff120766b6f5c934e6cd699c7f1a7cc93adf658\",\"license\":\"MIT\",\"urls\":[\"bzz-raw://a9c7655c9c42b30132688b395251748c809c334370ee584cb9bac46e1fb8f162\",\"dweb:/ipfs/QmbMV1wg1Fm236HaA6nnMSvRkzeYCKPRhMYDbqkAxieY7x\"]},\"node_modules/@bananapus/core-v5/src/structs/JBAfterPayRecordedContext.sol\":{\"keccak256\":\"0x3bfc01ae9944a0ff5c41125e18ebb8efca58d7aa4e471d2ffa6d8588afb689ab\",\"license\":\"MIT\",\"urls\":[\"bzz-raw://beb21399142d9b89539cfc8aa94119bc106bd1ea847b922d4c78f3f8804a5cba\",\"dweb:/ipfs/QmXDwJXrzCb6zh1KYwVdN2PEY86uK62MTfYF1M2MBtbEP7\"]},\"node_modules/@bananapus/core-v5/src/structs/JBBeforeCashOutRecordedContext.sol\":{\"keccak256\":\"0x7b2119f3e0725becc552ed5dcfa51683960a8772550c95ac5e2f75240ced367c\",\"license\":\"MIT\",\"urls\":[\"bzz-raw://03369dd07a9126ce453d83ac409919326f0aaa48ff9eac5c703092b3824d79c9\",\"dweb:/ipfs/Qmc1QKw6FfmeBD372RnDyeW27QyzEUjMX5up5rk8SHRYGa\"]},\"node_modules/@bananapus/core-v5/src/structs/JBBeforePayRecordedContext.sol\":{\"keccak256\":\"0xbc98b968d84be2f0ddbb24240723c7179ec9c5e02e5fbd5843dd0e76623a3ea5\",\"license\":\"MIT\",\"urls\":[\"bzz-raw://1310e522696a9fc6f7f96b04c293fab3b4cf1e722bdbb7aa1eec7b3ecc25402f\",\"dweb:/ipfs/QmTYiijDJRuQcMhLrmpbHzHAQFPq6jurPP5HjyYtnzbpnK\"]},\"node_modules/@bananapus/core-v5/src/structs/JBCashOutHookSpecification.sol\":{\"keccak256\":\"0x67a6e781019979e626eaa81d84a800b2656603c23ae455e15d0fa1a6f03c1736\",\"license\":\"MIT\",\"urls\":[\"bzz-raw://b43ce54447dda62d449a1e3575a9e4cb9c5a2adb41b45423dcefeb7d9afe8336\",\"dweb:/ipfs/QmW77REnQcvsfv4gwTLj2CyynmaGC3a6om7zCFWmERhrPY\"]},\"node_modules/@bananapus/core-v5/src/structs/JBPayHookSpecification.sol\":{\"keccak256\":\"0x955f0bfca97300b9e5927dc181753830ee362f83fa9ca32a90daade32aa0cfd5\",\"license\":\"MIT\",\"urls\":[\"bzz-raw://f517af1597c7c40f8d3da53f7a6684a3e162950a16559d6bf6ea3b727bb11546\",\"dweb:/ipfs/QmRWo2ZTYXmVZTzNJDYhsJNsEaHphjpUfx9eNz2cciyz86\"]},\"node_modules/@bananapus/core-v5/src/structs/JBPermissionsData.sol\":{\"keccak256\":\"0x65e26b78a1f00d81a21abd255c9670b600efca60cf36a993b8f48ecb268464a4\",\"license\":\"MIT\",\"urls\":[\"bzz-raw://d108c721c4281b13de34641befd2a1e9fac73a70195ef5ca957abda6fca9acca\",\"dweb:/ipfs/QmWoJo7wzSKY3z4YCpFvR8DoCUTKviiuFEj2tBkcgKUqW1\"]},\"node_modules/@bananapus/core-v5/src/structs/JBRuleset.sol\":{\"keccak256\":\"0x2d1f0a8457e94addae51a8222b1837e372847624fde96bb3178e7aee52ab2b24\",\"license\":\"MIT\",\"urls\":[\"bzz-raw://bbb1478e8f5d1c20f981e5a0d5e526d002add1e05ddced87ccd45543ed00c9e4\",\"dweb:/ipfs/QmZkgaYdwkbnvW2MGwVe9FeHjac8XyZTP1YZcWUApiGZgE\"]},\"node_modules/@bananapus/core-v5/src/structs/JBRulesetMetadata.sol\":{\"keccak256\":\"0x318f0b75275c3822df53a02e98782c9e98e7961116f2ad66a528c6adcd14c946\",\"license\":\"MIT\",\"urls\":[\"bzz-raw://d60f62390e43d182bfe875d1ac57e9de10426d81038ba7d8c3727b22392299e2\",\"dweb:/ipfs/QmUtE6fcP25wEhVJNEbrPHyFPkg5hp2PFf5xcwBeHPmNAf\"]},\"node_modules/@bananapus/core-v5/src/structs/JBTokenAmount.sol\":{\"keccak256\":\"0xc61593d33d5ec30e695d382948a1b944d01e29a8f2bfd29f75ecebcdbc7816de\",\"license\":\"MIT\",\"urls\":[\"bzz-raw://8992c1e5fca0c2342ecc0e734dfba6a2a752e4c29184784931d0971e44305051\",\"dweb:/ipfs/QmYNcaW3qeCkgAExUaFTq238fgfJuoYCTwjCn7jm94U4dJ\"]},\"node_modules/@bananapus/ownable-v5/src/JBOwnable.sol\":{\"keccak256\":\"0xad1f9fcc7cfa404a6c20b0eafbc71a2c90a4a3f9aebeaa4b2cab63355892ed30\",\"license\":\"MIT\",\"urls\":[\"bzz-raw://cd0ef227f070c6c68c998c711e70e61850eabe789a026e34f11e8e0d506739a6\",\"dweb:/ipfs/QmPeZXX7Lq8Q3jHSMvQR5W6UprCy5z5BPY8tz6KXEt4a5S\"]},\"node_modules/@bananapus/ownable-v5/src/JBOwnableOverrides.sol\":{\"keccak256\":\"0x3ccb51dfe5ea52398b63013dba97552f5b1a443bc6df8713458ee5ce75230bd0\",\"license\":\"MIT\",\"urls\":[\"bzz-raw://cd2985c7e5783482a64b774d3be8bcf6736c5e754ffd4c0baa3647fb0ff53b69\",\"dweb:/ipfs/QmfEYE8EXGPbvNcWZj4H4DX2HLxscYcFSckpAGwttt4SRS\"]},\"node_modules/@bananapus/ownable-v5/src/interfaces/IJBOwnable.sol\":{\"keccak256\":\"0xa94807eab5362c523d403a10902db431753b9b1e4b73259d4d7e217fc6cdf766\",\"license\":\"MIT\",\"urls\":[\"bzz-raw://d5cd284927df617997d055dfaa5f17b9c22c5ce678b9c87b627d14aaa87fa8d2\",\"dweb:/ipfs/Qma1M9MV1FFsaPF5oAMDL7KdidFzCjZ6EZ8mdLo9MXkgxa\"]},\"node_modules/@bananapus/ownable-v5/src/structs/JBOwner.sol\":{\"keccak256\":\"0x535d669344addf9ce4a62320960699ae8c47b4a615327a1cb32590b4e046c069\",\"license\":\"MIT\",\"urls\":[\"bzz-raw://64e228cc198dafde001eb65092eebf6e99f91420b993deb9c5dc8204cf2469ce\",\"dweb:/ipfs/QmWpKRsMt3SwToaVyNjF6ZJZaL3Kz2QDfee8BBN2FExV3i\"]},\"node_modules/@bananapus/permission-ids-v5/src/JBPermissionIds.sol\":{\"keccak256\":\"0x03d598c570091f294bebe9c7b59bfc2d907d5b70a3193c3bdb9ddec67edae1e0\",\"license\":\"MIT\",\"urls\":[\"bzz-raw://afb1aefda01e53fa79441bab1fa9cb46154e0db9d16bec8f9b7fa80d200916db\",\"dweb:/ipfs/Qmbkt9HgWmz5rgehRttkzFqW9SkwRYvXYqtHmuxHVxz8ZD\"]},\"node_modules/@openzeppelin/contracts/access/Ownable.sol\":{\"keccak256\":\"0xff6d0bb2e285473e5311d9d3caacb525ae3538a80758c10649a4d61029b017bb\",\"license\":\"MIT\",\"urls\":[\"bzz-raw://8ed324d3920bb545059d66ab97d43e43ee85fd3bd52e03e401f020afb0b120f6\",\"dweb:/ipfs/QmfEckWLmZkDDcoWrkEvMWhms66xwTLff9DDhegYpvHo1a\"]},\"node_modules/@openzeppelin/contracts/interfaces/IERC2981.sol\":{\"keccak256\":\"0xafab0e6c71905303c47dd254168cb31efc91f0ae284cde609b0202f97f85469e\",\"license\":\"MIT\",\"urls\":[\"bzz-raw://824d05aec56eb82a2a3c28eece530dc0792d3a008b09d01444e57cf4aceb0445\",\"dweb:/ipfs/QmVvqmJ5UobuRU9Q4JMyXxBfzKs2cpjbWXMNpxX4binTX8\"]},\"node_modules/@openzeppelin/contracts/interfaces/draft-IERC6093.sol\":{\"keccak256\":\"0x19fdfb0f3b89a230e7dbd1cf416f1a6b531a3ee5db4da483f946320fc74afc0e\",\"license\":\"MIT\",\"urls\":[\"bzz-raw://3490d794728f5bfecb46820431adaff71ba374141545ec20b650bb60353fac23\",\"dweb:/ipfs/QmPsfxjVpMcZbpE7BH93DzTpEaktESigEw4SmDzkXuJ4WR\"]},\"node_modules/@openzeppelin/contracts/metatx/ERC2771Context.sol\":{\"keccak256\":\"0x345acfb731203002ef98916d5a222339709db0ad44dc4a389e7f1ce4088ce59b\",\"license\":\"MIT\",\"urls\":[\"bzz-raw://e1dcd7e6c8ca2b402e232d2e44666c282a894c475bca15532464a47513222e5d\",\"dweb:/ipfs/QmbfGjwHHCUxHtkCECoisxr7JDiZXSFtrHNizwwKzNNSHJ\"]},\"node_modules/@openzeppelin/contracts/token/ERC20/IERC20.sol\":{\"keccak256\":\"0x74ed01eb66b923d0d0cfe3be84604ac04b76482a55f9dd655e1ef4d367f95bc2\",\"license\":\"MIT\",\"urls\":[\"bzz-raw://5282825a626cfe924e504274b864a652b0023591fa66f06a067b25b51ba9b303\",\"dweb:/ipfs/QmeCfPykghhMc81VJTrHTC7sF6CRvaA1FXVq2pJhwYp1dV\"]},\"node_modules/@openzeppelin/contracts/token/ERC721/IERC721.sol\":{\"keccak256\":\"0xf78f05f3b8c9f75570e85300d7b4600d7f6f6a198449273f31d44c1641adb46f\",\"license\":\"MIT\",\"urls\":[\"bzz-raw://e28b872613b45e0e801d4995aa4380be2531147bfe2d85c1d6275f1de514fba3\",\"dweb:/ipfs/QmeeFcfShHYaS3BdgVj78nxR28ZaVUwbvr66ud8bT6kzw9\"]},\"node_modules/@openzeppelin/contracts/token/ERC721/IERC721Receiver.sol\":{\"keccak256\":\"0x88cd5e3bee2e8c36b8d9058fbcaa81ad5704281b25634122234b55ea853d8055\",\"license\":\"MIT\",\"urls\":[\"bzz-raw://8dc7e7ab5b8ea36c15027ab04221b05d1c970f47a53e9fd47ead8ca665d49c7e\",\"dweb:/ipfs/Qmeeph7fsDyfRr8vb2L8KcDEmKPb224TAayMvgqgGAnqpL\"]},\"node_modules/@openzeppelin/contracts/token/ERC721/extensions/IERC721Metadata.sol\":{\"keccak256\":\"0xf46268c37522320bb2119a5a394bc5c739a95c0c574c8d08e8c643f4d06e5c76\",\"license\":\"MIT\",\"urls\":[\"bzz-raw://517e4b295f35b9947c72ad7379a6089439ece7bb6f4a2ea0a159da13046c039e\",\"dweb:/ipfs/QmZXzkSfLUbvujig3zVbpDHykpHhqLpvQtdiN3B5j4TA3u\"]},\"node_modules/@openzeppelin/contracts/utils/Context.sol\":{\"keccak256\":\"0x493033a8d1b176a037b2cc6a04dad01a5c157722049bbecf632ca876224dd4b2\",\"license\":\"MIT\",\"urls\":[\"bzz-raw://6a708e8a5bdb1011c2c381c9a5cfd8a9a956d7d0a9dc1bd8bcdaf52f76ef2f12\",\"dweb:/ipfs/Qmax9WHBnVsZP46ZxEMNRQpLQnrdE4dK8LehML1Py8FowF\"]},\"node_modules/@openzeppelin/contracts/utils/Panic.sol\":{\"keccak256\":\"0xf7fe324703a64fc51702311dc51562d5cb1497734f074e4f483bfb6717572d7a\",\"license\":\"MIT\",\"urls\":[\"bzz-raw://c6a5ff4f9fd8649b7ee20800b7fa387d3465bd77cf20c2d1068cd5c98e1ed57a\",\"dweb:/ipfs/QmVSaVJf9FXFhdYEYeCEfjMVHrxDh5qL4CGkxdMWpQCrqG\"]},\"node_modules/@openzeppelin/contracts/utils/Strings.sol\":{\"keccak256\":\"0xad148d59f05165f9217d0a9e1ac8f772abb02ea6aaad8a756315c532bf79f9f4\",\"license\":\"MIT\",\"urls\":[\"bzz-raw://15e3599867c2182f5831e9268b274b2ef2047825837df6b4d81c9e89254b093e\",\"dweb:/ipfs/QmZbL7XAYr5RmaNaooPgZRmcDXaudfsYQfYD9y5iAECvpS\"]},\"node_modules/@openzeppelin/contracts/utils/introspection/ERC165.sol\":{\"keccak256\":\"0x2d9dc2fe26180f74c11c13663647d38e259e45f95eb88f57b61d2160b0109d3e\",\"license\":\"MIT\",\"urls\":[\"bzz-raw://81233d1f98060113d9922180bb0f14f8335856fe9f339134b09335e9f678c377\",\"dweb:/ipfs/QmWh6R35SarhAn4z2wH8SU456jJSYL2FgucfTFgbHJJN4E\"]},\"node_modules/@openzeppelin/contracts/utils/introspection/IERC165.sol\":{\"keccak256\":\"0x8891738ffe910f0cf2da09566928589bf5d63f4524dd734fd9cedbac3274dd5c\",\"license\":\"MIT\",\"urls\":[\"bzz-raw://971f954442df5c2ef5b5ebf1eb245d7105d9fbacc7386ee5c796df1d45b21617\",\"dweb:/ipfs/QmadRjHbkicwqwwh61raUEapaVEtaLMcYbQZWs9gUkgj3u\"]},\"node_modules/@openzeppelin/contracts/utils/math/Math.sol\":{\"keccak256\":\"0x1225214420c83ebcca88f2ae2b50f053aaa7df7bd684c3e878d334627f2edfc6\",\"license\":\"MIT\",\"urls\":[\"bzz-raw://6c5fab4970634f9ab9a620983dc1c8a30153981a0b1a521666e269d0a11399d3\",\"dweb:/ipfs/QmVRnBC575MESGkEHndjujtR7qub2FzU9RWy9eKLp4hPZB\"]},\"node_modules/@openzeppelin/contracts/utils/math/SafeCast.sol\":{\"keccak256\":\"0x195533c86d0ef72bcc06456a4f66a9b941f38eb403739b00f21fd7c1abd1ae54\",\"license\":\"MIT\",\"urls\":[\"bzz-raw://b1d578337048cad08c1c03041cca5978eff5428aa130c781b271ad9e5566e1f8\",\"dweb:/ipfs/QmPFKL2r9CBsMwmUqqdcFPfHZB2qcs9g1HDrPxzWSxomvy\"]},\"node_modules/@openzeppelin/contracts/utils/math/SignedMath.sol\":{\"keccak256\":\"0xb1970fac7b64e6c09611e6691791e848d5e3fe410fa5899e7df2e0afd77a99e3\",\"license\":\"MIT\",\"urls\":[\"bzz-raw://db5fbb3dddd8b7047465b62575d96231ba8a2774d37fb4737fbf23340fabbb03\",\"dweb:/ipfs/QmVUSvooZKEdEdap619tcJjTLcAuH6QBdZqAzWwnAXZAWJ\"]},\"node_modules/@openzeppelin/contracts/utils/structs/Checkpoints.sol\":{\"keccak256\":\"0xe32a5a466492f6a3b871d705d045fc2f8d6e6c8bf69288011531ff875003993f\",\"license\":\"MIT\",\"urls\":[\"bzz-raw://61c69a907ca80a9cff4bdf30f64d5ee458a6c54f0a87ed7e4c2a1b9275256851\",\"dweb:/ipfs/QmVmhbvE7w5Hs9tj9NBPLk6yAirrEhaRYgTRT9USat4H9a\"]},\"node_modules/@prb/math/src/Common.sol\":{\"keccak256\":\"0x8225a3898d2f11f585da1fb82234800e9717fa080dbe53d450fd429a3a632e99\",\"license\":\"MIT\",\"urls\":[\"bzz-raw://2dcbf39ca575f68f32f0d1c66391de94082424956e7585e849813966f8c0fc05\",\"dweb:/ipfs/QmYvk8vXFDUJHrmqbtutYXfoLomLBosYLyBzuPoYBxsQ42\"]}},\"version\":1}",
			"gitCommit": "3a67a4be13dc6b55c180f742360322bf61e62087",
			"history": []
		}
	]
}