{"abi":[{"type":"constructor","inputs":[{"name":"_name","type":"string","internalType":"string"},{"name":"_symbol","type":"string","internalType":"string"},{"name":"_projectId","type":"uint256","internalType":"uint256"}],"stateMutability":"nonpayable"},{"type":"function","name":"CLOCK_MODE","inputs":[],"outputs":[{"name":"","type":"string","internalType":"string"}],"stateMutability":"view"},{"type":"function","name":"DOMAIN_SEPARATOR","inputs":[],"outputs":[{"name":"","type":"bytes32","internalType":"bytes32"}],"stateMutability":"view"},{"type":"function","name":"allowance","inputs":[{"name":"owner","type":"address","internalType":"address"},{"name":"spender","type":"address","internalType":"address"}],"outputs":[{"name":"","type":"uint256","internalType":"uint256"}],"stateMutability":"view"},{"type":"function","name":"approve","inputs":[{"name":"spender","type":"address","internalType":"address"},{"name":"amount","type":"uint256","internalType":"uint256"}],"outputs":[{"name":"","type":"bool","internalType":"bool"}],"stateMutability":"nonpayable"},{"type":"function","name":"approve","inputs":[{"name":"_projectId","type":"uint256","internalType":"uint256"},{"name":"_spender","type":"address","internalType":"address"},{"name":"_amount","type":"uint256","internalType":"uint256"}],"outputs":[],"stateMutability":"nonpayable"},{"type":"function","name":"balanceOf","inputs":[{"name":"_account","type":"address","internalType":"address"},{"name":"_projectId","type":"uint256","internalType":"uint256"}],"outputs":[{"name":"","type":"uint256","internalType":"uint256"}],"stateMutability":"view"},{"type":"function","name":"balanceOf","inputs":[{"name":"account","type":"address","internalType":"address"}],"outputs":[{"name":"","type":"uint256","internalType":"uint256"}],"stateMutability":"view"},{"type":"function","name":"burn","inputs":[{"name":"_projectId","type":"uint256","internalType":"uint256"},{"name":"_account","type":"address","internalType":"address"},{"name":"_amount","type":"uint256","internalType":"uint256"}],"outputs":[],"stateMutability":"nonpayable"},{"type":"function","name":"checkpoints","inputs":[{"name":"account","type":"address","internalType":"address"},{"name":"pos","type":"uint32","internalType":"uint32"}],"outputs":[{"name":"","type":"tuple","internalType":"struct ERC20Votes.Checkpoint","components":[{"name":"fromBlock","type":"uint32","internalType":"uint32"},{"name":"votes","type":"uint224","internalType":"uint224"}]}],"stateMutability":"view"},{"type":"function","name":"clock","inputs":[],"outputs":[{"name":"","type":"uint48","internalType":"uint48"}],"stateMutability":"view"},{"type":"function","name":"decimals","inputs":[],"outputs":[{"name":"","type":"uint8","internalType":"uint8"}],"stateMutability":"view"},{"type":"function","name":"decreaseAllowance","inputs":[{"name":"spender","type":"address","internalType":"address"},{"name":"subtractedValue","type":"uint256","internalType":"uint256"}],"outputs":[{"name":"","type":"bool","internalType":"bool"}],"stateMutability":"nonpayable"},{"type":"function","name":"delegate","inputs":[{"name":"delegatee","type":"address","internalType":"address"}],"outputs":[],"stateMutability":"nonpayable"},{"type":"function","name":"delegateBySig","inputs":[{"name":"delegatee","type":"address","internalType":"address"},{"name":"nonce","type":"uint256","internalType":"uint256"},{"name":"expiry","type":"uint256","internalType":"uint256"},{"name":"v","type":"uint8","internalType":"uint8"},{"name":"r","type":"bytes32","internalType":"bytes32"},{"name":"s","type":"bytes32","internalType":"bytes32"}],"outputs":[],"stateMutability":"nonpayable"},{"type":"function","name":"delegates","inputs":[{"name":"account","type":"address","internalType":"address"}],"outputs":[{"name":"","type":"address","internalType":"address"}],"stateMutability":"view"},{"type":"function","name":"eip712Domain","inputs":[],"outputs":[{"name":"fields","type":"bytes1","internalType":"bytes1"},{"name":"name","type":"string","internalType":"string"},{"name":"version","type":"string","internalType":"string"},{"name":"chainId","type":"uint256","internalType":"uint256"},{"name":"verifyingContract","type":"address","internalType":"address"},{"name":"salt","type":"bytes32","internalType":"bytes32"},{"name":"extensions","type":"uint256[]","internalType":"uint256[]"}],"stateMutability":"view"},{"type":"function","name":"getPastTotalSupply","inputs":[{"name":"timepoint","type":"uint256","internalType":"uint256"}],"outputs":[{"name":"","type":"uint256","internalType":"uint256"}],"stateMutability":"view"},{"type":"function","name":"getPastVotes","inputs":[{"name":"account","type":"address","internalType":"address"},{"name":"timepoint","type":"uint256","internalType":"uint256"}],"outputs":[{"name":"","type":"uint256","internalType":"uint256"}],"stateMutability":"view"},{"type":"function","name":"getVotes","inputs":[{"name":"account","type":"address","internalType":"address"}],"outputs":[{"name":"","type":"uint256","internalType":"uint256"}],"stateMutability":"view"},{"type":"function","name":"increaseAllowance","inputs":[{"name":"spender","type":"address","internalType":"address"},{"name":"addedValue","type":"uint256","internalType":"uint256"}],"outputs":[{"name":"","type":"bool","internalType":"bool"}],"stateMutability":"nonpayable"},{"type":"function","name":"mint","inputs":[{"name":"_projectId","type":"uint256","internalType":"uint256"},{"name":"_account","type":"address","internalType":"address"},{"name":"_amount","type":"uint256","internalType":"uint256"}],"outputs":[],"stateMutability":"nonpayable"},{"type":"function","name":"name","inputs":[],"outputs":[{"name":"","type":"string","internalType":"string"}],"stateMutability":"view"},{"type":"function","name":"nonces","inputs":[{"name":"owner","type":"address","internalType":"address"}],"outputs":[{"name":"","type":"uint256","internalType":"uint256"}],"stateMutability":"view"},{"type":"function","name":"numCheckpoints","inputs":[{"name":"account","type":"address","internalType":"address"}],"outputs":[{"name":"","type":"uint32","internalType":"uint32"}],"stateMutability":"view"},{"type":"function","name":"owner","inputs":[],"outputs":[{"name":"","type":"address","internalType":"address"}],"stateMutability":"view"},{"type":"function","name":"permit","inputs":[{"name":"owner","type":"address","internalType":"address"},{"name":"spender","type":"address","internalType":"address"},{"name":"value","type":"uint256","internalType":"uint256"},{"name":"deadline","type":"uint256","internalType":"uint256"},{"name":"v","type":"uint8","internalType":"uint8"},{"name":"r","type":"bytes32","internalType":"bytes32"},{"name":"s","type":"bytes32","internalType":"bytes32"}],"outputs":[],"stateMutability":"nonpayable"},{"type":"function","name":"projectId","inputs":[],"outputs":[{"name":"","type":"uint256","internalType":"uint256"}],"stateMutability":"view"},{"type":"function","name":"renounceOwnership","inputs":[],"outputs":[],"stateMutability":"nonpayable"},{"type":"function","name":"symbol","inputs":[],"outputs":[{"name":"","type":"string","internalType":"string"}],"stateMutability":"view"},{"type":"function","name":"totalSupply","inputs":[],"outputs":[{"name":"","type":"uint256","internalType":"uint256"}],"stateMutability":"view"},{"type":"function","name":"totalSupply","inputs":[{"name":"_projectId","type":"uint256","internalType":"uint256"}],"outputs":[{"name":"","type":"uint256","internalType":"uint256"}],"stateMutability":"view"},{"type":"function","name":"transfer","inputs":[{"name":"to","type":"address","internalType":"address"},{"name":"amount","type":"uint256","internalType":"uint256"}],"outputs":[{"name":"","type":"bool","internalType":"bool"}],"stateMutability":"nonpayable"},{"type":"function","name":"transfer","inputs":[{"name":"_projectId","type":"uint256","internalType":"uint256"},{"name":"_to","type":"address","internalType":"address"},{"name":"_amount","type":"uint256","internalType":"uint256"}],"outputs":[],"stateMutability":"nonpayable"},{"type":"function","name":"transferFrom","inputs":[{"name":"_projectId","type":"uint256","internalType":"uint256"},{"name":"_from","type":"address","internalType":"address"},{"name":"_to","type":"address","internalType":"address"},{"name":"_amount","type":"uint256","internalType":"uint256"}],"outputs":[],"stateMutability":"nonpayable"},{"type":"function","name":"transferFrom","inputs":[{"name":"from","type":"address","internalType":"address"},{"name":"to","type":"address","internalType":"address"},{"name":"amount","type":"uint256","internalType":"uint256"}],"outputs":[{"name":"","type":"bool","internalType":"bool"}],"stateMutability":"nonpayable"},{"type":"function","name":"transferOwnership","inputs":[{"name":"newOwner","type":"address","internalType":"address"}],"outputs":[],"stateMutability":"nonpayable"},{"type":"event","name":"Approval","inputs":[{"name":"owner","type":"address","indexed":true,"internalType":"address"},{"name":"spender","type":"address","indexed":true,"internalType":"address"},{"name":"value","type":"uint256","indexed":false,"internalType":"uint256"}],"anonymous":false},{"type":"event","name":"DelegateChanged","inputs":[{"name":"delegator","type":"address","indexed":true,"internalType":"address"},{"name":"fromDelegate","type":"address","indexed":true,"internalType":"address"},{"name":"toDelegate","type":"address","indexed":true,"internalType":"address"}],"anonymous":false},{"type":"event","name":"DelegateVotesChanged","inputs":[{"name":"delegate","type":"address","indexed":true,"internalType":"address"},{"name":"previousBalance","type":"uint256","indexed":false,"internalType":"uint256"},{"name":"newBalance","type":"uint256","indexed":false,"internalType":"uint256"}],"anonymous":false},{"type":"event","name":"EIP712DomainChanged","inputs":[],"anonymous":false},{"type":"event","name":"OwnershipTransferred","inputs":[{"name":"previousOwner","type":"address","indexed":true,"internalType":"address"},{"name":"newOwner","type":"address","indexed":true,"internalType":"address"}],"anonymous":false},{"type":"event","name":"Transfer","inputs":[{"name":"from","type":"address","indexed":true,"internalType":"address"},{"name":"to","type":"address","indexed":true,"internalType":"address"},{"name":"value","type":"uint256","indexed":false,"internalType":"uint256"}],"anonymous":false},{"type":"error","name":"BAD_PROJECT","inputs":[]},{"type":"error","name":"InvalidShortString","inputs":[]},{"type":"error","name":"StringTooLong","inputs":[{"name":"str","type":"string","internalType":"string"}]}],"bytecode":{"object":"0x6101806040818152346200047c57620031b3803803809162000022828662000480565b843982016060838203126200047c5782516001600160401b0392908381116200047c578262000053918601620004c7565b90602092838601518581116200047c57829162000072918801620004c7565b95015192815190828201828110878211176200039057835260019283835281830193603160f81b85528551888111620003905760038054918383811c9316801562000471575b868410146200045d57601f9283811162000415575b508086848211600114620003b0575f91620003a4575b505f1982841b1c191690841b1781555b8a51918a8311620003905760049b8c548581811c9116801562000385575b8882101462000372578281116200032a575b5086918411600114620002c3579383949184925f95620002b7575b50501b925f19911b1c19161788555b620001588562000522565b936101209485526200016a84620006bd565b95610140968752838151910120938460e0525190209761010098808a524660a0528251938401947f8b73c3c69bb8fe3d512ecc4cf759cc79239f7b179b0ffacaa9a75d522b39400f86528385015260608401524660808401523060a084015260a0835260c083019783891090891117620002a457508690525190206080523060c052600c8054336001600160a01b0319821681179092556001600160a01b03167f8be0079c531659141344cd1fd0a4f28419497f9722a3daafe3b4186f6b6457e05f80a36101609283526129a794856200080c8639608051856123e9015260a051856124a4015260c051856123b3015260e051856124380152518461245e01525183610a9301525182610abc01525181818161047b015281816106fa0152818161096601528181610b8201528181610e23015261148a0152f35b604190634e487b7160e01b5f525260245ffd5b015193505f806200013e565b9190601f198416928d5f5284885f20945f5b8a89838310620003125750505010620002f8575b50505050811b0188556200014d565b01519060f8845f19921b161c191690555f808080620002e9565b868601518955909701969485019488935001620002d5565b8d5f52875f208380870160051c8201928a881062000368575b0160051c019086905b8281106200035c57505062000123565b5f81550186906200034c565b9250819262000343565b60228e634e487b7160e01b5f525260245ffd5b90607f169062000111565b634e487b7160e01b5f52604160045260245ffd5b90508901515f620000e3565b5f8481528881208794509190601f198416908a8e5b838310620003fd575050508311620003e5575b5050811b018155620000f3565b8b01515f1983861b60f8161c191690555f80620003d8565b840151855589969094019392830192018a8e620003c5565b825f52865f208480840160051c82019289851062000453575b0160051c019085905b82811062000447575050620000cd565b5f815501859062000437565b925081926200042e565b634e487b7160e01b5f52602260045260245ffd5b92607f1692620000b8565b5f80fd5b601f909101601f19168101906001600160401b038211908210176200039057604052565b5f5b838110620004b65750505f910152565b8181015183820152602001620004a6565b81601f820112156200047c5780516001600160401b038111620003905760405192620004fe601f8301601f19166020018562000480565b818452602082840101116200047c576200051f9160208085019101620004a4565b90565b80516020919082811015620005a1575090601f8251116200055f57808251920151908083106200055157501790565b825f19910360031b1b161790565b604490620005939260405193849263305a27a960e01b845280600485015282519283918260248701528686019101620004a4565b601f01601f19168101030190fd5b6001600160401b03811162000390576005928354926001938481811c91168015620006b2575b838210146200045d57601f81116200067e575b5081601f84116001146200061857509282939183925f946200060c575b50501b915f199060031b1c191617905560ff90565b015192505f80620005f7565b919083601f198116875f52845f20945f905b888383106200066357505050106200064a575b505050811b01905560ff90565b01515f1960f88460031b161c191690555f80806200063d565b8587015188559096019594850194879350908101906200062a565b855f5284601f845f209201871c820191601f8601881c015b828110620006a6575050620005da565b5f815501859062000696565b90607f1690620005c7565b805160209081811015620006ea5750601f8251116200055f57808251920151908083106200055157501790565b906001600160401b0382116200039057600654926001938481811c9116801562000800575b838210146200045d57601f8111620007c9575b5081601f84116001146200076157509282939183925f9462000755575b50501b915f199060031b1c19161760065560ff90565b015192505f806200073f565b919083601f19811660065f52845f20945f905b88838310620007ae575050501062000795575b505050811b0160065560ff90565b01515f1960f88460031b161c191690555f808062000787565b85870151885590960195948501948793509081019062000774565b60065f5284601f845f20920160051c820191601f860160051c015b828110620007f457505062000722565b5f8155018590620007e4565b90607f16906200070f56fe60806040526004361015610011575f80fd5b5f3560e01c8062fdd58e1461025357806306fdde031461024e578063095ea7b31461024957806318160ddd146102445780631c0f12b61461023f57806323b872dd1461023a578063313ce567146102355780633644e51514610230578063395093511461022b5780633a46b1a8146102265780633fafa127146102215780634bf5d7e91461021c578063587cde1e146102175780635c19a95c146102125780636fcfff451461020d57806370a0823114610208578063715018a6146102035780637ecebe00146101fe578063836a1040146101f957806384b0196e146101f45780638cb0a511146101ef5780638da5cb5b146101ea5780638e539e8c146101e557806391ddadf4146101e057806395d89b41146101db5780639ab24eb0146101d65780639eea5f66146101d1578063a457c2d7146101cc578063a9059cbb146101c7578063bd85b039146101c2578063c3cda520146101bd578063d505accf146101b8578063dd62ed3e146101b3578063f1127ed8146101ae578063f2fde38b146101a95763f8548e36146101a4575f80fd5b611478565b6113b0565b61132b565b6112d4565b611190565b611066565b611028565b611002565b610f4c565b610e09565b610dac565b610d06565b610cdb565b610bee565b610bc6565b610b70565b610a79565b61094c565b6108ea565b61088d565b61086f565b610829565b610807565b6107ce565b61071d565b6106e3565b61059b565b610544565b61052a565b61050f565b6104d6565b61044c565b61042f565b6103fe565b61031a565b610288565b600435906001600160a01b038216820361026e57565b5f80fd5b602435906001600160a01b038216820361026e57565b3461026e57604036600319011261026e5760206102c06102a6610258565b6001600160a01b03165f9081526020819052604090205490565b604051908152f35b91908251928382525f5b8481106102f2575050825f602080949584010152601f8019910116010190565b6020818301810151848301820152016102d2565b9060206103179281815201906102c8565b90565b3461026e575f806003193601126103fb57604051908060035461033c81611526565b808552916001918083169081156103d15750600114610376575b61037285610366818703826115cb565b60405191829182610306565b0390f35b9250600383527fc2575a0e9e593c00f959f8c92f12db2869c3395a3b0502d05e2516446f71f85b5b8284106103b957505050810160200161036682610372610356565b8054602085870181019190915290930192810161039e565b8695506103729693506020925061036694915060ff191682840152151560051b8201019293610356565b80fd5b3461026e57604036600319011261026e5761042461041a610258565b6024359033611877565b602060405160018152f35b3461026e575f36600319011261026e576020600254604051908152f35b3461026e57608036600319011261026e57610465610272565b604435906001600160a01b038216820361026e577f000000000000000000000000000000000000000000000000000000000000000080151590816104c9575b506104b8576104b691606435916115ed565b005b60405162cdceed60e81b8152600490fd5b905060043514155f6104a4565b3461026e57606036600319011261026e5760206105056104f4610258565b6104fc610272565b604435916115ed565b6040519015158152f35b3461026e575f36600319011261026e57602060405160128152f35b3461026e575f36600319011261026e5760206102c06123b0565b3461026e57604036600319011261026e5761055d610258565b335f9081526001602090815260408083206001600160a01b03851684529091529020546024358101809111610596576104249133611877565b61168c565b3461026e57604036600319011261026e576105b4610258565b602435906105d365ffffffffffff6105cb4361288b565b168310611a47565b6001600160a01b03165f908152600a6020526040812080549290918360058111610694575b50905b8382106106455750508161062157505060205f5b6040516001600160e01b039091168152f35b610639610640916020935f1901905f5260205f200190565b5460201c90565b61060f565b909261065181856126bd565b908263ffffffff61067461066a85885f5260205f200190565b5463ffffffff1690565b1611156106845750925b906105fb565b935061068f906116a0565b61067e565b806106a46106aa929693966126d2565b90611a93565b908263ffffffff6106c361066a85885f5260205f200190565b1611156106d35750925b5f6105f8565b93506106de906116a0565b6106cd565b3461026e575f36600319011261026e5760206040517f00000000000000000000000000000000000000000000000000000000000000008152f35b3461026e575f36600319011261026e574365ffffffffffff61073e4361288b565b16036107895761037260405161075381611572565b601d81527f6d6f64653d626c6f636b6e756d6265722666726f6d3d64656661756c74000000602082015260405191829182610306565b60405162461bcd60e51b815260206004820152601d60248201527f4552433230566f7465733a2062726f6b656e20636c6f636b206d6f64650000006044820152606490fd5b3461026e57602036600319011261026e5760206001600160a01b03806107f2610258565b165f526009825260405f205416604051908152f35b3461026e57602036600319011261026e576104b6610823610258565b33611c70565b3461026e57602036600319011261026e576001600160a01b0361084a610258565b165f52600a602052602061086160405f20546128f2565b63ffffffff60405191168152f35b3461026e57602036600319011261026e5760206102c06102a6610258565b3461026e575f806003193601126103fb576108a66114ce565b600c80546001600160a01b0319811690915581906001600160a01b03167f8be0079c531659141344cd1fd0a4f28419497f9722a3daafe3b4186f6b6457e08280a380f35b3461026e57602036600319011261026e576001600160a01b0361090b610258565b165f526007602052602060405f2054604051908152f35b606090600319011261026e57600435906024356001600160a01b038116810361026e579060443590565b3461026e5761095a36610922565b90916109646114ce565b7f00000000000000000000000000000000000000000000000000000000000000008015159182610a6e575b50506104b8576001600160a01b038216918215610a295781610a0e916104b6946109c36109be846002546116ae565b600255565b6001600160a01b0382165f90815260208181526040808320805487019055518581527fddf252ad1be2c89b69c2b068fc378daa952ba7f163c4a11628f55a4df523b3ef9190a3611ba8565b600254610a24906001600160e01b031015611aec565b611fb0565b60405162461bcd60e51b815260206004820152601f60248201527f45524332303a206d696e7420746f20746865207a65726f2061646472657373006044820152606490fd5b141590505f8061098f565b3461026e575f806003193601126103fb57610b2290610ab77f00000000000000000000000000000000000000000000000000000000000000006124f0565b610ae07f00000000000000000000000000000000000000000000000000000000000000006125e7565b9160405191610aee83611593565b818352604051948594600f60f81b8652610b1460209360e08589015260e08801906102c8565b9086820360408801526102c8565b904660608601523060808601528260a086015284820360c08601528080855193848152019401925b828110610b5957505050500390f35b835185528695509381019392810192600101610b4a565b3461026e57610b7e36610922565b90917f00000000000000000000000000000000000000000000000000000000000000008015159182610bbb575b50506104b8576104b69133611877565b141590505f80610bab565b3461026e575f36600319011261026e57600c546040516001600160a01b039091168152602090f35b3461026e57602036600319011261026e57600435610c1d65ffffffffffff610c154361288b565b168210611a47565b600b54905f8260058111610c98575b50905b828210610c59578280610c4857506040515f8152602090f35b6106406106396020925f19016121a5565b9091610c6581846126bd565b908263ffffffff610c7861066a856121a5565b161115610c885750915b90610c2f565b9250610c93906116a0565b610c82565b806106a4610ca8929593956126d2565b908263ffffffff610cbb61066a856121a5565b161115610ccb5750915b5f610c2c565b9250610cd6906116a0565b610cc5565b3461026e575f36600319011261026e576020610cf64361288b565b65ffffffffffff60405191168152f35b3461026e575f806003193601126103fb576040519080600454610d2881611526565b808552916001918083169081156103d15750600114610d515761037285610366818703826115cb565b9250600483527f8a35acfbc15ff81a39ae7d344fd709f28e8600b4aa8c65c6b64bfe7fe36bd19b5b828410610d9457505050810160200161036682610372610356565b80546020858701810191909152909301928101610d79565b3461026e57602036600319011261026e576001600160a01b03610dcd610258565b165f52600a60205260405f20805480155f14610df05750506040515f8152602090f35b602091610e00915f1901906119fc565b5054811c61060f565b3461026e57610e1736610922565b9091610e216114ce565b7f00000000000000000000000000000000000000000000000000000000000000008015159182610f41575b50506104b8576001600160a01b038216918215610ef25781815f6104b69583610e87610eed9660018060a01b03165f525f60205260405f2090565b54610e9482821015611b51565b03610eae8460018060a01b03165f525f60205260405f2090565b55610ebc8460025403600255565b6040518481527fddf252ad1be2c89b69c2b068fc378daa952ba7f163c4a11628f55a4df523b3ef90602090a3611bf2565b61209c565b60405162461bcd60e51b815260206004820152602160248201527f45524332303a206275726e2066726f6d20746865207a65726f206164647265736044820152607360f81b6064820152608490fd5b141590505f80610e4c565b3461026e57604036600319011261026e57610f65610258565b60243590335f526001602052610f8e8160405f209060018060a01b03165f5260205260405f2090565b5491808310610faf57610fa392039033611877565b60405160018152602090f35b60405162461bcd60e51b815260206004820152602560248201527f45524332303a2064656372656173656420616c6c6f77616e63652062656c6f77604482015264207a65726f60d81b6064820152608490fd5b3461026e57604036600319011261026e5761042461101e610258565b602435903361176e565b3461026e57602036600319011261026e576020600254604051908152f35b6064359060ff8216820361026e57565b6084359060ff8216820361026e57565b3461026e5760c036600319011261026e5761107f610258565b6044359060243561108e611046565b9280421161114b5761111e611146916104b69560405190611106826110f86020820195898b8860609194939260808201957fe48329057bfd03d55e49b547132e39cffd9c1820ad7b9d4c5307691425d15adf835260018060a01b0316602083015260408201520152565b03601f1981018452836115cb565b61111960a43593608435935190206124ca565b6121ce565b6001600160a01b0381165f908152600760205260409020805460018101909155909214611aa0565b611c70565b60405162461bcd60e51b815260206004820152601d60248201527f4552433230566f7465733a207369676e617475726520657870697265640000006044820152606490fd5b3461026e5760e036600319011261026e576111a9610258565b6111b1610272565b60443590606435926111c1611056565b9380421161128f5761127761128a916110f86104b6976112646111fd8760018060a01b03165f52600760205260405f2090815491600183019055565b604080517f6e71edae12b1b97f4d1f60370fef10105fa2faae0126114a169c64845d6126c9602082019081526001600160a01b03808c1693830193909352918b166060820152608081018c905260a081019290925260c082019590955292839060e0820190565b61111960c4359360a435935190206124ca565b6001600160a01b038381169116146119a3565b611877565b60405162461bcd60e51b815260206004820152601d60248201527f45524332305065726d69743a206578706972656420646561646c696e650000006044820152606490fd5b3461026e57604036600319011261026e5760206113226112f2610258565b6112fa610272565b6001600160a01b039182165f9081526001855260408082209290931681526020919091522090565b54604051908152f35b3461026e57604036600319011261026e57611344610258565b63ffffffff602435818116810361026e5761138c611392916040945f6020875161136d81611572565b82815201526001600160a01b03165f908152600a6020528590206119fc565b50611a25565b8251815190921682526020908101516001600160e01b031690820152f35b3461026e57602036600319011261026e576113c9610258565b6113d16114ce565b6001600160a01b0390811690811561142457600c54826bffffffffffffffffffffffff60a01b821617600c55167f8be0079c531659141344cd1fd0a4f28419497f9722a3daafe3b4186f6b6457e05f80a3005b60405162461bcd60e51b815260206004820152602660248201527f4f776e61626c653a206e6577206f776e657220697320746865207a65726f206160448201526564647265737360d01b6064820152608490fd5b3461026e5761148636610922565b90917f000000000000000000000000000000000000000000000000000000000000000080151591826114c3575b50506104b8576104b6913361176e565b141590505f806114b3565b600c546001600160a01b031633036114e257565b606460405162461bcd60e51b815260206004820152602060248201527f4f776e61626c653a2063616c6c6572206973206e6f7420746865206f776e65726044820152fd5b90600182811c92168015611554575b602083101461154057565b634e487b7160e01b5f52602260045260245ffd5b91607f1691611535565b634e487b7160e01b5f52604160045260245ffd5b6040810190811067ffffffffffffffff82111761158e57604052565b61155e565b6020810190811067ffffffffffffffff82111761158e57604052565b60c0810190811067ffffffffffffffff82111761158e57604052565b90601f8019910116810190811067ffffffffffffffff82111761158e57604052565b6001600160a01b0381165f9081526001602081815260408084203385529091529091205493929190840161162b575b611626935061176e565b600190565b828410611647576116428361162695033383611877565b61161c565b60405162461bcd60e51b815260206004820152601d60248201527f45524332303a20696e73756666696369656e7420616c6c6f77616e63650000006044820152606490fd5b634e487b7160e01b5f52601160045260245ffd5b906001820180921161059657565b9190820180921161059657565b156116c257565b60405162461bcd60e51b815260206004820152602360248201527f45524332303a207472616e7366657220746f20746865207a65726f206164647260448201526265737360e81b6064820152608490fd5b1561171a57565b60405162461bcd60e51b815260206004820152602660248201527f45524332303a207472616e7366657220616d6f756e7420657863656564732062604482015265616c616e636560d01b6064820152608490fd5b6001600160a01b03929190838116801561182457611822948316906117948215156116bb565b6001600160a01b0383165f9081526020819052604090208590546117ba82821015611713565b036117d48460018060a01b03165f525f60205260405f2090565b556001600160a01b0384165f908152602081815260409182902080548801905590518681527fddf252ad1be2c89b69c2b068fc378daa952ba7f163c4a11628f55a4df523b3ef9190a3611c3f565b565b60405162461bcd60e51b815260206004820152602560248201527f45524332303a207472616e736665722066726f6d20746865207a65726f206164604482015264647265737360d81b6064820152608490fd5b6001600160a01b03808216929190831561195257821693841561190257806118ec7f8c5be1e5ebec7d5bd14f71427d1e84f3dd0314c0f7b2291e5b200ac8c7c3b925946118d76118fd9560018060a01b03165f52600160205260405f2090565b9060018060a01b03165f5260205260405f2090565b556040519081529081906020820190565b0390a3565b60405162461bcd60e51b815260206004820152602260248201527f45524332303a20617070726f766520746f20746865207a65726f206164647265604482015261737360f01b6064820152608490fd5b60405162461bcd60e51b8152602060048201526024808201527f45524332303a20617070726f76652066726f6d20746865207a65726f206164646044820152637265737360e01b6064820152608490fd5b156119aa57565b60405162461bcd60e51b815260206004820152601e60248201527f45524332305065726d69743a20696e76616c6964207369676e617475726500006044820152606490fd5b6040519061182282611572565b8054821015611a11575f5260205f2001905f90565b634e487b7160e01b5f52603260045260245ffd5b90604051611a3281611572565b602081935463ffffffff81168352811c910152565b15611a4e57565b60405162461bcd60e51b815260206004820152601960248201527f4552433230566f7465733a20667574757265206c6f6f6b7570000000000000006044820152606490fd5b9190820391821161059657565b15611aa757565b60405162461bcd60e51b815260206004820152601960248201527f4552433230566f7465733a20696e76616c6964206e6f6e6365000000000000006044820152606490fd5b15611af357565b60405162461bcd60e51b815260206004820152603060248201527f4552433230566f7465733a20746f74616c20737570706c79207269736b73206f60448201526f766572666c6f77696e6720766f74657360801b6064820152608490fd5b15611b5857565b60405162461bcd60e51b815260206004820152602260248201527f45524332303a206275726e20616d6f756e7420657863656564732062616c616e604482015261636560f01b6064820152608490fd5b60096020527fec8156718a8372b1db44bb411437d0870f3e3790d4a08526d024ce1b0b668f6b546001600160a01b039182165f908152604090205461182293929081169116611ce3565b6001600160a01b039081165f908152600960205260408120549080527fec8156718a8372b1db44bb411437d0870f3e3790d4a08526d024ce1b0b668f6b5461182293929081169116611ce3565b6001600160a01b039081165f9081526009602052604080822054938316825290205461182293929082169116611ce3565b6118229160018060a01b038092165f928184526009602052806040852054168092856020527f3134e8a2e6d97e929a7e54011ea5485d7d196dd5f0ba4d4ef95803e8e3fc257f60408720549660096020526040812094871694856bffffffffffffffffffffffff60a01b82541617905580a45b6001600160a01b03808316939291168084141580611eea575b611d07575b50505050565b80611d74575b5082611d1a575b80611d01565b6001600160a01b03165f908152600a602052604090207fdec2bacdd2f05b59de34da9b523dff8be42e5e38e818c82fdb0bae774387a72491611d5b916120f2565b60408051928352602083019190915290a25f8080611d14565b805f52600a6020527fdec2bacdd2f05b59de34da9b523dff8be42e5e38e818c82fdb0bae774387a72460405f208054801591825f14611eca57611db56119ef565b5f81525f6020820152915b6020830151611ddf906001600160e01b03165b6001600160e01b031690565b92611dea8985612957565b94159081611ea7575b5015611e4557611e18611e2f92611e0986612822565b925f1901905f5260205f200190565b9063ffffffff82549181199060201b169116179055565b604080519182526020820192909252a25f611d0d565b50611ea290611e69611e64611e594361288b565b65ffffffffffff1690565b6128f2565b90611e9d611e7686612822565b611e8d611e816119ef565b63ffffffff9095168552565b6001600160e01b03166020840152565b611f59565b611e2f565b5163ffffffff16905063ffffffff611ec1611e594361288b565b9116145f611df3565b611ee4611edf5f198401835f5260205f200190565b611a25565b91611dc0565b50821515611cfc565b600b5490600160401b82101561158e576001820180600b55821015611a1157600b5f52805160209182015190911b63ffffffff191663ffffffff91909116177f0175b7a638427703f0dbe7bb9bbf987a2551717b34e79f33b5b1008d1fa01db990910155565b8054600160401b81101561158e57611f76916001820181556119fc565b611f9d57815160209283015190921b63ffffffff191663ffffffff92909216919091179055565b634e487b7160e01b5f525f60045260245ffd5b600b549091811591821561208857611fc66119ef565b5f81525f60208201525b6020810151611ff290611feb906001600160e01b0316611dd3565b9586612964565b93159081612065575b501561201a5761182290611e1861201185612822565b915f19016121a5565b5061182261202d611e64611e594361288b565b61206061203985612822565b6120506120446119ef565b63ffffffff9094168452565b6001600160e01b03166020830152565b611ef3565b5163ffffffff16905063ffffffff61207f611e594361288b565b9116145f611ffb565b612097611edf5f1983016121a5565b611fd0565b600b54909181159182156120de576120b26119ef565b5f81525f60208201525b6020810151611ff2906120d7906001600160e01b0316611dd3565b9586612957565b6120ed611edf5f1983016121a5565b6120bc565b9091815491821592835f1461218b576121096119ef565b5f81525f60208201525b60208101516121359061212e906001600160e01b0316611dd3565b9687612964565b94159081612168575b501561215457611e1861182292611e0986612822565b5061182290611e69611e64611e594361288b565b5163ffffffff16905063ffffffff612182611e594361288b565b9116145f61213e565b6121a0611edf5f198301845f5260205f200190565b612113565b600b5f527f0175b7a638427703f0dbe7bb9bbf987a2551717b34e79f33b5b1008d1fa01db90190565b9161031793916121dd93612323565b919091612203565b600511156121ef57565b634e487b7160e01b5f52602160045260245ffd5b61220c816121e5565b806122145750565b61221d816121e5565b6001810361226a5760405162461bcd60e51b815260206004820152601860248201527f45434453413a20696e76616c6964207369676e617475726500000000000000006044820152606490fd5b612273816121e5565b600281036122c05760405162461bcd60e51b815260206004820152601f60248201527f45434453413a20696e76616c6964207369676e6174757265206c656e677468006044820152606490fd5b806122cc6003926121e5565b146122d357565b60405162461bcd60e51b815260206004820152602260248201527f45434453413a20696e76616c6964207369676e6174757265202773272076616c604482015261756560f01b6064820152608490fd5b9291907f7fffffffffffffffffffffffffffffff5d576e7357a4501ddfe92f46681b20a083116123a55791608094939160ff6020946040519485521684840152604083015260608201525f93849182805260015afa156123985781516001600160a01b03811615612392579190565b50600190565b50604051903d90823e3d90fd5b505050505f90600390565b307f00000000000000000000000000000000000000000000000000000000000000006001600160a01b031614806124a1575b1561240b577f000000000000000000000000000000000000000000000000000000000000000090565b60405160208101907f8b73c3c69bb8fe3d512ecc4cf759cc79239f7b179b0ffacaa9a75d522b39400f82527f000000000000000000000000000000000000000000000000000000000000000060408201527f000000000000000000000000000000000000000000000000000000000000000060608201524660808201523060a082015260a0815261249b816115af565b51902090565b507f000000000000000000000000000000000000000000000000000000000000000046146123e2565b6042906124d56123b0565b906040519161190160f01b8352600283015260228201522090565b60ff811461252e5760ff811690601f821161251c576040519161251283611572565b8252602082015290565b604051632cd44ac360e21b8152600490fd5b50604051600554815f61254083611526565b808352926001908181169081156125c55750600114612567575b50610317925003826115cb565b60055f90815291507f036b6384b5eca791c62761152d0c79bb0604c104a5fb6f4eb0703f3154bb3db05b8483106125aa575061031793505081016020015f61255a565b81935090816020925483858901015201910190918492612591565b90506020925061031794915060ff191682840152151560051b8201015f61255a565b60ff81146126095760ff811690601f821161251c576040519161251283611572565b50604051600654815f61261b83611526565b808352926001908181169081156125c557506001146126415750610317925003826115cb565b60065f90815291507ff652222313e28459528d920b65115c16c04f3efc82aaedc97be59f3f377c0d3f5b848310612684575061031793505081016020015f61255a565b8193509081602092548385890101520191019091849261266b565b81156126a9570490565b634e487b7160e01b5f52601260045260245ffd5b90808216911860011c81018091116105965790565b801561280b57806127a461279d61279361278961277f61277561276b61276160016103179a5f908b60801c806127ff575b508060401c806127f2575b508060201c806127e5575b508060101c806127d8575b508060081c806127cb575b508060041c806127be575b508060021c806127b1575b50821c6127aa575b811c1b61275a818b61269f565b0160011c90565b61275a818a61269f565b61275a818961269f565b61275a818861269f565b61275a818761269f565b61275a818661269f565b61275a818561269f565b809261269f565b90612810565b810161274d565b600291509101905f612745565b600491509101905f61273a565b600891509101905f61272f565b601091509101905f612724565b602091509101905f612719565b604091509101905f61270e565b9150506080905f612703565b505f90565b908082101561281d575090565b905090565b6001600160e01b0390818111612836571690565b60405162461bcd60e51b815260206004820152602760248201527f53616665436173743a2076616c756520646f65736e27742066697420696e20326044820152663234206269747360c81b6064820152608490fd5b65ffffffffffff9081811161289e571690565b60405162461bcd60e51b815260206004820152602660248201527f53616665436173743a2076616c756520646f65736e27742066697420696e203460448201526538206269747360d01b6064820152608490fd5b63ffffffff90818111612903571690565b60405162461bcd60e51b815260206004820152602660248201527f53616665436173743a2076616c756520646f65736e27742066697420696e203360448201526532206269747360d01b6064820152608490fd5b9081039081116105965790565b908101809111610596579056fea26469706673582212208a7e523447e4f25be22e4ae6dd81f9ccebf232670ea4fcb74e8bb17e35a1de2364736f6c63430008140033","linkReferences":{}},"methodIdentifiers":{"CLOCK_MODE()":"4bf5d7e9","DOMAIN_SEPARATOR()":"3644e515","allowance(address,address)":"dd62ed3e","approve(address,uint256)":"095ea7b3","approve(uint256,address,uint256)":"8cb0a511","balanceOf(address)":"70a08231","balanceOf(address,uint256)":"00fdd58e","burn(uint256,address,uint256)":"9eea5f66","checkpoints(address,uint32)":"f1127ed8","clock()":"91ddadf4","decimals()":"313ce567","decreaseAllowance(address,uint256)":"a457c2d7","delegate(address)":"5c19a95c","delegateBySig(address,uint256,uint256,uint8,bytes32,bytes32)":"c3cda520","delegates(address)":"587cde1e","eip712Domain()":"84b0196e","getPastTotalSupply(uint256)":"8e539e8c","getPastVotes(address,uint256)":"3a46b1a8","getVotes(address)":"9ab24eb0","increaseAllowance(address,uint256)":"39509351","mint(uint256,address,uint256)":"836a1040","name()":"06fdde03","nonces(address)":"7ecebe00","numCheckpoints(address)":"6fcfff45","owner()":"8da5cb5b","permit(address,address,uint256,uint256,uint8,bytes32,bytes32)":"d505accf","projectId()":"3fafa127","renounceOwnership()":"715018a6","symbol()":"95d89b41","totalSupply()":"18160ddd","totalSupply(uint256)":"bd85b039","transfer(address,uint256)":"a9059cbb","transfer(uint256,address,uint256)":"f8548e36","transferFrom(address,address,uint256)":"23b872dd","transferFrom(uint256,address,address,uint256)":"1c0f12b6","transferOwnership(address)":"f2fde38b"},"id":82}