{"abi":[{"type":"function","name":"clearGameIdOverride","inputs":[{"name":"_delegate","type":"address","internalType":"address"}],"outputs":[],"stateMutability":"nonpayable"},{"type":"function","name":"gameIdOverrideOf","inputs":[{"name":"_delegate","type":"address","internalType":"address"}],"outputs":[{"name":"gameId","type":"uint256","internalType":"uint256"},{"name":"isSet","type":"bool","internalType":"bool"}],"stateMutability":"view"},{"type":"function","name":"owner","inputs":[],"outputs":[{"name":"","type":"address","internalType":"address"}],"stateMutability":"view"},{"type":"function","name":"renounceOwnership","inputs":[],"outputs":[],"stateMutability":"nonpayable"},{"type":"function","name":"setGameIdOverride","inputs":[{"name":"_delegate","type":"address","internalType":"address"},{"name":"_gameId","type":"uint256","internalType":"uint256"}],"outputs":[],"stateMutability":"nonpayable"},{"type":"function","name":"tokenUriOf","inputs":[{"name":"_nft","type":"address","internalType":"address"},{"name":"_tokenId","type":"uint256","internalType":"uint256"}],"outputs":[{"name":"","type":"string","internalType":"string"}],"stateMutability":"view"},{"type":"function","name":"transferOwnership","inputs":[{"name":"newOwner","type":"address","internalType":"address"}],"outputs":[],"stateMutability":"nonpayable"},{"type":"function","name":"typeface","inputs":[],"outputs":[{"name":"","type":"address","internalType":"contract ITypeface"}],"stateMutability":"pure"},{"type":"event","name":"GameIdOverrideSet","inputs":[{"name":"delegate","type":"address","indexed":true,"internalType":"address"},{"name":"gameId","type":"uint256","indexed":true,"internalType":"uint256"}],"anonymous":false},{"type":"event","name":"OwnershipTransferred","inputs":[{"name":"previousOwner","type":"address","indexed":true,"internalType":"address"},{"name":"newOwner","type":"address","indexed":true,"internalType":"address"}],"anonymous":false},{"type":"error","name":"PRBMath__MulDivOverflow","inputs":[{"name":"prod1","type":"uint256","internalType":"uint256"},{"name":"denominator","type":"uint256","internalType":"uint256"}]}],"bytecode":{"object":"0x6080806040523461005a575f8054336001600160a01b0319821681178355916001600160a01b03909116907f8be0079c531659141344cd1fd0a4f28419497f9722a3daafe3b4186f6b6457e09080a3612d6d908161005f8239f35b5f80fdfe60806040526004361015610011575f80fd5b5f803560e01c9081630b46800f14610097575080634ac9bf50146100925780634d5a1d111461008d5780635e703e7114610088578063715018a6146100835780638da5cb5b1461007e578063d039b0aa146100795763f2fde38b14610074575f80fd5b610301565b61028b565b610264565b61020a565b6101c2565b610187565b61011c565b346100e55760203660031901126100e5576004356100b4816100e8565b6001600160a01b031681526001602090815260408083205460029092529182902054608091825260ff16151560a052f35b80fd5b6001600160a01b038116036100f957565b5f80fd5b60409060031901126100f957600435610115816100e8565b9060243590565b346100f95761012a366100fd565b90610133612afc565b60018060a01b0316905f918083526001602052816040842055600260205260408320600160ff198254161790557f62a7e552e08f478c8ac8ec9690c781143df5a260c0986de3dfd7030ba06caa548380a380f35b346100f9575f3660031901126100f95760206040515f8152f35b5f5b8381106101b25750505f910152565b81810151838201526020016101a3565b346100f9576101d96101d3366100fd565b90610bc9565b604080518092602082526101fc81518092816020860152602086860191016101a1565b601f01601f19168101030190f35b346100f9575f806003193601126100e557610223612afc565b80546001600160a01b03198116825581906001600160a01b03167f8be0079c531659141344cd1fd0a4f28419497f9722a3daafe3b4186f6b6457e08280a380f35b346100f9575f3660031901126100f9575f546040516001600160a01b039091168152602090f35b346100f95760203660031901126100f9576004356102a8816100e8565b6102b0612afc565b60018060a01b03165f8181928252600160205281604081205560026020526040822060ff1981541690557f62a7e552e08f478c8ac8ec9690c781143df5a260c0986de3dfd7030ba06caa548280a380f35b346100f95760203660031901126100f95760043561031e816100e8565b610326612afc565b6001600160a01b039081168015610373575f80546001600160a01b03198116831782559092167f8be0079c531659141344cd1fd0a4f28419497f9722a3daafe3b4186f6b6457e08380a380f35b60405162461bcd60e51b815260206004820152602660248201527f4f776e61626c653a206e6577206f776e657220697320746865207a65726f206160448201526564647265737360d01b6064820152608490fd5b634e487b7160e01b5f52604160045260245ffd5b6020810190811067ffffffffffffffff8211176103f757604052565b6103c7565b6040810190811067ffffffffffffffff8211176103f757604052565b6060810190811067ffffffffffffffff8211176103f757604052565b90601f8019910116810190811067ffffffffffffffff8211176103f757604052565b908160209103126100f9575161046b816100e8565b90565b6040513d5f823e3d90fd5b60405190610180820182811067ffffffffffffffff8211176103f757604052565b60405190610180820182811067ffffffffffffffff8211176103f7576040526060610160835f80825280602083015280604083015280848301528060808301528060a08301528060c08301528060e083015280610100830152806101208301526101408201520152565b519061050f826100e8565b565b519081151582036100f957565b67ffffffffffffffff81116103f757601f01601f191660200190565b81601f820112156100f95780516105508161051e565b9261055e6040519485610434565b818452602082840101116100f95761046b91602080850191016101a1565b6020818303126100f957805167ffffffffffffffff918282116100f95701610180818403126100f9576105ad610479565b92815184526020820151602085015260408201516040850152606082015160608501526080820151608085015260a082015160a08501526105f060c08301610504565b60c085015260e082015160e08501526101008083015190850152610120610618818401610511565b9085015261014061062a818401610511565b9085015261016092838301519081116100f957610647920161053a565b9082015290565b906020828203126100f957815167ffffffffffffffff81116100f95761046b920161053a565b90610687602092828151948592016101a1565b0190565b60405190610698826103db565b5f8252565b604051906106aa826103fc565b600682526544656669666160d01b6020830152565b908160209103126100f9575190565b634e487b7160e01b5f52601160045260245ffd5b90600282018092116106f057565b6106ce565b90602082018092116106f057565b919082018092116106f057565b6040519061071d826103fc565b60078252662ab735b737bbb760c91b6020830152565b60405190610740826103fc565b601782527f5068617365206461746120756e617661696c61626c652e0000000000000000006020830152565b6007111561077657565b634e487b7160e01b5f52602160045260245ffd5b6040519061079782610418565b602a82526934b6903932bbb0b9321760b11b6040837f53636f726563617264206c6f636b656420696e2e204275726e20746f20636c6160208201520152565b604051906107e3826103fc565b601c82527f4177616974696e672073636f72656361726420617070726f76616c2e000000006020830152565b6040519061081c82610418565b602482526334b7339760e11b6040837f4d696e74696e67206973206f7665722e20526566756e64732061726520656e6460208201520152565b60405190610862826103fc565b601d82527f4d696e74696e6720616e6420726566756e647320617265206f70656e2e0000006020830152565b6040519061089b826103fc565b601482527326b4b73a34b7339039ba30b93a399039b7b7b71760611b6020830152565b604051906108cb82610418565b60248252633832b71760e11b6040837f4e6f20636f6e7465737420696e6576697461626c652e20526566756e6473206f60208201520152565b60405190610911826103fc565b601982527f4e6f20636f6e746573742e20526566756e6473206f70656e2e000000000000006020830152565b919082039182116106f057565b60405190610957826103fc565b601382527220636172647320696e206578697374656e636560681b6020830152565b60405190610986826103fc565b6012825271206361726420696e206578697374656e636560701b6020830152565b604051906109b4826103fc565b600d82526c1031b0b932399039b7903330b960991b6020830152565b604051906109dd826103fc565b600c82526b1031b0b9321039b7903330b960a11b6020830152565b908160209103126100f95761046b90610511565b60405190610a19826103fc565b601582527420bbb0b4ba34b7339039b1b7b932b1b0b93217171760591b6020830152565b67ffffffffffffffff81116103f75760051b60200190565b6040519060a0820182811067ffffffffffffffff8211176103f75760405260048252815f5b60808110610a86575050565b806060602080938501015201610a7a565b60405190610aa4826103fc565b601d82527f646174613a6170706c69636174696f6e2f6a736f6e3b6261736536342c0000006020830152565b634e487b7160e01b5f52603260045260245ffd5b805115610af15760200190565b610ad0565b805160011015610af15760400190565b805160021015610af15760600190565b805160031015610af15760800190565b8051821015610af15760209160051b010190565b60405190610b47826103fc565b60018252602d60f81b6020830152565b661e17ba32bc3a1f60c91b815260070190565b60405190610b77826103fc565b6002825261227d60f01b6020830152565b602061050f919392936040519481610ba987935180928680870191016101a1565b8201610bbd825180938680850191016101a1565b01038085520183610434565b60405163975057e760e01b81529091906001600160a01b03905f6020826004818689165afa909181611de1575b50610c0757505061046b915061203d565b9281841615611dd5575f610c1961049a565b5060405163c44a8e6d60e01b81528383166001600160a01b03166004820152602481018590525f60448201529080826064818988165afa90918282611db0575b5050610c6c5750505061046b915061203d565b9360e085018051611d5357508451604051630dd55e1f60e11b81526004810191909152606094905f816024818789165afa5f9181611d38575b50611d30575b50845115611cfb575b6040516306fdde0360e01b81525f8082600481888a165afa90918282611cd6575b5050611cd15750610ce461069d565b5f958787966040516356539f3960e01b8152602081600481858c165afa8a9181611cb0575b50611c9b575b50871580611c7a575b611c4b575b60405163282d924360e21b815285939291905f906020816004818d87165afa829181611c2a575b50611c22575b50610deb8b8a610d8c8d5f90604051631c91760360e21b81526020816004818c89165afa839181611bf1575b50611be9575b505f9015611be357508390611f22565b6040516327f6e97960e01b8152939790969195919390925f916020816004818a8f165afa839181611bc2575b50611bb8575b5081610dc991610703565b9715611b965750610ddb8686896124f3565b9f5b5f9015611b8e575090611e1a565b94819b919788610df9610733565b99611a3e575b9181610f5799979593610e20606060209b999795015160408401519061093d565b905f9080611a2b575b156119f55750610e75816001610e41610e6194612b53565b91036119e557610e67610e526109d0565b6040519485938f850190610674565b90610674565b03601f198101835282610434565b9e5b604051634f228e1160e01b815260048101949094525f938a81602481898e165afa8591816119c6575b506119be575b50604051635460afa560e11b81525f98908b816004818a8f165afa8a918161198f575b50611987575b50898b5f9760046040518094819363640abacd60e01b8352165afa879181611968575b50611960575b508161192e575b5080611925575b1561190d575090610f179291612c94565b926118ff57505050610f27610a0c565b985b604051630cf9530d60e41b81529a82166001600160a01b031660048c01525f9a938492839182906024820190565b0392165afa8891816118ce575b506118c6575b50610f73610a55565b98610f7c610a97565b610f858b610ae4565b52610f8f8a610ae4565b508a51610f9b90612b53565b9a51610fa690612b53565b604051683d913730b6b2911d1160b91b60208201529b8c9190610fcc6029840187610674565b691116101134b2111d101160b11b8152600a01610fe891610674565b7f222c226465736372697074696f6e223a225465616d3a2000000000000000000081526017016110189086610674565b650161024a21d160d51b815260060161103091610674565b7f2e222c22696d616765223a22646174613a696d6167652f7376672b786d6c3b62815265185cd94d8d0b60d21b6020820152602601039a601f199b8c8101825261107a9082610434565b6110838b610af6565b5261108d8a610af6565b50806118ba57506110a561109f610b3a565b97612b53565b936110b86110b2826121a9565b91612276565b906110c284612313565b511515806118a8575b1561189a576110d98461244d565b925b6110e485612313565b515f9015611867575061111c6110f9866123b0565b955b61110481612313565b515f901561183f575061111690612313565b96612b53565b966040519b8c9b60208d0161117b90603e907f3c7376672076696577426f783d2230203020353030203530302220786d6c6e7381527f3d22687474703a2f2f7777772e77332e6f72672f323030302f737667223e000060208201520190565b661e39ba3cb6329f60c91b81526007017f746578747b77686974652d73706163653a7072652d777261703b77696474683a81527f313030253b666f6e742d66616d696c793a22436f7572696572204e6577222c2060208201526a6d6f6e6f73706163653b7d60a81b6040820152604b017f2e7468696e7b666f6e742d7765696768743a3530303b666f6e742d66616d696c81527f793a22436f7572696572204e6577222c206d6f6e6f73706163653b7d000000006020820152603c017f2e626f6c647b666f6e742d7765696768743a3730303b666f6e742d66616d696c81527f793a22436f7572696572204e6577222c206d6f6e6f73706163653b7d000000006020820152603c01671e17b9ba3cb6329f60c11b81526008017f3c726563742077696474683d223130302522206865696768743d223130302522815270103334b6361e9111989c189a191a11179f60791b60208201526031017f3c7465787420783d2231302220793d2233302220636c6173733d227468696e2281527f207374796c653d22666f6e742d73697a653a313670783b66696c6c3a2363306260208201526b019b3189d911f23a0a6a29d160a51b6040820152604c0161133e91610674565b670103e102827aa1d160c51b815260080161135891610674565b690103e1021a0a922299d160b51b8152600a0161137491610674565b61137d90610b57565b7f3c7465787420783d2231302220793d2235302220636c6173733d227468696e2281527f207374796c653d22666f6e742d73697a653a313670783b66696c6c3a23656430602082015265189bb19d911f60d11b60408201526046016113e191610674565b6113ea90610b57565b7f3c7465787420783d2231302220793d2238352220636c6173733d227468696e2281527f207374796c653d22666f6e742d73697a653a323670783b66696c6c3a2363306260208201526519b3189d911f60d11b604082015260460161144e91610674565b61145790610b57565b7f3c7465787420783d2231302220793d223132302220636c6173733d227468696e81527f22207374796c653d22666f6e742d73697a653a323670783b66696c6c3a2363306020820152663119b3189d911f60c91b60408201526047016114bc91610674565b6114c590610b57565b7f3c7465787420783d2231302220793d223230352220636c6173733d22626f6c6481527f22207374796c653d22666f6e742d73697a653a383070783b66696c6c3a23666560208201526630991c191d911f60c91b604082015260470161152a91610674565b61153390610b57565b7f3c7465787420783d2231302220793d223239352220636c6173733d22626f6c6481527f22207374796c653d22666f6e742d73697a653a383070783b66696c6c3a23666560208201526630991c191d911f60c91b604082015260470161159891610674565b6115a190610b57565b7f3c7465787420783d2231302220793d223338352220636c6173733d22626f6c6481527f22207374796c653d22666f6e742d73697a653a383070783b66696c6c3a23666560208201526630991c191d911f60c91b604082015260470161160691610674565b61160f90610b57565b7f3c7465787420783d2231302220793d223433302220636c6173733d227468696e81527f22207374796c653d22666f6e742d73697a653a313670783b66696c6c3a23633060208201527003119b3189d911f2a27a5a2a71024a21d1607d1b604082015260510161167e91610674565b61168790610b57565b7f3c7465787420783d2231302220793d223435352220636c6173733d227468696e81527f22207374796c653d22666f6e742d73697a653a313670783b66696c6c3a23633060208201526e03119b3189d911f2920a924aa2c9d1608d1b6040820152604f016116f491610674565b6116fd90610b57565b7f3c7465787420783d2231302220793d223438302220636c6173733d227468696e81527f22207374796c653d22666f6e742d73697a653a313670783b66696c6c3a23633060208201527103119b3189d911f2120a1a5a2a210212c9d160751b604082015260520161176d91610674565b61177690610b57565b651e17b9bb339f60d11b81526006010383810182526117959082610434565b61179e906126f7565b6117a782610b06565b526117b181610b06565b506117ba610b6a565b6117c382610b16565b526117cd81610b16565b506117d781610ae4565b51916117e282610af6565b516117ec83610b06565b51926117f790610b16565b516040519384926020840161180b91610674565b61181491610674565b61181d91610674565b03908101825261182d9082610434565b611836906126f7565b61046b91610b88565b611848826123b0565b5115905061185957611116906123b0565b6118629061244d565b611116565b611870866123b0565b5115905061188a5761111c6118848661244d565b956110fb565b61111c61189561068b565b611884565b6118a261068b565b926110db565b506118b2846123b0565b5115156110cb565b61109f6110a591612b53565b96505f610f6a565b6118f191925060203d6020116118f8575b6118e98183610434565b8101906106bf565b905f610f64565b503d6118df565b611908926124f3565b610f27565b91505061191f945086915001516124f3565b98610f29565b50831515610f06565b90506119398161076c565b6003811490811561194c575b505f610eff565b600491506119598161076c565b145f611945565b95505f610ef8565b6119809192508d3d8f116118f8576118e98183610434565b905f610ef2565b98505f610ecf565b6119b09192508d3d8f116119b7575b6119a88183610434565b8101906109f8565b905f610ec9565b503d61199e565b93505f610ea6565b6119de9192508c3d8e116118f8576118e98183610434565b905f610ea0565b610e676119f06109a7565b610e52565b611a1a90600183611a08610e6195612b53565b925003611a2057610e67610e52610979565b9e610e77565b610e676119f061094a565b50611a358961076c565b60018914610e29565b98611a488861076c565b60068803611a78575091610f57979593916020979593611a66610904565b9a5b9193959799509193959750610dff565b611a818861076c565b60058803611aa5575091610f57979593916020979593611a9f6108be565b9a611a68565b611aae8861076c565b87611ac9575091610f57979593916020979593611a9f61088e565b611ad28861076c565b60018803611af0575091610f57979593916020979593611a9f610855565b611af98861076c565b60028803611b17575091610f57979593916020979593611a9f61080f565b611b208861076c565b60038803611b3e575091610f57979593916020979593611a9f6107d6565b9850611b498761076c565b8c60048814611b66575b91602097959391610f5799979593611a68565b985091610f57979593916020979593611b7d61078a565b9a9193959799509193959750611b53565b905090611e1a565b86868215611bad57611ba7926124f3565b9f610ddd565b505050611ba7610710565b9150610dc9610dbe565b611bdc91925060203d6020116118f8576118e98183610434565b905f610db8565b90611f22565b91505f610d7c565b611c1491925060203d602011611c1b575b611c0c8183610434565b810190610456565b905f610d76565b503d611c02565b90505f610d4a565b611c4491925060203d602011611c1b57611c0c8183610434565b905f610d44565b965050955081611c6b8560018060a01b03165f52600160205260405f2090565b54968860019790919250610d1d565b506001600160a01b0387165f9081526002602052604090205460ff16610d18565b8015610d0f579850600197508991505f610d0f565b611cca91925060203d6020116118f8576118e98183610434565b905f610d09565b610ce4565b611cf39293503d8091833e611ceb8183610434565b81019061064e565b905f80610cd5565b9350610e67611d2a611d0d8751612b53565b6040516402a34b2b9160dd1b602082015292839160258301610e61565b93610cb4565b94505f610cab565b611d4c91923d8091833e611ceb8183610434565b905f610ca5565b604051636c0360eb60e01b8152949550925f928592506004918391165afa5f9281611d95575b50611d8957505061046b9061203d565b61046b925051906127da565b611da991933d8091833e611ceb8183610434565b915f611d79565b611dcd9293503d8091833e611dc58183610434565b81019061057c565b905f80610c59565b505061046b915061203d565b611dfb91925060203d602011611c1b57611c0c8183610434565b905f610bf6565b908160209103126100f9575160078110156100f95790565b6001600160a01b0316908115611ef65760405163038ab08560e11b8082526004820183905260209290918381602481885afa5f9181611ed7575b50611ecb5750611e68575b5050505f905f90565b6040519081525f6004820152918190839060249082905afa9182915f93611e9c575b5050611e97578080611e5f565b600191565b611ebc929350803d10611ec4575b611eb48183610434565b810190611e02565b905f80611e8a565b503d611eaa565b94935050505060019190565b611eef919250853d8711611ec457611eb48183610434565b905f611e54565b50505f905f90565b908160609103126100f95780519160406020830151611f1c816100e8565b92015190565b6001600160a01b031690811561202e57604051635a6fd84360e11b808252600482018390525f602483015260609290918381604481885afa5f918291829181612008575b50611ff957505050611f83575b5050505f905f9061eeee90601290565b819060405193849182528180611fa660048201905f602060408401938281520152565b03915afa805f9384938593611fc2575b505015611f7357600193565b9194509150611fe69250803d10611ff2575b611fde8183610434565b810190611efe565b91929091905f80611fb6565b503d611fd4565b60019792965090945092509050565b915092506120239150853d8711611ff257611fde8183610434565b91929091905f611f66565b50505f905f9061eeee90601290565b6120496120e391612b53565b6120de606c60405180937f7b226e616d65223a224465666966612047616d65204e46542023000000000000602083015261208d815180926020603a860191016101a1565b81017f222c226465736372697074696f6e223a224d6574616461746120756e61766169603a820152716c61626c65222c22696d616765223a22227d60701b605a82015203604c810184520182610434565b6126f7565b61046b603d60405180937f646174613a6170706c69636174696f6e2f6a736f6e3b6261736536342c000000602083015261212681518092602086860191016101a1565b810103601d810184520182610434565b8051601e1015610af157603e0190565b805160141015610af15760340190565b8051600a1015610af157602a0190565b908151811015610af1570160200190565b906121818261051e565b61218e6040519182610434565b828152809261219f601f199161051e565b0190602036910137565b90601e82511561226b578251808211612263575b50600160fd1b6001600160f81b03196121e66121d886610ae4565b516001600160f81b03191690565b1614905f915f1461225d576001915b818310156122505761220f61220a848461093d565b612177565b92805b8381106122225750929450505050565b806122326121d86001938a612166565b61224961223f858461093d565b91861a9188612166565b5301612212565b505050905061046b61068b565b816121f5565b90505f6121bd565b50905061046b61068b565b90603c8251601e101561226b57825180821161230b575b50600160fd1b6001600160f81b03196122a86121d886612136565b1614905f915f1461230357601f915b81831015612250576122cc61220a848461093d565b92805b8381106122df5750929450505050565b806122ef6121d86001938a612166565b6122fc61223f858461093d565b53016122cf565b601e916122b7565b90505f61228d565b90601e82516014101561226b5782518082116123a8575b50600160fd1b6001600160f81b03196123456121d886612146565b1614905f915f146123a0576015915b818310156122505761236961220a848461093d565b92805b83811061237c5750929450505050565b8061238c6121d86001938a612166565b61239961223f858461093d565b530161236c565b601491612354565b90505f61232a565b9060148251600a101561226b578251808211612445575b50600160fd1b6001600160f81b03196123e26121d886612156565b1614905f915f1461243d57600b915b818310156122505761240661220a848461093d565b92805b8381106124195750929450505050565b806124296121d86001938a612166565b61243661223f858461093d565b5301612409565b600a916123f1565b90505f6123c7565b90600a82511561226b5782518082116124dd575b50600160fd1b6001600160f81b031961247c6121d886610ae4565b1614905f915f146124d7576001915b81831015612250576124a061220a848461093d565b92805b8381106124b35750929450505050565b806124c36121d86001938a612166565b6124d061223f858461093d565b53016124a3565b8161248b565b90505f612461565b604d81116106f057600a0a90565b6001600160a01b03909116916125399061252490612510906124e5565b61253461252f8261252961252482896126a3565b612b53565b96612897565b6126ca565b6126a3565b60038151101561256957604051600360fc1b602082015290612564908290610e679060218301610e61565b612539565b915f9061eeee81036125ac57505060405161674f60f11b60208201529161046b918391610e6791610e619061259f906022860183565b601760f91b815260010190565b908060049392604051948580926395d89b4160e01b82525afa801561262b5761259f9461046b9483610e679493612607575b50506125fa610e6191610e616040519889976020890190610674565b600160fd1b815260010190565b610e619293506125fa91612624913d8091833e611ceb8183610434565b92916125de565b61046e565b6040519061263d82610418565b604082527f6768696a6b6c6d6e6f707172737475767778797a303132333435363738392b2f6040837f4142434445464748494a4b4c4d4e4f505152535455565758595a61626364656660208201520152565b634e487b7160e01b5f52601260045260245ffd5b81156126ad570490565b61268f565b600281901b91906001600160fe1b038116036106f057565b906103e8918281029281840414901517156106f057565b6040516126ed816103db565b5f8152905f368137565b8051156127d157612706612630565b61272261271d61271684516106e2565b6003900490565b6126b2565b9161272f61220a846106f5565b92835280815182019060208501935b82821061277f5750505060039051068060011461276e57600214612760575090565b603d60f81b5f199091015290565b50613d3d60f01b6001199091015290565b9091936004906003809401938451600190603f9082828260121c16880101518553828282600c1c16880101518386015382828260061c168801015160028601531685010151908201530193919061273e565b5061046b61068b565b9061046b90612808604051602092609160f51b8483015260228201526022815261280381610418565b6128a1565b92604051938161282186935180928680870191016101a1565b8201612835825180938680850191016101a1565b01038084520182610434565b604051906105e0820182811067ffffffffffffffff8211176103f757604052602e82526105c0366020840137565b9061287982610a3d565b6128866040519182610434565b828152809261219f601f1991610a3d565b81156126ad570690565b908151156129b7576128b1612841565b915f90816128be85610ae4565b5260019181519181925b8084106128ee57505050506128e46128e99161046b93946129c1565b612a03565b612a48565b9091929461291161290b6129056121d88987612166565b60f81c90565b60ff1690565b9184925b60ff9089828916861015612976576001929161294a61294461290b61293d8a61295096610b26565b5160ff1690565b60081b90565b90610703565b61296d8b61296588603a958686061692610b26565b9060ff169052565b04930192612915565b50919594935050809691965b6129905750600101926128c8565b9460ff6001603a926129ad83858b06166129658d86851690610b26565b0116950480612982565b905061046b6126e1565b9060ff809116906129d18261286f565b925f5b8381106129e2575050505090565b80836129f060019385610b26565b51166129fc8288610b26565b52016129d4565b908151612a0f8161286f565b905f5b818110612a20575090925050565b60019060ff612a355f19838951030188610b26565b5116612a418286610b26565b5201612a12565b8051612a5381612177565b915f90815b838110612a66575050505090565b60019060407f5a6162636465666768696a6b6d6e6f707172737475767778797a000000000000815191612a9883610418565b603a83527f31323334353637383941424344454647484a4b4c4d4e5051525354555657585960208401528201526001600160f81b031990612ae79060ff612adf8588610b26565b511690612166565b5116841a612af58288612166565b5301612a58565b5f546001600160a01b03163303612b0f57565b606460405162461bcd60e51b815260206004820152602060248201527f4f776e61626c653a2063616c6c6572206973206e6f7420746865206f776e65726044820152fd5b805f917a184f03e93ff9f4daa797ed6e38ed64bf6a1f01000000000000000080821015612c86575b506d04ee2d6d415b85acef810000000080831015612c77575b50662386f26fc1000080831015612c68575b506305f5e10080831015612c59575b5061271080831015612c4a575b506064821015612c3a575b600a80921015612c30575b600190816021612be9828701612177565b95860101905b612bfb575b5050505090565b5f19019083906f181899199a1a9b1b9c1cb0b131b232b360811b8282061a835304918215612c2b57919082612bef565b612bf4565b9160010191612bd8565b9190606460029104910191612bcd565b6004919392049101915f612bc2565b6008919392049101915f612bb5565b6010919392049101915f612ba6565b6020919392049101915f612b94565b60409350810491505f612b7b565b90915f198383099280830292838086109503948086039514612d2a5782851015612d0a579082910960018219018216809204600280826003021880830282030280830282030280830282030280830282030280830282030280920290030293600183805f03040190848311900302920304170290565b604051631dcf306360e21b81526004810186905260248101849052604490fd5b50509061046b92506126a356fea26469706673582212203ab532d804c5203469240f52dc7022f8fe870cf236f7e9f1e74fd3aa1adf5e0864736f6c63430008140033","linkReferences":{}},"methodIdentifiers":{"clearGameIdOverride(address)":"d039b0aa","gameIdOverrideOf(address)":"0b46800f","owner()":"8da5cb5b","renounceOwnership()":"715018a6","setGameIdOverride(address,uint256)":"4ac9bf50","tokenUriOf(address,uint256)":"5e703e71","transferOwnership(address)":"f2fde38b","typeface()":"4d5a1d11"},"id":0}