{"abi":[{"type":"constructor","inputs":[{"name":"_operatorStore","type":"address","internalType":"contract IJBOperatorStore"},{"name":"_projects","type":"address","internalType":"contract IJBProjects"},{"name":"_directory","type":"address","internalType":"contract IJBDirectory"},{"name":"_fundingCycleStore","type":"address","internalType":"contract IJBFundingCycleStore"},{"name":"_tokenStore","type":"address","internalType":"contract IJBTokenStore"},{"name":"_splitsStore","type":"address","internalType":"contract IJBSplitsStore"},{"name":"_fundAccessConstraintsStore","type":"address","internalType":"contract IJBFundAccessConstraintsStore"}],"stateMutability":"nonpayable"},{"type":"function","name":"burnTokensOf","inputs":[{"name":"_holder","type":"address","internalType":"address"},{"name":"_projectId","type":"uint256","internalType":"uint256"},{"name":"_tokenCount","type":"uint256","internalType":"uint256"},{"name":"_memo","type":"string","internalType":"string"},{"name":"_preferClaimedTokens","type":"bool","internalType":"bool"}],"outputs":[],"stateMutability":"nonpayable"},{"type":"function","name":"currentFundingCycleOf","inputs":[{"name":"_projectId","type":"uint256","internalType":"uint256"}],"outputs":[{"name":"fundingCycle","type":"tuple","internalType":"struct JBFundingCycle","components":[{"name":"number","type":"uint256","internalType":"uint256"},{"name":"configuration","type":"uint256","internalType":"uint256"},{"name":"basedOn","type":"uint256","internalType":"uint256"},{"name":"start","type":"uint256","internalType":"uint256"},{"name":"duration","type":"uint256","internalType":"uint256"},{"name":"weight","type":"uint256","internalType":"uint256"},{"name":"discountRate","type":"uint256","internalType":"uint256"},{"name":"ballot","type":"address","internalType":"contract IJBFundingCycleBallot"},{"name":"metadata","type":"uint256","internalType":"uint256"}]},{"name":"metadata","type":"tuple","internalType":"struct JBFundingCycleMetadata","components":[{"name":"global","type":"tuple","internalType":"struct JBGlobalFundingCycleMetadata","components":[{"name":"allowSetTerminals","type":"bool","internalType":"bool"},{"name":"allowSetController","type":"bool","internalType":"bool"},{"name":"pauseTransfers","type":"bool","internalType":"bool"}]},{"name":"reservedRate","type":"uint256","internalType":"uint256"},{"name":"redemptionRate","type":"uint256","internalType":"uint256"},{"name":"ballotRedemptionRate","type":"uint256","internalType":"uint256"},{"name":"pausePay","type":"bool","internalType":"bool"},{"name":"pauseDistributions","type":"bool","internalType":"bool"},{"name":"pauseRedeem","type":"bool","internalType":"bool"},{"name":"pauseBurn","type":"bool","internalType":"bool"},{"name":"allowMinting","type":"bool","internalType":"bool"},{"name":"allowTerminalMigration","type":"bool","internalType":"bool"},{"name":"allowControllerMigration","type":"bool","internalType":"bool"},{"name":"holdFees","type":"bool","internalType":"bool"},{"name":"preferClaimedTokenOverride","type":"bool","internalType":"bool"},{"name":"useTotalOverflowForRedemptions","type":"bool","internalType":"bool"},{"name":"useDataSourceForPay","type":"bool","internalType":"bool"},{"name":"useDataSourceForRedeem","type":"bool","internalType":"bool"},{"name":"dataSource","type":"address","internalType":"address"},{"name":"metadata","type":"uint256","internalType":"uint256"}]}],"stateMutability":"view"},{"type":"function","name":"directory","inputs":[],"outputs":[{"name":"","type":"address","internalType":"contract IJBDirectory"}],"stateMutability":"view"},{"type":"function","name":"distributeReservedTokensOf","inputs":[{"name":"_projectId","type":"uint256","internalType":"uint256"},{"name":"_memo","type":"string","internalType":"string"}],"outputs":[{"name":"","type":"uint256","internalType":"uint256"}],"stateMutability":"nonpayable"},{"type":"function","name":"fundAccessConstraintsStore","inputs":[],"outputs":[{"name":"","type":"address","internalType":"contract IJBFundAccessConstraintsStore"}],"stateMutability":"view"},{"type":"function","name":"fundingCycleStore","inputs":[],"outputs":[{"name":"","type":"address","internalType":"contract IJBFundingCycleStore"}],"stateMutability":"view"},{"type":"function","name":"getFundingCycleOf","inputs":[{"name":"_projectId","type":"uint256","internalType":"uint256"},{"name":"_configuration","type":"uint256","internalType":"uint256"}],"outputs":[{"name":"fundingCycle","type":"tuple","internalType":"struct JBFundingCycle","components":[{"name":"number","type":"uint256","internalType":"uint256"},{"name":"configuration","type":"uint256","internalType":"uint256"},{"name":"basedOn","type":"uint256","internalType":"uint256"},{"name":"start","type":"uint256","internalType":"uint256"},{"name":"duration","type":"uint256","internalType":"uint256"},{"name":"weight","type":"uint256","internalType":"uint256"},{"name":"discountRate","type":"uint256","internalType":"uint256"},{"name":"ballot","type":"address","internalType":"contract IJBFundingCycleBallot"},{"name":"metadata","type":"uint256","internalType":"uint256"}]},{"name":"metadata","type":"tuple","internalType":"struct JBFundingCycleMetadata","components":[{"name":"global","type":"tuple","internalType":"struct JBGlobalFundingCycleMetadata","components":[{"name":"allowSetTerminals","type":"bool","internalType":"bool"},{"name":"allowSetController","type":"bool","internalType":"bool"},{"name":"pauseTransfers","type":"bool","internalType":"bool"}]},{"name":"reservedRate","type":"uint256","internalType":"uint256"},{"name":"redemptionRate","type":"uint256","internalType":"uint256"},{"name":"ballotRedemptionRate","type":"uint256","internalType":"uint256"},{"name":"pausePay","type":"bool","internalType":"bool"},{"name":"pauseDistributions","type":"bool","internalType":"bool"},{"name":"pauseRedeem","type":"bool","internalType":"bool"},{"name":"pauseBurn","type":"bool","internalType":"bool"},{"name":"allowMinting","type":"bool","internalType":"bool"},{"name":"allowTerminalMigration","type":"bool","internalType":"bool"},{"name":"allowControllerMigration","type":"bool","internalType":"bool"},{"name":"holdFees","type":"bool","internalType":"bool"},{"name":"preferClaimedTokenOverride","type":"bool","internalType":"bool"},{"name":"useTotalOverflowForRedemptions","type":"bool","internalType":"bool"},{"name":"useDataSourceForPay","type":"bool","internalType":"bool"},{"name":"useDataSourceForRedeem","type":"bool","internalType":"bool"},{"name":"dataSource","type":"address","internalType":"address"},{"name":"metadata","type":"uint256","internalType":"uint256"}]}],"stateMutability":"view"},{"type":"function","name":"latestConfiguredFundingCycleOf","inputs":[{"name":"_projectId","type":"uint256","internalType":"uint256"}],"outputs":[{"name":"fundingCycle","type":"tuple","internalType":"struct JBFundingCycle","components":[{"name":"number","type":"uint256","internalType":"uint256"},{"name":"configuration","type":"uint256","internalType":"uint256"},{"name":"basedOn","type":"uint256","internalType":"uint256"},{"name":"start","type":"uint256","internalType":"uint256"},{"name":"duration","type":"uint256","internalType":"uint256"},{"name":"weight","type":"uint256","internalType":"uint256"},{"name":"discountRate","type":"uint256","internalType":"uint256"},{"name":"ballot","type":"address","internalType":"contract IJBFundingCycleBallot"},{"name":"metadata","type":"uint256","internalType":"uint256"}]},{"name":"metadata","type":"tuple","internalType":"struct JBFundingCycleMetadata","components":[{"name":"global","type":"tuple","internalType":"struct JBGlobalFundingCycleMetadata","components":[{"name":"allowSetTerminals","type":"bool","internalType":"bool"},{"name":"allowSetController","type":"bool","internalType":"bool"},{"name":"pauseTransfers","type":"bool","internalType":"bool"}]},{"name":"reservedRate","type":"uint256","internalType":"uint256"},{"name":"redemptionRate","type":"uint256","internalType":"uint256"},{"name":"ballotRedemptionRate","type":"uint256","internalType":"uint256"},{"name":"pausePay","type":"bool","internalType":"bool"},{"name":"pauseDistributions","type":"bool","internalType":"bool"},{"name":"pauseRedeem","type":"bool","internalType":"bool"},{"name":"pauseBurn","type":"bool","internalType":"bool"},{"name":"allowMinting","type":"bool","internalType":"bool"},{"name":"allowTerminalMigration","type":"bool","internalType":"bool"},{"name":"allowControllerMigration","type":"bool","internalType":"bool"},{"name":"holdFees","type":"bool","internalType":"bool"},{"name":"preferClaimedTokenOverride","type":"bool","internalType":"bool"},{"name":"useTotalOverflowForRedemptions","type":"bool","internalType":"bool"},{"name":"useDataSourceForPay","type":"bool","internalType":"bool"},{"name":"useDataSourceForRedeem","type":"bool","internalType":"bool"},{"name":"dataSource","type":"address","internalType":"address"},{"name":"metadata","type":"uint256","internalType":"uint256"}]},{"name":"ballotState","type":"uint8","internalType":"enum JBBallotState"}],"stateMutability":"view"},{"type":"function","name":"launchFundingCyclesFor","inputs":[{"name":"_projectId","type":"uint256","internalType":"uint256"},{"name":"_data","type":"tuple","internalType":"struct JBFundingCycleData","components":[{"name":"duration","type":"uint256","internalType":"uint256"},{"name":"weight","type":"uint256","internalType":"uint256"},{"name":"discountRate","type":"uint256","internalType":"uint256"},{"name":"ballot","type":"address","internalType":"contract IJBFundingCycleBallot"}]},{"name":"_metadata","type":"tuple","internalType":"struct JBFundingCycleMetadata","components":[{"name":"global","type":"tuple","internalType":"struct JBGlobalFundingCycleMetadata","components":[{"name":"allowSetTerminals","type":"bool","internalType":"bool"},{"name":"allowSetController","type":"bool","internalType":"bool"},{"name":"pauseTransfers","type":"bool","internalType":"bool"}]},{"name":"reservedRate","type":"uint256","internalType":"uint256"},{"name":"redemptionRate","type":"uint256","internalType":"uint256"},{"name":"ballotRedemptionRate","type":"uint256","internalType":"uint256"},{"name":"pausePay","type":"bool","internalType":"bool"},{"name":"pauseDistributions","type":"bool","internalType":"bool"},{"name":"pauseRedeem","type":"bool","internalType":"bool"},{"name":"pauseBurn","type":"bool","internalType":"bool"},{"name":"allowMinting","type":"bool","internalType":"bool"},{"name":"allowTerminalMigration","type":"bool","internalType":"bool"},{"name":"allowControllerMigration","type":"bool","internalType":"bool"},{"name":"holdFees","type":"bool","internalType":"bool"},{"name":"preferClaimedTokenOverride","type":"bool","internalType":"bool"},{"name":"useTotalOverflowForRedemptions","type":"bool","internalType":"bool"},{"name":"useDataSourceForPay","type":"bool","internalType":"bool"},{"name":"useDataSourceForRedeem","type":"bool","internalType":"bool"},{"name":"dataSource","type":"address","internalType":"address"},{"name":"metadata","type":"uint256","internalType":"uint256"}]},{"name":"_mustStartAtOrAfter","type":"uint256","internalType":"uint256"},{"name":"_groupedSplits","type":"tuple[]","internalType":"struct JBGroupedSplits[]","components":[{"name":"group","type":"uint256","internalType":"uint256"},{"name":"splits","type":"tuple[]","internalType":"struct JBSplit[]","components":[{"name":"preferClaimed","type":"bool","internalType":"bool"},{"name":"preferAddToBalance","type":"bool","internalType":"bool"},{"name":"percent","type":"uint256","internalType":"uint256"},{"name":"projectId","type":"uint256","internalType":"uint256"},{"name":"beneficiary","type":"address","internalType":"address payable"},{"name":"lockedUntil","type":"uint256","internalType":"uint256"},{"name":"allocator","type":"address","internalType":"contract IJBSplitAllocator"}]}]},{"name":"_fundAccessConstraints","type":"tuple[]","internalType":"struct JBFundAccessConstraints[]","components":[{"name":"terminal","type":"address","internalType":"contract IJBPaymentTerminal"},{"name":"token","type":"address","internalType":"address"},{"name":"distributionLimit","type":"uint256","internalType":"uint256"},{"name":"distributionLimitCurrency","type":"uint256","internalType":"uint256"},{"name":"overflowAllowance","type":"uint256","internalType":"uint256"},{"name":"overflowAllowanceCurrency","type":"uint256","internalType":"uint256"}]},{"name":"_terminals","type":"address[]","internalType":"contract IJBPaymentTerminal[]"},{"name":"_memo","type":"string","internalType":"string"}],"outputs":[{"name":"configuration","type":"uint256","internalType":"uint256"}],"stateMutability":"nonpayable"},{"type":"function","name":"launchProjectFor","inputs":[{"name":"_owner","type":"address","internalType":"address"},{"name":"_projectMetadata","type":"tuple","internalType":"struct JBProjectMetadata","components":[{"name":"content","type":"string","internalType":"string"},{"name":"domain","type":"uint256","internalType":"uint256"}]},{"name":"_data","type":"tuple","internalType":"struct JBFundingCycleData","components":[{"name":"duration","type":"uint256","internalType":"uint256"},{"name":"weight","type":"uint256","internalType":"uint256"},{"name":"discountRate","type":"uint256","internalType":"uint256"},{"name":"ballot","type":"address","internalType":"contract IJBFundingCycleBallot"}]},{"name":"_metadata","type":"tuple","internalType":"struct JBFundingCycleMetadata","components":[{"name":"global","type":"tuple","internalType":"struct JBGlobalFundingCycleMetadata","components":[{"name":"allowSetTerminals","type":"bool","internalType":"bool"},{"name":"allowSetController","type":"bool","internalType":"bool"},{"name":"pauseTransfers","type":"bool","internalType":"bool"}]},{"name":"reservedRate","type":"uint256","internalType":"uint256"},{"name":"redemptionRate","type":"uint256","internalType":"uint256"},{"name":"ballotRedemptionRate","type":"uint256","internalType":"uint256"},{"name":"pausePay","type":"bool","internalType":"bool"},{"name":"pauseDistributions","type":"bool","internalType":"bool"},{"name":"pauseRedeem","type":"bool","internalType":"bool"},{"name":"pauseBurn","type":"bool","internalType":"bool"},{"name":"allowMinting","type":"bool","internalType":"bool"},{"name":"allowTerminalMigration","type":"bool","internalType":"bool"},{"name":"allowControllerMigration","type":"bool","internalType":"bool"},{"name":"holdFees","type":"bool","internalType":"bool"},{"name":"preferClaimedTokenOverride","type":"bool","internalType":"bool"},{"name":"useTotalOverflowForRedemptions","type":"bool","internalType":"bool"},{"name":"useDataSourceForPay","type":"bool","internalType":"bool"},{"name":"useDataSourceForRedeem","type":"bool","internalType":"bool"},{"name":"dataSource","type":"address","internalType":"address"},{"name":"metadata","type":"uint256","internalType":"uint256"}]},{"name":"_mustStartAtOrAfter","type":"uint256","internalType":"uint256"},{"name":"_groupedSplits","type":"tuple[]","internalType":"struct JBGroupedSplits[]","components":[{"name":"group","type":"uint256","internalType":"uint256"},{"name":"splits","type":"tuple[]","internalType":"struct JBSplit[]","components":[{"name":"preferClaimed","type":"bool","internalType":"bool"},{"name":"preferAddToBalance","type":"bool","internalType":"bool"},{"name":"percent","type":"uint256","internalType":"uint256"},{"name":"projectId","type":"uint256","internalType":"uint256"},{"name":"beneficiary","type":"address","internalType":"address payable"},{"name":"lockedUntil","type":"uint256","internalType":"uint256"},{"name":"allocator","type":"address","internalType":"contract IJBSplitAllocator"}]}]},{"name":"_fundAccessConstraints","type":"tuple[]","internalType":"struct JBFundAccessConstraints[]","components":[{"name":"terminal","type":"address","internalType":"contract IJBPaymentTerminal"},{"name":"token","type":"address","internalType":"address"},{"name":"distributionLimit","type":"uint256","internalType":"uint256"},{"name":"distributionLimitCurrency","type":"uint256","internalType":"uint256"},{"name":"overflowAllowance","type":"uint256","internalType":"uint256"},{"name":"overflowAllowanceCurrency","type":"uint256","internalType":"uint256"}]},{"name":"_terminals","type":"address[]","internalType":"contract IJBPaymentTerminal[]"},{"name":"_memo","type":"string","internalType":"string"}],"outputs":[{"name":"projectId","type":"uint256","internalType":"uint256"}],"stateMutability":"nonpayable"},{"type":"function","name":"migrate","inputs":[{"name":"_projectId","type":"uint256","internalType":"uint256"},{"name":"_to","type":"address","internalType":"contract IJBMigratable"}],"outputs":[],"stateMutability":"nonpayable"},{"type":"function","name":"mintTokensOf","inputs":[{"name":"_projectId","type":"uint256","internalType":"uint256"},{"name":"_tokenCount","type":"uint256","internalType":"uint256"},{"name":"_beneficiary","type":"address","internalType":"address"},{"name":"_memo","type":"string","internalType":"string"},{"name":"_preferClaimedTokens","type":"bool","internalType":"bool"},{"name":"_useReservedRate","type":"bool","internalType":"bool"}],"outputs":[{"name":"beneficiaryTokenCount","type":"uint256","internalType":"uint256"}],"stateMutability":"nonpayable"},{"type":"function","name":"operatorStore","inputs":[],"outputs":[{"name":"","type":"address","internalType":"contract IJBOperatorStore"}],"stateMutability":"view"},{"type":"function","name":"prepForMigrationOf","inputs":[{"name":"_projectId","type":"uint256","internalType":"uint256"},{"name":"_from","type":"address","internalType":"address"}],"outputs":[],"stateMutability":"nonpayable"},{"type":"function","name":"projects","inputs":[],"outputs":[{"name":"","type":"address","internalType":"contract IJBProjects"}],"stateMutability":"view"},{"type":"function","name":"queuedFundingCycleOf","inputs":[{"name":"_projectId","type":"uint256","internalType":"uint256"}],"outputs":[{"name":"fundingCycle","type":"tuple","internalType":"struct JBFundingCycle","components":[{"name":"number","type":"uint256","internalType":"uint256"},{"name":"configuration","type":"uint256","internalType":"uint256"},{"name":"basedOn","type":"uint256","internalType":"uint256"},{"name":"start","type":"uint256","internalType":"uint256"},{"name":"duration","type":"uint256","internalType":"uint256"},{"name":"weight","type":"uint256","internalType":"uint256"},{"name":"discountRate","type":"uint256","internalType":"uint256"},{"name":"ballot","type":"address","internalType":"contract IJBFundingCycleBallot"},{"name":"metadata","type":"uint256","internalType":"uint256"}]},{"name":"metadata","type":"tuple","internalType":"struct JBFundingCycleMetadata","components":[{"name":"global","type":"tuple","internalType":"struct JBGlobalFundingCycleMetadata","components":[{"name":"allowSetTerminals","type":"bool","internalType":"bool"},{"name":"allowSetController","type":"bool","internalType":"bool"},{"name":"pauseTransfers","type":"bool","internalType":"bool"}]},{"name":"reservedRate","type":"uint256","internalType":"uint256"},{"name":"redemptionRate","type":"uint256","internalType":"uint256"},{"name":"ballotRedemptionRate","type":"uint256","internalType":"uint256"},{"name":"pausePay","type":"bool","internalType":"bool"},{"name":"pauseDistributions","type":"bool","internalType":"bool"},{"name":"pauseRedeem","type":"bool","internalType":"bool"},{"name":"pauseBurn","type":"bool","internalType":"bool"},{"name":"allowMinting","type":"bool","internalType":"bool"},{"name":"allowTerminalMigration","type":"bool","internalType":"bool"},{"name":"allowControllerMigration","type":"bool","internalType":"bool"},{"name":"holdFees","type":"bool","internalType":"bool"},{"name":"preferClaimedTokenOverride","type":"bool","internalType":"bool"},{"name":"useTotalOverflowForRedemptions","type":"bool","internalType":"bool"},{"name":"useDataSourceForPay","type":"bool","internalType":"bool"},{"name":"useDataSourceForRedeem","type":"bool","internalType":"bool"},{"name":"dataSource","type":"address","internalType":"address"},{"name":"metadata","type":"uint256","internalType":"uint256"}]}],"stateMutability":"view"},{"type":"function","name":"reconfigureFundingCyclesOf","inputs":[{"name":"_projectId","type":"uint256","internalType":"uint256"},{"name":"_data","type":"tuple","internalType":"struct JBFundingCycleData","components":[{"name":"duration","type":"uint256","internalType":"uint256"},{"name":"weight","type":"uint256","internalType":"uint256"},{"name":"discountRate","type":"uint256","internalType":"uint256"},{"name":"ballot","type":"address","internalType":"contract IJBFundingCycleBallot"}]},{"name":"_metadata","type":"tuple","internalType":"struct JBFundingCycleMetadata","components":[{"name":"global","type":"tuple","internalType":"struct JBGlobalFundingCycleMetadata","components":[{"name":"allowSetTerminals","type":"bool","internalType":"bool"},{"name":"allowSetController","type":"bool","internalType":"bool"},{"name":"pauseTransfers","type":"bool","internalType":"bool"}]},{"name":"reservedRate","type":"uint256","internalType":"uint256"},{"name":"redemptionRate","type":"uint256","internalType":"uint256"},{"name":"ballotRedemptionRate","type":"uint256","internalType":"uint256"},{"name":"pausePay","type":"bool","internalType":"bool"},{"name":"pauseDistributions","type":"bool","internalType":"bool"},{"name":"pauseRedeem","type":"bool","internalType":"bool"},{"name":"pauseBurn","type":"bool","internalType":"bool"},{"name":"allowMinting","type":"bool","internalType":"bool"},{"name":"allowTerminalMigration","type":"bool","internalType":"bool"},{"name":"allowControllerMigration","type":"bool","internalType":"bool"},{"name":"holdFees","type":"bool","internalType":"bool"},{"name":"preferClaimedTokenOverride","type":"bool","internalType":"bool"},{"name":"useTotalOverflowForRedemptions","type":"bool","internalType":"bool"},{"name":"useDataSourceForPay","type":"bool","internalType":"bool"},{"name":"useDataSourceForRedeem","type":"bool","internalType":"bool"},{"name":"dataSource","type":"address","internalType":"address"},{"name":"metadata","type":"uint256","internalType":"uint256"}]},{"name":"_mustStartAtOrAfter","type":"uint256","internalType":"uint256"},{"name":"_groupedSplits","type":"tuple[]","internalType":"struct JBGroupedSplits[]","components":[{"name":"group","type":"uint256","internalType":"uint256"},{"name":"splits","type":"tuple[]","internalType":"struct JBSplit[]","components":[{"name":"preferClaimed","type":"bool","internalType":"bool"},{"name":"preferAddToBalance","type":"bool","internalType":"bool"},{"name":"percent","type":"uint256","internalType":"uint256"},{"name":"projectId","type":"uint256","internalType":"uint256"},{"name":"beneficiary","type":"address","internalType":"address payable"},{"name":"lockedUntil","type":"uint256","internalType":"uint256"},{"name":"allocator","type":"address","internalType":"contract IJBSplitAllocator"}]}]},{"name":"_fundAccessConstraints","type":"tuple[]","internalType":"struct JBFundAccessConstraints[]","components":[{"name":"terminal","type":"address","internalType":"contract IJBPaymentTerminal"},{"name":"token","type":"address","internalType":"address"},{"name":"distributionLimit","type":"uint256","internalType":"uint256"},{"name":"distributionLimitCurrency","type":"uint256","internalType":"uint256"},{"name":"overflowAllowance","type":"uint256","internalType":"uint256"},{"name":"overflowAllowanceCurrency","type":"uint256","internalType":"uint256"}]},{"name":"_memo","type":"string","internalType":"string"}],"outputs":[{"name":"configuration","type":"uint256","internalType":"uint256"}],"stateMutability":"nonpayable"},{"type":"function","name":"reservedTokenBalanceOf","inputs":[{"name":"","type":"uint256","internalType":"uint256"}],"outputs":[{"name":"","type":"uint256","internalType":"uint256"}],"stateMutability":"view"},{"type":"function","name":"splitsStore","inputs":[],"outputs":[{"name":"","type":"address","internalType":"contract IJBSplitsStore"}],"stateMutability":"view"},{"type":"function","name":"supportsInterface","inputs":[{"name":"_interfaceId","type":"bytes4","internalType":"bytes4"}],"outputs":[{"name":"","type":"bool","internalType":"bool"}],"stateMutability":"view"},{"type":"function","name":"tokenStore","inputs":[],"outputs":[{"name":"","type":"address","internalType":"contract IJBTokenStore"}],"stateMutability":"view"},{"type":"function","name":"totalOutstandingTokensOf","inputs":[{"name":"_projectId","type":"uint256","internalType":"uint256"}],"outputs":[{"name":"","type":"uint256","internalType":"uint256"}],"stateMutability":"view"},{"type":"event","name":"BurnTokens","inputs":[{"name":"holder","type":"address","indexed":true,"internalType":"address"},{"name":"projectId","type":"uint256","indexed":true,"internalType":"uint256"},{"name":"tokenCount","type":"uint256","indexed":false,"internalType":"uint256"},{"name":"memo","type":"string","indexed":false,"internalType":"string"},{"name":"caller","type":"address","indexed":false,"internalType":"address"}],"anonymous":false},{"type":"event","name":"DistributeReservedTokens","inputs":[{"name":"fundingCycleConfiguration","type":"uint256","indexed":true,"internalType":"uint256"},{"name":"fundingCycleNumber","type":"uint256","indexed":true,"internalType":"uint256"},{"name":"projectId","type":"uint256","indexed":true,"internalType":"uint256"},{"name":"beneficiary","type":"address","indexed":false,"internalType":"address"},{"name":"tokenCount","type":"uint256","indexed":false,"internalType":"uint256"},{"name":"beneficiaryTokenCount","type":"uint256","indexed":false,"internalType":"uint256"},{"name":"memo","type":"string","indexed":false,"internalType":"string"},{"name":"caller","type":"address","indexed":false,"internalType":"address"}],"anonymous":false},{"type":"event","name":"DistributeToReservedTokenSplit","inputs":[{"name":"projectId","type":"uint256","indexed":true,"internalType":"uint256"},{"name":"domain","type":"uint256","indexed":true,"internalType":"uint256"},{"name":"group","type":"uint256","indexed":true,"internalType":"uint256"},{"name":"split","type":"tuple","indexed":false,"internalType":"struct JBSplit","components":[{"name":"preferClaimed","type":"bool","internalType":"bool"},{"name":"preferAddToBalance","type":"bool","internalType":"bool"},{"name":"percent","type":"uint256","internalType":"uint256"},{"name":"projectId","type":"uint256","internalType":"uint256"},{"name":"beneficiary","type":"address","internalType":"address payable"},{"name":"lockedUntil","type":"uint256","internalType":"uint256"},{"name":"allocator","type":"address","internalType":"contract IJBSplitAllocator"}]},{"name":"tokenCount","type":"uint256","indexed":false,"internalType":"uint256"},{"name":"caller","type":"address","indexed":false,"internalType":"address"}],"anonymous":false},{"type":"event","name":"LaunchFundingCycles","inputs":[{"name":"configuration","type":"uint256","indexed":false,"internalType":"uint256"},{"name":"projectId","type":"uint256","indexed":false,"internalType":"uint256"},{"name":"memo","type":"string","indexed":false,"internalType":"string"},{"name":"caller","type":"address","indexed":false,"internalType":"address"}],"anonymous":false},{"type":"event","name":"LaunchProject","inputs":[{"name":"configuration","type":"uint256","indexed":false,"internalType":"uint256"},{"name":"projectId","type":"uint256","indexed":false,"internalType":"uint256"},{"name":"memo","type":"string","indexed":false,"internalType":"string"},{"name":"caller","type":"address","indexed":false,"internalType":"address"}],"anonymous":false},{"type":"event","name":"Migrate","inputs":[{"name":"projectId","type":"uint256","indexed":true,"internalType":"uint256"},{"name":"to","type":"address","indexed":false,"internalType":"contract IJBMigratable"},{"name":"caller","type":"address","indexed":false,"internalType":"address"}],"anonymous":false},{"type":"event","name":"MintTokens","inputs":[{"name":"beneficiary","type":"address","indexed":true,"internalType":"address"},{"name":"projectId","type":"uint256","indexed":true,"internalType":"uint256"},{"name":"tokenCount","type":"uint256","indexed":false,"internalType":"uint256"},{"name":"beneficiaryTokenCount","type":"uint256","indexed":false,"internalType":"uint256"},{"name":"memo","type":"string","indexed":false,"internalType":"string"},{"name":"reservedRate","type":"uint256","indexed":false,"internalType":"uint256"},{"name":"caller","type":"address","indexed":false,"internalType":"address"}],"anonymous":false},{"type":"event","name":"PrepMigration","inputs":[{"name":"projectId","type":"uint256","indexed":true,"internalType":"uint256"},{"name":"from","type":"address","indexed":false,"internalType":"address"},{"name":"caller","type":"address","indexed":false,"internalType":"address"}],"anonymous":false},{"type":"event","name":"ReconfigureFundingCycles","inputs":[{"name":"configuration","type":"uint256","indexed":false,"internalType":"uint256"},{"name":"projectId","type":"uint256","indexed":false,"internalType":"uint256"},{"name":"memo","type":"string","indexed":false,"internalType":"string"},{"name":"caller","type":"address","indexed":false,"internalType":"address"}],"anonymous":false},{"type":"error","name":"BURN_PAUSED_AND_SENDER_NOT_VALID_TERMINAL_DELEGATE","inputs":[]},{"type":"error","name":"CANT_MIGRATE_TO_CURRENT_CONTROLLER","inputs":[]},{"type":"error","name":"FUNDING_CYCLE_ALREADY_LAUNCHED","inputs":[]},{"type":"error","name":"INVALID_BALLOT_REDEMPTION_RATE","inputs":[]},{"type":"error","name":"INVALID_REDEMPTION_RATE","inputs":[]},{"type":"error","name":"INVALID_RESERVED_RATE","inputs":[]},{"type":"error","name":"MIGRATION_NOT_ALLOWED","inputs":[]},{"type":"error","name":"MINT_NOT_ALLOWED_AND_NOT_TERMINAL_DELEGATE","inputs":[]},{"type":"error","name":"NOT_CURRENT_CONTROLLER","inputs":[]},{"type":"error","name":"NO_BURNABLE_TOKENS","inputs":[]},{"type":"error","name":"OVERFLOW_ALERT","inputs":[]},{"type":"error","name":"PRBMath__MulDivOverflow","inputs":[{"name":"prod1","type":"uint256","internalType":"uint256"},{"name":"denominator","type":"uint256","internalType":"uint256"}]},{"type":"error","name":"UNAUTHORIZED","inputs":[]},{"type":"error","name":"ZERO_TOKENS_TO_MINT","inputs":[]}],"bytecode":{"object":"0x61016034620002bb57601f62004d1d38819003918201601f19168301916001600160401b03831184841017620002bf5780849260e094604052833981010312620002bb5780516001600160a01b03908181168103620002bb576020830151908282168203620002bb576040840151918383168303620002bb576060850151908482168203620002bb576080860151928584168403620002bb5760a0870151968688168803620002bb5760c001519586168603620002bb5760805260a05261014092835260c05260e05261010092835261012091825260405191614a499384620002d485396080518481816115f501528181611c3a01528181611cf8015281816122a00152818161233c0152818161288701528181612925015281816146a10152614745015260a05184818161033601528181610cec0152818161177a0152818161188101528181611fb601528181612b3c01528181613e7a01526143d9015260c0518481816106af015281816110dc015281816116710152818161182b01528181611e9801528181611f3b01528181612075015281816124760152818161264401528181612a2701528181612b9f01528181612f8c0152613e0d015260e0518481816101d901528181611a4401528181611ef60152818161269b01528181613f20015281816140e90152818161415501526142150152518381816106f0015281816107790152818161111d015281816111a40152818161240301528181612fcd0152818161305601526140080152518281816107b801528181610835015281816111e30152818161125e0152818161173501528181613095015261311201525181818161017801528181610d2701528181610d7f015281816112e601528181611339015281816118e501528181611b6a01528181612003015281816125c401528181612bde01528181612c370152818161319101526131e60152f35b5f80fd5b634e487b7160e01b5f52604160045260245ffdfe6080806040526004361015610012575f80fd5b5f90813560e01c90816301ffc9a71461348c57508063111d861b14612a6f57806312b37b14146129e25780631665bc0f1461254b5780631f510453146124325780632bdfe004146123ed5780633e8c615b146123c6578063405b84fa14611f6a578063557e715514611f255780636193063014611ee05780638776c49914611e535780638ae9c07b146117a95780638b79543c14611764578063a29a68141461171f578063a40bb9c714611624578063ad007d63146115df578063b3c5267314610b80578063badbdf2814610291578063bdd504d714610267578063c18f2d31146101a7578063c41c2f24146101625763e867c59c14610110575f80fd5b3461015f57604036600319011261015f57602435906001600160401b03821161015f57602061015761014f610148366004870161393d565b369161377a565b600435613dee565b604051908152f35b80fd5b503461015f578060031936011261015f576040517f00000000000000000000000000000000000000000000000000000000000000006001600160a01b03168152602090f35b503461015f576020908160031936011261015f576040516375b0d9cd60e01b81526004803590820181905283826024817f00000000000000000000000000000000000000000000000000000000000000006001600160a01b03165afa91821561025c578392610227575b5082604091610157945260028552205490613b22565b9091508381813d8311610255575b61023f8183613609565b81010312610251575190610157610211565b5f80fd5b503d610235565b6040513d85823e3d90fd5b503461015f57602036600319011261015f5760406020916004358152600283522054604051908152f35b503461015f576103a036600319011261015f57608036602319011261015f576102803660a319011261015f576001600160401b0361034435818111610944576102de903690600401613529565b9161036435818111610b7c576102f8903690600401613986565b92909161038435908111610b785761031490369060040161393d565b6040516331a9108f60e11b8152600480359082015291969095916020816024817f00000000000000000000000000000000000000000000000000000000000000006001600160a01b03165afa918215610b6c5761039595949261038d94926103869291610b3d575b506004359061464a565b3691613b63565b92369161366b565b5f6127106101043511610b2b576127106101243511610b19576127106101443511610b07576040516103c6816135d2565b60603660a3190112610b03576040516103de816135b7565b60a4358015158103610a0f57815260c435151560c435036109445760c435602082015260e435151560e435036109445760e4356040820152808252610104356020830152610124356040830152610144356060830152610164351515610164350361094457610164356080830152610184358015158103610a0f5760a08301526101a4358015158103610a0f5760c08301526101c4358015158103610a0f5760e08301526101e4358015158103610a0f57610100830152610204358015158103610a0f57610120830152610224358015158103610a0f57610140830152610244358015158103610a0f57610160830152610264358015158103610a0f57610180830152610284358015158103610a0f576101a08301526102a43515156102a43503610944576102a4356101c08301526102c43515156102c43503610944576102c4356101e08301526102e4356001600160a01b0381169003610944576102e4356102008301526103043561022083015282908051610afa575b6020810151610aef575b60400151610ae7575b61271061012435810311610ad357606082015161271003906127108211610abf57906102209160018260381b610124356127100360281b6101043560181b8460081b17171717916080850151610a8c575b505060a0830151610a81575b60c0830151610a76575b60e0830151610a6b575b610100830151610a60575b610120830151610a55575b610140830151610a4a575b610160830151610a3f575b610180830151610a34575b6101a0830151610a29575b6101c0830151610a1e575b6101e0830151610a13575b600160541b600160f41b0361020084015160541b161791015160f41b17926040519363a249d42560e01b8552600435600486015260243560248601526044356044860152606435606486015260843560018060a01b038116809103610a0f57608486015260a48501526103243560c48501526101208460e481857f00000000000000000000000000000000000000000000000000000000000000006001600160a01b03165af19384156108dd5782946109cd575b506020840151907f00000000000000000000000000000000000000000000000000000000000000006001600160a01b03163b156109445790829060405192839163796d225b60e11b83526064830190600435600485015260248401526060604484015281518091526084830190602060848260051b86010193019185905b8282106109575750505090829003905081837f00000000000000000000000000000000000000000000000000000000000000006001600160a01b03165af180156108dd57610948575b50602083015190917f00000000000000000000000000000000000000000000000000000000000000006001600160a01b03163b1561094457908260405180936334002f3160e01b8252606482019360043560048401526024830152606060448301528051809452602060848301910193835b8181106108e8575092935090915081900381837f00000000000000000000000000000000000000000000000000000000000000006001600160a01b03165af180156108dd576108c9575b6020847f1a08ad37c93969a586fd0605d240c17113b20a9c9ac3847595d0ab425225f6af8783870151926108b860405192839286845260043588850152608060408501526080840191613b43565b3360608301520390a1604051908152f35b6108d38291613559565b61015f578061086a565b6040513d84823e3d90fd5b92509250602060c060019260a087518580831b0381511683528580831b03858201511685840152604081015160408401526060810151606084015260808101516080840152015160a08201520194019101928592859294610820565b8280fd5b61095190613559565b5f6107ae565b929550929093506083198682030182528451602060608160408501938051865201519360408382015284518094520192019088905b8082106109ad57505050602080600192960192019201928593879593610765565b909192602060e0826109c260019488516145fa565b01940192019061098c565b9093506101203d61012011610a08575b6109e78183613609565b6101208282810103126109445790610a0191810190613aa2565b925f6106e7565b503d6109dd565b8380fd5b600160531b17610633565b600160521b17610628565b600160511b1761061d565b600160501b17610612565b6001604f1b17610607565b6001604e1b176105fc565b6001604d1b176105f1565b6001604c1b176105e6565b6001604b1b176105db565b6001604a1b176105d1565b600160491b176105c7565b6901000000000000000001925060381b90610124356127100360281b906101043560181b9060081b171717175f806105bb565b634e487b7160e01b84526011600452602484fd5b634e487b7160e01b83526011600452602483fd5b60041761056a565b600290911790610561565b60019150610557565b5080fd5b604051636edf8de360e11b8152600490fd5b604051639db9ee9360e01b8152600490fd5b604051635623289560e01b8152600490fd5b610b5f915060203d602011610b65575b610b578183613609565b810190613db5565b5f61037c565b503d610b4d565b604051903d90823e3d90fd5b8580fd5b8480fd5b503461015f576003196103e036820112610b0357610b9c613655565b906001600160401b03602435116109445760409060243536030112610b03576080366043190112610b03576102803660c3190112610b0357610364356001600160401b03811161094457610bf4903690600401613529565b9092610384356001600160401b038111610b0357610c16903690600401613986565b906001600160401b036103a4351161094457610c38366103a435600401613714565b956001600160401b036103c43511610a0f57610c5a366103c4356004016137bf565b94604051966303336c3d60e51b885260018060a01b031660048801526040602488015260243560040135602219602435360301811215610b7857602435016001600160401b03600482013511610b7857600481013536036024820113610b78578780610cdc602093604060448401526084830190602460048201359101613b43565b60248035013560648301520381887f00000000000000000000000000000000000000000000000000000000000000006001600160a01b03165af19687156115d45785976115a0575b507f00000000000000000000000000000000000000000000000000000000000000006001600160a01b03163b15610b7c576040516338a73f9960e11b8152600481018890523060248201528581604481836001600160a01b037f0000000000000000000000000000000000000000000000000000000000000000165af1801561159557908691611581575b5050610dc1929161038d913691613b63565b5f6127106101243511610b2b576127106101443511610b19576127106101643511610b0757604051610df2816135d2565b60603660c3190112610b0357604051610e0a816135b7565b60c4358015158103610a0f57815260e435151560e435036109445760e4356020820152610104351515610104350361094457610104356040820152808252610124356020830152610144356040830152610164356060830152610184358015158103610a0f5760808301526101a43515156101a43503610944576101a43560a08301526101c4358015158103610a0f5760c08301526101e4358015158103610a0f5760e0830152610204358015158103610a0f57610100830152610224358015158103610a0f57610120830152610244358015158103610a0f57610140830152610264358015158103610a0f57610160830152610284358015158103610a0f576101808301526102a4358015158103610a0f576101a08301526102c43515156102c43503610944576102c4356101c08301526102e43515156102e43503610944576102e4356101e0830152610304356001600160a01b038116900361094457610304356102008301526103243561022083015282908051611578575b602081015161156d575b60400151611565575b61271061014435810311610ad357606082015161271003906127108211610abf57906102209160018260381b610144356127100360281b6101243560181b8460081b17171717916080850151611532575b505060a0830151611527575b60c083015161151c575b60e0830151611511575b610100830151611506575b6101208301516114fb575b6101408301516114f0575b6101608301516114e5575b6101808301516114da575b6101a08301516114cf575b6101c08301516114c4575b6101e08301516114b9575b600160541b600160f41b0361020084015160541b161791015160f41b17926040519363a249d42560e01b855287600486015260443560248601526064356044860152608435606486015260a43560018060a01b038116809103610a0f57608486015260a48501526103443560c48501526101208460e481857f00000000000000000000000000000000000000000000000000000000000000006001600160a01b03165af19384156108dd578294611477575b506020840151907f00000000000000000000000000000000000000000000000000000000000000006001600160a01b03163b156109445790829060405192839163796d225b60e11b835260648301908b600485015260248401526060604484015281518091526084830190602060848260051b86010193019185905b8282106114015750505090829003905081837f00000000000000000000000000000000000000000000000000000000000000006001600160a01b03165af180156108dd576113f2575b50602083015190917f00000000000000000000000000000000000000000000000000000000000000006001600160a01b03163b1561094457908260405180936334002f3160e01b825260648201938a60048401526024830152606060448301528051809452602060848301910193835b818110611396575092935090915081900381837f00000000000000000000000000000000000000000000000000000000000000006001600160a01b03165af180156108dd57611382575b5050602001519380516112e4575b6020847ff3e6948ba8b32d557363ea08470121c47c0127659aed09320812174d373afef287866112d960405192839286339285613d82565b0390a1604051908152f35b7f00000000000000000000000000000000000000000000000000000000000000006001600160a01b03163b15610b035781611334916040518093819263104373fb60e31b83528860048401613cf8565b0381837f00000000000000000000000000000000000000000000000000000000000000006001600160a01b03165af180156108dd57156112a1576113788291613559565b61015f57806112a1565b61138c8291613559565b61015f5780611293565b92509250602060c060019260a087518580831b0381511683528580831b03858201511685840152604081015160408401526060810151606084015260808101516080840152015160a08201520194019101928592859294611249565b6113fb90613559565b5f6111d9565b929550929093506083198682030182528451602060608160408501938051865201519360408382015284518094520192019088905b80821061145757505050602080600192960192019201928593879593611190565b909192602060e08261146c60019488516145fa565b019401920190611436565b9093506101203d610120116114b2575b6114918183613609565b61012082828101031261094457906114ab91810190613aa2565b925f611114565b503d611487565b600160531b17611062565b600160521b17611057565b600160511b1761104c565b600160501b17611041565b6001604f1b17611036565b6001604e1b1761102b565b6001604d1b17611020565b6001604c1b17611015565b6001604b1b1761100a565b6001604a1b17611000565b600160491b17610ff6565b6901000000000000000001925060381b90610144356127100360281b906101243560181b9060081b171717175f80610fea565b600417610f99565b600290911790610f90565b60019150610f86565b61158a90613559565b610b7c57845f610daf565b6040513d88823e3d90fd5b9096506020813d6020116115cc575b816115bc60209383613609565b810103126102515751955f610d24565b3d91506115af565b6040513d87823e3d90fd5b503461015f578060031936011261015f576040517f00000000000000000000000000000000000000000000000000000000000000006001600160a01b03168152602090f35b503461015f57604036600319011261015f5761163e6139b6565b50611647613a18565b5060405163334f245560e11b815260048035908201526024803590820152906101209081836044817f00000000000000000000000000000000000000000000000000000000000000006001600160a01b03165afa9283156117125781936116d2575b6103a0846116d0856116ba836147b7565b906116c860405180956137dd565b83019061383b565bf35b909250813d831161170b575b6116e88183613609565b810192828285031261015f57506117056103a0936116d092613aa2565b926116a9565b503d6116de565b50604051903d90823e3d90fd5b503461015f578060031936011261015f576040517f00000000000000000000000000000000000000000000000000000000000000006001600160a01b03168152602090f35b503461015f578060031936011261015f576040517f00000000000000000000000000000000000000000000000000000000000000006001600160a01b03168152602090f35b503461015f5760c036600319011261015f576044356001600160a01b0381169003610251576064356001600160401b038111610b03576117ed90369060040161393d565b6117f561396a565b60a435151560a4350361025157839260243515611e41576040516321d1336160e11b8152600480359082015291610120836024817f00000000000000000000000000000000000000000000000000000000000000006001600160a01b03165afa928315611595578693611e03575b506040516331a9108f60e11b815260048035908201526020816024817f00000000000000000000000000000000000000000000000000000000000000006001600160a01b03165afa908115611bdf578791611de4575b50604051636e49181f60e01b815260048035908201523360248201526020816044816001600160a01b037f0000000000000000000000000000000000000000000000000000000000000000165afa908115611dd9578891611d9b575b508015611d7e575b159081611d6a575b81611cb7575b81611bfc575b50611bea57600180610100850151604c1c16141580611b3e575b80611b20575b611b0e5760a43515611b075761ffff61010084015160181c16925b811515600103611af257505b612710808403611a27575b50506119b290602095836119fb575b50604051936024358552858786015260a0604086015260a0850191613b43565b9060608301523360808301527fe6fee9c572244c0c2238c3112ac12d411750a7ee00eeebd32521c3e5a666c14b600435928060018060a01b0360443516930390a3604051908152f35b611a1f6040611a0c88602435613de1565b92600435815260028a5220918254613b22565b90555f611992565b909450828103908111611ade57611a41869160243561491f565b947f00000000000000000000000000000000000000000000000000000000000000006001600160a01b031690813b15610944576040516333b774f960e21b8152604480356001600160a01b031660048084019190915235602483015281018890529015156064820152919082908183816084810103925af1801561159557611aca575b80611983565b611ad48691613559565b610b7c575f611ac4565b634e487b7160e01b86526011600452602486fd5b600191506101008291015160501c1614611978565b859261196c565b604051639d0ca8fd60e01b8152600490fd5b506101008301513360549190911c6001600160a01b03161415611951565b50604051636e49181f60e01b815260048035908201523360248201526020816044816001600160a01b037f0000000000000000000000000000000000000000000000000000000000000000165afa908115611bdf578791611ba1575b501561194b565b90506020813d602011611bd7575b81611bbc60209383613609565b81010312611bd357611bcd90613dd4565b5f611b9a565b8680fd5b3d9150611baf565b6040513d89823e3d90fd5b60405163075fd2b160e01b8152600490fd5b60405163c161c93f60e01b81523360048201526001600160a01b0391821660248201525f6044820152600960648201529150602090829060849082907f0000000000000000000000000000000000000000000000000000000000000000165afa908115611cac575f91611c72575b50155f611931565b906020823d602011611ca4575b81611c8c60209383613609565b8101031261015f5750611c9e90613dd4565b5f611c6a565b3d9150611c7f565b6040513d5f823e3d90fd5b905060405163c161c93f60e01b815233600482015260018060a01b038216602482015260043560448201526009606482015260208160848160018060a01b037f0000000000000000000000000000000000000000000000000000000000000000165afa908115611cac575f91611d30575b50159061192b565b906020823d602011611d62575b81611d4a60209383613609565b8101031261015f5750611d5c90613dd4565b5f611d28565b3d9150611d3d565b336001600160a01b03821614159150611925565b506101008401513360549190911c6001600160a01b03161461191d565b90506020813d602011611dd1575b81611db660209383613609565b81010312611dcd57611dc790613dd4565b5f611915565b8780fd5b3d9150611da9565b6040513d8a823e3d90fd5b611dfd915060203d602011610b6557610b578183613609565b5f6118b9565b9092506101203d61012011611e3a575b611e1d8183613609565b810161012082820312611bd357611e3391613aa2565b915f611863565b503d611e13565b6040516327f44f9560e21b8152600490fd5b503461015f57602036600319011261015f57611e6d6139b6565b50611e76613a18565b506040516321d1336160e11b81526004803590820152906101209081836024817f00000000000000000000000000000000000000000000000000000000000000006001600160a01b03165afa9283156117125781936116d2576103a0846116d0856116ba836147b7565b503461015f578060031936011261015f576040517f00000000000000000000000000000000000000000000000000000000000000006001600160a01b03168152602090f35b503461015f578060031936011261015f576040517f00000000000000000000000000000000000000000000000000000000000000006001600160a01b03168152602090f35b503461015f57604036600319011261015f576004356001600160a01b0360248035828116929190839003610b7c576040516331a9108f60e11b81526004810185905260209290838184817f000000000000000000000000000000000000000000000000000000000000000086165afa8015611bdf57829188916123a9575b501680331415908161230d575b81612271575b50611bea57807f00000000000000000000000000000000000000000000000000000000000000001690604051632eec7b5560e11b815286600482015284818581865afa908115611dd9578891612254575b5081309116036122425760405180916321d1336160e11b825287600483015281856101209384937f0000000000000000000000000000000000000000000000000000000000000000165afa918215611dd9578892612203575b5050600161010081920151604e1c16036121f15785918583526002845260408320546121a7575b50833b15610b0357604051633e8c615b60e01b815260048101869052306024820152828160448183895af190811561025c578391612193575b5050803b15610b03576040516338a73f9960e11b8152600481018690526001600160a01b03851660248201529082908290604490829084905af180156108dd5761217f575b50507f01f954abace731a88ab86e71186040cc2be49fe517ea06bc0d24f25b82b834569160409182519182523390820152a280f35b61218890613559565b610a0f57835f61214a565b61219c90613559565b610b0357815f612105565b604051919250838201906001600160401b038211838310176121de57508692916121d79160405283815286613dee565b505f6120cc565b634e487b7160e01b5f9081526041600452fd5b6040516346ace3f960e01b8152600490fd5b908092503d831161223b575b6122198183613609565b81019181830312611dcd576101006122346001938493613aa2565b92506120a5565b503d61220f565b60405163e0a0a87d60e01b8152600490fd5b61226b9150853d8711610b6557610b578183613609565b5f61204c565b90506040519063c161c93f60e01b8252336004830152838201525f6044820152600360648201528381608481857f0000000000000000000000000000000000000000000000000000000000000000165afa908115611cac575f916122d8575b50155f611ffb565b908482813d8311612306575b6122ee8183613609565b8101031261015f575061230090613dd4565b5f6122d0565b503d6122e4565b905060405163c161c93f60e01b81523360048201528184820152866044820152600360648201528481608481867f0000000000000000000000000000000000000000000000000000000000000000165afa908115611cac575f91612374575b501590611ff5565b908582813d83116123a2575b61238a8183613609565b8101031261015f575061239c90613dd4565b5f61236c565b503d612380565b6123c09150853d8711610b6557610b578183613609565b5f611fe8565b503461015f57604036600319011261015f576024356001600160a01b038116036102515780f35b503461015f578060031936011261015f576040517f00000000000000000000000000000000000000000000000000000000000000006001600160a01b03168152602090f35b503461015f57602036600319011261015f5761244c6139b6565b50612455613a18565b5060405163ebc8ca1f60e01b815260048035908201526101409081816024817f00000000000000000000000000000000000000000000000000000000000000006001600160a01b03165afa90811561025c5783928492612500575b50506124d66124be836147b7565b6124cb60405180956137dd565b61012084019061383b565b60038110156124ec576103c092506103a0820152f35b634e487b7160e01b83526021600452602483fd5b91509150803d8211612544575b6125178184613609565b820190828203126109445761252f6101209183613aa2565b91015190600382101561094457905f806124b0565b503d61250d565b503461015f5760a036600319011261015f57612565613655565b602435906044356064356001600160401b038111610b7c5761258e6125f391369060040161393d565b61259993919361396a565b604051636e49181f60e01b808252600482018990523360248301526020956001600160a01b039493927f00000000000000000000000000000000000000000000000000000000000000008616918890829081906044820190565b0381855afa9081156129d7578c9161299e575b501580612992575b806128f4575b80612857575b611bea578515612845578a604051916321d1336160e11b83528b600484015261012080846024818b7f0000000000000000000000000000000000000000000000000000000000000000165afa90811561025c578a948e94926127fd575b5050600161010081920151604b1c16149384612780575b5050505061276e578890837f000000000000000000000000000000000000000000000000000000000000000016803b156109445760405163906ebd0f60e01b81526001600160a01b038a166004820152602481018b905260448101879052911515606483015282908290608490829084905af180156108dd5761275a575b50507fdf04e13ee4fcd48a81ab2fd114757093740a3efa9b6475d86e05878b4c59d0799461274b91606060405196879687528601526060850191613b43565b9433604084015216930390a380f35b61276390613559565b611dcd57875f61270c565b604051630f1490e360e31b8152600490fd5b6040519081526004810192909252336024830152909250829060449082905afa9081156127f2578a916127b9575b501585895f8061268e565b90508581813d83116127eb575b6127d08183613609565b810103126127e7576127e190613dd4565b5f6127ae565b8980fd5b503d6127c6565b6040513d8c823e3d90fd5b9350935050823d841161283e575b6128158184613609565b8201928284031261283a576001806101006128338f95968d97613aa2565b9250612677565b8c80fd5b503d61280b565b604051637b38547b60e01b8152600490fd5b5060405163c161c93f60e01b815233600482015289861660248201525f6044820152600a606482015287816084817f00000000000000000000000000000000000000000000000000000000000000008a165afa908115611cac575f916128bf575b501561261a565b908882813d83116128ed575b6128d58183613609565b8101031261015f57506128e790613dd4565b5f6128b8565b503d6128cb565b5060405163c161c93f60e01b81523360048201528986166024820152604481018b9052600a606482015287816084817f00000000000000000000000000000000000000000000000000000000000000008a165afa908115611cac575f9161295d575b5015612614565b908882813d831161298b575b6129738183613609565b8101031261015f575061298590613dd4565b5f612956565b503d612969565b5084891633141561260e565b90508781813d83116129d0575b6129b58183613609565b810103126129cc576129c690613dd4565b5f612606565b8b80fd5b503d6129ab565b6040513d8e823e3d90fd5b503461015f57602036600319011261015f576129fc6139b6565b50612a05613a18565b50604051630b8aa00f60e31b81526004803590820152906101209081836024817f00000000000000000000000000000000000000000000000000000000000000006001600160a01b03165afa9283156117125781936116d2576103a0846116d0856116ba836147b7565b503461015f576103c036600319011261015f57608036602319011261015f576102803660a319011261015f576001600160401b036103443581811161094457612abc903690600401613529565b929061036435838111610944573660238201121561094457612ae890369060248160040135910161366b565b9061038435848111610a0f57612b02903690600401613714565b936103a435908111610a0f57612b1c9036906004016137bf565b6040516331a9108f60e11b815260048035908201529095906020816024817f00000000000000000000000000000000000000000000000000000000000000006001600160a01b03165afa9081156115d45790612b82918691610b3d57506004359061464a565b604051632cee6deb60e01b815260048035908201526020816024817f00000000000000000000000000000000000000000000000000000000000000006001600160a01b03165afa9081156115d457859161345a575b50613445577f00000000000000000000000000000000000000000000000000000000000000006001600160a01b03163b15610a0f576040516338a73f9960e11b815260048035908201523060248201528481604481836001600160a01b037f0000000000000000000000000000000000000000000000000000000000000000165af180156115d45761342e575b5090612c71913691613b63565b905f6127106101043511610b2b576127106101243511610b19576127106101443511610b0757604051612ca3816135d2565b60603660a3190112610b0357604051612cbb816135b7565b60a4358015158103610a0f57815260c435151560c435036109445760c435602082015260e435151560e435036109445760e4356040820152808252610104356020830152610124356040830152610144356060830152610164358015158103610a0f5760808301526101843515156101843503610944576101843560a08301526101a4358015158103610a0f5760c08301526101c4358015158103610a0f5760e08301526101e4358015158103610a0f57610100830152610204358015158103610a0f57610120830152610224358015158103610a0f57610140830152610244358015158103610a0f57610160830152610264358015158103610a0f57610180830152610284358015158103610a0f576101a08301526102a43515156102a43503610944576102a4356101c08301526102c43515156102c43503610944576102c4356101e08301526102e4356001600160a01b0381169003610944576102e4356102008301526103043561022083015282908051613425575b602081015161341a575b60400151613412575b61271061012435810311610ad357606082015161271003906127108211610abf57906102209160018260381b610124356127100360281b6101043560181b8460081b171717179160808501516133df575b505060a08301516133d4575b60c08301516133c9575b60e08301516133be575b6101008301516133b3575b6101208301516133a8575b61014083015161339d575b610160830151613392575b610180830151613387575b6101a083015161337c575b6101c0830151613371575b6101e0830151613366575b600160541b600160f41b0361020084015160541b161791015160f41b17926040519363a249d42560e01b8552600435600486015260243560248601526044356044860152606435606486015260843560018060a01b038116809103610a0f57608486015260a48501526103243560c48501526101208460e481857f00000000000000000000000000000000000000000000000000000000000000006001600160a01b03165af19384156108dd578294613324575b506020840151907f00000000000000000000000000000000000000000000000000000000000000006001600160a01b03163b156109445790829060405192839163796d225b60e11b83526064830190600435600485015260248401526060604484015281518091526084830190602060848260051b86010193019185905b8282106132ae5750505090829003905081837f00000000000000000000000000000000000000000000000000000000000000006001600160a01b03165af180156108dd5761329f575b50602083015190917f00000000000000000000000000000000000000000000000000000000000000006001600160a01b03163b1561094457908260405180936334002f3160e01b8252606482019360043560048401526024830152606060448301528051809452602060848301910193835b818110613243575092935090915081900381837f00000000000000000000000000000000000000000000000000000000000000006001600160a01b03165af180156108dd5761322f575b50506020015191805161318f575b6020837f8621c3692c18d8ddd4cd26457d6a3e1d916e7001c4243a6c8dfa862a7e10a8236112d98760405191829133906004358785613d82565b7f00000000000000000000000000000000000000000000000000000000000000006001600160a01b03163b15610b0357816131e1916040518093819263104373fb60e31b835260043560048401613cf8565b0381837f00000000000000000000000000000000000000000000000000000000000000006001600160a01b03165af180156108dd5715613155576132258291613559565b61015f5780613155565b6132398291613559565b61015f5780613147565b92509250602060c060019260a087518580831b0381511683528580831b03858201511685840152604081015160408401526060810151606084015260808101516080840152015160a082015201940191019285928592946130fd565b6132a890613559565b5f61308b565b929550929093506083198682030182528451602060608160408501938051865201519360408382015284518094520192019088905b80821061330457505050602080600192960192019201928593879593613042565b909192602060e08261331960019488516145fa565b0194019201906132e3565b9093506101203d6101201161335f575b61333e8183613609565b610120828281010312610944579061335891810190613aa2565b925f612fc4565b503d613334565b600160531b17612f10565b600160521b17612f05565b600160511b17612efa565b600160501b17612eef565b6001604f1b17612ee4565b6001604e1b17612ed9565b6001604d1b17612ece565b6001604c1b17612ec3565b6001604b1b17612eb8565b6001604a1b17612eae565b600160491b17612ea4565b6901000000000000000001925060381b90610124356127100360281b906101043560181b9060081b171717175f80612e98565b600417612e47565b600290911790612e3e565b60019150612e34565b9361343d612c71939295613559565b939091612c64565b60405160016217a1f760e11b03198152600490fd5b90506020813d602011613484575b8161347560209383613609565b81010312610b7c57515f612bd7565b3d9150613468565b905034610b03576020366003190112610b035760043563ffffffff60e01b81168091036109445760209250630232efb760e61b8114908115613518575b8115613507575b81156134f6575b81156134e5575b5015158152f35b6301ffc9a760e01b1490505f6134de565b63ad007d6360e01b811491506134d7565b633e8c615b60e01b811491506134d0565b633e2d14f360e11b811491506134c9565b9181601f84011215610251578235916001600160401b038311610251576020808501948460051b01011161025157565b6001600160401b03811161356c57604052565b634e487b7160e01b5f52604160045260245ffd5b60c081019081106001600160401b0382111761356c57604052565b61012081019081106001600160401b0382111761356c57604052565b606081019081106001600160401b0382111761356c57604052565b61024081019081106001600160401b0382111761356c57604052565b60e081019081106001600160401b0382111761356c57604052565b90601f801991011681019081106001600160401b0382111761356c57604052565b6001600160401b03811161356c5760051b60200190565b35906001600160a01b038216820361025157565b600435906001600160a01b038216820361025157565b9291926136778261362a565b60409461368686519283613609565b819584835260208093019160c080960285019481861161025157925b8584106136b25750505050505050565b86848303126102515784879184516136c981613580565b6136d287613641565b81526136df838801613641565b838201528587013586820152606080880135908201526080808801359082015260a080880135908201528152019301926136a2565b81601f820112156102515780359161372b8361362a565b926137396040519485613609565b808452602092838086019260051b820101928311610251578301905b828210613763575050505090565b83809161376f84613641565b815201910190613755565b9291926001600160401b03821161356c57604051916137a3601f8201601f191660200184613609565b829481845281830111610251578281602093845f960137010152565b9080601f83011215610251578160206137da9335910161377a565b90565b805182526020810151602083015260408101516040830152606081015160608301526080810151608083015260a081015160a083015260c081015160c083015260018060a01b0360e08201511660e083015261010080910151910152565b61026090604081518051151585526020810151151560208601520151151560408401526020810151606084015260408101516080840152606081015160a08401526080810151151560c084015260a0810151151560e084015260c0810151151590610100918285015260e081015115159161012092838601528101511515916101409283860152810151151591610160928386015281015115159161018092838601528101511515916101a092838601528101511515916101c092838601528101511515916101e092838601528101511515916102009283860152810151151591610220928386015260018060a01b0390820151166102408501520151910152565b9181601f84011215610251578235916001600160401b038311610251576020838186019501011161025157565b60843590811515820361025157565b3590811515820361025157565b9181601f84011215610251578235916001600160401b0383116102515760208085019460c0850201011161025157565b604051906139c38261359b565b816101005f918281528260208201528260408201528260608201528260808201528260a08201528260c08201528260e08201520152565b60405190613a07826135b7565b5f6040838281528260208201520152565b60405190613a25826135d2565b81613a2e6139fa565b81526102205f918260208201528260408201528260608201528260808201528260a08201528260c08201528260e08201528261010082015282610120820152826101408201528261016082015282610180820152826101a0820152826101c0820152826101e0820152826102008201520152565b91908261012091031261025157604051613abb8161359b565b8092805182526020810151602083015260408101516040830152606081015160608301526080810151608083015260a081015160a083015260c081015160c083015260e081015160018060a01b03811681036102515760e083015261010080910151910152565b91908201809211613b2f57565b634e487b7160e01b5f52601160045260245ffd5b908060209392818452848401375f828201840152601f01601f1916010190565b9291613b6e8261362a565b91604094613b7e86519485613609565b839582855260208095019260051b8201938085116102515782935b858510613ba95750505050505050565b6001600160401b0385358181116102515785019084828503126102515784519185830183811083821117613ce45786528035835289810135918211610251570183601f82011215610251578035613bff8161362a565b91613c0c87519384613609565b8183528a83018b60e08094028301019187831161025157918c80969492979593015b818110613c4a5750505083809550820152815201940193613b99565b9180949650828998929496980312610251578851613c67816135ee565b613c7083613979565b81528d613c7e818501613979565b90820152828a01358a820152606080840135908201526001600160a01b03916080808501359084821682036102515783015260a0808501359083015260c091828501359384168403610251578f929387948201528152019101918c959391969492613c2e565b60245f634e487b7160e01b81526041600452fd5b906060916040810191815260209281604085809401528551809452019301915f5b828110613d27575050505090565b83516001600160a01b031685529381019392810192600101613d19565b91908251928382525f5b848110613d6e575050825f602080949584010152601f8019910116010190565b602081830181015184830182015201613d4e565b92606092613da59296959685526020850152608060408501526080840190613d44565b6001600160a01b03909416910152565b9081602091031261025157516001600160a01b03811681036102515790565b5190811515820361025157565b91908203918211613b2f57565b6040516321d1336160e11b8152600481018290529291610120846024817f00000000000000000000000000000000000000000000000000000000000000006001600160a01b03165afa938415611cac575f946145b9575b50815f52600260205260405f20935f855495556040516331a9108f60e11b815283600482015260208160248160018060a01b037f0000000000000000000000000000000000000000000000000000000000000000165afa908115611cac575f9161459a575b505f86613fcd57505f5b80613f1e575b7fb12d7a78048433f69fe6d30145bf08aad8e82985b96e4db6d5c6a7e94d57086e91613f13602085015194519560405193849360018060a01b031684528a6020850152604084015260a0606084015260a0830190613d44565b3360808301520390a4565b7f00000000000000000000000000000000000000000000000000000000000000006001600160a01b031691823b15610251575f80936084604051809681936333b774f960e21b835260018060a01b03871660048401528b60248401528760448401528160648401525af1928315611cac577fb12d7a78048433f69fe6d30145bf08aad8e82985b96e4db6d5c6a7e94d57086e93613fbe575b509150613eba565b613fc790613559565b5f613fb6565b60208301516040516369e11cc560e01b81526004810187905260248101829052600260448201529097929692949193859391929085846064817f00000000000000000000000000000000000000000000000000000000000000006001600160a01b03165afa938415611595578694614464575b50855b8451811015614455578a8960208360051b8801015161406660408201518c6149a6565b806140b9575b917f990c1da5d280602f972ae3c429b6dc66a66569875205cc6e67f14e0b3fc4d2ac61012060019695936002956140a660405180936145fa565b60e082015233610100820152a401614043565b60c082015190999193509091506001600160a01b0316156143b15760c08201516001600160a01b03165b825115157f00000000000000000000000000000000000000000000000000000000000000006001600160a01b03163b1561438b576040516333b774f960e21b81526001600160a01b039092166004830152602482018d9052604482018a905215156064820152898180608481010381837f00000000000000000000000000000000000000000000000000000000000000006001600160a01b03165af180156127f2578c928f94928b926143a2575b5060c08301516001600160a01b0316806141ec575b5061012060019695936141dd600296947f990c1da5d280602f972ae3c429b6dc66a66569875205cc6e67f14e0b3fc4d2ac94613de1565b9c93955093959650505061406c565b9294509250506040519063ea78803f60e01b82528c600483015260208260248160018060a01b037f0000000000000000000000000000000000000000000000000000000000000000165afa91821561439757908d92918c9261434d575b506040519161425783613580565b60018060a01b0316825260208201908b82526040830192601284526060810194855260808101600281528760a0830152823b1561434957604051634eba05fd60e11b815282516001600160a01b031660048201529351602485015293516044840152935160648301529151608482015260a0909201518b9183916101849183918591906142e89060a48501906145fa565b5af180156127f2577f990c1da5d280602f972ae3c429b6dc66a66569875205cc6e67f14e0b3fc4d2ac8f92600196958f938d600297610120946141dd9361433a575b50945094965050939596506141a6565b61434390613559565b5f61432a565b8e80fd5b915091506020813d60201161438f575b8161436a60209383613609565b8101031261438b57516001600160a01b038116810361438b578c915f614249565b8a80fd5b3d915061435d565b6040513d8d823e3d90fd5b6143ab90613559565b5f614191565b60608201518015614436576040516331a9108f60e11b815260048101919091526020816024817f00000000000000000000000000000000000000000000000000000000000000006001600160a01b03165afa9081156127f2578a91614417575b506140e3565b614430915060203d602011610b6557610b578183613609565b5f614411565b5060808201516001600160a01b03168015155f036140e35750336140e3565b50945094975095919050613eb4565b9093503d8087833e6144768183613609565b6020828281010312611bd3578151906001600160401b038211611dcd57808301601f838501011215611dcd5781830151906144b08261362a565b936144be6040519586613609565b8285526020850193828201602060e0860283850101011161438b57602081830101945b602060e08602838501010186106144ff57505050505050925f614040565b60e08685850103126129cc57604051614517816135ee565b61452087613dd4565b815261452e60208801613dd4565b6020820152604087810151908201526060808801519082015260808701516001600160a01b038116810361459657608082015260a0878101519082015260c08701516001600160a01b03811681036145965760c0820152815260e095909501946020016144e1565b8d80fd5b6145b3915060203d602011610b6557610b578183613609565b5f613eaa565b6101209491943d610120116145f3575b6145d38183613609565b8101916101208284031261015f5750906145ec91613aa2565b925f613e45565b503d6145c9565b60c09080511515835260208101511515602084015260408101516040840152606081015160608401528160018060a01b039182608082015116608086015260a081015160a0860152015116910152565b6001600160a01b03908116338114159283614713575b508261466f575b5050611bea57565b602091925060846040518094819363c161c93f60e01b835233600484015260248301525f6044830152600160648301527f0000000000000000000000000000000000000000000000000000000000000000165afa908115611cac575f916146da575b50155f80614667565b906020823d821161470b575b816146f360209383613609565b8101031261015f575061470590613dd4565b5f6146d1565b3d91506146e6565b9092506040519063c161c93f60e01b8252336004830152836024830152604482015260016064820152602081608481857f0000000000000000000000000000000000000000000000000000000000000000165afa908115611cac575f9161477e575b5015915f614660565b906020823d82116147af575b8161479760209383613609565b8101031261015f57506147a990613dd4565b5f614775565b3d915061478a565b6147bf613a18565b506147c86139fa565b506101008091018051916147da6139fa565b50604051926147e8846135b7565b600180828180809560081c1614875281808260091c16146020880152600a1c1614604085015282519161ffff61271090808560281c16820390828211613b2f5780875160381c168303928311613b2f5760ff9651956040519861484a8a6135d2565b895260181c1660208801526040870152606086015281808460481c1614608086015281808460491c161460a0860152818084604a1c161460c0860152818084604b1c161460e0860152818084604c1c161490850152808083604d1c1614610120850152808083604e1c1614610140850152808083604f1c161461016085015280808360501c161461018085015280808360511c16146101a085015280808360521c16146101c0850152808260531c16146101e084015260018060a01b038160541c1661020084015260f41c1661022082015290565b91905f198184098184029182808310920391808303921461499b57612710908183101561497d577fbc01a36e2eb1c432ca57a786c226809d495182a9930be0ded288ce703afb7e9194950990828211900360fc1b910360041c170290565b6044838360405191631dcf306360e21b835260048301526024820152fd5b505061271090049150565b91905f1981840981840291828083109203918083039214614a0657633b9aca00908183101561497d577f88f2cfb83100cb4e69e7c79c58b316e597157d372fb9787e8e47ce423a2e9c6d94950990828211900360f71b910360091c170290565b5050633b9aca009004915056fea2646970667358221220bc7fdb91b23c41a4d80637771bc11fe21b855ee59e5f25f25ef955d2969d615b64736f6c63430008140033","linkReferences":{}},"methodIdentifiers":{"burnTokensOf(address,uint256,uint256,string,bool)":"1665bc0f","currentFundingCycleOf(uint256)":"8776c499","directory()":"c41c2f24","distributeReservedTokensOf(uint256,string)":"e867c59c","fundAccessConstraintsStore()":"a29a6814","fundingCycleStore()":"557e7155","getFundingCycleOf(uint256,uint256)":"a40bb9c7","latestConfiguredFundingCycleOf(uint256)":"1f510453","launchFundingCyclesFor(uint256,(uint256,uint256,uint256,address),((bool,bool,bool),uint256,uint256,uint256,bool,bool,bool,bool,bool,bool,bool,bool,bool,bool,bool,bool,address,uint256),uint256,(uint256,(bool,bool,uint256,uint256,address,uint256,address)[])[],(address,address,uint256,uint256,uint256,uint256)[],address[],string)":"111d861b","launchProjectFor(address,(string,uint256),(uint256,uint256,uint256,address),((bool,bool,bool),uint256,uint256,uint256,bool,bool,bool,bool,bool,bool,bool,bool,bool,bool,bool,bool,address,uint256),uint256,(uint256,(bool,bool,uint256,uint256,address,uint256,address)[])[],(address,address,uint256,uint256,uint256,uint256)[],address[],string)":"b3c52673","migrate(uint256,address)":"405b84fa","mintTokensOf(uint256,uint256,address,string,bool,bool)":"8ae9c07b","operatorStore()":"ad007d63","prepForMigrationOf(uint256,address)":"3e8c615b","projects()":"8b79543c","queuedFundingCycleOf(uint256)":"12b37b14","reconfigureFundingCyclesOf(uint256,(uint256,uint256,uint256,address),((bool,bool,bool),uint256,uint256,uint256,bool,bool,bool,bool,bool,bool,bool,bool,bool,bool,bool,bool,address,uint256),uint256,(uint256,(bool,bool,uint256,uint256,address,uint256,address)[])[],(address,address,uint256,uint256,uint256,uint256)[],string)":"badbdf28","reservedTokenBalanceOf(uint256)":"bdd504d7","splitsStore()":"2bdfe004","supportsInterface(bytes4)":"01ffc9a7","tokenStore()":"61930630","totalOutstandingTokensOf(uint256)":"c18f2d31"},"id":71}