{"abi":[{"type":"constructor","inputs":[{"name":"_defifaToken","type":"address","internalType":"contract IERC20"},{"name":"_baseProtocolToken","type":"address","internalType":"contract IERC20"}],"stateMutability":"nonpayable"},{"type":"function","name":"TOTAL_REDEMPTION_WEIGHT","inputs":[],"outputs":[{"name":"","type":"uint256","internalType":"uint256"}],"stateMutability":"view"},{"type":"function","name":"amountRedeemed","inputs":[],"outputs":[{"name":"","type":"uint256","internalType":"uint256"}],"stateMutability":"view"},{"type":"function","name":"approve","inputs":[{"name":"to","type":"address","internalType":"address"},{"name":"tokenId","type":"uint256","internalType":"uint256"}],"outputs":[],"stateMutability":"nonpayable"},{"type":"function","name":"balanceOf","inputs":[{"name":"_owner","type":"address","internalType":"address"}],"outputs":[{"name":"balance","type":"uint256","internalType":"uint256"}],"stateMutability":"view"},{"type":"function","name":"baseProtocolToken","inputs":[],"outputs":[{"name":"","type":"address","internalType":"contract IERC20"}],"stateMutability":"view"},{"type":"function","name":"baseURI","inputs":[],"outputs":[{"name":"","type":"string","internalType":"string"}],"stateMutability":"view"},{"type":"function","name":"codeOrigin","inputs":[],"outputs":[{"name":"","type":"address","internalType":"address"}],"stateMutability":"view"},{"type":"function","name":"contractURI","inputs":[],"outputs":[{"name":"","type":"string","internalType":"string"}],"stateMutability":"view"},{"type":"function","name":"defaultAttestationDelegate","inputs":[],"outputs":[{"name":"","type":"address","internalType":"address"}],"stateMutability":"view"},{"type":"function","name":"defifaToken","inputs":[],"outputs":[{"name":"","type":"address","internalType":"contract IERC20"}],"stateMutability":"view"},{"type":"function","name":"didPay","inputs":[{"name":"_data","type":"tuple","internalType":"struct JBDidPayData","components":[{"name":"payer","type":"address","internalType":"address"},{"name":"projectId","type":"uint256","internalType":"uint256"},{"name":"currentFundingCycleConfiguration","type":"uint256","internalType":"uint256"},{"name":"amount","type":"tuple","internalType":"struct JBTokenAmount","components":[{"name":"token","type":"address","internalType":"address"},{"name":"value","type":"uint256","internalType":"uint256"},{"name":"decimals","type":"uint256","internalType":"uint256"},{"name":"currency","type":"uint256","internalType":"uint256"}]},{"name":"forwardedAmount","type":"tuple","internalType":"struct JBTokenAmount","components":[{"name":"token","type":"address","internalType":"address"},{"name":"value","type":"uint256","internalType":"uint256"},{"name":"decimals","type":"uint256","internalType":"uint256"},{"name":"currency","type":"uint256","internalType":"uint256"}]},{"name":"projectTokenCount","type":"uint256","internalType":"uint256"},{"name":"beneficiary","type":"address","internalType":"address"},{"name":"preferClaimedTokens","type":"bool","internalType":"bool"},{"name":"memo","type":"string","internalType":"string"},{"name":"metadata","type":"bytes","internalType":"bytes"}]}],"outputs":[],"stateMutability":"payable"},{"type":"function","name":"didRedeem","inputs":[{"name":"_data","type":"tuple","internalType":"struct JBDidRedeemData","components":[{"name":"holder","type":"address","internalType":"address"},{"name":"projectId","type":"uint256","internalType":"uint256"},{"name":"currentFundingCycleConfiguration","type":"uint256","internalType":"uint256"},{"name":"projectTokenCount","type":"uint256","internalType":"uint256"},{"name":"reclaimedAmount","type":"tuple","internalType":"struct JBTokenAmount","components":[{"name":"token","type":"address","internalType":"address"},{"name":"value","type":"uint256","internalType":"uint256"},{"name":"decimals","type":"uint256","internalType":"uint256"},{"name":"currency","type":"uint256","internalType":"uint256"}]},{"name":"forwardedAmount","type":"tuple","internalType":"struct JBTokenAmount","components":[{"name":"token","type":"address","internalType":"address"},{"name":"value","type":"uint256","internalType":"uint256"},{"name":"decimals","type":"uint256","internalType":"uint256"},{"name":"currency","type":"uint256","internalType":"uint256"}]},{"name":"beneficiary","type":"address","internalType":"address payable"},{"name":"memo","type":"string","internalType":"string"},{"name":"metadata","type":"bytes","internalType":"bytes"}]}],"outputs":[],"stateMutability":"payable"},{"type":"function","name":"directory","inputs":[],"outputs":[{"name":"","type":"address","internalType":"contract IJBDirectory"}],"stateMutability":"view"},{"type":"function","name":"firstOwnerOf","inputs":[{"name":"_tokenId","type":"uint256","internalType":"uint256"}],"outputs":[{"name":"","type":"address","internalType":"address"}],"stateMutability":"view"},{"type":"function","name":"fundingCycleStore","inputs":[],"outputs":[{"name":"","type":"address","internalType":"contract IJBFundingCycleStore"}],"stateMutability":"view"},{"type":"function","name":"gamePhaseReporter","inputs":[],"outputs":[{"name":"","type":"address","internalType":"contract IDefifaGamePhaseReporter"}],"stateMutability":"view"},{"type":"function","name":"gamePotReporter","inputs":[],"outputs":[{"name":"","type":"address","internalType":"contract IDefifaGamePotReporter"}],"stateMutability":"view"},{"type":"function","name":"getApproved","inputs":[{"name":"tokenId","type":"uint256","internalType":"uint256"}],"outputs":[{"name":"","type":"address","internalType":"address"}],"stateMutability":"view"},{"type":"function","name":"getPastTierAttestationUnitsOf","inputs":[{"name":"_account","type":"address","internalType":"address"},{"name":"_tier","type":"uint256","internalType":"uint256"},{"name":"_blockNumber","type":"uint256","internalType":"uint256"}],"outputs":[{"name":"","type":"uint256","internalType":"uint256"}],"stateMutability":"view"},{"type":"function","name":"getPastTierTotalAttestationUnitsOf","inputs":[{"name":"_tier","type":"uint256","internalType":"uint256"},{"name":"_blockNumber","type":"uint256","internalType":"uint256"}],"outputs":[{"name":"","type":"uint256","internalType":"uint256"}],"stateMutability":"view"},{"type":"function","name":"getTierAttestationUnitsOf","inputs":[{"name":"_account","type":"address","internalType":"address"},{"name":"_tier","type":"uint256","internalType":"uint256"}],"outputs":[{"name":"","type":"uint256","internalType":"uint256"}],"stateMutability":"view"},{"type":"function","name":"getTierDelegateOf","inputs":[{"name":"_account","type":"address","internalType":"address"},{"name":"_tier","type":"uint256","internalType":"uint256"}],"outputs":[{"name":"","type":"address","internalType":"address"}],"stateMutability":"view"},{"type":"function","name":"getTierTotalAttestationUnitsOf","inputs":[{"name":"_tier","type":"uint256","internalType":"uint256"}],"outputs":[{"name":"","type":"uint256","internalType":"uint256"}],"stateMutability":"view"},{"type":"function","name":"initialize","inputs":[{"name":"_gameId","type":"uint256","internalType":"uint256"},{"name":"_directory","type":"address","internalType":"contract IJBDirectory"},{"name":"_name","type":"string","internalType":"string"},{"name":"_symbol","type":"string","internalType":"string"},{"name":"_fundingCycleStore","type":"address","internalType":"contract IJBFundingCycleStore"},{"name":"_baseUri","type":"string","internalType":"string"},{"name":"_tokenUriResolver","type":"address","internalType":"contract IJB721TokenUriResolver"},{"name":"_contractUri","type":"string","internalType":"string"},{"name":"_tiers","type":"tuple[]","internalType":"struct JB721TierParams[]","components":[{"name":"price","type":"uint104","internalType":"uint104"},{"name":"initialQuantity","type":"uint32","internalType":"uint32"},{"name":"votingUnits","type":"uint32","internalType":"uint32"},{"name":"reservedRate","type":"uint16","internalType":"uint16"},{"name":"reservedTokenBeneficiary","type":"address","internalType":"address"},{"name":"encodedIPFSUri","type":"bytes32","internalType":"bytes32"},{"name":"category","type":"uint24","internalType":"uint24"},{"name":"allowManualMint","type":"bool","internalType":"bool"},{"name":"shouldUseReservedTokenBeneficiaryAsDefault","type":"bool","internalType":"bool"},{"name":"transfersPausable","type":"bool","internalType":"bool"},{"name":"useVotingUnits","type":"bool","internalType":"bool"}]},{"name":"_currency","type":"uint48","internalType":"uint48"},{"name":"_store","type":"address","internalType":"contract IJBTiered721DelegateStore"},{"name":"_gamePhaseReporter","type":"address","internalType":"contract IDefifaGamePhaseReporter"},{"name":"_gamePotReporter","type":"address","internalType":"contract IDefifaGamePotReporter"},{"name":"_defaultAttestationDelegate","type":"address","internalType":"address"},{"name":"_tierNames","type":"string[]","internalType":"string[]"}],"outputs":[],"stateMutability":"nonpayable"},{"type":"function","name":"isApprovedForAll","inputs":[{"name":"owner","type":"address","internalType":"address"},{"name":"operator","type":"address","internalType":"address"}],"outputs":[{"name":"","type":"bool","internalType":"bool"}],"stateMutability":"view"},{"type":"function","name":"mintReservesFor","inputs":[{"name":"_mintReservesForTiersData","type":"tuple[]","internalType":"struct JBTiered721MintReservesForTiersData[]","components":[{"name":"tierId","type":"uint256","internalType":"uint256"},{"name":"count","type":"uint256","internalType":"uint256"}]}],"outputs":[],"stateMutability":"nonpayable"},{"type":"function","name":"mintReservesFor","inputs":[{"name":"_tierId","type":"uint256","internalType":"uint256"},{"name":"_count","type":"uint256","internalType":"uint256"}],"outputs":[],"stateMutability":"nonpayable"},{"type":"function","name":"name","inputs":[],"outputs":[{"name":"","type":"string","internalType":"string"}],"stateMutability":"view"},{"type":"function","name":"owner","inputs":[],"outputs":[{"name":"","type":"address","internalType":"address"}],"stateMutability":"view"},{"type":"function","name":"ownerOf","inputs":[{"name":"tokenId","type":"uint256","internalType":"uint256"}],"outputs":[{"name":"","type":"address","internalType":"address"}],"stateMutability":"view"},{"type":"function","name":"payParams","inputs":[{"name":"_data","type":"tuple","internalType":"struct JBPayParamsData","components":[{"name":"terminal","type":"address","internalType":"contract IJBPaymentTerminal"},{"name":"payer","type":"address","internalType":"address"},{"name":"amount","type":"tuple","internalType":"struct JBTokenAmount","components":[{"name":"token","type":"address","internalType":"address"},{"name":"value","type":"uint256","internalType":"uint256"},{"name":"decimals","type":"uint256","internalType":"uint256"},{"name":"currency","type":"uint256","internalType":"uint256"}]},{"name":"projectId","type":"uint256","internalType":"uint256"},{"name":"currentFundingCycleConfiguration","type":"uint256","internalType":"uint256"},{"name":"beneficiary","type":"address","internalType":"address"},{"name":"weight","type":"uint256","internalType":"uint256"},{"name":"reservedRate","type":"uint256","internalType":"uint256"},{"name":"memo","type":"string","internalType":"string"},{"name":"metadata","type":"bytes","internalType":"bytes"}]}],"outputs":[{"name":"weight","type":"uint256","internalType":"uint256"},{"name":"memo","type":"string","internalType":"string"},{"name":"delegateAllocations","type":"tuple[]","internalType":"struct JBPayDelegateAllocation[]","components":[{"name":"delegate","type":"address","internalType":"contract IJBPayDelegate"},{"name":"amount","type":"uint256","internalType":"uint256"}]}],"stateMutability":"view"},{"type":"function","name":"pricingCurrency","inputs":[],"outputs":[{"name":"","type":"uint256","internalType":"uint256"}],"stateMutability":"view"},{"type":"function","name":"projectId","inputs":[],"outputs":[{"name":"","type":"uint256","internalType":"uint256"}],"stateMutability":"view"},{"type":"function","name":"redeemParams","inputs":[{"name":"_data","type":"tuple","internalType":"struct JBRedeemParamsData","components":[{"name":"terminal","type":"address","internalType":"contract IJBPaymentTerminal"},{"name":"holder","type":"address","internalType":"address"},{"name":"projectId","type":"uint256","internalType":"uint256"},{"name":"currentFundingCycleConfiguration","type":"uint256","internalType":"uint256"},{"name":"tokenCount","type":"uint256","internalType":"uint256"},{"name":"totalSupply","type":"uint256","internalType":"uint256"},{"name":"overflow","type":"uint256","internalType":"uint256"},{"name":"reclaimAmount","type":"tuple","internalType":"struct JBTokenAmount","components":[{"name":"token","type":"address","internalType":"address"},{"name":"value","type":"uint256","internalType":"uint256"},{"name":"decimals","type":"uint256","internalType":"uint256"},{"name":"currency","type":"uint256","internalType":"uint256"}]},{"name":"useTotalOverflow","type":"bool","internalType":"bool"},{"name":"redemptionRate","type":"uint256","internalType":"uint256"},{"name":"memo","type":"string","internalType":"string"},{"name":"metadata","type":"bytes","internalType":"bytes"}]}],"outputs":[{"name":"reclaimAmount","type":"uint256","internalType":"uint256"},{"name":"memo","type":"string","internalType":"string"},{"name":"delegateAllocations","type":"tuple[]","internalType":"struct JBRedemptionDelegateAllocation[]","components":[{"name":"delegate","type":"address","internalType":"contract IJBRedemptionDelegate"},{"name":"amount","type":"uint256","internalType":"uint256"}]}],"stateMutability":"view"},{"type":"function","name":"redemptionWeightIsSet","inputs":[],"outputs":[{"name":"","type":"bool","internalType":"bool"}],"stateMutability":"view"},{"type":"function","name":"redemptionWeightOf","inputs":[{"name":"_tokenId","type":"uint256","internalType":"uint256"}],"outputs":[{"name":"","type":"uint256","internalType":"uint256"}],"stateMutability":"view"},{"type":"function","name":"redemptionWeightOf","inputs":[{"name":"_tokenIds","type":"uint256[]","internalType":"uint256[]"},{"name":"","type":"tuple","internalType":"struct JBRedeemParamsData","components":[{"name":"terminal","type":"address","internalType":"contract IJBPaymentTerminal"},{"name":"holder","type":"address","internalType":"address"},{"name":"projectId","type":"uint256","internalType":"uint256"},{"name":"currentFundingCycleConfiguration","type":"uint256","internalType":"uint256"},{"name":"tokenCount","type":"uint256","internalType":"uint256"},{"name":"totalSupply","type":"uint256","internalType":"uint256"},{"name":"overflow","type":"uint256","internalType":"uint256"},{"name":"reclaimAmount","type":"tuple","internalType":"struct JBTokenAmount","components":[{"name":"token","type":"address","internalType":"address"},{"name":"value","type":"uint256","internalType":"uint256"},{"name":"decimals","type":"uint256","internalType":"uint256"},{"name":"currency","type":"uint256","internalType":"uint256"}]},{"name":"useTotalOverflow","type":"bool","internalType":"bool"},{"name":"redemptionRate","type":"uint256","internalType":"uint256"},{"name":"memo","type":"string","internalType":"string"},{"name":"metadata","type":"bytes","internalType":"bytes"}]}],"outputs":[{"name":"cumulativeWeight","type":"uint256","internalType":"uint256"}],"stateMutability":"view"},{"type":"function","name":"renounceOwnership","inputs":[],"outputs":[],"stateMutability":"nonpayable"},{"type":"function","name":"safeTransferFrom","inputs":[{"name":"from","type":"address","internalType":"address"},{"name":"to","type":"address","internalType":"address"},{"name":"tokenId","type":"uint256","internalType":"uint256"}],"outputs":[],"stateMutability":"nonpayable"},{"type":"function","name":"safeTransferFrom","inputs":[{"name":"from","type":"address","internalType":"address"},{"name":"to","type":"address","internalType":"address"},{"name":"tokenId","type":"uint256","internalType":"uint256"},{"name":"data","type":"bytes","internalType":"bytes"}],"outputs":[],"stateMutability":"nonpayable"},{"type":"function","name":"setApprovalForAll","inputs":[{"name":"operator","type":"address","internalType":"address"},{"name":"approved","type":"bool","internalType":"bool"}],"outputs":[],"stateMutability":"nonpayable"},{"type":"function","name":"setTierDelegateTo","inputs":[{"name":"_delegatee","type":"address","internalType":"address"},{"name":"_tierId","type":"uint256","internalType":"uint256"}],"outputs":[],"stateMutability":"nonpayable"},{"type":"function","name":"setTierDelegatesTo","inputs":[{"name":"_setTierDelegatesData","type":"tuple[]","internalType":"struct JBTiered721SetTierDelegatesData[]","components":[{"name":"delegatee","type":"address","internalType":"address"},{"name":"tierId","type":"uint256","internalType":"uint256"}]}],"outputs":[],"stateMutability":"nonpayable"},{"type":"function","name":"setTierRedemptionWeightsTo","inputs":[{"name":"_tierWeights","type":"tuple[]","internalType":"struct DefifaTierRedemptionWeight[]","components":[{"name":"id","type":"uint256","internalType":"uint256"},{"name":"redemptionWeight","type":"uint256","internalType":"uint256"}]}],"outputs":[],"stateMutability":"nonpayable"},{"type":"function","name":"store","inputs":[],"outputs":[{"name":"","type":"address","internalType":"contract IJBTiered721DelegateStore"}],"stateMutability":"view"},{"type":"function","name":"supportsInterface","inputs":[{"name":"_interfaceId","type":"bytes4","internalType":"bytes4"}],"outputs":[{"name":"","type":"bool","internalType":"bool"}],"stateMutability":"view"},{"type":"function","name":"symbol","inputs":[],"outputs":[{"name":"","type":"string","internalType":"string"}],"stateMutability":"view"},{"type":"function","name":"tierNameOf","inputs":[{"name":"_tierId","type":"uint256","internalType":"uint256"}],"outputs":[{"name":"","type":"string","internalType":"string"}],"stateMutability":"view"},{"type":"function","name":"tierRedemptionWeights","inputs":[],"outputs":[{"name":"","type":"uint256[128]","internalType":"uint256[128]"}],"stateMutability":"view"},{"type":"function","name":"tokenAllocations","inputs":[],"outputs":[{"name":"defifaTokenAllocation","type":"uint256","internalType":"uint256"},{"name":"baseProtocolTokenAllocation","type":"uint256","internalType":"uint256"}],"stateMutability":"view"},{"type":"function","name":"tokenURI","inputs":[{"name":"_tokenId","type":"uint256","internalType":"uint256"}],"outputs":[{"name":"","type":"string","internalType":"string"}],"stateMutability":"view"},{"type":"function","name":"tokensClaimableFor","inputs":[{"name":"_tokenIds","type":"uint256[]","internalType":"uint256[]"}],"outputs":[{"name":"defifaTokenAmount","type":"uint256","internalType":"uint256"},{"name":"baseProtocolTokenAmount","type":"uint256","internalType":"uint256"}],"stateMutability":"view"},{"type":"function","name":"tokensRedeemedFrom","inputs":[{"name":"","type":"uint256","internalType":"uint256"}],"outputs":[{"name":"","type":"uint256","internalType":"uint256"}],"stateMutability":"view"},{"type":"function","name":"totalRedemptionWeight","inputs":[{"name":"","type":"tuple","internalType":"struct JBRedeemParamsData","components":[{"name":"terminal","type":"address","internalType":"contract IJBPaymentTerminal"},{"name":"holder","type":"address","internalType":"address"},{"name":"projectId","type":"uint256","internalType":"uint256"},{"name":"currentFundingCycleConfiguration","type":"uint256","internalType":"uint256"},{"name":"tokenCount","type":"uint256","internalType":"uint256"},{"name":"totalSupply","type":"uint256","internalType":"uint256"},{"name":"overflow","type":"uint256","internalType":"uint256"},{"name":"reclaimAmount","type":"tuple","internalType":"struct JBTokenAmount","components":[{"name":"token","type":"address","internalType":"address"},{"name":"value","type":"uint256","internalType":"uint256"},{"name":"decimals","type":"uint256","internalType":"uint256"},{"name":"currency","type":"uint256","internalType":"uint256"}]},{"name":"useTotalOverflow","type":"bool","internalType":"bool"},{"name":"redemptionRate","type":"uint256","internalType":"uint256"},{"name":"memo","type":"string","internalType":"string"},{"name":"metadata","type":"bytes","internalType":"bytes"}]}],"outputs":[{"name":"","type":"uint256","internalType":"uint256"}],"stateMutability":"view"},{"type":"function","name":"transferFrom","inputs":[{"name":"from","type":"address","internalType":"address"},{"name":"to","type":"address","internalType":"address"},{"name":"tokenId","type":"uint256","internalType":"uint256"}],"outputs":[],"stateMutability":"nonpayable"},{"type":"function","name":"transferOwnership","inputs":[{"name":"newOwner","type":"address","internalType":"address"}],"outputs":[],"stateMutability":"nonpayable"},{"type":"event","name":"Approval","inputs":[{"name":"owner","type":"address","indexed":true,"internalType":"address"},{"name":"approved","type":"address","indexed":true,"internalType":"address"},{"name":"tokenId","type":"uint256","indexed":true,"internalType":"uint256"}],"anonymous":false},{"type":"event","name":"ApprovalForAll","inputs":[{"name":"owner","type":"address","indexed":true,"internalType":"address"},{"name":"operator","type":"address","indexed":true,"internalType":"address"},{"name":"approved","type":"bool","indexed":false,"internalType":"bool"}],"anonymous":false},{"type":"event","name":"ClaimedTokens","inputs":[{"name":"beneficiary","type":"address","indexed":true,"internalType":"address"},{"name":"defifaTokenAmount","type":"uint256","indexed":false,"internalType":"uint256"},{"name":"baseProtocolTokenAmount","type":"uint256","indexed":false,"internalType":"uint256"},{"name":"caller","type":"address","indexed":false,"internalType":"address"}],"anonymous":false},{"type":"event","name":"DelegateChanged","inputs":[{"name":"delegator","type":"address","indexed":true,"internalType":"address"},{"name":"fromDelegate","type":"address","indexed":true,"internalType":"address"},{"name":"toDelegate","type":"address","indexed":true,"internalType":"address"}],"anonymous":false},{"type":"event","name":"Mint","inputs":[{"name":"tokenId","type":"uint256","indexed":true,"internalType":"uint256"},{"name":"tierId","type":"uint256","indexed":true,"internalType":"uint256"},{"name":"beneficiary","type":"address","indexed":true,"internalType":"address"},{"name":"totalAmountContributed","type":"uint256","indexed":false,"internalType":"uint256"},{"name":"caller","type":"address","indexed":false,"internalType":"address"}],"anonymous":false},{"type":"event","name":"MintReservedToken","inputs":[{"name":"tokenId","type":"uint256","indexed":true,"internalType":"uint256"},{"name":"tierId","type":"uint256","indexed":true,"internalType":"uint256"},{"name":"beneficiary","type":"address","indexed":true,"internalType":"address"},{"name":"caller","type":"address","indexed":false,"internalType":"address"}],"anonymous":false},{"type":"event","name":"OwnershipTransferred","inputs":[{"name":"previousOwner","type":"address","indexed":true,"internalType":"address"},{"name":"newOwner","type":"address","indexed":true,"internalType":"address"}],"anonymous":false},{"type":"event","name":"TierDelegateAttestationsChanged","inputs":[{"name":"delegate","type":"address","indexed":true,"internalType":"address"},{"name":"tierId","type":"uint256","indexed":true,"internalType":"uint256"},{"name":"previousBalance","type":"uint256","indexed":false,"internalType":"uint256"},{"name":"newBalance","type":"uint256","indexed":false,"internalType":"uint256"},{"name":"caller","type":"address","indexed":false,"internalType":"address"}],"anonymous":false},{"type":"event","name":"TierRedemptionWeightsSet","inputs":[{"name":"_tierWeights","type":"tuple[]","indexed":false,"internalType":"struct DefifaTierRedemptionWeight[]","components":[{"name":"id","type":"uint256","internalType":"uint256"},{"name":"redemptionWeight","type":"uint256","internalType":"uint256"}]},{"name":"caller","type":"address","indexed":false,"internalType":"address"}],"anonymous":false},{"type":"event","name":"Transfer","inputs":[{"name":"from","type":"address","indexed":true,"internalType":"address"},{"name":"to","type":"address","indexed":true,"internalType":"address"},{"name":"tokenId","type":"uint256","indexed":true,"internalType":"uint256"}],"anonymous":false},{"type":"error","name":"ALEADY_MINTED","inputs":[]},{"type":"error","name":"APPROVAL_TO_CURRENT_OWNER","inputs":[]},{"type":"error","name":"APPROVE_TO_CALLER","inputs":[]},{"type":"error","name":"BAD_TIER_ORDER","inputs":[]},{"type":"error","name":"CALLER_NOT_OWNER_OR_APPROVED","inputs":[]},{"type":"error","name":"DELEGATE_ADDRESS_ZERO","inputs":[]},{"type":"error","name":"DELEGATE_CHANGES_UNAVAILABLE_IN_THIS_PHASE","inputs":[]},{"type":"error","name":"GAME_ISNT_SCORING_YET","inputs":[]},{"type":"error","name":"INCORRECT_OWNER","inputs":[]},{"type":"error","name":"INVALID_PAYMENT_EVENT","inputs":[]},{"type":"error","name":"INVALID_REDEMPTION_EVENT","inputs":[]},{"type":"error","name":"INVALID_REDEMPTION_METADATA","inputs":[]},{"type":"error","name":"INVALID_REDEMPTION_WEIGHTS","inputs":[]},{"type":"error","name":"INVALID_TIER_ID","inputs":[]},{"type":"error","name":"INVALID_TOKEN_ID","inputs":[]},{"type":"error","name":"MINT_TO_ZERO","inputs":[]},{"type":"error","name":"NOTHING_TO_CLAIM","inputs":[]},{"type":"error","name":"NOTHING_TO_MINT","inputs":[]},{"type":"error","name":"NO_CONTEST","inputs":[]},{"type":"error","name":"OVERSPENDING","inputs":[]},{"type":"error","name":"PRBMath__MulDivOverflow","inputs":[{"name":"prod1","type":"uint256","internalType":"uint256"},{"name":"denominator","type":"uint256","internalType":"uint256"}]},{"type":"error","name":"REDEMPTION_WEIGHTS_ALREADY_SET","inputs":[]},{"type":"error","name":"RESERVED_TOKEN_MINTING_PAUSED","inputs":[]},{"type":"error","name":"TRANSFERS_PAUSED","inputs":[]},{"type":"error","name":"TRANSFER_TO_NON_IMPLEMENTER","inputs":[]},{"type":"error","name":"TRANSFER_TO_ZERO_ADDRESS","inputs":[]},{"type":"error","name":"UNAUTHORIZED","inputs":[]},{"type":"error","name":"UNAUTHORIZED_TOKEN","inputs":[{"name":"_tokenId","type":"uint256","internalType":"uint256"}]},{"type":"error","name":"UNEXPECTED_TOKEN_REDEEMED","inputs":[]},{"type":"error","name":"WRONG_CURRENCY","inputs":[]}],"bytecode":{"object":"0x60e0346200011357601f62005dc038819003918201601f19168301916001600160401b038311848410176200011757808492604094855283398101031262000113576200005a602062000052836200012b565b92016200012b565b60078054336001600160a01b0319821681179092556040519391906001600160a01b03167f8be0079c531659141344cd1fd0a4f28419497f9722a3daafe3b4186f6b6457e05f80a33060c05260805260a052615c7f9081620001418239608051818181611272015281816126ea01528181612c97015281816142ac01526143e3015260a0518181816107eb0152818161267a01528181612cec015281816142ff015261442d015260c0518181816108eb015261356d0152f35b5f80fd5b634e487b7160e01b5f52604160045260245ffd5b51906001600160a01b0382168203620001135756fe60806040526004361015610011575f80fd5b5f3560e01c806301ffc9a71461039457806306fdde031461038f57806307405b241461038a578063081812fc14610385578063095ea7b3146103805780631417f9f61461037b5780631baabc3e146103765780631d153ca41461037157806323b872dd1461036c57806327f6e979146103675780632a596e53146103625780632b13c58f1461035d5780633900c6f9146103585780633b2b8a78146103535780633fafa1271461034e57806342842e0e146103495780634f228e111461034457806354c6d1f51461033f578063557e71551461033a5780636352211e14610335578063640abacd1461033057806364640c1e1461032b5780636c0360eb1461032657806370a0823114610321578063715018a61461031c5780637245d80c14610317578063743682b5146103125780637ba62bf91461030d5780637f989887146103085780638da5cb5b1461030357806392eb1641146102fe5780639494bf72146102f957806395d89b41146102f4578063975057e7146102ef5780639c8c6cd5146102ea5780639df45468146102e5578063a0b6490c146102e0578063a22cb465146102db578063a51cfd18146102d6578063a8c15f4a146102d1578063aa4fb15b146102cc578063b88d4fde146102c7578063c3c69a96146102c2578063c41c2f24146102bd578063c87b56dd146102b8578063c90f5126146102b3578063cb7043f7146102ae578063d46cf171146102a9578063d9119f5f146102a4578063da9ee8b71461029f578063e8a3d4851461029a578063e985e9c514610295578063ea1c1b2514610290578063f2fde38b1461028b578063f7623b81146102865763fadd72b714610281575f80fd5b61219c565b612144565b6120b3565b61206a565b612006565b611f60565b611e7a565b611e4e565b611d95565b611cf1565b611c40565b611b4c565b611b24565b611ac9565b611a62565b611a43565b611a21565b611998565b6118ea565b6118c2565b611840565b6117f8565b6117d0565b61172c565b61170b565b6116e1565b6116b9565b611691565b61163b565b6115b3565b61158b565b61152e565b61149d565b6113f7565b6113a2565b611380565b611362565b61133a565b61131c565b6112f6565b6112be565b6112a1565b61125d565b611163565b610a46565b61098a565b61096d565b610946565b6108d6565b61081a565b6107d6565b610739565b610709565b61062c565b610522565b6103af565b6001600160e01b03198116036103ab57565b5f80fd5b346103ab5760203660031901126103ab576103fd6004356103cf81610399565b63ffffffff60e01b1663f6de42df60e01b8114908115610401575b5060405190151581529081906020820190565b0390f35b63fbb38e0360e01b8114915081156104ad575b811561049c575b811561048b575b811561047a575b8115610437575b505f6103ea565b6380ac58cd60e01b811491508115610469575b8115610458575b505f610430565b6301ffc9a760e01b1490505f610451565b635b5e139f60e01b8114915061044a565b63152a902d60e11b81149150610429565b632b13c58f60e01b81149150610422565b63da9ee8b760e01b8114915061041b565b6371700c6960e01b81149150610414565b5f9103126103ab57565b5f5b8381106104d95750505f910152565b81810151838201526020016104ca565b90602091610502815180928185528580860191016104c8565b601f01601f1916010190565b90602061051f9281815201906104e9565b90565b346103ab575f806003193601126105fd5760405190808054610543816113bf565b808552916001918083169081156105d35750600114610579575b6103fd8561056d81870382610df5565b6040519182918261050e565b80809450527f290decd9548b62a8d60345a988386fc84ba6bc95484008f6362f93160ef3e5635b8284106105bb57505050810160200161056d826103fd61055d565b805460208587018101919091529093019281016105a0565b8695506103fd9693506020925061056d94915060ff191682840152151560051b820101929361055d565b80fd5b6001600160a01b038116036103ab57565b6101a4359061061f82610600565b565b359061061f82610600565b346103ab5760403660031901126103ab5760043561064981610600565b6090546106919060209061066d906001600160a01b03165b6001600160a01b031690565b60055490604051808095819463038ab08560e11b8352600483019190602083019252565b03915afa8015610704576001915f916106d6575b506106af81612862565b036106c4576106c2906024359033613f63565b005b60405163f331f3c160e01b8152600490fd5b6106f7915060203d81116106fd575b6106ef8183610df5565b81019061284a565b5f6106a5565b503d6106e5565b61226f565b346103ab5760203660031901126103ab5760206107276004356144f7565b6040516001600160a01b039091168152f35b346103ab5760403660031901126103ab5760043561075681610600565b6024356001600160a01b038061076b836144c5565b1680918416146107c4578033141590816107a0575b5061078e576106c291614e35565b60405163e5fa0e3560e01b8152600490fd5b5f90815260046020908152604080832033845290915281205460ff16159150610780565b60405163133f8be960e01b8152600490fd5b346103ab575f3660031901126103ab576040517f00000000000000000000000000000000000000000000000000000000000000006001600160a01b03168152602090f35b346103ab576020806003193601126103ab575f906004358252608d81526040822090604051918381549061084d826113bf565b808652926001928084169081156108b25750600114610877575b6103fd8661056d818a0382610df5565b9080949650528483205b82841061089f57505050816103fd9361056d92820101935f80610867565b8054858501870152928501928101610881565b60ff19168787015250505050151560051b820101915061056d816103fd5f80610867565b346103ab575f3660031901126103ab576040517f00000000000000000000000000000000000000000000000000000000000000006001600160a01b03168152602090f35b60609060031901126103ab5760043561093281610600565b9060243561093f81610600565b9060443590565b346103ab576109543661091a565b9061095f823361456c565b1561078e576106c292614be1565b346103ab575f3660031901126103ab576020609754604051908152f35b346103ab576020806003193601126103ab57600435906001600160401b03908183116103ab57366023840112156103ab5782600401359182116103ab57602490600693368385871b830101116103ab575f5b8481106109e557005b600190610a076109fb3687848b1b870101612174565b85815191015190613839565b016109dc565b90816101e09103126103ab5790565b60206003198201126103ab57600435906001600160401b0382116103ab5761051f91600401610a0d565b610a4f36610a1c565b3415801590610cf4575b8015610ce4575b610cd25760a08101358015610cc0576101c082016024610a80828561273d565b9050108015610c88575b610c7657610a9b610aa3918461273d565b810190612810565b8051609054919493509150610ac0906001600160a01b0316610661565b6005546040805163038ab08560e11b8152600480820193909352919392602092908390829060249082905afa80156107045785915f91610c59575b50610b0581612862565b14935f5b848110610b49575050505050610b1e836141de565b610b2457005b6106c292610b3f610b3a610b4493609754612357565b609755565b613e55565b614262565b610b53818961231c565b5190610b77610b6a835f52600260205260405f2090565b546001600160a01b031690565b610b836106618c613e55565b6001600160a01b0390911603610c49578487610b9e84614a0b565b610bae575b506001915001610b09565b608e54610be79390610bc8906001600160a01b0316610661565b86516342f9914b60e01b81528681019283529485928391829160200190565b03915afa91821561070457600192610c0f915f91610c1c575b505f52609860205260405f2090565b8054600101905584610ba3565b610c3c9150873d8911610c42575b610c348183610df5565b810190612260565b5f610c00565b503d610c2a565b835163075fd2b160e01b81528390fd5b610c709150843d86116106fd576106ef8183610df5565b5f610afb565b604051632a84050f60e01b8152600490fd5b50610c9c610c96828561273d565b9061276f565b63f6de42df60e01b916001600160e01b031991610cb891612791565b161415610a8a565b604051637691472960e01b8152600490fd5b604051633efca5c360e11b8152600490fd5b5060055460208201351415610a60565b50600654610d3e90602090610d11906001600160a01b0316610661565b600554604051636e49181f60e01b8152600481019190915233602482015292839190829081906044820190565b03915afa908115610704575f91610d57575b5015610a59565b610d78915060203d8111610d7e575b610d708183610df5565b810190613e40565b5f610d50565b503d610d66565b6024359061061f82610600565b634e487b7160e01b5f52604160045260245ffd5b604081019081106001600160401b03821117610dc157604052565b610d92565b6001600160401b038111610dc157604052565b61100081019081106001600160401b03821117610dc157604052565b90601f801991011681019081106001600160401b03821117610dc157604052565b6040519061016082018281106001600160401b03821117610dc157604052565b6040519061061f82610da6565b6040519061018082018281106001600160401b03821117610dc157604052565b6040519061012082018281106001600160401b03821117610dc157604052565b6001600160401b038111610dc157601f01601f191660200190565b929192610eaa82610e83565b91610eb86040519384610df5565b8294818452818301116103ab578281602093845f960137010152565b9080601f830112156103ab5781602061051f93359101610e9e565b6084359061061f82610600565b60c4359061061f82610600565b6001600160401b038111610dc15760051b60200190565b35906cffffffffffffffffffffffffff821682036103ab57565b359063ffffffff821682036103ab57565b359061ffff821682036103ab57565b359062ffffff821682036103ab57565b801515036103ab57565b359061061f82610f6a565b81601f820112156103ab57803590610f9682610f09565b92604090610fa682519586610df5565b8385526020918286019183610160809702860101948186116103ab578401925b858410610fd7575050505050505090565b86848303126103ab57848791610feb610e16565b610ff487610f20565b8152611001838801610f3a565b83820152611010868801610f3a565b868201526060611021818901610f4b565b908201526080611032818901610621565b9082015260a0808801359082015260c061104d818901610f5a565b9082015260e061105e818901610f74565b90820152610100611070818901610f74565b90820152610120611082818901610f74565b90820152610140611094818901610f74565b90820152815201930192610fc6565b610124359065ffffffffffff821682036103ab57565b610144359061061f82610600565b610164359061061f82610600565b610184359061061f82610600565b9080601f830112156103ab578135906110fb82610f09565b926111096040519485610df5565b828452602092838086019160051b830101928084116103ab57848301915b8483106111375750505050505090565b82356001600160401b0381116103ab57869161115884848094890101610ed4565b815201920191611127565b346103ab576101e03660031901126103ab5761117d610d85565b6044356001600160401b03918282116103ab5761119f60049236908401610ed4565b6064358481116103ab576111b69036908501610ed4565b6111be610eef565b60a4358681116103ab576111d59036908701610ed4565b6111dd610efc565b60e4358881116103ab576111f49036908901610ed4565b610104358981116103ab5761120c9036908a01610f7f565b916112156110a3565b9361121e6110b9565b956112276110c7565b976112306110d5565b99611239610611565b9b6101c4359e8f116103ab576112566106c29f8f903691016110e3565b9d35613554565b346103ab575f3660031901126103ab576040517f00000000000000000000000000000000000000000000000000000000000000006001600160a01b03168152602090f35b346103ab575f3660031901126103ab576020600554604051908152f35b346103ab576112cc3661091a565b6040519160208301938385106001600160401b03861117610dc1576106c2946040525f845261452d565b346103ab5760203660031901126103ab5760206113146004356124d3565b604051908152f35b346103ab5760203660031901126103ab57602061072760043561222e565b346103ab575f3660031901126103ab57608f546040516001600160a01b039091168152602090f35b346103ab5760203660031901126103ab5760206107276004356144c5565b346103ab575f3660031901126103ab576020604051670de0b6b3a76400008152f35b346103ab575f3660031901126103ab576020609254604051908152f35b90600182811c921680156113ed575b60208310146113d957565b634e487b7160e01b5f52602260045260245ffd5b91607f16916113ce565b346103ab575f806003193601126105fd576040519080609454611419816113bf565b808552916001918083169081156105d35750600114611442576103fd8561056d81870382610df5565b9250609483527f7047a3cc0a76edcee45792ca71527c753f6167484f14b94c4a3bd2997516725c5b82841061148557505050810160200161056d826103fd61055d565b8054602085870181019190915290930192810161146a565b346103ab5760203660031901126103ab576004356114ba81610600565b608e54604051633de222bb60e21b81523060048201526001600160a01b0392831660248201529160209183916044918391165afa8015610704576103fd915f91611510575b506040519081529081906020820190565b611528915060203d8111610c4257610c348183610df5565b5f6114ff565b346103ab575f806003193601126105fd57611547615657565b600780546001600160a01b0319811690915581906001600160a01b03167f8be0079c531659141344cd1fd0a4f28419497f9722a3daafe3b4186f6b6457e08280a380f35b346103ab575f3660031901126103ab576091546040516001600160a01b039091168152602090f35b346103ab5760203660031901126103ab576004355f526098602052602060405f2054604051908152f35b81601f820112156103ab578035916115f483610f09565b926116026040519485610df5565b808452602092838086019260051b8201019283116103ab578301905b82821061162c575050505090565b8135815290830190830161161e565b346103ab5760403660031901126103ab576001600160401b036004358181116103ab5761166c9036906004016115dd565b906024359081116103ab5760209161168b611314923690600401610a0d565b50612364565b346103ab575f3660031901126103ab576096546040516001600160a01b039091168152602090f35b346103ab575f3660031901126103ab576007546040516001600160a01b039091168152602090f35b346103ab575f3660031901126103ab576116f9612623565b60408051928352602083019190915290f35b346103ab5761171936610a1c565b506020604051670de0b6b3a76400008152f35b346103ab575f806003193601126105fd5760405190806001805491611750836113bf565b808652928281169081156105d35750600114611776576103fd8561056d81870382610df5565b92508083527fb10e2d527612073b26eecdfd717e6a320cf44b4afac2b0732d9fcbe2b7fa0cf65b8284106117b857505050810160200161056d826103fd61055d565b8054602085870181019190915290930192810161179d565b346103ab575f3660031901126103ab57608e546040516001600160a01b039091168152602090f35b346103ab5760403660031901126103ab57602060043561181781610600565b60018060a01b038091165f526088825260405f206024355f52825260405f205416604051908152f35b346103ab575f3660031901126103ab5760405161185c81610dd9565b611000809136903760405160085f825b608082106118ac5750505061188081610dd9565b604051905f90825b6080831061189557505050f35b600190825181526020809101920192019190611888565b600160208192855481520193019101909161186c565b346103ab575f3660031901126103ab576090546040516001600160a01b039091168152602090f35b346103ab5760403660031901126103ab5760043561190781610600565b60243561191381610f6a565b6001600160a01b0382169133831461198657335f9081526004602090815260408083206001600160a01b039094168352929052209015159060ff1981541660ff83161790556040519081527f17307eab39ab6107e8899845ad3d59bd9653f200f220920489ca2b5937696c3160203392a3005b6040516306f8139d60e11b8152600490fd5b346103ab576119ae6119a936610a1c565b612880565b6040929192805193849384526119d060209160608387015260608601906104e9565b90848203838601528080855193848152019401925f905b8382106119f45786860387f35b845180516001600160a01b03168752830151868401528796509485019493820193600191909101906119e7565b346103ab575f3660031901126103ab57602060ff609354166040519015158152f35b346103ab5760403660031901126103ab576106c2602435600435613839565b346103ab5760803660031901126103ab57600435611a7f81610600565b602435611a8b81610600565b606435916001600160401b0383116103ab57366023840112156103ab57611abf6106c2933690602481600401359101610e9e565b916044359161452d565b346103ab5760403660031901126103ab57600435611ae681610600565b6001600160a01b03165f908152608960209081526040808320602435845282529091206001600160e01b0390611b1b906158b4565b16604051908152f35b346103ab575f3660031901126103ab576006546040516001600160a01b039091168152602090f35b346103ab5760203660031901126103ab57608e54611b72906001600160a01b0316610661565b604051630fab094760e01b815230600482015290602090829060249082905afa908115610704575f91611c12575b50604051635e703e7160e01b815230600480830191909152356024820152905f90829060449082906001600160a01b03165afa8015610704576103fd915f91611bf1575b506040519182918261050e565b611c0c913d8091833e611c048183610df5565b8101906122d1565b5f611be4565b611c33915060203d8111611c39575b611c2b8183610df5565b81019061227a565b5f611ba0565b503d611c21565b346103ab576020806003193601126103ab57600435906001600160401b0382116103ab57366023830112156103ab57816004013591611c7e83610f09565b91604093611c8e85519485610df5565b80845260248285019160061b840101923684116103ab57602401905b838210611cba576106c285613e5f565b85823603126103ab578286918251611cd181610da6565b8435611cdc81610600565b81528285013583820152815201910190611caa565b346103ab5760203660031901126103ab576004356001600160401b0381116103ab57611d246116f99136906004016115dd565b612ba7565b91908252611d4360209160608385015260608401906104e9565b90604092838184039101528080855193848152019401925f905b838210611d6c57505050505090565b845180516001600160a01b03168752830151868401529485019493820193600190910190611d5d565b346103ab57602060031981813601126103ab57600435906001600160401b0382116103ab576101a09082360301126103ab57611de2611ddb61016483018360040161273d565b3691610e9e565b60405190611def82610da6565b600182525f5b848110611e385750906103fd91610124945f611e0f610e36565b30815291820152611e1f8361230a565b52611e298261230a565b50604051948594013584611d29565b8490611e426127bd565b82828601015201611df5565b346103ab5760403660031901126103ab576004355f52608a602052602061131460243560405f206156f7565b6003196020368201126103ab57600435906001600160401b0382116103ab576102009082360301126103ab57600554341590811591611eed575b8115611ede575b50611ecc576106c290600401615198565b6040516331c57b1b60e21b8152600490fd5b9050602482013514155f611ebb565b600654909150611f05906001600160a01b0316610661565b604051636e49181f60e01b81526004810183905233602482015290602090829060449082905afa908115610704575f91611f42575b501590611eb4565b611f5a915060203d8111610d7e57610d708183610df5565b5f611f3a565b346103ab575f806003193601126105fd576040519080609554611f82816113bf565b808552916001918083169081156105d35750600114611fab576103fd8561056d81870382610df5565b9250609583527f947035e97d0f7e1937f791bc189f60c984ceaaa7a8494fc67f9f8f4de8ccf2c65b828410611fee57505050810160200161056d826103fd61055d565b80546020858701810191909152909301928101611fd3565b346103ab5760403660031901126103ab57602060ff61205e60043561202a81610600565b6024359061203782610600565b60018060a01b03165f526004845260405f209060018060a01b03165f5260205260405f2090565b54166040519015158152f35b346103ab5760603660031901126103ab5760043561208781610600565b60018060a01b03165f52608960205260405f206024355f52602052602061131460443560405f206156f7565b346103ab5760203660031901126103ab576004356120d081610600565b6120d8615657565b6001600160a01b038116156120f0576106c2906156af565b60405162461bcd60e51b815260206004820152602660248201527f4f776e61626c653a206e6577206f776e657220697320746865207a65726f206160448201526564647265737360d01b6064820152608490fd5b346103ab5760203660031901126103ab576004355f52608a602052602060018060e01b03611b1b60405f206158b4565b91908260409103126103ab5760405161218c81610da6565b6020808294803584520135910152565b346103ab576020806003193601126103ab57600435906001600160401b0382116103ab57366023830112156103ab578160040135916121da83610f09565b916040936121ea85519485610df5565b80845260248285019160061b840101923684116103ab57602401905b838210612216576106c285613b06565b8286916122233685612174565b815201910190612206565b5f908152608c60205260409020546001600160a01b039081168061225b5750600260205260405f20541690565b905090565b908160209103126103ab575190565b6040513d5f823e3d90fd5b908160209103126103ab575161051f81610600565b81601f820112156103ab5780516122a581610e83565b926122b36040519485610df5565b818452602082840101116103ab5761051f91602080850191016104c8565b906020828203126103ab5781516001600160401b0381116103ab5761051f920161228f565b634e487b7160e01b5f52603260045260245ffd5b8051156123175760200190565b6122f6565b80518210156123175760209160051b010190565b634e487b7160e01b5f52601160045260245ffd5b906001820180921161235257565b612330565b9190820180921161235257565b905f9180515f915b81831061237857505050565b90919361238e612388868461231c565b516124d3565b81018091116123525793600101919061236c565b519061061f82610600565b519061061f82610f6a565b6020818303126103ab5780516001600160401b03918282116103ab5701610180818403126103ab576123e8610e43565b92815184526020820151602085015260408201516040850152606082015160608501526080820151608085015260a082015160a085015261242b60c083016123a2565b60c085015260e082015160e085015261010080830151908501526101206124538184016123ad565b908501526101406124658184016123ad565b9085015261016092838301519081116103ab57612482920161228f565b9082015290565b5f1981019190821161235257565b9190820391821161235257565b608081101561231757600801905f90565b81156124bf570490565b634e487b7160e01b5f52601260045260245ffd5b608e5461250f906020906124ef906001600160a01b0316610661565b92604051809381926342f9914b60e01b8352600483019190602083019252565b0381855afa908115610704575f91612605575b506040516364faa15960e01b8152306004820152602481018290525f604482018190529092839060649082905afa918215610704575f926125e2575b5061257d61257361256e83612489565b6124a4565b90549060031b1c90565b9081156125db57606083019061259b60408351950194855190612497565b156125d3576125c66125b761051f956125cd9451905190612497565b915f52609860205260405f2090565b5490612357565b906124b5565b505050505f90565b5050505f90565b6125fe91923d8091833e6125f68183610df5565b8101906123b8565b905f61255e565b61261d915060203d8111610c4257610c348183610df5565b5f612522565b608b54608081901c91906fffffffffffffffffffffffffffffffff165f81156126c457505b915f8115612654575090565b6040516370a0823160e01b81523060048201529091506020816024816001600160a01b037f0000000000000000000000000000000000000000000000000000000000000000165afa91821561070457916126ac575090565b61051f915060203d8111610c4257610c348183610df5565b6040516370a0823160e01b81523060048201529091506020816024816001600160a01b037f0000000000000000000000000000000000000000000000000000000000000000165afa918215610704579161271f575b50612648565b612737915060203d8111610c4257610c348183610df5565b5f612719565b903590601e19813603018212156103ab57018035906001600160401b0382116103ab576020019181360383136103ab57565b906024116103ab5760200190600490565b906044116103ab5760400190600490565b6001600160e01b031990358181169392600481106127ae57505050565b60040360031b82901b16169150565b604051906127ca82610da6565b5f6020838281520152565b604051906127e282610da6565b60018252815f5b6020908181101561280b576020916127ff6127bd565b908285010152016127e9565b505050565b916060838303126103ab57823592602081013561282c81610399565b9260408201356001600160401b0381116103ab5761051f92016115dd565b908160209103126103ab575160078110156103ab5790565b6007111561286c57565b634e487b7160e01b5f52602160045260245ffd5b905f90816080840135612b08576101c0840190602461289f838761273d565b9050108015612ad6575b610c76576128b56127d5565b936128ea610a9b6128c4610e36565b3081529460209584878201526128d98961230a565b526128e38861230a565b508861273d565b6090549095925061290491506001600160a01b0316610661565b91604088838251809663038ab08560e11b8252818061292f8760049701358783019190602083019252565b03915afa948515610704578395612ab7575b5061294b85612862565b600194858114908115612aa2575b8115612a8d575b8115612a79575b506129ab57505050505050611ddb61299b6129a79261299561298f60975460c08a0135612357565b91612364565b90615b13565b946101a081019061273d565b9190565b94989592919083519382966129ca610661608e5460018060a01b031690565b915b8689106129ee57505050505050505050611ddb816101a06129a793019061273d565b90919293949596979b612a359086612a068f8561231c565b51875163c44a8e6d60e01b81523087820190815260208101929092525f60408301529384918291606090910190565b0381885afa918215610704578a9289918991612a5f575b500151019c0197969594939291906129cc565b612a7391503d808b833e6125f68183610df5565b5f612a4c565b60059150612a8681612862565b145f612967565b9050612a9881612862565b6006811490612960565b9050612aad81612862565b6002811490612959565b612acf919550843d86116106fd576106ef8183610df5565b935f612941565b50612ae4610c96838761273d565b63f6de42df60e01b916001600160e01b031991612b0091612791565b1614156128a9565b6040516309f82f1b60e31b8152600490fd5b908160609103126103ab5780519160406020830151612b3881610600565b92015190565b6040519061018082018281106001600160401b03821117610dc1576040526060610160835f80825280602083015280604083015280848301528060808301528060a08301528060c08301528060e083015280610100830152806101208301526101408201520152565b90612bb0612623565b8193911580612e70575b612e6657609154612bd3906001600160a01b0316610661565b9060055490604095865194635a6fd84360e11b865260049460608780612c09888a83016020600191939293604081019481520152565b0381845afa94851561070457612c43975f96612e34575b50895180926379572fb760e11b8252818060209b8c958c83019190602083019252565b03915afa801561070457612c5f915f91612e17575b5085612497565b612d5357505085516370a0823160e01b8082523085830190815290949193509091506001600160a01b039085908490819003602001817f000000000000000000000000000000000000000000000000000000000000000085165afa93841561070457612ce89486945f91612d36575b509751908152309281019283529384928391829160200190565b03917f0000000000000000000000000000000000000000000000000000000000000000165afa918215610704575f92612d2057505090565b61051f9250803d10610c4257610c348183610df5565b612d4d9150853d8711610c4257610c348183610df5565b5f612cce565b939194909296845190612d64612b3e565b50608e545f9687959091612d80906001600160a01b0316610661565b915b848710612db7575050505050505090612dab61051f9392612db16097549184612dab848b612357565b91615ba6565b96612357565b90919293949597612dcd905f612a068b8561231c565b0381885afa9081156107045788612df1926001945f91612dfe575b50015190612357565b9801959493929190612d82565b612e11913d8091833e6125f68183610df5565b5f612de8565b612e2e9150883d8a11610c4257610c348183610df5565b5f612c58565b612e5691965060603d8111612e5f575b612e4e8183610df5565b810190612b1a565b5050945f612c20565b503d612e44565b505090505f905f90565b508015612bba565b601f8111612e84575050565b5f908180527f290decd9548b62a8d60345a988386fc84ba6bc95484008f6362f93160ef3e563906020601f850160051c83019410612edd575b601f0160051c01915b828110612ed257505050565b818155600101612ec6565b9092508290612ebd565b601f8111612ef3575050565b5f90609482527f7047a3cc0a76edcee45792ca71527c753f6167484f14b94c4a3bd2997516725c906020601f850160051c83019410612f4d575b601f0160051c01915b828110612f4257505050565b818155600101612f36565b9092508290612f2d565b601f8111612f63575050565b5f90609582527f947035e97d0f7e1937f791bc189f60c984ceaaa7a8494fc67f9f8f4de8ccf2c6906020601f850160051c83019410612fbd575b601f0160051c01915b828110612fb257505050565b818155600101612fa6565b9092508290612f9d565b90601f8211612fd4575050565b6001915f908382527fb10e2d527612073b26eecdfd717e6a320cf44b4afac2b0732d9fcbe2b7fa0cf6906020601f850160051c83019410613030575b601f0160051c01915b8281106130265750505050565b8181558301613019565b9092508290613010565b90601f811161304857505050565b5f91825260208220906020601f850160051c83019410613083575b601f0160051c01915b82811061307857505050565b81815560010161306c565b9092508290613063565b9081516001600160401b038111610dc1576130b2816130ad6094546113bf565b612ee7565b602080601f83116001146130ec57508192935f926130e1575b50508160011b915f199060031b1c191617609455565b015190505f806130cb565b90601f1983169461311e60945f527f7047a3cc0a76edcee45792ca71527c753f6167484f14b94c4a3bd2997516725c90565b925f905b878210613159575050836001959610613141575b505050811b01609455565b01515f1960f88460031b161c191690555f8080613136565b80600185968294968601518155019501930190613122565b9081516001600160401b038111610dc157613196816131916095546113bf565b612f57565b602080601f83116001146131d057508192935f926131c5575b50508160011b915f199060031b1c191617609555565b015190505f806131af565b90601f1983169461320260955f527f947035e97d0f7e1937f791bc189f60c984ceaaa7a8494fc67f9f8f4de8ccf2c690565b925f905b87821061323d575050836001959610613225575b505050811b01609555565b01515f1960f88460031b161c191690555f808061321a565b80600185968294968601518155019501930190613206565b9081516001600160401b038111610dc15760019061327c8161327784546113bf565b612fc7565b602080601f83116001146132b55750819293945f926132aa575b50505f19600383901b1c191690821b179055565b015190505f80613296565b90601f198316956132e760015f527fb10e2d527612073b26eecdfd717e6a320cf44b4afac2b0732d9fcbe2b7fa0cf690565b925f905b8882106133205750508385969710613308575b505050811b019055565b01515f1960f88460031b161c191690555f80806132fe565b8087859682949686015181550195019301906132eb565b91909182516001600160401b038111610dc15761335e8161335884546113bf565b8461303a565b602080601f83116001146133985750819293945f9261338d575b50508160011b915f199060031b1c1916179055565b015190505f80613378565b90601f198316956133ac855f5260205f2090565b925f905b8882106133ce5750508360019596971061330857505050811b019055565b806001859682949686015181550195019301906133b0565b81601f820112156103ab578051916133fd83610f09565b9261340b6040519485610df5565b808452602092838086019260051b8201019283116103ab578301905b828210613435575050505090565b81518152908301908301613427565b906020828203126103ab5781516001600160401b0381116103ab5761051f92016133e6565b60208082019080835283518092528060408094019401925f905b83821061349257505050505090565b90919293948361016060019261354789516134bc8382516cffffffffffffffffffffffffff169052565b8085015163ffffffff16838601528087015163ffffffff168388015260608181015161ffff16908401526080818101516001600160a01b03169084015260a0818101519084015260c08082015162ffffff169084015260e081810151151590840152610100818101511515908401526101208181015115159084015261014090810151151590830152565b0196019493920190613483565b90929c95999b9394979a9196989c60018060a01b039d8e7f00000000000000000000000000000000000000000000000000000000000000001630146103ab57608e548f906135aa906001600160a01b0316610661565b166103ab576136108e6135f3613650996135d665ffffffffffff9661366d9e6136339b6136169a614fc6565b60018060a01b03166001600160601b0360a01b608f541617608f55565b60018060a01b03166001600160601b0360a01b608e541617608e55565b16609255565b60018060a01b03166001600160601b0360a01b6090541617609055565b60018060a01b03166001600160601b0360a01b6091541617609155565b60018060a01b03166001600160601b0360a01b6096541617609655565b80516137a3575b508051613794575b5083811661372a575b505f916136a99183604051958680958194638da5e32b60e01b835260048301613469565b0393165af1801561070457613708575b508051905f5b8281106136d25750505061061f336156af565b806137026136e26001938561231c565b516136fd6136ef84612344565b5f52608d60205260405f2090565b613337565b016136bf565b613723903d805f833e61371b8183610df5565b810190613444565b505f6136b9565b91838116803b156103ab5760405163036129cb60e61b81526001600160a01b039490941660048501525f908490602490829084905af1918215610704575f936136a99361377b575b50915091613685565b8061378861378e92610dc6565b806104be565b5f613772565b61379d90613171565b5f61367c565b6137ac9061308d565b5f613674565b90816101209103126103ab576137c6610e63565b90805182526020810151602083015260408101516040830152606081015160608301526080810151608083015260a081015160a083015260c081015160c083015261381360e082016123a2565b60e0830152610100809101519082015290565b8181029291811591840414171561235257565b608f54909190613851906001600160a01b0316610661565b600554604080516321d1336160e11b81526004810192909252939161012091908290829060249082905afa918215610704576138a89260ff92610100925f92613ad9575b5050015160f41c1660018091811c161490565b613ac857608e546138c1906001600160a01b0316610661565b83516304db994760e21b8152306004820152602481018390529290602090849060449082905afa928315610704575f93613aa8575b506001600160a01b038381165f908152608860205260409020909190829061392c90610b6a9086905b905f5260205260405f2090565b1615613a78575b608e54613948906001600160a01b0316610661565b8551635d53f40760e11b8152600481018590526024810183905292905f908490604490829084905af1928315610704575f93613a5d575b505f5b828110613a0e575050608e545f91506139a3906001600160a01b0316610661565b94516364faa15960e01b8152306004820152602481018490525f604482015294859060649082905afa9081156107045760806139ef9261061f965f916139f5575b500151905190613826565b91614031565b613a08913d8091833e6125f68183610df5565b5f6139e4565b80613a1b6001928661231c565b51613a2681896145e4565b88513381528489169188917f031e1988c95a91ec4d655ff63a8f87a80bc9daf28d95ae10ee08c0022cfb5c8b90602090a401613982565b613a7191933d8091833e61371b8183610df5565b915f61397f565b6096546001600160a01b03168381841615613a9d57613a98915b86613f63565b613933565b613a98915085613a92565b613ac191935060203d8111611c3957611c2b8183610df5565b915f6138f6565b8251631d2c125760e31b8152600490fd5b613af89250803d10613aff575b613af08183610df5565b8101906137b2565b5f80613895565b503d613ae6565b613b0e615657565b609054613b23906001600160a01b0316610661565b6005546040805163038ab08560e11b81526004808201939093529092602091908290829060249082905afa908115610704575f91613dc7575b50613b6681612862565b60038103613db75760935460ff16613da757613b8181612862565b60068114908115613d93575b50613d8457608e8054613ba8906001600160a01b0316610661565b845163f1bea54f60e01b81523085820190815290939182918591908290819060200103915afa928315610704575f93613d65575b5090915f91865191613bec612b3e565b5083945b838610613c635750505050670de0b6b3a7640000915011613c5557507f84aed921cbe73f57f53b582881a8c761484c5bd2881d96558dbc9a20e100a21e91613c5091613c44600160ff196093541617609355565b51918291339083613de4565b0390a1565b9051636ff44e9760e01b8152fd5b90919293613cb95f613c7e610661855460018060a01b031690565b613c88898d61231c565b51518b516364faa15960e01b815230818d0190815260208101929092525f6040830152938492918391829160600190565b03915afa908115610704575f91613d4c575b50610100810151613d3c5783815111613d3c57600191613d1c613d3092613d0461256e898f8d613cfa9161231c565b5101519251612489565b90919082549060031b91821b915f19901b1916179055565b85613d27898d61231c565b51015190612357565b95019493929190613bf0565b885163148e14dd60e21b81528890fd5b613d5f913d8091833e6125f68183610df5565b5f613ccb565b81613d7d9294503d8511610c4257610c348183610df5565b915f613bdc565b509051636fb8407560e01b8152fd5b60059150613da081612862565b145f613b8d565b8351633810140760e01b81528390fd5b83516301e7228160e11b81528390fd5b613dde9150823d84116106fd576106ef8183610df5565b5f613b5c565b90929192604080830190808452825180925260608401916020809401915f905b85838310613e1f5750505050509360018060a01b0316910152565b84518051875281015181870152948101949093019260019190910190613e04565b908160209103126103ab575161051f81610f6a565b3561051f81610600565b609054613e74906001600160a01b0316610661565b6005546040805163038ab08560e11b8152600480820193909352939290916020918290869060249082905afa948515610704575f95613f44575b50613eb885612862565b6001809503613f3657835193613ecc6127bd565b505f5b858110613edf5750505050505050565b613ee9818361231c565b518051613efe906001600160a01b0316610661565b15613f2657805190850151889291613f2091906001600160a01b031633613f63565b01613ecf565b85516314f4c13d60e21b81528490fd5b825163f331f3c160e01b8152fd5b613f5c919550823d84116106fd576106ef8183610df5565b935f613eae565b6001600160a01b039081165f8181526088602090815260408083208784528252822080548686166001600160a01b03198216811790925592969195919491939282169291869184847f3134e8a2e6d97e929a7e54011ea5485d7d196dd5f0ba4d4ef95803e8e3fc257f8b80a4608e5416916064604051809481936305c9a1d560e31b835230600484015260248301528860448301525afa9485156107045761061f9695614012575b50506140bf565b614029929550803d10610c4257610c348183610df5565b925f8061400b565b9061061f92915f828152608a60205261404d84604083206157f2565b506001600160a01b039160409150838316156140a4575b80805260886020528181208582526020526140958383832054169460018060a01b03165f52608860205260405f2090565b858252602052205416906140bf565b848152608a6020526140b88683832061588c565b5050614064565b91926001600160a01b038083169391929190811680851480156141d6575b6141ce57859181614164575b505050826140f8575b50505050565b6001600160a01b03165f9081526089602052604090207f26abcd0483bf852c577c9beff4daa5920a203234050413150a0aa946fb598bfa9161414391855f5260205260405f206157f2565b6040805192835260208301919091523390820152606090a35f8080806140f2565b6001600160a01b03165f908152608960205260409020825f526020527f26abcd0483bf852c577c9beff4daa5920a203234050413150a0aa946fb598bfa6141ae8560405f2061588c565b6040805192835260208301919091523390820152606090a3835f806140e9565b505050505050565b5083156140dd565b608e546001600160a01b0316803b156103ab5760405180926386bc2be360e01b825260248201602090816004850152825180915281604485019301915f5b82811061424b575050505091815f81819503925af180156107045761423e5750565b8061378861061f92610dc6565b83518552879550938101939281019260010161421c565b90608b54156143ba575b61427590612ba7565b60405163a9059cbb60e01b8082526001600160a01b038581166004840152602483018590529294909390916020919082816044815f7f00000000000000000000000000000000000000000000000000000000000000008a165af180156107045761439d575b506040519485526001600160a01b03831660048601526024850186905281856044815f7f000000000000000000000000000000000000000000000000000000000000000089165af1918215610704577fa183a623ac9e87a7002f8ccdd81b014fd2212a1a62a3059e097db62cb2df52c99561437a9361437f575b505060408051918252602082019690965233958101959095529116929081906060820190565b0390a2565b8161439592903d10610d7e57610d708183610df5565b505f80614354565b6143b390833d8511610d7e57610d708183610df5565b505f6142da565b6040516370a0823160e01b8082523060048301526001600160a01b0392916020919082816024817f000000000000000000000000000000000000000000000000000000000000000089165afa9182156107045783915f936144a6575b5060405190815230600482015294859060249082907f0000000000000000000000000000000000000000000000000000000000000000165afa80156107045761427594614482935f92614489575b505060801b6fffffffffffffffffffffffffffffffff191617608b55565b905061426c565b61449f9250803d10610c4257610c348183610df5565b5f80614464565b6144be919350823d8411610c4257610c348183610df5565b915f614416565b5f908152600260205260409020546001600160a01b031680156144e55790565b60405163b49aa3b560e01b8152600490fd5b5f818152600260205260409020546001600160a01b0316156144e5575f908152600360205260409020546001600160a01b031690565b92919061453a823361456c565b1561078e578361454e838361455397614be1565b614f0c565b1561455a57565b6040516336f57c1b60e11b8152600490fd5b6001600160a01b038061457e846144c5565b1692818316928484149485156145b4575b5050831561459e575b50505090565b6145aa919293506144f7565b16145f8080614598565b5f9081526004602090815260408083206001600160a01b039490941683529290529081205460ff1694508061458f565b9091906001600160a01b03811690811561473e575f848152600260205260409020546001600160a01b031661472c575f84815260026020526040812080546001600160a01b0319166001600160a01b038416179055918490837fddf252ad1be2c89b69c2b068fc378daa952ba7f163c4a11628f55a4df523b3ef8180a4608e546146aa90839061467c906001600160a01b0316610661565b60405163c44a8e6d60e01b815230600482015260248101979097525f60448801529591829081906064820190565b0381885afa908115610704578391614712575b505193803b1561470e576040516330b157e560e21b815260048101959095525f60248601526001600160a01b039190911660448501529192918290606490829084905af180156107045761423e5750565b8280fd5b61472691503d8085833e6125f68183610df5565b5f6146bd565b604051632eb5f0c360e21b8152600490fd5b604051633904578f60e11b8152600490fd5b608e5461479d9392919061476c906001600160a01b0316610661565b60405163c44a8e6d60e01b815230600482015260248101939093525f60448401819052948590849081906064820190565b0381845afa92831561070457859361481f575b508251813b1561481b576040516330b157e560e21b815260048101919091526001600160a01b03831660248201525f60448201529394908490606490829084905af19283156107045761061f93614808575b50614929565b8061378861481592610dc6565b5f614802565b8580fd5b6148349193503d8087833e6125f68183610df5565b915f6147b0565b608e546148899493929190614858906001600160a01b0316610661565b60405163c44a8e6d60e01b815230600482015260248101949094525f60448501819052958690859081906064820190565b0381845afa93841561070457869461490d575b508351813b15614909576040516330b157e560e21b815260048101919091526001600160a01b038381166024830152841660448201529495908590606490829084905af19384156107045761061f946148f6575b50614994565b8061378861490392610dc6565b5f6148f0565b8680fd5b6149229194503d8088833e6125f68183610df5565b925f61489c565b6001600160a01b0390811691821561280b5761061f9260808251920151925f91838352608a60205261495e856040852061588c565b505082526088602052604082208383526020526040818184205416928080526088602052818120858252602052205416906140bf565b6001600160a01b03929083169182156140f25761061f9360406080845194015194828416156149f0575b5f908152608860208181528383208784528152838320546001600160a01b039096168352526040812093831693614095565b845f52608a602052614a0486835f2061588c565b50506149be565b614a14816144c5565b6001600160a01b038116919082614a78575b815f61061f94614a3583614de2565b82825260026020526040822080546001600160a01b03191690557fddf252ad1be2c89b69c2b068fc378daa952ba7f163c4a11628f55a4df523b3ef8280a4614750565b608e54614a8d906001600160a01b0316610661565b60405163c44a8e6d60e01b8152306004820152602481018490525f604482018190529091829060649082905afa90811561070457614ad891610140915f91614bc8575b500151151590565b614b44575b815f61061f94614afb610661610b6a855f52608c60205260405f2090565b15614b0a575b94505050614a26565b614b3f84614b20855f52608c60205260405f2090565b80546001600160a01b0319166001600160a01b03909216919091179055565b614b01565b608f54614b879390614b5e906001600160a01b0316610661565b9060055460405180936321d1336160e11b82528180610120998a95600483019190602083019252565b03915afa9081156107045761061f9585935f93614baa575b505094505050614add565b81614bc092903d10613aff57613af08183610df5565b505f80614b9f565b614bdb913d8091833e6125f68183610df5565b5f614ad0565b9190614bec826144c5565b6001600160a01b0380851694918116859003614dd0578216938415614dbe5780614c6f575b61061f948491614c2083614de2565b5f83815260026020526040902080546001600160a01b0319166001600160a01b0387161790557fddf252ad1be2c89b69c2b068fc378daa952ba7f163c4a11628f55a4df523b3ef5f80a461483b565b608e54614c84906001600160a01b0316610661565b60405163c44a8e6d60e01b8152306004820152602481018690525f604482018190529091829060649082905afa90811561070457614cce91610140915f91614bc857500151151590565b614d1b575b61061f948491614cf1610661610b6a855f52608c60205260405f2090565b15614d00575b91509450614c11565b614d1684614b20855f52608c60205260405f2090565b614cf7565b608f54614d5c90614d34906001600160a01b0316610661565b60055460405180926321d1336160e11b82528180610120968795600483019190602083019252565b03915afa91821561070457614d8a9260ff92610100925f92614da1575b5050015160f41c1660018091161490565b15614cd3576040516318cdaf9760e01b8152600490fd5b614db79250803d10613aff57613af08183610df5565b5f80614d79565b604051632c95542760e01b8152600490fd5b60405163a195bc5360e01b8152600490fd5b5f81815260036020526040812080546001600160a01b03191690556001600160a01b03614e0e836144c5565b167f8c5be1e5ebec7d5bd14f71427d1e84f3dd0314c0f7b2291e5b200ac8c7c3b9258280a4565b5f82815260036020526040902080546001600160a01b0319166001600160a01b0383161790556001600160a01b0380614e6d846144c5565b169116907f8c5be1e5ebec7d5bd14f71427d1e84f3dd0314c0f7b2291e5b200ac8c7c3b9255f80a4565b908160209103126103ab575161051f81610399565b6001600160a01b03918216815291166020820152604081019190915260806060820181905261051f929101906104e9565b3d15614f07573d90614eee82610e83565b91614efc6040519384610df5565b82523d5f602084013e565b606090565b92909190823b15614fbd57614f3e926020925f604051809681958294630a85bd0160e11b9a8b85523360048601614eac565b03926001600160a01b03165af15f9181614f8d575b50614f7f57614f60614edd565b80519081614f7a576040516336f57c1b60e11b8152600490fd5b602001fd5b6001600160e01b0319161490565b614faf91925060203d8111614fb6575b614fa78183610df5565b810190614e97565b905f614f53565b503d614f9d565b50505050600190565b9192909280516001600160401b038111610dc1575f91614fef82614fea85546113bf565b612e78565b60209081601f841160011461505c5750928261502f93615034969361061f9998968492615051575b50508160011b915f199060031b1c1916179055613255565b600555565b60018060a01b03166001600160601b0360a01b6006541617600655565b015190505f80615017565b5f80529190601f1984167f290decd9548b62a8d60345a988386fc84ba6bc95484008f6362f93160ef3e5639386905b8282106150d457505093615034969361061f999896936001938361502f98106150bc575b505050811b019055613255565b01515f1960f88460031b161c191690555f80806150af565b8060018697829497870151815501960194019061508b565b9160a0838303126103ab578235926020918282013593604083013561511081610399565b93606084013561511f81610600565b936080810135906001600160401b0382116103ab57019180601f840112156103ab57823561514c81610f09565b9361515a6040519586610df5565b818552838086019260051b8201019283116103ab578301905b828210615181575050505090565b83809161518d84610f4b565b815201910190615173565b9060925460c0830135036154cd576101e0820160446151b7828561273d565b90501180615496575b6151c957509050565b6151d66151de918461273d565b8101906150ec565b6001600160a01b03918216969450925090508415615469575b815115615457575f808091845197825b8981106152495750505050505061523192935060806152296101808401613e55565b920135615557565b61523757565b604051631b57826960e21b8152600490fd5b898861526a61526361525b858c61231c565b5161ffff1690565b61ffff1690565b850361538c575b9061529f610b6a8661391f6152868b96613e55565b6001600160a01b03165f90815260886020526040902090565b88808616918b83159485158096615381575b6152c5575b50505050505050600101615207565b879a9697916152d48b92612489565b8310928361535b575b5050505f1461530657505050506001916152f691612357565b935b9050845f8088818b8f6152b6565b61532d95508361534e575b505050615336575b836139ef876153278c613e55565b93612357565b60015f936152f8565b61534984846153448c613e55565b613f63565b615319565b16141590505f8881615311565b61ffff9293506153779161537161525b92612344565b9061231c565b1614888d8b6152dd565b5083831615156152b1565b50509350906153a161526361525b868961231c565b10615445576153b661526361525b858861231c565b608e549091906153ce906001600160a01b0316610661565b6040516364faa15960e01b8152306004820152602481018490525f60448201819052909591869060649082905afa948515610704578a61529f610b6a8661391f60806152869b8f975f9161542c575b5001519a505050505090615271565b61543f913d8091833e6125f68183610df5565b5f61541d565b604051639fda363d60e01b8152600490fd5b604051633d04bd1f60e01b8152600490fd5b6096549094506001600160a01b031680851615615487575b936151f7565b5061549182613e55565b615481565b506154aa6154a4828561273d565b90612780565b63f6de42df60e01b916001600160e01b0319916154c691612791565b16146151c0565b6040516301e73e1760e61b8152600490fd5b91906040838203126103ab5782516001600160401b0381116103ab57602091612b389185016133e6565b92919060608401908452602090606082860152825180915281608086019301915f5b82811061553f575050505060405f91930152565b835161ffff168552938101939281019260010161552b565b608e5492939261556f906001600160a01b0316610661565b6040805163eaa19ab360e01b8152955f94919285908890818381615597888b60048401615509565b03925af18015610704578597869161562f575b50968051955b8681106155c05750505050505050565b806155cd6001928461231c565b516155d881866145e4565b61ffff6155e861525b848961231c565b88518a815233602082015260a086901b86900388169391909216917f598baf7bf150ca2f42be9e9f8f55e81d45f5715c3ff22bf46d697fabec7f31d690604090a4016155b0565b905061564e9197503d8087833e6156468183610df5565b8101906154df565b9690965f6155aa565b6007546001600160a01b0316330361566b57565b606460405162461bcd60e51b815260206004820152602060248201527f4f776e61626c653a2063616c6c6572206973206e6f7420746865206f776e65726044820152fd5b600780546001600160a01b039283166001600160a01b0319821681179092559091167f8be0079c531659141344cd1fd0a4f28419497f9722a3daafe3b4186f6b6457e05f80a3565b90438110156157ae5761570990615aae565b8154905f63ffffffff8092165b83821061575c57505050806157355750505f5b6001600160e01b031690565b6157579161574561575092612489565b905f5260205f200190565b5460201c90565b615729565b9091928083169080841860011c820180921161235257855f52828561578b8460205f200163ffffffff90541690565b16111561579c5750925b9190615716565b9392506157a890612344565b91615795565b606460405162461bcd60e51b815260206004820152602060248201527f436865636b706f696e74733a20626c6f636b206e6f7420796574206d696e65646044820152fd5b6001600160e01b03929183615806836158b4565b169081018091116123525761581a43615aae565b918482116158375784928361583093169161599b565b9316921690565b60405162461bcd60e51b815260206004820152602760248201527f53616665436173743a2076616c756520646f65736e27742066697420696e20326044820152663234206269747360c81b6064820152608490fd5b6001600160e01b039291836158a0836158b4565b169081039081116123525761581a43615aae565b80545f91816158c4575050505f90565b5f199282848101116123525760209181522001015460201c90565b90815468010000000000000000811015610dc15760018101808455811015612317575f92835260209283902082519284015190931b63ffffffff191663ffffffff9290921691909117910155565b9060405161593a81610da6565b602081935463ffffffff81168352811c910152565b1561595657565b60405162461bcd60e51b815260206004820152601b60248201527f436865636b706f696e743a2064656372656173696e67206b65797300000000006044820152606490fd5b909291928382548015155f14615a84579260209291846159d36159ce6159c36129a798612489565b855f5260205f200190565b61592d565b936159e2855163ffffffff1690565b6159f963ffffffff9182841692839116111561594f565b615a13615a0a875163ffffffff1690565b63ffffffff1690565b03615a4e5750615a4092615745615a2992612489565b9063ffffffff82549181199060201b169116179055565b01516001600160e01b031690565b915050615a7f91615a6c615a60610e36565b63ffffffff9093168352565b6001600160e01b038816828601526158df565b615a40565b5050615aa991615a95615a60610e36565b6001600160e01b03851660208301526158df565b5f9190565b63ffffffff90818111615abf571690565b60405162461bcd60e51b815260206004820152602660248201527f53616665436173743a2076616c756520646f65736e27742066697420696e203360448201526532206269747360d01b6064820152608490fd5b91905f1981840981840291828083109203918083039214615b9557670de0b6b3a76400009081831015615b77577faccb18165bd6fe31ae1cf318dc5b51eee0e1ba569b88cd74c1773b91fac1066994950990828211900360ee1b910360121c170290565b6044838360405191631dcf306360e21b835260048301526024820152fd5b5050670de0b6b3a764000090049150565b90915f198383099280830292838086109503948086039514615c3c5782851015615c1c579082910960018219018216809204600280826003021880830282030280830282030280830282030280830282030280830282030280920290030293600183805f03040190848311900302920304170290565b604051631dcf306360e21b81526004810186905260248101849052604490fd5b50509061051f92506124b556fea2646970667358221220174c34e3af03ea3dbfcadb02d5fe4760092e9492add014e44989aa3caf8b6d7e64736f6c63430008140033","linkReferences":{}},"methodIdentifiers":{"TOTAL_REDEMPTION_WEIGHT()":"640abacd","amountRedeemed()":"27f6e979","approve(address,uint256)":"095ea7b3","balanceOf(address)":"70a08231","baseProtocolToken()":"1417f9f6","baseURI()":"6c0360eb","codeOrigin()":"1d153ca4","contractURI()":"e8a3d485","defaultAttestationDelegate()":"7f989887","defifaToken()":"3b2b8a78","didPay((address,uint256,uint256,(address,uint256,uint256,uint256),(address,uint256,uint256,uint256),uint256,address,bool,string,bytes))":"da9ee8b7","didRedeem((address,uint256,uint256,uint256,(address,uint256,uint256,uint256),(address,uint256,uint256,uint256),address,string,bytes))":"2b13c58f","directory()":"c41c2f24","firstOwnerOf(uint256)":"54c6d1f5","fundingCycleStore()":"557e7155","gamePhaseReporter()":"a0b6490c","gamePotReporter()":"7245d80c","getApproved(uint256)":"081812fc","getPastTierAttestationUnitsOf(address,uint256,uint256)":"ea1c1b25","getPastTierTotalAttestationUnitsOf(uint256,uint256)":"d9119f5f","getTierAttestationUnitsOf(address,uint256)":"c3c69a96","getTierDelegateOf(address,uint256)":"9c8c6cd5","getTierTotalAttestationUnitsOf(uint256)":"f7623b81","initialize(uint256,address,string,string,address,string,address,string,(uint104,uint32,uint32,uint16,address,bytes32,uint24,bool,bool,bool,bool)[],uint48,address,address,address,address,string[])":"3900c6f9","isApprovedForAll(address,address)":"e985e9c5","mintReservesFor((uint256,uint256)[])":"2a596e53","mintReservesFor(uint256,uint256)":"aa4fb15b","name()":"06fdde03","owner()":"8da5cb5b","ownerOf(uint256)":"6352211e","payParams((address,address,(address,uint256,uint256,uint256),uint256,uint256,address,uint256,uint256,string,bytes))":"d46cf171","pricingCurrency()":"64640c1e","projectId()":"3fafa127","redeemParams((address,address,uint256,uint256,uint256,uint256,uint256,(address,uint256,uint256,uint256),bool,uint256,string,bytes))":"a51cfd18","redemptionWeightIsSet()":"a8c15f4a","redemptionWeightOf(uint256)":"4f228e11","redemptionWeightOf(uint256[],(address,address,uint256,uint256,uint256,uint256,uint256,(address,uint256,uint256,uint256),bool,uint256,string,bytes))":"7ba62bf9","renounceOwnership()":"715018a6","safeTransferFrom(address,address,uint256)":"42842e0e","safeTransferFrom(address,address,uint256,bytes)":"b88d4fde","setApprovalForAll(address,bool)":"a22cb465","setTierDelegateTo(address,uint256)":"07405b24","setTierDelegatesTo((address,uint256)[])":"c90f5126","setTierRedemptionWeightsTo((uint256,uint256)[])":"fadd72b7","store()":"975057e7","supportsInterface(bytes4)":"01ffc9a7","symbol()":"95d89b41","tierNameOf(uint256)":"1baabc3e","tierRedemptionWeights()":"9df45468","tokenAllocations()":"92eb1641","tokenURI(uint256)":"c87b56dd","tokensClaimableFor(uint256[])":"cb7043f7","tokensRedeemedFrom(uint256)":"743682b5","totalRedemptionWeight((address,address,uint256,uint256,uint256,uint256,uint256,(address,uint256,uint256,uint256),bool,uint256,string,bytes))":"9494bf72","transferFrom(address,address,uint256)":"23b872dd","transferOwnership(address)":"f2fde38b"},"storageLayout":{"storage":[{"astId":2998,"contract":"contracts/DefifaDelegate.sol:DefifaDelegate","label":"_name","offset":0,"slot":"0","type":"t_string_storage"},{"astId":3000,"contract":"contracts/DefifaDelegate.sol:DefifaDelegate","label":"_symbol","offset":0,"slot":"1","type":"t_string_storage"},{"astId":3004,"contract":"contracts/DefifaDelegate.sol:DefifaDelegate","label":"_owners","offset":0,"slot":"2","type":"t_mapping(t_uint256,t_address)"},{"astId":3008,"contract":"contracts/DefifaDelegate.sol:DefifaDelegate","label":"_tokenApprovals","offset":0,"slot":"3","type":"t_mapping(t_uint256,t_address)"},{"astId":3014,"contract":"contracts/DefifaDelegate.sol:DefifaDelegate","label":"_operatorApprovals","offset":0,"slot":"4","type":"t_mapping(t_address,t_mapping(t_address,t_bool))"},{"astId":3824,"contract":"contracts/DefifaDelegate.sol:DefifaDelegate","label":"projectId","offset":0,"slot":"5","type":"t_uint256"},{"astId":3829,"contract":"contracts/DefifaDelegate.sol:DefifaDelegate","label":"directory","offset":0,"slot":"6","type":"t_contract(IJBDirectory)4992"},{"astId":6457,"contract":"contracts/DefifaDelegate.sol:DefifaDelegate","label":"_owner","offset":0,"slot":"7","type":"t_address"},{"astId":108,"contract":"contracts/DefifaDelegate.sol:DefifaDelegate","label":"_tierRedemptionWeights","offset":0,"slot":"8","type":"t_array(t_uint256)128_storage"},{"astId":115,"contract":"contracts/DefifaDelegate.sol:DefifaDelegate","label":"_tierDelegation","offset":0,"slot":"136","type":"t_mapping(t_address,t_mapping(t_uint256,t_address))"},{"astId":123,"contract":"contracts/DefifaDelegate.sol:DefifaDelegate","label":"_delegateTierCheckpoints","offset":0,"slot":"137","type":"t_mapping(t_address,t_mapping(t_uint256,t_struct(History)7160_storage))"},{"astId":129,"contract":"contracts/DefifaDelegate.sol:DefifaDelegate","label":"_totalTierCheckpoints","offset":0,"slot":"138","type":"t_mapping(t_uint256,t_struct(History)7160_storage)"},{"astId":132,"contract":"contracts/DefifaDelegate.sol:DefifaDelegate","label":"_packedTokenAllocation","offset":0,"slot":"139","type":"t_uint256"},{"astId":137,"contract":"contracts/DefifaDelegate.sol:DefifaDelegate","label":"_firstOwnerOf","offset":0,"slot":"140","type":"t_mapping(t_uint256,t_address)"},{"astId":142,"contract":"contracts/DefifaDelegate.sol:DefifaDelegate","label":"_tierNameOf","offset":0,"slot":"141","type":"t_mapping(t_uint256,t_string_storage)"},{"astId":161,"contract":"contracts/DefifaDelegate.sol:DefifaDelegate","label":"store","offset":0,"slot":"142","type":"t_contract(IJBTiered721DelegateStore)4646"},{"astId":166,"contract":"contracts/DefifaDelegate.sol:DefifaDelegate","label":"fundingCycleStore","offset":0,"slot":"143","type":"t_contract(IJBFundingCycleStore)5153"},{"astId":171,"contract":"contracts/DefifaDelegate.sol:DefifaDelegate","label":"gamePhaseReporter","offset":0,"slot":"144","type":"t_contract(IDefifaGamePhaseReporter)2914"},{"astId":176,"contract":"contracts/DefifaDelegate.sol:DefifaDelegate","label":"gamePotReporter","offset":0,"slot":"145","type":"t_contract(IDefifaGamePotReporter)2937"},{"astId":180,"contract":"contracts/DefifaDelegate.sol:DefifaDelegate","label":"pricingCurrency","offset":0,"slot":"146","type":"t_uint256"},{"astId":184,"contract":"contracts/DefifaDelegate.sol:DefifaDelegate","label":"redemptionWeightIsSet","offset":0,"slot":"147","type":"t_bool"},{"astId":188,"contract":"contracts/DefifaDelegate.sol:DefifaDelegate","label":"baseURI","offset":0,"slot":"148","type":"t_string_storage"},{"astId":192,"contract":"contracts/DefifaDelegate.sol:DefifaDelegate","label":"contractURI","offset":0,"slot":"149","type":"t_string_storage"},{"astId":196,"contract":"contracts/DefifaDelegate.sol:DefifaDelegate","label":"defaultAttestationDelegate","offset":0,"slot":"150","type":"t_address"},{"astId":200,"contract":"contracts/DefifaDelegate.sol:DefifaDelegate","label":"amountRedeemed","offset":0,"slot":"151","type":"t_uint256"},{"astId":206,"contract":"contracts/DefifaDelegate.sol:DefifaDelegate","label":"tokensRedeemedFrom","offset":0,"slot":"152","type":"t_mapping(t_uint256,t_uint256)"}],"types":{"t_address":{"encoding":"inplace","label":"address","numberOfBytes":"20"},"t_array(t_struct(Checkpoint)7165_storage)dyn_storage":{"encoding":"dynamic_array","label":"struct Checkpoints.Checkpoint[]","numberOfBytes":"32","base":"t_struct(Checkpoint)7165_storage"},"t_array(t_uint256)128_storage":{"encoding":"inplace","label":"uint256[128]","numberOfBytes":"4096","base":"t_uint256"},"t_bool":{"encoding":"inplace","label":"bool","numberOfBytes":"1"},"t_contract(IDefifaGamePhaseReporter)2914":{"encoding":"inplace","label":"contract IDefifaGamePhaseReporter","numberOfBytes":"20"},"t_contract(IDefifaGamePotReporter)2937":{"encoding":"inplace","label":"contract IDefifaGamePotReporter","numberOfBytes":"20"},"t_contract(IJBDirectory)4992":{"encoding":"inplace","label":"contract IJBDirectory","numberOfBytes":"20"},"t_contract(IJBFundingCycleStore)5153":{"encoding":"inplace","label":"contract IJBFundingCycleStore","numberOfBytes":"20"},"t_contract(IJBTiered721DelegateStore)4646":{"encoding":"inplace","label":"contract IJBTiered721DelegateStore","numberOfBytes":"20"},"t_mapping(t_address,t_bool)":{"encoding":"mapping","key":"t_address","label":"mapping(address => bool)","numberOfBytes":"32","value":"t_bool"},"t_mapping(t_address,t_mapping(t_address,t_bool))":{"encoding":"mapping","key":"t_address","label":"mapping(address => mapping(address => bool))","numberOfBytes":"32","value":"t_mapping(t_address,t_bool)"},"t_mapping(t_address,t_mapping(t_uint256,t_address))":{"encoding":"mapping","key":"t_address","label":"mapping(address => mapping(uint256 => address))","numberOfBytes":"32","value":"t_mapping(t_uint256,t_address)"},"t_mapping(t_address,t_mapping(t_uint256,t_struct(History)7160_storage))":{"encoding":"mapping","key":"t_address","label":"mapping(address => mapping(uint256 => struct Checkpoints.History))","numberOfBytes":"32","value":"t_mapping(t_uint256,t_struct(History)7160_storage)"},"t_mapping(t_uint256,t_address)":{"encoding":"mapping","key":"t_uint256","label":"mapping(uint256 => address)","numberOfBytes":"32","value":"t_address"},"t_mapping(t_uint256,t_string_storage)":{"encoding":"mapping","key":"t_uint256","label":"mapping(uint256 => string)","numberOfBytes":"32","value":"t_string_storage"},"t_mapping(t_uint256,t_struct(History)7160_storage)":{"encoding":"mapping","key":"t_uint256","label":"mapping(uint256 => struct Checkpoints.History)","numberOfBytes":"32","value":"t_struct(History)7160_storage"},"t_mapping(t_uint256,t_uint256)":{"encoding":"mapping","key":"t_uint256","label":"mapping(uint256 => uint256)","numberOfBytes":"32","value":"t_uint256"},"t_string_storage":{"encoding":"bytes","label":"string","numberOfBytes":"32"},"t_struct(Checkpoint)7165_storage":{"encoding":"inplace","label":"struct Checkpoints.Checkpoint","numberOfBytes":"32","members":[{"astId":7162,"contract":"contracts/DefifaDelegate.sol:DefifaDelegate","label":"_blockNumber","offset":0,"slot":"0","type":"t_uint32"},{"astId":7164,"contract":"contracts/DefifaDelegate.sol:DefifaDelegate","label":"_value","offset":4,"slot":"0","type":"t_uint224"}]},"t_struct(History)7160_storage":{"encoding":"inplace","label":"struct Checkpoints.History","numberOfBytes":"32","members":[{"astId":7159,"contract":"contracts/DefifaDelegate.sol:DefifaDelegate","label":"_checkpoints","offset":0,"slot":"0","type":"t_array(t_struct(Checkpoint)7165_storage)dyn_storage"}]},"t_uint224":{"encoding":"inplace","label":"uint224","numberOfBytes":"28"},"t_uint256":{"encoding":"inplace","label":"uint256","numberOfBytes":"32"},"t_uint32":{"encoding":"inplace","label":"uint32","numberOfBytes":"4"}}},"id":0}