{"abi":[{"type":"constructor","inputs":[{"name":"_controller","type":"address","internalType":"contract IJBController3_1"},{"name":"__blockTime","type":"uint256","internalType":"uint256"}],"stateMutability":"nonpayable"},{"type":"function","name":"MAX_ATTESTATION_POWER_TIER","inputs":[],"outputs":[{"name":"","type":"uint256","internalType":"uint256"}],"stateMutability":"view"},{"type":"function","name":"attestToScorecardFrom","inputs":[{"name":"_gameId","type":"uint256","internalType":"uint256"},{"name":"_scorecardId","type":"uint256","internalType":"uint256"}],"outputs":[{"name":"weight","type":"uint256","internalType":"uint256"}],"stateMutability":"nonpayable"},{"type":"function","name":"attestationCountOf","inputs":[{"name":"_gameId","type":"uint256","internalType":"uint256"},{"name":"_scorecardId","type":"uint256","internalType":"uint256"}],"outputs":[{"name":"","type":"uint256","internalType":"uint256"}],"stateMutability":"view"},{"type":"function","name":"attestationGracePeriodOf","inputs":[{"name":"_gameId","type":"uint256","internalType":"uint256"}],"outputs":[{"name":"","type":"uint256","internalType":"uint256"}],"stateMutability":"view"},{"type":"function","name":"attestationStartTimeOf","inputs":[{"name":"_gameId","type":"uint256","internalType":"uint256"}],"outputs":[{"name":"","type":"uint256","internalType":"uint256"}],"stateMutability":"view"},{"type":"function","name":"controller","inputs":[],"outputs":[{"name":"","type":"address","internalType":"contract IJBController3_1"}],"stateMutability":"view"},{"type":"function","name":"defaultAttestationDelegateProposalOf","inputs":[{"name":"","type":"uint256","internalType":"uint256"}],"outputs":[{"name":"","type":"uint256","internalType":"uint256"}],"stateMutability":"view"},{"type":"function","name":"getAttestationWeight","inputs":[{"name":"_gameId","type":"uint256","internalType":"uint256"},{"name":"_account","type":"address","internalType":"address"},{"name":"_blockNumber","type":"uint256","internalType":"uint256"}],"outputs":[{"name":"attestationPower","type":"uint256","internalType":"uint256"}],"stateMutability":"view"},{"type":"function","name":"hasAttestedTo","inputs":[{"name":"_gameId","type":"uint256","internalType":"uint256"},{"name":"_scorecardId","type":"uint256","internalType":"uint256"},{"name":"_account","type":"address","internalType":"address"}],"outputs":[{"name":"","type":"bool","internalType":"bool"}],"stateMutability":"view"},{"type":"function","name":"initializeGame","inputs":[{"name":"_gameId","type":"uint256","internalType":"uint256"},{"name":"_attestationStartTime","type":"uint256","internalType":"uint256"},{"name":"_attestationGracePeriod","type":"uint256","internalType":"uint256"}],"outputs":[],"stateMutability":"nonpayable"},{"type":"function","name":"owner","inputs":[],"outputs":[{"name":"","type":"address","internalType":"address"}],"stateMutability":"view"},{"type":"function","name":"quorum","inputs":[{"name":"_gameId","type":"uint256","internalType":"uint256"}],"outputs":[{"name":"","type":"uint256","internalType":"uint256"}],"stateMutability":"view"},{"type":"function","name":"ratifiedScorecardIdOf","inputs":[{"name":"","type":"uint256","internalType":"uint256"}],"outputs":[{"name":"","type":"uint256","internalType":"uint256"}],"stateMutability":"view"},{"type":"function","name":"ratifyScorecardFrom","inputs":[{"name":"_gameId","type":"uint256","internalType":"uint256"},{"name":"_tierWeights","type":"tuple[]","internalType":"struct DefifaTierRedemptionWeight[]","components":[{"name":"id","type":"uint256","internalType":"uint256"},{"name":"redemptionWeight","type":"uint256","internalType":"uint256"}]}],"outputs":[{"name":"scorecardId","type":"uint256","internalType":"uint256"}],"stateMutability":"nonpayable"},{"type":"function","name":"renounceOwnership","inputs":[],"outputs":[],"stateMutability":"nonpayable"},{"type":"function","name":"scorecardIdOf","inputs":[{"name":"_gameDelegate","type":"address","internalType":"address"},{"name":"_tierWeights","type":"tuple[]","internalType":"struct DefifaTierRedemptionWeight[]","components":[{"name":"id","type":"uint256","internalType":"uint256"},{"name":"redemptionWeight","type":"uint256","internalType":"uint256"}]}],"outputs":[{"name":"","type":"uint256","internalType":"uint256"}],"stateMutability":"pure"},{"type":"function","name":"stateOf","inputs":[{"name":"_gameId","type":"uint256","internalType":"uint256"},{"name":"_scorecardId","type":"uint256","internalType":"uint256"}],"outputs":[{"name":"","type":"uint8","internalType":"enum DefifaScorecardState"}],"stateMutability":"view"},{"type":"function","name":"submitScorecardFor","inputs":[{"name":"_gameId","type":"uint256","internalType":"uint256"},{"name":"_tierWeights","type":"tuple[]","internalType":"struct DefifaTierRedemptionWeight[]","components":[{"name":"id","type":"uint256","internalType":"uint256"},{"name":"redemptionWeight","type":"uint256","internalType":"uint256"}]}],"outputs":[{"name":"scorecardId","type":"uint256","internalType":"uint256"}],"stateMutability":"nonpayable"},{"type":"function","name":"transferOwnership","inputs":[{"name":"newOwner","type":"address","internalType":"address"}],"outputs":[],"stateMutability":"nonpayable"},{"type":"event","name":"GameInitialized","inputs":[{"name":"gameId","type":"uint256","indexed":true,"internalType":"uint256"},{"name":"attestationStartTime","type":"uint256","indexed":false,"internalType":"uint256"},{"name":"attestationGracePeriod","type":"uint256","indexed":false,"internalType":"uint256"},{"name":"caller","type":"address","indexed":false,"internalType":"address"}],"anonymous":false},{"type":"event","name":"OwnershipTransferred","inputs":[{"name":"previousOwner","type":"address","indexed":true,"internalType":"address"},{"name":"newOwner","type":"address","indexed":true,"internalType":"address"}],"anonymous":false},{"type":"event","name":"ScorecardAttested","inputs":[{"name":"gameId","type":"uint256","indexed":true,"internalType":"uint256"},{"name":"scorecardId","type":"uint256","indexed":true,"internalType":"uint256"},{"name":"weight","type":"uint256","indexed":false,"internalType":"uint256"},{"name":"caller","type":"address","indexed":false,"internalType":"address"}],"anonymous":false},{"type":"event","name":"ScorecardRatified","inputs":[{"name":"gameId","type":"uint256","indexed":true,"internalType":"uint256"},{"name":"scorecardId","type":"uint256","indexed":true,"internalType":"uint256"},{"name":"caller","type":"address","indexed":false,"internalType":"address"}],"anonymous":false},{"type":"event","name":"ScorecardSubmitted","inputs":[{"name":"gameId","type":"uint256","indexed":true,"internalType":"uint256"},{"name":"scorecardId","type":"uint256","indexed":true,"internalType":"uint256"},{"name":"tierWeights","type":"tuple[]","indexed":false,"internalType":"struct DefifaTierRedemptionWeight[]","components":[{"name":"id","type":"uint256","internalType":"uint256"},{"name":"redemptionWeight","type":"uint256","internalType":"uint256"}]},{"name":"isDefaultAttestationDelegate","type":"bool","indexed":false,"internalType":"bool"},{"name":"caller","type":"address","indexed":false,"internalType":"address"}],"anonymous":false},{"type":"error","name":"ALREADY_ATTESTED","inputs":[]},{"type":"error","name":"ALREADY_RATIFIED","inputs":[]},{"type":"error","name":"DUPLICATE_SCORECARD","inputs":[]},{"type":"error","name":"GAME_NOT_FOUND","inputs":[]},{"type":"error","name":"INCORRECT_TIER_ORDER","inputs":[]},{"type":"error","name":"NOT_ALLOWED","inputs":[]},{"type":"error","name":"PRBMath__MulDivOverflow","inputs":[{"name":"prod1","type":"uint256","internalType":"uint256"},{"name":"denominator","type":"uint256","internalType":"uint256"}]},{"type":"error","name":"UNKNOWN_PROPOSAL","inputs":[]},{"type":"error","name":"UNOWNED_PROPOSED_REDEMPTION_VALUE","inputs":[]}],"bytecode":{"object":"0x60c0346100d157601f611c1638819003918201601f19168301916001600160401b038311848410176100d55780849260409485528339810103126100d15780516001600160a01b039182821682036100d15760200151905f543360018060a01b03198216175f55604051933391167f8be0079c531659141344cd1fd0a4f28419497f9722a3daafe3b4186f6b6457e05f80a360a052608052611b2c90816100ea823960805181610804015260a051818181610194015281816103780152818161072e0152818161140f01526116740152f35b5f80fd5b634e487b7160e01b5f52604160045260245ffdfe6080806040526004361015610012575f80fd5b5f3560e01c908163222e143b14610d9d575080632511642914610c9c5780633d0908b414610c66578063517a618014610c48578063715018a614610bf15780638da5cb5b14610bca57806391fb2e9814610b975780639234799114610b3a578063b7e8f6da146106dc578063c543882f14610661578063ce1e82d514610330578063d826e89914610301578063deec0bb0146102b3578063f0a92a1e14610289578063f2fde38b146101c3578063f77c47911461017f578063f80c73a114610155578063f8ce560a1461012f5763f94633fb146100ed575f80fd5b3461012b576101046100fe36610dcb565b90610eaf565b6040516005821015610117576020918152f35b634e487b7160e01b5f52602160045260245ffd5b5f80fd5b3461012b57602036600319011261012b57602061014d6004356113df565b604051908152f35b3461012b57602036600319011261012b576004355f526004602052602060405f2054604051908152f35b3461012b575f36600319011261012b576040517f00000000000000000000000000000000000000000000000000000000000000006001600160a01b03168152602090f35b3461012b57602036600319011261012b576101dc610de1565b6101e46119b5565b6001600160a01b03908116908115610235575f54826bffffffffffffffffffffffff60a01b8216175f55167f8be0079c531659141344cd1fd0a4f28419497f9722a3daafe3b4186f6b6457e05f80a3005b60405162461bcd60e51b815260206004820152602660248201527f4f776e61626c653a206e6577206f776e657220697320746865207a65726f206160448201526564647265737360d01b6064820152608490fd5b3461012b57602036600319011261012b576004355f526005602052602060405f2054604051908152f35b3461012b57604036600319011261012b576102cc610de1565b60243567ffffffffffffffff811161012b576020916102fb6102f561014d933690600401610df7565b90611920565b90611982565b3461012b5761030f36610dcb565b905f52600260205260405f20905f52602052602060405f2054604051908152f35b3461012b5761033e36610e28565b9190815f526020916005835260405f205461064f57604051638776c49960e01b8152600481018290526024946103a0936001600160a01b037f00000000000000000000000000000000000000000000000000000000000000008116939092919086818a81885afa968715610559575f97610612575b5050610200916103c291611920565b9401936103d28183875116611982565b946103dd8686610eaf565b60058110156105ff576003036105ed575f9183839287845260058a528860408520555116828983519301915af13d156105e5573d9061041b82611277565b916104296040519384610e8d565b82523d5f8884013e5b604051936040850167ffffffffffffffff95808210878311176105d2576004948a9461047993604052600d83526c10905117d4d0d3d49150d05491609a1b86840152611a0c565b506040516322de550f60e21b815292839182905afa90811561055957829187915f91610599575b5088604051809481936331a9108f60e11b8352896004840152165afa908115610559575f91610564575b501690813b1561012b575f80928760405180958193635b33a66f60e11b83528860048401525af1801561055957610531575b505081907f47c473fdeacbc61881306133d8e38075619b3cfed85b1a2c9552ddd3a788dc2f84604051338152a3604051908152f35b811161054657829394506040528392856104fc565b84634e487b7160e01b5f5260416004525ffd5b6040513d5f823e3d90fd5b90508581813d8311610592575b61057b8183610e8d565b8101031261012b5761058c90610fad565b876104ca565b503d610571565b92505081813d83116105cb575b6105b08183610e8d565b8101031261012b5751818116810361012b57858291896104a0565b503d6105a6565b8a634e487b7160e01b5f5260416004525ffd5b606090610432565b604051634ae18d2b60e11b8152600490fd5b88634e487b7160e01b5f5260216004525ffd5b6103c292975061020093918161063c92903d10610648575b6106348183610e8d565b810190610fc1565b905096918193506103b3565b503d61062a565b60405163e63e122560e01b8152600490fd5b3461012b57606036600319011261012b576004357f8134704271052dad7aa04d6ab4df63250a5f2aa4639fcc0d0ddb74cb0edf864760606024356044356106a66119b5565b81156106d4575b845f5260036020528060301b821760405f20556040519182526020820152336040820152a2005b4291506106ad565b3461012b576106ea36610e28565b9091805f52600560205260405f205461064f57805f52600360205260405f205415610b2857604051638776c49960e01b8152600481018290526103a09081816024817f00000000000000000000000000000000000000000000000000000000000000006001600160a01b03165afa918215610559575f92610b09575b5050610770611212565b505f5b8381106109d9575061020001805190929061079b906001600160a01b03166102fb8387611920565b92825f52600160205260405f20845f5260205260405f209081549165ffffffffffff928381166109c757855f5260036020528360405f2054168042115f14610987575090602092916004946bffffffffffff00000000000061086361082a5f935b61083061082a7f000000000000000000000000000000000000000000000000000000000000000080976113c1565b4361126a565b16938465ffffffffffff19871617875561085e8c5f52600360205265ffffffffffff60405f205460301c1690565b6113c1565b60301b16916bffffffffffffffffffffffff19161717905560018060a01b0390511660405192838092637f98988760e01b82525afa908115610559575f9161091f575b506020948493927fa8529171c1868e465ad2895d671a738ffb5f0764bd6dffd13339152af5c5f3a0926001600160a01b031633148061090d575b6108f76040519384936060855260608501916118e2565b90888301523360408301520390a3604051908152f35b845f52600488528560405f20556108e0565b90506020929192813d60201161097f575b8161093d60209383610e8d565b8101031261012b5760209484936109747fa8529171c1868e465ad2895d671a738ffb5f0764bd6dffd13339152af5c5f3a093610fad565b9250929350946108a6565b3d9150610930565b9291904284039384116109b3576004946bffffffffffff00000000000061086361082a602097936107fc565b634e487b7160e01b5f52601160045260245ffd5b604051630440a45760e41b8152600490fd5b61020082015160405163975057e760e01b815290602090829060049082906001600160a01b03165afa908115610559575f91610ada575b506102008301515f906001600160a01b03166064610a2f85898b6118be565b6040516364faa15960e01b8152600481019390935235602483015260448201839052909283919082906001600160a01b03165afa908115610559575f91610ab8575b50604060608201519101511480610aa1575b610a8f57600101610773565b60405163d1f78be360e01b8152600490fd5b506020610aaf8286886118be565b01351515610a83565b610ad491503d805f833e610acc8183610e8d565b8101906112b4565b86610a71565b610afc915060203d602011610b02575b610af48183610e8d565b8101906111f3565b86610a10565b503d610aea565b610b1f9250803d10610648576106348183610e8d565b90508480610766565b604051633f45d9c960e21b8152600490fd5b3461012b57606036600319011261012b576044356001600160a01b0381169081900361012b576004355f52600260205260405f206024355f52602052600160405f2001905f52602052602060ff60405f2054166040519015158152f35b3461012b57602036600319011261012b57602061014d6004355f52600360205265ffffffffffff60405f205460301c1690565b3461012b575f36600319011261012b575f546040516001600160a01b039091168152602090f35b3461012b575f36600319011261012b57610c096119b5565b5f80546001600160a01b0319811682556001600160a01b03167f8be0079c531659141344cd1fd0a4f28419497f9722a3daafe3b4186f6b6457e08280a3005b3461012b575f36600319011261012b576020604051633b9aca008152f35b3461012b57606036600319011261012b576024356001600160a01b038116810361012b5761014d6020916044359060043561163f565b3461012b57610caa36610dcb565b90805f526020916001835260405f20815f52835260405f2091610ccd8282610eaf565b60058110156101175760018114159081610d91575b506105ed57805f526002845260405f20825f52845260405f20926001840190335f5281865260ff60405f205416610d7f5765ffffffffffff610d27915416338461163f565b93610d3385825461126a565b9055335f52845260405f20600160ff198254161790557fc49d39a4ac0db2fda0e72ce3ff9d5ee27f409cecd8fa183fd8bf36a05f9c788d604080518581523387820152a3604051908152f35b60405163944e4a3160e01b8152600490fd5b60039150141585610ce2565b3461012b57602036600319011261012b576020906004355f526003825265ffffffffffff60405f2054168152f35b604090600319011261012b576004359060243590565b600435906001600160a01b038216820361012b57565b9181601f8401121561012b5782359167ffffffffffffffff831161012b576020808501948460061b01011161012b57565b90604060031983011261012b57600435916024359067ffffffffffffffff821161012b57610e5891600401610df7565b9091565b610180810190811067ffffffffffffffff821117610e7957604052565b634e487b7160e01b5f52604160045260245ffd5b90601f8019910116810190811067ffffffffffffffff821117610e7957604052565b5f91818352602090600582526040918285205480610f88575060018152828520828652815282852083519084820182811067ffffffffffffffff821117610f74578552549065ffffffffffff90818316808252828583019460301c16845215610f6357518116431115610f5a57439151161015610f5057610f2f846113df565b93855260028152828520918552529091205410610f4b57600390565b600190565b5050505050600190565b50505050505090565b855163eb24c39f60e01b8152600490fd5b634e487b7160e01b88526041600452602488fd5b93505092905050145f14610f9b57600490565b600290565b5190811515820361012b57565b51906001600160a01b038216820361012b57565b80929103916103a0831261012b57610120831261012b576040805167ffffffffffffffff929190610120810184811182821017610e7957825282518152602083015160208201528183015182820152606083015160608201526080830151608082015260a083015160a082015260c083015160c082015260e083015160018060a01b038116810361012b5760e08201526101008301516101008201529461011f1901610280811261012b57815193610240928386019286841083851117610e795760601361012b576102a09186830190811184821017610e795781526110aa6101208601610fa0565b83526101406110ba868201610fa0565b936102609485890152610160908188016110d390610fa0565b6102808a01528852610180918288015160208a01526101a09384890151908a01526101c0948589015160608b01526101e096878a0161111190610fa0565b60808c0152610200986111258b8b01610fa0565b60a08d01526111376102208c01610fa0565b60c08d01528a0161114790610fa0565b60e08c0152890161115790610fa0565b6101008b015261116a6102808a01610fa0565b6101208b0152880161117b90610fa0565b9089015261118c6102c08801610fa0565b9088015261119d6102e08701610fa0565b908701526111ae6103008601610fa0565b908601526111bf6103208501610fa0565b908501526111d06103408401610fa0565b908401526111e16103608301610fad565b90830152610380015161022082015290565b9081602091031261012b57516001600160a01b038116810361012b5790565b6040519061121f82610e5c565b6060610160835f80825280602083015280604083015280848301528060808301528060a08301528060c08301528060e083015280610100830152806101208301526101408201520152565b919082018092116109b357565b67ffffffffffffffff8111610e7957601f01601f191660200190565b5f5b8381106112a45750505f910152565b8181015183820152602001611295565b906020808383031261012b57825167ffffffffffffffff9384821161012b5701906101808284031261012b57604051936112ed85610e5c565b82518552818301518286015260408301516040860152606083015160608601526080830151608086015260a083015160a086015261132d60c08401610fad565b60c086015260e083015160e08601526101008084015190860152610120611355818501610fa0565b90860152610140611367818501610fa0565b90860152610160928381015191821161012b570183601f8201121561012b5780519061139282611277565b946113a06040519687610e8d565b82865283838301011161012b57826113bb9386019101611293565b82015290565b81156113cb570490565b634e487b7160e01b5f52601260045260245ffd5b60408051638776c49960e01b815260048082019390935290916001600160a01b0391602491906103a090818185817f000000000000000000000000000000000000000000000000000000000000000089165afa918215611584579061020092915f92611620575b5050019383855116948151908163975057e760e01b97888252818660209586935afa90811561161657928092918895945f916115f9575b50878684511686519a8b93849263f1bea54f60e01b84528b840152165afa9687156115ef575f976115bd575b506114b2611212565b505f97885b8881106114cd5750505050505050505060011c90565b8684878551168751928380928782525afa908115611584575f916115a0575b5086845116906001830180931161158e57899160648a8a5f94878c5197889687956364faa15960e01b8752860152840152856044840152165afa908115611584575f9161156b575b5085606082015191015110156114b75798633b9aca00810180911161155957986114b7565b87601188634e487b7160e01b5f52525ffd5b61157e913d8091833e610acc8183610e8d565b5f611534565b86513d5f823e3d90fd5b8960118a634e487b7160e01b5f52525ffd5b6115b79150853d8711610b0257610af48183610e8d565b5f6114ec565b90968282813d83116115e8575b6115d48183610e8d565b810103126115e5575051955f6114a9565b80fd5b503d6115ca565b83513d5f823e3d90fd5b6116109150823d8411610b0257610af48183610e8d565b5f61147d565b84513d5f823e3d90fd5b6116369250803d10610648576106348183610e8d565b90505f80611446565b60408051638776c49960e01b81526004808201939093525f95946001600160a01b039493602492889291906103a090818187817f00000000000000000000000000000000000000000000000000000000000000008d165afa9182156118b4579061020092918692611895575b5050019087825116928651809463975057e760e01b8252818460209788935afa90811561186e578a93929186918891611878575b5088858751168b519d8e93849263f1bea54f60e01b845288840152165afa998a1561186e57869a61183b575b50855b8a8110611722575050505050505050505050565b60018101809111611829578385511689519063ea1c1b2560e01b8252858c1685830152828a830152878260648160449488868301525afa9182156117f05789926117fa575b5081611775575b505061170e565b87839f9385928c918e8a8c51169051958694859363d9119f5f60e01b85528c8501528301525afa9081156117f05789916117bd575b506117b491611a50565b019b5f8061176e565b90508781813d83116117e9575b6117d48183610e8d565b810103126117e557516117b46117aa565b8880fd5b503d6117ca565b8b513d8b823e3d90fd5b9091508781813d8311611822575b6118128183610e8d565b810103126117e55751905f611767565b503d611808565b634e487b7160e01b8752601183528787fd5b9099508481813d8311611867575b6118538183610e8d565b810103126118635751985f61170b565b8580fd5b503d611849565b88513d88823e3d90fd5b61188f9150823d8411610b0257610af48183610e8d565b5f6116df565b6118ab9250803d10610648576106348183610e8d565b90505f806116ab565b87513d87823e3d90fd5b91908110156118ce5760061b0190565b634e487b7160e01b5f52603260045260245ffd5b9190808252602080920192915f905b8282106118ff575050505090565b833585528381013585820152604094850194909301926001909101906118f1565b9061195a9061194c60405193849263fadd72b760e01b60208501526020602485015260448401916118e2565b03601f198101835282610e8d565b90565b9060209161197681518092818552858086019101611293565b601f01601f1916010190565b906119af61194c91604051928391602083019560018060a01b03168652604080840152606083019061195d565b51902090565b5f546001600160a01b031633036119c857565b606460405162461bcd60e51b815260206004820152602060248201527f4f776e61626c653a2063616c6c6572206973206e6f7420746865206f776e65726044820152fd5b90919015611a18575090565b815115611a285750805190602001fd5b60405162461bcd60e51b815260206004820152908190611a4c90602483019061195d565b0390fd5b90633b9aca00905f198383099280830292838086109503948086039514611ae95782851015611acb579082910960018219018216809204600280826003021880830282030280830282030280830282030280830282030280830282030280920290030293600183805f03040190848311900302920304170290565b6044858460405191631dcf306360e21b835260048301526024820152fd5b50509061195a92506113c156fea2646970667358221220592bf7102d88d831c8940e2c5ae47ca101bad1aaabf357975e0967ef1b8bcff064736f6c63430008140033","linkReferences":{}},"methodIdentifiers":{"MAX_ATTESTATION_POWER_TIER()":"517a6180","attestToScorecardFrom(uint256,uint256)":"25116429","attestationCountOf(uint256,uint256)":"d826e899","attestationGracePeriodOf(uint256)":"91fb2e98","attestationStartTimeOf(uint256)":"222e143b","controller()":"f77c4791","defaultAttestationDelegateProposalOf(uint256)":"f80c73a1","getAttestationWeight(uint256,address,uint256)":"3d0908b4","hasAttestedTo(uint256,uint256,address)":"92347991","initializeGame(uint256,uint256,uint256)":"c543882f","owner()":"8da5cb5b","quorum(uint256)":"f8ce560a","ratifiedScorecardIdOf(uint256)":"f0a92a1e","ratifyScorecardFrom(uint256,(uint256,uint256)[])":"ce1e82d5","renounceOwnership()":"715018a6","scorecardIdOf(address,(uint256,uint256)[])":"deec0bb0","stateOf(uint256,uint256)":"f94633fb","submitScorecardFor(uint256,(uint256,uint256)[])":"b7e8f6da","transferOwnership(address)":"f2fde38b"},"id":2}