{"abi":[{"type":"constructor","inputs":[{"name":"_token","type":"address","internalType":"contract IERC20Metadata"},{"name":"_currency","type":"uint256","internalType":"uint256"},{"name":"_baseWeightCurrency","type":"uint256","internalType":"uint256"},{"name":"_payoutSplitsGroup","type":"uint256","internalType":"uint256"},{"name":"_operatorStore","type":"address","internalType":"contract IJBOperatorStore"},{"name":"_projects","type":"address","internalType":"contract IJBProjects"},{"name":"_directory","type":"address","internalType":"contract IJBDirectory"},{"name":"_splitsStore","type":"address","internalType":"contract IJBSplitsStore"},{"name":"_prices","type":"address","internalType":"contract IJBPrices"},{"name":"_store","type":"address","internalType":"contract IJBSingleTokenPaymentTerminalStore"},{"name":"_owner","type":"address","internalType":"address"}],"stateMutability":"nonpayable"},{"type":"function","name":"acceptsToken","inputs":[{"name":"_token","type":"address","internalType":"address"},{"name":"_projectId","type":"uint256","internalType":"uint256"}],"outputs":[{"name":"","type":"bool","internalType":"bool"}],"stateMutability":"view"},{"type":"function","name":"addToBalanceOf","inputs":[{"name":"_projectId","type":"uint256","internalType":"uint256"},{"name":"_amount","type":"uint256","internalType":"uint256"},{"name":"_token","type":"address","internalType":"address"},{"name":"_memo","type":"string","internalType":"string"},{"name":"_metadata","type":"bytes","internalType":"bytes"}],"outputs":[],"stateMutability":"payable"},{"type":"function","name":"baseWeightCurrency","inputs":[],"outputs":[{"name":"","type":"uint256","internalType":"uint256"}],"stateMutability":"view"},{"type":"function","name":"currency","inputs":[],"outputs":[{"name":"","type":"uint256","internalType":"uint256"}],"stateMutability":"view"},{"type":"function","name":"currencyForToken","inputs":[{"name":"_token","type":"address","internalType":"address"}],"outputs":[{"name":"","type":"uint256","internalType":"uint256"}],"stateMutability":"view"},{"type":"function","name":"currentEthOverflowOf","inputs":[{"name":"_projectId","type":"uint256","internalType":"uint256"}],"outputs":[{"name":"","type":"uint256","internalType":"uint256"}],"stateMutability":"view"},{"type":"function","name":"decimals","inputs":[],"outputs":[{"name":"","type":"uint256","internalType":"uint256"}],"stateMutability":"view"},{"type":"function","name":"decimalsForToken","inputs":[{"name":"_token","type":"address","internalType":"address"}],"outputs":[{"name":"","type":"uint256","internalType":"uint256"}],"stateMutability":"view"},{"type":"function","name":"directory","inputs":[],"outputs":[{"name":"","type":"address","internalType":"contract IJBDirectory"}],"stateMutability":"view"},{"type":"function","name":"distributePayoutsOf","inputs":[{"name":"_projectId","type":"uint256","internalType":"uint256"},{"name":"_amount","type":"uint256","internalType":"uint256"},{"name":"_currency","type":"uint256","internalType":"uint256"},{"name":"_token","type":"address","internalType":"address"},{"name":"_minReturnedTokens","type":"uint256","internalType":"uint256"},{"name":"_memo","type":"string","internalType":"string"}],"outputs":[{"name":"netLeftoverDistributionAmount","type":"uint256","internalType":"uint256"}],"stateMutability":"nonpayable"},{"type":"function","name":"fee","inputs":[],"outputs":[{"name":"","type":"uint256","internalType":"uint256"}],"stateMutability":"view"},{"type":"function","name":"feeGauge","inputs":[],"outputs":[{"name":"","type":"address","internalType":"contract IJBFeeGauge"}],"stateMutability":"view"},{"type":"function","name":"heldFeesOf","inputs":[{"name":"_projectId","type":"uint256","internalType":"uint256"}],"outputs":[{"name":"","type":"tuple[]","internalType":"struct JBFee[]","components":[{"name":"amount","type":"uint256","internalType":"uint256"},{"name":"fee","type":"uint32","internalType":"uint32"},{"name":"feeDiscount","type":"uint32","internalType":"uint32"},{"name":"beneficiary","type":"address","internalType":"address"}]}],"stateMutability":"view"},{"type":"function","name":"isFeelessAddress","inputs":[{"name":"","type":"address","internalType":"address"}],"outputs":[{"name":"","type":"bool","internalType":"bool"}],"stateMutability":"view"},{"type":"function","name":"migrate","inputs":[{"name":"_projectId","type":"uint256","internalType":"uint256"},{"name":"_to","type":"address","internalType":"contract IJBPaymentTerminal"}],"outputs":[{"name":"balance","type":"uint256","internalType":"uint256"}],"stateMutability":"nonpayable"},{"type":"function","name":"operatorStore","inputs":[],"outputs":[{"name":"","type":"address","internalType":"contract IJBOperatorStore"}],"stateMutability":"view"},{"type":"function","name":"owner","inputs":[],"outputs":[{"name":"","type":"address","internalType":"address"}],"stateMutability":"view"},{"type":"function","name":"pay","inputs":[{"name":"_projectId","type":"uint256","internalType":"uint256"},{"name":"_amount","type":"uint256","internalType":"uint256"},{"name":"_token","type":"address","internalType":"address"},{"name":"_beneficiary","type":"address","internalType":"address"},{"name":"_minReturnedTokens","type":"uint256","internalType":"uint256"},{"name":"_preferClaimedTokens","type":"bool","internalType":"bool"},{"name":"_memo","type":"string","internalType":"string"},{"name":"_metadata","type":"bytes","internalType":"bytes"}],"outputs":[{"name":"","type":"uint256","internalType":"uint256"}],"stateMutability":"payable"},{"type":"function","name":"payoutSplitsGroup","inputs":[],"outputs":[{"name":"","type":"uint256","internalType":"uint256"}],"stateMutability":"view"},{"type":"function","name":"prices","inputs":[],"outputs":[{"name":"","type":"address","internalType":"contract IJBPrices"}],"stateMutability":"view"},{"type":"function","name":"processFees","inputs":[{"name":"_projectId","type":"uint256","internalType":"uint256"}],"outputs":[],"stateMutability":"nonpayable"},{"type":"function","name":"projects","inputs":[],"outputs":[{"name":"","type":"address","internalType":"contract IJBProjects"}],"stateMutability":"view"},{"type":"function","name":"redeemTokensOf","inputs":[{"name":"_holder","type":"address","internalType":"address"},{"name":"_projectId","type":"uint256","internalType":"uint256"},{"name":"_tokenCount","type":"uint256","internalType":"uint256"},{"name":"_token","type":"address","internalType":"address"},{"name":"_minReturnedTokens","type":"uint256","internalType":"uint256"},{"name":"_beneficiary","type":"address","internalType":"address payable"},{"name":"_memo","type":"string","internalType":"string"},{"name":"_metadata","type":"bytes","internalType":"bytes"}],"outputs":[{"name":"reclaimAmount","type":"uint256","internalType":"uint256"}],"stateMutability":"nonpayable"},{"type":"function","name":"renounceOwnership","inputs":[],"outputs":[],"stateMutability":"nonpayable"},{"type":"function","name":"setFee","inputs":[{"name":"_fee","type":"uint256","internalType":"uint256"}],"outputs":[],"stateMutability":"nonpayable"},{"type":"function","name":"setFeeGauge","inputs":[{"name":"_feeGauge","type":"address","internalType":"contract IJBFeeGauge"}],"outputs":[],"stateMutability":"nonpayable"},{"type":"function","name":"setFeelessAddress","inputs":[{"name":"_address","type":"address","internalType":"address"},{"name":"_flag","type":"bool","internalType":"bool"}],"outputs":[],"stateMutability":"nonpayable"},{"type":"function","name":"splitsStore","inputs":[],"outputs":[{"name":"","type":"address","internalType":"contract IJBSplitsStore"}],"stateMutability":"view"},{"type":"function","name":"store","inputs":[],"outputs":[{"name":"","type":"address","internalType":"contract IJBSingleTokenPaymentTerminalStore"}],"stateMutability":"view"},{"type":"function","name":"supportsInterface","inputs":[{"name":"_interfaceId","type":"bytes4","internalType":"bytes4"}],"outputs":[{"name":"","type":"bool","internalType":"bool"}],"stateMutability":"view"},{"type":"function","name":"token","inputs":[],"outputs":[{"name":"","type":"address","internalType":"address"}],"stateMutability":"view"},{"type":"function","name":"transferOwnership","inputs":[{"name":"newOwner","type":"address","internalType":"address"}],"outputs":[],"stateMutability":"nonpayable"},{"type":"function","name":"useAllowanceOf","inputs":[{"name":"_projectId","type":"uint256","internalType":"uint256"},{"name":"_amount","type":"uint256","internalType":"uint256"},{"name":"_currency","type":"uint256","internalType":"uint256"},{"name":"_token","type":"address","internalType":"address"},{"name":"_minReturnedTokens","type":"uint256","internalType":"uint256"},{"name":"_beneficiary","type":"address","internalType":"address payable"},{"name":"_memo","type":"string","internalType":"string"}],"outputs":[{"name":"netDistributedAmount","type":"uint256","internalType":"uint256"}],"stateMutability":"nonpayable"},{"type":"event","name":"AddToBalance","inputs":[{"name":"projectId","type":"uint256","indexed":true,"internalType":"uint256"},{"name":"amount","type":"uint256","indexed":false,"internalType":"uint256"},{"name":"refundedFees","type":"uint256","indexed":false,"internalType":"uint256"},{"name":"memo","type":"string","indexed":false,"internalType":"string"},{"name":"metadata","type":"bytes","indexed":false,"internalType":"bytes"},{"name":"caller","type":"address","indexed":false,"internalType":"address"}],"anonymous":false},{"type":"event","name":"DelegateDidPay","inputs":[{"name":"delegate","type":"address","indexed":true,"internalType":"contract IJBPayDelegate"},{"name":"data","type":"tuple","indexed":false,"internalType":"struct JBDidPayData","components":[{"name":"payer","type":"address","internalType":"address"},{"name":"projectId","type":"uint256","internalType":"uint256"},{"name":"currentFundingCycleConfiguration","type":"uint256","internalType":"uint256"},{"name":"amount","type":"tuple","internalType":"struct JBTokenAmount","components":[{"name":"token","type":"address","internalType":"address"},{"name":"value","type":"uint256","internalType":"uint256"},{"name":"decimals","type":"uint256","internalType":"uint256"},{"name":"currency","type":"uint256","internalType":"uint256"}]},{"name":"forwardedAmount","type":"tuple","internalType":"struct JBTokenAmount","components":[{"name":"token","type":"address","internalType":"address"},{"name":"value","type":"uint256","internalType":"uint256"},{"name":"decimals","type":"uint256","internalType":"uint256"},{"name":"currency","type":"uint256","internalType":"uint256"}]},{"name":"projectTokenCount","type":"uint256","internalType":"uint256"},{"name":"beneficiary","type":"address","internalType":"address"},{"name":"preferClaimedTokens","type":"bool","internalType":"bool"},{"name":"memo","type":"string","internalType":"string"},{"name":"metadata","type":"bytes","internalType":"bytes"}]},{"name":"delegatedAmount","type":"uint256","indexed":false,"internalType":"uint256"},{"name":"caller","type":"address","indexed":false,"internalType":"address"}],"anonymous":false},{"type":"event","name":"DelegateDidRedeem","inputs":[{"name":"delegate","type":"address","indexed":true,"internalType":"contract IJBRedemptionDelegate"},{"name":"data","type":"tuple","indexed":false,"internalType":"struct JBDidRedeemData","components":[{"name":"holder","type":"address","internalType":"address"},{"name":"projectId","type":"uint256","internalType":"uint256"},{"name":"currentFundingCycleConfiguration","type":"uint256","internalType":"uint256"},{"name":"projectTokenCount","type":"uint256","internalType":"uint256"},{"name":"reclaimedAmount","type":"tuple","internalType":"struct JBTokenAmount","components":[{"name":"token","type":"address","internalType":"address"},{"name":"value","type":"uint256","internalType":"uint256"},{"name":"decimals","type":"uint256","internalType":"uint256"},{"name":"currency","type":"uint256","internalType":"uint256"}]},{"name":"forwardedAmount","type":"tuple","internalType":"struct JBTokenAmount","components":[{"name":"token","type":"address","internalType":"address"},{"name":"value","type":"uint256","internalType":"uint256"},{"name":"decimals","type":"uint256","internalType":"uint256"},{"name":"currency","type":"uint256","internalType":"uint256"}]},{"name":"beneficiary","type":"address","internalType":"address payable"},{"name":"memo","type":"string","internalType":"string"},{"name":"metadata","type":"bytes","internalType":"bytes"}]},{"name":"delegatedAmount","type":"uint256","indexed":false,"internalType":"uint256"},{"name":"caller","type":"address","indexed":false,"internalType":"address"}],"anonymous":false},{"type":"event","name":"DistributePayouts","inputs":[{"name":"fundingCycleConfiguration","type":"uint256","indexed":true,"internalType":"uint256"},{"name":"fundingCycleNumber","type":"uint256","indexed":true,"internalType":"uint256"},{"name":"projectId","type":"uint256","indexed":true,"internalType":"uint256"},{"name":"beneficiary","type":"address","indexed":false,"internalType":"address"},{"name":"amount","type":"uint256","indexed":false,"internalType":"uint256"},{"name":"distributedAmount","type":"uint256","indexed":false,"internalType":"uint256"},{"name":"fee","type":"uint256","indexed":false,"internalType":"uint256"},{"name":"beneficiaryDistributionAmount","type":"uint256","indexed":false,"internalType":"uint256"},{"name":"memo","type":"string","indexed":false,"internalType":"string"},{"name":"caller","type":"address","indexed":false,"internalType":"address"}],"anonymous":false},{"type":"event","name":"DistributeToPayoutSplit","inputs":[{"name":"projectId","type":"uint256","indexed":true,"internalType":"uint256"},{"name":"domain","type":"uint256","indexed":true,"internalType":"uint256"},{"name":"group","type":"uint256","indexed":true,"internalType":"uint256"},{"name":"split","type":"tuple","indexed":false,"internalType":"struct JBSplit","components":[{"name":"preferClaimed","type":"bool","internalType":"bool"},{"name":"preferAddToBalance","type":"bool","internalType":"bool"},{"name":"percent","type":"uint256","internalType":"uint256"},{"name":"projectId","type":"uint256","internalType":"uint256"},{"name":"beneficiary","type":"address","internalType":"address payable"},{"name":"lockedUntil","type":"uint256","internalType":"uint256"},{"name":"allocator","type":"address","internalType":"contract IJBSplitAllocator"}]},{"name":"amount","type":"uint256","indexed":false,"internalType":"uint256"},{"name":"caller","type":"address","indexed":false,"internalType":"address"}],"anonymous":false},{"type":"event","name":"HoldFee","inputs":[{"name":"projectId","type":"uint256","indexed":true,"internalType":"uint256"},{"name":"amount","type":"uint256","indexed":true,"internalType":"uint256"},{"name":"fee","type":"uint256","indexed":true,"internalType":"uint256"},{"name":"feeDiscount","type":"uint256","indexed":false,"internalType":"uint256"},{"name":"beneficiary","type":"address","indexed":false,"internalType":"address"},{"name":"caller","type":"address","indexed":false,"internalType":"address"}],"anonymous":false},{"type":"event","name":"Migrate","inputs":[{"name":"projectId","type":"uint256","indexed":true,"internalType":"uint256"},{"name":"to","type":"address","indexed":true,"internalType":"contract IJBPaymentTerminal"},{"name":"amount","type":"uint256","indexed":false,"internalType":"uint256"},{"name":"caller","type":"address","indexed":false,"internalType":"address"}],"anonymous":false},{"type":"event","name":"OwnershipTransferred","inputs":[{"name":"previousOwner","type":"address","indexed":true,"internalType":"address"},{"name":"newOwner","type":"address","indexed":true,"internalType":"address"}],"anonymous":false},{"type":"event","name":"Pay","inputs":[{"name":"fundingCycleConfiguration","type":"uint256","indexed":true,"internalType":"uint256"},{"name":"fundingCycleNumber","type":"uint256","indexed":true,"internalType":"uint256"},{"name":"projectId","type":"uint256","indexed":true,"internalType":"uint256"},{"name":"payer","type":"address","indexed":false,"internalType":"address"},{"name":"beneficiary","type":"address","indexed":false,"internalType":"address"},{"name":"amount","type":"uint256","indexed":false,"internalType":"uint256"},{"name":"beneficiaryTokenCount","type":"uint256","indexed":false,"internalType":"uint256"},{"name":"memo","type":"string","indexed":false,"internalType":"string"},{"name":"metadata","type":"bytes","indexed":false,"internalType":"bytes"},{"name":"caller","type":"address","indexed":false,"internalType":"address"}],"anonymous":false},{"type":"event","name":"ProcessFee","inputs":[{"name":"projectId","type":"uint256","indexed":true,"internalType":"uint256"},{"name":"amount","type":"uint256","indexed":true,"internalType":"uint256"},{"name":"wasHeld","type":"bool","indexed":true,"internalType":"bool"},{"name":"beneficiary","type":"address","indexed":false,"internalType":"address"},{"name":"caller","type":"address","indexed":false,"internalType":"address"}],"anonymous":false},{"type":"event","name":"RedeemTokens","inputs":[{"name":"fundingCycleConfiguration","type":"uint256","indexed":true,"internalType":"uint256"},{"name":"fundingCycleNumber","type":"uint256","indexed":true,"internalType":"uint256"},{"name":"projectId","type":"uint256","indexed":true,"internalType":"uint256"},{"name":"holder","type":"address","indexed":false,"internalType":"address"},{"name":"beneficiary","type":"address","indexed":false,"internalType":"address"},{"name":"tokenCount","type":"uint256","indexed":false,"internalType":"uint256"},{"name":"reclaimedAmount","type":"uint256","indexed":false,"internalType":"uint256"},{"name":"memo","type":"string","indexed":false,"internalType":"string"},{"name":"metadata","type":"bytes","indexed":false,"internalType":"bytes"},{"name":"caller","type":"address","indexed":false,"internalType":"address"}],"anonymous":false},{"type":"event","name":"RefundHeldFees","inputs":[{"name":"projectId","type":"uint256","indexed":true,"internalType":"uint256"},{"name":"amount","type":"uint256","indexed":true,"internalType":"uint256"},{"name":"refundedFees","type":"uint256","indexed":true,"internalType":"uint256"},{"name":"leftoverAmount","type":"uint256","indexed":false,"internalType":"uint256"},{"name":"caller","type":"address","indexed":false,"internalType":"address"}],"anonymous":false},{"type":"event","name":"SetFee","inputs":[{"name":"fee","type":"uint256","indexed":false,"internalType":"uint256"},{"name":"caller","type":"address","indexed":false,"internalType":"address"}],"anonymous":false},{"type":"event","name":"SetFeeGauge","inputs":[{"name":"feeGauge","type":"address","indexed":true,"internalType":"contract IJBFeeGauge"},{"name":"caller","type":"address","indexed":false,"internalType":"address"}],"anonymous":false},{"type":"event","name":"SetFeelessAddress","inputs":[{"name":"addrs","type":"address","indexed":true,"internalType":"address"},{"name":"flag","type":"bool","indexed":true,"internalType":"bool"},{"name":"caller","type":"address","indexed":false,"internalType":"address"}],"anonymous":false},{"type":"event","name":"UseAllowance","inputs":[{"name":"fundingCycleConfiguration","type":"uint256","indexed":true,"internalType":"uint256"},{"name":"fundingCycleNumber","type":"uint256","indexed":true,"internalType":"uint256"},{"name":"projectId","type":"uint256","indexed":true,"internalType":"uint256"},{"name":"beneficiary","type":"address","indexed":false,"internalType":"address"},{"name":"amount","type":"uint256","indexed":false,"internalType":"uint256"},{"name":"distributedAmount","type":"uint256","indexed":false,"internalType":"uint256"},{"name":"netDistributedamount","type":"uint256","indexed":false,"internalType":"uint256"},{"name":"memo","type":"string","indexed":false,"internalType":"string"},{"name":"caller","type":"address","indexed":false,"internalType":"address"}],"anonymous":false},{"type":"error","name":"FEE_TOO_HIGH","inputs":[]},{"type":"error","name":"INADEQUATE_DISTRIBUTION_AMOUNT","inputs":[]},{"type":"error","name":"INADEQUATE_RECLAIM_AMOUNT","inputs":[]},{"type":"error","name":"INADEQUATE_TOKEN_COUNT","inputs":[]},{"type":"error","name":"NO_MSG_VALUE_ALLOWED","inputs":[]},{"type":"error","name":"PAY_TO_ZERO_ADDRESS","inputs":[]},{"type":"error","name":"PRBMath__MulDivOverflow","inputs":[{"name":"prod1","type":"uint256","internalType":"uint256"},{"name":"denominator","type":"uint256","internalType":"uint256"}]},{"type":"error","name":"PROJECT_TERMINAL_MISMATCH","inputs":[]},{"type":"error","name":"REDEEM_TO_ZERO_ADDRESS","inputs":[]},{"type":"error","name":"TERMINAL_IN_SPLIT_ZERO_ADDRESS","inputs":[]},{"type":"error","name":"TERMINAL_TOKENS_INCOMPATIBLE","inputs":[]},{"type":"error","name":"UNAUTHORIZED","inputs":[]}],"bytecode":{"object":"0x6101e080604052346200057f576101608162005e48803803809162000025828562000583565b8339810103126200057f5780516001600160a01b03811681036200057f576020820151604083015191606084015191608085015160018060a01b03811681036200057f5760a08601516001600160a01b03811681036200057f5760c0870151906001600160a01b03821682036200057f5760e0880151926001600160a01b03841684036200057f57610100890151946001600160a01b03861686036200057f576101208a0151996001600160a01b038b168b036200057f576101400151966001600160a01b03881688036200057f5760405163313ce56760e01b81526020816004816001600160a01b0386165afa90811562000574575f9162000529575b506001600160a01b0390911660805260ff1660a05260c05260e0526200014933620005bb565b63017d78406002556101a09687526101c0958652610100526101205261014052610160526101809384525f54336001600160a01b0390911603620004e5576001600160a01b038116156200049157620001a290620005bb565b6040519161584693846200060285396080518481816103ad0152818161043c0152818161054101528181610a1b01528181610b7301528181611a8001528181612149015281816121e80152818161233e015281816125850152818161277c0152818161287f01528181612c0801528181612ca601528181612d5c015281816132c00152818161335b0152818161354d0152818161365801528181613b21015281816141e1015281816142a601528181614315015281816143da0152818161498c01528181614a5501528181614c2201528181614d28015281816150bd0152818161512901526152cb015260a0518481816103d701528181610466015281816110740152818161118b01528181611dc501528181612175015281816125b8015281816127a60152818161338e0152818161357701528181614a880152614c4c015260c0518481816103fd0152818161048c01528181610b27015281816111ba015281816125e2015281816127cc015281816133b80152818161359d01528181613a4001528181614ab20152614c72015260e0518481816108e50152818161099601528181610f2c01528181610fc9015281816110e9015281816116b70152818161175701528181611c870152611d24015261010051848181610cd10152818161134f015281816114d201528181611a270152611f3901526101205184818161067201528181610c380152818161236f015281816129a2015281816132850152818161378f01528181613ae4015281816149c201528181614e4c01526152fb015261014051848181611e370152611fe8015261016051848181610bf4015261122301525183818161029a01528181610d5801528181611157015281816112e401528181611aef01528181611edf0152818161241d0152818161246e015281816126910152818161346801528181613c2f0152614b4e015251828181611dff01528181612632015281816134090152614b0201525181818161194801528181611fa70152818161208401526121a30152f35b60405162461bcd60e51b815260206004820152602660248201527f4f776e61626c653a206e6577206f776e657220697320746865207a65726f206160448201526564647265737360d01b6064820152608490fd5b606460405162461bcd60e51b815260206004820152602060248201527f4f776e61626c653a2063616c6c6572206973206e6f7420746865206f776e65726044820152fd5b6020813d6020116200056b575b81620005456020938362000583565b810103126200056757519060ff8216820362000564575060ff62000123565b80fd5b5080fd5b3d915062000536565b6040513d5f823e3d90fd5b5f80fd5b601f909101601f19168101906001600160401b03821190821017620005a757604052565b634e487b7160e01b5f52604160045260245ffd5b5f80546001600160a01b039283166001600160a01b03198216811783559216907f8be0079c531659141344cd1fd0a4f28419497f9722a3daafe3b4186f6b6457e09080a356fe60e0806040526004361015610012575f80fd5b5f3560e01c90816301ffc9a714613edd575080630cf8e85814613a635780631982d67914613a1f5780631ebc263f146131ea5780632b267b4e14611e665780632bdfe00414611e225780632d1a590314611de8578063313ce56714611dae578063405b84fa146119de578063637913ac1461196b57806366248b861461193157806369fe0e2d146118c1578063715018a61461186a5780637258002c146117ee57806389701db5146114985780638af560941461137e5780638b79543c1461133a5780638da5cb5b14611313578063975057e7146112cf578063a32e1e9614611118578063ad007d63146110d4578063b631b50014611097578063b7bad1b114611053578063bc8926e914610c67578063c41c2f2414610c23578063d3419bf314610bdf578063d6dacc5314610bb7578063ddca3f4314610b9a578063df21a7dd14610b4a578063e5a6b10f14610b10578063f2fde38b14610a4a578063fc0c546a14610a065763fe663f0f14610187575f80fd5b3461064457610100366003190112610644576101a1613fd8565b6101a9613fee565b506101b2614031565b9060c4356001600160401b038111610644576101d2903690600401614155565b9060e4356001600160401b03811161064457366023820112156106445761020390369060248160040135910161411f565b92336001600160a01b038316141580610955575b806108a8575b610896576001600160a01b03811615610884575f610283610295946102406145b1565b5060405163a2df1f9560e01b81526001600160a01b03861660048201526024803590820152604480359082015260a06064820152958692839260a484019061437a565b8281036003190160848401528861437a565b0381837f00000000000000000000000000000000000000000000000000000000000000006001600160a01b03165af18015610639575f905f945f905f92610764575b50608435861061075257604435610654575b8051610397575b506103706020966103627f2be10f2a0203c77d0fcaa9fd6484a8a1d6904de31cd820587f60c1c8c338c8149388610387575b898601519551966040519860018060a01b0316895260018060a01b03168a890152604435604089015288606089015260e0608089015260e088019061437a565b9086820360a088015261437a565b933360c082015280602435950390a4604051908152f35b61039289883061424d565b610322565b604051906103a48261405a565b60018060a01b037f00000000000000000000000000000000000000000000000000000000000000001682525f60208301527f000000000000000000000000000000000000000000000000000000000000000060408301527f000000000000000000000000000000000000000000000000000000000000000060608301526020840151916040516104338161405a565b60018060a01b037f00000000000000000000000000000000000000000000000000000000000000001681528860208201527f000000000000000000000000000000000000000000000000000000000000000060408201527f00000000000000000000000000000000000000000000000000000000000000006060820152604051936104bd85614090565b60018060a01b0389168552602435602086015260408501526044356060850152608084015260a083015260018060a01b03851660c08301528260e0830152876101008301528051905f5b828110610516575050506102f0565b6105208183614589565b518051602082015191929161053d916001600160a01b03166143d7565b5f917f00000000000000000000000000000000000000000000000000000000000000006001600160a01b031661eeee14610648575b60208181015160a08801519091015280516001600160a01b031692833b15610644575f9060405194858092632b13c58f60e01b825260206004830152816105bc602482018d6146e3565b03925af19283156106395760019361062a575b507f54b3744c489f40987dd2726ca12131243334e8292f567389f761c5a432d813e46020848060a01b03835116920151604051809160608252610615606083018b6146e3565b9060208301523360408301520390a201610507565b61063390614047565b5f6105cf565b6040513d5f823e3d90fd5b5f80fd5b60208101519250610572565b604051632eec7b5560e11b81526024803560048301526020908290817f00000000000000000000000000000000000000000000000000000000000000006001600160a01b03165afa908115610639575f91610724575b506001600160a01b0316803b15610644575f809160c460405180948193631665bc0f60e01b835260018060a01b038c1660048401526024356024840152604435604484015260a060648401528160a48401528160848401525af1801561063957610715575b506102e9565b61071e90614047565b5f61070f565b610745915060203d811161074b575b61073d81836140e3565b81019061433a565b5f6106aa565b503d610733565b60405163f896960b60e01b8152600490fd5b95505050503d805f853e61077881856140e3565b61018084828101031261064457610791818501856145f5565b61012085015191610140860151956001600160401b03871161064457818101601f8883010112156106445786810151966107ca88614195565b976107d8604051998a6140e3565b808952602089019184840160208360061b8387010101116106445791602083850101925b60208360061b8287010101841061083b57505050506101608101516001600160401b038111610644576108329282019101614675565b9091945f6102d7565b60408487870103126106445760405161085381614075565b84516001600160a01b03811681036106445760209382859260409452828801518382015281520194019391506107fc565b604051637ba50db360e11b8152600490fd5b60405163075fd2b160e01b8152600490fd5b5060405163c161c93f60e01b81523360048201526001600160a01b0383811660248301525f604483015260026064830152602090829060849082907f0000000000000000000000000000000000000000000000000000000000000000165afa908115610639575f9161091c575b501561021d565b90506020813d821161094d575b81610936602093836140e3565b8101031261064457610947906141ac565b5f610915565b3d9150610929565b5060405163c161c93f60e01b81523360048201526001600160a01b0383811660248084019190915235604483015260026064830152602090829060849082907f0000000000000000000000000000000000000000000000000000000000000000165afa908115610639575f916109cd575b5015610217565b90506020813d82116109fe575b816109e7602093836140e3565b81010312610644576109f8906141ac565b5f6109c6565b3d91506109da565b34610644575f366003190112610644576040517f00000000000000000000000000000000000000000000000000000000000000006001600160a01b03168152602090f35b3461064457602036600319011261064457610a63613fd8565b610a6b615461565b6001600160a01b03908116908115610abc575f54826bffffffffffffffffffffffff60a01b8216175f55167f8be0079c531659141344cd1fd0a4f28419497f9722a3daafe3b4186f6b6457e05f80a3005b60405162461bcd60e51b815260206004820152602660248201527f4f776e61626c653a206e6577206f776e657220697320746865207a65726f206160448201526564647265737360d01b6064820152608490fd5b34610644575f3660031901126106445760206040517f00000000000000000000000000000000000000000000000000000000000000008152f35b34610644576040366003190112610644576020610b65613fd8565b6040519060018060a01b03807f0000000000000000000000000000000000000000000000000000000000000000169116148152f35b34610644575f366003190112610644576020600254604051908152f35b34610644575f366003190112610644576003546040516001600160a01b039091168152602090f35b34610644575f366003190112610644576040517f00000000000000000000000000000000000000000000000000000000000000006001600160a01b03168152602090f35b34610644575f366003190112610644576040517f00000000000000000000000000000000000000000000000000000000000000006001600160a01b03168152602090f35b346106445760e036600319011261064457600435602435610c86613fee565b50610c8f614031565b9160c4356001600160401b03811161064457610caf903690600401614155565b6040516331a9108f60e11b808252600482018490526020956001600160a01b037f000000000000000000000000000000000000000000000000000000000000000081169694929390919088816024818b5afa80156106395783915f91611036575b5016803314159081610f99575b81610efc575b5061089657604051632538671560e01b815260048101879052602481018690526044803590820152966101409485896064815f7f000000000000000000000000000000000000000000000000000000000000000089165af1988915610639575f965f9a610ec5575b50506084358910610eb357899060246040518094819382528b60048301525afa938415610639577f8657a0c05a68a912c23c1bd00124afaa8c669063b046bd9bfd22b21d573c5e6d94610e40925f91610e96575b50600254158015610e81575b15610e7357633b9aca005b633b9aca008103610e615750505f985b9889039889610e51575b8a8701519651976040519586951685528b850152604084015288606084015260c0608084015260c083019061437a565b3360a08301520390a4604051908152f35b610e5c8a853061424d565b610e10565b610e6d918b898c614865565b98610e06565b610e7c896152ad565b610df6565b50335f5260048b5260ff60405f205416610deb565b610ead91508b3d8d1161074b5761073d81836140e3565b8b610ddf565b60405163b01493c160e01b8152600490fd5b8091929a50610eea939750903d10610ef5575b610ee281836140e3565b810190614772565b949094978a80610d8b565b503d610ed8565b90506040519063c161c93f60e01b825233600483015260248201525f6044820152601160648201528881608481867f0000000000000000000000000000000000000000000000000000000000000000165afa908115610639575f91610f64575b501589610d23565b90508881813d8311610f92575b610f7b81836140e3565b8101031261064457610f8c906141ac565b89610f5c565b503d610f71565b905060405163c161c93f60e01b8152336004820152816024820152876044820152601160648201528981608481877f0000000000000000000000000000000000000000000000000000000000000000165afa908115610639575f91611001575b501590610d1d565b90508981813d831161102f575b61101881836140e3565b8101031261064457611029906141ac565b8a610ff9565b503d61100e565b61104d91508a3d8c1161074b5761073d81836140e3565b8a610d10565b346106445760203660031901126106445761106c613fd8565b5060206040517f00000000000000000000000000000000000000000000000000000000000000008152f35b34610644576020366003190112610644576001600160a01b036110b8613fd8565b165f526004602052602060ff60405f2054166040519015158152f35b34610644575f366003190112610644576040517f00000000000000000000000000000000000000000000000000000000000000006001600160a01b03168152602090f35b34610644576020806003193601126106445760405163035240c760e61b8152306004808301919091523560248201526001600160a01b039082816044817f000000000000000000000000000000000000000000000000000000000000000086165afa908115610639575f916112a2575b507f00000000000000000000000000000000000000000000000000000000000000009081601281036112935750905b837f000000000000000000000000000000000000000000000000000000000000000091600183145f146111f25750505090505b604051908152f35b60646111fd82614173565b936040519687938492635268657960e11b845260048401526001602484015260448301527f0000000000000000000000000000000000000000000000000000000000000000165afa918215610639575f92611262575b61125d935061579a565b6111ea565b91508383813d831161128c575b61127981836140e3565b810103126106445761125d925191611253565b503d61126f565b61129c91615403565b906111b7565b90508281813d83116112c8575b6112b981836140e3565b81010312610644575183611188565b503d6112af565b34610644575f366003190112610644576040517f00000000000000000000000000000000000000000000000000000000000000006001600160a01b03168152602090f35b34610644575f366003190112610644575f546040516001600160a01b039091168152602090f35b34610644575f366003190112610644576040517f00000000000000000000000000000000000000000000000000000000000000006001600160a01b03168152602090f35b3461064457602080600319360112610644576004355f5260019081815260405f20918254916113ac83614195565b926113ba60405194856140e3565b80845281840180955f52825f205f915b83831061144057505050506040519281840190828552518091526040840194915f5b8281106113f95785870386f35b8351805188528281015163ffffffff908116848a0152604080830151909116908901526060908101516001600160a01b0316908801526080909601959281019284016113ec565b946002858299976040999799516114568161405a565b855481528486015463ffffffff8082168584015281851c16604083015260018060a01b039060401c1660608201528152019201920191909694969593956113ca565b3461064457602080600319360112610644576040516331a9108f60e11b815260048035908201819052916001600160a01b039181816024817f000000000000000000000000000000000000000000000000000000000000000087165afa908115610639575f916117d1575b50825f541633141590816117c4575b81611725575b81611686575b5061089657825f5260019283825260405f2090815461153c81614195565b9261154a60405194856140e3565b8184525f908152848120878686015b8785851061164057505050505050805f5284835261157960405f20614525565b8151935f5b85811061158757005b80876115c5611597829488614589565b515163ffffffff808a6115aa878c614589565b510151169060406115bb878c614589565b5101511691615282565b857fcf0c92a2c6d7c42f488326b0cb900104b99984b6b218db81cd29371364a352516116378786611608828d6115fe6060948592614589565b510151168761496e565b611612888d614589565b51015160408051929091166001600160a01b0316825233602083015290918291820190565b0390a40161157e565b60029160405161164f8161405a565b855481528b8587015463ffffffff8082168685015281861c16604084015260401c1660608201528152019201920191908890611559565b60405163c161c93f60e01b815233600482015290841660248201525f604482015260056064820152905081816084817f000000000000000000000000000000000000000000000000000000000000000087165afa908115610639575f916116f0575b50158461151e565b90508181813d831161171e575b61170781836140e3565b8101031261064457611718906141ac565b846116e8565b503d6116fd565b905060405163c161c93f60e01b81523360048201528382166024820152846044820152600560648201528281608481877f0000000000000000000000000000000000000000000000000000000000000000165afa908115610639575f9161178f575b501590611518565b90508281813d83116117bd575b6117a681836140e3565b81010312610644576117b7906141ac565b85611787565b503d61179c565b3384821614159150611512565b6117e89150823d841161074b5761073d81836140e3565b84611503565b3461064457604036600319011261064457611807613fd8565b602435908115158092036106445761181d615461565b60018060a01b0316805f52600460205260405f2060ff1981541660ff84161790557fa2653e25a502c023a5830d0de847ef6f458387865b1f4f575d7594f9f2c0d71e6020604051338152a3005b34610644575f36600319011261064457611882615461565b5f80546001600160a01b0319811682556001600160a01b03167f8be0079c531659141344cd1fd0a4f28419497f9722a3daafe3b4186f6b6457e08280a3005b34610644576020366003190112610644576004356118dd615461565b6302faf080811161191f576002819055604080519182523360208301527fd7414e590e1cb532989ab2a34c8f4c2c17f7ab6f006efeeaef2e87cd5008c20291a1005b6040516345fbd9c160e01b8152600490fd5b34610644575f3660031901126106445760206040517f00000000000000000000000000000000000000000000000000000000000000008152f35b34610644576020366003190112610644576004356001600160a01b0381169081900361064457611999615461565b806bffffffffffffffffffffffff60a01b60035416176003557f0a9a80fe9716605b3e52abb3d792d6a4e7816d6afc02a5a4ef023081feaf9f606020604051338152a2005b34610644576040366003190112610644576004356001600160a01b0360243581811690819003610644576040516331a9108f60e11b8152600481018490526020939084816024817f000000000000000000000000000000000000000000000000000000000000000088165afa80156106395784915f91611d91575b5016803314159081611cf4575b81611c57575b506108965760405163df21a7dd60e01b81527f00000000000000000000000000000000000000000000000000000000000000006001600160a01b038116600483015260248201839052908581604481875afa908115610639575f91611c22575b5015611c1057604051636bb6a5ad60e01b8152600481018390529385856024815f7f000000000000000000000000000000000000000000000000000000000000000086165af1948515610639575f95611be1575b5084611b62575b5050604080518481523360208201527fa7519e5f94697b7f53e97c5eb46a0c730a296ab686ab8fd333835c5f735784eb9190a3604051908152f35b61eeee90611b7086866143d7565b821603611bda5783905b604051611b86816140c8565b5f8152843b156106445760405163019f1d0b60e31b8152925f92849283918291611bb5918b8a6004860161439f565b0391875af1801561063957611bcb575b80611b27565b611bd490614047565b84611bc5565b5f90611b7a565b9094508581813d8311611c09575b611bf981836140e3565b8101031261064457519386611b20565b503d611bef565b60405163581010ed60e01b8152600490fd5b90508581813d8311611c50575b611c3981836140e3565b8101031261064457611c4a906141ac565b86611acc565b503d611c2f565b90506040519063c161c93f60e01b825233600483015260248201525f6044820152600460648201528481608481877f0000000000000000000000000000000000000000000000000000000000000000165afa908115610639575f91611cbf575b501585611a6c565b90508481813d8311611ced575b611cd681836140e3565b8101031261064457611ce7906141ac565b85611cb7565b503d611ccc565b905060405163c161c93f60e01b8152336004820152816024820152826044820152600460648201528581608481887f0000000000000000000000000000000000000000000000000000000000000000165afa908115610639575f91611d5c575b501590611a66565b90508581813d8311611d8a575b611d7381836140e3565b8101031261064457611d84906141ac565b86611d54565b503d611d69565b611da89150863d881161074b5761073d81836140e3565b86611a59565b34610644575f3660031901126106445760206040517f00000000000000000000000000000000000000000000000000000000000000008152f35b34610644575f3660031901126106445760206040517f00000000000000000000000000000000000000000000000000000000000000008152f35b34610644575f366003190112610644576040517f00000000000000000000000000000000000000000000000000000000000000006001600160a01b03168152602090f35b346106445760c036600319011261064457611e7f613fee565b5060a4356001600160401b03811161064457611e9f903690600401614004565b60c09190915260405163c664459760e01b81526004803590820152602480359082015260448035908201525f919061014081606481866001600160a01b037f0000000000000000000000000000000000000000000000000000000000000000165af1908115610639575f905f926131c6575b506084358210610eb3576040516331a9108f60e11b81526004803590820152926020846024817f00000000000000000000000000000000000000000000000000000000000000006001600160a01b03165afa938415610639575f946131a5575b5060025461319557633b9aca005b6020830151925f6080528496633b9aca0093604051926369e11cc560e01b84525f8480611fe47f00000000000000000000000000000000000000000000000000000000000000008b600435600485016040919493926060820195825260208201520152565b03817f00000000000000000000000000000000000000000000000000000000000000006001600160a01b03165afa938415610639575f94613044575b505f5b8451811015612f07576120368186614589565b516040810151888103612ef457506120558c985b6040830151906141b9565b975f60a052806120d3575b5090600191612072604051809261479f565b60a05160e082015233610100820152897f0000000000000000000000000000000000000000000000000000000000000000917f2a1f2df21da49f011c6165709ae4b279f8d6d7cffe9043c582352882d8c9698b61012060043592a401612023565b60c0820151919c92916001600160a01b03161561230f57633b9aca00881480156122ea575b156122c4578060a0525b60a05160c08e015161211d91906001600160a01b03166143d7565b604051928360c08101106001600160401b0360c0860111176122b05760c0840160405260018060a01b037f000000000000000000000000000000000000000000000000000000000000000016845260a05160208501527f0000000000000000000000000000000000000000000000000000000000000000604085015260043560608501527f000000000000000000000000000000000000000000000000000000000000000060808501528d60a08501528d60c060018060a01b03910151169361eeee60018060a01b037f000000000000000000000000000000000000000000000000000000000000000016145f146122aa5760a0515b853b156106445760408051634eba05fd60e11b815283516001600160a01b0316600482015260208401516024820152908301516044820152606083015160648201526080830151608482015260a09092015191955f92879261018492849261227f9060a485019061479f565b5af19384156106395760019461229b575b505b039b9091612060565b6122a490614047565b8e612290565b5f612213565b634e487b7160e01b5f52604160045260245ffd5b6122d18860025483615282565b810360a0526122e281608051614792565b608052612102565b5060c08d01516001600160a01b03165f9081526004602052604090205460ff166120f8565b60608d01518d9015612e8e5760600151604051630862026560e41b815260048101919091526001600160a01b037f0000000000000000000000000000000000000000000000000000000000000000166024820152602081806044810103817f00000000000000000000000000000000000000000000000000000000000000006001600160a01b03165afa908115610639575f91612e6f575b506001600160a01b03811615612e5d576001600160a01b0381163003612bd757508060a05260206040516123da81614075565b8181528136910137604051926004356020850152602084526123fb84614075565b60208e01518e901561251d576060015160405194612418866140c8565b5f86527f00000000000000000000000000000000000000000000000000000000000000006001600160a01b03163b156106445760405163e7c8e3e360e01b815260048101839052602481018590525f81604481837f00000000000000000000000000000000000000000000000000000000000000006001600160a01b03165af1968715610639576124ff7f9ecaf7fc3dfffd6867c175d6e684b1f1e3aef019398ba8db2c1ffab4a09db253936124f19360019a61250e575b506040519384938985525f602086015260a0604086015260a085019061437a565b90838203606085015261437a565b3360808301520390a25b612292565b61251790614047565b5f6124d0565b6060810151608082015194959394929390926001600160a01b03168015612bcf57915b5115159060405192612551846140c8565b5f808552916001600160a01b03821615612bbd5761268c946125716145b1565b505f612679604051926125838461405a565b7f00000000000000000000000000000000000000000000000000000000000000006001600160a01b03168452602084018c90527f00000000000000000000000000000000000000000000000000000000000000006040808601919091527f0000000000000000000000000000000000000000000000000000000000000000606086015251632fa1b39160e01b8152306004820152988992839261262960248501886146b7565b60a484018d90527f000000000000000000000000000000000000000000000000000000000000000060c48501526001600160a01b03891660e485015261014061010485015261014484019061437a565b828103600319016101248401528661437a565b0381837f00000000000000000000000000000000000000000000000000000000000000006001600160a01b03165af1958615610639575f955f80925f99612a9e575b5080612983575b508151612767575b505050917f133161f1c9161488f777ab9a26aae91d47c0d9a3fafb398960f138db02c7379791612759859461274b602060019d9c9b9a999801519651976040519586953087528f8060a01b031660208701528c6040870152606086015260e0608086015260e085019061437a565b9083820360a085015261437a565b3360c08301520390a4612292565b6040516127738161405a565b60018060a01b037f00000000000000000000000000000000000000000000000000000000000000001681528b60208201527f000000000000000000000000000000000000000000000000000000000000000060408201527f0000000000000000000000000000000000000000000000000000000000000000606082015260208801519360405194612803866140ac565b3086528b60208701526040860152606085015260808401528560a084015260018060a01b03851660c084015260e083015286610100830152826101208301528051905f5b82811061285457506126dd565b61285e8183614589565b518051602082015191929161287b916001600160a01b03166143d7565b5f917f00000000000000000000000000000000000000000000000000000000000000006001600160a01b031661eeee14612977575b60208181015160808801519091015280516001600160a01b031692833b15610644575f906040519485809263da9ee8b760e01b825260206004830152816128fa602482018d6151e5565b03925af192831561063957600193612968575b507f16112c26e14efc4be6c690149aa5a1ba75160de245f60d2273e28adb277b9e126020848060a01b03835116920151604051809160608252612953606083018b6151e5565b9060208301523360408301520390a201612847565b61297190614047565b5f61290d565b602081015192506128b0565b604051632eec7b5560e11b8152600481018b90529196506020826024817f00000000000000000000000000000000000000000000000000000000000000006001600160a01b03165afa918215610639575f92612a7c575b50604051638ae9c07b60e01b8152600481018b905260248101919091526001600160a01b03868116604483015260c060648301525f60c4830181905260848301899052600160a48401529192602092849260e492849291165af1908115610639575f91612a4a575b50945f6126d5565b90506020813d602011612a74575b81612a65602093836140e3565b8101031261064457515f612a42565b3d9150612a58565b6020919250612a9790823d841161074b5761073d81836140e3565b91906129da565b9850509550503d94855f883e612ab486886140e3565b61018087878101031261064457612acd868801886145f5565b9061012088015196610140890151986001600160401b038a1161064457818101601f8b8301011215610644578981015199612b078b614195565b9a612b156040519c8d6140e3565b808c5260208c0184840160208360061b85870101011161064457602083850101905b60208360061b85870101018210612b7657505050506101608101516001600160401b03811161064457612b6d9282019101614675565b9791965f6126ce565b60408287870103126106445760405190612b8f82614075565b8251906001600160a01b03821682036106445782602092604094528285015183820152815201910190612b37565b60405163a762251360e01b8152600490fd5b503391612540565b92633b9aca0089148015612e3c575b15612e16578160a0525b60a051612c06906001600160a01b0386166143d7565b7f00000000000000000000000000000000000000000000000000000000000000006001600160a01b031661eeee03612e0f5760a0518e5b6020604051612c4b81614075565b818152813691013760405190600435602083015260208252612c6c82614075565b602081015115612d045760600151956001600160a01b0381163b1561064457612cd3965f9360405180998195829463019f1d0b60e31b84527f00000000000000000000000000000000000000000000000000000000000000009060a051906004860161439f565b03926001600160a01b03165af193841561063957600194612cf5575b50612292565b612cfe90614047565b8e612cef565b606081015160808201519497929460209491939291906001600160a01b03168015612e0757915b51151593612dbb60405197889687958694631ebc263f60e01b8652600486015260a051602486015260018060a01b037f000000000000000000000000000000000000000000000000000000000000000016604486015260018060a01b031660648501525f608485015260a484015261010060c48401525f61010484015261012060e484015261012483019061437a565b03926001600160a01b03165af1801561063957612ddc575b50600192612292565b602090813d8311612e00575b612df281836140e3565b81010312610644578d612dd3565b503d612de8565b503391612d2b565b5f8e612c3d565b612e238960025484615282565b820360a052612e3482608051614792565b608052612bf0565b506001600160a01b0384165f9081526004602052604090205460ff16612be6565b604051636921234360e01b8152600490fd5b612e88915060203d60201161074b5761073d81836140e3565b8e6123a7565b60800151600193906001600160a01b03168015612eea57612509905b633b9aca008b03612ec4578360a0525b60a051903061424d565b612ed18b60025486615282565b840360a052612ee284608051614792565b608052612eba565b5061250933612eaa565b612f01612055918c61566a565b9861204a565b5060209350879089868c60805181633b9aca00840361303d575b5082811561303457612f41916001600160a01b0386169087600435614865565b915b81612fdb575b5050907f24352f49df447b14e0e08a323625c663d865ce20c343c4638af12e1dc48aa76091878401519351946040519260018060a01b03168352602435898401526040830152606082015285608082015260e060a08201528460e082015260c0518561010091828401375f8287018201523360c083015260043595601f01601f191682018290030190a4604051908152f35b7f24352f49df447b14e0e08a323625c663d865ce20c343c4638af12e1dc48aa76093929750906130116130179260025483615282565b906141b9565b9561302c876001600160a01b0384163061424d565b909188612f49565b50505f91612f43565b0181612f21565b9093503d805f833e61305681836140e3565b6020828281010312610644578151906001600160401b03821161064457808301601f83850101121561064457818301519061309082614195565b9361309e60405195866140e3565b8285526020850193828201602060e086028385010101116106445793602085830101945b602060e08602828501010186106130e057505050505050928a612020565b60e086858501031261064457604051918260e08101106001600160401b0360e0850111176122b05760e08301604052613118876141ac565b8352613126602088016141ac565b6020840152604087810151908401526060808801519084015260808701516001600160a01b038116810361064457608084015260a0878101519084015260c0870151926001600160a01b038416840361064457602060e09282829660c0869501528152019701969250506130c2565b6131a06004356152ad565b611f7f565b6131bf91945060203d60201161074b5761073d81836140e3565b9285611f71565b90506131e391506101403d61014011610ef557610ee281836140e3565b9084611f11565b610100366003190112610644576131ff613fc2565b50613208613fee565b60a4359081151582036106445760c4356001600160401b03811161064457613234903690600401614004565b60e4929192356001600160401b03811161064457613256903690600401614004565b604051636e49181f60e01b81526004803590820152306024820152909491906020816044816001600160a01b037f0000000000000000000000000000000000000000000000000000000000000000165afa908115610639575f916139e5575b50156139d3576024357f00000000000000000000000000000000000000000000000000000000000000006001600160a01b031661eeee146139c457346139b257613329926133206133209261331361330b6141c6565b91303361424d565b61331b6141c6565b6141b9565b945b369161411f565b935f936001600160a01b03841615612bbd57613463906133476145b1565b505f613450604051926133598461405a565b7f00000000000000000000000000000000000000000000000000000000000000006001600160a01b03168452602084018790527f00000000000000000000000000000000000000000000000000000000000000006040808601919091527f0000000000000000000000000000000000000000000000000000000000000000606086015251632fa1b39160e01b815233600482015294859283926133ff60248501886146b7565b60043560a48501527f000000000000000000000000000000000000000000000000000000000000000060c48501526001600160a01b038b1660e485015261014061010485015261014484019061437a565b828103600319016101248401528b61437a565b0381837f00000000000000000000000000000000000000000000000000000000000000006001600160a01b03165af1918215610639575f935f80925f9561388d575b508061376e575b50608435881061375c578151613538575b5050506135216020966103627f133161f1c9161488f777ab9a26aae91d47c0d9a3fafb398960f138db02c73797938986015195519660405198338a5260018060a01b03168b8a0152604089015288606089015260e0608089015260e088019061437a565b933360c082015280600435950390a4604051908152f35b6040516135448161405a565b60018060a01b037f00000000000000000000000000000000000000000000000000000000000000001681528660208201527f000000000000000000000000000000000000000000000000000000000000000060408201527f00000000000000000000000000000000000000000000000000000000000000006060820152602086015193604051946135d4866140ac565b338652600435602087015260408601526060850152608084015260a083018890526001600160a01b03871660c0840152151560e0830152610100820183905261012082018890528051905f5b82811061362d57506134bd565b6136378183614589565b5180516020820151919291613654916001600160a01b03166143d7565b5f917f00000000000000000000000000000000000000000000000000000000000000006001600160a01b031661eeee14613750575b60208181015160808801519091015280516001600160a01b031692833b15610644575f906040519485809263da9ee8b760e01b825260206004830152816136d3602482018d6151e5565b03925af192831561063957600193613741575b507f16112c26e14efc4be6c690149aa5a1ba75160de245f60d2273e28adb277b9e126020848060a01b0383511692015160405180916060825261372c606083018b6151e5565b9060208301523360408301520390a201613620565b61374a90614047565b8c6136e6565b60208101519250613689565b604051633dca309360e11b8152600490fd5b604051632eec7b5560e11b81526004803590820152919850906020816024817f00000000000000000000000000000000000000000000000000000000000000006001600160a01b03165afa8015610639575f92602092849261386b575b50604051638ae9c07b60e01b8152600480359082015260248101919091526001600160a01b038a8116604483015260c0606483015260c482018590528b15156084830152600160a48301529093849260e492849291165af1908115610639575f91613839575b5096896134ac565b90506020813d602011613863575b81613854602093836140e3565b81010312610644575189613831565b3d9150613847565b60e491925061388690843d861161074b5761073d81836140e3565b91906137cb565b9450509350503d92835f843e6138a384846140e3565b610180838581010312610644576138bc848401846145f5565b9061012084015194610140850151946001600160401b03861161064457818101601f8783010112156106445785810151956138f687614195565b9661390460405198896140e3565b808852602088019184840160208360061b8387010101116106445791602083850101925b60208360061b8287010101841061396957505050506101608101516001600160401b0381116106445761395e9282019101614675565b91949391938a6134a5565b60408487870103126106445760405161398181614075565b84516001600160a01b0381168103610644576020938285926040945282880151838201528152019401939150613928565b604051635e7e9adf60e11b8152600490fd5b50613320613329923494613322565b604051631b1d5a5960e31b8152600490fd5b90506020813d602011613a17575b81613a00602093836140e3565b8101031261064457613a11906141ac565b876132b5565b3d91506139f3565b3461064457602036600319011261064457613a38613fd8565b5060206040517f00000000000000000000000000000000000000000000000000000000000000008152f35b60a036600319011261064457600435613a7a613fc2565b506001600160401b0360643581811161064457613a9b903690600401614004565b9160843590811161064457613ab4903690600401614004565b604051636e49181f60e01b8152600481018690523060248201526001600160a01b039460209493909185816044817f00000000000000000000000000000000000000000000000000000000000000008b165afa908115610639575f91613ea8575b50156139d357602435907f0000000000000000000000000000000000000000000000000000000000000000871661eeee14613e9957346139b257613b7e613b64613b869361331361330b6141c6565b955b335f526004885260ff60405f2054161594369161411f565b93369161411f565b9015613e92575f865f52808488600180895260405f209081548b613ba982614195565b93613bb760405195866140e3565b8285528c8501905f528c805f20915f935b858510613e3857505050505050825f52808a52613be760405f20614525565b815184925f5b828110613cf3575050604080519384523360208501527f59860d79d97c1fce2be7f987915c631471f4b08f671200463cc40a3380194ffb939092509050a4945b7f00000000000000000000000000000000000000000000000000000000000000001691613c5a8685614792565b833b15610644575f9360448592604051968793849263e7c8e3e360e01b84528d600485015260248401525af1908115610639577f9ecaf7fc3dfffd6867c175d6e684b1f1e3aef019398ba8db2c1ffab4a09db25396613cd9946124f193613ce4575b50604051968796875286015260a0604086015260a085019061437a565b3360808301520390a2005b613ced90614047565b89613cbc565b929550929550925084155f14613d325783908c5f52818b52613d2360405f20613d1c8386614589565b51906147ef565b01919288938695928d94613bed565b9493613d3e8683614589565b51518110613d8f578390613d528784614589565b5151900394613d88613d648885614589565b515163ffffffff808e613d778c89614589565b510151169060406115bb8c89614589565b0195613d23565b613e2e908c5f9796939752848b528b613e118c60405f2084613db18b8d614589565b515103918a8c63ffffffff968784613dc98585614589565b5101511690886040613ddb8686614589565b5101511692613ded6060958692614589565b510151169360405196613dff8861405a565b875286015260408501528301526147ef565b808c613e1d898b614589565b510151169060406115bb898b614589565b0193825f94613d23565b9091929598506002939699508894975060405190613e558261405a565b865482528587015463ffffffff8082168685015281861c16604084015260401c16606082015281520192019201928c938796938c8c97948f613bc8565b5f94613c2d565b613b869150613b7e3495613b66565b90508581813d8311613ed6575b613ebf81836140e3565b8101031261064457613ed0906141ac565b88613b15565b503d613eb5565b34610644576020366003190112610644576004359063ffffffff60e01b82168092036106445760209163edb527eb60e01b8114908115613fb1575b8115613fa0575b8115613f8f575b8115613f7e575b8115613f3b575b5015158152f35b63301cdc3960e21b811491508115613f6d575b8115613f5c575b5083613f34565b6301ffc9a760e01b14905083613f55565b63144b000160e11b81149150613f4e565b63ad007d6360e01b81149150613f2d565b63fe663f0f60e01b81149150613f26565b63bc8926e960e01b81149150613f1f565b6315933da760e11b81149150613f18565b604435906001600160a01b038216820361064457565b600435906001600160a01b038216820361064457565b606435906001600160a01b038216820361064457565b9181601f84011215610644578235916001600160401b038311610644576020838186019501011161064457565b60a435906001600160a01b038216820361064457565b6001600160401b0381116122b057604052565b608081019081106001600160401b038211176122b057604052565b604081019081106001600160401b038211176122b057604052565b61012081019081106001600160401b038211176122b057604052565b61014081019081106001600160401b038211176122b057604052565b602081019081106001600160401b038211176122b057604052565b90601f801991011681019081106001600160401b038211176122b057604052565b6001600160401b0381116122b057601f01601f191660200190565b92919261412b82614104565b9161413960405193846140e3565b829481845281830111610644578281602093845f960137010152565b9080601f83011215610644578160206141709335910161411f565b90565b604d811161418157600a0a90565b634e487b7160e01b5f52601160045260245ffd5b6001600160401b0381116122b05760051b60200190565b5190811515820361064457565b9190820391821161418157565b6040516370a0823160e01b81523060048201526020816024817f00000000000000000000000000000000000000000000000000000000000000006001600160a01b03165afa908115610639575f9161421c575090565b906020823d8211614245575b81614235602093836140e3565b8101031261424257505190565b80fd5b3d9150614228565b90916001600160a01b039182163081036142cd575060405163a9059cbb60e01b60208201529282166001600160a01b0316602484015260448301526142cb91906142a482606481015b03601f1981018452836140e3565b7f0000000000000000000000000000000000000000000000000000000000000000166154b8565b565b918093604051936323b872dd60e01b6020860152602485015216604483015260648201526064815260a08101918183106001600160401b038411176122b0576142cb926040527f0000000000000000000000000000000000000000000000000000000000000000166154b8565b9081602091031261064457516001600160a01b03811681036106445790565b5f5b83811061436a5750505f910152565b818101518382015260200161435b565b9060209161439381518092818552858086019101614359565b601f01601f1916010190565b909260c09261417095948352602083015260018060a01b0316604082015260a060608201525f60a0820152816080820152019061437a565b907f00000000000000000000000000000000000000000000000000000000000000006001600160a01b0316811580156144b3575b1561444f5760405163095ea7b360e01b60208201526001600160a01b03909316602484015260448301919091526142cb919061444a8260648101614296565b6154b8565b60405162461bcd60e51b815260206004820152603660248201527f5361666545524332303a20617070726f76652066726f6d206e6f6e2d7a65726f60448201527520746f206e6f6e2d7a65726f20616c6c6f77616e636560501b6064820152608490fd5b50604051636eb1769f60e11b81523060048201526001600160a01b0384166024820152602081604481855afa908115610639575f916144f4575b501561440b565b906020823d821161451d575b8161450d602093836140e3565b810103126142425750515f6144ed565b3d9150614500565b8054905f908181558261453757505050565b6001600160ff1b03831683036145755781526020812091600190811b8301925b8381106145645750505050565b808360029255838382015501614557565b634e487b7160e01b82526011600452602482fd5b805182101561459d5760209160051b010190565b634e487b7160e01b5f52603260045260245ffd5b604051906145be82614090565b816101005f918281528260208201528260408201528260608201528260808201528260a08201528260c08201528260e08201520152565b9190826101209103126106445760405161460e81614090565b8092805182526020810151602083015260408101516040830152606081015160608301526080810151608083015260a081015160a083015260c081015160c083015260e081015160018060a01b03811681036106445760e083015261010080910151910152565b81601f8201121561064457805161468b81614104565b9261469960405194856140e3565b81845260208284010111610644576141709160208085019101614359565b80516001600160a01b031682526020808201519083015260408082015190830152606090810151910152565b6141709160018060a01b03808351168252602083015160208301526040830151604083015260608301516060830152614724608084015160808401906146b7565b60a08301519061473a61010092838501906146b7565b60c08401511661018083015261476060e08401516101e0806101a086015284019061437a565b920151906101c081840391015261437a565b9190610140838203126106445761478c61012091846145f5565b92015190565b9190820180921161418157565b60c09080511515835260208101511515602084015260408101516040840152606081015160608401528160018060a01b039182608082015116608086015260a081015160a0860152015116910152565b8054600160401b8110156122b0576001810180835581101561459d576001915f5260205f2090821b0182518155019063ffffffff6020820151169082549167ffffffff00000000604083015160201b16916060600160401b600160e01b0391015160401b169263ffffffff60e01b161717179055565b9093610100959460018061487c8460025488615282565b9889930151604f1c16145f14614916575060607f77813be0661650ddc1a5193ff2837df4162b251cb432651e2c060c3fc39756be91835f5260016020526148fe60405f209663ffffffff90816002541691604051926148da8461405a565b8984526020840152841660408301526001600160a01b0316848201819052976147ef565b600254956040519182526020820152336040820152a4565b9250507fcf0c92a2c6d7c42f488326b0cb900104b99984b6b218db81cd29371364a35251614969846149495f968661496e565b604080516001600160a01b03909216825233602083015290918291820190565b0390a4565b604051630862026560e41b8152600160048201526001600160a01b037f00000000000000000000000000000000000000000000000000000000000000008116602483015291939291602090829060449082907f0000000000000000000000000000000000000000000000000000000000000000165afa908115610639575f916151c6575b506001600160a01b03163081036150a7575060405190614a11826140c8565b5f825260405190614a21826140c8565b5f808352926001600160a01b03821615612bbd57614b4992614a416145b1565b508461267960405192614a538461405a565b7f00000000000000000000000000000000000000000000000000000000000000006001600160a01b03168452602084018a90527f00000000000000000000000000000000000000000000000000000000000000006040808601919091527f0000000000000000000000000000000000000000000000000000000000000000606086015251632fa1b39160e01b81523060048201529687928392614af960248501886146b7565b600160a48501527f000000000000000000000000000000000000000000000000000000000000000060c48501526001600160a01b03891660e485015261014061010485015261014484019061437a565b0381837f00000000000000000000000000000000000000000000000000000000000000006001600160a01b03165af190811561509c5785948687918894614f63575b5080614e2c575b508051614c0d575b505091614c02600196979261274b7f133161f1c9161488f777ab9a26aae91d47c0d9a3fafb398960f138db02c737979560208801519751986040519687963088528c8060a01b031660208801526040870152606086015260e0608086015260e085019061437a565b3360c08301520390a4565b604051614c198161405a565b60018060a01b037f00000000000000000000000000000000000000000000000000000000000000001681528960208201527f000000000000000000000000000000000000000000000000000000000000000060408201527f0000000000000000000000000000000000000000000000000000000000000000606082015260208701519260405193614ca9856140ac565b308552600160208601526040850152606084015260808301528660a083015260018060a01b03851660c08301525f60e083015282610100830152836101208301528051905f5b828110614cfd575050614b9a565b614d078183614589565b5180516020820151919291614d24916001600160a01b03166143d7565b5f917f00000000000000000000000000000000000000000000000000000000000000006001600160a01b031661eeee14614e20575b60208181015160808801519091015280516001600160a01b031692833b15610644575f906040519485809263da9ee8b760e01b82526020600483015281614da3602482018d6151e5565b03925af192831561063957600193614e11575b507f16112c26e14efc4be6c690149aa5a1ba75160de245f60d2273e28adb277b9e126020848060a01b03835116920151604051809160608252614dfc606083018b6151e5565b9060208301523360408301520390a201614cef565b614e1a90614047565b5f614db6565b60208101519250614d59565b604051632eec7b5560e11b815260016004820152919791906020826024817f00000000000000000000000000000000000000000000000000000000000000006001600160a01b03165afa918215614f58579160209184938492614f36575b5060e4906040519485938492638ae9c07b60e01b845260016004850152602484015260018060a01b038c16604484015260c060648401528160c4840152816084840152600160a484015260018060a01b03165af1918215614f2a578092614ef5575b5050955f614b92565b9091506020823d602011614f22575b81614f11602093836140e3565b810103126142425750515f80614eec565b3d9150614f04565b604051903d90823e3d90fd5b60e4919250614f5190843d861161074b5761073d81836140e3565b9190614e8a565b6040513d85823e3d90fd5b9650505090503d908186863e614f7982866140e3565b61018085838101031261509857614f92828601866145f5565b61012086015195610140810151936001600160401b03851161509457808201601f868401011215615094578482015194614fcb86614195565b95614fd960405197886140e3565b808752602087019183850160208360061b83880101011161509057602081860101925b60208360061b838801010184106150435750505050610160820151906001600160401b03821161503f57615034929081019101614675565b90959290925f614b8b565b8980fd5b604084868801031261508c5760405161505b81614075565b84516001600160a01b03811681036150885781526020858101518183015290825260409094019301614ffc565b8e80fd5b8c80fd5b8b80fd5b8880fd5b8580fd5b6040513d87823e3d90fd5b92836020926150ba8361518996976143d7565b5f7f00000000000000000000000000000000000000000000000000000000000000006001600160a01b031661eeee036151c15750825b604051936150fd856140c8565b5f855260405196879586948593631ebc263f60e01b855260016004860152602485015260018060a01b037f000000000000000000000000000000000000000000000000000000000000000016604485015260018060a01b031660648401525f60848401525f60a484015261010060c48401525f61010484015261012060e484015261012483019061437a565b03925af180156106395761519a5750565b602090813d83116151ba575b6151b081836140e3565b8101031261064457565b503d6151a6565b6150f0565b6151df915060203d60201161074b5761073d81836140e3565b5f6149f2565b6141709160018060a01b03808351168252602083015160208301526040830151604083015261521c606084015160608401906146b7565b61522e608084015160e08401906146b7565b60a083015161016083015260c08301511661018082015260e082015115156101a0820152610120615270610100840151610200806101c086015284019061437a565b920151906101e081840391015261437a565b9190613011615291928261566a565b90633b9aca0082018092116141815761301161417092826156f5565b604051630862026560e41b8152600160048201526001600160a01b037f00000000000000000000000000000000000000000000000000000000000000008116602483015260209182816044817f000000000000000000000000000000000000000000000000000000000000000086165afa80156106395782915f916153c8575b5016156153bd57600354169182615346575b5050505f90565b8190602460405180958193633bb4ac4b60e11b835260048301525afa9182915f9361538c575b505061537757505f90565b633b9aca0081111561417057505f808061533f565b8181949293943d83116153b6575b6153a481836140e3565b81010312614242575051905f8061536c565b503d61539a565b505050633b9aca0090565b6153df9150843d861161074b5761073d81836140e3565b5f61532d565b81156153ef570490565b634e487b7160e01b5f52601260045260245ffd5b9060128103615410575090565b806012115f1461544257601203601281116141815761542e90614173565b908181029181830414901517156141815790565b6011198101919082116141815761545b61417092614173565b906153e5565b5f546001600160a01b0316330361547457565b606460405162461bcd60e51b815260206004820152602060248201527f4f776e61626c653a2063616c6c6572206973206e6f7420746865206f776e65726044820152fd5b60018060a01b0316906155346040516154d081614075565b6020938482527f5361666545524332303a206c6f772d6c6576656c2063616c6c206661696c6564858301525f808587829751910182855af13d156155c9573d9161551983614104565b9261552760405194856140e3565b83523d868885013e6155cd565b908151908382159283156155a7575b5050509050156155505750565b6084906040519062461bcd60e51b82526004820152602a60248201527f5361666545524332303a204552433230206f7065726174696f6e20646964206e6044820152691bdd081cdd58d8d9595960b21b6064820152fd5b8480929394500103126142425750816155c091016141ac565b805f8381615543565b6060915b9192901561562f57508151156155e1575090565b3b156155ea5790565b60405162461bcd60e51b815260206004820152601d60248201527f416464726573733a2063616c6c20746f206e6f6e2d636f6e74726163740000006044820152606490fd5b8251909150156156425750805190602001fd5b60405162461bcd60e51b81526020600482015290819061566690602483019061437a565b0390fd5b91905f19818409818402918280831092039180830392146156e857633b9aca0090818310156156ca577f88f2cfb83100cb4e69e7c79c58b316e597157d372fb9787e8e47ce423a2e9c6d94950990828211900360f71b910360091c170290565b6044838360405191631dcf306360e21b835260048301526024820152fd5b5050633b9aca0090049150565b633b9aca00915f19838309928083029283808610950394808603951461578d578285101561576f579082910960018219018216809204600280826003021880830282030280830282030280830282030280830282030280830282030280920290030293600183805f03040190848311900302920304170290565b6044858460405191631dcf306360e21b835260048301526024820152fd5b50509061417092506153e5565b90915f19838309928083029283808610950394808603951461578d578285101561576f579082910960018219018216809204600280826003021880830282030280830282030280830282030280830282030280830282030280920290030293600183805f0304019084831190030292030417029056fea2646970667358221220fd40b58124995c5b2c277c05afdb0af01e075029e141a73ebc795c9b8f91342464736f6c63430008140033","linkReferences":{}},"methodIdentifiers":{"acceptsToken(address,uint256)":"df21a7dd","addToBalanceOf(uint256,uint256,address,string,bytes)":"0cf8e858","baseWeightCurrency()":"2d1a5903","currency()":"e5a6b10f","currencyForToken(address)":"1982d679","currentEthOverflowOf(uint256)":"a32e1e96","decimals()":"313ce567","decimalsForToken(address)":"b7bad1b1","directory()":"c41c2f24","distributePayoutsOf(uint256,uint256,uint256,address,uint256,string)":"2b267b4e","fee()":"ddca3f43","feeGauge()":"d6dacc53","heldFeesOf(uint256)":"8af56094","isFeelessAddress(address)":"b631b500","migrate(uint256,address)":"405b84fa","operatorStore()":"ad007d63","owner()":"8da5cb5b","pay(uint256,uint256,address,address,uint256,bool,string,bytes)":"1ebc263f","payoutSplitsGroup()":"66248b86","prices()":"d3419bf3","processFees(uint256)":"89701db5","projects()":"8b79543c","redeemTokensOf(address,uint256,uint256,address,uint256,address,string,bytes)":"fe663f0f","renounceOwnership()":"715018a6","setFee(uint256)":"69fe0e2d","setFeeGauge(address)":"637913ac","setFeelessAddress(address,bool)":"7258002c","splitsStore()":"2bdfe004","store()":"975057e7","supportsInterface(bytes4)":"01ffc9a7","token()":"fc0c546a","transferOwnership(address)":"f2fde38b","useAllowanceOf(uint256,uint256,uint256,address,uint256,address,string)":"bc8926e9"},"id":73}