{"abi":[{"type":"constructor","inputs":[{"name":"_owner","type":"address","internalType":"address"}],"stateMutability":"nonpayable"},{"type":"function","name":"addFeedFor","inputs":[{"name":"_currency","type":"uint256","internalType":"uint256"},{"name":"_base","type":"uint256","internalType":"uint256"},{"name":"_feed","type":"address","internalType":"contract IJBPriceFeed"}],"outputs":[],"stateMutability":"nonpayable"},{"type":"function","name":"feedFor","inputs":[{"name":"","type":"uint256","internalType":"uint256"},{"name":"","type":"uint256","internalType":"uint256"}],"outputs":[{"name":"","type":"address","internalType":"contract IJBPriceFeed"}],"stateMutability":"view"},{"type":"function","name":"owner","inputs":[],"outputs":[{"name":"","type":"address","internalType":"address"}],"stateMutability":"view"},{"type":"function","name":"priceFor","inputs":[{"name":"_currency","type":"uint256","internalType":"uint256"},{"name":"_base","type":"uint256","internalType":"uint256"},{"name":"_decimals","type":"uint256","internalType":"uint256"}],"outputs":[{"name":"","type":"uint256","internalType":"uint256"}],"stateMutability":"view"},{"type":"function","name":"renounceOwnership","inputs":[],"outputs":[],"stateMutability":"nonpayable"},{"type":"function","name":"transferOwnership","inputs":[{"name":"newOwner","type":"address","internalType":"address"}],"outputs":[],"stateMutability":"nonpayable"},{"type":"event","name":"AddFeed","inputs":[{"name":"currency","type":"uint256","indexed":true,"internalType":"uint256"},{"name":"base","type":"uint256","indexed":true,"internalType":"uint256"},{"name":"feed","type":"address","indexed":false,"internalType":"contract IJBPriceFeed"}],"anonymous":false},{"type":"event","name":"OwnershipTransferred","inputs":[{"name":"previousOwner","type":"address","indexed":true,"internalType":"address"},{"name":"newOwner","type":"address","indexed":true,"internalType":"address"}],"anonymous":false},{"type":"error","name":"PRBMath__MulDivOverflow","inputs":[{"name":"prod1","type":"uint256","internalType":"uint256"},{"name":"denominator","type":"uint256","internalType":"uint256"}]},{"type":"error","name":"PRICE_FEED_ALREADY_EXISTS","inputs":[]},{"type":"error","name":"PRICE_FEED_NOT_FOUND","inputs":[]}],"bytecode":{"object":"0x60803461011a57601f61078038819003918201601f19168301916001600160401b0383118484101761011e5780849260209460405283398101031261011a57516001600160a01b038082169081830361011a5761005b33610132565b33905f5416036100d657156100825761007390610132565b60405161060790816101798239f35b60405162461bcd60e51b815260206004820152602660248201527f4f776e61626c653a206e6577206f776e657220697320746865207a65726f206160448201526564647265737360d01b6064820152608490fd5b606460405162461bcd60e51b815260206004820152602060248201527f4f776e61626c653a2063616c6c6572206973206e6f7420746865206f776e65726044820152fd5b5f80fd5b634e487b7160e01b5f52604160045260245ffd5b5f80546001600160a01b039283166001600160a01b03198216811783559216907f8be0079c531659141344cd1fd0a4f28419497f9722a3daafe3b4186f6b6457e09080a356fe6080604081815260049081361015610015575f80fd5b5f92833560e01c90816315d63a91146102c357508063715018a6146102695780638da5cb5b1461023d57806396364e6d14610161578063a4d0caf21461012f5763f2fde38b14610063575f80fd5b3461012b57602036600319011261012b576001600160a01b03823581811693919290849003610127576100946104c4565b83156100d557505082546001600160a01b0319811683178455167f8be0079c531659141344cd1fd0a4f28419497f9722a3daafe3b4186f6b6457e08380a380f35b906020608492519162461bcd60e51b8352820152602660248201527f4f776e61626c653a206e6577206f776e657220697320746865207a65726f206160448201526564647265737360d01b6064820152fd5b8480fd5b8280fd5b50823461015e57606036600319011261015e5750610157602092604435906024359035610355565b9051908152f35b80fd5b50903461012b57606036600319011261012b57602435918135916001600160a01b039160443583811692908390036102395761019b6104c4565b848752602093600185528288208789528552808389205416159081159161021e575b50610210575083865260018352808620858752835280862080546001600160a01b03191683179055519081527f2809ef679fa4c20b88a6467f2660840ad173b5205fef76c270c5d7ba44cb70579190a380f35b905163d28d564f60e01b8152fd5b9050600185528288208689528552828820541615155f6101bd565b8680fd5b838234610265578160031936011261026557905490516001600160a01b039091168152602090f35b5080fd5b833461015e578060031936011261015e576102826104c4565b80546001600160a01b03198116825581906001600160a01b03167f8be0079c531659141344cd1fd0a4f28419497f9722a3daafe3b4186f6b6457e08280a380f35b9184915034610265578060031936011261026557923581526001602090815283822060243583528152929020546001600160a01b03168152f35b604d811161030b57600a0a90565b634e487b7160e01b5f52601160045260245ffd5b90601f8019910116810190811067ffffffffffffffff82111761034157604052565b634e487b7160e01b5f52604160045260245ffd5b919290928383146104b7575f9383855260209060018252604094858720828852835260018060a01b039182878920541680610444575087526001835285872090875282528486205416806103b4578451633ae4eae560e11b8152600490fd5b6103c0839594956102fd565b91806103cb856102fd565b946024875180958193637a3c4c1760e01b835260048301525afa94851561043b57508694610404575b505061040193945061051b565b90565b9080929450813d8311610434575b61041c818361031f565b8101031261012757610401939450519184935f6103f4565b503d610412565b513d88823e3d90fd5b9597949150508291506024865180968193637a3c4c1760e01b835260048301525afa9384156104ac5750819361047b575b50505090565b9091809350813d83116104a5575b610493818361031f565b8101031261015e5750515f8080610475565b503d610489565b51913d9150823e3d90fd5b90925061040191506102fd565b5f546001600160a01b031633036104d757565b606460405162461bcd60e51b815260206004820152602060248201527f4f776e61626c653a2063616c6c6572206973206e6f7420746865206f776e65726044820152fd5b90915f1983830992808302928380861095039480860395146105af5782851015610591579082910960018219018216809204600280826003021880830282030280830282030280830282030280830282030280830282030280920290030293600183805f03040190848311900302920304170290565b6044858460405191631dcf306360e21b835260048301526024820152fd5b5050809250156105bd570490565b634e487b7160e01b5f52601260045260245ffdfea2646970667358221220b192c3c740870f727c22cf7829d839ae09f755ca82c5932aae9e8d3921de540564736f6c63430008140033","linkReferences":{}},"methodIdentifiers":{"addFeedFor(uint256,uint256,address)":"96364e6d","feedFor(uint256,uint256)":"15d63a91","owner()":"8da5cb5b","priceFor(uint256,uint256,uint256)":"a4d0caf2","renounceOwnership()":"715018a6","transferOwnership(address)":"f2fde38b"},"id":78}