{"abi":[{"type":"function","name":"MAX_DISCOUNT_RATE","inputs":[],"outputs":[{"name":"","type":"uint256","internalType":"uint256"}],"stateMutability":"view"},{"type":"function","name":"MAX_FEE","inputs":[],"outputs":[{"name":"","type":"uint256","internalType":"uint256"}],"stateMutability":"view"},{"type":"function","name":"MAX_FEE_DISCOUNT","inputs":[],"outputs":[{"name":"","type":"uint256","internalType":"uint256"}],"stateMutability":"view"},{"type":"function","name":"MAX_REDEMPTION_RATE","inputs":[],"outputs":[{"name":"","type":"uint256","internalType":"uint256"}],"stateMutability":"view"},{"type":"function","name":"MAX_RESERVED_RATE","inputs":[],"outputs":[{"name":"","type":"uint256","internalType":"uint256"}],"stateMutability":"view"},{"type":"function","name":"SPLITS_TOTAL_PERCENT","inputs":[],"outputs":[{"name":"","type":"uint256","internalType":"uint256"}],"stateMutability":"view"}],"bytecode":{"object":"0x608080604052346100195760c4908161001e823930815050f35b5f80fdfe608060405260043610156010575f80fd5b5f3560e01c806319a9f94114605c5780634bb970421460585780635d14fef8146058578063870bc1fd146054578063bc063e1a1460545763d3c4fca9146054575f80fd5b605c565b6078565b5f3660031901126074576020604051633b9aca008152f35b5f80fd5b5f36600319011260745760206040516127108152f3fea2646970667358221220a4e50994367b7835d96b580650ba705a7b6d681b1318306cb59f1e906f54ee8d64736f6c63430008140033","linkReferences":{}},"methodIdentifiers":{"MAX_DISCOUNT_RATE()":"870bc1fd","MAX_FEE()":"bc063e1a","MAX_FEE_DISCOUNT()":"19a9f941","MAX_REDEMPTION_RATE()":"4bb97042","MAX_RESERVED_RATE()":"5d14fef8","SPLITS_TOTAL_PERCENT()":"d3c4fca9"},"storageLayout":{"storage":[],"types":{}},"id":33}