{"abi":[{"type":"function","name":"hasPermission","inputs":[{"name":"_operator","type":"address","internalType":"address"},{"name":"_account","type":"address","internalType":"address"},{"name":"_domain","type":"uint256","internalType":"uint256"},{"name":"_permissionIndex","type":"uint256","internalType":"uint256"}],"outputs":[{"name":"","type":"bool","internalType":"bool"}],"stateMutability":"view"},{"type":"function","name":"hasPermissions","inputs":[{"name":"_operator","type":"address","internalType":"address"},{"name":"_account","type":"address","internalType":"address"},{"name":"_domain","type":"uint256","internalType":"uint256"},{"name":"_permissionIndexes","type":"uint256[]","internalType":"uint256[]"}],"outputs":[{"name":"","type":"bool","internalType":"bool"}],"stateMutability":"view"},{"type":"function","name":"permissionsOf","inputs":[{"name":"","type":"address","internalType":"address"},{"name":"","type":"address","internalType":"address"},{"name":"","type":"uint256","internalType":"uint256"}],"outputs":[{"name":"","type":"uint256","internalType":"uint256"}],"stateMutability":"view"},{"type":"function","name":"setOperator","inputs":[{"name":"_operatorData","type":"tuple","internalType":"struct JBOperatorData","components":[{"name":"operator","type":"address","internalType":"address"},{"name":"domain","type":"uint256","internalType":"uint256"},{"name":"permissionIndexes","type":"uint256[]","internalType":"uint256[]"}]}],"outputs":[],"stateMutability":"nonpayable"},{"type":"function","name":"setOperators","inputs":[{"name":"_operatorData","type":"tuple[]","internalType":"struct JBOperatorData[]","components":[{"name":"operator","type":"address","internalType":"address"},{"name":"domain","type":"uint256","internalType":"uint256"},{"name":"permissionIndexes","type":"uint256[]","internalType":"uint256[]"}]}],"outputs":[],"stateMutability":"nonpayable"},{"type":"event","name":"SetOperator","inputs":[{"name":"operator","type":"address","indexed":true,"internalType":"address"},{"name":"account","type":"address","indexed":true,"internalType":"address"},{"name":"domain","type":"uint256","indexed":true,"internalType":"uint256"},{"name":"permissionIndexes","type":"uint256[]","indexed":false,"internalType":"uint256[]"},{"name":"packed","type":"uint256","indexed":false,"internalType":"uint256"}],"anonymous":false},{"type":"error","name":"PERMISSION_INDEX_OUT_OF_BOUNDS","inputs":[]}],"bytecode":{"object":"0x608080604052346100165761059c908161001b8239f35b5f80fdfe60406080815260049081361015610014575f80fd5b5f803560e01c80630f5932f01461031f578063529cdd2e1461025057806380deb230146101f95780638d5f697f146100d05763c161c93f14610054575f80fd5b346100cd5760803660031901126100cd5761006d610380565b61007561039a565b906064359460ff86116100bf57506001600160a01b0390811683526020838152848420919092168352815282822060443583528152908290205491519190921c6001908116148152f35b8451638e9503a960e01b8152fd5b80fd5b5091346101f557602090816003193601126101f15780359067ffffffffffffffff82116101ed57610103913691016103b0565b919092845b838110610113578580f35b80856101376101316101286001958985610506565b8681019061048a565b90610528565b838060a01b03908161015261014d868b87610506565b6104c0565b168a52898752858a20338b528752858a208761016f868b87610506565b01358b52875280868b20557f9dee2ffb464e2d0198cd20321be1ae3f79ed49f7ed4abfaa7ee4fe982bbeb3206101e46101ac61014d878c88610506565b936101d26101c9888d8d6101c183838d610506565b013599610506565b8a81019061048a565b9290948a5193849333981696846104d4565b0390a401610108565b8480fd5b8380fd5b8280fd5b50903461024c57606036600319011261024c5780602092610218610380565b61022061039a565b6001600160a01b0391821683528286528383209116825284528181206044358252845220549051908152f35b5080fd5b509190346101f557600319906020368301126101f15782359267ffffffffffffffff84116101ed5783606091019284360301126101f1577f9dee2ffb464e2d0198cd20321be1ae3f79ed49f7ed4abfaa7ee4fe982bbeb320604484016102b9610131828661048a565b906001600160a01b03906103199061030890836102d5896104c0565b168a5289602052868a20338b526020526024878b2099013598898b5260205284878b2055610302886104c0565b9761048a565b9390955193849333981696846104d4565b0390a480f35b50346100cd5760803660031901126100cd57610339610380565b9261034261039a565b916064359067ffffffffffffffff82116100cd57509161036b60209592610377943691016103b0565b92909160443591610405565b90519015158152f35b600435906001600160a01b038216820361039657565b5f80fd5b602435906001600160a01b038216820361039657565b9181601f840112156103965782359167ffffffffffffffff8311610396576020808501948460051b01011161039657565b91908110156103f15760051b0190565b634e487b7160e01b5f52603260045260245ffd5b9190935f5b81811061041c57505050505050600190565b6104278183876103e1565b359060ff8211610478576001600160a01b038581165f90815260208181526040808320938b168352928152828220878352905220546001921c82161561046d570161040a565b505050505050505f90565b604051638e9503a960e01b8152600490fd5b903590601e1981360301821215610396570180359067ffffffffffffffff821161039657602001918160051b3603831361039657565b356001600160a01b03811681036103965790565b604080825281018390529392916001600160fb1b0381116103965760209160609160051b809183880137850101930152565b91908110156103f15760051b81013590605e1981360301821215610396570190565b91905f925f915b80831061053b57505050565b9092919361054a8583866103e1565b359060ff821161047857600180921b179401909290919261052f56fea26469706673582212204b7a90c705dc3dae8ea756ee8ec1cfb376f704feb655b2c60505a35a6f88396664736f6c63430008140033","linkReferences":{}},"methodIdentifiers":{"hasPermission(address,address,uint256,uint256)":"c161c93f","hasPermissions(address,address,uint256,uint256[])":"0f5932f0","permissionsOf(address,address,uint256)":"80deb230","setOperator((address,uint256,uint256[]))":"529cdd2e","setOperators((address,uint256,uint256[])[])":"8d5f697f"},"id":77}