{"abi":[{"type":"constructor","inputs":[{"name":"_typeface","type":"address","internalType":"contract ITypeface"}],"stateMutability":"nonpayable"},{"type":"function","name":"tokenUriOf","inputs":[{"name":"_nft","type":"address","internalType":"address"},{"name":"_tokenId","type":"uint256","internalType":"uint256"}],"outputs":[{"name":"","type":"string","internalType":"string"}],"stateMutability":"view"},{"type":"function","name":"typeface","inputs":[],"outputs":[{"name":"","type":"address","internalType":"contract ITypeface"}],"stateMutability":"view"},{"type":"error","name":"PRBMath__MulDivOverflow","inputs":[{"name":"prod1","type":"uint256","internalType":"uint256"},{"name":"denominator","type":"uint256","internalType":"uint256"}]}],"bytecode":{"object":"0x60a03461007057601f612a1438819003918201601f19168301916001600160401b038311848410176100745780849260209460405283398101031261007057516001600160a01b03811681036100705760805260405161298b90816100898239608051818181608a0152610c790152f35b5f80fd5b634e487b7160e01b5f52604160045260245ffdfe60806040526004361015610011575f80fd5b5f803560e01c80634d5a1d111461007757635e703e7114610030575f80fd5b346100745760403660031901126100745761007061005c600435610053816100bc565b60243590610821565b6040519182916020835260208301906100f2565b0390f35b80fd5b50346100745780600319360112610074577f00000000000000000000000000000000000000000000000000000000000000006001600160a01b03166080908152602090f35b6001600160a01b038116036100cd57565b5f80fd5b5f5b8381106100e25750505f910152565b81810151838201526020016100d3565b9060209161010b815180928185528580860191016100d1565b601f01601f1916010190565b634e487b7160e01b5f52604160045260245ffd5b6040810190811067ffffffffffffffff82111761014757604052565b610117565b6020810190811067ffffffffffffffff82111761014757604052565b6060810190811067ffffffffffffffff82111761014757604052565b90601f8019910116810190811067ffffffffffffffff82111761014757604052565b908160209103126100cd575190565b6040513d5f823e3d90fd5b60405190610180820182811067ffffffffffffffff82111761014757604052565b67ffffffffffffffff811161014757601f01601f191660200190565b9092919261020a816101e1565b916102186040519384610184565b8294828452828201116100cd5760206102329301906100d1565b565b9080601f830112156100cd57815161024e926020016101fd565b90565b906020828203126100cd57815167ffffffffffffffff81116100cd5761024e9201610234565b67ffffffffffffffff81116101475760051b60200190565b6040519060a0820182811067ffffffffffffffff8211176101475760405260048252815f5b608081106102c0575050565b8060606020809385010152016102b4565b908160209103126100cd575161024e816100bc565b5190610232826100bc565b519081151582036100cd57565b6020818303126100cd57805167ffffffffffffffff918282116100cd5701610180818403126100cd5761032f6101c0565b92815184526020820151602085015260408201516040850152606082015160608501526080820151608085015260a082015160a085015261037260c083016102e6565b60c085015260e082015160e0850152610100808301519085015261012061039a8184016102f1565b908501526101406103ac8184016102f1565b9085015261016092838301519081116100cd576103c99201610234565b9082015290565b604051906103dd8261014c565b5f8252565b604051906103ef8261012b565b601d82527f646174613a6170706c69636174696f6e2f6a736f6e3b6261736536342c0000006020830152565b634e487b7160e01b5f52603260045260245ffd5b80511561043c5760200190565b61041b565b80516001101561043c5760400190565b80516002101561043c5760600190565b80516003101561043c5760800190565b805182101561043c5760209160051b010190565b90610498602092828151948592016100d1565b0190565b634e487b7160e01b5f52601160045260245ffd5b90600282018092116104be57565b61049c565b90602082018092116104be57565b919082018092116104be57565b600711156104e857565b634e487b7160e01b5f52602160045260245ffd5b6040519061050982610168565b602a82526934b6903932bbb0b9321760b11b6040837f53636f726563617264206c6f636b656420696e2e204275726e20746f20636c6160208201520152565b604051906105558261012b565b601c82527f4177616974696e672073636f72656361726420617070726f76616c2e000000006020830152565b6040519061058e82610168565b602482526334b7339760e11b6040837f4d696e74696e67206973206f7665722e20526566756e64732061726520656e6460208201520152565b604051906105d48261012b565b601d82527f4d696e74696e6720616e6420726566756e647320617265206f70656e2e0000006020830152565b6040519061060d8261012b565b601482527326b4b73a34b7339039ba30b93a399039b7b7b71760611b6020830152565b6040519061063d82610168565b60248252633832b71760e11b6040837f4e6f20636f6e7465737420696e6576697461626c652e20526566756e6473206f60208201520152565b604051906106838261012b565b601982527f4e6f20636f6e746573742e20526566756e6473206f70656e2e000000000000006020830152565b919082039182116104be57565b604051906106c98261012b565b601382527220636172647320696e206578697374656e636560681b6020830152565b604051906106f88261012b565b6012825271206361726420696e206578697374656e636560701b6020830152565b604051906107268261012b565b600d82526c1031b0b932399039b7903330b960991b6020830152565b6040519061074f8261012b565b600c82526b1031b0b9321039b7903330b960a11b6020830152565b908160209103126100cd5761024e906102f1565b6040519061078b8261012b565b601582527420bbb0b4ba34b7339039b1b7b932b1b0b93217171760591b6020830152565b661e17ba32bc3a1f60c91b815260070190565b604051906107cf8261012b565b6002825261227d60f01b6020830152565b602061023291939293604051948161080187935180928680870191016100d1565b8201610815825180938680850191016100d1565b01038085520183610184565b6040516356539f3960e01b8152906020826004816001600160a01b0385165afa918215611712575f92611a23575b506040516306fdde0360e01b8152905f9060609082846004816001600160a01b0385165afa938415611712578394611a07575b5061088b61028f565b60405163975057e760e01b8152909690926020846004816001600160a01b0387165afa9384156117125785946119e6575b5060405163c44a8e6d60e01b81526001600160a01b038481166004830152602482018490525f60448301529094869186916064918391165afa9384156117125785946119be575b508351604051630dd55e1f60e11b8152600481019190915290858280602481015b03816001600160a01b0388165afa9182156117125786926119a2575b5060e08501805161193357506109546103e2565b61095d8a61042f565b526109678961042f565b506109c3610a6083610a52610a1a896109bd610a08610a026109d961099661098f8651612751565b9551612751565b946109bd6040519b8c9a6109bd60208d01600990683d913730b6b2911d1160b91b81520190565b90610485565b691116101134b2111d101160b11b8152600a0190565b7f222c226465736372697074696f6e223a225465616d3a20000000000000000000815260170190565b8a610485565b650161024a21d160d51b815260060190565b7f2e222c22696d616765223a22646174613a696d6167652f7376672b786d6c3b62815265185cd94d8d0b60d21b602082015260260190565b03601f198101835282610184565b610a698a610441565b52610a7389610441565b5060405163282d924360e21b81526020816004816001600160a01b0389165afa90811561171257610aad918a918991611914575b50611e0b565b604051631c91760360e21b8152909691506020816004816001600160a01b038a165afa90811561171257610aea918b918a916118f5575b50611f13565b6040516327f6e97960e01b81529194909350916020826004816001600160a01b038d165afa90811561171257610b27928c926118d4575b506104d1565b90610b3383858461203c565b94610b3d8a6104de565b60068a036118325750610b4e610676565b995b610b6360608301516040840151906106af565b90610b6d8b6104de565b60018b036117fc5750610ba9816001610b886109bd94612751565b91036117ec57610a52610b99610742565b6040519485936020850190610485565b985b610bb4816104de565b600381149081156117d8575b50156117c35750604051634f228e1160e01b815260048101879052906020826024816001600160a01b038c165afa918215611712575f926117a2575b5060405163640abacd60e01b8152916020836004816001600160a01b038d165afa91821561171257610c35935f93611781575b50612892565b604051635460afa560e11b81529092906020816004816001600160a01b038c165afa908115611712575f91611752575b5061174457505050610c7561077e565b955b7f000000000000000000000000000000000000000000000000000000000000000097610cb4610cae610ca88b6121ee565b9a612266565b9a612751565b60405163975057e760e01b81529096906020816004816001600160a01b0386165afa91821561171257610d19926020925f91611717575b50604051630cf9530d60e41b81526001600160a01b0390921660048301529092839190829081906024820190565b03916001600160a01b03165afa801561171257610d3d915f916116e3575b50612751565b91610d50610d4a83611ab7565b92611b84565b92610d5a86611c21565b511515806116d1575b156116c357610d7186611d5b565b945b610d7c87611c21565b515f90156116905750610db4610d9188611cbe565b975b610d9c81611c21565b515f90156116685750610dae90611c21565b98612751565b986040519d8e9d60208f01610e1390603e907f3c7376672076696577426f783d2230203020353030203530302220786d6c6e7381527f3d22687474703a2f2f7777772e77332e6f72672f323030302f737667223e000060208201520190565b7f3c7374796c653e40666f6e742d666163657b666f6e742d66616d696c793a224381527f617073756c65732d333030223b7372633a75726c28646174613a666f6e742f7460208201527f727565747970653b636861727365743d7574662d383b6261736536342c0000006040820152605d01610e8e91610485565b75293b666f726d617428226f70656e7479706522293b7d60501b81526016017f40666f6e742d666163657b666f6e742d66616d696c793a2243617073756c657381527f2d343030223b7372633a75726c28646174613a666f6e742f74727565747970656020820152750ed8da185c9cd95d0f5d5d198b4e0ed8985cd94d8d0b60521b6040820152605601610f2191610485565b75293b666f726d617428226f70656e7479706522293b7d60501b81526016017f746578747b77686974652d73706163653a7072652d777261703b20776964746881526f1d189818129d903e9e17b9ba3cb6329f60811b60208201526030017f3c726563742077696474683d223130302522206865696768743d223130302522815270103334b6361e9111989c189a191a11179f60791b60208201526031017f3c7465787420783d2231302220793d22333022207374796c653d22666f6e742d81527f73697a653a313670783b20666f6e742d66616d696c793a2043617073756c657360208201527f2d3330303b20666f6e742d7765696768743a3330303b2066696c6c3a2023633060408201526c03119b3189d911f23a0a6a29d1609d1b6060820152606d0161105091610485565b670103e102827aa1d160c51b815260080161106a91610485565b690103e1021a0a922299d160b51b8152600a0161108691610485565b61108f906107af565b7f3c7465787420783d2231302220793d22353022207374796c653d22666f6e742d81527f73697a653a313670783b20666f6e742d66616d696c793a2043617073756c657360208201527f2d3330303b20666f6e742d7765696768743a3330303b2066696c6c3a2023656460408201526618189bb19d911f60c91b606082015260670161111a91610485565b611123906107af565b7f3c7465787420783d2231302220793d22383522207374796c653d22666f6e742d81527f73697a653a323670783b20666f6e742d66616d696c793a2043617073756c657360208201527f2d3330303b20666f6e742d7765696768743a3330303b2066696c6c3a202363306040820152663119b3189d911f60c91b60608201526067016111ae91610485565b6111b7906107af565b7f3c7465787420783d2231302220793d2231323022207374796c653d22666f6e7481527f2d73697a653a323670783b20666f6e742d66616d696c793a2043617073756c6560208201525f80516020612936833981519152604082015267183119b3189d911f60c11b606082015260680161123091610485565b611239906107af565b7f3c7465787420783d2231302220793d2232303522207374796c653d22666f6e7481527f2d73697a653a383070783b20666f6e742d66616d696c793a2043617073756c6560208201527f732d3430303b20666f6e742d7765696768743a3430303b2066696c6c3a20236660408201526732b0991c191d911f60c11b60608201526068016112c591610485565b6112ce906107af565b7f3c7465787420783d2231302220793d2232393522207374796c653d22666f6e7481527f2d73697a653a383070783b20666f6e742d66616d696c793a2043617073756c6560208201527f732d3430303b20666f6e742d7765696768743a3430303b2066696c6c3a20236660408201526732b0991c191d911f60c11b606082015260680161135a91610485565b611363906107af565b7f3c7465787420783d2231302220793d2233383522207374796c653d22666f6e7481527f2d73697a653a383070783b20666f6e742d66616d696c793a2043617073756c6560208201527f732d3430303b20666f6e742d7765696768743a3430303b2066696c6c3a20236660408201526732b0991c191d911f60c11b60608201526068016113ef91610485565b6113f8906107af565b7f3c7465787420783d2231302220793d2234333022207374796c653d22666f6e7481527f2d73697a653a313670783b20666f6e742d66616d696c793a2043617073756c6560208201525f805160206129368339815191526040820152710183119b3189d911f2a27a5a2a71024a21d160751b606082015260720161147b91610485565b611484906107af565b7f3c7465787420783d2231302220793d2234353522207374796c653d22666f6e7481527f2d73697a653a313670783b20666f6e742d66616d696c793a2043617073756c6560208201525f8051602061293683398151915260408201526f0183119b3189d911f2920a924aa2c9d160851b606082015260700161150591610485565b61150e906107af565b7f3c7465787420783d2231302220793d2234383022207374796c653d22666f6e7481527f2d73697a653a313670783b20666f6e742d66616d696c793a2043617073756c6560208201525f805160206129368339815191526040820152720183119b3189d911f2120a1a5a2a210212c9d1606d1b606082015260730161159291610485565b61159b906107af565b651e17b9bb339f60d11b815260060103601f19810182526115bc9082610184565b6115c59061234c565b6115ce82610451565b526115d881610451565b506115e16107c2565b6115ea82610461565b526115f481610461565b506115fe8161042f565b519061160981610441565b5161161382610451565b519161161e90610461565b516040519283926020840161163291610485565b61163b91610485565b61164491610485565b03601f19810182526116569082610184565b61165f9061234c565b61024e916107e0565b61167182611cbe565b5115905061168257610dae90611cbe565b61168b90611d5b565b610dae565b61169988611cbe565b511590506116b357610db46116ad88611d5b565b97610d93565b610db46116be6103d0565b6116ad565b6116cb6103d0565b94610d73565b506116db86611cbe565b511515610d63565b611705915060203d60201161170b575b6116fd8183610184565b8101906101a6565b5f610d37565b503d6116f3565b6101b5565b6117379150833d851161173d575b61172f8183610184565b8101906102d1565b5f610ceb565b503d611725565b61174d9261203c565b610c75565b611774915060203d60201161177a575b61176c8183610184565b81019061076a565b5f610c65565b503d611762565b61179b91935060203d60201161170b576116fd8183610184565b915f610c2f565b6117bc91925060203d60201161170b576116fd8183610184565b905f610bfc565b6117d29391506020015161203c565b95610c77565b600491506117e5816104de565b145f610bc0565b610a526117f7610719565b610b99565b6118219060018361180f6109bd95612751565b92500361182757610a52610b996106eb565b98610bab565b610a526117f76106bc565b61183b8a6104de565b60058a03611853575061184c610630565b995b610b50565b61185c8a6104de565b8961186a575061184c610600565b6118738a6104de565b60018a03611884575061184c6105c7565b61188d8a6104de565b60028a0361189e575061184c610581565b6118a78a6104de565b60038a036118b8575061184c610548565b996118c28a6104de565b60048a0361184e57995061184c6104fc565b6118ee91925060203d60201161170b576116fd8183610184565b905f610b21565b61190e915060203d60201161173d5761172f8183610184565b5f610ae4565b61192d915060203d60201161173d5761172f8183610184565b5f610aa7565b604051636c0360eb60e01b81529699509597509495508794508693506004928492506001600160a01b031690505afa918215611712578361024e949361197d575b5050519061242f565b61199a9293503d8091833e6119928183610184565b810190610251565b905f80611974565b6119b79192503d8088833e6119928183610184565b905f610940565b6109249194506119df903d8088833e6119d78183610184565b8101906102fe565b9390610903565b611a0091945060203d60201161173d5761172f8183610184565b925f6108bc565b611a1c9194503d8085833e6119928183610184565b925f610882565b611a3d91925060203d60201161170b576116fd8183610184565b905f61084f565b8051601e101561043c57603e0190565b80516014101561043c5760340190565b8051600a101561043c57602a0190565b90815181101561043c570160200190565b90611a8f826101e1565b611a9c6040519182610184565b8281528092611aad601f19916101e1565b0190602036910137565b90601e825115611b79578251808211611b71575b50600160fd1b6001600160f81b0319611af4611ae68661042f565b516001600160f81b03191690565b1614905f915f14611b6b576001915b81831015611b5e57611b1d611b1884846106af565b611a85565b92805b838110611b305750929450505050565b80611b40611ae66001938a611a74565b611b57611b4d85846106af565b91861a9188611a74565b5301611b20565b505050905061024e6103d0565b81611b03565b90505f611acb565b50905061024e6103d0565b90603c8251601e1015611b79578251808211611c19575b50600160fd1b6001600160f81b0319611bb6611ae686611a44565b1614905f915f14611c1157601f915b81831015611b5e57611bda611b1884846106af565b92805b838110611bed5750929450505050565b80611bfd611ae66001938a611a74565b611c0a611b4d85846106af565b5301611bdd565b601e91611bc5565b90505f611b9b565b90601e825160141015611b79578251808211611cb6575b50600160fd1b6001600160f81b0319611c53611ae686611a54565b1614905f915f14611cae576015915b81831015611b5e57611c77611b1884846106af565b92805b838110611c8a5750929450505050565b80611c9a611ae66001938a611a74565b611ca7611b4d85846106af565b5301611c7a565b601491611c62565b90505f611c38565b9060148251600a1015611b79578251808211611d53575b50600160fd1b6001600160f81b0319611cf0611ae686611a64565b1614905f915f14611d4b57600b915b81831015611b5e57611d14611b1884846106af565b92805b838110611d275750929450505050565b80611d37611ae66001938a611a74565b611d44611b4d85846106af565b5301611d17565b600a91611cff565b90505f611cd5565b90600a825115611b79578251808211611deb575b50600160fd1b6001600160f81b0319611d8a611ae68661042f565b1614905f915f14611de5576001915b81831015611b5e57611dae611b1884846106af565b92805b838110611dc15750929450505050565b80611dd1611ae66001938a611a74565b611dde611b4d85846106af565b5301611db1565b81611d99565b90505f611d6f565b908160209103126100cd575160078110156100cd5790565b6001600160a01b0316908115611ee75760405163038ab08560e11b8082526004820183905260209290918381602481885afa5f9181611ec8575b50611ebc5750611e59575b5050505f905f90565b6040519081525f6004820152918190839060249082905afa9182915f93611e8d575b5050611e88578080611e50565b600191565b611ead929350803d10611eb5575b611ea58183610184565b810190611df3565b905f80611e7b565b503d611e9b565b94935050505060019190565b611ee0919250853d8711611eb557611ea58183610184565b905f611e45565b50505f905f90565b908160609103126100cd5780519160406020830151611f0d816100bc565b92015190565b6001600160a01b031690811561201f57604051635a6fd84360e11b808252600482018390525f602483015260609290918381604481885afa5f918291829181611ff9575b50611fea57505050611f74575b5050505f905f9061eeee90601290565b819060405193849182528180611f9760048201905f602060408401938281520152565b03915afa805f9384938593611fb3575b505015611f6457600193565b9194509150611fd79250803d10611fe3575b611fcf8183610184565b810190611eef565b91929091905f80611fa7565b503d611fc5565b60019792965090945092509050565b915092506120149150853d8711611fe357611fcf8183610184565b91929091905f611f57565b50505f905f9061eeee90601290565b604d81116104be57600a0a90565b6001600160a01b03909116916120829061206d906120599061202e565b61207d6120788261207261206d82896122f8565b612751565b966124ec565b61231f565b6122f8565b6004815110156120b257604051600360fc1b6020820152906120ad908290610a5290602183016109bd565b612082565b915f9061eeee81036120f557505060405161674f60f11b60208201529161024e918391610a52916109bd906120e8906022860183565b601760f91b815260010190565b908060049392604051948580926395d89b4160e01b82525afa8015611712576120e89461024e9483610a529493612150575b50506121436109bd916109bd6040519889976020890190610485565b600160fd1b815260010190565b6109bd9293506121439161216d913d8091833e6119928183610184565b9291612127565b604051906121818261012b565b60068252651b9bdc9b585b60d21b6020830152565b6020818303126100cd5780519067ffffffffffffffff82116100cd57019080601f830112156100cd57815161024e926020016101fd565b6060602061024e9381845280518285015201519160408082015201906100f2565b5f61222d91604051906122008261012b565b61012c825261220d612174565b6020830152604051808095819463bf6519ad60e01b8352600483016121cd565b03916001600160a01b03165afa908115611712575f9161224b575090565b61024e913d8091833e61225e8183610184565b810190612196565b5f61222d91604051906122788261012b565b610190825261220d612174565b6040519061229282610168565b604082527f6768696a6b6c6d6e6f707172737475767778797a303132333435363738392b2f6040837f4142434445464748494a4b4c4d4e4f505152535455565758595a61626364656660208201520152565b634e487b7160e01b5f52601260045260245ffd5b8115612302570490565b6122e4565b600281901b91906001600160fe1b038116036104be57565b90612710918281029281840414901517156104be57565b6040516123428161014c565b5f8152905f368137565b8051156124265761235b612285565b61237761237261236b84516104b0565b6003900490565b612307565b91612384611b18846104c3565b92835280815182019060208501935b8282106123d4575050506003905106806001146123c3576002146123b5575090565b603d60f81b5f199091015290565b50613d3d60f01b6001199091015290565b9091936004906003809401938451600190603f9082828260121c16880101518553828282600c1c16880101518386015382828260061c1688010151600286015316850101519082015301939190612393565b5061024e6103d0565b9061024e9061245d604051602092609160f51b8483015260228201526022815261245881610168565b6124f6565b92604051938161247686935180928680870191016100d1565b820161248a825180938680850191016100d1565b01038084520182610184565b604051906105e0820182811067ffffffffffffffff82111761014757604052602e82526105c0366020840137565b906124ce82610277565b6124db6040519182610184565b8281528092611aad601f1991610277565b8115612302570690565b9081511561260c57612506612496565b915f90816125138561042f565b5260019181519181925b808410612543575050505061253961253e9161024e9394612616565b612658565b61269d565b9091929461256661256061255a611ae68987611a74565b60f81c90565b60ff1690565b9184925b60ff90898289168610156125cb576001929161259f6125996125606125928a6125a596610471565b5160ff1690565b60081b90565b906104d1565b6125c28b6125ba88603a958686061692610471565b9060ff169052565b0493019261256a565b50919594935050809691965b6125e557506001019261251d565b9460ff6001603a9261260283858b06166125ba8d86851690610471565b01169504806125d7565b905061024e612336565b9060ff80911690612626826124c4565b925f5b838110612637575050505090565b808361264560019385610471565b51166126518288610471565b5201612629565b908151612664816124c4565b905f5b818110612675575090925050565b60019060ff61268a5f19838951030188610471565b51166126968286610471565b5201612667565b80516126a881611a85565b915f90815b8381106126bb575050505090565b60019060407f5a6162636465666768696a6b6d6e6f707172737475767778797a0000000000008151916126ed83610168565b603a83527f31323334353637383941424344454647484a4b4c4d4e5051525354555657585960208401528201526001600160f81b03199061273c9060ff6127348588610471565b511690611a74565b5116841a61274a8288611a74565b53016126ad565b805f917a184f03e93ff9f4daa797ed6e38ed64bf6a1f01000000000000000080821015612884575b506d04ee2d6d415b85acef810000000080831015612875575b50662386f26fc1000080831015612866575b506305f5e10080831015612857575b5061271080831015612848575b506064821015612838575b600a8092101561282e575b6001908160216127e7828701611a85565b95860101905b6127f9575b5050505090565b5f19019083906f181899199a1a9b1b9c1cb0b131b232b360811b8282061a835304918215612829579190826127ed565b6127f2565b91600101916127d6565b91906064600291049101916127cb565b6004919392049101915f6127c0565b6008919392049101915f6127b3565b6010919392049101915f6127a4565b6020919392049101915f612792565b60409350810491505f612779565b90915f1983830992808302928380861095039480860395146129285782851015612908579082910960018219018216809204600280826003021880830282030280830282030280830282030280830282030280830282030280920290030293600183805f03040190848311900302920304170290565b604051631dcf306360e21b81526004810186905260248101849052604490fd5b50509061024e92506122f856fe732d3330303b20666f6e742d7765696768743a3330303b2066696c6c3a202363a26469706673582212200fd96d6c3008990d8eee362a9133ee6700b79588e9fd2f08ee93cd366cccf6ef64736f6c63430008140033","linkReferences":{}},"methodIdentifiers":{"tokenUriOf(address,uint256)":"5e703e71","typeface()":"4d5a1d11"},"id":0}