{"abi":[{"type":"constructor","inputs":[{"name":"_directory","type":"address","internalType":"contract IJBDirectory"}],"stateMutability":"nonpayable"},{"type":"function","name":"configureFor","inputs":[{"name":"_projectId","type":"uint256","internalType":"uint256"},{"name":"_data","type":"tuple","internalType":"struct JBFundingCycleData","components":[{"name":"duration","type":"uint256","internalType":"uint256"},{"name":"weight","type":"uint256","internalType":"uint256"},{"name":"discountRate","type":"uint256","internalType":"uint256"},{"name":"ballot","type":"address","internalType":"contract IJBFundingCycleBallot"}]},{"name":"_metadata","type":"uint256","internalType":"uint256"},{"name":"_mustStartAtOrAfter","type":"uint256","internalType":"uint256"}],"outputs":[{"name":"","type":"tuple","internalType":"struct JBFundingCycle","components":[{"name":"number","type":"uint256","internalType":"uint256"},{"name":"configuration","type":"uint256","internalType":"uint256"},{"name":"basedOn","type":"uint256","internalType":"uint256"},{"name":"start","type":"uint256","internalType":"uint256"},{"name":"duration","type":"uint256","internalType":"uint256"},{"name":"weight","type":"uint256","internalType":"uint256"},{"name":"discountRate","type":"uint256","internalType":"uint256"},{"name":"ballot","type":"address","internalType":"contract IJBFundingCycleBallot"},{"name":"metadata","type":"uint256","internalType":"uint256"}]}],"stateMutability":"nonpayable"},{"type":"function","name":"currentBallotStateOf","inputs":[{"name":"_projectId","type":"uint256","internalType":"uint256"}],"outputs":[{"name":"","type":"uint8","internalType":"enum JBBallotState"}],"stateMutability":"view"},{"type":"function","name":"currentOf","inputs":[{"name":"_projectId","type":"uint256","internalType":"uint256"}],"outputs":[{"name":"fundingCycle","type":"tuple","internalType":"struct JBFundingCycle","components":[{"name":"number","type":"uint256","internalType":"uint256"},{"name":"configuration","type":"uint256","internalType":"uint256"},{"name":"basedOn","type":"uint256","internalType":"uint256"},{"name":"start","type":"uint256","internalType":"uint256"},{"name":"duration","type":"uint256","internalType":"uint256"},{"name":"weight","type":"uint256","internalType":"uint256"},{"name":"discountRate","type":"uint256","internalType":"uint256"},{"name":"ballot","type":"address","internalType":"contract IJBFundingCycleBallot"},{"name":"metadata","type":"uint256","internalType":"uint256"}]}],"stateMutability":"view"},{"type":"function","name":"directory","inputs":[],"outputs":[{"name":"","type":"address","internalType":"contract IJBDirectory"}],"stateMutability":"view"},{"type":"function","name":"get","inputs":[{"name":"_projectId","type":"uint256","internalType":"uint256"},{"name":"_configuration","type":"uint256","internalType":"uint256"}],"outputs":[{"name":"fundingCycle","type":"tuple","internalType":"struct JBFundingCycle","components":[{"name":"number","type":"uint256","internalType":"uint256"},{"name":"configuration","type":"uint256","internalType":"uint256"},{"name":"basedOn","type":"uint256","internalType":"uint256"},{"name":"start","type":"uint256","internalType":"uint256"},{"name":"duration","type":"uint256","internalType":"uint256"},{"name":"weight","type":"uint256","internalType":"uint256"},{"name":"discountRate","type":"uint256","internalType":"uint256"},{"name":"ballot","type":"address","internalType":"contract IJBFundingCycleBallot"},{"name":"metadata","type":"uint256","internalType":"uint256"}]}],"stateMutability":"view"},{"type":"function","name":"latestConfigurationOf","inputs":[{"name":"","type":"uint256","internalType":"uint256"}],"outputs":[{"name":"","type":"uint256","internalType":"uint256"}],"stateMutability":"view"},{"type":"function","name":"latestConfiguredOf","inputs":[{"name":"_projectId","type":"uint256","internalType":"uint256"}],"outputs":[{"name":"fundingCycle","type":"tuple","internalType":"struct JBFundingCycle","components":[{"name":"number","type":"uint256","internalType":"uint256"},{"name":"configuration","type":"uint256","internalType":"uint256"},{"name":"basedOn","type":"uint256","internalType":"uint256"},{"name":"start","type":"uint256","internalType":"uint256"},{"name":"duration","type":"uint256","internalType":"uint256"},{"name":"weight","type":"uint256","internalType":"uint256"},{"name":"discountRate","type":"uint256","internalType":"uint256"},{"name":"ballot","type":"address","internalType":"contract IJBFundingCycleBallot"},{"name":"metadata","type":"uint256","internalType":"uint256"}]},{"name":"ballotState","type":"uint8","internalType":"enum JBBallotState"}],"stateMutability":"view"},{"type":"function","name":"queuedOf","inputs":[{"name":"_projectId","type":"uint256","internalType":"uint256"}],"outputs":[{"name":"fundingCycle","type":"tuple","internalType":"struct JBFundingCycle","components":[{"name":"number","type":"uint256","internalType":"uint256"},{"name":"configuration","type":"uint256","internalType":"uint256"},{"name":"basedOn","type":"uint256","internalType":"uint256"},{"name":"start","type":"uint256","internalType":"uint256"},{"name":"duration","type":"uint256","internalType":"uint256"},{"name":"weight","type":"uint256","internalType":"uint256"},{"name":"discountRate","type":"uint256","internalType":"uint256"},{"name":"ballot","type":"address","internalType":"contract IJBFundingCycleBallot"},{"name":"metadata","type":"uint256","internalType":"uint256"}]}],"stateMutability":"view"},{"type":"event","name":"Configure","inputs":[{"name":"configuration","type":"uint256","indexed":true,"internalType":"uint256"},{"name":"projectId","type":"uint256","indexed":true,"internalType":"uint256"},{"name":"data","type":"tuple","indexed":false,"internalType":"struct JBFundingCycleData","components":[{"name":"duration","type":"uint256","internalType":"uint256"},{"name":"weight","type":"uint256","internalType":"uint256"},{"name":"discountRate","type":"uint256","internalType":"uint256"},{"name":"ballot","type":"address","internalType":"contract IJBFundingCycleBallot"}]},{"name":"metadata","type":"uint256","indexed":false,"internalType":"uint256"},{"name":"mustStartAtOrAfter","type":"uint256","indexed":false,"internalType":"uint256"},{"name":"caller","type":"address","indexed":false,"internalType":"address"}],"anonymous":false},{"type":"event","name":"Init","inputs":[{"name":"configuration","type":"uint256","indexed":true,"internalType":"uint256"},{"name":"projectId","type":"uint256","indexed":true,"internalType":"uint256"},{"name":"basedOn","type":"uint256","indexed":true,"internalType":"uint256"}],"anonymous":false},{"type":"error","name":"CONTROLLER_UNAUTHORIZED","inputs":[]},{"type":"error","name":"INVALID_BALLOT","inputs":[]},{"type":"error","name":"INVALID_DISCOUNT_RATE","inputs":[]},{"type":"error","name":"INVALID_DURATION","inputs":[]},{"type":"error","name":"INVALID_TIMEFRAME","inputs":[]},{"type":"error","name":"INVALID_WEIGHT","inputs":[]},{"type":"error","name":"NO_SAME_BLOCK_RECONFIGURATION","inputs":[]},{"type":"error","name":"PRBMath__MulDivOverflow","inputs":[{"name":"prod1","type":"uint256","internalType":"uint256"},{"name":"denominator","type":"uint256","internalType":"uint256"}]}],"bytecode":{"object":"0x60a03461007157601f6111a438819003918201601f19168301916001600160401b038311848410176100755780849260209460405283398101031261007157516001600160a01b03811681036100715760805260405161111a908161008a823960805181818161014901526101d30152f35b5f80fd5b634e487b7160e01b5f52604160045260245ffdfe60806040818152600480361015610014575f80fd5b5f92833560e01c9081632cee6deb1461054e5750806343a266c21461052a5780635c55007814610506578063669e48aa146104d6578063a249d4251461017c578063c41c2f2414610134578063c55f571c146100e75763ebc8ca1f14610078575f80fd5b346100e35760203660031901126100e357816100d66100cd6100b761014096956100e19535966100a661064a565b508781526003602052205486610f9e565b9460208601516060870151908588015192610ef2565b91518094610578565b6101208301906105d6565bf35b8280fd5b50346100e35760203660031901126100e35761012b602093610118846100e194359283815260038852205482610f9e565b8581015185606083015192015192610ef2565b915180926105d6565b505034610178578160031936011261017857517f00000000000000000000000000000000000000000000000000000000000000006001600160a01b03168152602090f35b5080fd5b50346100e35760e03660031901126100e35780359260803660231901126103165760a43560c435916101ac61064a565b508451632eec7b5560e11b81528481018790526020946001600160a01b03929186816024817f000000000000000000000000000000000000000000000000000000000000000088165afa9081156104cc578391610496575b50833391160361048857846024359663ffffffff88116104785760643592633b9aca00841161046a57604435926affffffffffffffffffffff841161045b574211610453575b66ffffffffffffff61025c8a8a61090b565b11610445578561026a61092c565b16610370575b5061027d8783428d610946565b8461028661092c565b1615801590610367575b801561035e575b610332575b85610319575b8851978852870152868601526084359182168092036103165750948361030d9382936101209860606100e1980152608083015260a08201523360c08201527f1175572e9e7787125bbb2c1175e626d6fa90191342319fa2c35d8bd194a8a1b660e04292a34290610f9e565b91518092610578565b80fd5b89845260028152888420428552815285898520556102a2565b8461033b61092c565b168a855284825289852042865282528360c01b908960a01b17178985205561029c565b50821515610297565b50871515610290565b9997969594939291908461038261092c565b163b15610435578461039261092c565b8b516301ffc9a760e01b8152637ba3dfb360e01b818f015291839183916024918391165afa8591816103f9575b506103d4578a51635401398160e01b81528c90fd5b9a9091929394959697989a156103eb57505f610270565b8951635401398160e01b8152fd5b9091508281813d831161042e575b6104118183610628565b8101031261042a5751801515810361042a57905f6103bf565b8580fd5b503d610407565b8951635401398160e01b81528b90fd5b8951630ac6115360e41b8152fd5b42975061024a565b50895163698f22ad60e01b8152fd5b8951632459513560e01b8152fd5b8851630c51c95b60e21b81528390fd5b8651632adfdd0560e21b8152fd5b90508681813d83116104c5575b6104ad8183610628565b810103126100e3575183811681036100e3575f610204565b503d6104a3565b88513d85823e3d90fd5b509134610316578160031936011261031657506100e161030d610120936104fb61064a565b506024359035610f9e565b50913461031657602036600319011261031657506100e161030d610120933561068e565b50913461031657602036600319011261031657506100e161030d6101209335610777565b929190503461057457602036600319011261057457926020933581526003845220548152f35b8380fd5b805182526020810151602083015260408101516040830152606081015160608301526080810151608083015260a081015160a083015260c081015160c083015260018060a01b0360e08201511660e083015261010080910151910152565b9060038210156105e35752565b634e487b7160e01b5f52602160045260245ffd5b610120810190811067ffffffffffffffff82111761061457604052565b634e487b7160e01b5f52604160045260245ffd5b90601f8019910116810190811067ffffffffffffffff82111761061457604052565b60405190610657826105f7565b816101005f918281528260208201528260408201528260608201528260808201528260a08201528260c08201528260e08201520152565b61069661064a565b50805f52600360205260405f20541561071c576106b281610b84565b801561073e576106c29082610f9e565b6106cc8183610eca565b6107395760406106de91015182610f9e565b905b60808201511561072f576106f48282610eca565b61072557604061070692015190610f9e565b60808101511561071c5761071990610ca3565b90565b5061071961064a565b5061071990610ca3565b505061071961064a565b905090565b50805f52600360205261075560405f205482610f9e565b9060608201514210156106e05790604061077191015182610f9e565b906106e0565b61077f61064a565b505f90808252600360205260409081832054156109005761079f81610c00565b6107a761064a565b5080156108b2576107b89082610f9e565b6107c28183610eca565b6108ab578201515b801561089f576107d991610f9e565b6080810192835115610898576107ed61064a565b506107f9845142610b77565b906001820180921161088457506108109082610d3c565b9161081b8383610e86565b936020830151938284015191516108328286610dc8565b9160c08601519360018060a01b0360e08801511695610100809801519881519a61085b8c6105f7565b8b5260208b01528901526060880152608087015260a086015260c085015260e084015282015290565b634e487b7160e01b81526011600452602490fd5b5091505090565b5050505061071961064a565b9250505090565b50808352600360205281832054826108ca8284610f9e565b6108d48185610eca565b1580156108f3575b6108e8575b50506107ca565b01519050825f6108e1565b50606081015142106108dc565b50505061071961064a565b9190820180921161091857565b634e487b7160e01b5f52601160045260245ffd5b6084356001600160a01b03811681036109425790565b5f80fd5b909392935f828152602090600382526040968782205415610a925761096a85610c00565b8015610a81575b61097b9086610f9e565b92886109878588610eca565b158015610a74575b610a60575b50848185015114610a4f5760e08401516001600160a01b0316806109d65750506109cc969750815b50808211156109ce575092610aa6565b565b905092610aa6565b90806004928b51938480926303ed69ad60e21b82525afa998a15610a4657508399610a12575b5050610a0c6109cc97988561090b565b916109bc565b90809950813d8311610a3f575b610a298183610628565b8101031261017857965196610a0c6109cc6109fc565b503d610a1f565b513d85823e3d90fd5b885163215da85760e11b8152600490fd5b610a6d9194015186610f9e565b9288610994565b506060850151421061098f565b508482526003835287822054610971565b939150506109cc949550610aa461064a565b905b92602092948251155f14610b13578383015160581b17845f526001845260405f20865f528452600160c81b9160901b171760405f20555b825f52600382528360405f20550151917ff1bd4f3fcb4e0b193abc7e4002c0284e25086269a02de2e4c52045a91f6470375f80a4565b90610b1e9083610d3c565b908015610b6c5760018103610b6757505f5b610b3a8284610e86565b908484015160581b1790855f526001855260405f20875f52855260c81b9160901b171760405f2055610add565b610b30565b50610b678183610dc8565b9190820391821161091857565b90815f52600360205260405f205491610b9d8382610f9e565b9060608201918251421015610bf8576001815114610bf3576080916040610bc692015190610f9e565b01518015159182610bdf575b5050610bda57565b5f9150565b610bea925051610b77565b42105f80610bd2565b505050565b505f93505050565b805f526003602052610c1660405f205482610f9e565b60808101518015159081610c8b575b50610c85576060810151421015610c7c576040610c46910191825190610f9e565b60808101518015159182610c64575b5050610c5f575190565b505f90565b610c7292506060015161090b565b4210155f80610c55565b60209150015190565b50505f90565b610c9a9150606083015161090b565b4210155f610c25565b610cab61064a565b506001420180421161091857610cc19082610d3c565b610ccb8183610e86565b916020810151916040820151906080830151610ce78285610dc8565b9060c08501519260018060a01b0360e08701511694610100809701519760405199610d118b6105f7565b8a5260208a015260408901526060880152608087015260a086015260c085015260e084015282015290565b91909160808101908151908115610bf357906060610d5b92015161090b565b83811015610db957610d6d9084610b77565b81518015610da557610d83919492940682610b77565b925b838211610d90575050565b9092610d9e9082519061090b565b9290610d85565b634e487b7160e01b5f52601260045260245ffd5b925050565b8115610da5570490565b91909160808101805115610e605760a08201519360c0830192835115610e0f57610e0392916060610dfb92015190610b77565b905190610dbe565b5f80925b828410610e15575b50505050565b90919294815190633b9aca00918203918211610e4c5790610e3591611059565b948515610e4757600101929190610e07565b610e0f565b634e487b7160e01b84526011600452602484fd5b5090915060c060a0820151910151633b9aca009081039081116109185761071991611059565b906080820190815115610eb95782610ea9610eb392606061071996015190610b77565b9051925190610dbe565b9061090b565b505051600181018091116109185790565b610ee39160208101516040606083015192015192610ef2565b60038110156105e35760011490565b91928015610f95576001600160a01b039060e090610f109085610f9e565b0151168015610f95576020926064916040519586948593637416790760e01b85526004850152602484015260448301525afa908115610f8a575f91610f53575090565b6020813d8211610f82575b81610f6b60209383610628565b810103126101785751906003821015610316575090565b3d9150610f5e565b6040513d5f823e3d90fd5b50505050600190565b919091610fa961064a565b9280156110555760209080828601525f91838352600181526040938484208385528252848420546affffffffffffffffffffff811660a089015266ffffffffffffff808260581c16878a01528160901c16606089015260c81c875280845283825284842083855282528484205460018060a01b03811660e089015263ffffffff90818160a01c1660808a015260c01c1660c0880152835260028152838320918352522054610100830152565b5050565b91905f19818409818402918280831092039180830392146110d757633b9aca0090818310156110b9577f88f2cfb83100cb4e69e7c79c58b316e597157d372fb9787e8e47ce423a2e9c6d94950990828211900360f71b910360091c170290565b6044838360405191631dcf306360e21b835260048301526024820152fd5b5050633b9aca009004915056fea264697066735822122081c5fcbd839f148c17344f1755f87ee7d94bc1948789559f8a4eab1d74e7fecb64736f6c63430008140033","linkReferences":{}},"methodIdentifiers":{"configureFor(uint256,(uint256,uint256,uint256,address),uint256,uint256)":"a249d425","currentBallotStateOf(uint256)":"c55f571c","currentOf(uint256)":"43a266c2","directory()":"c41c2f24","get(uint256,uint256)":"669e48aa","latestConfigurationOf(uint256)":"2cee6deb","latestConfiguredOf(uint256)":"ebc8ca1f","queuedOf(uint256)":"5c550078"},"id":76}