{"abi":[{"type":"function","name":"clearGameIdOverride","inputs":[{"name":"_delegate","type":"address","internalType":"address"}],"outputs":[],"stateMutability":"nonpayable"},{"type":"function","name":"gameIdOverrideOf","inputs":[{"name":"_delegate","type":"address","internalType":"address"}],"outputs":[{"name":"gameId","type":"uint256","internalType":"uint256"},{"name":"isSet","type":"bool","internalType":"bool"}],"stateMutability":"view"},{"type":"function","name":"owner","inputs":[],"outputs":[{"name":"","type":"address","internalType":"address"}],"stateMutability":"view"},{"type":"function","name":"renounceOwnership","inputs":[],"outputs":[],"stateMutability":"nonpayable"},{"type":"function","name":"setGameIdOverride","inputs":[{"name":"_delegate","type":"address","internalType":"address"},{"name":"_gameId","type":"uint256","internalType":"uint256"}],"outputs":[],"stateMutability":"nonpayable"},{"type":"function","name":"tokenUriOf","inputs":[{"name":"_nft","type":"address","internalType":"address"},{"name":"_tokenId","type":"uint256","internalType":"uint256"}],"outputs":[{"name":"","type":"string","internalType":"string"}],"stateMutability":"view"},{"type":"function","name":"transferOwnership","inputs":[{"name":"newOwner","type":"address","internalType":"address"}],"outputs":[],"stateMutability":"nonpayable"},{"type":"function","name":"typeface","inputs":[],"outputs":[{"name":"","type":"address","internalType":"contract ITypeface"}],"stateMutability":"pure"},{"type":"event","name":"GameIdOverrideSet","inputs":[{"name":"delegate","type":"address","indexed":true,"internalType":"address"},{"name":"gameId","type":"uint256","indexed":true,"internalType":"uint256"}],"anonymous":false},{"type":"event","name":"OwnershipTransferred","inputs":[{"name":"previousOwner","type":"address","indexed":true,"internalType":"address"},{"name":"newOwner","type":"address","indexed":true,"internalType":"address"}],"anonymous":false},{"type":"error","name":"PRBMath__MulDivOverflow","inputs":[{"name":"prod1","type":"uint256","internalType":"uint256"},{"name":"denominator","type":"uint256","internalType":"uint256"}]}],"bytecode":{"object":"0x6080806040523461005a575f8054336001600160a01b0319821681178355916001600160a01b03909116907f8be0079c531659141344cd1fd0a4f28419497f9722a3daafe3b4186f6b6457e09080a3612cd5908161005f8239f35b5f80fdfe60806040526004361015610011575f80fd5b5f803560e01c9081630b46800f14610097575080634ac9bf50146100925780634d5a1d111461008d5780635e703e7114610088578063715018a6146100835780638da5cb5b1461007e578063d039b0aa146100795763f2fde38b14610074575f80fd5b610301565b61028b565b610264565b61020a565b6101c2565b610187565b61011c565b346100e55760203660031901126100e5576004356100b4816100e8565b6001600160a01b031681526001602090815260408083205460029092529182902054608091825260ff16151560a052f35b80fd5b6001600160a01b038116036100f957565b5f80fd5b60409060031901126100f957600435610115816100e8565b9060243590565b346100f95761012a366100fd565b90610133612a64565b60018060a01b0316905f918083526001602052816040842055600260205260408320600160ff198254161790557f62a7e552e08f478c8ac8ec9690c781143df5a260c0986de3dfd7030ba06caa548380a380f35b346100f9575f3660031901126100f95760206040515f8152f35b5f5b8381106101b25750505f910152565b81810151838201526020016101a3565b346100f9576101d96101d3366100fd565b90610674565b604080518092602082526101fc81518092816020860152602086860191016101a1565b601f01601f19168101030190f35b346100f9575f806003193601126100e557610223612a64565b80546001600160a01b03198116825581906001600160a01b03167f8be0079c531659141344cd1fd0a4f28419497f9722a3daafe3b4186f6b6457e08280a380f35b346100f9575f3660031901126100f9575f546040516001600160a01b039091168152602090f35b346100f95760203660031901126100f9576004356102a8816100e8565b6102b0612a64565b60018060a01b03165f8181928252600160205281604081205560026020526040822060ff1981541690557f62a7e552e08f478c8ac8ec9690c781143df5a260c0986de3dfd7030ba06caa548280a380f35b346100f95760203660031901126100f95760043561031e816100e8565b610326612a64565b6001600160a01b039081168015610373575f80546001600160a01b03198116831782559092167f8be0079c531659141344cd1fd0a4f28419497f9722a3daafe3b4186f6b6457e08380a380f35b60405162461bcd60e51b815260206004820152602660248201527f4f776e61626c653a206e6577206f776e657220697320746865207a65726f206160448201526564647265737360d01b6064820152608490fd5b634e487b7160e01b5f52604160045260245ffd5b6020810190811067ffffffffffffffff8211176103f757604052565b6103c7565b6040810190811067ffffffffffffffff8211176103f757604052565b6060810190811067ffffffffffffffff8211176103f757604052565b90601f8019910116810190811067ffffffffffffffff8211176103f757604052565b908160209103126100f9575161046b816100e8565b90565b6040513d5f823e3d90fd5b60405190610180820182811067ffffffffffffffff8211176103f757604052565b60405190610180820182811067ffffffffffffffff8211176103f7576040526060610160835f80825280602083015280604083015280848301528060808301528060a08301528060c08301528060e083015280610100830152806101208301526101408201520152565b519061050f826100e8565b565b519081151582036100f957565b67ffffffffffffffff81116103f757601f01601f191660200190565b81601f820112156100f95780516105508161051e565b9261055e6040519485610434565b818452602082840101116100f95761046b91602080850191016101a1565b6020818303126100f957805167ffffffffffffffff918282116100f95701610180818403126100f9576105ad610479565b92815184526020820151602085015260408201516040850152606082015160608501526080820151608085015260a082015160a08501526105f060c08301610504565b60c085015260e082015160e08501526101008083015190850152610120610618818401610511565b9085015261014061062a818401610511565b9085015261016092838301519081116100f957610647920161053a565b9082015290565b906020828203126100f957815167ffffffffffffffff81116100f95761046b920161053a565b6001600160a01b0391908281169061068c90826107ff565b60405163975057e760e01b81529091905f602082600481865afa9091816107c0575b506106c05750505061046b9150611ceb565b935f6106ca61049a565b5060405163c44a8e6d60e01b81526001600160a01b0384166004820152602481018690525f6044820152918190839060649082908a165afa9091828261079b575b505061071e5750505061046b9150611ceb565b9291929060e08201805161073757509361046b94610ad0565b929450600493505f915060405193848092636c0360eb60e01b82525afa5f9281610778575b5061076c57505061046b90611ceb565b61046b92505190612742565b61079491933d8091833e61078c8183610434565b81019061064e565b915f61075c565b6107b89293503d8091833e6107b08183610434565b81019061057c565b905f8061070b565b6107e291925060203d81116107e9575b6107da8183610434565b810190610456565b905f6106ae565b503d6107d0565b908160209103126100f9575190565b6040516356539f3960e01b81526001600160a01b0392916020908290600490829087165afa5f9181610864575b50610858575b50165f52600260205260ff60405f20541661084b575f90565b600160205260405f205490565b80156108325791505090565b61088691925060203d811161088d575b61087e8183610434565b8101906107f0565b905f61082c565b503d610874565b906108a7602092828151948592016101a1565b0190565b604051906108b8826103db565b5f8252565b604051906108ca826103fc565b600682526544656669666160d01b6020830152565b634e487b7160e01b5f52601160045260245ffd5b906002820180921161090157565b6108df565b906020820180921161090157565b9190820180921161090157565b6040519061092e826103fc565b60078252662ab735b737bbb760c91b6020830152565b67ffffffffffffffff81116103f75760051b60200190565b6040519060a0820182811067ffffffffffffffff8211176103f75760405260048252815f5b6080811061098d575050565b806060602080938501015201610981565b604051906109ab826103fc565b601d82527f646174613a6170706c69636174696f6e2f6a736f6e3b6261736536342c0000006020830152565b634e487b7160e01b5f52603260045260245ffd5b8051156109f85760200190565b6109d7565b8051600110156109f85760400190565b8051600210156109f85760600190565b8051600310156109f85760800190565b80518210156109f85760209160051b010190565b60405190610a4e826103fc565b60018252602d60f81b6020830152565b661e17ba32bc3a1f60c91b815260070190565b60405190610a7e826103fc565b6002825261227d60f01b6020830152565b602061050f919392936040519481610ab087935180928680870191016101a1565b8201610ac4825180938680850191016101a1565b01038085520183610434565b8251604051630dd55e1f60e11b81526004810191909152929493909285916060915f816024816001600160a01b038a165afa5f91816116bd575b506116b5575b50815115611670575b6040516306fdde0360e01b81525f80826004816001600160a01b038b165afa90918282611653575b505061164d5750610b506108bd565b915b60405163282d924360e21b81525f906020816004816001600160a01b038c165afa82918161162c575b50611624575b50604051631c91760360e21b81525f9189918991906020816004816001600160a01b0387165afa859181611603575b506115f9575b50610bc483610bcc92612375565b9b909461247d565b6040516327f6e97960e01b8152909391925f916020816004816001600160a01b038b165afa8391816115d8575b506115ce575b5081610c0a91610914565b91156115ac5750610c1c838383612220565b9c5b86898c83610c2c81856118e2565b9a610c3692611a66565b9c610c4097611b50565b96610c4961095c565b9a610c5261099e565b610c5b8d6109eb565b52610c658c6109eb565b508051610c7190612abb565b9051610c7c90612abb565b604051683d913730b6b2911d1160b91b602082015291829190610ca26029840189610894565b691116101134b2111d101160b11b8152600a01610cbe91610894565b7f222c226465736372697074696f6e223a225465616d3a200000000000000000008152601701610cee9088610894565b650161024a21d160d51b8152600601610d0691610894565b7f2e222c22696d616765223a22646174613a696d6167652f7376672b786d6c3b62815265185cd94d8d0b60d21b602082015260260103601f1981018252610d4d9082610434565b610d568c6109fd565b52610d608b6109fd565b50610d84918061159d5750610d73610a41565b985b6001600160a01b031690611de4565b93610d97610d9182611ed6565b91611fa3565b90610da184612040565b5115158061158b575b1561157d57610db88461217a565b925b610dc385612040565b515f901561154a5750610dfb610dd8866120dd565b955b610de381612040565b515f90156115225750610df590612040565b96612abb565b966040519b8c9b60208d01610e5a90603e907f3c7376672076696577426f783d2230203020353030203530302220786d6c6e7381527f3d22687474703a2f2f7777772e77332e6f72672f323030302f737667223e000060208201520190565b661e39ba3cb6329f60c91b81526007017f746578747b77686974652d73706163653a7072652d777261703b77696474683a81527f313030253b666f6e742d66616d696c793a22436f7572696572204e6577222c2060208201526a6d6f6e6f73706163653b7d60a81b6040820152604b017f2e7468696e7b666f6e742d7765696768743a3530303b666f6e742d66616d696c81527f793a22436f7572696572204e6577222c206d6f6e6f73706163653b7d000000006020820152603c017f2e626f6c647b666f6e742d7765696768743a3730303b666f6e742d66616d696c81527f793a22436f7572696572204e6577222c206d6f6e6f73706163653b7d000000006020820152603c01671e17b9ba3cb6329f60c11b81526008017f3c726563742077696474683d223130302522206865696768743d223130302522815270103334b6361e9111989c189a191a11179f60791b60208201526031017f3c7465787420783d2231302220793d2233302220636c6173733d227468696e2281527f207374796c653d22666f6e742d73697a653a313670783b66696c6c3a2363306260208201526b019b3189d911f23a0a6a29d160a51b6040820152604c0161101d91610894565b670103e102827aa1d160c51b815260080161103791610894565b690103e1021a0a922299d160b51b8152600a0161105391610894565b61105c90610a5e565b7f3c7465787420783d2231302220793d2235302220636c6173733d227468696e2281527f207374796c653d22666f6e742d73697a653a313670783b66696c6c3a23656430602082015265189bb19d911f60d11b60408201526046016110c091610894565b6110c990610a5e565b7f3c7465787420783d2231302220793d2238352220636c6173733d227468696e2281527f207374796c653d22666f6e742d73697a653a323670783b66696c6c3a2363306260208201526519b3189d911f60d11b604082015260460161112d91610894565b61113690610a5e565b7f3c7465787420783d2231302220793d223132302220636c6173733d227468696e81527f22207374796c653d22666f6e742d73697a653a323670783b66696c6c3a2363306020820152663119b3189d911f60c91b604082015260470161119b91610894565b6111a490610a5e565b7f3c7465787420783d2231302220793d223230352220636c6173733d22626f6c6481527f22207374796c653d22666f6e742d73697a653a383070783b66696c6c3a23666560208201526630991c191d911f60c91b604082015260470161120991610894565b61121290610a5e565b7f3c7465787420783d2231302220793d223239352220636c6173733d22626f6c6481527f22207374796c653d22666f6e742d73697a653a383070783b66696c6c3a23666560208201526630991c191d911f60c91b604082015260470161127791610894565b61128090610a5e565b7f3c7465787420783d2231302220793d223338352220636c6173733d22626f6c6481527f22207374796c653d22666f6e742d73697a653a383070783b66696c6c3a23666560208201526630991c191d911f60c91b60408201526047016112e591610894565b6112ee90610a5e565b7f3c7465787420783d2231302220793d223433302220636c6173733d227468696e81527f22207374796c653d22666f6e742d73697a653a313670783b66696c6c3a23633060208201527003119b3189d911f2a27a5a2a71024a21d1607d1b604082015260510161135d91610894565b61136690610a5e565b7f3c7465787420783d2231302220793d223435352220636c6173733d227468696e81527f22207374796c653d22666f6e742d73697a653a313670783b66696c6c3a23633060208201526e03119b3189d911f2920a924aa2c9d1608d1b6040820152604f016113d391610894565b6113dc90610a5e565b7f3c7465787420783d2231302220793d223438302220636c6173733d227468696e81527f22207374796c653d22666f6e742d73697a653a313670783b66696c6c3a23633060208201527103119b3189d911f2120a1a5a2a210212c9d160751b604082015260520161144c91610894565b61145590610a5e565b651e17b9bb339f60d11b815260060103601f19810182526114769082610434565b61147f9061265f565b61148882610a0d565b5261149281610a0d565b5061149b610a71565b6114a482610a1d565b526114ae81610a1d565b506114b8816109eb565b51906114c3816109fd565b516114cd82610a0d565b51916114d890610a1d565b51604051928392602084016114ec91610894565b6114f591610894565b6114fe91610894565b03601f19810182526115109082610434565b6115199061265f565b61046b91610a8f565b61152b826120dd565b5115905061153c57610df5906120dd565b6115459061217a565b610df5565b611553866120dd565b5115905061156d57610dfb6115678661217a565b95610dda565b610dfb6115786108ab565b611567565b6115856108ab565b92610dba565b50611595846120dd565b511515610daa565b6115a690612abb565b98610d75565b838382156115c3576115bd92612220565b9c610c1e565b5050506115bd610921565b9150610c0a610bff565b6115f291925060203d60201161088d5761087e8183610434565b905f610bf9565b9350610bc4610bb6565b61161d91925060203d6020116107e9576107da8183610434565b905f610bb0565b90505f610b81565b61164691925060203d6020116107e9576107da8183610434565b905f610b7b565b91610b52565b6116689293503d8091833e61078c8183610434565b905f80610b41565b90506116a16116af6116828451612abb565b6040516402a34b2b9160dd1b6020820152928391602583015b90610894565b03601f198101835282610434565b90610b19565b91505f610b10565b6116d191923d8091833e61078c8183610434565b905f610b0a565b604051906116e5826103fc565b601782527f5068617365206461746120756e617661696c61626c652e0000000000000000006020830152565b6007111561171b57565b634e487b7160e01b5f52602160045260245ffd5b6040519061173c826103fc565b601982527f4e6f20636f6e746573742e20526566756e6473206f70656e2e000000000000006020830152565b6040519061177582610418565b60248252633832b71760e11b6040837f4e6f20636f6e7465737420696e6576697461626c652e20526566756e6473206f60208201520152565b604051906117bb826103fc565b601482527326b4b73a34b7339039ba30b93a399039b7b7b71760611b6020830152565b604051906117eb826103fc565b601d82527f4d696e74696e6720616e6420726566756e647320617265206f70656e2e0000006020830152565b6040519061182482610418565b602482526334b7339760e11b6040837f4d696e74696e67206973206f7665722e20526566756e64732061726520656e6460208201520152565b6040519061186a826103fc565b601c82527f4177616974696e672073636f72656361726420617070726f76616c2e000000006020830152565b604051906118a382610418565b602a82526934b6903932bbb0b9321760b11b6040837f53636f726563617264206c6f636b656420696e2e204275726e20746f20636c6160208201520152565b156119a2576118f081611711565b600681146119995761190181611711565b600581146119905761191281611711565b80156119875761192181611711565b6001811461197e5761193281611711565b600281146119755761194381611711565b6003811461196c5780611957600492611711565b146119645761046b6116d8565b61046b611896565b5061046b61185d565b5061046b611817565b5061046b6117de565b5061046b6117ae565b5061046b611768565b5061046b61172f565b5061046b6116d8565b9190820391821161090157565b604051906119c5826103fc565b600d82526c1031b0b932399039b7903330b960991b6020830152565b604051906119ee826103fc565b600c82526b1031b0b9321039b7903330b960a11b6020830152565b60405190611a16826103fc565b601382527220636172647320696e206578697374656e636560681b6020830152565b60405190611a45826103fc565b6012825271206361726420696e206578697374656e636560701b6020830152565b611a7a9060406060820151910151906119ab565b9181611af7575b50611ac95761046b816001611a9861169b94612abb565b9103611ab9576116a1611aa9611a38565b6040519485936020850190610894565b6116a1611ac4611a09565b611aa9565b61046b816001611adb61169b94612abb565b9103611aec576116a1611aa96119e1565b6116a1611ac46119b8565b60019150611b0481611711565b145f611a81565b908160209103126100f95761046b90610511565b60405190611b2c826103fc565b601582527420bbb0b4ba34b7339039b1b7b932b1b0b93217171760591b6020830152565b9290969594919381611cb9575b50611b73575b505050602061046b930151612220565b604051634f228e1160e01b815260048101939093526020926001600160a01b0392909216915f91908481602481875afa839181611c9a575b50611c92575b50604051635460afa560e11b81525f94908181600481885afa869181611c63575b50611c5a575b50806004915f956040519384809263640abacd60e01b82525afa9182918693611c3b575b5050611c33575b5082611c0f5750611b63565b611c1a939650612bfc565b92611c2a5750505061046b611b1f565b61046b92612220565b92505f611c03565b611c52929350803d1061088d5761087e8183610434565b905f80611bfc565b94506004611bd8565b611c84919250833d8511611c8b575b611c7c8183610434565b810190611b0b565b905f611bd2565b503d611c72565b91505f611bb1565b611cb2919250863d881161088d5761087e8183610434565b905f611bab565b9050611cc481611711565b60038114908115611cd7575b505f611b5d565b60049150611ce481611711565b145f611cd0565b611cf7611d9191612abb565b611d8c606c60405180937f7b226e616d65223a224465666966612047616d65204e465420230000000000006020830152611d3b815180926020603a860191016101a1565b81017f222c226465736372697074696f6e223a224d6574616461746120756e61766169603a820152716c61626c65222c22696d616765223a22227d60701b605a82015203604c810184520182610434565b61265f565b61046b603d60405180937f646174613a6170706c69636174696f6e2f6a736f6e3b6261736536342c0000006020830152611dd481518092602086860191016101a1565b810103601d810184520182610434565b604051630cf9530d60e41b81526001600160a01b0392831660048201529160209183916024918391165afa5f9181611e43575b50611e3a5750604051611e29816103fc565b60018152600360fc1b602082015290565b61046b90612abb565b611e5c91925060203d811161088d5761087e8183610434565b905f611e17565b8051601e10156109f857603e0190565b8051601410156109f85760340190565b8051600a10156109f857602a0190565b9081518110156109f8570160200190565b90611eae8261051e565b611ebb6040519182610434565b8281528092611ecc601f199161051e565b0190602036910137565b90601e825115611f98578251808211611f90575b50600160fd1b6001600160f81b0319611f13611f05866109eb565b516001600160f81b03191690565b1614905f915f14611f8a576001915b81831015611f7d57611f3c611f3784846119ab565b611ea4565b92805b838110611f4f5750929450505050565b80611f5f611f056001938a611e93565b611f76611f6c85846119ab565b91861a9188611e93565b5301611f3f565b505050905061046b6108ab565b81611f22565b90505f611eea565b50905061046b6108ab565b90603c8251601e1015611f98578251808211612038575b50600160fd1b6001600160f81b0319611fd5611f0586611e63565b1614905f915f1461203057601f915b81831015611f7d57611ff9611f3784846119ab565b92805b83811061200c5750929450505050565b8061201c611f056001938a611e93565b612029611f6c85846119ab565b5301611ffc565b601e91611fe4565b90505f611fba565b90601e825160141015611f985782518082116120d5575b50600160fd1b6001600160f81b0319612072611f0586611e73565b1614905f915f146120cd576015915b81831015611f7d57612096611f3784846119ab565b92805b8381106120a95750929450505050565b806120b9611f056001938a611e93565b6120c6611f6c85846119ab565b5301612099565b601491612081565b90505f612057565b9060148251600a1015611f98578251808211612172575b50600160fd1b6001600160f81b031961210f611f0586611e83565b1614905f915f1461216a57600b915b81831015611f7d57612133611f3784846119ab565b92805b8381106121465750929450505050565b80612156611f056001938a611e93565b612163611f6c85846119ab565b5301612136565b600a9161211e565b90505f6120f4565b90600a825115611f9857825180821161220a575b50600160fd1b6001600160f81b03196121a9611f05866109eb565b1614905f915f14612204576001915b81831015611f7d576121cd611f3784846119ab565b92805b8381106121e05750929450505050565b806121f0611f056001938a611e93565b6121fd611f6c85846119ab565b53016121d0565b816121b8565b90505f61218e565b604d811161090157600a0a90565b6001600160a01b0390911691612266906122519061223d90612212565b61226161225c82612256612251828961260b565b612abb565b966127ff565b612632565b61260b565b60038151101561229657604051600360fc1b6020820152906122919082906116a1906021830161169b565b612266565b915f9061eeee81036122d957505060405161674f60f11b60208201529161046b9183916116a19161169b906122cc906022860183565b601760f91b815260010190565b908060049392604051948580926395d89b4160e01b82525afa8015612358576122cc9461046b94836116a19493612334575b505061232761169b9161169b6040519889976020890190610894565b600160fd1b815260010190565b61169b92935061232791612351913d8091833e61078c8183610434565b929161230b565b61046e565b908160209103126100f9575160078110156100f95790565b6001600160a01b03169081156124515760405163038ab08560e11b8082526004820183905260209290918381602481885afa5f9181612432575b5061242657506123c3575b5050505f905f90565b6040519081525f6004820152918190839060249082905afa9182915f936123f7575b50506123f25780806123ba565b600191565b612417929350803d1061241f575b61240f8183610434565b81019061235d565b905f806123e5565b503d612405565b94935050505060019190565b61244a919250853d871161241f5761240f8183610434565b905f6123af565b50505f905f90565b908160609103126100f95780519160406020830151612477816100e8565b92015190565b6001600160a01b031690811561258957604051635a6fd84360e11b808252600482018390525f602483015260609290918381604481885afa5f918291829181612563575b50612554575050506124de575b5050505f905f9061eeee90601290565b81906040519384918252818061250160048201905f602060408401938281520152565b03915afa805f938493859361251d575b5050156124ce57600193565b91945091506125419250803d1061254d575b6125398183610434565b810190612459565b91929091905f80612511565b503d61252f565b60019792965090945092509050565b9150925061257e9150853d871161254d576125398183610434565b91929091905f6124c1565b50505f905f9061eeee90601290565b604051906125a582610418565b604082527f6768696a6b6c6d6e6f707172737475767778797a303132333435363738392b2f6040837f4142434445464748494a4b4c4d4e4f505152535455565758595a61626364656660208201520152565b634e487b7160e01b5f52601260045260245ffd5b8115612615570490565b6125f7565b600281901b91906001600160fe1b0381160361090157565b906103e89182810292818404149015171561090157565b604051612655816103db565b5f8152905f368137565b8051156127395761266e612598565b61268a61268561267e84516108f3565b6003900490565b61261a565b91612697611f3784610906565b92835280815182019060208501935b8282106126e7575050506003905106806001146126d6576002146126c8575090565b603d60f81b5f199091015290565b50613d3d60f01b6001199091015290565b9091936004906003809401938451600190603f9082828260121c16880101518553828282600c1c16880101518386015382828260061c16880101516002860153168501015190820153019391906126a6565b5061046b6108ab565b9061046b90612770604051602092609160f51b8483015260228201526022815261276b81610418565b612809565b92604051938161278986935180928680870191016101a1565b820161279d825180938680850191016101a1565b01038084520182610434565b604051906105e0820182811067ffffffffffffffff8211176103f757604052602e82526105c0366020840137565b906127e182610944565b6127ee6040519182610434565b8281528092611ecc601f1991610944565b8115612615570690565b9081511561291f576128196127a9565b915f9081612826856109eb565b5260019181519181925b808410612856575050505061284c6128519161046b9394612929565b61296b565b6129b0565b9091929461287961287361286d611f058987611e93565b60f81c90565b60ff1690565b9184925b60ff90898289168610156128de57600192916128b26128ac6128736128a58a6128b896610a2d565b5160ff1690565b60081b90565b90610914565b6128d58b6128cd88603a958686061692610a2d565b9060ff169052565b0493019261287d565b50919594935050809691965b6128f8575060010192612830565b9460ff6001603a9261291583858b06166128cd8d86851690610a2d565b01169504806128ea565b905061046b612649565b9060ff80911690612939826127d7565b925f5b83811061294a575050505090565b808361295860019385610a2d565b51166129648288610a2d565b520161293c565b908151612977816127d7565b905f5b818110612988575090925050565b60019060ff61299d5f19838951030188610a2d565b51166129a98286610a2d565b520161297a565b80516129bb81611ea4565b915f90815b8381106129ce575050505090565b60019060407f5a6162636465666768696a6b6d6e6f707172737475767778797a000000000000815191612a0083610418565b603a83527f31323334353637383941424344454647484a4b4c4d4e5051525354555657585960208401528201526001600160f81b031990612a4f9060ff612a478588610a2d565b511690611e93565b5116841a612a5d8288611e93565b53016129c0565b5f546001600160a01b03163303612a7757565b606460405162461bcd60e51b815260206004820152602060248201527f4f776e61626c653a2063616c6c6572206973206e6f7420746865206f776e65726044820152fd5b805f917a184f03e93ff9f4daa797ed6e38ed64bf6a1f01000000000000000080821015612bee575b506d04ee2d6d415b85acef810000000080831015612bdf575b50662386f26fc1000080831015612bd0575b506305f5e10080831015612bc1575b5061271080831015612bb2575b506064821015612ba2575b600a80921015612b98575b600190816021612b51828701611ea4565b95860101905b612b63575b5050505090565b5f19019083906f181899199a1a9b1b9c1cb0b131b232b360811b8282061a835304918215612b9357919082612b57565b612b5c565b9160010191612b40565b9190606460029104910191612b35565b6004919392049101915f612b2a565b6008919392049101915f612b1d565b6010919392049101915f612b0e565b6020919392049101915f612afc565b60409350810491505f612ae3565b90915f198383099280830292838086109503948086039514612c925782851015612c72579082910960018219018216809204600280826003021880830282030280830282030280830282030280830282030280830282030280920290030293600183805f03040190848311900302920304170290565b604051631dcf306360e21b81526004810186905260248101849052604490fd5b50509061046b925061260b56fea2646970667358221220914595e6e6115a924e752861ca7f785b4ab4122d6d95bce0639fdd20649074c764736f6c63430008140033","linkReferences":{}},"methodIdentifiers":{"clearGameIdOverride(address)":"d039b0aa","gameIdOverrideOf(address)":"0b46800f","owner()":"8da5cb5b","renounceOwnership()":"715018a6","setGameIdOverride(address,uint256)":"4ac9bf50","tokenUriOf(address,uint256)":"5e703e71","transferOwnership(address)":"f2fde38b","typeface()":"4d5a1d11"},"id":0}