{"abi":[{"type":"function","name":"ETH","inputs":[],"outputs":[{"name":"","type":"uint256","internalType":"uint256"}],"stateMutability":"view"},{"type":"function","name":"USD","inputs":[],"outputs":[{"name":"","type":"uint256","internalType":"uint256"}],"stateMutability":"view"}],"bytecode":{"object":"0x608080604052346018576098908161001d823930815050f35b5f80fdfe60808060405260043610156011575f80fd5b5f90813560e01c9081631bf6c21b1460495750638322fff2146031575f80fd5b80600319360112604657602060405160018152f35b80fd5b905081600319360112605e5780600260209252f35b5080fdfea264697066735822122046e043531166bfda976f6b18384141269d2fcd3e13ea7c3b03ca13f263a29abe64736f6c63430008140033","linkReferences":{}},"methodIdentifiers":{"ETH()":"8322fff2","USD()":"1bf6c21b"},"id":124}