{"abi":[{"type":"constructor","inputs":[{"name":"_directory","type":"address","internalType":"contract IJBDirectory"},{"name":"_fundingCycleStore","type":"address","internalType":"contract IJBFundingCycleStore"},{"name":"_prices","type":"address","internalType":"contract IJBPrices"}],"stateMutability":"nonpayable"},{"type":"function","name":"balanceOf","inputs":[{"name":"","type":"address","internalType":"contract IJBSingleTokenPaymentTerminal"},{"name":"","type":"uint256","internalType":"uint256"}],"outputs":[{"name":"","type":"uint256","internalType":"uint256"}],"stateMutability":"view"},{"type":"function","name":"currentOverflowOf","inputs":[{"name":"_terminal","type":"address","internalType":"contract IJBSingleTokenPaymentTerminal"},{"name":"_projectId","type":"uint256","internalType":"uint256"}],"outputs":[{"name":"","type":"uint256","internalType":"uint256"}],"stateMutability":"view"},{"type":"function","name":"currentReclaimableOverflowOf","inputs":[{"name":"_projectId","type":"uint256","internalType":"uint256"},{"name":"_tokenCount","type":"uint256","internalType":"uint256"},{"name":"_totalSupply","type":"uint256","internalType":"uint256"},{"name":"_overflow","type":"uint256","internalType":"uint256"}],"outputs":[{"name":"","type":"uint256","internalType":"uint256"}],"stateMutability":"view"},{"type":"function","name":"currentReclaimableOverflowOf","inputs":[{"name":"_terminal","type":"address","internalType":"contract IJBSingleTokenPaymentTerminal"},{"name":"_projectId","type":"uint256","internalType":"uint256"},{"name":"_tokenCount","type":"uint256","internalType":"uint256"},{"name":"_useTotalOverflow","type":"bool","internalType":"bool"}],"outputs":[{"name":"","type":"uint256","internalType":"uint256"}],"stateMutability":"view"},{"type":"function","name":"currentTotalOverflowOf","inputs":[{"name":"_projectId","type":"uint256","internalType":"uint256"},{"name":"_decimals","type":"uint256","internalType":"uint256"},{"name":"_currency","type":"uint256","internalType":"uint256"}],"outputs":[{"name":"","type":"uint256","internalType":"uint256"}],"stateMutability":"view"},{"type":"function","name":"directory","inputs":[],"outputs":[{"name":"","type":"address","internalType":"contract IJBDirectory"}],"stateMutability":"view"},{"type":"function","name":"fundingCycleStore","inputs":[],"outputs":[{"name":"","type":"address","internalType":"contract IJBFundingCycleStore"}],"stateMutability":"view"},{"type":"function","name":"prices","inputs":[],"outputs":[{"name":"","type":"address","internalType":"contract IJBPrices"}],"stateMutability":"view"},{"type":"function","name":"recordAddedBalanceFor","inputs":[{"name":"_projectId","type":"uint256","internalType":"uint256"},{"name":"_amount","type":"uint256","internalType":"uint256"}],"outputs":[],"stateMutability":"nonpayable"},{"type":"function","name":"recordDistributionFor","inputs":[{"name":"_projectId","type":"uint256","internalType":"uint256"},{"name":"_amount","type":"uint256","internalType":"uint256"},{"name":"_currency","type":"uint256","internalType":"uint256"}],"outputs":[{"name":"fundingCycle","type":"tuple","internalType":"struct JBFundingCycle","components":[{"name":"number","type":"uint256","internalType":"uint256"},{"name":"configuration","type":"uint256","internalType":"uint256"},{"name":"basedOn","type":"uint256","internalType":"uint256"},{"name":"start","type":"uint256","internalType":"uint256"},{"name":"duration","type":"uint256","internalType":"uint256"},{"name":"weight","type":"uint256","internalType":"uint256"},{"name":"discountRate","type":"uint256","internalType":"uint256"},{"name":"ballot","type":"address","internalType":"contract IJBFundingCycleBallot"},{"name":"metadata","type":"uint256","internalType":"uint256"}]},{"name":"distributedAmount","type":"uint256","internalType":"uint256"}],"stateMutability":"nonpayable"},{"type":"function","name":"recordMigration","inputs":[{"name":"_projectId","type":"uint256","internalType":"uint256"}],"outputs":[{"name":"balance","type":"uint256","internalType":"uint256"}],"stateMutability":"nonpayable"},{"type":"function","name":"recordPaymentFrom","inputs":[{"name":"_payer","type":"address","internalType":"address"},{"name":"_amount","type":"tuple","internalType":"struct JBTokenAmount","components":[{"name":"token","type":"address","internalType":"address"},{"name":"value","type":"uint256","internalType":"uint256"},{"name":"decimals","type":"uint256","internalType":"uint256"},{"name":"currency","type":"uint256","internalType":"uint256"}]},{"name":"_projectId","type":"uint256","internalType":"uint256"},{"name":"_baseWeightCurrency","type":"uint256","internalType":"uint256"},{"name":"_beneficiary","type":"address","internalType":"address"},{"name":"_memo","type":"string","internalType":"string"},{"name":"_metadata","type":"bytes","internalType":"bytes"}],"outputs":[{"name":"fundingCycle","type":"tuple","internalType":"struct JBFundingCycle","components":[{"name":"number","type":"uint256","internalType":"uint256"},{"name":"configuration","type":"uint256","internalType":"uint256"},{"name":"basedOn","type":"uint256","internalType":"uint256"},{"name":"start","type":"uint256","internalType":"uint256"},{"name":"duration","type":"uint256","internalType":"uint256"},{"name":"weight","type":"uint256","internalType":"uint256"},{"name":"discountRate","type":"uint256","internalType":"uint256"},{"name":"ballot","type":"address","internalType":"contract IJBFundingCycleBallot"},{"name":"metadata","type":"uint256","internalType":"uint256"}]},{"name":"tokenCount","type":"uint256","internalType":"uint256"},{"name":"delegateAllocations","type":"tuple[]","internalType":"struct JBPayDelegateAllocation[]","components":[{"name":"delegate","type":"address","internalType":"contract IJBPayDelegate"},{"name":"amount","type":"uint256","internalType":"uint256"}]},{"name":"memo","type":"string","internalType":"string"}],"stateMutability":"nonpayable"},{"type":"function","name":"recordRedemptionFor","inputs":[{"name":"_holder","type":"address","internalType":"address"},{"name":"_projectId","type":"uint256","internalType":"uint256"},{"name":"_tokenCount","type":"uint256","internalType":"uint256"},{"name":"_memo","type":"string","internalType":"string"},{"name":"_metadata","type":"bytes","internalType":"bytes"}],"outputs":[{"name":"fundingCycle","type":"tuple","internalType":"struct JBFundingCycle","components":[{"name":"number","type":"uint256","internalType":"uint256"},{"name":"configuration","type":"uint256","internalType":"uint256"},{"name":"basedOn","type":"uint256","internalType":"uint256"},{"name":"start","type":"uint256","internalType":"uint256"},{"name":"duration","type":"uint256","internalType":"uint256"},{"name":"weight","type":"uint256","internalType":"uint256"},{"name":"discountRate","type":"uint256","internalType":"uint256"},{"name":"ballot","type":"address","internalType":"contract IJBFundingCycleBallot"},{"name":"metadata","type":"uint256","internalType":"uint256"}]},{"name":"reclaimAmount","type":"uint256","internalType":"uint256"},{"name":"delegateAllocations","type":"tuple[]","internalType":"struct JBRedemptionDelegateAllocation[]","components":[{"name":"delegate","type":"address","internalType":"contract IJBRedemptionDelegate"},{"name":"amount","type":"uint256","internalType":"uint256"}]},{"name":"memo","type":"string","internalType":"string"}],"stateMutability":"nonpayable"},{"type":"function","name":"recordUsedAllowanceOf","inputs":[{"name":"_projectId","type":"uint256","internalType":"uint256"},{"name":"_amount","type":"uint256","internalType":"uint256"},{"name":"_currency","type":"uint256","internalType":"uint256"}],"outputs":[{"name":"fundingCycle","type":"tuple","internalType":"struct JBFundingCycle","components":[{"name":"number","type":"uint256","internalType":"uint256"},{"name":"configuration","type":"uint256","internalType":"uint256"},{"name":"basedOn","type":"uint256","internalType":"uint256"},{"name":"start","type":"uint256","internalType":"uint256"},{"name":"duration","type":"uint256","internalType":"uint256"},{"name":"weight","type":"uint256","internalType":"uint256"},{"name":"discountRate","type":"uint256","internalType":"uint256"},{"name":"ballot","type":"address","internalType":"contract IJBFundingCycleBallot"},{"name":"metadata","type":"uint256","internalType":"uint256"}]},{"name":"usedAmount","type":"uint256","internalType":"uint256"}],"stateMutability":"nonpayable"},{"type":"function","name":"usedDistributionLimitOf","inputs":[{"name":"","type":"address","internalType":"contract IJBSingleTokenPaymentTerminal"},{"name":"","type":"uint256","internalType":"uint256"},{"name":"","type":"uint256","internalType":"uint256"}],"outputs":[{"name":"","type":"uint256","internalType":"uint256"}],"stateMutability":"view"},{"type":"function","name":"usedOverflowAllowanceOf","inputs":[{"name":"","type":"address","internalType":"contract IJBSingleTokenPaymentTerminal"},{"name":"","type":"uint256","internalType":"uint256"},{"name":"","type":"uint256","internalType":"uint256"}],"outputs":[{"name":"","type":"uint256","internalType":"uint256"}],"stateMutability":"view"},{"type":"error","name":"CURRENCY_MISMATCH","inputs":[]},{"type":"error","name":"DISTRIBUTION_AMOUNT_LIMIT_REACHED","inputs":[]},{"type":"error","name":"FUNDING_CYCLE_DISTRIBUTION_PAUSED","inputs":[]},{"type":"error","name":"FUNDING_CYCLE_PAYMENT_PAUSED","inputs":[]},{"type":"error","name":"FUNDING_CYCLE_REDEEM_PAUSED","inputs":[]},{"type":"error","name":"INADEQUATE_CONTROLLER_ALLOWANCE","inputs":[]},{"type":"error","name":"INADEQUATE_PAYMENT_TERMINAL_STORE_BALANCE","inputs":[]},{"type":"error","name":"INSUFFICIENT_TOKENS","inputs":[]},{"type":"error","name":"INVALID_AMOUNT_TO_SEND_DELEGATE","inputs":[]},{"type":"error","name":"INVALID_FUNDING_CYCLE","inputs":[]},{"type":"error","name":"PAYMENT_TERMINAL_MIGRATION_NOT_ALLOWED","inputs":[]},{"type":"error","name":"PRBMath__MulDivOverflow","inputs":[{"name":"prod1","type":"uint256","internalType":"uint256"},{"name":"denominator","type":"uint256","internalType":"uint256"}]}],"bytecode":{"object":"0x60e0346200014157601f62002ef438819003918201601f19168301916001600160401b038311848410176200014557808492606094604052833981010312620001415780516001600160a01b0391908281168103620001415760208201519183831683036200014157604001519283168303620001415760015f5560805260a05260c052604051612d9a90816200015a82396080518181816103eb0152818161077b015281816109e60152818161140b01528181611ad6015281816125970152612865015260a0518181816101ea0152818161035e015281816108c601528181610ace01528181611116015281816111e00152818161138d01528181611a1a01528181611cfd01528181611e930152612483015260c0518181816102e6015281816105cb015281816115d20152818161215f015281816126fa015261298a0152f35b5f80fd5b634e487b7160e01b5f52604160045260245ffdfe6080806040526004361015610012575f80fd5b5f3560e01c908162fdd58e146117295750806325386715146113425780632fa1b3911461120f578063557e7155146111cb5780636bb6a5ad146110da578063a2df1f9514610824578063a57c7f59146107fd578063b753d7e9146107e4578063c294b2f4146107aa578063c41c2f2414610766578063c664459714610315578063d3419bf3146102d1578063d49031c0146101a3578063d4c3a8d214610162578063e7c8e3e3146101105763e8ba563a146100cb575f80fd5b3461010c576100d93661191e565b9160018060a01b03165f52600260205260405f20905f5260205260405f20905f52602052602060405f2054604051908152f35b5f80fd5b3461010c57604036600319011261010c57600435335f52600160205260405f20815f5260205261014660243560405f2054611e4d565b90335f52600160205260405f20905f5260205260405f20555f80f35b3461010c576101703661191e565b9160018060a01b03165f52600360205260405f20905f5260205260405f20905f52602052602060405f2054604051908152f35b3461010c57604036600319011261010c576101bc611768565b6040516321d1336160e11b815260248035600483018190529261012092916001600160a01b039084908490817f000000000000000000000000000000000000000000000000000000000000000085165afa928315610292576004945f9461029d575b50506020906040519485809263e5a6b10f60e01b825285165afa928315610292575f9361025c575b60206102548585888661254d565b604051908152f35b9250906020833d821161028a575b8161027760209383611848565b8101031261010c57915191906020610246565b3d915061026a565b6040513d5f823e3d90fd5b602092945090816102c292903d106102ca575b6102ba8183611848565b810190611948565b92908661021e565b503d6102b0565b3461010c575f36600319011261010c576040517f00000000000000000000000000000000000000000000000000000000000000006001600160a01b03168152602090f35b3461010c576103233661177e565b9161032c611d67565b50610335612b6a565b6040516321d1336160e11b81526004810182905291610120906001600160a01b039082856024817f000000000000000000000000000000000000000000000000000000000000000086165afa948515610292575f95610747575b50600191828061010088015160491c161461073557335f526020916002835260405f20865f52835260405f2087515f5283526103cf8160405f2054611e4d565b97604051632eec7b5560e11b81528760048201528481602481877f0000000000000000000000000000000000000000000000000000000000000000165afa90811561029257849186915f91610718575b506004604051809481936328a69a0560e21b8352165afa908115610292575f916106fb575b5088850151604051637e062a3560e11b815290918682600481335afa908115610292578a876104b5956040955f956106cc575b508551630e8db21360e41b8152600481019390935260248301523360448301526001600160a01b039093166064820152938492839182906084820190565b0392165afa908115610292575f905f9261069a575b50808b11908115610691575b5061067f57810361066d5760405163e5a6b10f60e01b8152908482600481335afa9081156102925785925f9261063c575b508082036105a3575050509050935b335f5282825260405f20815f52825260405f205485116105915761014096335f526002835260405f20825f52835260405f2087515f52835260405f2055335f5282825260405f20815f5282528460405f20540391335f5283815260405f20915f525260405f20555f5561058c6040518094611798565b820152f35b6040516317e53f6760e11b8152600490fd5b6064906040519586938492635268657960e11b845260048401526024830152601260448301527f0000000000000000000000000000000000000000000000000000000000000000165afa908115610292575f9161060b575b6106059250612bbe565b93610516565b90508282813d8311610635575b6106228183611848565b8101031261010c576106059151906105fb565b503d610618565b8381949293503d8311610666575b6106548183611848565b8101031261010c57849151908b610507565b503d61064a565b60405163e56ea4e760e01b8152600490fd5b604051630236b92b60e21b8152600490fd5b9050158b6104d6565b90506106be915060403d6040116106c5575b6106b68183611848565b810190612446565b908b6104ca565b503d6106ac565b6106ed9195508b3d8d116106f4575b6106e58183611848565b8101906119c8565b935f610477565b503d6106db565b6107129150853d87116106f4576106e58183611848565b8a610444565b61072f9150823d84116106f4576106e58183611848565b8c61041f565b60405163861e9dcd60e01b8152600490fd5b61075f919550833d85116102ca576102ba8183611848565b938661038f565b3461010c575f36600319011261010c576040517f00000000000000000000000000000000000000000000000000000000000000006001600160a01b03168152602090f35b3461010c57608036600319011261010c576107c3611768565b60643590811515820361010c576020916102549160443590602435906119e7565b3461010c5760206102546107f73661177e565b91612835565b3461010c57608036600319011261010c576020610254606435604435602435600435611cce565b3461010c5760a036600319011261010c5761083d611768565b6064356001600160401b03811161010c573660238201121561010c5761086d903690602481600401359101611884565b6084356001600160401b03811161010c5761088c9036906004016118ba565b90610895611d67565b5061089e612b6a565b6040516321d1336160e11b8152602480356004830152606094919391905f90610120908690817f00000000000000000000000000000000000000000000000000000000000000006001600160a01b03165afa948515610292575f956110b7575b50600180610100870151604a1c16146110a5575f8660405161091f816117f6565b828152826020820152826040820152015260405192637e062a3560e11b8452602084600481335afa938415610292575f94611084575b5060405163313ce56760e01b815294602086600481335afa958615610292575f96611050575b5060405163e5a6b10f60e01b815292602084600481335afa938415610292575f9461101c575b506001806101008a015160511c16145f14611008576109c38488602435612835565b935b604051632eec7b5560e11b81526024803560048301529098906020908a90817f00000000000000000000000000000000000000000000000000000000000000006001600160a01b03165afa988915610292576024996020915f91610feb575b5060405163c18f2d3160e01b81528b3560048201529a8b9182906001600160a01b03165afa988915610292575f99610fb7575b508860443511610fa65785610f8d575b60405197610a74896117f6565b6001600160a01b03168852602088018390526040880152898701526101008801516001605382901c8116149081610f77575b5015610f695750604051633157d5c760e21b81526024803560048301529095906020908790817f00000000000000000000000000000000000000000000000000000000000000006001600160a01b03165afa958615610292575f96610f38575b506020880151956001806101008b015160511c1614906003811015610f2457610f1557610b3289612b4e565b915b60405195866101808101106001600160401b0361018089011117610f01575f998a99610cb3996101808a01604052338a5260018060a01b031660208a015260243560408a01528d890152604435608089015260a088015260c087015260e086015261010085015261012084015261014083015261016082015260018060a01b0361010086015160541c16906040519485809481936314a39fa360e31b83526020600484015260018060a01b03815116602484015260018060a01b036020820151166044840152604081015160648401528a8101516084840152608081015160a484015260a081015160c484015260c081015160e4840152610c6460e08201516101048501906060809160018060a01b03815116845260208101516020850152604081015160408501520151910152565b61010081015115156101848401526101208101516101a4840152610160610c9e6101408301516101e06101c48701526102048601906118f9565b910151838203602319016101e48501526118f9565b03925af18015610292575f915f945f92610e01575b50509290915b828451610db6575b335f52600160205260405f206024355f5260205260405f205481116105915780610d7d575b5060015f556040519261018090610d158583810194611798565b610120850152610140840152835180915260206101a084019401905f5b818110610d52578480610d4e88878382036101608501526118f9565b0390f35b825180516001600160a01b031687526020908101518188015260409096019590920191600101610d32565b335f52600160205260405f206024355f5260205260405f205403335f52600160205260405f206024355f5260205260405f205584610cfb565b915f9391935b8551811015610df7576020610dd18288611e04565b51015180610de3575b50600101610dbc565b610df09060019295611e4d565b9390610dda565b5091929092610cd6565b92509350503d90815f853e610e168285611848565b83828101031261010c57825160208401516001600160401b03811161010c57610e4490838601908601611dab565b9160408501516001600160401b03811161010c57818601601f82880101121561010c578086015191610e7583611ded565b96610e836040519889611848565b83885260208089019460061b848301010192828201841161010c578101602001935b838510610eba57505050505090928480610cc8565b604085848401031261010c5760405190610ed382611811565b8551906001600160a01b038216820361010c5782602092604094528288015183820152815201940193610ea5565b634e487b7160e01b5f52604160045260245ffd5b610f1e89612b32565b91610b34565b634e487b7160e01b5f52602160045260245ffd5b610f5b91965060203d602011610f62575b610f538183611848565b81019061242e565b9489610b06565b503d610f49565b969550935050505090610cce565b60541c6001600160a01b0316151590508a610aa6565b9150610fa085896044358c60243561245c565b91610a67565b604051625c579160e91b8152600490fd5b9098506020813d602011610fe3575b81610fd360209383611848565b8101031261010c5751978b610a57565b3d9150610fc6565b6110029150823d84116106f4576106e58183611848565b8d610a24565b61101684896024353361254d565b936109c5565b9093506020813d602011611048575b8161103860209383611848565b8101031261010c575192896109a1565b3d915061102b565b9095506020813d60201161107c575b8161106c60209383611848565b8101031261010c5751948861097b565b3d915061105f565b61109e91945060203d6020116106f4576106e58183611848565b9287610955565b60405163a97cf58f60e01b8152600490fd5b6110d39195506101203d610120116102ca576102ba8183611848565b93866108fe565b3461010c5760208060031936011261010c576004356110f7612b6a565b6040516321d1336160e11b8152600481018290526101209081816024817f00000000000000000000000000000000000000000000000000000000000000006001600160a01b03165afa918215610292576001928392610100925f926111ae575b50500151604d1c160361119c57335f526001825260405f20815f52825260405f205490335f526001835260405f20905f5282525f604081205560015f55604051908152f35b6040516373e4f05f60e11b8152600490fd5b6111c49250803d106102ca576102ba8183611848565b8680611157565b3461010c575f36600319011261010c576040517f00000000000000000000000000000000000000000000000000000000000000006001600160a01b03168152602090f35b3461010c576101408060031936011261010c5761122a611768565b608036602319011261010c576001600160a01b039060e435828116810361010c5761010435906001600160401b039283831161010c573660238401121561010c5782600401359184831161010c57366024848601011161010c576101243594851161010c5760246112a26112c39636906004016118ba565b946112ab611d67565b506112b4612b6a565b019160c4359060a43590611e68565b90600195939295805f55604051968795610180916112e48884810198611798565b61012088015286015281518094526101a08501936020809301925f975b82891061131d578780610d4e89898382036101608501526118f9565b8451805182168852820151828801529783019789975060409096019593810193611301565b3461010c576113503661177e565b61135b929192611d67565b50611364612b6a565b6040516321d1336160e11b81526004810183905291610120906001600160a01b039082856024817f000000000000000000000000000000000000000000000000000000000000000086165afa948515610292575f9561170a575b50335f526020916003835260405f20825f52835260405f20968387019788515f5284526113ef8160405f2054611e4d565b91604051632eec7b5560e11b81528460048201528581602481857f0000000000000000000000000000000000000000000000000000000000000000165afa90811561029257829187915f916116ed575b506004604051809481936328a69a0560e21b8352165afa908115610292575f916116d0575b508951604051637e062a3560e11b815290918782600481335afa9081156102925787856114d3956040955f956116b1575b508551633d40dab160e11b8152600481019390935260248301523360448301526001600160a01b039093166064820152938492839182906084820190565b0392165afa908115610292575f905f9261168f575b50808511908115611686575b5061167457870361066d5760405163e5a6b10f60e01b8152968588600481335afa978815610292575f98611645575b5085908881036115ab5750505061153e90955b87843361254d565b85116105915761014096335f526003845260405f20835f52845260405f2090515f52835260405f2055335f526001825260405f20815f5282526115858460405f2054611e2c565b91335f526001815260405f20915f525260405f205560015f5561058c6040518094611798565b606460405180948193635268657960e11b835260048301528b6024830152601260448301527f0000000000000000000000000000000000000000000000000000000000000000165afa908115610292575f91611616575b506116109061153e92612bbe565b95611536565b90508481813d831161163e575b61162d8183611848565b8101031261010c575161153e611602565b503d611623565b9097508581813d831161166d575b61165d8183611848565b8101031261010c57519685611523565b503d611653565b604051635b76558960e11b8152600490fd5b9050158b6114f4565b90506116aa915060403d6040116106c5576106b68183611848565b908b6114e8565b6116c99195508c8d3d106106f4576106e58183611848565b935f611495565b6116e79150863d88116106f4576106e58183611848565b8a611464565b6117049150823d84116106f4576106e58183611848565b8c61143f565b611722919550833d85116102ca576102ba8183611848565b93866113be565b3461010c57604036600319011261010c576020906001600160a01b0361174d611768565b165f526001825260405f206024355f52825260405f20548152f35b600435906001600160a01b038216820361010c57565b606090600319011261010c57600435906024359060443590565b805182526020810151602083015260408101516040830152606081015160608301526080810151608083015260a081015160a083015260c081015160c083015260018060a01b0360e08201511660e083015261010080910151910152565b608081019081106001600160401b03821117610f0157604052565b604081019081106001600160401b03821117610f0157604052565b61012081019081106001600160401b03821117610f0157604052565b90601f801991011681019081106001600160401b03821117610f0157604052565b6001600160401b038111610f0157601f01601f191660200190565b92919261189082611869565b9161189e6040519384611848565b82948184528183011161010c578281602093845f960137010152565b9080601f8301121561010c578160206118d593359101611884565b90565b5f5b8381106118e95750505f910152565b81810151838201526020016118da565b90602091611912815180928185528580860191016118d8565b601f01601f1916010190565b606090600319011261010c576004356001600160a01b038116810361010c57906024359060443590565b908161012091031261010c57604051906119618261182c565b805182526020810151602083015260408101516040830152606081015160608301526080810151608083015260a081015160a083015260c081015160c083015260e081015160018060a01b038116810361010c5760e0830152610100809101519082015290565b9081602091031261010c57516001600160a01b038116810361010c5790565b604080516321d1336160e11b815260048082018590529395939491939192610120916001600160a01b03919083816024817f000000000000000000000000000000000000000000000000000000000000000087165afa938415611bb3575f94611cad575b50508192935f905f14611c2b5750855163313ce56760e01b8152916020911681838981845afa928315611bb3579088915f94611bf9575b50829088519283809263e5a6b10f60e01b82525afa918215611bb3575f92611bc8575b5050611ab19188612835565b945b8515611bbd578451632eec7b5560e11b81528181018890529060209081836024817f000000000000000000000000000000000000000000000000000000000000000088165afa928315611bb3579089915f94611b8f575b506024908394958951968794859363c18f2d3160e01b8552840152165afa948515611b8657505f94611b52575b5050828211611b49576118d59461245c565b50505050505f90565b8181959293953d8311611b7f575b611b6a8183611848565b81010312611b7c575051915f80611b37565b80fd5b503d611b60565b513d5f823e3d90fd5b83945090611bab602492853d87116106f4576106e58183611848565b945090611b0a565b87513d5f823e3d90fd5b505050505050505f90565b81819392933d8311611bf2575b611bdf8183611848565b81010312611b7c575051611ab15f611aa5565b503d611bd5565b9150928282813d8311611c24575b611c118183611848565b81010312611b7c57505191879082611a82565b503d611c07565b865163e5a6b10f60e01b81529192509060208189818787165afa918215611ca2578591818b9294611c68575b5050611c629361254d565b94611ab3565b92509250506020823d8211611c9a575b81611c8560209383611848565b81010312611b7c5750518388611c625f611c57565b3d9150611c78565b8751903d90823e3d90fd5b8394509081611cc792903d106102ca576102ba8183611848565b925f611a4b565b9291908215611d5f57818111611d5f576040516321d1336160e11b8152600481018590526101209485826024817f00000000000000000000000000000000000000000000000000000000000000006001600160a01b03165afa918215610292576118d5965f93611d40575b505061245c565b611d57929350803d106102ca576102ba8183611848565b905f80611d39565b505050505f90565b60405190611d748261182c565b816101005f918281528260208201528260408201528260608201528260808201528260a08201528260c08201528260e08201520152565b81601f8201121561010c578051611dc181611869565b92611dcf6040519485611848565b8184526020828401011161010c576118d591602080850191016118d8565b6001600160401b038111610f015760051b60200190565b8051821015611e185760209160051b010190565b634e487b7160e01b5f52603260045260245ffd5b91908203918211611e3957565b634e487b7160e01b5f52601160045260245ffd5b91908201809211611e3957565b604d8111611e3957600a0a90565b6040516321d1336160e11b8152600481018390529697966060969495909492939291610120866024817f00000000000000000000000000000000000000000000000000000000000000006001600160a01b03165afa958615610292575f9661240b575b5085998651156123f95760018061010089015160481c16146123e7576101008701516001808260521c161490816123d1575b50156123b65760208701519360a08801519361ffff6101008a015160181c169160405194856101408101106001600160401b0361014088011117610f015761014086016040523386526001600160a01b03166020860152608036602319011261010c5760405192611f6d846117f6565b602435966001600160a01b038816880361010c575f9c8d998f8d90886120cc9c611fd49a52604435602082015260643560408201526084358282015260408c01528a0152608089015260018060a01b031660a088015260c087015260e08601523691611884565b610100838101919091526101208301919091528601516040805163d46cf17160e01b815260206004820181905284516001600160a01b0390811660248401528186015181166044840152838601518051821660648501529182015160848401529281015160a48301526060015160c482015298899460549390931c9091169284928391808d015160e4840152608081015161010484015260a08101516001600160a01b031661012484015260c081015161014484015260e08101516101648401526101008101516101a0610184850152610120906120b7906101c48601906118f9565b910151838203602319016101a48501526118f9565b03925af18015610292575f94859686926122a5575b50509493915b60443580948751612238575b851561222c5750806121ed575b505081156121e557606435906084355f918082145f14612134575050509061212b6121319392611e5a565b91612cee565b92565b604051635268657960e11b8152600481019290925260248201526044810192909252906020816064817f00000000000000000000000000000000000000000000000000000000000000006001600160a01b03165afa9182156121d95780926121a3575b50509061213192612cee565b9091506020823d82116121d1575b816121be60209383611848565b81010312611b7c5750516121315f612197565b3d91506121b1565b604051903d90823e3d90fd5b505f94915050565b61220d90335f52600160205260405f20835f5260205260405f2054611e4d565b90335f52600160205260405f20905f5260205260405f20555f80612100565b98505f97945050505050565b97949290989593915f5b8851811015612297576020612257828b611e04565b51015180612269575b50600101612242565b909a8082116122855760019161227e91611e2c565b9a90612260565b6040516336a8da9360e11b8152600490fd5b5091939598909294976120f3565b915095503d908186883e6122b98288611848565b8682810103126123b25785519060208701516001600160401b0381116123ae576122e890828901908901611dab565b956040880151906001600160401b038211611b7c57828901601f838b01011215611b7c57818901519261231a84611ded565b996123286040519b8c611848565b848b526020808c019560061b85830101019382820185116123aa578101602001945b8486106123605750505050505093945f806120e1565b60408684840103126123aa5760405161237881611811565b86516001600160a01b03811681036123a657918160409360209352828901518382015281520195019461234a565b8580fd5b8380fd5b8680fd5b8480fd5b505060a08501519395506123cb913691611884565b936120e7565b60541c6001600160a01b0316151590505f611efd565b60405163a3bb913360e01b8152600490fd5b60405163174b338d60e11b8152600490fd5b6124279196506101203d610120116102ca576102ba8183611848565b945f611ecb565b9081602091031261010c5751600381101561010c5790565b919082604091031261010c576020825192015190565b93929384831461251857604051633157d5c760e21b815260048101919091526020816024817f00000000000000000000000000000000000000000000000000000000000000006001600160a01b03165afa908115610292575f9161252f575b506003811015610f2457612520576124d290612b4e565b915b8215611d5f5783826124e592612cee565b916127109182821461251857818303928311611e39576118d5946125129361250c92612cee565b90611e4d565b90612c67565b505050905090565b61252990612b32565b916124d4565b612547915060203d8111610f6257610f538183611848565b5f6124bb565b91929060018060a01b03808416945f9386855260209160018352604094858720818852845285872054978815612828578651632eec7b5560e11b81526004810183905285816024817f00000000000000000000000000000000000000000000000000000000000000008b165afa9081156128015787929187918b9161280b575b5060048a51809581936328a69a0560e21b8352165afa9182156128015790600492918a926127e2575b5086850151878d8b5195868092637e062a3560e11b82525afa9384156127d85791898b949261266c989796948e956127b9575b508551630e8db21360e41b81526004810188905260248101919091526001600160a01b039283166044820152919093166064820152958692839182906084820190565b0392165afa998a156127af578893899b612784575b508852600285528688209088528452858720905187528352848620546126a691611e2c565b968715158061277a575b6126ce575b50505050508282115f146126c857500390565b91505090565b906064839286999799519586938492635268657960e11b845260048401526024830152601260448301527f0000000000000000000000000000000000000000000000000000000000000000165afa92831561277157508592612741575b505061273691612bbe565b915f808080806126b5565b90809250813d831161276a575b6127588183611848565b810103126123aa57516127365f61272b565b503d61274e565b513d87823e3d90fd5b50818114156126b0565b6127a4919b506126a69450889392933d8a116106c5576106b68183611848565b9a9093919291612681565b87513d8a823e3d90fd5b6127d19195508b3d8d116106f4576106e58183611848565b935f612629565b8a513d8d823e3d90fd5b6127fa919250873d89116106f4576106e58183611848565b905f6125f6565b88513d8b823e3d90fd5b6128229150823d84116106f4576106e58183611848565b5f6125cd565b5050505050505091505090565b6040805163d175415360e01b81526004808201849052939591936024935f9390926001600160a01b0391858288817f000000000000000000000000000000000000000000000000000000000000000087165afa918215612aad578692612a07575b508599869a5b83518c101561293057846128b08d86611e04565b51168a5180916351970f4b60e11b82528989830152818c60209485935afa918215612926578a926128f2575b50506128ea90600192611e4d565b9b019a61289c565b90809250813d831161291f575b6129098183611848565b8101031261291b5751816128ea6128dc565b8880fd5b503d6128ff565b8c513d8c823e3d90fd5b97955097959891509850600181145f14612961575050505050915b5060128103612958575090565b6118d591612ad5565b60209260019260649287519687958694635268657960e11b8652850152830152601260448301527f0000000000000000000000000000000000000000000000000000000000000000165afa9182156129fe575084916129cb575b506129c591612bbe565b9161294b565b90506020813d82116129f6575b816129e560209383611848565b810103126123aa57516129c56129bb565b3d91506129d8565b513d86823e3d90fd5b9091503d8087833e612a198183611848565b8101906020908181840312612aa9578051906001600160401b03821161291b57019180601f84011215612aa9578251612a5181611ded565b93612a5e8c519586611848565b818552838086019260051b820101928311612aa5578301905b828210612a895750505050905f612896565b81518781168103612aa1578152908301908301612a77565b8a80fd5b8980fd5b8780fd5b88513d88823e3d90fd5b8115612ac1570490565b634e487b7160e01b5f52601260045260245ffd5b9060128103612ae2575090565b6012811115612b14576011198101908111611e3957612b0090611e5a565b90818102918183041490151715611e395790565b6012039060128211611e3957612b2c6118d592611e5a565b90612ab7565b610100015160281c61ffff16612710908103908111611e395790565b610100015160381c61ffff16612710908103908111611e395790565b60025f5414612b795760025f55565b60405162461bcd60e51b815260206004820152601f60248201527f5265656e7472616e637947756172643a207265656e7472616e742063616c6c006044820152606490fd5b670de0b6b3a7640000915f198383099280830292838086109503948086039514612c5a5782851015612c3c579082910960018219018216809204600280826003021880830282030280830282030280830282030280830282030280830282030280920290030293600183805f03040190848311900302920304170290565b6044858460405191631dcf306360e21b835260048301526024820152fd5b5050906118d59250612ab7565b91905f1981840981840291828083109203918083039214612ce3576127109081831015612cc5577fbc01a36e2eb1c432ca57a786c226809d495182a9930be0ded288ce703afb7e9194950990828211900360fc1b910360041c170290565b6044838360405191631dcf306360e21b835260048301526024820152fd5b505061271090049150565b90915f198383099280830292838086109503948086039514612c5a5782851015612c3c579082910960018219018216809204600280826003021880830282030280830282030280830282030280830282030280830282030280920290030293600183805f0304019084831190030292030417029056fea26469706673582212202c586dae8fbf6c4ed1e525eb7febda8a3a613b9ea0f7b580f5441453966da26664736f6c63430008140033","linkReferences":{}},"methodIdentifiers":{"balanceOf(address,uint256)":"00fdd58e","currentOverflowOf(address,uint256)":"d49031c0","currentReclaimableOverflowOf(address,uint256,uint256,bool)":"c294b2f4","currentReclaimableOverflowOf(uint256,uint256,uint256,uint256)":"a57c7f59","currentTotalOverflowOf(uint256,uint256,uint256)":"b753d7e9","directory()":"c41c2f24","fundingCycleStore()":"557e7155","prices()":"d3419bf3","recordAddedBalanceFor(uint256,uint256)":"e7c8e3e3","recordDistributionFor(uint256,uint256,uint256)":"c6644597","recordMigration(uint256)":"6bb6a5ad","recordPaymentFrom(address,(address,uint256,uint256,uint256),uint256,uint256,address,string,bytes)":"2fa1b391","recordRedemptionFor(address,uint256,uint256,string,bytes)":"a2df1f95","recordUsedAllowanceOf(uint256,uint256,uint256)":"25386715","usedDistributionLimitOf(address,uint256,uint256)":"e8ba563a","usedOverflowAllowanceOf(address,uint256,uint256)":"d4c3a8d2"},"id":80}