{"abi":[{"type":"function","name":"BURN","inputs":[],"outputs":[{"name":"","type":"uint256","internalType":"uint256"}],"stateMutability":"view"},{"type":"function","name":"CLAIM","inputs":[],"outputs":[{"name":"","type":"uint256","internalType":"uint256"}],"stateMutability":"view"},{"type":"function","name":"ISSUE","inputs":[],"outputs":[{"name":"","type":"uint256","internalType":"uint256"}],"stateMutability":"view"},{"type":"function","name":"MIGRATE_CONTROLLER","inputs":[],"outputs":[{"name":"","type":"uint256","internalType":"uint256"}],"stateMutability":"view"},{"type":"function","name":"MIGRATE_TERMINAL","inputs":[],"outputs":[{"name":"","type":"uint256","internalType":"uint256"}],"stateMutability":"view"},{"type":"function","name":"MINT","inputs":[],"outputs":[{"name":"","type":"uint256","internalType":"uint256"}],"stateMutability":"view"},{"type":"function","name":"PROCESS_FEES","inputs":[],"outputs":[{"name":"","type":"uint256","internalType":"uint256"}],"stateMutability":"view"},{"type":"function","name":"RECONFIGURE","inputs":[],"outputs":[{"name":"","type":"uint256","internalType":"uint256"}],"stateMutability":"view"},{"type":"function","name":"REDEEM","inputs":[],"outputs":[{"name":"","type":"uint256","internalType":"uint256"}],"stateMutability":"view"},{"type":"function","name":"REQUIRE_CLAIM","inputs":[],"outputs":[{"name":"","type":"uint256","internalType":"uint256"}],"stateMutability":"view"},{"type":"function","name":"SET_CONTROLLER","inputs":[],"outputs":[{"name":"","type":"uint256","internalType":"uint256"}],"stateMutability":"view"},{"type":"function","name":"SET_METADATA","inputs":[],"outputs":[{"name":"","type":"uint256","internalType":"uint256"}],"stateMutability":"view"},{"type":"function","name":"SET_PRIMARY_TERMINAL","inputs":[],"outputs":[{"name":"","type":"uint256","internalType":"uint256"}],"stateMutability":"view"},{"type":"function","name":"SET_SPLITS","inputs":[],"outputs":[{"name":"","type":"uint256","internalType":"uint256"}],"stateMutability":"view"},{"type":"function","name":"SET_TERMINALS","inputs":[],"outputs":[{"name":"","type":"uint256","internalType":"uint256"}],"stateMutability":"view"},{"type":"function","name":"SET_TOKEN","inputs":[],"outputs":[{"name":"","type":"uint256","internalType":"uint256"}],"stateMutability":"view"},{"type":"function","name":"TRANSFER","inputs":[],"outputs":[{"name":"","type":"uint256","internalType":"uint256"}],"stateMutability":"view"},{"type":"function","name":"USE_ALLOWANCE","inputs":[],"outputs":[{"name":"","type":"uint256","internalType":"uint256"}],"stateMutability":"view"}],"bytecode":{"object":"0x6080806040523461001a576102aa908161001f823930815050f35b5f80fdfe608060408181526004361015610013575f80fd5b5f91823560e01c9081631d4b9a431461025e5750806332235cdf146102485780633e36f4c7146102325780636c1943be1461021c57806373b6dec61461020657806373d74876146101f0578063757616e1146101da57806376190b60146101c457806376420e1d146101ae5780639694c99a14610198578063a264ed7814610182578063aae781031461016c578063af0c22a014610156578063b56dcf9e14610140578063c0a2526c1461012a578063c577af3014610114578063ef1b4f3b146100fe5763f5edee14146100e5575f80fd5b816003193601126100fa5760209051600e8152f35b5080fd5b50816003193601126100fa576020905160128152f35b50816003193601126100fa576020905160028152f35b50816003193601126100fa5760209051600a8152f35b50816003193601126100fa576020905160048152f35b50816003193601126100fa576020905160068152f35b50816003193601126100fa576020905160108152f35b50816003193601126100fa576020905160038152f35b50816003193601126100fa576020905160058152f35b50816003193601126100fa5760209051600c8152f35b50816003193601126100fa576020905160088152f35b50816003193601126100fa5760209051600d8152f35b50816003193601126100fa5760209051600b8152f35b50816003193601126100fa576020905160118152f35b50816003193601126100fa5760209051600f8152f35b50816003193601126100fa576020905160098152f35b50816003193601126100fa576020905160078152f35b8390816003193601126100fa5780600160209252f3fea26469706673582212203ad2c30945141f944c70b0d72e970eb116dcc19019b3fda77a649b5aa84c975564736f6c63430008140033","linkReferences":{}},"methodIdentifiers":{"BURN()":"c0a2526c","CLAIM()":"73d74876","ISSUE()":"32235cdf","MIGRATE_CONTROLLER()":"a264ed78","MIGRATE_TERMINAL()":"b56dcf9e","MINT()":"3e36f4c7","PROCESS_FEES()":"9694c99a","RECONFIGURE()":"1d4b9a43","REDEEM()":"c577af30","REQUIRE_CLAIM()":"757616e1","SET_CONTROLLER()":"f5edee14","SET_METADATA()":"af0c22a0","SET_PRIMARY_TERMINAL()":"aae78103","SET_SPLITS()":"ef1b4f3b","SET_TERMINALS()":"6c1943be","SET_TOKEN()":"76190b60","TRANSFER()":"76420e1d","USE_ALLOWANCE()":"73b6dec6"},"id":96}