{"abi":[{"type":"constructor","inputs":[{"name":"_delegateCodeOrigin","type":"address","internalType":"address"},{"name":"_tokenUriResolver","type":"address","internalType":"contract IJB721TokenUriResolver"},{"name":"_governor","type":"address","internalType":"contract IDefifaGovernor"},{"name":"_controller","type":"address","internalType":"contract IJBController3_1"},{"name":"_delegatesRegistry","type":"address","internalType":"contract IJBDelegatesRegistry"},{"name":"_defifaProjectId","type":"uint256","internalType":"uint256"},{"name":"_baseProtocolProjectId","type":"uint256","internalType":"uint256"}],"stateMutability":"nonpayable"},{"type":"receive","stateMutability":"payable"},{"type":"function","name":"baseProtocolProjectId","inputs":[],"outputs":[{"name":"","type":"uint256","internalType":"uint256"}],"stateMutability":"view"},{"type":"function","name":"controller","inputs":[],"outputs":[{"name":"","type":"address","internalType":"contract IJBController3_1"}],"stateMutability":"view"},{"type":"function","name":"currentGamePhaseOf","inputs":[{"name":"_gameId","type":"uint256","internalType":"uint256"}],"outputs":[{"name":"","type":"uint8","internalType":"enum DefifaGamePhase"}],"stateMutability":"view"},{"type":"function","name":"currentGamePotOf","inputs":[{"name":"_gameId","type":"uint256","internalType":"uint256"},{"name":"_includeCommitments","type":"bool","internalType":"bool"}],"outputs":[{"name":"","type":"uint256","internalType":"uint256"},{"name":"","type":"address","internalType":"address"},{"name":"","type":"uint256","internalType":"uint256"}],"stateMutability":"view"},{"type":"function","name":"defifaProjectId","inputs":[],"outputs":[{"name":"","type":"uint256","internalType":"uint256"}],"stateMutability":"view"},{"type":"function","name":"delegateCodeOrigin","inputs":[],"outputs":[{"name":"","type":"address","internalType":"address"}],"stateMutability":"view"},{"type":"function","name":"delegatesRegistry","inputs":[],"outputs":[{"name":"","type":"address","internalType":"contract IJBDelegatesRegistry"}],"stateMutability":"view"},{"type":"function","name":"feeDivisor","inputs":[],"outputs":[{"name":"","type":"uint256","internalType":"uint256"}],"stateMutability":"view"},{"type":"function","name":"fulfillCommitmentsOf","inputs":[{"name":"_gameId","type":"uint256","internalType":"uint256"}],"outputs":[],"stateMutability":"nonpayable"},{"type":"function","name":"fulfilledCommitmentsOf","inputs":[{"name":"","type":"uint256","internalType":"uint256"}],"outputs":[{"name":"","type":"uint256","internalType":"uint256"}],"stateMutability":"view"},{"type":"function","name":"governor","inputs":[],"outputs":[{"name":"","type":"address","internalType":"contract IDefifaGovernor"}],"stateMutability":"view"},{"type":"function","name":"launchGameWith","inputs":[{"name":"_launchProjectData","type":"tuple","internalType":"struct DefifaLaunchProjectData","components":[{"name":"name","type":"string","internalType":"string"},{"name":"projectMetadata","type":"tuple","internalType":"struct JBProjectMetadata","components":[{"name":"content","type":"string","internalType":"string"},{"name":"domain","type":"uint256","internalType":"uint256"}]},{"name":"contractUri","type":"string","internalType":"string"},{"name":"baseUri","type":"string","internalType":"string"},{"name":"tiers","type":"tuple[]","internalType":"struct DefifaTierParams[]","components":[{"name":"name","type":"string","internalType":"string"},{"name":"price","type":"uint80","internalType":"uint80"},{"name":"reservedRate","type":"uint16","internalType":"uint16"},{"name":"reservedTokenBeneficiary","type":"address","internalType":"address"},{"name":"encodedIPFSUri","type":"bytes32","internalType":"bytes32"},{"name":"shouldUseReservedTokenBeneficiaryAsDefault","type":"bool","internalType":"bool"}]},{"name":"token","type":"address","internalType":"address"},{"name":"mintPeriodDuration","type":"uint24","internalType":"uint24"},{"name":"refundPeriodDuration","type":"uint24","internalType":"uint24"},{"name":"start","type":"uint48","internalType":"uint48"},{"name":"splits","type":"tuple[]","internalType":"struct JBSplit[]","components":[{"name":"preferClaimed","type":"bool","internalType":"bool"},{"name":"preferAddToBalance","type":"bool","internalType":"bool"},{"name":"percent","type":"uint256","internalType":"uint256"},{"name":"projectId","type":"uint256","internalType":"uint256"},{"name":"beneficiary","type":"address","internalType":"address payable"},{"name":"lockedUntil","type":"uint256","internalType":"uint256"},{"name":"allocator","type":"address","internalType":"contract IJBSplitAllocator"}]},{"name":"attestationStartTime","type":"uint256","internalType":"uint256"},{"name":"attestationGracePeriod","type":"uint256","internalType":"uint256"},{"name":"defaultAttestationDelegate","type":"address","internalType":"address"},{"name":"defaultTokenUriResolver","type":"address","internalType":"contract IJB721TokenUriResolver"},{"name":"terminal","type":"address","internalType":"contract IJBPaymentTerminal"},{"name":"store","type":"address","internalType":"contract IJBTiered721DelegateStore"}]}],"outputs":[{"name":"gameId","type":"uint256","internalType":"uint256"}],"stateMutability":"nonpayable"},{"type":"function","name":"nextPhaseNeedsQueueing","inputs":[{"name":"_gameId","type":"uint256","internalType":"uint256"}],"outputs":[{"name":"","type":"bool","internalType":"bool"}],"stateMutability":"view"},{"type":"function","name":"onERC721Received","inputs":[{"name":"","type":"address","internalType":"address"},{"name":"","type":"address","internalType":"address"},{"name":"","type":"uint256","internalType":"uint256"},{"name":"","type":"bytes","internalType":"bytes"}],"outputs":[{"name":"","type":"bytes4","internalType":"bytes4"}],"stateMutability":"pure"},{"type":"function","name":"queueNextPhaseOf","inputs":[{"name":"_gameId","type":"uint256","internalType":"uint256"}],"outputs":[{"name":"configuration","type":"uint256","internalType":"uint256"}],"stateMutability":"nonpayable"},{"type":"function","name":"splitGroup","inputs":[],"outputs":[{"name":"","type":"uint256","internalType":"uint256"}],"stateMutability":"view"},{"type":"function","name":"timesFor","inputs":[{"name":"_gameId","type":"uint256","internalType":"uint256"}],"outputs":[{"name":"","type":"uint48","internalType":"uint48"},{"name":"","type":"uint24","internalType":"uint24"},{"name":"","type":"uint24","internalType":"uint24"}],"stateMutability":"view"},{"type":"function","name":"tokenOf","inputs":[{"name":"_gameId","type":"uint256","internalType":"uint256"}],"outputs":[{"name":"","type":"address","internalType":"address"}],"stateMutability":"view"},{"type":"function","name":"tokenUriResolver","inputs":[],"outputs":[{"name":"","type":"address","internalType":"contract IJB721TokenUriResolver"}],"stateMutability":"view"},{"type":"event","name":"DistributeToSplit","inputs":[{"name":"split","type":"tuple","indexed":false,"internalType":"struct JBSplit","components":[{"name":"preferClaimed","type":"bool","internalType":"bool"},{"name":"preferAddToBalance","type":"bool","internalType":"bool"},{"name":"percent","type":"uint256","internalType":"uint256"},{"name":"projectId","type":"uint256","internalType":"uint256"},{"name":"beneficiary","type":"address","internalType":"address payable"},{"name":"lockedUntil","type":"uint256","internalType":"uint256"},{"name":"allocator","type":"address","internalType":"contract IJBSplitAllocator"}]},{"name":"amount","type":"uint256","indexed":false,"internalType":"uint256"},{"name":"caller","type":"address","indexed":false,"internalType":"address"}],"anonymous":false},{"type":"event","name":"FulfilledCommitments","inputs":[{"name":"gameId","type":"uint256","indexed":true,"internalType":"uint256"},{"name":"pot","type":"uint256","indexed":false,"internalType":"uint256"},{"name":"splits","type":"tuple[]","indexed":false,"internalType":"struct JBSplit[]","components":[{"name":"preferClaimed","type":"bool","internalType":"bool"},{"name":"preferAddToBalance","type":"bool","internalType":"bool"},{"name":"percent","type":"uint256","internalType":"uint256"},{"name":"projectId","type":"uint256","internalType":"uint256"},{"name":"beneficiary","type":"address","internalType":"address payable"},{"name":"lockedUntil","type":"uint256","internalType":"uint256"},{"name":"allocator","type":"address","internalType":"contract IJBSplitAllocator"}]},{"name":"leftoverAmount","type":"uint256","indexed":false,"internalType":"uint256"},{"name":"defifaTokenBalance","type":"uint256","indexed":false,"internalType":"uint256"},{"name":"baseProtocolBalance","type":"uint256","indexed":false,"internalType":"uint256"},{"name":"caller","type":"address","indexed":false,"internalType":"address"}],"anonymous":false},{"type":"event","name":"LaunchGame","inputs":[{"name":"gameId","type":"uint256","indexed":true,"internalType":"uint256"},{"name":"delegate","type":"address","indexed":true,"internalType":"contract IDefifaDelegate"},{"name":"governor","type":"address","indexed":true,"internalType":"contract IDefifaGovernor"},{"name":"tokenUriResolver","type":"address","indexed":false,"internalType":"contract IJB721TokenUriResolver"},{"name":"caller","type":"address","indexed":false,"internalType":"address"}],"anonymous":false},{"type":"event","name":"QueuedNoContest","inputs":[{"name":"gameId","type":"uint256","indexed":true,"internalType":"uint256"},{"name":"caller","type":"address","indexed":false,"internalType":"address"}],"anonymous":false},{"type":"event","name":"QueuedRefundPhase","inputs":[{"name":"gameId","type":"uint256","indexed":true,"internalType":"uint256"},{"name":"caller","type":"address","indexed":false,"internalType":"address"}],"anonymous":false},{"type":"event","name":"QueuedScoringPhase","inputs":[{"name":"gameId","type":"uint256","indexed":true,"internalType":"uint256"},{"name":"caller","type":"address","indexed":false,"internalType":"address"}],"anonymous":false},{"type":"error","name":"CANT_FULFILL_YET","inputs":[]},{"type":"error","name":"GAME_OVER","inputs":[]},{"type":"error","name":"INCORRECT_DECIMAL_AMOUNT","inputs":[]},{"type":"error","name":"INVALID_FEE_PERCENT","inputs":[]},{"type":"error","name":"INVALID_GAME_CONFIGURATION","inputs":[]},{"type":"error","name":"PHASE_ALREADY_QUEUED","inputs":[]},{"type":"error","name":"PRBMath__MulDivOverflow","inputs":[{"name":"prod1","type":"uint256","internalType":"uint256"},{"name":"denominator","type":"uint256","internalType":"uint256"}]},{"type":"error","name":"SPLITS_DONT_ADD_UP","inputs":[]},{"type":"error","name":"TERMINAL_NOT_FOUND","inputs":[]},{"type":"error","name":"UNEXPECTED_TERMINAL_CURRENCY","inputs":[]}],"bytecode":{"object":"0x61018034620001d257601f6200539738819003918201601f19168301916001600160401b03831184841017620001d65780849260e094604052833981010312620001d25780516001600160a01b038082168203620001d2576020830151928184168403620001d2576040810151928284168403620001d2576060820151918383168303620001d25760808101519384168403620001d25760c060a082015191015191601460035560e05261010095865261012094855261014092835261016093845260a05260c05230608052604051926151ac9485620001eb8639608051858181610570015281816119d8015261339f015260a05185818161196501528181611a8c015281816120a00152613370015260c05185818161206601528181613fbb015261427b015260e051858181610d19015261201f0152518481816101ae015261174c0152518381816113590152611f9401525182818161010a01528181610295015281816105c001528181610b4201528181610db701528181610e53015281816112c901528181611a280152818161254001528181612853015281816133300152818161342501528181613ea901528181613f6d0152818161421d0152614afa0152518181816101f301526113fe0152f35b5f80fd5b634e487b7160e01b5f52604160045260245ffdfe608080604052600436101561001c575b50361561001a575f80fd5b005b5f90813560e01c9081630134a03d14612089575080630549cb321461204e57806306b552b5146120095780630715610a14611fc35780630c340a2414611f7e578063150b7a0214611f085780631c069dbb14611ee1578063290457281461077757806381312a1414610593578063859bb4b2146105585780639a36f9321461053a578063b07925d3146104c2578063b4dfb08614610242578063b6674cde14610222578063d574ff04146101dd578063e131fc0c14610198578063ea78803f14610166578063f2ae5f6e1461013c5763f77c47910361000f57346101395780600319360112610139576040517f00000000000000000000000000000000000000000000000000000000000000006001600160a01b03168152602090f35b80fd5b50346101395760203660031901126101395760406020916004358152600483522054604051908152f35b5034610139576020366003190112610139576020906004358152808252604060018060a01b0391205416604051908152f35b50346101395780600319360112610139576040517f00000000000000000000000000000000000000000000000000000000000000006001600160a01b03168152602090f35b50346101395780600319360112610139576040517f00000000000000000000000000000000000000000000000000000000000000006001600160a01b03168152602090f35b50346101395760203660031901126101395761023f6004356132cf565b80f35b503461013957604036600319011261013957600435906024359081151582036103da57828152602081815260408083205490516331070bc960e21b81526001600160a01b039591861692919082816004817f00000000000000000000000000000000000000000000000000000000000000008b165afa9081156104415785916104a5575b50604051630862026560e41b8152600481018390526001600160a01b0385166024820152908390829060449082908b165afa908115610441579087918691610488575b5016906040519663975057e760e01b88528388600481865afa97881561047d57869861044c575b50604051627eeac760e11b81526001600160a01b03841660048201526024810183905297849189916044918391165afa908115610441578591610411575b6004975081966103f1575b505081906040519687809263313ce56760e01b82525afa9283156103e557926103b1575b606094506040519384528301526040820152f35b80925084813d83116103de575b6103c881836121d8565b810103126103da57606093519161039d565b5f80fd5b503d6103be565b604051903d90823e3d90fd5b855286835260408520549195508291610409916122ad565b94905f610379565b90508287813d831161043a575b61042881836121d8565b810103126103da57600496519061036e565b503d61041e565b6040513d87823e3d90fd5b8491985061046f90823d8411610476575b61046781836121d8565b81019061228e565b9790610330565b503d61045d565b6040513d88823e3d90fd5b61049f9150843d86116104765761046781836121d8565b5f610309565b6104bc9150833d85116104765761046781836121d8565b5f6102c6565b50346101395760203660031901126101395760406060916004358152806020522081604051916104f18361213c565b5460018060a01b038116835265ffffffffffff8160a01c169283602082015262ffffff8260d01c169182604083015260e81c928391015260405192835260208301526040820152f35b50346101395780600319360112610139576020600354604051908152f35b503461013957806003193601126101395760206040517f00000000000000000000000000000000000000000000000000000000000000008152f35b503461013957602090816003193601126101395760405163557e715560e01b808252916001600160a01b037f0000000000000000000000000000000000000000000000000000000000000000811660048035908790869081855afa94851561076c57849561074b575b5082939495604051966321d1336160e11b885282600489015287602481610120988994165afa96871561047d57908891879861070b575b5060046040518095819382525afa918215610441579084929186926106e9575b506024906040519485938492630b8aa00f60e31b84526004840152165afa9283156103e55780936106ad575b5050508260808301511515928361069c575b506040518315158152f35b8101519101511490505f8281610691565b90918093503d84116106e2575b6106c481846121d8565b820192828403126101395750906106da916122ce565b5f808061067f565b503d6106ba565b602491925061070490893d8b116104765761046781836121d8565b9190610653565b91509650843d8611610744575b61072281836121d8565b8101908581830312610740578891610739916122ce565b965f610633565b8680fd5b503d610718565b8394955061076590883d8a116104765761046781836121d8565b94936105fc565b6040513d86823e3d90fd5b5034610139576020366003190112610139576001600160401b036004351161013957610200600435360360031901126101395760405161020081018181106001600160401b03821117611ecd57604052600435600401356001600160401b0381116114d7576107ed906004369181350101612214565b8152602460043501356001600160401b0381116114d75760043501604060031982360301126114d75760405190610823826120d7565b6004810135906001600160401b0382116114d35761084960249260043691840101612214565b8352013560208201526020820152604460043501356001600160401b0381116114d75761087d906004369181350101612214565b6040820152606460043501356001600160401b0381116114d7576108a8906004369181350101612214565b6060820152608460043501356001600160401b0381116114d75736602382600435010112156114d7576004818135010135906108e38261225a565b916108f160405193846121d8565b80835260208301913660248360051b8360043501010111611566576024816004350101925b60248360051b836004350101018410611dcc5750505050608082015261094060a4600435016120c3565b60a082015261095360c46004350161227e565b60c082015261096660e46004350161227e565b60e0820152600435610104013565ffffffffffff81169003611d2a5761010460043501356101008201526001600160401b03610124600435013511611d2a5736600435610124810135016023011215611d2a576109ce6004803561012481013501013561225a565b6109db60405191826121d8565b60048035610124810135019081013580835260208301913660e09092020160240111611dc85760043561012481013501602401905b60048035610124810135019081013560e002016024018210611d2e575050610120820152600435610144810135610140830152610164810135610160830152610a5c90610184016120c3565b6101808201526004356101a401356001600160a01b0381169003611d2a576004356101a48101356101a08301526101c401356001600160a01b0381169003611d2a576004356101c48101356101c08301526101e401356001600160a01b0381169003611d2a576004356101e401356101e082015261010081015165ffffffffffff1680611cbe575065ffffffffffff610b0f62ffffff610b028160c086015116426122ad565b9060e085015116906122ad565b166101008201525b62ffffff60c082015116158015611c83575b611c71576040516322de550f60e21b81526020816004817f00000000000000000000000000000000000000000000000000000000000000006001600160a01b03165afa908115611b16578391611c2c575b506040516306661abd60e01b81529190602090839060049082906001600160a01b03165afa918215611b16578392611bf8575b50600182018211611be45760018060a01b0360a08201511662ffffff60c08301511662ffffff60e08401511665ffffffffffff6101008501511660405193610bf48561213c565b84526020808501918252604080860194855260608601938452600188018952908890528720935190519251915160a09390931b65ffffffffffff60a01b166001600160a01b03919091161760d09190911b62ffffff60d01b161760e89190911b6001600160e81b03191617905561012081015151806118e3575b50608081015151610c7e8161225a565b90610c8c60405192836121d8565b808252610c988161225a565b855b601f198201811061188757505060808301515190610cd0610cba8361225a565b92610cc860405194856121d8565b80845261225a565b865b601f19820181106118765750508560a0604051610cee81612106565b606081528260208201528260408201528260608201528260808201520152855b8181106117af5750507f0000000000000000000000000000000000000000000000000000000000000000608881901c62ffffff16763d602d80600a3d3981f3363d3d373d3d3d363d7300000017865260781b6e5af43d82803e903d91602b57fd5bf3176020526001600160a01b036037600987f016918215611771576101a08401516001600160a01b0316801561174957915b6040516331070bc960e21b8152916020836004817f00000000000000000000000000000000000000000000000000000000000000006001600160a01b03165afa92831561173e57889361171d575b508551610dfe60018901614f65565b610e3c6028604051809367444546494641202360c01b6020830152610e2c81518092602086860191016127e9565b81010360088101845201826121d8565b60405163557e715560e01b81528a906020816004817f00000000000000000000000000000000000000000000000000000000000000006001600160a01b03165afa9081156115035782916116fe575b5060608a01516040808c01516101c08d015160a08e01519251631982d67960e01b81526001600160a01b03938416600482015291949260209183916024918391165afa9485156103e557946116ca575b506101e08c01516101808d01516001600160a01b0390811697911695908c3b156116c657908f9a918f9a99989796959493926040519b633900c6f960e01b8d5260010160048d0152600160a01b600190031660248c015260448b016101e090526101e48b01610f499161280a565b8a81036003190160648c0152610f5e9161280a565b6001600160a01b0390911660848a01528881036003190160a48a0152610f839161280a565b6001600160a01b038a1660c48901528781036003190160e4890152610fa79161280a565b600319878203016101048801528451908181526020019460200190885b8181106116065750505065ffffffffffff1661012486015261014485015230610164850152306101848501526101a4840152600319838203016101c4840152815180825260208201916020808360051b83010194019286915b8383106115d357505050505081808492038183885af18015611503576115bf575b50506103e06024604051611051816120d7565b60018152602036818301376101c08601516001600160a01b0316611074826126c6565b52611263602087015161125062ffffff60c08a01511691604051926110988461213c565b83528b60208401528b60408401528b60608401526040516110b881612186565b8c81528c60208201528c60408201526110e68d604051906110d8826120d7565b815260016020820152614b71565b604051916110f3836121a1565b82528d602083015261271080604084015260608301528d60808301528d60a08301528d60c08301528d60e08301528d6101008301528d6101208301528d6101408301528d6101608301528d6101808301528d6101a083015260016101c083015260016101e08301528a61020083015261022082015265ffffffffffff61119b8c62ffffff60e061119185610100850151168360c08601511690614942565b9201511690614942565b611237604051936111ab856121bd565b5f855261122d604051986111be8a6121bd565b5f8a526040519d8e9d8e63b3c5267360e01b815230600482015201528c61040460206111f88b5160406103e486015261042485019061280a565b9a0151910152805160448e0152602081015160648e0152604081015160848e0152606001516001600160a01b031660a48d0152565b60c48b019061495a565b166103448801528682036003190161036488015261274b565b8481036003190161038486015290614a5c565b600319838203016103a484015260208083519283815201920190895b81811061159d5750505081810360031981016103c484015260128252712232b334b3309036b4b73a10383430b9b29760711b60209283015290919060400181896001600160a01b037f0000000000000000000000000000000000000000000000000000000000000000165af1801561047d57611572575b506101c083015160a084015160405163df21a7dd60e01b81526001600160a01b0391821660048201526001870160248201529160209183916044918391165afa90811561047d578691611534575b501561152257610140830151610160909301517f00000000000000000000000000000000000000000000000000000000000000006001600160a01b031693869190853b156114d75760405163c543882f60e01b815260018801600482015260248101919091526044810191909152818160648183895af180156115035761150e575b5050813b156114d3578460405163f2fde38b60e01b8152846004820152818160248183885af18015611503576114ef575b50506001547f00000000000000000000000000000000000000000000000000000000000000006001600160a01b0316905f1981146114db5790600187920180600155813b156114d757604051632de7e90960e11b8152306004820152602481019190915291908290604490829084905af1801561047d576114bf575b50602094506040519060018060a01b0316815233858201527f3082991f3dda023098e5849ea3903c6fbfd657dc6f9232f5eb81ad8a7ba161d660406001860192a4600160405191018152f35b6114c98691612157565b6114d35784611473565b8480fd5b8280fd5b634e487b7160e01b87526011600452602487fd5b6114f890612157565b6114d357845f6113f7565b6040513d84823e3d90fd5b61151790612157565b6114d357845f6113c6565b604051631b93d9cb60e11b8152600490fd5b90506020813d60201161156a575b8161154f602093836121d8565b81010312611566576115609061235f565b5f611344565b8580fd5b3d9150611542565b602090813d8311611596575b61158881836121d8565b810103126103da575f6112f6565b503d61157e565b82516001600160a01b031684528594506020938401939092019160010161127f565b6115c890612157565b6114d357845f61103e565b919395965091936020806115f3600193601f19868203018752895161280a565b97019301930190928b969594929361101d565b91969798509192939460206101606001926101408a516cffffffffffffffffffffffffff815116835263ffffffff80868301511686850152604082015116604084015261ffff6060820151166060840152858060a01b03608082015116608084015260a081015160a084015262ffffff60c08201511660c084015260e0810151151560e084015261010081015115156101008401526101208101511515610120840152015115156101408201520197019101918d98979695949392610fc4565b8f80fd5b9093506020813d6020116116f6575b816116e6602093836121d8565b810103126103da5751925f610edb565b3d91506116d9565b611717915060203d6020116104765761046781836121d8565b5f610e8b565b61173791935060203d6020116104765761046781836121d8565b915f610def565b6040513d8a823e3d90fd5b507f000000000000000000000000000000000000000000000000000000000000000091610da1565b60405162461bcd60e51b8152602060048201526016602482015275115490cc4c4d8dce8818dc99585d194819985a5b195960521b6044820152606490fd5b806117c060019260808801516126e7565b5169ffffffffffffffffffff60208201511661ffff604083015116848060a01b0360608401511660808401519060a0850151151592604051946118028661216a565b8552633b9ac9ff60208601528760408601526060850152608084015260a08301528a60c08301528a60e0830152610100820152896101208201528361014082015261184d83886126e7565b5261185882876126e7565b505161186482866126e7565b5261186f81856126e7565b5001610d0e565b806060602080938701015201610cd2565b6020906040516118968161216a565b88815288838201528860408201528860608201528860808201528860a08201528860c08201528860e082015288610100820152886101208201528861014082015282828701015201610c9a565b600181018111611bd0576118f96001820161225a565b9061190760405192836121d8565b60018101808352601f199061191b9061225a565b01855b818110611b8f575050845b818110611b6057506003548015611b4c578592916119ac916040519061194e82612121565b60018252856020830152633b9aca000460408201527f000000000000000000000000000000000000000000000000000000000000000060608201523060808201528460a08201528460c08201526119a582856126e7565b52826126e7565b50604051906119ba826120d7565b60018252825b60208110611b215750604051906119d6826120d7565b7f000000000000000000000000000000000000000000000000000000000000000082526020820152611a07826126c6565b52611a11816126c6565b50604051630af7f80160e21b8152906020826004817f00000000000000000000000000000000000000000000000000000000000000006001600160a01b03165afa918215611b16578392611af5575b506001600160a01b0382163b156114d7578291611aca9160405194858094819363796d225b60e11b83527f0000000000000000000000000000000000000000000000000000000000000000600484015260018b01602484015260606044840152606483019061274b565b03926001600160a01b03165af1801561076c5715610c6e57611aee90939193612157565b915f610c6e565b611b0f91925060203d6020116104765761046781836121d8565b905f611a60565b6040513d85823e3d90fd5b602091929350604051611b33816120d7565b87815260608382015282828601015201908592916119c0565b634e487b7160e01b86526012600452602486fd5b80611b726001926101208701516126e7565b51611b7d82866126e7565b52611b8881856126e7565b5001611929565b602090604051611b9e81612121565b88815288838201528860408201528860608201528860808201528860a08201528860c08201528282870101520161191e565b634e487b7160e01b84526011600452602484fd5b634e487b7160e01b83526011600452602483fd5b9091506020813d602011611c24575b81611c14602093836121d8565b810103126114d75751905f610bad565b3d9150611c07565b90506020813d602011611c69575b81611c47602093836121d8565b810103126114d75751906001600160a01b03821682036114d757906020610b7a565b3d9150611c3a565b604051633a7c40a160e11b8152600490fd5b5065ffffffffffff61010082015116611cb8611ca862ffffff60e085015116426122ad565b62ffffff60c085015116906122ad565b11610b29565b62ffffff908160c084015116159081611d11575b50611cde575b50610b17565b611d0565ffffffffffff61010084015116611cff8360e086015116426122ad565b906126b9565b1660c08201525f611cd8565b9050611d238260e085015116426122ad565b105f611cd2565b5080fd5b60e0823603126114d357604051611d4481612121565b611d4d83612271565b8152611d5b60208401612271565b602082015260408381013590820152606080840135908201526001600160a01b0360808401358181168103611dc457608083015260a084013560a083015260c08401351660c0840135036115665760e09160209160c085013560c0820152815201910190610a10565b8780fd5b8380fd5b83356001600160401b038111611dc45760c06004358401820136036023190112611dc45760405190611dfd82612106565b6001600160401b03602482866004350101013511611ec957611e2d36602460043587018401818101350101612214565b8252600435840181016044013569ffffffffffffffffffff81169003611ec95760043584018101604481013560208401526064013561ffff81169003611ec957602492602092611eb760c484606487968a600435010101356040850152611e9c6084828b6004350101016120c3565b606085015260043589010160a4810135608085015201612271565b60a08201528152019401939050610916565b8880fd5b634e487b7160e01b83526041600452602483fd5b5034610139576020366003190112610139576020611f0060043561282f565b604051908152f35b5034610139576080366003190112610139576001600160a01b0360043581811603611d2a5760243590811603610139576064356001600160401b038082116114d757366023830112156114d75781600401359081116114d7573691016024011161013957604051630a85bd0160e11b8152602090f35b50346101395780600319360112610139576040517f00000000000000000000000000000000000000000000000000000000000000006001600160a01b03168152602090f35b503461013957602036600319011261013957611fe0600435612516565b604051906007811015611ff557602092508152f35b634e487b7160e01b83526021600452602483fd5b50346101395780600319360112610139576040517f00000000000000000000000000000000000000000000000000000000000000006001600160a01b03168152602090f35b503461013957806003193601126101395760206040517f00000000000000000000000000000000000000000000000000000000000000008152f35b905034611d2a5781600319360112611d2a576020907f00000000000000000000000000000000000000000000000000000000000000008152f35b35906001600160a01b03821682036103da57565b604081019081106001600160401b038211176120f257604052565b634e487b7160e01b5f52604160045260245ffd5b60c081019081106001600160401b038211176120f257604052565b60e081019081106001600160401b038211176120f257604052565b608081019081106001600160401b038211176120f257604052565b6001600160401b0381116120f257604052565b61016081019081106001600160401b038211176120f257604052565b606081019081106001600160401b038211176120f257604052565b61024081019081106001600160401b038211176120f257604052565b602081019081106001600160401b038211176120f257604052565b90601f801991011681019081106001600160401b038211176120f257604052565b6001600160401b0381116120f257601f01601f191660200190565b81601f820112156103da5780359061222b826121f9565b9261223960405194856121d8565b828452602083830101116103da57815f926020809301838601378301015290565b6001600160401b0381116120f25760051b60200190565b359081151582036103da57565b359062ffffff821682036103da57565b908160209103126103da57516001600160a01b03811681036103da5790565b919082018092116122ba57565b634e487b7160e01b5f52601160045260245ffd5b80929161012091829103126103da576040519081018181106001600160401b038211176120f2576040528092805182526020810151602083015260408101516040830152606081015160608301526080810151608083015260a081015160a083015260c081015160c083015260e081015160018060a01b03811681036103da5760e083015261010080910151910152565b519081151582036103da57565b80820392916103a084126103da5761238490826122ce565b9261011f1901906102808083126103da576060604051936123a4856121a1565b126103da57612455916040516123b981612186565b610120906123c882840161235f565b8152610140906123d982850161235f565b6020820152610160906123ed82860161235f565b604082015287526101808085015160208901526101a0918286015160408a01526101c0938487015160608b01526101e09561242987890161235f565b60808c0152612486610200998c60a06124438d8d0161235f565b9101528c60c06102209d8e8d0161235f565b9101528c60e06124686102408d0161235f565b9101528c61010061247c6102608d0161235f565b910152890161235f565b908b01526124976102a0880161235f565b908a01526124a86102c0870161235f565b908901526124b96102e0860161235f565b908801526124ca610300850161235f565b908701526124db610320840161235f565b908601526124ec610340830161235f565b908501526103608101516001600160a01b03811681036103da576103809285015201519082015290565b60408051638776c49960e01b8152600481018390526001600160a01b03926103a0919082826024817f000000000000000000000000000000000000000000000000000000000000000089165afa9182156126af575f93849361267b575b5050825180156126715760011461266757805f526020926002845260ff855f20541661265c576125a38183614acf565b6126515751600214908161263b575b506126325761020001518251635460afa560e11b815293829185916004918391165afa91821561262957505f916125f5575b5090506125f057600390565b600490565b82813d8311612622575b61260981836121d8565b81010312610139575061261b9061235f565b805f6125e4565b503d6125ff565b513d5f823e3d90fd5b50505050600290565b90505f525f8252825f205460e81c15155f6125b2565b505050505050600590565b505050505050600690565b5050505050600190565b5050505050505f90565b809192945061269f9350903d106126a8575b61269781836121d8565b81019061236c565b90915f80612573565b503d61268d565b84513d5f823e3d90fd5b919082039182116122ba57565b8051156126d35760200190565b634e487b7160e01b5f52603260045260245ffd5b80518210156126d35760209160051b010190565b60c09080511515835260208101511515602084015260408101516040840152606081015160608401528160018060a01b039182608082015116608086015260a081015160a0860152015116910152565b90815180825260208092019182818360051b85019501935f80925b858410612777575050505050505090565b9091929387828297989903855288518260606040938285820194805183520151948382015284518094520192019085905b8082106127c8575050509080600192990194019401929594939190612766565b919360e0846127db6001949688516126fb565b0194019201889392916127a8565b5f5b8381106127fa5750505f910152565b81810151838201526020016127eb565b90602091612823815180928185528580860191016127e9565b601f01601f1916010190565b60408051638776c49960e01b81526004808201849052602493906001600160a01b037f0000000000000000000000000000000000000000000000000000000000000000811691906103a080868981875afa908115613254575f968792613232575b50855f526020966002885260ff895f2054168015613226575b6132165787878a6128ba8483614acf565b612fc257915050516304acdec560e21b8152878682015282818c818a5afa908115612fb8575f91612f9a575b50888083015191015103612f8a5791879695949391899360018091511480612f75575b15612b795790889291888651853382527f8949f8e36f5b9fa9598c2594f579856aac6c870baede94eb4436a95e5542ee3c91a2846102008094015116895f525f8552865f209587519661295b8861213c565b5490811687528060a01c65ffffffffffff16868801528060d01c62ffffff168888015260e81c6060819701528651956129938761213c565b86525f85870181905287870181905260608701528651936129b385612186565b5f8086528686018190528886015287516129cc816120d7565b5f815283878201526129dd90614b71565b928851956129ea876121a1565b86528686015f9052612710808a880152606087015280608087015260a086015f905260c086015f905260e086015f905261010086015f905261012086015f905261014086015f905261016086015f905261018086015f90526101a086015f9052806101c08701526101e0860152840152610220830152845191612a6c836121bd565b5f8352855194612a7b866121bd565b5f865286519d8e9a8b9963175b7be560e31b8b528a01528801612ac4916060908051835260208101516020840152604081015160408401528160018060a01b0391015116910152565b60a48701612ad19161495a565b61032486015f90526103448601526103a48501612aed9161274b565b91600319928386820301610364870152612b0691614a5c565b8481039283016103848601526014815201732232b334b330903932b33ab73210383430b9b29760611b905201915a905f91f191821561262957505f91612b4d575b50905090565b82813d8311612b72575b612b6181836121d8565b81010312610139575051805f612b47565b503d612b57565b9192949596977f5cc01418cfb0539a6160b6b53718e4c92fa7df36e03202b1e467f64736dcd0479089929551338152a283610200809301511693875f525f8952808a5f205416908a516331070bc960e21b81528a8189818c5afa908115612f4c578383928c8f958f94612c269c9b9a9998978e915f95612f56575b5051630862026560e41b81529081019283526001600160a01b039094166020830152929a8b9384929091839160400190565b0392165afa968715612f4c575f97612f2d575b508c908c978c895199612c4b8b6120d7565b868b525f905b828210612eeb5750505016918b8d518093631982d67960e01b8252838c83015281865afa918215612ee157918d979593918d9c9b9a999795935f92612e96575b50908c969594939291895192612ca684612106565b8352878301525f89830181905260608301526001600160e81b03608083015260a0820152612cd3876126c6565b52612cdd866126c6565b50865193612cea8561213c565b5f8086528686018190528886018190526060860152875192612d0b84612186565b5f808552878501819052898501528851612d24816120d7565b5f80825288820152612d3590614b71565b92895194612d42866121a1565b85528785015f9052612710808b870152606086015280608086015260a085015f905260c085015f905260e085015f905261010085015f905261012085015f905261014085015f905261016085015f905261018085015f90526101a085015f9052806101c08601526101e0850152830152610220820152855192612dc4846121bd565b5f845286519d8e9a8b9963175b7be560e31b8b528a01528801612e0d916060908051835260208101516020840152604081015160408401528160018060a01b0391015116910152565b60a48701612e1a9161495a565b61032486015f90526103448601526103a48501612e369161274b565b91600319928386820301610364870152612e4f91614a5c565b8481039283016103848601526015815201742232b334b3309039b1b7b934b73390383430b9b29760591b905201915a905f91f191821561262957505f91612b4d5750905090565b8093959799508d919496989a9b9c9d3d8311612eda575b612eb781836121d8565b810103126101395750928b9a99989795928b95928e989551919293949596612c91565b503d612ead565b8d513d5f823e3d90fd5b9091929394505f815191612efe83612106565b81835281858401528201525f60608201525f60808201525f60a082015282828c01015201908c8f93928f612c51565b612f459197508b3d8d116104765761046781836121d8565b955f612c39565b8c513d5f823e3d90fd5b612f6e919550873d89116104765761046781836121d8565b935f612bf4565b50875f525f8952845f205460e81c1515612909565b88516311f4338560e01b81528590fd5b612fb19150833d85116126a85761269781836121d8565b505f6128e6565b8a513d5f823e3d90fd5b939096949250819795878551843382527f9b148a463b302341922ada41a3ae174156303492e0c4335ee452ad4ebe65d74291a261020080940151169084519361300a8561213c565b5f808652848601819052868601819052606086015285519261302b84612186565b5f808552858501819052878501528651613044816120d7565b5f815260018682015261305690614b71565b91875194613063866121a1565b85528585015f905261271080898701526060860152608085016001905260a085015f905260c085015f905260e085015f905261010085015f905261012085015f905261014085015f905261016085015f905261018085015f90526101a085015f90526101c08501600190526101e08501600190528401526102208301528451916130ec836121bd565b5f83528551946130fb866121bd565b5f865286519e8f9a8b9963175b7be560e31b8b528a01528801613144916060908051835260208101516020840152604081015160408401528160018060a01b0391015116910152565b60a487016131519161495a565b61032486015f90526103448601526103a4850161316d9161274b565b9160031992838682030161036487015261318691614a5c565b8481039283016103848601526012815201712232b334b3309037379031b7b73a32b9ba1760711b905201915a905f91f193841561320c575f946131dc575b50906002915f52525f20600160ff1982541617905590565b90938282813d8311613205575b6131f381836121d8565b810103126101395750519260026131c4565b503d6131e9565b83513d5f823e3d90fd5b885163dc7a251560e01b81528590fd5b506080810151156128a9565b9080975061324c92503d88116126a85761269781836121d8565b90955f612890565b87513d5f823e3d90fd5b3d15613288573d9061326f826121f9565b9161327d60405193846121d8565b82523d5f602084013e565b606090565b9390926132be926132cc96948652602086015260018060a01b0316604085015260a0606085015260a084019061280a565b91608081840391015261280a565b90565b90815f52600460205260405f205461493e576132ea82612516565b600781101561492a576003811415908161491e575b5061490c57815f526004602052600160405f205560405191630af7f80160e21b835260208360048160018060a01b037f0000000000000000000000000000000000000000000000000000000000000000165afa9283156138b9575f936148eb575b506040516369e11cc560e01b81527f000000000000000000000000000000000000000000000000000000000000000060048201819052602482018390527f0000000000000000000000000000000000000000000000000000000000000000604483015290935f90859060649082906001600160a01b03165afa9384156138b9575f946147cc575b508351156146fd575b505f81815260208181526040918290205491516331070bc960e21b815294916001600160a01b039081169190869060049082907f0000000000000000000000000000000000000000000000000000000000000000165afa9485156138b9575f956146dc575b50604051630862026560e41b8152600481018490526001600160a01b038216602482015291602083806044810103816001600160a01b038a165afa9283156138b9575f936146bb575b5060405163975057e760e01b8152936020856004816001600160a01b0388165afa9485156138b9575f9561469a575b50604051627eeac760e11b81526001600160a01b03858116600483015260248201839052909560209187916044918391165afa9485156138b9575f95614666575b5060405163313ce56760e01b81526020816004816001600160a01b0389165afa9081156138b9575f91614634575b50604051631982d67960e01b8152600481018590526020816024816001600160a01b038a165afa9081156138b9575f91614602575b50602061357d84614f65565b916135d36037604051809575536574746c696e67204465666966612067616d65202360501b868301526135b981518092886036860191016127e9565b8101601760f91b60368201520360178101865201846121d8565b886136426040516135e3816121bd565b5f8152613630604051968795869563280be00760e21b87528b6004880152602487015260448601528b60648601528d60848601523060a486015261010060c486015261010485019061280a565b8381036003190160e48501529061280a565b03815f6001600160a01b038b165af19081156138b9575f916145d0575b50925f5b8151811015613e785761367681836126e7565b5161368560408201518a6150cb565b806136c1575b610120600193925f80516020615157833981519152926136ae60405180936126fb565b60e082015233610100820152a101613663565b60c08201516001600160a01b0316156138c45760405163b7bad1b160e01b8152600481018990526020816024816001600160a01b038e165afa9081156138b9575f91613887575b506040519061371682612106565b89825282602083015260408201528660608201525f60808201528260a082015261eeee8903613868575b61eeee89036138615781905b60c08401516001600160a01b031691823b156103da5760408051634eba05fd60e11b815283516001600160a01b0316600482015260208401516024820152908301516044820152606083015160648201526080830151608482015260a09092015191925f9284926101849284926137c79060a48501906126fb565b5af19081613852575b5061383257610120600193925f80516020615157833981519152926137f361325e565b5061eeee8b03613816575b5061380a5f809a6126b9565b9892509293505061368b565b61382c90868060a01b0360c0840151168c614cc5565b5f6137fe565b956101206001939261380a895f80516020615157833981519152946126b9565b61385b90612157565b5f6137d0565b5f9061374c565b60c08301516138829083906001600160a01b03168b614b95565b613740565b90506020813d6020116138b1575b816138a2602093836121d8565b810103126103da57515f613708565b3d9150613895565b6040513d5f823e3d90fd5b606082015188908d9015613cc5576060840151604051630862026560e41b815260048101919091526001600160a01b039283166024820152929160209184916044918391165afa9182156138b9575f92613ca4575b506001600160a01b038216158015613c31575b15613953575050905f8051602061515783398151915261012060019361380a5f809a6126b9565b6020604051613961816120d7565b81815281369101376040518760208201526020815261397f816120d7565b61eeee8a03613c18575b61eeee8a03613c115781905b6020850151899015613ade575060608501516139b08a614f65565b92613a0f603b60405180967f4465706f7369742066726f6d204465666966612067616d6520230000000000006020830152601760f91b81516139fb81603a94602086880191016127e9565b83019182015203601b8101875201856121d8565b6001600160a01b0386163b156103da57848d92613a445f956040519788968795869563019f1d0b60e31b87526004870161328d565b03916001600160a01b0388165af19081613acf575b50613aad57600193925f805160206151578339815191529261012092613a7d61325e565b5061eeee8c03613a95575b505061380a5f809a6126b9565b613aa691878060a01b03168c614cc5565b5f80613a88565b965f8051602061515783398151915291506001939261380a89610120936126b9565b613ad890612157565b5f613a59565b91906020918c6060880151613bae60018060a01b0360808b01511694613630613b0a8c51151599614f65565b613b67603a60405180937f5061796f75742066726f6d204465666966612067616d652023000000000000008d830152601760f91b8151613b5381603994602086880191016127e9565b83019182015203601a8101845201826121d8565b604051998a9889978897631ebc263f60e01b895260048901528d6024890152604488015260648701525f608487015260a486015261010060c486015261010485019061280a565b03916001600160a01b0388165af19081613be65750613aad57600193925f805160206151578339815191529261012092613a7d61325e565b602090813d8311613c0a575b613bfc81836121d8565b810103126103da575f613a59565b503d613bf2565b5f90613995565b613c2c826001600160a01b0385168c614b95565b613989565b5060405163b7bad1b160e01b8152600481018a90526020816024816001600160a01b0387165afa80156138b95787915f91613c6f575b50141561392c565b9150506020813d602011613c9c575b81613c8b602093836121d8565b810103126103da578690515f613c67565b3d9150613c7e565b613cbe91925060203d6020116104765761046781836121d8565b905f613919565b5050608082018051919793929189906001600160a01b03168015613e535789919061eeee8203613de957505090516001600160a01b03169050478811613da4575f80808a81945af1613d1561325e565b5015613d39576101205f805160206151578339815191529161380a896001966126b9565b60405162461bcd60e51b815260206004820152603a60248201527f416464726573733a20756e61626c6520746f2073656e642076616c75652c207260448201527f6563697069656e74206d617920686176652072657665727465640000000000006064820152608490fd5b60405162461bcd60e51b815260206004820152601d60248201527f416464726573733a20696e73756666696369656e742062616c616e63650000006044820152606490fd5b60405163a9059cbb60e01b60208201526001600160a01b039091166024820152604481018390526001965f805160206151578339815191529561012095509361380a939092613e4e91613e4982606481015b03601f1981018452836121d8565b614ddc565b6126b9565b50505060019296506101205f805160206151578339815191529161380a5f809a6126b9565b509492939196975050826144c2575b5050604051638776c49960e01b8152600481018590526103a0919082816024817f00000000000000000000000000000000000000000000000000000000000000006001600160a01b03165afa9283156138b9575f9361449c575b5050610200820151604051630765714f60e31b81529190602090839060049082906001600160a01b03165afa9182156138b9575f9261447b575b506040516370a0823160e01b8152306004820152916020836024816001600160a01b0385165afa9283156138b9575f93614447575b508261434a575b50604051630619306360e41b81526020816004817f00000000000000000000000000000000000000000000000000000000000000006001600160a01b03165afa9081156138b9575f9161432b575b50604051635287af3760e01b81523060048201527f0000000000000000000000000000000000000000000000000000000000000000602482015290602090829060449082906001600160a01b03165afa9081156138b9575f916142f9575b5080614207575b50610200830151604051630a0bfcfb60e11b815290602090829060049082906001600160a01b03165afa9081156138b9575f916141e8575b506040516370a0823160e01b8152306004820152936001600160a01b039190911690602085602481855afa9485156138b9575f956141b4575b50848061412d575b50505061409081866126b9565b865f52600460205260405f20556040519460c0860190865260c06020870152845180915260e09060208288019601915f905b82821061410c57505050506040850152606084015260808301523360a08301527fcdaef79c6f93c7c926c9634f64404f73a776f14615ab57102d65d75effb6b700919081900390a2565b90919296602082826141216001948c516126fb565b019801939201906140c2565b610200919091015160405163a9059cbb60e01b81526001600160a01b039091166004820152602481019190915290602090829060449082905f905af180156138b95761417b575b8084614083565b6020813d6020116141ac575b81614194602093836121d8565b810103126103da576141a59061235f565b505f614174565b3d9150614187565b9094506020813d6020116141e0575b816141d0602093836121d8565b810103126103da5751935f61407b565b3d91506141c3565b614201915060203d6020116104765761046781836121d8565b5f614042565b604051630619306360e41b8152906020826004817f00000000000000000000000000000000000000000000000000000000000000006001600160a01b03165afa9182156138b9575f926142d8575b506001600160a01b0382163b156103da57604051636607955d60e01b81523060048201527f000000000000000000000000000000000000000000000000000000000000000060248201526044810191909152905f908290606490829084906001600160a01b03165af180156138b9571561400a576142d290612157565b5f61400a565b6142f291925060203d6020116104765761046781836121d8565b905f614255565b90506020813d602011614323575b81614314602093836121d8565b810103126103da57515f614003565b3d9150614307565b614344915060203d6020116104765761046781836121d8565b5f613fa5565b6102008401516040516370a0823160e01b8152306004820152906001600160a01b03908116906020908390602490829087165afa9182156138b9575f92614411575b5060405163a9059cbb60e01b81526001600160a01b0390911660048201526024810191909152906020908290815f81604481015b03926001600160a01b03165af180156138b95715613f57576020813d602011614409575b816143f1602093836121d8565b810103126103da576144029061235f565b505f613f57565b3d91506143e4565b91506020823d60201161443f575b8161442c602093836121d8565b810103126103da579051906143c061438c565b3d915061441f565b9092506020813d602011614473575b81614463602093836121d8565b810103126103da5751915f613f50565b3d9150614456565b61449591925060203d6020116104765761046781836121d8565b905f613f1b565b600492935090816144b892903d106126a85761269781836121d8565b905091905f613ee1565b61eeee811480156145b7575b156145b05782905b6144df87614f65565b9261453f603f60405180966c4465666966612067616d65202360981b6020830152614514815180926020602d860191016127e9565b810171103430b9903132b2b71039b2ba3a3632b21760711b602d82015203601f8101875201856121d8565b60405161454b816121bd565b5f81526001600160a01b0382163b156103da575f938961458388936040519889978896879563019f1d0b60e31b87526004870161328d565b03926001600160a01b03165af180156138b9576145a1575b80613e87565b6145aa90612157565b5f61459b565b5f906144d6565b6145cb846001600160a01b03851684614b95565b6144ce565b90506020813d6020116145fa575b816145eb602093836121d8565b810103126103da57515f61365f565b3d91506145de565b90506020813d60201161462c575b8161461d602093836121d8565b810103126103da57515f613571565b3d9150614610565b90506020813d60201161465e575b8161464f602093836121d8565b810103126103da57515f61353c565b3d9150614642565b9094506020813d602011614692575b81614682602093836121d8565b810103126103da5751935f61350e565b3d9150614675565b6146b491955060203d6020116104765761046781836121d8565b935f6134cd565b6146d591935060203d6020116104765761046781836121d8565b915f61349e565b6146f691955060203d6020116104765761046781836121d8565b935f613455565b604051935061470b846120d7565b600184525f5b6020811061478b575083600354801561477757614770926040519161473583612121565b600183525f6020840152633b9aca0004604083015260608201523060808201525f60a08201525f60c082015261476a826126c6565b526126c6565b505f6133f0565b634e487b7160e01b5f52601260045260245ffd5b60209060405161479a81612121565b5f81525f838201525f60408201525f60608201525f60808201525f60a08201525f60c082015282828801015201614711565b9093503d805f833e6147de81836121d8565b8101906020818303126103da578051906001600160401b0382116103da570181601f820112156103da578051906148148261225a565b9261482260405194856121d8565b8284526020840190602060e0809502840101928184116103da57602001915b838310614854575050505050925f6133e7565b84838303126103da576040519061486a82612121565b6148738461235f565b82526148816020850161235f565b60208301526040848101519083015260608085015190830152608080850151906001600160a01b03821682036103da5783015260a0848101519083015260c080850151929091906001600160a01b03841684036103da578793602093820152815201920191614841565b61490591935060203d6020116104765761046781836121d8565b915f613360565b6040516366954d0b60e01b8152600490fd5b6004915014155f6132ff565b634e487b7160e01b5f52602160045260245ffd5b9050565b65ffffffffffff91821690821603919082116122ba57565b61026090604081518051151585526020810151151560208601520151151560408401526020810151606084015260408101516080840152606081015160a08401526080810151151560c084015260a0810151151560e084015260c0810151151590610100918285015260e081015115159161012092838601528101511515916101409283860152810151151591610160928386015281015115159161018092838601528101511515916101a092838601528101511515916101c092838601528101511515916101e092838601528101511515916102009283860152810151151591610220928386015260018060a01b0390820151166102408501520151910152565b9081518082526020808093019301915f5b828110614a7b575050505090565b835180516001600160a01b03908116875281840151168684015260408082015190870152606080820151908701526080808201519087015260a0908101519086015260c09094019392810192600101614a6d565b604080830151905163a40bb9c760e01b8152600481019290925260248201526103a0919082816044817f00000000000000000000000000000000000000000000000000000000000000006001600160a01b03165afa9283156138b9575f93614b51575b505051905190600182018092116122ba5703614b4c575f90565b600190565b614b68929350803d106126a85761269781836121d8565b50905f80614b32565b905f918051614b8c575b60200151614b8557565b9060021790565b60019250614b7b565b91909181158015614c46575b15614be25760405163095ea7b360e01b60208201526001600160a01b0390931660248401526044830191909152614be09190613e498260648101613e3b565b565b60405162461bcd60e51b815260206004820152603660248201527f5361666545524332303a20617070726f76652066726f6d206e6f6e2d7a65726f60448201527520746f206e6f6e2d7a65726f20616c6c6f77616e636560501b6064820152608490fd5b50604051636eb1769f60e11b81523060048201526001600160a01b0384166024820152602081806044810103816001600160a01b0386165afa9081156138b9575f91614c94575b5015614ba1565b906020823d8211614cbd575b81614cad602093836121d8565b810103126101395750515f614c8d565b3d9150614ca0565b604051636eb1769f60e11b81523060048201526001600160a01b0383166024820152602094939092908584806044810103816001600160a01b0387165afa9384156138b9575f94614dad575b50808410614d565760405163095ea7b360e01b968101969096526001600160a01b03909116602486015290910360448401529091614be091613e498260648101613e3b565b60405162461bcd60e51b815260048101879052602960248201527f5361666545524332303a2064656372656173656420616c6c6f77616e63652062604482015268656c6f77207a65726f60b81b6064820152608490fd5b90938682813d8311614dd5575b614dc481836121d8565b81010312610139575051925f614d11565b503d614dba565b604051614e39916001600160a01b0316614df5826120d7565b5f806020958685527f5361666545524332303a206c6f772d6c6576656c2063616c6c206661696c656487860152868151910182855af1614e3361325e565b91614ec8565b8051828115918215614ea9575b5050905015614e525750565b6084906040519062461bcd60e51b82526004820152602a60248201527f5361666545524332303a204552433230206f7065726174696f6e20646964206e6044820152691bdd081cdd58d8d9595960b21b6064820152fd5b83809293500103126103da5781614ec0910161235f565b80825f614e46565b91929015614f2a5750815115614edc575090565b3b15614ee55790565b60405162461bcd60e51b815260206004820152601d60248201527f416464726573733a2063616c6c20746f206e6f6e2d636f6e74726163740000006044820152606490fd5b825190915015614f3d5750805190602001fd5b60405162461bcd60e51b815260206004820152908190614f6190602483019061280a565b0390fd5b805f917a184f03e93ff9f4daa797ed6e38ed64bf6a1f010000000000000000808210156150bd575b506d04ee2d6d415b85acef8100000000808310156150ae575b50662386f26fc100008083101561509f575b506305f5e10080831015615090575b5061271080831015615081575b506064821015615071575b600a80921015615067575b60019081602181860195614ffd876121f9565b9661500b60405198896121d8565b80885261501a601f19916121f9565b01366020890137860101905b615032575b5050505090565b5f19019083906f181899199a1a9b1b9c1cb0b131b232b360811b8282061a83530491821561506257919082615026565b61502b565b9160010191614fea565b9190606460029104910191614fdf565b6004919392049101915f614fd4565b6008919392049101915f614fc7565b6010919392049101915f614fb8565b6020919392049101915f614fa6565b60409350810491505f614f8d565b91905f198184098184029182808310920391808303921461514957633b9aca00908183101561512b577f88f2cfb83100cb4e69e7c79c58b316e597157d372fb9787e8e47ce423a2e9c6d94950990828211900360f71b910360091c170290565b6044838360405191631dcf306360e21b835260048301526024820152fd5b5050633b9aca009004915056fe840060ef23ca0ed289d5a8ad1b5fe10697027c885fe9adb64d80b9294baf14b3a26469706673582212209f03e4627291a0ebbed883485902cac1d340a7bd2000e70a14a1def88d8b8e8364736f6c63430008140033","linkReferences":{}},"methodIdentifiers":{"baseProtocolProjectId()":"0549cb32","controller()":"f77c4791","currentGamePhaseOf(uint256)":"0715610a","currentGamePotOf(uint256,bool)":"b4dfb086","defifaProjectId()":"0134a03d","delegateCodeOrigin()":"06b552b5","delegatesRegistry()":"d574ff04","feeDivisor()":"9a36f932","fulfillCommitmentsOf(uint256)":"b6674cde","fulfilledCommitmentsOf(uint256)":"f2ae5f6e","governor()":"0c340a24","launchGameWith((string,(string,uint256),string,string,(string,uint80,uint16,address,bytes32,bool)[],address,uint24,uint24,uint48,(bool,bool,uint256,uint256,address,uint256,address)[],uint256,uint256,address,address,address,address))":"29045728","nextPhaseNeedsQueueing(uint256)":"81312a14","onERC721Received(address,address,uint256,bytes)":"150b7a02","queueNextPhaseOf(uint256)":"1c069dbb","splitGroup()":"859bb4b2","timesFor(uint256)":"b07925d3","tokenOf(uint256)":"ea78803f","tokenUriResolver()":"e131fc0c"},"id":1}